:020000040800F2
:10000000F0FF0010C5480508D5370108CD3D0208AE
:1000100065490508654905086549050800000000AF
:10002000000000000000000000000000E1370108AF
:10003000DD37010800000000D9370108BD130208B0
:1000400065490508654905086549050865490508C4
:1000500065490508654905086549050865490508B4
:1000600065490508654905086549050849FD000811
:1000700039FD000829FD000819FD000805FD0008EC
:10008000F1FC0008DDFC0008654905086549050824
:100090006549050865490508654905086549050874
:1000A000A9FA010835000208D9F90108B9010208C6
:1000B00075FF0108B5FE0108E9FD01083D130108BF
:1000C000451301082D13010835130108654905087A
:1000D00065490508C9140208BD140208B1140208D4
:1000E0006549050865490508C985010809F9010838
:1000F00079FB01086549050849FC0108C9FC0008AD
:10010000654905086549050819FD0108654905089F
:10011000A514020809140208A1CA030831C903087A
:10012000B5FC0008A1FC00088DFC000879FC000863
:1001300065FC000865490508654905086549050825
:100140006549050865490508654905089D52010886
:1001500051FC00083DFC000829FC0008FD130208C2
:100160001D1301082513010865490508654905089F
:100170006549050865490508654905086549050893
:08018000654905086549050801
:080188006C44050001000000B9
:1001900010020100302100202C210020000000006E
:1001A0006C0700081F0210004421002034210020A9
:1001B000000000008D84000814000300385A00205D
:1001C000A45A002000000000700700080B3018003F
:1001D000484A0020A85A00200000000074070008C8
:1001E0001F302400604A0020C05A00200000000098
:1001F0008C07000805020400CC550020E45A0020BA
:1002000000000000B007000803010A00A04A002017
:10021000E85A002000000000B407000813020400A0
:10022000AC480020F45A002000000000BE0700087F
:1002300007020200A06C0020F46C00200000000007
:10024000C4070008F6210C00D06B0020F86C0020D9
:1002500000000000C807000802000C00786B0020B6
:10026000046D0020000000000000000006020C00E9
:10027000706C0020106D002000000000D193000879
:1002800008120F00F06B00201C6D00200000000021
:100290001D840008F7010600E46B00202C6D00208F
:1002A00000000000D40700081A023C003C6E002049
:1002B000587100200000000041930008270004004E
:1002C000386E00209471002000000000DA0700085A
:1002D00020320A00F87C0020EC7C002000000000A6
:1002E000816802081C0210006C780020047D002048
:1002F00000000000B183000828101000E47B0020FB
:10030000147D002000000000F968020804120200B9
:10031000847C0020247D002000000000DE0700080F
:100320000F020100807C0020287D002000000000DA
:10033000E007000801200800687400202C7D0020E0
:1003400000000000E20700080A702800E4730020A3
:10035000347D002000000000A16802080EA06E019C
:10036000747200205C7D0020000000002DF703085F
:1003700001010400D8710020CC7E002000000000A4
:100380000000000000010400D0710020D07E002099
:1003900000000000EA07000802010300CC71002001
:1003A000D47E0020000000004186010809020100FF
:1003B000B49A00205C9B002000000000EE070008BB
:1003C0002202140184980020609B0020000000009D
:1003D0009D9500080C109C0094880020749C0020BF
:1003E0000000000015860108010205007888002041
:1003F000109D002000000000810403080002050099
:1004000070880020189D00200000000000000000FF
:100410001B0208004C880020209D002000000000E6
:10042000DD8300081E0006007C850020289D00203A
:1004300000000000F00700081B100C00E8800020FE
:10044000309D0020000000007D0903082102F0001B
:10045000687F00203C9D002000000000BD050308CF
:100460000E020200488B00202C9E0020000000009D
:10047000F607000823100E001C9B0020309E002071
:1004800000000000116902082F102200E09A0020ED
:10049000409E002000000000F8070008161006002B
:1004A000D89A0020649E0020000000001A0800086E
:1004B00005100600489B00206C9E002000000000F4
:1004C0002008000837102400E8870020749E0020D0
:1004D0000000000026080008F5518800D87E0020A2
:1004E000989E0020000000009939030826100C0097
:1004F0002C9F0020209F00200000000059FB0208D4
:100500000A020A00ECA4002034A70020000000002A
:10051000897E03080300010014A0002040A70020EA
:1005200000000000000000000312330000A70020BC
:1005300044A70020000000004A08000825102C01F4
:1005400020A5002078A70020000000000000000087
:10055000101002005C9F0020A4A8002000000000F2
:100560007E0800081A000E0054B0002080B0002061
:1005700000000000800800081900050090AF00206E
:1005800090B00020000000008E080008F82106004E
:1005900000AE002098B00020000000009408000881
:1005A0001500700044AC0020A0B000200000000046
:1005B000000000002A006000F4AF002010B100200D
:1005C0000000000005F703082C00100080B1002097
:1005D00070B1002000000000FDF503082B0024008E
:1005E000B4B1002090B1002000000000CDF5030858
:1005F0002920780034AA0020D8B100200000000093
:100600000000000004008000A0D6002098E0002038
:1006100000000000000000001300040080D600204D
:1006200018E10020000000009C080008FD012400E3
:100630005CD600201CE1002000000000EDE801086D
:1006400018202E0028D6002040E1002000000000E5
:100650000595000806101A0004D6002070E100205D
:100660000000000049F90308FB01010000D600204A
:100670008CE100200000000071950008FC010900D9
:10068000CCD4002090E100200000000081950008FB
:1006900034001000BCD300209CE1002000000000CA
:1006A0001DF903081102080094D30020ACE10020DA
:1006B00000000000A0080008121204008CD30020E3
:1006C000B4E1002000000000A8080008122010007B
:1006D0007CD30020B8E1002000000000AC08000836
:1006E0000D004C00E0C60020C8E100200000000022
:1006F00049EB0108F9010400A4C6002014E200201F
:100700000000000063E90108FA0102008CC000202B
:1007100018E2002000000000AD850008020203007E
:10072000D0B400201CE20020000000000000000007
:100730000C020400BCB4002020E2002000000000F5
:100740007584000811000C00D6B4002024E20020BB
:100750000000000041E50108FE01140054B400202F
:0C07600030E2002000000000E9830008E7
:10076C000000000003000000AE014A015E012C01F4
:10077C0064010100000001000A019A01001E0A0038
:10078C000000000000010000000500000102030051
:10079C00000000000000000000000000000000004D
:1007AC000080070000000000040101006C1600002E
:1007BC000000000001000000013C000000000000EF
:1007CC0001000000020200003D01000000002003B7
:1007DC00000000000000E8036400040A000190011E
:1007EC0000002700000001000000000000000000D5
:1007FC0000000000000000000000000000000000ED
:10080C000000000000000000000000000000C4090F
:10081C000000190020000101000020003200C80077
:10082C00D0079600140032002800B00440060005E2
:10083C00500014000F0008006400010001000000CB
:10084C00000000000000000000000000000000009C
:10085C00000000000000000000000000000000008C
:10086C00000000000000000000000000000000007C
:10087C00010000057E05EA05B4053200E803D00747
:10088C0000000000280100000401F4011400000025
:10089C00080045300000000001010101FFFFFFFFCF
:1008AC00000000010000054F4E5834000008000005
:1008BC001A0300000000000000000000000000000F
:1008CC000000000000000000000000000403090408
:1008DC0012010002000000408304205700020102B4
:1008EC000301000055D300080985000805850008A0
:1008FC0001850008E5950008FD840008F9840008CE
:10090C00B463050875390108C11A0108B54401081A
:10091C000000000000000000B9410108D5400108AA
:10092C00000000000000000000000000F9150108A4
:10093C00A185000895850008899B0008A59B0008E7
:10094C004D8500086D9B0008519B00080068214CE8
:10095C001F0000001C0000001F0000001E00000013
:10096C001F0000001E0000001F0000001F00000000
:10097C001E0000001F0000001E0000001F000000F1
:10098C00FF01FF0000000000000000000102030452
:10099C00060708090403090412010002EF020140D2
:1009AC00830456320002010203010000120100020E
:1009BC0002020040830440570002010203010000C0
:1009CC0009022000010104C03209040000020806DB
:1009DC005005070581024000000705010240000098
:1009EC0009026400030100C0320904000001030085
:1009FC0000000921110100012226000705830308CC
:100A0C00000A080B010202020100090401000102A4
:100A1C000201000524001001052401000204240237
:100A2C00020524060102070582030800FF090402DF
:100A3C0000020A00000007050102400000070581C2
:100A4C000240000009024300020100C03209040008
:100A5C00000102020100052400100105240100011F
:100A6C00042402020524060001070582030800FF86
:100A7C0009040100020A0000000705010240000001
:100A8C000705810240000000FF000000FC6D050816
:100A9C00000000000000000000000000000000004A
:100AAC00000000000000000000000000000000003A
:100ABC000000000000FFFF0000000000AA55050127
:100ACC0000000100D06D05080000000000000000CF
:100ADC00000000000000000000000000000000000A
:100AEC00000000000000000000000000FF1FFF1FBE
:100AFC0005010905A101A1000501093009310932DF
:100B0C00093309350934094009381581257F7508E1
:100B1C0095088102C0C0000009022200010100E01A
:100B2C003209040000010301020009211101000136
:100B3C002226000705830308000A000000000000BD
:100B4C000102030401020304060708091944010801
:100B5C001D43010875470108BD160108351C010825
:100B6C00CD160108E916010895160108851601082D
:100B7C0000000000000000002D202D2D202D2D2D1B
:100B8C002D202D2D2D2D0000000000000000000058
:100B9C0000000000000000AA550B010000AA550738
:100BAC00010000AA550902000000AA5503009F008D
:100BBC0001000000C0120000785A00200000000064
:100BCC009C5A00200000000000000000E46C002093
:100BDC000800000000000000D46C00200800000099
:100BEC0038D4050844D4050850D405085CD405084D
:100BFC0068D4050874D40508E0EE0508D01306087F
:100C0C00B4120608C4D30508603B060828D40508AE
:100C1C002CD4050830D4050834D4050880D4050834
:100C2C0084D4050888D405080C1106088CD4050852
:100C3C001900C800F4012003685E0C0001000000DC
:100C4C00A00F0000B80B00000102FFFF0100000024
:100C5C00191C0108051B0108514701080000000080
:100C6C008116010809430108551A0108814201083F
:100C7C0000000000000000003D160108D11501081D
:100C8C00C515010885380108A13801086938010823
:100C9C004D38010831380108D11B0108E11A01084F
:100CAC009146010800000000551601088542010814
:100CBC00291A0108E14101080000000000000000B1
:100CCC00491601080100000019600208000000002C
:100CDC000C81050820700020702D7200FFFFFFFFB3
:100CEC00D60101010100000000010101002D202DA1
:100CFC002D202D2D2D2D202D2D2D00000000000040
:100D0C0000000000000000000000000000000000D7
:100D1C000000000000960508000000000000000024
:100D2C008C96050801000000FA000000010000008C
:100D3C0001000000010100003A74002000C801000D
:100D4C00397400200050010038740020005A010052
:100D5C00367400200200000088850508B8E00508FC
:100D6C00C0E0050882E000200100C409000000007A
:100D7C0080E000200100C409000000007EE000209B
:100D8C000100C409000000007CE000200100C4093F
:100D9C000000000078E000200100C4090000000001
:100DAC007AE000200100C4090000000076E0002079
:100DBC000100C4090000000074E000200100C40917
:100DCC0000000000EE7100200100C80001000000CE
:100DDC00EC7100203200307532000000EA71002006
:100DEC00055A0500E771002000FF0100E9710020A1
:100DFC000100000034060020E57100200200000014
:100E0C00809D0508E671002000FF0100E8710020BC
:100E1C000100000034060020E471002002000000F4
:100E2C00809D050874740020EE02CA0801000000C1
:100E3C007274002000C8010064000000717400206E
:100E4C0000C8010064000000707400200200000063
:100E5C0094850508DE71002080C1803E05000000ED
:100E6C00DC71002080C1803E05000000D67100209E
:100E7C0080C1803E05000000D471002080C1803EFE
:100E8C0005000000CF71002000FF0100C871002098
:100E9C006400F40101000000C77100200400000090
:100EAC00A0850508C671002002000000B485050865
:100EBC00637200200D000000C085050860720020E0
:100ECC00006401005E720020320010270A0000004E
:100EDC005D7200200D000000C08505085C720020CA
:100EEC000D000000C08505085B72002002000000A8
:100EFC00F8850508000000000000000004860508C5
:100F0C00845500209CFF2C0100000000AA770020D3
:100F1C00E0150C1700000000AC7700200200000068
:100F2C003C860508807400200100FF7F0100000052
:100F3C007F740020020000004886050865720020BE
:100F4C0003000000588605086472002003000000AE
:100F5C0058860508187400200000E8030100000002
:100F6C00167400200000E803010000001474002037
:100F7C000000E80301000000127400200000E803E8
:100F8C0001000000107400200000E80301000000C4
:100F9C000E7400200000E803010000000D74002016
:100FAC00001401000C740020030000006886050882
:100FBC00247400200000F4010100000022740020C1
:100FCC000000F40101000000207400200000F40176
:100FDC00010000001E7400200000F401010000005C
:100FEC001C7400200000803E010000001A740020D8
:100FFC000000803E010000004D74002019640100C7
:10100C004C74002002000000788605084A74002009
:10101C00E803D0070A0000004874002000640100B7
:10102C000A0000003D740020006401003C740020A4
:10103C000064010044740020006401000A000000F8
:10104C0043740020006401000A0000004274002078
:10105C00006401000A0000004774002000640100D5
:10106C000A00000046740020006401000A00000021
:10107C0045740020006401000A0000004174002047
:10108C0001FF01000A0000004074002001FF010074
:10109C000A0000003F74002001FF01000A0000005C
:1010AC006E7200200000F401010000006C72002040
:1010BC000000F401010000006A7200200000F4013D
:1010CC0001000000687200200000F4010100000023
:1010DC00667200200000F40101000000357400204D
:1010EC00006401003474002000640100337400209B
:1010FC000064010032740020FF08010031740020EC
:10110C000164010011660208D56502088486050891
:10111C0030740020006401002E7400201400E803D9
:10112C00010000002C740020E80330750A00000058
:10113C002A74002000C801002974002000C8010096
:10114C002874002000C801002774002000640100EE
:10115C000A000000647400200000D00701000000A9
:10116C005F74002000C801005E74002000C80100FC
:10117C005D74002000C80100627400200000D007DC
:10118C00010000005C74002000C801005B740020AA
:10119C0000C801005A74002000C8010060740020CF
:1011AC000000D007010000005974002000C80100A5
:1011BC005874002000C801005774002000C80100BA
:1011CC000000000045630208F486050859720020EF
:1011DC0031000000908705085872002000C80100FB
:1011EC0056720020E803D007010000004F4D4E4915
:1011FC004E58543400000000E3710020000301003D
:10120C00E2710020000301008D6202086562020891
:10121C005888050821620208D5610208AC880508C7
:10122C00CD620208B56202082C890508E071002025
:10123C00010301007167020845670208208C05084C
:10124C006561020825610208848C05085B6302084D
:10125C001D920208208D05089D82020800000000E6
:10126C00C88D0508F1890208D1670208648E05084B
:10127C00AD63020800000000E48E050885640208D6
:10128C0031640208488F050815650208D964020804
:10129C00E48F05084D6602089566020864900508FF
:1012AC003B74002001060100F5630208C1630208CB
:1012BC006091050851650208ED860208D091050879
:1012CC00C966020871870208B092050826740020CE
:1012DC000103010015630208E56202088493050806
:1012EC009D67020800000000E8930508A56102084C
:1012FC00698602084C9405080000000000000000FC
:10130C00D89405081D670208E98702085895050856
:10131C00C271002088136F1701000000C4710020F7
:10132C0088136F1700000000FE4A00200000000028
:10133C0000000000FC4A002000000000000000003B
:10134C00FA4A00200000000000000000F84A0020CB
:10135C000000000000000000F64A00200000000021
:10136C0000000000F44A0020000000000000000013
:10137C008C04002000000000000000009871002088
:10138C0002000000E0960508C071002088136F175A
:10139C0001000000C455002088136F1700000000E6
:1013AC00B960020800000000EC960508DE7700200A
:1013BC000100000040970508C65500200100000000
:1013CC004C970508BC5500200200000054970508F6
:1013DC00000000000000000060970508A5600208EE
:1013EC0000000000FC970508000000000000000051
:1013FC00509805080000000000000000C098050887
:10140C00C0550020E0150C17000000000100000082
:10141C0000000100E0010000FFFFFFFF08000000DA
:10142C00425702000000010642570200000001066C
:10143C00FFFFFF01FFFFFFFF0000803F00000000E7
:10144C0000000000000000000000803FFFFFFFFFD5
:10145C00FF000000FFFFFFFF0000803F00000000C6
:10146C0000000000000000000000803F00000000B1
:10147C000000000000000000000000000000000060
:10148C000000000000000000000000000000000050
:10149C000000803F00000000000000000000000081
:1014AC000100000000000401000000000000000228
:1014BC001000000007000800C1150108BD15010847
:1014CC00B9150108AD150108A9150108B5150108D4
:1014DC00B115010800004000040000048D870108CC
:1014EC0000000000000000000000000001000000EF
:1014FC00006002401060024000000000000000008C
:10150C00000B0000000000000000000000000000C4
:10151C000060024028600240010000000000000052
:10152C00060C00000000000000000000000000009D
:10153C000060024040600240020000000000000019
:10154C00100D000000000000000000000000000072
:10155C0000600240586002400300000000000000E0
:10156C00160E00000000000000000000000000004B
:10157C0000600240706002400400000000000000A7
:10158C00200F000000000000000000000000000020
:10159C00006002408860024005000000000000006E
:1015AC0026100000000000000000000000000000F9
:1015BC0000600240A0600240060000000000000035
:1015CC0030110000000000000000000000000000CE
:1015DC0000600240B86002400700000000000000FC
:1015EC00362F00000000000000000000000000008A
:1015FC000064024010640240000000000000000083
:10160C000038000000000000000000000000000096
:10161C000064024028640240010000000000000049
:10162C00063900000000000000000000000000006F
:10163C000064024040640240020000000000000010
:10164C00103A000000000000000000000000000044
:10165C0000640240586402400300000000000000D7
:10166C00163B00000000000000000000000000001D
:10167C00006402407064024004000000000000009E
:10168C00203C0000000000000000000000000000F2
:10169C000064024088640240050000000000000065
:1016AC0026440000000000000000000000000000C4
:1016BC0000640240A064024006000000000000002C
:1016CC003045000000000000000000000000000099
:1016DC0000640240B86402400700000000000000F3
:1016EC003646000000000000000000000000000072
:1016FC0058FE0508DCF605080000000055860108B8
:10170C00A0860100040000000000000000000000A2
:10171C0000000000000000000000000000000000BD
:10172C0000000000000000000000000000000000AD
:10173C0058FE050860FE050800000000BDE5010824
:10174C00E80300000400000000000000000000009E
:10175C00000000000000000000000000000000007D
:10176C00000000000000000000000000000000006D
:10177C00CCE6050868FE050800000000898B03080C
:10178C007D000000060000000000000000000000CA
:10179C00000000000000000000000000000000003D
:1017AC00000000000000000000000000000000002D
:1017BC0070FE05080000000000000000714F0208D8
:1017CC00E80300000300000000000000000000001F
:1017DC0000000000000000000000000000000000FD
:1017EC0000000000000000000000000000000000ED
:1017FC0074FE05080000000000000000517504088C
:10180C001027000003000000000000000000000092
:10181C0000000000000000000000000000000000BC
:10182C0000000000000000000000000000000000AC
:10183C00A8390608000000008D8002085D3E0208F1
:10184C005F760000050000000000000000000000B2
:10185C00000000000000000000000000000000007C
:10186C00000000000000000000000000000000006C
:10187C00003A060800000000000000007D58020835
:10188C001027000001000000000000000000000014
:10189C00000000000000000000000000000000003C
:1018AC00000000000000000000000000000000002C
:1018BC0080FE05080000000000000000BFE50108E4
:1018CC00E80300000500000000000000000000001C
:1018DC0000000000000000000000000000000000FC
:1018EC0000000000000000000000000000000000EC
:1018FC008CFE05080000000000000000498E010865
:10190C00204E00000300000000000000000000005A
:10191C0000000000000000000000000000000000BB
:10192C0000000000000000000000000000000000AB
:10193C009CFE050800000000000000004D8C010812
:10194C00204E00000300000000000000000000001A
:10195C00000000000000000000000000000000007B
:10196C00000000000000000000000000000000006B
:10197C00ACFE050800000000000000000554020841
:10198C00400D0300030000000000000000000000F8
:10199C00000000000000000000000000000000003B
:1019AC00000000000000000000000000000000002B
:1019BC007CD205080000000000000000C94C0208A1
:1019CC0010270000010000000000000000000000D3
:1019DC0000000000000000000000000000000000FB
:1019EC0000000000000000000000000000000000EB
:1019FC0048F405080000000000000000D91403089A
:101A0C001027000003000000000000000000000090
:101A1C0000000000000000000000000000000000BA
:101A2C0000000000000000000000000000000000AA
:101A3C00BCFE05080000000000000000A1EA02083E
:101A4C00A086010001000000000000000000000062
:101A5C00000000000000000000000000000000007A
:101A6C00000000000000000000000000000000006A
:101A7C00C4FE0508000000000000000065EE01082F
:101A8C0050C3000001000000000000000000000036
:101A9C00000000000000000000000000000000003A
:101AAC00000000000000000000000000000000002A
:101ABC00C8E30508000000000000000049FB020814
:101ACC00A0860100000000000000000000000000E3
:101ADC0000000000000000000000000000000000FA
:101AEC0000000000000000000000000000000000EA
:101AFC0000E30508000000000000000091EB010865
:101B0C00A8610000010000000000000000000000BF
:101B1C0000000000000000000000000000000000B9
:101B2C0000000000000000000000000000000000A9
:101B3C00CCFE05080000000000000000C54A0308A8
:101B4C00A086010001000000000000000000000061
:101B5C000000000000000000000000000000000079
:101B6C000000000000000000000000000000000069
:101B7C00A4D2050800000000000000008F15020828
:101B8C00A00F000001000000000000000000000099
:101B9C000000000000000000000000000000000039
:101BAC000000000000000000000000000000000029
:101BBC00D8FE05080000000000000000B93A030838
:101BCC0010270000010000000000000000000000D1
:101BDC0000000000000000000000000000000000F9
:101BEC0000000000000000000000000000000000E9
:101BFC00E4FE0508000000000000000079E4010884
:101C0C00A00F000001000000000000000000000018
:101C1C0000000000000000000000000000000000B8
:101C2C0000000000000000000000000000000000A8
:101C3C00E0ED05080000000000000000A1680308AA
:101C4C001A4100000100000000000000000000002C
:101C5C000000000000000000000000000000000078
:101C6C000000000000000000000000000000000068
:101C7C00C0E205080000000000000000ED1E010895
:101C8C001027000001000000000000000000000010
:101C9C000000000000000000000000000000000038
:101CAC000000000000000000000000000000000028
:101CBC00E8F605080000000000000000A5990208E5
:101CCC001A410000010000000000000000000000AC
:101CDC0000000000000000000000000000000000F8
:101CEC0000000000000000000000000000000000E8
:101CFC00F0FE05080000000000000000552501085A
:101D0C00400D030000000000000000000000000077
:101D1C0000000000000000000000000000000000B7
:101D2C0000000000000000000000000000000000A7
:101D3C00F8FE050800000000000000007BE501082B
:101D4C00400D030000000000000000000000000037
:101D5C000000000000000000000000000000000077
:101D6C000000000000000000000000000000000067
:101D7C0000FF0508000000000000000039450308C2
:101D8C0050C3000003000000000000000000000031
:101D9C000000000000000000000000000000000037
:101DAC000000000000000000000000000000000027
:101DBC000CFF05080000000000000000C18B0108AA
:101DCC0040420F0000000000000000000000000076
:101DDC0000000000000000000000000000000000F7
:101DEC0000000000000000000000000000000000E7
:101DFC0018FF050800000000000000005D570208F5
:101E0C0050C30000000000000000000000000000B3
:101E1C0000000000000000000000000000000000B6
:101E2C0000000000000000000000000000000000A6
:101E3C000000803F9C3906080000080205030300DF
:101E4C00A4390608010008020504030028FE050851
:101E5C000200FE010110030014E405080300140243
:101E6C0000030000AC39060804001F020100080042
:101E7C00B439060805001F0201010800FFFF00002D
:041E8C00FFFFFFFF56
:1080000003685A1C02601970704700BF2DE9F047E1
:10801000089C2578002B804689460CBF4FF0200A2B
:108020004FF0300A661C25B3002A26DD334601E0F6
:10803000024698B113F8011B501E0029F8D1971E73
:1080400060B13D46013D51464046C8476B1C002B80
:10805000F8DC257827EAE770013045B1041B294692
:108060004046C847301916F8015B002DF7D1BDE82E
:10807000F087002A03DC2846F9E70020EEE7571EC8
:10808000DFE700BF2DE9F04714461D4606464FF4D2
:108090007A720023204629464CF048FA4D4BDFF80F
:1080A00048814D4A4D4F034488FB03101844D917AB
:1080B00082FB032CC1EB601088FB002887FB0327A1
:1080C0009C44474AC1EBEC2CC0EB001E82FB0C2900
:1080D000A3EB8E0E1F44434A86F806E0C1EB274708
:1080E0004FEAEC7E08EB000ACEEBA90E82FB07827A
:1080F0004FEAE0780EEB4E0EC8EB6A18ACEBCE0CF4
:10810000C8EB0818DFF8E4E086F804C0A0EB8800AC
:1081100070718EFB0303F817C0EBE21240F2B5500A
:1081200000FB1272C1EBE353B2F5896F4FEA83078C
:108130003CDA40F2DA239A4242DCB2F5B77FB4BFB0
:108140004FF0000E4FF0010E4FEA4E09DFF8A0800D
:1081500009EB0E0308EBC3031FFA8EFCD88A09EB68
:108160000E0108EBC10116310B2301E031F8020DBD
:10817000904218DD013BF9D1CE44012338F83E008E
:10818000B37007F5FA670132121ABC44F270A6F810
:1081900000C0204629464FF47A7200234CF0C6F9FD
:1081A0003281BDE8F0870133DBB2E9E74FF0030C21
:1081B000E64640F29650DFF838804FF00609CEE7E9
:1081C0004FF0020CDFF82880E64640F229404FF0DD
:1081D0000409C4E780BC92C7C5B3A29107452EC26B
:1081E000ABAAAA2A73B06D1689888888792D0311E5
:1081F000586105080028F0B403DA2D230B704042C3
:108200000131092804464FF0010307DD03EB830326
:108210005B00B0FBF3F2092AF8D883B10F48A0FB4A
:108220000326B4FBF3F2092A02F1570C02F13007DE
:1082300009DD03FB1244F30801F801CBEFD1002361
:108240000B70F0BC704703FB1244F30801F8017B8C
:10825000E5D100230B70F0BC704700BFCDCCCCCC77
:10826000884270B44FF0010442D301FB04F4B0FB28
:10827000F4F58D42F9D2ECB142BB092D04FB150097
:1082800005F1570605F130020EDDB4FBF1F403F8F9
:10829000016B7CB1B0FBF4F5092D04FB150005F171
:1082A000570605F13002F0DCB4FBF1F403F8012BC2
:1082B000002CEFD100221A7070BC704703F8016BDC
:1082C000B4FBF1F4002CF5D0B0FBF4F5092D04FB60
:1082D000150005F1370605F13002EFDCB4FBF1F4CF
:1082E00003F8012B002CEFD100221A7070BC7047EC
:1082F0000546002AEAD1C0E790ED057A90ED004AE4
:10830000D0ED066AD0ED014AD0ED047A90ED035A23
:10831000D0ED025AA4EE007AB0EE406AB0EE470A01
:10832000B0EE667AA4EE867A67EEC07AA5EE407A61
:10833000E5EE867A80ED057AC0ED067A704700BFDB
:10834000D0ED057A90ED013AD0ED003AD0ED064A35
:1083500090ED024A90ED077A90ED035A90ED086A8D
:10836000D0ED045AC0ED067AF0EE406A27EE830A9B
:10837000C0ED056AA3EEA60A80ED087AA4EE240AF1
:10838000A5EE470AA5EEC60A80ED070A704700BFB2
:10839000D0ED007A90ED017A30EE670AE7EE007AD0
:1083A000B0EE670AC0ED007A704700BF704700BFAB
:1083B00030B42C230022182504240221C370012389
:1083C000C572C4730270827182734170417283708E
:1083D000C3710372837230BC704700BF06224FF432
:1083E0007A7302704360704730B430211423312215
:1083F00034254FF601744170C371FF21012342718E
:108400000022C5700482817403720370837103714A
:10841000837042818281C28130BC7047144BFF223D
:10842000F0B54FF0FF34C2700271027242724273B3
:10843000827303F10C0EA446172716261525002279
:1084400002EB820281189E4585544E708F7081F830
:1084500003C00C710AD093F90620DD791E7A5F7A89
:1084600093F90AC093F90B400633E9E7F0BD00BF6A
:10847000B861050810B41F210124022200230470F2
:1084800041708270C3705DF8044B704770B403464E
:1084900000F11001FF221A705A7002338B42FAD198
:1084A0000B4B4FF0FF3103F10F060C46002205E0A5
:1084B00093F9044093F9051013F8032F00F81240C4
:1084C00000EB42059E426970F2D170BC704700BF5C
:1084D000CC61050830B41D6995420AD314460A469A
:1084E00021448D42996938BF2A1B214430BC4CF08D
:1084F000BBBA30BC704700BF0020704701207047F6
:1085000001207047002070474FF40070024B10604C
:108510009B680B6000207047A8C60020013A30B469
:10852000D2B28C1C04EB42040025020F092AD3B2FC
:1085300003F130028ABF37330A700B704D7002317D
:108540008C424FEA0010F0D130BC70470B4A0C4B04
:1085500010681B681A22C0180A8001D109487047A8
:1085600010B5094B09491C680822FFF7D7FF2046C0
:1085700004220749FFF7D2FF024810BDE8F7FF1FAA
:10858000ECF7FF1F88010020EAF7FF1F8A01002097
:108590009A01002004230B8000487047A4010020AA
:1085A00012230B8000487047A80100203E220223BE
:1085B00002704370704700BF08307047704700BFBB
:1085C000816170476D4B2DE9F04F1C686C4BB3F81F
:1085D0000AE0B3F804809A894FEA0E2AB4EB0A0441
:1085E0004FEA1E6B4FF0000587B065EB0B05CDE938
:1085F00000450746009C1889019EA0FB044500FB2E
:108600000655E00940EA45604FEA08448C46E91106
:108610004FEA184510EB0408D888009C41EB050987
:10862000CDE90489A0FB0445B3F8028000FB0655A0
:10863000200A40EA05604FEAC83429124FEA58453B
:1086400010EB040841EB05090099A2FB010102FBB4
:1086500006114FEAD05A4AEA412A1AF5FA634FEA5C
:10866000E15B4BF10004B3F5FA6FCDE9023474F12C
:108670000003424E64DA0524AAFB040104FB0B113B
:1086800000FB0BF40AFB0144DDE90423A0FB0A0113
:1086900021444D104FEA3004121B4FEA900463EB63
:1086A000050344EA8174B8EB0408CDE90423DDE94D
:1086B000023434484FEAA10569EB05094FF0FF3158
:1086C000834274EB010326DA40F6AC501AEB000249
:1086D0004FF000014BEB010302FB03F1A2FB02236D
:1086E00003EB4103D400DD00101B45EA527563EB38
:1086F0000501DDE9044524184D41CDE904450B246D
:10870000A2FB040104FB031149104FEA3000B8EB4F
:10871000000869EB0109DDE900325343009ADDE905
:108720000201A2FB02AB0BEB430B4FEADA7242EA07
:108730004B02801A4FEAEB7361EB0301CDE90201B2
:1087400097B17168A1FB082301FB0933540D5D1536
:1087500044EAC324DDE90423A21A65EB03031D46A2
:10876000D30B43EA45433B60BCF1000F02D0029BB0
:10877000CCF8003007B0BDE8F08F00BF60170020D4
:10878000487C002024FAFFFF2DE9F04FDFF8DCC120
:10879000754CDCF808502288B4F90AA0C2EB251306
:1087A0005200C2EBE502B4F902505B436A43B4F9EC
:1087B00004501B135D43AD1305EBE225B5F5FA320A
:1087C0004FEAE57B85B04BF1FF33CDE90023DDE9CE
:1087D00000325343009AA561A2FB0289CDE9020150
:1087E000B4F908200199009809EB43095143D317C4
:1087F00000FB0311A2FB00230B444FEAEA7B0AFBB8
:1088000009F11F0308FB0B13AAFB080119444FEAE7
:10881000102A4AEA016A16034FEA212B47EA125747
:108820001AEB0602E6884BEB070312F1000A43F548
:10883000004BAAFB060106FB0B114A10CB1752EAAC
:10884000030100F08E80B4F91060009806FB09F176
:10885000F71708FB0711A6FB08673944B4F90E8027
:108860008B4601994FEAE87908FB01F100FB0911F9
:10887000A8FB00898944DCF80C104FEA4947C1F590
:10888000801C47EAD837B2464FEA4846B4F90C8014
:108890001AEB060A66464BEB070BF7174FEAC806BA
:1088A000019600260096F907DDE900674FEACC70D3
:1088B00016EB0A0647EB0B0741EA5C01801B61EBF4
:1088C000070140F6354C8946A0FB0C010CFB091151
:1088D0004BF02CFEB4F91620B4F914A04E13470B3C
:1088E00047EAC14702FB06FCD31707FB03CCA2FBF8
:1088F00007236344564307FB0366A2FB0723334465
:10890000560E46EAC31632184FEA636747EB010377
:1089100080460AFB01F14FEAEA7B08FB0B17AAFB32
:1089200008013944C60C46EA413612EB06084FEA04
:10893000E147B4F9122043EB07094FEA182141EA55
:10894000096113010B44029A0AB11B0A1360039BCD
:1089500023B105EB850580352D121D6005B0BDE8FE
:10896000F08F0023EFE700BF647C00206017002039
:108970007047704770472DE9F041334B334E1A8AE8
:108980007489B6F91450B6F90480B6F90E70B6F9C8
:1089900020C05B69121B34895443E213B6F91240BC
:1089A0001544E40294FBF5F4B6F902501444A4F51E
:1089B0007A6E0EFB0EF20EFB05F50EFB08FEB6F905
:1089C0000C80F4611213574302FB08F2121402EBFD
:1089D0006E32ED1205EBE7270232B6F90050B6F819
:1089E00006E0921002F5004207EB85070EFB02F24B
:1089F00007FA0CF74FEAD23E02374CF25032A3EBA3
:108A0000A70742FA0CF37B4355BF5B00B3FBFEF3B1
:108A1000B3FBFEF35B0078B11A1202FB02F540F6DD
:108A2000DE326A430A4D12145D4302EB254202F620
:108A3000CF6203EB2213036021B10A235C430834A5
:108A400024110C60BDE8F08160170020247C002018
:108A500043E3FFFF0A4B1A68642353434FF48052E9
:108A600093FBF2F30360074B1A880A235343302227
:108A700093FBF2F303F584531A330B60704700BF86
:108A80005C7C0020587C00204FF400630384704716
:108A90004FF40063038470474FF40063038470470E
:108AA00010B500F10C0400222121204648F00AFFF5
:108AB000FC222021204648F005FF402224212046A8
:108AC00048F000FF0C222321204648F0FBFE002244
:108AD0002221204648F0F6FE642018F0CBFB01204E
:108AE00010BD10B500F10C0470220021204648F0A2
:108AF000E9FE20220121204648F0E4FE0022022166
:108B0000204648F0DFFE642018F0B4FB012010BDC1
:108B10000122482148F0D6BE0122582148F0D2BE99
:108B20003122F42148F0CEBE044B93F8202092016C
:108B3000343202F0FC02F42148F0C4BE247C002050
:108B40002E22F42148F0BEBE034690F82B0028B137
:108B5000002283F82B20C3F82220DA84704700BF5C
:108B6000704700BF01207047034690F8640028B1A9
:108B7000002283F864209A65A3F85C20704700BF48
:108B8000704700BFF0B4037C456902681F2B37D9DA
:108B9000203B2021546899400C4223D010249C4053
:108BA000D160D4605168D940CE074ED4EFF3118321
:108BB000502282F31288EA6B1168C90709D45468FD
:108BC000002C52D1D5E909618E4243D1012285F8AA
:108BD0006020DBB283F31188037C02681F2B1946E7
:108BE00014D9203B082150689940084200D0D16038
:108BF0000421506801FA03F3184223D1F0BC7047F6
:108C0000202416689C4026420FD11946082310687C
:108C10008B40184200D093600423106803FA01F1DE
:108C20000842EBD09160F0BC7047102199409460ED
:108C300091601168D940CC07B8D5012101FA03F33E
:108C40009360B3E7D360F0BC7047012101FA03F3EE
:108C5000D360ABE7AF690F44D7600ED82E69711AA5
:108C60005160AC62002185F86010116841F001018B
:108C7000DBB2116083F31188AEE7711A5160AE6206
:108C8000F0E700BF2DE9F041B14DB24C2A782378CE
:108C90009A4240F01B81B04B1A78002A7CD0AF4B2F
:108CA0001E78AF4B002E79D11968B3F82C714E6243
:108CB0008889012A40EA07008881A3F82C6157D0EF
:108CC000D3F83011B3F85C724E628889022A40EA08
:108CD00007008881A3F85C624AD0D3F86012B3F829
:108CE0008C734E628889032A40EA07008881A3F8C2
:108CF0008C633DD0D3F89013B3F8BC744E6288896E
:108D0000042A40EA07008881A3F8BC6430D0D3F875
:108D1000C014B3F8EC754E628889052A40EA070052
:108D20008881A3F8EC6523D0D3F8F015B3F81C774D
:108D30004E628889062A40EA07008881A3F81C67EA
:108D400016D0D3F82017B3F84C784E628889072ADA
:108D500040EA07008881A3F84C6809D0D3F850286E
:108D6000B3F87C095662918901439181A3F87C692B
:108D70002A7823789A420FD07A481F469B003B44BA
:108D80009B00C218C3583BB9137A2BB9537A1BB94D
:108D90007B1C03F003032370BDE8F0815E68198932
:108DA00071603768186847F0010740F20D3137608D
:108DB000A0F848108689012A46F480768681D7D0AB
:108DC000D3F83461B3F83871D3F83001776037687D
:108DD00047F001073760A0F848108689022A46F458
:108DE00080768681C4D0D3F86462B3F86872D3F811
:108DF00060027760376847F001073760A0F84810D5
:108E00008689032A46F480768681B1D0D3F89463AC
:108E1000B3F89873D3F890037760376847F0010789
:108E20003760A0F848108689042A46F48076868147
:108E30009ED0D3F8C464B3F8C874D3F8C004776084
:108E4000376847F001073760A0F848108689052A7F
:108E500046F4807686818BD0D3F8F465B3F8F87544
:108E6000D3F8F0057760376847F001073760A0F85E
:108E700048108689062A46F4807686813FF478AFCA
:108E8000D3F82467B3F82877D3F8200777603768DA
:108E900047F001073760A0F848108689072A46F492
:108EA000807686813FF464AFD3F85428B3F858082D
:108EB000D3F850385060106840F001001060A3F8FB
:108EC00048109A8942F480729A8151E7804618F0DE
:108ED00021F927782B78BB4286461DD0BB0021485C
:108EE000DA1900EB8202167AC6B1B8F1000F3DD054
:108EF0001D490022B1F808C00132BCF1000F18BFB3
:108F00000026424501F58071F4D17EBB124A1278E9
:108F1000002A3FF434AFC2E61248BB003B449B003A
:108F2000C118C258AEEB0202002AFFF635AF4A7AEA
:108F30003AB1013AD2B24A7212B30EF57A72C25005
:108F400000E0C250044B1A78002A7FF4A8AE0FE765
:108F500088DF002089DF0020283C00102434001026
:108F60002C3C00108CDF002028340010DA1992000D
:108F70000EF51C5186181031815000223272C5E75F
:108F80004A687244C250DDE710B5027C01681F2AAE
:108F90004FF020030ED94C68203A93401C4208D071
:108FA0000B4A406800241470026822F0010202603B
:108FB000CB6010BD0C6893401C42FAD0044A406854
:108FC00000241470026822F0010202608B60F0E756
:108FD000D5B4002010B5027C01681F2A4FF0200391
:108FE0000ED94C68203A93401C4208D00B4A406886
:108FF00000241470026822F001020260CB6010BDF0
:109000000C6893401C42FAD0044A40680024147053
:10901000026822F0010202608B60F0E74C8B0020B6
:109020002DE9F041C40023189B00B749CA58526883
:10903000958AADB2EFB2FE070B4461D4BE0737D5B7
:10904000BFF35F8F1D7EEDB2012D00F0BB80AF4EF0
:10905000138BBFF35F8F231801EB83031D7E022D5B
:1090600000F0CE80231801EB83031D7E032D05D174
:109070009B7E1BB1737E002B40F01A81938896F97A
:1090800018C043F480639380231801EB83031B7E95
:10909000013363450AD1B37E00257576002B40F07D
:1090A0008A80204401EB800000234375BDE8F081F5
:1090B000964E17F0040F96F918C04DD117F04007DF
:1090C00000F0B280178A1D6AFFB205F80C705FFAD3
:1090D0008CF56F1C93F818E07BB2DF1CBE4533762D
:1090E0009C4600F00981271801EB87073F7EBB42B1
:1090F000CAD105F1020C4FFA8CFC86F818C0C3E700
:109100001588824E25F400652D042D0C15801588D8
:1091100045F4806515809D7E00273776002D3DD073
:10912000757E002D37D0231801EB830301251B7EAC
:109130007576022B03D1138843F400631380231840
:1091400001EB83039B7D43F001031382204401EB79
:109150008000037EBDE8F0819F7E757E4FF0010E9A
:1091600086F81AE0002F5CD0002D78D1231801EB8F
:1091700083035B7E002B00F0A48013880CF1010CAC
:109180004FFA8CFC43F4007386F818C013801388E0
:10919000DF05FCD478E7DB7DFF2BC4D0231801EB7F
:1091A00083039D7D05F0FE051582DB7DFF2BCDD071
:1091B000FF233376CAE7938823F440731B041B0C08
:1091C00093806EE79B7E514E002B3FF441AF737E40
:1091D000002B3FF43DAF138823F480631B041B0C6A
:1091E0001380BFF35F8F138B1388B57643F400733E
:1091F0001380938896F918C043F48063938043E703
:109200009B7E002B3FF42EAF737E002B3FF42AAFE2
:10921000138896F918C023F480631B041B0C138079
:1092200016E0002DA2D0A8E72D067FF52DAFBCF1EA
:10923000FF3F6DD0DD6915F80C5015820CF1010C63
:109240001D7E4FFA8CF39D429C4633767FF41CAF13
:10925000938823F480631B041B0C938014E71F7E08
:10926000D3F820805FFA8CF5AE44022F4FFA8EFEC1
:1092700017882DD927F480673F043F0C1780178A81
:10928000FFB208F80C701788D3F820C047F40073B9
:109290001380138ADBB20CF80E30938805F1020CB0
:1092A0004FFA8CFC43F4806386F818C093806EE715
:1092B000938896F918C023F480631B041B0C9380D9
:1092C000E2E61388012543F48073138075765EE728
:1092D00047F400771780178AFFB208F80C70178AD6
:1092E000D3F8208005F1030C4FFA8CFCFBB286F812
:1092F00018C008F80E304AE7978827F480673F04C3
:109300003F0C9780EFE600BF046C00206017002040
:10931000DD7D15829D7E37761DB91B7E002B7FF487
:1093200015AF938823F480631B041B0C93800DE717
:1093300048F060BB014B186818F026B9087100208E
:1093400038B51D4B1B78044600F1250593B1042266
:109350001A4920304CF0EAFE2846142218494CF0F5
:10936000E5FE012384F83A30164B1B7873B984F874
:109370003B3038BD2846142213494CF0D7FE012358
:1093800084F83A300F4B1B78002BF0D00F4B186845
:1093900059689A68DD68E56020606160A260DD69F7
:1093A000186959699A69A2610123E56120616161C7
:1093B00084F83B3038BD00BFDE6B0020A06B00207E
:1093C000886B0020DF6B00200CD00508A86B002004
:1093D0000D4B002270B4026003F10A0629252824EF
:1093E00000EB820100F822404D70DC781A79CA70D7
:1093F000B3428C7005D093F905209C79DD79053353
:10940000EEE770BC704700BFE06105082DE9F84F3A
:10941000DDE90A6489461746002120229846054660
:109420004CF046FE5EB1D6E900327189EB81C3F3A0
:109430000F432B82C2F30F43EA822B836982484693
:109440004AF07EFB17F0100B10D1431E70B119F8D3
:1094500003202E2A18BF09EB030104D14AE011F8BA
:10946000016D2E2E3ED013F1FF33F8D208280246AC
:10947000CA46A8BF08224FF0000B4FF020336B60A4
:109480002B60C5F807304946284605F108064BF021
:10949000EBFA5A46514630464BF0E6FA6B1EE81D91
:1094A00013F8012FA2F1610119299CBF203A1A700B
:1094B0008342F5D105F10B0116F8013BA3F16102DE
:1094C000192A9CBF203B06F8013CB142F4D1182375
:1094D000C8F30F42EF722B73A5F81A80AA82EC61D1
:1094E000BDE8F88FC01A00F1FF3BBBF1030FA8BF26
:1094F0004FF0030B082B03F1010AA8BF0823CA444D
:109500001A46BAE738B52E2200214CF0D1FD0346A9
:1095100040F2DC51642040F21A4240F202241874F6
:109520005982132019219A8240F2753240F26C75EB
:109530001C8398760E2402201977DA830A210122EF
:10954000DD8283F82C0040F6430583F82D1083F864
:1095500022409A7383F8252083F82B201D84194616
:109560000248BDE8384026F0E5B800BF18D005082D
:1095700010B500210446012017F0A4F8207010BD9A
:1095800038B500240472451EE1B2022017F09AF8A3
:109590000134082C05F8010FF6D138BD38B5002488
:1095A000054604802146284601342BF08BFC082C0C
:1095B000F8D1002185F8E210A5F8E410A5F8E6102E
:1095C000A5F8E810A5F8EA10A5F8EC10A5F8EE103B
:1095D000A5F8F010A5F8F2102846BDE838402BF0A9
:1095E00033BC00BF2DE9F04F002087B00C461D466C
:1095F000012192461AF0AEFB002D63D005EB0A0361
:10960000DFF8D094DFF8D0B4039355461CE0002D6A
:1096100000F0C581D9F81430AB4264D0D9F81030CD
:10962000AB4200F09780D9E90631AB4252D8A9424B
:1096300000F26F81691A204642F098F8039B0135C9
:109640009D4204F500743DD0D9F82060AE42DED8CA
:10965000D9F83080AE1B4FEAD60AD8F830300AF17C
:10966000020A9A4506F0070603D3D8F838309A451F
:1096700009D94146504642F047F88046002800F09C
:109680004D81C9F8300098F80430002B40F0E2809A
:10969000D8F82870002F00F0DF81D8F83030D8F8E3
:1096A0000C20AAEB030A06EBCA0A4346204602EB4B
:1096B0004A224FF40071B847039B01359D4204F5DF
:1096C0000074C1D1002108461AF044FB002007B005
:1096D000BDE8F08FA942ADD94FF4007200212046B9
:1096E0004CF0E6FCAAE752226120412300262270BA
:1096F0006270A070722284F8E70184F8E631D9F82C
:109700002800E3704FF0FF33314684F8E42184F8F9
:10971000E521C4F8E8014FF4F07284F8EC3184F8E4
:10972000ED3184F8EE3184F8EF31201D4CF0C0FCAF
:1097300055216FF05502C4F8F061C4F8F461C4F823
:10974000F86184F8FC6184F8FD6184F8FE1184F806
:10975000FF2173E74FF40072002120464CF0A8FC73
:10976000D44BD54F03CBEB23022223704FF0080CD0
:109770009026F8234FF0580EC4F80300227484F8A2
:109780000DC0C4F8071084F801E0A6706375D9F81D
:109790001010D9F80830D9F81C602273591A2162C8
:1097A0004FF0FF3100233F20A1763E21A273E372E8
:1097B000E3736374A374E3742375A375E37563762D
:1097C000E3766377A377E3772076217784F82C20FC
:1097D00007CFD9F8187084F82830F61B84F82930A0
:1097E00084F82A3084F82B3084F82D3084F82E3019
:1097F00084F82F3084F8313084F8323084F83330F4
:1098000080236662C4F8470004F1470684F84030BC
:1098100029209423A94F84F846C084F8420084F894
:1098200043300E200D234FF0010C84F8440084F8DF
:10983000453084F830C0716003CF33465527AA26DF
:109840009A60C4F85200C4F8561084F8FE7184F887
:10985000FF61F3E64FF40072002120464CF028FC33
:10986000D8F84030002E61D104F12007002B77D0CA
:10987000D8F8303092491122CDE900662046FFF732
:10988000C5FDD8F840301A6C04F1400A002A79D09E
:109890001B6B8C49CDE9006638461122FFF7B6FDF7
:1098A000D8F84460002E3FF4C9AE4FF4E078CDE91B
:1098B00004450CE00024CDE900C4FFF7A7FDB66C19
:1098C000BA46A8F120080EB3B8F11F0F1ED93468AC
:1098D000356B96F804E011222B46214650460AF1DA
:1098E000200706F11C0CBEF1000FE3D17279336939
:1098F000019342F021022B46CDF800C0FFF786FD10
:10990000B66CBA46A8F12008002EDDD1DDE9044589
:1099100094E6E91A204641F029FF8FE6231F04F55B
:10992000FE7243F804BF9A42FBD187E6002BD8F8B9
:1099300044200CBF01230223C3EB0613002A3FF48B
:109940007DAE966C013B002E3FF478AE013BB66CC9
:10995000F9D1002E3FF472AEA2464FF40078A6E78C
:10996000CDE900663346D9F80C1008222046FFF7EF
:109970004DFDD8F84460002E3FF460AEBA464FF477
:10998000F07894E7CDE900663346384611224D4918
:10999000FFF73CFDD8F84460002E86D14EE64FF428
:1099A0000072294620464CF083FB80220C2384F869
:1099B000BE2184F8C231D9F81000434BD9F80860B1
:1099C00084F8B85183FB0032C117C1EB2232B2F5E3
:1099D000806F84F8B95184F8BA5184F8BB5184F887
:1099E000BC5184F8BD51C4F8C601C4F8CA6142DB59
:1099F000FF2384F8BF3184F8C13184F8C031324B81
:109A0000711E83FB0132CE17C6EB2232B2F5806F96
:109A100029DA2E4B84F8C52183FB01030B442C4823
:109A2000C6EB6313C3EB831680FB0370891B1844DA
:109A3000DE17921022F03F020131C6EBE0100A431C
:109A4000034484F8C42184F8C3315522AA2384F83E
:109A5000FE2184F8FF31F1E539464FF400722046CB
:109A60004CF026FBEAE5FF2384F8C33184F8C531C6
:109A700084F8C431E9E7154B84F8C12183FB0073F6
:109A80000344134FC1EB631387FB0317C3EB831C22
:109A90009110A0EB0C02F818DF1721F03F01013202
:109AA000C7EBE0100A43034484F8C02184F8BF31B7
:109AB000A5E700BF2CD0050838D0050848D0050818
:109AC00024D0050828D005089755454183200882F1
:109AD00081808080A8C60020DEADBEEF08B50120E1
:109AE0000BF094F9174A936803F00C03042B1ED073
:109AF000082B18D151685368490203F03F0319D469
:109B000052681148B0FBF3F0C2F3881300FB03F076
:109B10000C4B0E4A5B68C3F3014301335B00B0FB9F
:109B2000F3F0106008BD094B074A1A6008BD074BE7
:109B3000186008BDB0FBF3F05368C3F3881300FB53
:109B400003F0E5E7003802400024F40020D60020AE
:109B500010B5044C04480A46214609F043FE20464D
:109B600010BD00BF7C17002054D0050810B5044C70
:109B700004480A46214609F035FE204610BD00BFC4
:109B80007C17002064D0050810B5044C04480A4630
:109B9000214609F027FE204610BD00BF7C1700209B
:109BA00070D005080A4608B5054920B1054809F0F6
:109BB00019FE034808BD044809F014FE004808BD1A
:109BC0007C1700209CD0050884D0050830B5437F61
:109BD00083B004461BB90120637703B030BD05256F
:109BE00002236A4601A90068ADF8045047F010FC52
:109BF0009DF8013003F0010383F00100637703B0A7
:109C000030BD00BFF8B5074C05460F46266803E097
:109C100023689B1BBB4204D82846FFF7D7FF0028C8
:109C2000F6D0F8BD00B4002010B545F2082182B08E
:109C30000446FFF7E7FF02A9062301F8023D20686A
:109C400041F0B0F902A9C72301F8013D01232068C2
:109C5000637741F0A7F902B010BD00BF10B5027FD5
:109C600084B000230446D82002938DF80C308DF880
:109C70000800EAB10B0E8DF809300DF10A030A0A4B
:109C8000080C5A709970187041F288312046FFF71D
:109C9000B9FF04A9062301F8093D206841F082F9C3
:109CA000012302A96377206841F038F904B010BDA0
:109CB0000DF10903E3E700BF08B5838940F2E933FA
:109CC00000E0A3B10289013B12F0020F9BB2F8D071
:109CD00089B2818140F2E93300E043B10289013B5E
:109CE00012F0010F9BB2F8D08089C0B208BD47F0D6
:109CF0006DFBC0B208BD00BFF0B5076A83B0064671
:109D000017B13B68BA885A837069DFF8A8E0838985
:109D1000C3244FF47A734FF0060C6D464FF6FF7173
:109D20000EF1010E03E0013B9BB28B4220D0028971
:109D30009207F8D5A3B283814FF47A7302E0A3B2FD
:109D40008B4215D00289D20703F1FF34F7D58289FF
:109D500092B20DB12A700135BCF1000F0BD00CF19D
:109D6000FF3CFF24BEF1000FE1D09EF80040D7E792
:109D700047F02CFB376A17B13B68BA881A839DF805
:109D800005009DF801509DF802109DF803409DF8D4
:109D900004209DF8063041EA052143EA002342EA07
:109DA00004220120A6F85810A6F85A20A6F85C3024
:109DB00003B0F0BDF061050813B506230C466A46F2
:109DC00028210C3047F070FCF0B19DF801309DF86F
:109DD000002042EA032204219DF8033012B292FBD4
:109DE000F1F222809DF8022042EA032212B29DF88D
:109DF000043092FBF1F262809DF8052043EA0223D1
:109E00001BB293FBF1F3A38002B010BD13B5062380
:109E10000C466A4603210C3047F046FCA0B19DF881
:109E200000209DF8013043EA022323809DF80220A0
:109E30009DF8033043EA0223A3809DF804209DF897
:109E4000053043EA0223638002B010BD07B5032347
:109E500001AA002147F028FC9DF805309DF8040078
:109E60001B0243EA00439DF80600184303B05DF867
:109E700004FB08B5FFF7EAFF014B586008BD00BFBF
:109E80006017002008B5FFF7E1FF014B186008BD1F
:109E90006017002007B506236A46F72147F004FC47
:109EA0009DF801309DF800100B4A1B0143EA013375
:109EB0009DF8021043EA1113D3609DF804309DF819
:109EC00003101B0143EA01339DF8051043EA111307
:109ED000936003B05DF804FB6017002007B503230F
:109EE00001AAF62147F0E0FB9DF805309DF804201B
:109EF0001B0243EA02439DF806201343054AB2F9C8
:109F00002020C2F10802D340034A536103B05DF838
:109F100004FB00BF247C00206017002007B502234B
:109F200001AAF62147F0C0FB9DF804209DF80530FA
:109F300043EA0223024A138203B05DF804FB00BF28
:109F40006017002070B582B00446062310306A46C0
:109F5000432147F0A9FBC0B19DF804009DF80060C3
:109F60009DF801109DF802509DF803209DF80530E2
:109F700041EA062143EA002342EA0522A4F85810E8
:109F8000A4F85A20A4F85C30012002B070BD00BFD4
:109F900070B582B0044606230C306A463B2147F078
:109FA00083FBA8B19DF804009DF800609DF80110A6
:109FB0009DF802509DF803209DF8053041EA0621E6
:109FC00043EA002342EA05226184A284E38401205B
:109FD00002B070BD7FB504AA002302F8093DE72155
:109FE0000123064647F05EFA9DF80730144D154CE4
:109FF00013F0030320D0052302AAE821304647F0DE
:10A0000051FA9DF80A209DF80910130443EA012330
:10A010009DF8081012F0800F14BF4FF07F4200220D
:10A020000B4313432B609DF80C209DF80B3043EA43
:10A030000223238004B070BD2B602380FAE700BFA9
:10A040005C7C0020587C002038B5054640683B4ABF
:10A05000038823F040031B041B0C0380038823F0B8
:10A0600038031B0490424FEA134305D002F5806287
:10A07000904201D043F00803038003882A6943F02B
:10A080004003038012B1136892885A83838940F297
:10A09000E93301E0002B43D00289013B12F0020FAB
:10A0A0009BB2F7D0F523838140F2E93301E0002B26
:10A0B00036D00289013B12F0010F9BB2F7D08389A1
:10A0C000838940F2E93300E00BB30289013B12F0CF
:10A0D000020F9BB2F8D0FF23838140F2E93300E006
:10A0E000ABB10289013B12F0010F9BB2F8D0848919
:10A0F000E4B22B6913B11A689B881383712C19D0B1
:10A1000008D9AC2C14D0AF2C0ED1092038BD47F0A3
:10A110005DF9EEE7122C0FD0702C07D1052038BD69
:10A1200047F054F96868CBE7732C03D0002038BDA2
:10A13000072038BD062038BD082038BD0038004053
:10A140002DE9F04F87B0A94A02904068038823F0B8
:10A1500040031B041B0C0380038823F038031B04FB
:10A1600090424FEA134300F03F8102F58062904233
:10A170000CBF3022382213430380029B02881B69E4
:10A1800042F04002028013B11A689B88538383898E
:10A1900040F2E93302E0002B00F090810289013B9C
:10A1A00012F0020F9BB2F6D06B23838140F2E933A9
:10A1B00002E0002B00F082810289013B12F0010FC6
:10A1C0009BB2F6D08389838940F2E93302E0002B09
:10A1D00000F071810289013B12F0020F9BB2F6D0B0
:10A1E0008023838140F2E93302E0002B00F0638199
:10A1F0000289013B12F0010F9BB2F6D08389029BCA
:10A200001B6913B11A689B8813830623784CDFF807
:10A21000EC81DFF8ECA1774D774E04939623DFF8BD
:10A22000E4C101934FF0100EDAF80430C3F30803D1
:10A23000002B40F0B280EFF31183002B40F0AD8093
:10A240002068AA6823689842FAD133689A42F7D8FE
:10A25000D8F800704FF47A7101FB07F39B1AB3FB37
:10A26000F7F301FB00304FF47A774FF00109DAF889
:10A270000430C3F30803002B70D1EFF31183002BDC
:10A280006CD12368A96822689342FAD1326891425E
:10A29000F7D8D8F8002007FB02FBABEB0101B1FBBC
:10A2A000F2F107FB03131B1AB3F57A7FDFD3019B8F
:10A2B000013B0193B8D1029B1B6913B11A689B88BB
:10A2C0005383029B586840F2E933828902E0002BF5
:10A2D00000F085800289013B12F0020F9BB2F6D09C
:10A2E000F523838140F2E93301E0002B77D0028926
:10A2F000013B12F0010F9BB2F7D08389838940F2B2
:10A30000E93301E0002B67D00289013B12F0020F14
:10A310009BB2F7D0FF23838140F2E93301E0002BA9
:10A320005AD00289013B12F0010F9BB2F7D083890A
:10A33000DBB20393029B1A6912B1136891881983E7
:10A34000039B682B60D0049B013B13F0FF03049335
:10A350007FF464AF184607B0BDE8F08FEFF31181CA
:10A360008EF31288D5F808B02B68DB0344BFCCF815
:10A370000090D5F808B02368DCF80020C9B281F35A
:10A380001188D8F80010134407FB01F2A2EB0B026E
:10A39000B2FBF1F207FB032385E7EFF311838EF3A2
:10A3A0001288AF682A68D20303D50122CCF80020B6
:10A3B000AF682068DCF80090DBB283F31188D8F82E
:10A3C00000104FF47A72484402FB01F3DB1BB3FB2D
:10A3D000F1F302FB003046E746F0F8FFAAE746F04B
:10A3E000F5FF029B586889E73022C4E60038004038
:10A3F00000B4002010E000E008B4002004B4002005
:10A4000000ED00E0FCB3002012B1136892885A837B
:10A41000029B586840F2E933828901E0002B45D065
:10A420000289013B12F0020F9BB2F7D08C2383818B
:10A4300040F2E93301E0002B38D00289013B12F0F1
:10A44000010F9BB2F7D08389838940F2E9330289F7
:10A45000013B12F0020F9BB215D1002BF7D146F051
:10A46000B5FF029B1B6913B11A689B881383059B78
:10A47000142B04D3182B17D9543B062B14D90020C6
:10A4800007B0BDE8F08FFF23838140F2E93301E09C
:10A49000002BE4D00289013B12F0010F9BB2F7D0F0
:10A4A0008389DBB20593DCE7032054E746F08EFF97
:10A4B000029B5868C8E746F089FFA0E646F086FF91
:10A4C000029B58687FE600BF037C02681F2B86BF93
:10A4D000203B51681168202202FA03F30B4214BF9B
:10A4E0000123002303B970472DE9F0474569DFF8E0
:10A4F00058A12D02044616F00DFE0AEB0503804616
:10A500001A7C002A34D14B495A680978D2F8009055
:10A51000C9B9D16858890A6822F001020A60B9F8FD
:10A520000C3023EA0003A9F80C30434B1B78002BB6
:10A5300031D1237C21681F2B13D8202202FA03F388
:10A540008B60BDE8F0879269136823F00103136004
:10A55000B9F80C3023F480731B041B0CA9F80C30E1
:10A56000E3E7203B202202FA03F3CB60BDE8F0874B
:10A570005A6832481568D6685F8901225A74316872
:10A58000036821F001013160AA89013322EA070240
:10A59000AA810360CDE70AEB05062835776F3846B8
:10A5A0000AF0CCFB01230AEB0501484633740AF09C
:10A5B00085FCD6E91202736B316D3D68034313438A
:10A5C000D6E915200B431343F16DB26E03430B43E1
:10A5D0001B48F16E134328400B43034300223264AF
:10A5E0003B60D6E918317A69756CB06B22F00702CE
:10A5F0000B431343F26B7B617D60B860FA603B688C
:10A600007268706FD16896F87050126843F010034A
:10A610003B6045600B6843F001030B6093897189CF
:10A620000B43938116F076FD064BA0EB08001860F3
:10A630007FE700BF24340010203400106C47001066
:10A640003F801CF074470010283400108A4B1B78A0
:10A65000002B00F09880002800F095802DE9F04F45
:10A66000431E85B0854C0190032B4FF00006A8BF18
:10A670000323A4F114070393B0464FEA062A07EB1D
:10A680000A03256E5B7C002B7ED06A6892B2002A9A
:10A6900065D114F8050CD4E91B13002800F0AA8436
:10A6A000603377485B1AA0FB0351890901EB410134
:10A6B000A3EB4113182B00F17785173BA0FB032375
:10A6C000DB0003F0F003D4E91D126D486032521A2A
:10A6D000A0FB0251890901EB4101A2EB4112182AAA
:10A6E00005D4173AA0FB0212C2F343021343D4E984
:10A6F0001F1263486032521AA0FB0251890901EB14
:10A700004101A2EB4112182A5EBF173AA0FB0212C8
:10A71000C2F34305D4E92112594802F16002A2EBC9
:10A720000102A0FB02C14FEA911101EB4101A2EB32
:10A73000411248BF0025182A58BF173A45EA0315A9
:10A740005ABFA0FB0223C3F34303002343EA0513CC
:10A7500083EA132282EA1212100700F00C85494A9C
:10A7600013680133136026B98022474947484AF0ED
:10A770007BF907EB0A0383F8118054F8109C256ECF
:10A78000D9F800B00CE0704754F8109C34F80A1C5B
:10A79000D9F800B0BBF80C2022EA0102ABF80C207B
:10A7A0002A683B4B22F0010221219D422A60C5F814
:10A7B0000080C5F80480C5F80880C5F80C80C5F88D
:10A7C000108069611FD0334B9D4200F03783324BBC
:10A7D0009D4200F03D83314B9D4200F0DF84304BC1
:10A7E0009D4200F002852F4A954200F003852E4AD3
:10A7F000954200F07E852D4A954200F0EC84284673
:10A800000AF00CFA02E02A4A3D219160BA448AF823
:10A81000108099F805100C2916D8DFE811F04401D2
:10A820001500150015004D011500150015003B0120
:10A830001500150015000D00BBF81C2022F4006265
:10A840001204120CABF81C202246584614F0D9FE14
:10A8500099F805300C2B37D8DFE813F006013600E5
:10A86000360036001101360036003600FB00360097
:10A87000360036002C0000BF203400103C3400109D
:10A88000ABAAAAAA70470010A8340010784700109D
:10A890001060024028600240406002405860024060
:10A8A0007060024088600240A0600240B8600240D0
:10A8B00000600240BBF81C3023F400631B041B0C37
:10A8C00043F40063ABF81C30D4E90D12236AE06B4B
:10A8D00043F040030B431343226CB149034313433A
:10A8E000626C13434022E262A26C28681343A26D9B
:10A8F0000292626D1343029A014013430B432B6093
:10A90000D4E913316A69206B22F007020B43134329
:10A91000D4E909126B616860A960EA602B6843F0B2
:10A9200010032B60039B01369E4204F580747FF771
:10A93000A4AE019B9E4280F2CC814FEA062A0AF126
:10A9400014043C444FF0000807EB0A03256E5B7CBF
:10A95000002B00F0BA806A6892B2002A65D114F820
:10A96000050CD4E91B13002800F07C8260338D486D
:10A970005B1AA0FB0351890901EB4101A3EB4113D1
:10A98000182B00F11484173BA0FB0323DB0003F01A
:10A99000F003D4E91D1283486032521AA0FB025121
:10A9A000890901EB4101A2EB4112182A05D4173A9B
:10A9B000A0FB0212C2F343021343D4E91F127948E9
:10A9C0006032521AA0FB0251890901EB4101A2EB4E
:10A9D0004112182A5EBF173AA0FB0212C2F34305C8
:10A9E000D4E921126F4802F16002A2EB0102A0FB40
:10A9F00002C14FEA911101EB4101A2EB411248BFA4
:10AA00000025182A58BF173A45EA03155ABFA0FB7C
:10AA10000223C3F34303002343EA051383EA13220B
:10AA200082EA1212120700F0E0825F4A13680133D3
:10AA3000136026B980225D495D484AF015F807EB9E
:10AA40000A0383F8118054F8109C256ED9F800B0E1
:10AA500047E0BBF81C3023F008031B041B0C43F039
:10AA60000803ABF81C302FE7BBF8183023F00803BD
:10AA70001B041B0C43F00803ABF8183024E7BBF8A9
:10AA8000183023F400631B041B0C43F40063ABF881
:10AA9000183019E7BBF81C2022F008021204120C2F
:10AAA000ABF81C20D0E6BBF8182022F008021204F4
:10AAB000120CABF81820C7E6BBF8182022F400628D
:10AAC0001204120CABF81820BEE654F8109C34F8AF
:10AAD0000A1CD9F800B0BBF80C2022EA0102ABF83E
:10AAE0000C202A68334B22F0010221219D422A606A
:10AAF000C5F80080C5F80480C5F80880C5F80C804A
:10AB0000C5F8108069611FD02B4B9D4200F09181E8
:10AB10002A4B9D4200F09781294B9D4200F03983DA
:10AB2000284B9D4200F05D83274A954200F06783E1
:10AB3000264A954200F0E283254A954200F046837A
:10AB400028460AF06BF802E0224A3D219160BA449F
:10AB50008AF8108099F805100C2910D8DFE801F068
:10AB6000A70F0F0F9E0F0F0FB00F0F0F0700BBF8AF
:10AB70001C2022F400621204120CABF81C202246A6
:10AB8000584614F03EFD99F805300C2B2ED8DFE81E
:10AB900003F06F2D2D2D7A2D2D2D642D2D2D2300BD
:10ABA0003F801CF0ABAAAAAA70470010A83400107E
:10ABB0007847001010600240286002404060024068
:10ABC000586002407060024088600240A06002400D
:10ABD000B860024000600240BBF81C3023F4006300
:10ABE0001B041B0C43F40063ABF81C30D4E90D12BA
:10ABF000236AE06B43F040030B431343226C9749F5
:10AC000003431343626C13434022E262A26C286840
:10AC10001343A26D0292626D1343029A01401343E3
:10AC20000B432B60D4E913316A69206B22F00702D1
:10AC30000B431343D4E909126B616860A960EA60B1
:10AC40002B6843F010032B60019B0136B34204F5DF
:10AC500080743ED04FEA062A76E6BBF81C3023F01B
:10AC600008031B041B0C43F00803ABF81C30BDE7C2
:10AC7000BBF8183023F008031B041B0C43F0080337
:10AC8000ABF81830B2E7BBF8183023F400631B04AC
:10AC90001B0C43F40063ABF81830A7E7BBF818208F
:10ACA00022F400621204120CABF8182067E7BBF81C
:10ACB000182022F008021204120CABF818205EE7EC
:10ACC000BBF81C2022F008021204120CABF81C2066
:10ACD00055E77A68787B13685179800754BF012261
:10ACE00004228A40198C92B221EA02011984198C3B
:10ACF0000A431A84019B012B00F09880D7F80421A5
:10AD000097F80D0113685179820754BF012204227C
:10AD10008A40198C92B221EA02011984198C0A43E3
:10AD20001A84019B022B00F08180D7F8042297F847
:10AD30000D0213685179860754BF012204228A400C
:10AD4000198C92B221EA02011984198C0A431A84DF
:10AD5000019B032B6AD0D7F8042397F80D031368DF
:10AD60005179850754BF012204228A40198C92B27E
:10AD700021EA02011984198C0A431A84019B042BCD
:10AD800054D0D7F8042497F80D14136850798C0721
:10AD900054BF01220422198C824092B221EA02019E
:10ADA0001984198C0A431A84019B052B3ED0D7F8CD
:10ADB000042597F80D0513685179800754BF0122C7
:10ADC00004228A40198C92B221EA02011984198C5A
:10ADD0000A431A84019B062B28D0D7F8042697F83B
:10ADE0000D1613685079890754BF01220422198C6B
:10ADF000824092B221EA02011984198C0A431A8412
:10AE0000019B072B12D0D7F8042797F80D0713687A
:10AE1000517982074CBF042201228A40198C92B2D8
:10AE200021EA02011984198C0A431A8405B0BDE88D
:10AE3000F08F0B4A4FF47461916088E6084A4FF432
:10AE400074619160E2E4064A4FF4741191607EE609
:10AE5000034A4FF474119160D8E400BF3F801CF0A6
:10AE6000006002405B1A002B40F3AA810A2BD4BF7A
:10AE700000230123D4E91D12521A002A4FEA43038A
:10AE800040F3FB810A2A01DD43F00103D4E91F12DC
:10AE9000521A002A4FEA430340F3F7810A2A01DDE0
:10AEA00043F00103D4E92112521A002A4FEA430366
:10AEB00040F3E7810A2A01DD43F00103D4E92312BC
:10AEC000521A002A4FEA430340F3CF810A2A01DDD8
:10AED00043F00103D4E92512521A002A4FEA430332
:10AEE00040F3BF810A2A01DD43F00103D4E92712B0
:10AEF000521A002A4FEA430340F3AF810A2A01DDC8
:10AF000043F00103D4E92912521A002A4FEA4303FD
:10AF100040F39F810A2A01DD43F00103D4E92B129B
:10AF2000521A002A4FEA430340F38F810A2A01DDB7
:10AF300043F00103D4E92D12521A002A4FEA4303C9
:10AF400040F37F810A2A01DD43F00103D4E92F1287
:10AF5000521A002A4FEA430340F36F810A2A01DDA7
:10AF600043F00103D4E93112521A002A4FEA430395
:10AF700040F35F810A2A01DD43F00103D4E9331273
:10AF8000521A002A4FEA430340F34F810A2A01DD97
:10AF900043F00103D4E93512521A002A4FEA430361
:10AFA00040F33F810A2A01DD43F00103D4E937125F
:10AFB000521A002A4FEA430340F32F810A2A01DD87
:10AFC00043F00103D4E93912521A002A4FEA43032D
:10AFD00040F31F810A2A01DD43F0010383EA1322B3
:10AFE00082EA121215077FF420ADC3F30F1324F881
:10AFF000023C24E55B1A002B40F3DC800A2BD4BF13
:10B0000000230123D4E91D12521A002A4FEA4303F8
:10B0100040F32F810A2A01DD43F00103D4E91F1216
:10B02000521A002A4FEA430340F35F810A2A01DDE6
:10B0300043F00103D4E92112521A002A4FEA4303D4
:10B0400040F34F810A2A01DD43F00103D4E92312C2
:10B05000521A002A4FEA430340F33F810A2A01DDD6
:10B0600043F00103D4E92512521A002A4FEA4303A0
:10B0700040F32F810A2A01DD43F00103D4E92712AE
:10B08000521A002A4FEA430340F31F810A2A01DDC6
:10B0900043F00103D4E92912521A002A4FEA43036C
:10B0A00040F30F810A2A01DD43F00103D4E92B129A
:10B0B000521A002A4FEA430340F3FF800A2A01DDB7
:10B0C00043F00103D4E92D12521A002A4FEA430338
:10B0D00040F3EF800A2A01DD43F00103D4E92F1287
:10B0E000521A002A4FEA430340F3DF800A2A01DDA7
:10B0F00043F00103D4E93112521A002A4FEA430304
:10B1000040F3CF800A2A01DD43F00103D4E9331272
:10B11000521A002A4FEA430340F3BF800A2A01DD96
:10B1200043F00103D4E93512521A002A4FEA4303CF
:10B1300040F3AF800A2A01DD43F00103D4E937125E
:10B14000521A002A4FEA430360DD0A2A01DD43F068
:10B150000103D4E93912521A002A4FEA430352DD9F
:10B160000A2A01DD43F0010383EA132282EA121264
:10B1700011077FF4F4AA634A1278C3F30F132F2A3E
:10B1800024F8023C7FF4F5AA5F4A22F81630FFF754
:10B19000F0BA5E4A4FF074619160D8E45B4A4FF0B8
:10B1A00074619160FFF732BB1346FFF78CBA134608
:10B1B000FFF7EFBB13F1090FB4BF0023012321E711
:10B1C00013F1090FB4BF0023012353E64FF03D51A3
:10B1D00042F8AC1CBBE44FF03D5142F8AC1CFFF709
:10B1E00015BB4A4A4A49D160B1E4484A4849D1604E
:10B1F000FFF70CBB474942F87C1CFFF707BB4549EA
:10B2000042F87C1CA3E40932AEDBABE70932A0DBD9
:10B210009DE70932FFF6E2AEDEE60932FFF6D2AE76
:10B22000CEE60932FFF6C2AEBEE60932FFF6B2AE96
:10B23000AEE60932FFF6A2AE9EE60932FFF692AE06
:10B240008EE60932FFF682AE7EE60932FFF672AE76
:10B250006EE60932FFF662AE5EE60932FFF652AEE6
:10B260004EE60932FFF642AE3EE60932FFF632AE56
:10B270002EE60932FFF6D2AECEE60932FFF606AE72
:10B2800002E60932FFF61AAE16E60932FFF60AAEFA
:10B2900006E60932FFF652AF4EE70932FFF642AF3B
:10B2A0003EE70932FFF632AF2EE70932FFF622AF52
:10B2B0001EE70932FFF612AF0EE70932FFF602AFC2
:10B2C000FEE60932FFF6F2AEEEE60932FFF6E2AE36
:10B2D000DEE60932FFF6D2AECEE60932FFF6C2AEA6
:10B2E000BEE60932FFF6B2AEAEE60932FFF6A2AE16
:10B2F0009EE6094942F8941CFFF788BA064942F8CD
:10B30000941C24E4C1B40020C4B4002000600240B6
:10B310003D000020400F002000003D2020B10078BB
:10B32000B0FA80F0400970470120704708B520212D
:10B330004AF0D5FE0346184623B10278202A03F1CD
:10B340000103F8D008BD037903F01803082B05D0DA
:10B35000102B15D033BBB0F80B007047124BB0F870
:10B360000B0093F90030591C06BF104B1B78DBB261
:10B37000C3EB031203EB820300EB430080B2704780
:10B380000B4BB0F80B0093F900305A1C06BF074B6B
:10B390005B78DBB203EB430203EB820300EB430079
:10B3A00080B2704700207047551700207CD30020E2
:10B3B00054170020F0B5067906F06003402B09D140
:10B3C00044794FF0FF350023012006F00706A34221
:10B3D0000BD1F0BD602B08BF45794FF001040CBFC5
:10B3E00004FA05F54FF0FF35EDE7042E0CD8DFE841
:10B3F00006F0030D18242E0030B1C85CD75C7840ED
:10B4000028420CBF012000200133E0E70028FBD0D8
:10B41000C856D756A0EB070CDCF1000040EB0C003F
:10B42000F2E70028F0D031F8130032F813707840BA
:10B4300028420CBF01200020E6E70028E4D031F9C3
:10B44000130032F91370C71B78427841DCE70028FB
:10B45000DAD051F8230052F82370784028420CBF0C
:10B4600001200020D0E7024B0146186846F0C2BA1E
:10B47000FC6F002038B5064D441E14F8011F2868E3
:10B4800019B9BDE8384046F030BA46F0B3FAF4E7EF
:10B49000FC6F00200048EDE7670C060808B5FFF7D1
:10B4A000E9FFBDE80840F5E710B504460348FFF79B
:10B4B000E1FF2046BDE81040F0E700BF5DCF050882
:10B4C00038B5074C074DAC4203D3074B00221A7026
:10B4D00038BD6288D4E9010149F0C6FA1434F2E7B4
:10B4E000900100086C07000844E20020024A13683B
:10B4F00023EA00001060704780D60020DFED2E7A2E
:10B50000B4EEE70AF1EE10FA4ADDDFED2C6A9FEDAA
:10B510002C7A01E0B0EE670AB4EEC70AF1EE10FA39
:10B5200070EE667AF6DC9FED277AF4EEC77AF1EEDC
:10B5300010FA3ED5DFED216A9FED237A01E0F0EEAF
:10B54000407AF4EEC77AF1EE10FA37EEA60AF6D496
:10B55000DFED1E7AB4EEE70AF1EE10FA14DDDFED4E
:10B56000167A37EEC00A60EE006A9FED196A9FED09
:10B57000197ADFED197AA6EE867A20EE266AE6EED3
:10B58000877AA6EE270A7047DFED147AB4EEE70A51
:10B59000F1EE10FA44BFDFED0B7A37EEC00AE2E7B6
:10B5A0009FED087AF0EE407AF4EEC77AF1EE10FAE9
:10B5B000C0D4B0EE670ACBE7DB0F4940DB0FC940D0
:10B5C000E4CB1641DB0F49C0E4CB16C1DB0FC93F0A
:10B5D00092E741B99730083C15A82ABEDB0FC9BFD6
:10B5E000F0EEC07AB0EEE07AB4EEE77AF1EE10FA5F
:10B5F000B4BFB0EE676AB0EE476AB5EE406AF1EEEE
:10B6000010FA46D0B4EEE77AF1EE10FA8CBFF0EE05
:10B61000675AF0EE475AC5EE866A9FED1F3A9FEDD6
:10B620001F6A9FED1F4A9FED1F5ADFED1F3ADFEDA6
:10B630001F4ADFED1F5AA6EEC36AE6EEA34AA6EE46
:10B64000864AB7EE006AA6EE845AA6EEA46AE6EE33
:10B65000855AC5EE866AB4EEE77AF1EE10FA48BF75
:10B66000DFED147AF5EEC00A48BF77EEE66AF1EE38
:10B6700010FA48BFDFED107AB5EEC00A48BF77EE8A
:10B68000E66AF1EE10FA48BFF1EE666AB0EE660ABD
:10B690007047DFED076ADEE739094E3DE3B59E3EB0
:10B6A00088FA163E45FE7F3F99FB243F69A2163E6D
:10B6B000A7DFA834DB0FC93FDB0F4940DFED317A4C
:10B6C00030EE277AFDEEC76A16EE903A2033402B13
:10B6D00002D99FED2D0A7047B4EEE70AF1EE10FA99
:10B6E0004DDD9FED2A6ADFED2A6A01E0B0EE677A50
:10B6F000B4EEE67AF1EE10FA77EE467AF6DC9FEDDC
:10B70000257AF4EEC77AF1EE10FA35D5DFED1F6A2F
:10B710009FED217A01E0F0EE407AF4EEC77AF1EE87
:10B7200010FA37EEA60AF6D4DFED167AB4EEE70A81
:10B73000F1EE10FA1BDCDFED197AB4EEE70AF1EE58
:10B7400010FA44BFDFED137A37EEC00A60EE006AEC
:10B750009FED136A9FED137ADFED137AA6EE867ADA
:10B7600020EE266AE6EE877AA6EE270A7047DFED1E
:10B770000F7A37EEC00AE9E7B0EE670AD4E7F0EED9
:10B78000477ABCE7DB0FC93F00000000DB0FC94070
:10B79000E4CB1641DB0F49C0E4CB16C1DB0FC9BFB8
:10B7A00092E741B99730083C15A82ABEDB0F494003
:10B7B00010B44C09012250F8243001F01F0102FAA4
:10B7C00001F10B4340F824305DF8044B704700BF93
:10B7D0004B0901F01F0150F82320012303FA01F166
:10B7E000114214BF18460020704700BF2DE9F043F6
:10B7F000002489B006460D461F46A04605E02529CF
:10B800000CD030460134A847039A531C0393117897
:10B810000029F4D1204609B0BDE8F083931CCDE99E
:10B8200003385078302842D0A0F13003DBB2092B26
:10B830004FF0000945D96C282AD0642873D019D953
:10B84000732858D063D9752840F0828007F1040C22
:10B85000386805AB00220A216746FCF701FD05ABFD
:10B86000049A009329464B463046FCF7CFFB039AD7
:10B870000444CAE725283CD051D958286BD0632806
:10B88000C2D139783046A84704370134039ABCE75F
:10B89000039B5A1C03921B78642B52D016D8252B7D
:10B8A00027D064D9582B18D0632BEAD0ADE7D31C2E
:10B8B00003939078A0F13003DBB2092B4FF001091C
:10B8C000B9D804AA03A93FF0A3FFB4E7732B12D0A1
:10B8D00051D9752B2DD0782B97D1A3F15802B2FAFC
:10B8E00082F23868520905AB10210437FCF7B8FC26
:10B8F000B5E7252185E73B68049A00932946002394
:10B900003046FCF783FB04370444039A7DE76E2836
:10B910007FF47AAF039A3B6804371C6075E7002810
:10B920003FF478AF70E7386805A9FCF763FC04378B
:10B9300095E7386805AB00220A21FCF791FC043733
:10B940008DE73B1D386805A91F46FCF753FC86E7C9
:10B9500078287FF459AFA0F15802B2FA82F2386821
:10B96000520905AB1021FCF77BFC043777E7002B6D
:10B970003FF450AF49E76E2BCDD046E710B5064CEB
:10B980000B46024605492068FFF730FF2068BDE8F6
:10B99000104045F0AABF00BFFC6F002031930008A3
:10B9A0000FB473B506AC094D54F8046B2846FFF785
:10B9B00061FD214630460194FFF7E0FF2846FFF77E
:10B9C0006DFD02B0BDE8704004B07047F3CF0508CC
:10B9D00013460A4601460148E2E700BF62CF050868
:10B9E0000048DDE77BCF05080FB407B504A951F87F
:10B9F000040B0191FFF7C2FFFFF74CFD03B05DF8A8
:10BA000004EB04B070470FB407B504A951F8040B58
:10BA10000191FFF7B3FF03B05DF804EB04B070478A
:10BA20002DE9F843037903F06001202928D002D8DA
:10BA300049B1BDE8F883402945D06029F9D12448AF
:10BA4000BDE8F843D0E703F00703022B02D0042B34
:10BA500008D06BB9B0F80720B0F805101D48BDE854
:10BA6000F843C1E7D0F805201A48BDE8F843BBE722
:10BA7000B0F90720B0F905101648BDE8F843B3E760
:10BA80004579154E1548FFF7F5FC06EBC502002475
:10BA900092F804800123A04502D8BDE8F843F9E4F8
:10BAA00056F8357057F824204FEA84094AB113B983
:10BAB0000B48FFF7DFFC57F809100A48FFF7A3FF10
:10BAC00000230134E7E741790748BDE8F8438BE7F5
:10BAD000C3CF050887CF0508E8B005089ECF050845
:10BAE000AFCF05087AFF0508B2CF05082DE9F04170
:10BAF0001646027902F06003402B04460D462BD116
:10BB000000264F4FDFF8548115E0237903F0070337
:10BB1000022B15D0032B19D0012B14BFA95DA957F7
:10BB20003846FFF770FF6379013BB34202DD4046C0
:10BB3000FFF7A0FC01366379B342E6DCBDE8F08193
:10BB400035F816103846FFF75EFFECE735F91610AA
:10BB50003846FFF758FFE6E702F00702042A62D8EA
:10BB6000DFE802F0031D26282B002978202B40D087
:10BB7000602B4CD0002BE1D1B4F80550B4F807404D
:10BB8000A94226DBA14224DC2D48FFF73CFF002E12
:10BB9000D4D0224629462B48BDE8F04133E795F939
:10BBA0000010202B25D0602B31D0002BC6D141E0D6
:10BBB0002988DBE7B5F90010F3E72A68202B114646
:10BBC00017D0602B23D0002BB8D1D0F805309A4283
:10BBD00003D91D48BDE8F04115E71948FFF713FFE9
:10BBE000002EABD0D4F805101848BDE8F0410AE7A4
:10BBF00000216279164B03EBC20000798842E8DD30
:10BC000053F83230BDE8F04153F8210032E4637953
:10BC10001941CB0703D50F48BDE8F041F3E60E48C4
:10BC2000BDE8F041EFE6202BE2D0602BF7D0002BEF
:10BC300084D11946B4F90550B4F90740A0E700BF14
