:020000040800F2
:10000000000001201566050895660508DD6E0308E9
:100010001D6F030895660508956605080000000039
:1000200000000000000000000000000095660508C8
:10003000956605080000000095660508696F0308CD
:100040009566050895660508956605089566050890
:100050009566050895660508D96F040805710408BA
:10006000C97004088D70040851700408C524010883
:10007000B5240108A524010895240108812401085C
:100080006D24010859240108956605089566050840
:1000900095660508956605089566050815700408B7
:1000A00069F30008C9F3000895660508B9F300086C
:1000B000A9F3000899F3000889F3000859260108FC
:1000C0007D26010899250108BD25010895660508CA
:1000D00095660508B9EF0008ADEF0008A1EF00082C
:1000E0009D6F0408956605089566050895660508E0
:1000F0009566050895660508956605084524010876
:10010000956605089566050879F300089566050863
:1001100095EF00089566050895660508536C01087B
:10012000312401081D24010809240108F5230108D0
:10013000E1230108000000000000000000000000B2
:10014000000000000000000000000000937601089D
:10015000CD230108B9230108A523010889EF000870
:10016000D5240108FD240108956605089566050853
:10017000956605089566050800000000000000006F
:10018000956605089566050895660508956605084F
:100190009566050895660508000000009566050847
:1001A0000000000000000000000000009566050847
:1001B000956605089566050800000000000000002F
:1001C000000000000000000000000000000000002F
:1001D0000000000000000000000000009566050817
:0801E00064610500010000004C
:1001E800100201008C1F0120881F01200000000060
:1001F800B00700081F021000A81F0120981F012047
:1002080000000000F583000803010A00644F012084
:10021800704F012000000000B2070008F6210C0012
:10022800985A0120EC5A012000000000BC07000881
:1002380020320A00485B01203C5B012000000000DE
:10024800A59C01081C02100050560120545B012097
:1002580000000000F5820008281010009C590120B9
:10026800645B012000000000159E010801200800C1
:100278004C520120745B012000000000C8070008F0
:100288000A702800C85101207C5B01200000000092
:10029800BD9D01080EA06E0158500120A45B0120ED
:1002A80000000000E97C020801010400BC4F0120A5
:1002B800145D01200000000000000000000104009F
:1002C800B44F0120185D012000000000D00700088D
:1002D80002010300B04F01201C5D01200000000056
:1002E8005D2F020807020200046001207C600120E3
:1002F80000000000D4070008031233002860012022
:100308008060012000000000D607000802000C00F1
:10031800D05F0120B4600120000000000000000050
:1003280006021000C05F0120C0600120000000002C
:10033800C98D0008F7010600B45F0120D0600120D4
:10034800000000000A0800081D020200B05F01203A
:10035800D860012000000000100800080A020A0006
:10036800C05E0120DC60012000000000FD330208AF
:1003780003000100645F0120E86001200000000024
:100388000000000010100200146A01206C6A0120AD
:10039800000000001208000825102C011868012030
:1003A800706A01200000000000000000190005002C
:1003B800B46701209C6B01200000000014080008AD
:1003C8001A000E007C660120A46B012000000000CA
:1003D8001A080008F821060070650120B46B012096
:1003E8000000000028080008150070007C64012047
:1003F800BC6B012000000000000000002A00600023
:10040800F06601202C6C012000000000C17C02086D
:100418002C0010009C6C01208C6C01200000000056
:10042800617902082B002400D06C0120AC6C0120FB
:100438000000000031790208292078006C62012050
:10044800F46C012000000000000000001A023C00CB
:10045800646E01203871012000000000398D000809
:1004680027000400606E0120747101200000000064
:100478002E08000809020100387C01202C7D01208B
:10048800000000003208000822021401087A012046
:10049800307D012000000000758F00080C109C00C2
:1004A80064780120447E012000000000212F02080A
:1004B8000102050048780120E07E012000000000CC
:1004C800599F03080002050040780120E87E0120BA
:1004D80000000000000000001B0208001C7801203A
:1004E800F07E012000000000258300081E000600A1
:1004F80074750120F87E012000000000340800080F
:100508001B100C0000730120007F01200000000078
:1005180059A203082102F000807101200C7F0120FC
:100528000000000041A103080E020200AC7901207E
:10053800FC7F0120000000003A0800082F1022006C
:10054800F07C012000800120000000003C08000829
:1005580016100600E87C012024800120000000001D
:100568005E08000805100600548D0120B08D01209A
:100578000000000064080008371024007C8D01206A
:10058800B88D0120000000006A080008F5518800B5
:10059800788C0120DC8D01200000000045A00308B4
:1005A80026100C00708E0120648E012000000000CF
:1005B8006DA7040814000300B8880120A88E012044
:1005C800000000008E0800080B3018008882012007
:1005D800AC8E012000000000920800081F302400A3
:1005E800A0820120C48E012000000000AC08000891
:1005F800050204004C840120E88E01200000000060
:10060800D008000823100E0050BB0120D4BC0120E4
:10061800000000002D9E01080D003C00D0BA01200A
:10062800E4BC01200000000005FF0308040080006E
:10063800F0AD012020BD01200000000000000000F6
:1006480013000400D0AD0120A0BD0120000000006F
:10065800D408000818202E009CAD0120A4BD01205C
:1006680000000000D98E000806101A0080AD012095
:10067800D4BD0120000000004D7D0208FB010100EF
:100688007CAD0120F0BD012000000000458F00086E
:10069800FC01090048AC0120F4BD01200000000065
:1006A800558F00083400100074AB012000BE0120F3
:1006B800000000001D7D0208110208004CAB01205B
:1006C80010BE012000000000D80800081212040023
:1006D80044AB012018BE012000000000E00800081B
:1006E8001220100034AB01201CBE012000000000C5
:1006F800E4080008FD01210050A801202CBE0120BB
:1007080000000000A9240308FF1106006C9D0120C9
:1007180050BE012000000000D98300080812140010
:10072800789D012058BE0120000000006583000864
:10073800F9010400689D01206CBE01200000000042
:100748001543040813020400649D012070BE0120B3
:1007580000000000F4080008FA0102000C9B0120C8
:1007680074BE012000000000A184000802020300FA
:100778001C93012078BE012000000000000000004A
:100788000C020400089301207CBE01200000000038
:10079800C1830008FE011400B895012080BE012025
:0807A80000000000318300088D
:1007B0000000040101006C160000000000000000B1
:1007C0000100000002020000E8036400040A0001C6
:1007D000B3000000003C000000000000000000002A
:1007E0000000000000000000000000000000000009
:1007F00000000000000000000000000000000000F9
:10080000000000000000000001003D0100000000A9
:10081000000000050000280100007E05EA05B4057F
:100820003200E803D00700000401F40114002003A3
:1008300000000000000001000000000000000000B7
:1008400000000000000000000000000000000000A8
:100850000000000000000000000000000000C409CB
:100860000000190020000201000020003200C80032
:10087000D0079600140032002800B004400600059E
:10088000500014000F000800640001000100030084
:100890000000AE014A015E012C016401010000006C
:1008A00001000A019A01001E0A0000000000000079
:1008B000000100000005000001020300000000002C
:1008C00000000000000000000000000000800700A1
:1008D0000000000008044430383900000101010123
:1008E000FFFFFFFF000000010000054D46375300E9
:0808F000000800000000013EB9
:1008F80029410108AD3E01082184010800000000DB
:1009080000000000217601081D75010800000000A4
:10091800000000000000000005310108F93001085E
:10092800ED300108E13001089D9500088595000823
:10093800759500087D84000825950008CD94000869
:100948006D840008E4000120C104010885840008C2
:100958008184000879840008C18F00087584000824
:1009680071840008F0860508FF01FF000068214C2B
:100978001F0000001C0000001F0000001E000000F7
:100988001F0000001E0000001F0000001F000000E4
:100998001E0000001F0000001E0000001F000000D5
:1009A8000000000004010000000700000000000033
:1009B800000000000002000010000000000000001D
:1009C8000000000007000000B00100000200000065
:1009D80009000000008002021F00000053544D204F
:1009E8002020202050726F64757420202020202041
:1009F80020202020302E303100C2010000000800E5
:100A08001A030000000000000000000000000000C1
:100A180000000000000000000000000004030904BA
:100A28000A0600020000004001000000090720003B
:100A3800010104C032090400000208065005070538
:100A48008102400000070501024000000902200061
:100A5800010104C032090400000208065005070518
:100A68008102400000070501024000000902200041
:100A7800010104C0320904000002080650050705F8
:100A88008102000200070501020002000A060002B6
:100A9800000000400100000009026400030100C0DA
:100AA80032090400000103000000092111010001BE
:100AB8002226000705830308000A080B0102020228
:100AC80001000904010001020201000524001001CF
:100AD8000524010002042402020524060102070578
:100AE80082030800FF09040200020A00000007054B
:100AF800010240000007058102400000BF410108D3
:100B0800F73E01082586010800000000353201087B
:100B18009332010861320108000000000000000063
:100B2800000000001D3201082932010811320108B5
:100B3800053201080A06000200000040010000001A
:100B480009022200010100E032090400000103014A
:100B5800020009211101000122260007058303086C
:100B6800000A00000A060002000000400100000020
:100B780009074300020104C032090400000102020F
:100B880001000524001001052401000104240202CB
:100B98000524060001070582030800FF0904010077
:100BA800020A000000070501024000000705810253
:100BB8004000000009024300020100C0320904009D
:100BC80000010202010005240010010524010001B2
:100BD8000424020205240600010705820308001008
:100BE80009040100020A00000007050102000200D2
:100BF800070581020002000009024300020100C04B
:100C08003209040000010202010005240010010558
:100C180024010001042402020524060001070582BC
:100C28000308001009040100020A0000000705017A
:100C3800024000000705810240000000CC90050832
:100C4800000000000000000000000000000000009C
:100C5800000000000000000000000000000000008C
:100C680000000000120100020000004083042A571F
:100C7800000201020301000012010002020000400C
:100C88008304405700020102030100001201000220
:100C9800EF02014083045632000201020301000002
:100CA80005010905A101A100050109300931093231
:100CB800093309350934094009381581257F750834
:100CC80095088102C0C000000921110100012226F7
:100CD800000000000100000021940108000000004D
:100CE800FC91050820700020702D7200FFFFFFFFA7
:100CF800D60101010100000000010101002D202D95
:100D08002D202D2D2D2D202D2D2D00000000000033
:100D180000000000000000000000000000000000CB
:100D28000000000094A80508000000000000000072
:100D380020A9050801000000FA00000001000000D9
:100D480001000000010100001E52012000C801003E
:100D58001D520120005001001C520120005A0100C0
:100D68001A520120020000001C98050818F705080F
:100D780020F705087EBB01200100C409000000001F
:100D88007CBB01200100C409000000007ABB0120DF
:100D98000100C4090000000078BB01200100C4095B
:100DA8000000000074BB01200100C409000000001D
:100DB80076BB01200100C4090000000072BB0120BD
:100DC8000100C4090000000070BB01200100C40933
:100DD80000000000D24F01200100C80001000000FF
:100DE800D04F01203200307532000000CE4F012074
:100DF800055A0500CB4F012000FF0100CD4F01200F
:100E0800010000007C040120C94F012002000000FD
:100E1800A0E80508CA4F012000FF0100CC4F0120BF
:100E2800010000007C040120C84F012002000000DE
:100E3800A0E8050858520120EE02CA080100000087
:100E48005652012000C801006400000055520120DC
:100E580000C8010064000000545201200200000094
:100E680028980508C24F012080C1803E0500000077
:100E7800C04F012080C1803E05000000BA4F01200C
:100E880080C1803E05000000B84F012080C1803E2F
:100E980005000000B34F012000FF0100AC4F012006
:100EA8006400F40101000000AB4F012004000000C1
:100EB80034980508AA4F0120020000004898050848
:100EC800475001200D0000005498050844500120A7
:100ED8000064010042500120320010270A0000007F
:100EE800415001200D000000549805084050012091
:100EF8000D000000549805083F5001200200000032
:100F08008C9805080000000000000000989805086B
:100F1800048401209CFF2C01000000008E55012054
:100F2800E0150C1700000000905501200200000099
:100F3800D0980508645201200100FF7F01000000DD
:100F48006352012002000000DC9805084950012086
:100F580003000000EC980508485001200300000039
:100F6800EC980508FC5101200000E803010000008E
:100F7800FA5101200000E80301000000F8510120A7
:100F88000000E80301000000F65101200000E8031A
:100F980001000000F45101200000E80301000000F6
:100FA800F25101200000E80301000000F151012086
:100FB80000140100F051012003000000FC9805080E
:100FC800085201200000F40101000000065201202F
:100FD8000000F40101000000045201200000F401A7
:100FE80001000000025201200000F401010000008D
:100FF800005201200000803E01000000FE51012047
:101008000000803E010000003152012019640100F7
:1010180030520120020000000C9905082E520120D0
:10102800E803D0070A0000002C52012000640100E8
:101038000A00000021520120006401002052012012
:101048000064010028520120006401000A00000029
:1010580027520120006401000A00000026520120E6
:10106800006401000A0000002B5201200064010006
:101078000A0000002A520120006401000A00000052
:1010880029520120006401000A00000025520120B5
:1010980001FF01000A0000002452012001FF0100A5
:1010A8000A0000002352012001FF01000A0000008D
:1010B800525001200000F4010100000050500120AE
:1010C8000000F401010000004E5001200000F4016E
:1010D800010000004C5001200000F4010100000054
:1010E8004A5001200000F4010100000019520120BB
:1010F8000064010018520120006401001752012009
:101108000064010016520120FF0801001552012059
:1011180001640100199A0108DD9901081899050868
:101128001452012000640100125201201400E80347
:101138000100000010520120E80330750A00000089
:101148000E52012000C801000D52012000C8010004
:101158000C52012000C801000B520120006401005C
:101168000A000000485201200000D00701000000DA
:101178004352012000C801004252012000C801006A
:101188004152012000C80100465201200000D0074A
:10119800010000004052012000C801003F52012018
:1011A80000C801003E52012000C80100445201203D
:1011B8000000D007010000003D52012000C80100D6
:1011C8003C52012000C801003B52012000C8010028
:1011D800000000004D970108889905083D5001203E
:1011E80031000000249A05083C50012000C8010085
:1011F8003A500120E803D007010000004D41544552
:101208004B46373232534500C74F012000030100D7
:10121800C64F012000030100959601086D9601084C
:10122800EC9A050829960108DD950108409B0508F8
:10123800D5960108BD960108C09B0508C44F01203A
:1012480001030100799B01084D9B0108B49E050824
:101258006D9501082D950108189F050863970108E9
:10126800D5BC0108B49F0508CDB8010800000000EE
:101278005CA005081DC10108D99B0108F8A0050854
:10128800B59701080000000078A105088D980108AD
:1012980039980108DCA105081D990108E1980108A1
:1012A80078A20508559A01089D9A0108F8A2050830
:1012B8001F52012001060100FD970108C997010886
:1012C800F4A305085999010895BD010864A4050807
:1012D800D19A010819BE010844A505080A5201203F
:1012E800010301001D970108ED96010818A60508DD
:1012F800A59B0108000000007CA60508AD95010823
:1013080099BC0108E0A605080000000000000000E4
:101318006CA70508259B010891BE0108ECA70508E4
:10132800A64F012088136F1701000000A84F012065
:1013380088136F1700000000C2BB012000000000E6
:1013480000000000C0BB01200000000000000000F9
:10135800BEBB01200000000000000000BCBB012053
:101368000000000000000000BABB012000000000DF
:1013780000000000B8BB01200000000000000000D1
:10138800580D012000000000000000007C4F0120E3
:101398000200000074A90508A44F012088136F17E4
:1013A800010000004484012088136F17000000002A
:1013B800C19401080000000080A90508C255012059
:1013C80001000000D4A9050846840120010000009E
:1013D800E0A905083C84012002000000E8A90508EE
:1013E8000000000000000000F4A90508AD94010801
:1013F8000000000090AA050800000000000000009E
:10140800E4AA0508000000000000000054AB05082D
:1014180040840120E0150C170000000000000000C7
:101428006C60012008000000000000005C600120E2
:1014380008000000700F06087C0F0608880F0608D1
:10144800940F0608A00F0608AC0F060894050608B6
:10145800783706085C3606080C0F06085C5F060835
:10146800600F0608640F0608680F06086C0F060868
:10147800B80F0608BC0F0608C00F0608D4340608C3
:10148800C40F06081900C800F4012003FFFFFFFF7E
:101498000000803F00000000000000000000000085
:1014A8000000803F00000000000000000000000075
:1014B8000000000000000000000000000000000024
:1014C80000000000000000000000803F0000000055
:1014D800000000000000000001000000FFFFFFFF07
:1014E8000000803F00000000000000000000000035
:1014F8000000803F685E0C00FF010000A00F0000A4
:10150800B80B00000102FFFF01000000000001000D
:10151800E00108FFFFFF0000FFFFFFFFB53B0108E8
:10152800C92F01087D3B0108913B0108812F010863
:10153800693B0108533B0108C1310108A131010889
:101548005D31010800000000513101083D310108FA
:101558002931010800000000000000000000000020
:10156800000000001D3101080000000011310108D1
:1015780019680108592E0108D92D0108C12D010843
:10158800FFFF0000FFFFFFFF985D0608000008024C
:1015980005030400A05D0608010008020504040014
:1015A800F41006080200FE010110030074FA050891
:1015B8000300140200030000A85D060804001F02CF
:1015C80001000800B05D060805001F0201010800BF
:1015D80000FFFF0000000000AA55050100000100FF
:1015E800D4E805080000000000000000000000002A
:1015F80000000000000000000000000000000000E3
:101608000000000000000000FF1FFF1F2D202D2DEF
:10161800202D2D2D2D202D2D2D2D0000000000001A
:101628000000000000000000000000AA550B0100A7
:1016380000AA5507010000AA550902000000AA5592
:1016480003009F0001000000C01200007C8E0120F2
:1016580000000000A08E0120000000000101000031
:1016680010000000093E0108C53C01083D3E010884
:10167800A5590108818A01081D5A0108CD300108C1
:10168800B9300108B1300108C13202080000000079
:10169800000000000000000001000000006002409F
:1016A800106002400000000000000000000B000075
:1016B8000000000000000000000000000060024080
:1016C800286002400100000000000000060C000035
:1016D8000000000000000000000000000060024060
:1016E800406002400200000000000000100D0000F1
:1016F8000000000000000000000000000060024040
:10170800586002400300000000000000160E0000B0
:10171800000000000000000000000000006002401F
:10172800706002400400000000000000200F00006C
:1017380000000000000000000000000000600240FF
:10174800886002400500000000000000261000002C
:1017580000000000000000000000000000600240DF
:10176800A0600240060000000000000030110000E8
:1017780000000000000000000000000000600240BF
:10178800B86002400700000000000000362F00008B
:10179800000000000000000000000000006402409B
:1017A8001064024000000000000000000038000043
:1017B800000000000000000000000000006402407B
:1017C8002864024001000000000000000639000003
:1017D800000000000000000000000000006402405B
:1017E800406402400200000000000000103A0000BF
:1017F800000000000000000000000000006402403B
:10180800586402400300000000000000163B00007E
:10181800000000000000000000000000006402401A
:10182800706402400400000000000000203C00003A
:1018380000000000000000000000000000640240FA
:1018480088640240050000000000000026440000F3
:1018580000000000000000000000000000640240DA
:10186800A0640240060000000000000030450000AF
:1018780000000000000000000000000000640240BA
:10188800B86402400700000000000000364600006F
:10189800000000000000000000000000285C0608AE
:1018A8001022060800000000712F0208A08601001F
:1018B800040000000000000000000000000000001C
:1018C8000000000000000000000000000000000010
:1018D800000000000000000000000000285C06086E
:1018E8008060060800000000BD280308E803000027
:1018F80004000000000000000000000000000000DC
:1019080000000000000000000000000000000000CF
:1019180000000000000000000000000048FD05086D
:101928005035060800000000E91700007D0000009F
:101938000600000000000000000000000000000099
:10194800000000000000000000000000000000008F
:10195800000000000000000000000000985B06087E
:101968000000000000000000CD3B0308E803000071
:10197800030000000000000000000000000000005C
:10198800000000000000000000000000000000004F
:101998000000000000000000000000008860060849
:1019A8000000000000000000FDE20208102700000F
:1019B800030000000000000000000000000000001C
:1019C800000000000000000000000000000000000F
:1019D800000000000000000000000000A45D0608F0
:1019E80000000000D5B60108E54303085F76000053
:1019F80005000000000000000000000000000000DA
:101A080000000000000000000000000000000000CE
:101A1800000000000000000000000000FC5D060857
:101A28000000000000000000B18F0308102700002C
:101A3800010000000000000000000000000000009D
:101A4800000000000000000000000000000000008E
:101A5800000000000000000000000000946006087C
:101A6800000000000000000071240308E8030000E3
:101A78000500000000000000000000000000000059
:101A8800000000000000000000000000000000004E
:101A9800000000000000000000000000A060060830
:101AA800000000000000000015510208204E000050
:101AB800030000000000000000000000000000001B
:101AC800000000000000000000000000000000000E
:101AD800000000000000000000000000B0600608E0
:101AE8000000000000000000014F0208204E000026
:101AF80003000000000000000000000000000000DB
:101B080000000000000000000000000000000000CD
:101B1800000000000000000000000000C06006088F
:101B28000000000000000000092E0308400D03001B
:101B3800030000000000000000000000000000009A
:101B4800000000000000000000000000000000008D
:101B5800000000000000000000000000DC0D060886
:101B68000000000000000000911704081027000082
:101B7800010000000000000000000000000000005C
:101B8800000000000000000000000000000000004D
:101B98000000000000000000000000007C1F060894
:101BA8000000000000000000B1AD0308102700008D
:101BB800030000000000000000000000000000001A
:101BC800000000000000000000000000000000000D
:101BD800000000000000000000000000D0600608BF
:101BE8000000000000000000E1150208A0860100C6
:101BF80001000000000000000000000000000000DC
:101C080000000000000000000000000000000000CC
:101C18000000000000000000000000009C5B0608B7
:101C28000000000000000000E527030850C3000082
:101C3800010000000000000000000000000000009B
:101C4800000000000000000000000000000000008C
:101C580000000000000000000000000060F9050816
:101C6800000000000000000025250308A86100000E
:101C7800010000000000000000000000000000005B
:101C8800000000000000000000000000000000004C
:101C9800000000000000000000000000D8600608F6
:101CA8000000000000000000A5EC0308A086010069
:101CB800010000000000000000000000000000001B
:101CC800000000000000000000000000000000000C
:101CD800000000000000000000000000040E0608DC
:101CE8000000000000000000C5700308A00F0000FD
:101CF80001000000000000000000000000000000DB
:101D080000000000000000000000000000000000CB
:101D1800000000000000000000000000E460060869
:101D2800000000000000000031E703081027000051
:101D3800010000000000000000000000000000009A
:101D4800000000000000000000000000000000008B
:101D580000000000000000000000000094040608D5
:101D68000000000000000000F9ED04081A4100001E
:101D7800010000000000000000000000000000005A
:101D8800000000000000000000000000000000004B
:101D980000000000000000000000000020F9050815
:101DA8000000000000000000B5A304081027000090
:101DB800010000000000000000000000000000001A
:101DC800000000000000000000000000000000000B
:101DD8000000000000000000000000001C220608AF
:101DE8000000000000000000B5DC01081A410000F6
:101DF80001000000000000000000000000000000DA
:101E080000000000000000000000000000000000CA
:101E1800000000000000000000000000F06006085C
:101E280000000000000000009DA80408400D030009
:101E3800000000000000000000000000000000009A
:101E4800000000000000000000000000000000008A
:101E5800000000000000000000000000F860060814
:101E68000000000000000000C3FE0308400D03004E
:101E7800000000000000000000000000000000005A
:101E8800000000000000000000000000000000004A
:101E980000000000000000000000000000610608CB
:101EA8000000000000000000EDD4030850C300004B
:101EB8000300000000000000000000000000000017
:101EC800000000000000000000000000000000000A
:101ED8000000000000000000000000000C6106087F
:101EE8000000000000000000794E020840420F0088
:101EF80000000000000000000000000000000000DA
:101F080000000000000000000000000000000000C9
:101F18000000000000000000000000001861060832
:101F280000000000000000003514040850C3000041
:101F38000000000000000000000000000000000099
:101F48000000000000000000000000000000000089
:101F58000000000000000000000000000000803FBA
:101F680074160120000000000000000000000000BE
:101F78000000000000000000000000000000000059
:101F88000000000000000000000000000000000049
:101F98000000000000000000000000000000000039
:101FA8000000000000000000000000000000000029
:101FB8000000000000000000000000000000000019
:041FC8000000000015
:101FCC0001000000780E002000000000200000003E
:0C1FDC00000000000000803F0000803F7B
:1080000003685A1C02601970704700BF2DE9F047E1
:10801000089C002B8846074621780CBF4FF02009AA
:108020004FF03009651C29B3002A27DD2B4601E0FB
:108030000246A8B113F8016B501E002EF8D1961E0F
:1080400070B1B2460AF1FF3A49463846C0470AF1D4
:108050000103002BF6DC26EAE6702178013039B105
:10806000041B3846C047281915F8011B0029F8D110
:10807000BDE8F087002A03DC0846F9E70020EFE7B7
:10808000561EDEE72DE9F84F14461D4606464FF40E
:108090007A720023204629464E4F4EF0EFF84E4BA1
:1080A0004E4A40F2B55C0344DFF83CA182FB030179
:1080B000D81787FB03784A4F1944984487FB037EFF
:1080C000C0EB6111C0EBE8279E4482FB01824FEABE
:1080D000E179C0EB2E4E8AFB078A0A44C1EB011BF3
:1080E000C9EB62193F4AA3EB8B0BC9EB091982FB61
:1080F0000E824FEAE77886F806B0A1EB8901DFF837
:10810000EC90C8EBAA08717189FB03134FEAEE717A
:1081100008EB4808C1EBE212A7EBC8080CFB12E21F
:10812000C0EBE35386F80480B2F5896F4FEA830011
:108130003CDA40F2DA239A4242DCB2F5B77FDFF84C
:10814000B080B4BF4FF0000E4FF0010E4FEA4E0961
:108150001FFA8EFC09EB0E0308EBC303DF8A09EB61
:108160000E010B2308EBC101163101E031F8027D4D
:10817000974218DD013BF9D1CE44012338F83E7017
:1081800000F5FA6E0132B3702046F444D71B29463D
:108190004FF47A720023A6F800C0F7704EF06EF824
:1081A0003281BDE8F88F0133DBB2E9E74FF0030C11
:1081B00040F29657DFF838804FF00609E646CEE7E2
:1081C0004FF0020C40F22947DFF824804FF00409F9
:1081D000E646C4E7C5B3A29180BC92C78988888867
:1081E00007452EC273B06D16ABAAAA2A792D0311CA
:1081F000808405080028F0B504DA2D2340420131BF
:1082000001F8013C092804464FF0010307DD03EBA8
:1082100083035B00B0FBF3F2092AF8D883B10E4860
:10822000A0FB0356B4FBF3F2092A02F1570C02F14A
:10823000300708DD03FB1244F30801F801CBEFD14E
:1082400000230B70F0BD03FB1244F30801F8017B1F
:10825000E6D100230B70F0BDCDCCCCCC884270B4FD
:108260004FF0010442D301FB04F4B0FBF4F58D425E
:10827000F9D2ECB142BB092D04FB150005F15706FC
:1082800005F130020EDD03F8016BB4FBF1F47CB1B3
:10829000B0FBF4F5092D04FB150005F1570605F1B7
:1082A0003002F0DC03F8012BB4FBF1F4002CEFD129
:1082B000002270BC1A707047B4FBF1F403F8016B34
:1082C000002CF5D0B0FBF4F5092D04FB150005F1E9
:1082D000370605F13002EFDC03F8012BB4FBF1F4B3
:1082E000002CEFD1002270BC1A7070470546002A9E
:1082F000EAD1C0E700212222342301703321C27069
:10830000022283710123817342704272C2738370AF
:108310000372837230B407253F24C571C47230BC28
:10832000704700BF06224FF47A73027043607047B3
:108330003221142331224170FF21C3710123427184
:108340000022817403720370837103718370428110
:108350008281C28130B430254FF47F44C5700482DD
:1083600030BC7047F0B5154B4FF0FF34FF21172795
:1083700003F10C0EA446162615250022C1700171CA
:1083800001724172417381738174C17402EB820284
:10839000734500EB020185544E708F7081F803C065
:1083A0000C710AD093F9062006335D789E78DF7849
:1083B00093F904C093F90540E8E7F0BDE0840508AF
:1083C00010B42C2101240222002304704170827019
:1083D000C3705DF8044B7047002342210122C17035
:1083E000427183700371037010B4032444705DF80C
:1083F000044B7047FF22034600F1100170B41A705D
:10840000023303F8012C8B42F9D10E4B4FF0FF31B0
:10841000002203F10C060C4600EB42059E4200F8D8
:10842000124069700CD093F9044093F9051013F8C9
:10843000032F00EB42059E4200F812406970F2D112
:1084400070BC7047F484050830B41D6995420AD3A6
:1084500014460A4621448D42996938BF2A1B21449B
:1084600030BC4EF04BBC30BC704700BF00207047A2
:10847000002070470120704701207047002070479E
:1084800000207047054B002010B49B684FF4007427
:1084900014800B605DF8044B704700BF909D012075
:1084A0004222032302704370704700BF08307047B8
:1084B000704700BF816170476B4B8C462DE9F04FD0
:1084C0001C680025694B87B00746B3F80AE0188995
:1084D0004FEA0E2AB3F804804FEA1E6B9A89B4EB78
:1084E0000A0465EB0B05CDE90045009C019EA0FB4D
:1084F000044500FB0655E0094FEA084440EA4560A0
:10850000E9114FEA184510EB0408D888009C41EBAC
:108510000509A0FB0445CDE9048900FB0655B3F825
:108520000280200A4FEAC83440EA056029124FEA67
:10853000584510EB040841EB05090099A2FB010125
:1085400002FB06114FEAD05A474E4AEA412A4FEA47
:10855000E15B1AF5FA634BF10004B3F5FA6FCDE96C
:10856000023474F1000362DA0524AAFB040104FB5F
:108570000B1100FB0BF40AFB0144A0FB0A01214490
:10858000DDE904234D104FEA3004121B4FEA90043A
:10859000374863EB050344EA81748D104FF0FF31D7
:1085A000B8EB0408CDE90423DDE9023469EB0509E1
:1085B000834274EB010325DA40F6AC5000211AEB3C
:1085C00000024BEB010302FB03F1A2FB022303EBCE
:1085D0004103D400DD00101B45EA527563EB050131
:1085E000DDE9044524184D41CDE904450B24A2FBE7
:1085F000040104FB031149104FEA3000B8EB0008F6
:1086000069EB0109DDE90032DDE902015343009A1B
:10861000A2FB02AB0BEB430B4FEADA724FEAEB73B0
:1086200042EA4B02801A61EB0301CDE9020197B1E6
:108630007168A1FB082301FB0933540D5D1544EA61
:10864000C324DDE90423A21A65EB03031D46D30B03
:1086500043EA45433B60BCF1000F02D0029BCCF8DB
:10866000003007B0BDE8F08FD8160120445A012031
:1086700024FAFFFF2DE9F041334B344E1A897489F7
:10868000B6F91450121B3489B6F904805443B6F974
:108690000E70B6F920C0E213B6F91240DB6815443B
:1086A000E40294FBF5F41444B6F90250A4F57A6E92
:1086B000F4610EFB0EF20EFB05F512130EFB08FE25
:1086C000B6F90C80ED12574302FB08F205EBE727E1
:1086D000B6F90050121407EB850702EB6E32B6F8BC
:1086E00006E007FA0CF7023202379210A3EBA70755
:1086F00002F500420EFB02F24FEAD23E4CF250323B
:1087000042FA0CF37B431BD45B00B3FBFEF378B15E
:108710001A1202FB02F540F6DE326A430C4D1214C7
:108720005D4302EB254202F6CF6203EB22130360A6
:1087300021B10A235C43083424110C60BDE8F081A8
:10874000B3FBFEF35B00E2E7D8160120205A0120BC
:1087500043E3FFFF2DE9F04FDFF8D8C185B0744C3B
:10876000DCF810502288B4F90AA0C2EB251352009D
:108770005B43C2EBE502B4F902501B136A43B4F940
:1087800004505D43AD1305EBE225B5F5FA324FEA2F
:10879000E57BA5614BF1FF334FEAEA7BCDE900238E
:1087A000DDE90032CDE902015343009A0199A2FBB1
:1087B0000289B4F90820009809EB43095143D31703
:1087C00000FB0311A2FB00230B440AFB09F1160373
:1087D0001F0308FB0B13AAFB080147EA12571944B1
:1087E0004FEA102A4AEA016A4FEA212B1AEB0602E5
:1087F000E6884BEB070312F1000A43F5004BAAFB96
:10880000060106FB0B114A10CB1752EA030100F0D8
:108810008C80B4F91060009806FB09F1F71708FB8B
:108820000711A6FB0867B4F90E8039444FEAE879CE
:10883000B2468B46019908FB01F100FB0911A8FB28
:1088400000898944DCF814104FEA4846C1F5801CC1
:108850004FEA49471AEB060A47EAD8376646B4F9A1
:108860000C804FEACC704BEB070BF7174FEAC806AA
:10887000F9070196002641EA5C0140F6354C009666
:10888000DDE9006716EB0A0647EB0B07801B61EB7F
:1088900007018946A0FB0C010CFB09114DF0EEFC11
:1088A000B4F916204E13B4F914A0470B804602FB0E
:1088B00006FCD31747EAC1474FEAEA7B07FB03CC24
:1088C000A2FB07236344564307FB0366A2FB07236F
:1088D0003344560E46EAC3165F16321847EB0103BF
:1088E0000AFB01F108FB0B17AAFB08013944C60C6F
:1088F00046EA4136CF1412EB0608B4F9122043EBD6
:1089000007094FEA1821130141EA09610B44029A51
:108910000AB11B0A1360039B23B105EB8505803563
:108920002D121D6005B0BDE8F08F0023EFE700BFFA
:10893000585A0120D8160120704770474FF4006341
:10894000838470474FF4006383847047012380F869
:108950005C3070474FF4006383847047034610B463
:10896000D0F8F840D968406964B1D3F810218C1A66
:10897000013A005D08BF0A465DF8044BC0B2C3F877
:10898000102170471A6A805C01328A4228BF224651
:10899000C0B25DF8044B1A62704700BFD0F8FC30DB
:1089A00013B190F890017047D0E90903181AB0FA92
:1089B00080F04009704700BFD0E909120369914275
:1089C00038BFC918013B8A1AD0F8FC1031B1D0F871
:1089D0007C11096849680A449A4201D2981A704782
:1089E00000207047D0F8F8306BB1D0F88031D0F863
:1089F00010211B685B689A4201D8981A7047C068BA
:108A0000801A18447047D0E907239A4203D2C068FD
:108A10001044C01A7047D01A704700BF436A70B440
:108A2000064683B01BB19A88196812048A6172697C
:108A300003206D463B4C536823F48053536040F24F
:108A4000E93301E0013B33D091688907FAD564B37B
:108A500034F8023B938140F2E93301E0013B27D037
:108A60009168C907FAD5D3680DB125F8023B0138E2
:108A7000E5D1516840F2E93341F48051516001E0A1
:108A8000013B15D091688807FAD5002C47D0237890
:108A9000137340F2E93301E0013B09D09168C90743
:108AA000FAD5D368C5B12B7016E04FF6FF73D1E746
:108AB0001D498A4207D01D4B9A422ED003F5806390
:108AC0009A4209D102231A4AD82101FB03239A8929
:108AD000013292B29A819B89736A13B11A689B889A
:108AE00093619DF8014001209DF803309DF802102C
:108AF0009DF8042041EA04219DF8054042EA032242
:108B00009DF80630A6F85C1043EA0423A6F85E2020
:108B1000A6F8603003B070BC70470123D3E7FF2391
:108B2000B6E700BF0485050800300140003800406A
:108B300034B7012013B506230C466A4628210C30B1
:108B40003EF07AFDF0B19DF8013004219DF800203F
:108B500042EA03229DF8033012B292FBF1F2228026
:108B60009DF8022042EA03229DF8043012B292FBE3
:108B7000F1F262809DF8052043EA02231BB293FBC9
:108B8000F1F3A38002B010BD7FB5002500F10C0603
:108B90000C4601230D800DF107024D8030468D807B
:108BA00006213EF049FD10B9002004B070BD9DF8CB
:108BB00007305B07F8D5062302AA294630463EF067
:108BC0003BFD0028F0D09DF809209DF8083043EACD
:108BD00002239DF80B2023809DF80A3043EA0223EC
:108BE0009DF80D2063809DF80C3043EA0223A3809A
:108BF000DBE713B506230C466A4603210C303EF032
:108C00001BFDA0B19DF800209DF8013043EA02232E
:108C10009DF8022023809DF8033043EA02239DF84B
:108C20000420A3809DF8053043EA0223638002B04C
:108C300010BD07B5032301AA00213EF0FDFC9DF8FD
:108C400005309DF804001B0243EA00439DF806002E
:108C5000184303B05DF804FB08B5FFF7EAFF014BCA
:108C6000586008BDD816012008B5FFF7E2FF014B98
:108C7000186008BDD816012007B5032301AAF62104
:108C80003EF0DAFC9DF805309DF804201B0243EA13
:108C900002439DF806201343054AB2F92020C2F191
:108CA0000802D340034AD36003B05DF804FB00BF61
:108CB000205A0120D816012007B5022301AAF62167
:108CC0003EF0BAFC9DF804209DF8053043EA0223EB
:108CD000024A138103B05DF804FB00BFD8160120DF
:108CE00007B506236A46F7213EF0A6FC9DF8013041
:108CF0009DF800101B010B4A43EA01339DF8021056
:108D000043EA11139DF8031053619DF804301B01D1
:108D100043EA01339DF8051043EA1113136103B0D0
:108D20005DF804FBD81601203FF02EBA014B1868FD
:108D30002EF0C4B9E87001201D4B1B7870B50446B5
:108D400000F1250593B104221A4920304FF05AFB57
:108D50002846142218494FF055FB012384F83A3075
:108D6000164B1B7873B984F83B3070BD284614222B
:108D700013494FF047FB012384F83A300F4B1B781F
:108D8000002BF0D00F4A0123166855689068D1680F
:108D900026606560A060E160D169166955699069D7
:108DA00084F83B3026616561A061E16170BD00BF60
:108DB000D08001209880012080800120D180012076
:108DC000FCF40508A080012010B4292128240122E8
:108DD0000023047041708270C3705DF8044B7047CB
:108DE0002DE9F84F0A9E8946174600212022984611
:108DF00005460B9C4FF010FA5EB17189D6E900234D
:108E00006982C2F30F40EA81C3F30F42EB822882EA
:108E10002A8348464CF03CFD17F0100A0FD1431E40
:108E200068B119F803202E2A4DD009EB030103E0A5
:108E300011F8016D2E2E3ED013F1FF33F8D2082821
:108E40000246CB464FF0000AA8BF08224FF020335D
:108E500005F10806494628466B602B60C5F80730C7
:108E60004DF04CFF5246594630464DF047FF6A1EC2
:108E7000E81D12F8013FA3F16101203B192998BFB9
:108E800013708242F5D105F10B0116F8013BA3F1F5
:108E90006102203B192A98BF06F8013CB142F4D187
:108EA000C8F30F421823EF72A5F81A80AA82EC616A
:108EB0002B73BDE8F88FC01A00F1FF3ABAF1030F27
:108EC000A8BF4FF0030A082B03F1010BA8BF08232A
:108ED000CB441A46BAE700BF38B52E2200214FF026
:108EE0009BF96424034640F21A4240F2DC5040F2FF
:108EF0006C7540F202211C745882132419209A8246
:108F000040F27532DD82198340F643050E219C76CE
:108F100018770A240220DA83012283F822101872BB
:108F2000194683F82C001D8483F82D409A7383F82A
:108F3000252083F82B200248BDE8384019F082B97B
:108F400008F5050810B50446002101202AF03EFA74
:108F5000207010BD38B50023451E1C460372E1B2D7
:108F6000013402202AF032FA082C05F8010FF6D15C
:108F700038BD00BF38B5002305461C460380214696
:108F80000134284634F072FE082CF8D1002328461C
:108F900085F8E2301946A5F8E430A5F8E630A5F8E2
:108FA000E830A5F8EA30A5F8EC30A5F8EE30A5F8E1
:108FB000F030A5F8F230BDE8384034F01BBE00BFF9
:108FC0002DE9F04F1E4685B00C46002001211546C4
:108FD00029F0E0FE002E61D07319DFF870B3D54E92
:108FE00002931CE0002D00F0DD81DBF81430AB4271
:108FF00065D0DBF81030AB4200F09B80DBE9063136
:10900000AB4253D88D42C0F07881691A204649F0AE
:10901000DDF90135029B04F500749D423ED0DBF87A
:109020002070AF42DED8EF1BDBF830804FEAD70A62
:10903000D8F8303007F007070AF1020A9A4503D33F
:10904000D8F838309A4509D94146504649F08CF94C
:109050008046002800F05681CBF8300098F80430A4
:10906000002B40F0E980D8F82890B9F1000F00F00B
:10907000F781D8F830104346D8F80C202046AAEBE8
:10908000010A4FF40071013504F5007407EBCA0AB8
:1090900002EB4A22C847029B9D42C0D100210846EC
:1090A00029F078FE002005B0BDE8F08F8D42ACD2EB
:1090B0004FF40072002120464FF0AEF8A9E772236A
:1090C00000274FF0FF3C4FF0520E6122412084F800
:1090D000E431394684F8E531DBF82830A27084F8B1
:1090E000E7214FF4F072E07084F8E601201D84F867
:1090F00000E084F801E084F8ECC1C4F8E83184F8B9
:10910000EDC184F8EEC184F8EFC14FF085F8552128
:109110006FF05502C4F8F071C4F8F471C4F8F87136
:1091200084F8FC7184F8FD7184F8FE1184F8FF2145
:109130006FE74FF40072002120467F4F4FF06CF82C
:109140005821EB2002226170F82120704FF0080CAA
:1091500061753F21902384F80DC021764FF0FF3ECA
:10916000A370002322744FF080082273A273E3726D
:10917000E3736374A374E3742375A375E375637673
:10918000E3766377A377E37784F81AE04FF0010E74
:1091900003CF3E27C4F80300C4F80710DBF808101B
:1091A000DBF810002777081ADBF81C10634F2062E9
:1091B000DBF8180084F82C200E22091A84F82830D5
:1091C00084F8293029206162942184F82A3084F8B7
:1091D0002B3084F82D3084F82E3084F82F3084F82A
:1091E000313084F8323084F833300D2384F846C0AF
:1091F00004F1470C84F8420084F8431084F84420BA
:1092000084F845304E4B84F830E04FF0AA0E84F8D5
:1092100040804FF0550807CFC4F84700CCF8041041
:10922000CCF8082084F8FE8184F8FFE103CBC4F871
:109230005200C4F85610ECE64FF4007200212046AC
:109240004EF0EAFFD8F84030002F63D104F120023D
:109250000392002B00F08980D8F83030112201975A
:109260002046009704F140093649FFF7B9FDD8F8C8
:1092700040301A6C002A00F08A801B6B1122019783
:109280004FF4E07A039800972F49FFF7A9FDD8F82B
:10929000448018F1000318BF0123002B3FF4B9AE3E
:1092A000474603940CE00024AAF1200AC146CDE908
:1092B00000C4FFF795FDBF6CEFB1BAF11F0F1AD9CB
:1092C00097F804E01122484609F12008396807F1AF
:1092D0001C0C3B6BBEF1000FE5D17A79AAF1200A94
:1092E0003C69C14642F02102CDE900C4FFF778FD98
:1092F000BF6C002FE1D1039C8BE6E91A204649F0B0
:1093000065F886E6231F04F5FE7243F8046F9A425F
:10931000FBD17EE6002BD8F8448014BF0223012342
:10932000B8F1000FC3EB071714BF012300232AD0A5
:1093300042460EE0DEADBEEF1CF5050828F5050837
:1093400038F5050814F5050818F50508909D012065
:1093500033B1926C013F131C18BF0123002FF7DCBF
:109360009046A1464FF4007A97E7DBF80C103B4695
:109370000197082200972046DDF80C904FF4F07A10
:10938000FFF72EFD83E7A1464FF4007A85E70197AA
:109390003B460097112203984FF4E07A4749FFF7C4
:1093A0001FFD74E74FF40072294620464EF034FF4B
:1093B00080220C2384F8B85184F8BE2184F8C2318D
:1093C0003F4BDBF81020DBF8080083FB02314FEA4B
:1093D000E27C84F8B951CCEB213184F8BA5184F89D
:1093E000BB51B1F5806F84F8BC5184F8BD51C4F80D
:1093F000C621C4F8CA0142DBFF2384F8BF3184F8D8
:10940000C13184F8C031421E2D4BD71783FB023186
:10941000C7EB2131B1F5806F29DA2A4B84F8C511E9
:10942000891083FB0203284821F03F011344C7EB56
:109430006313C3EB831780FB03C0D21B1844DF17F1
:109440000132C7EBE0100A43034484F8C42184F8D6
:10945000C3315522AA2384F8FE2184F8FF31D8E5D0
:1094600049464FF4007220464EF0D6FED1E5FF2368
:1094700084F8C33184F8C53184F8C431E9E7114B6D
:1094800084F8C111891083FB02730F4F21F03F0153
:109490001344CCEB6313C3EB831C87FB03E7A2EB02
:1094A0000C021F444FEAE37C0132CCEBE7170A437E
:1094B0003B4484F8C02184F8BF31A4E718F50508BF
:1094C0009755454183200882818080802DE9F041B5
:1094D0000D4601211C461646084629F05BFCBCB12E
:1094E0000F4F05EB442801E00CF01CFA3A6800230A
:1094F0002946304614691A46A0470028F4D10CF0DA
:1095000011FA0028FBD005F5007501364545EDD16F
:109510000021012029F03EFC0020BDE8F08100BFC1
:10952000749D01202DE9F0410D4601211C4616468F
:10953000084629F02FFCA4B10D4F05EB44283A68EA
:1095400000232946304694681A46A0470028F6D0E2
:109550000CF0E8F90028FBD005F50075013645450B
:10956000EDD10021012029F015FC0020BDE8F0819B
:10957000749D012008B50CF0D5F980F0010040423F
:1095800040B208BD38B514460D460CF0BDF94FF495
:109590000073026800202A60238038BD002108B5CE
:1095A000084629F0F7FB48F0C7FE0CF0BBF900288D
:1095B000FBD00121002029F0EDFB002008BD00BFF9
:1095C000437F30B5044683B01BB90120637703B0F5
:1095D00030BD052502236A4601A90068ADF8045094
:1095E0003DF0E4FE9DF8013003F0010383F001003B
:1095F000637703B030BD00BFF8B5074C05460F4692
:10960000266803E023689B1BBB4204D82846FFF76B
:10961000D7FF0028F6D0F8BD6495012030B583B09F
:1096200045F2082104460625FFF7E6FF02A9206857
:10963000012301F8025D00223DF0B8FE02A9C72215
:109640000123206801F8012D002263773DF0AEFE72
:1096500003B030BD70B5002284B00446D825007F29
:109660000B4602928DF80C208DF8085008B3090EB5
:109670000DF10A028DF809101E0C93701D0A41F2BB
:109680008831167020465570FFF7B6FF04A90622F0
:109690002068012301F8092D00223DF087FE0123F7
:1096A00002A900226377052320683DF07FFE04B005
:1096B00070BD0DF10902DFE710B500F10C040022C6
:1096C000212120463EF002FBFC22202120463EF0D4
:1096D000FDFA4022242120463EF0F8FA0C222321F4
:1096E00020463EF0F3FA0022222120463EF0EEFA18
:1096F00064202DF04FFB012010BD10B500F10C04CB
:1097000001220B2120463EF0E1FA20B11D22092161
:1097100020463EF0DBFA00F0010010BD10B500F16C
:109720000C047022002120463EF0D0FA20220121B4
:1097300020463EF0CBFA0022022120463EF0C6FA37
:1097400064202DF027FB012010BD012248213EF0AE
:10975000BDBA012258213EF0B9BA054BF42193F865
:1097600020209201343202F0FC023EF0AFBA00BF7A
:10977000205A01202E22F4213EF0A8BA3122F421F1
:109780003EF0A4BA2DE9F04F8DB090F86D30039003
:10979000002B40F02A86039B93F86430072B00F0DF
:1097A0001A861823CDE90433039B80226B21BF4C1A
:1097B0001033DFF804934FF01008BD4E18460293A3
:1097C0003EF084FA6423DFF8F4C2BA48DFF8F0E22E
:1097D0000193DCF80430C3F30803002B40F0BE848F
:1097E000EFF31183002B40F0B98425688268236869
:1097F0009D42FAD133689A42F7D8D9F800704FF4F5
:109800007A7101FB07F39B1AB3FBF7F301FB0535F4
:109810004FF47A774FF0010ADCF80430C3F3080301
:10982000002B40F07B84EFF31183002B40F0768413
:109830002368816822689342FAD132689142F7D84E
:10984000D9F8002007FB02FBABEB0101B1FBF2F101
:1098500007FB03135B1BB3F57A7FDDD3019B013B51
:109860000193B6D10722682102984FF010083EF00C
:109870002DFA8F4E6423DFF844C28E48DFF840E2B1
:109880000193DCF80430C3F30803002B40F0A684F6
:10989000EFF31183002B40F0A184256882682368D0
:1098A0009D42FAD133689A42F7D8D9F800704FF444
:1098B0007A7101FB07F39B1AB3FBF7F301FB053544
:1098C0004FF47A774FF0010ADCF80430C3F3080351
:1098D000002B40F00384EFF31183002B40F0FE8354
:1098E0002368816822689342FAD132689142F7D89E
:1098F000D9F8002007FB02FBABEB0101B1FBF2F151
:1099000007FB03135B1BB3F57A7FDDD3019B013BA0
:109910000193B6D11A466B2102984FF010083EF021
:10992000D5F9634E6423DFF894C16248DFF890E113
:109930000193DCF80430C3F30803002B40F02E84BD
:10994000EFF31183002B40F0298425688268236897
:109950009D42FAD133689A42F7D8D9F800704FF493
:109960007A7101FB07F39B1AB3FBF7F301FB053593
:109970004FF47A774FF0010ADCF80430C3F30803A0
:10998000002B40F08C83EFF31183002B40F0878392
:109990002368816822689342FAD132689142F7D8ED
:1099A000D9F8002007FB02FBABEB0101B1FBF2F1A0
:1099B00007FB03135B1BB3F57A7FDDD3019B013BF0
:1099C0000193B6D101226B2102984FF010083EF0AE
:1099D0007DF9374E0F23DFF8E4C03648DFF8E0E0CA
:1099E0000193DCF80430C3F30803002B40F0D1846A
:1099F000EFF31183002B40F0CC8425688268236844
:109A00009D42FAD133689A42F7D8D9F800704FF4E2
:109A10007A7101FB07F39B1AB3FBF7F301FB0535E2
:109A20004FF47A774FF0010ADCF80430C3F30803EF
:109A3000002B40F01583EFF31183002B40F01083CF
:109A40002368816822689342FAD132689142F7D83C
:109A5000D9F8002007FB02FBABEB0101B1FBF2F1EF
:109A600007FB03135B1BB3F57A7FDDD3019B013B3F
:109A70000193B6D1049A1B2102984FF010083EF0D2
:109A800025F90B4E0F23DFF834C00A48DFF830E029
:109A90000193DCF80430C3F30803002B40F0598431
:109AA000EFF31183002B40F054840BE06495012008
:109AB0006C95012010E000E06895012000ED00E0C9
:109AC000609501202568826823689D42FAD1336839
:109AD0009A42F7D8D9F800704FF47A7101FB07F376
:109AE0009B1AB3FBF7F301FB05354FF47A774FF080
:109AF000010ADCF80430C3F30803002B40F0918224
:109B0000EFF31183002B40F08C8223688168226878
:109B10009342FAD132689142F7D8D9F8002007FB76
:109B200002FBABEB0101B1FBF2F107FB03135B1B83
:109B3000B3F57A7FDDD3019B013B0193A9D1059A4F
:109B40001C2102984FF010083EF0C0F8C54E0F23BC
:109B5000DFF818C3C448DFF818E30193DCF80430D9
:109B6000C3F30803002B40F0D583EFF31183002BE0
:109B700040F0D0832568826823689D42FAD133681B
:109B80009A42F7D8D9F800704FF47A7101FB07F3C5
:109B90009B1AB3FBF7F301FB05354FF47A774FF0CF
:109BA000010ADCF80430C3F30803002B40F01A82EA
:109BB000EFF31183002B40F015822368816822683F
:109BC0009342FAD132689142F7D8D9F8002007FBC6
:109BD00002FBABEB0101B1FBF2F107FB03135B1BD3
:109BE000B3F57A7FDDD3019B013B0193B6D1039A94
:109BF00092F86730032B00F2EC8392F86A20012A76
:109C00000BD0022A40F0E583039B93F86F3003F0FA
:109C1000FB03022B0CBF002207221A2102983EF000
:109C200055F84FF010080F23DFF840C28E48DFF8D8
:109C300040E28C4E0193DCF80430C3F30803002BA0
:109C400040F02A83EFF31183002B40F02583256831
:109C5000826823689D42FAD133689A42F7D8D9F8CE
:109C600000704FF47A7101FB07F39B1AB3FBF7F313
:109C700001FB05354FF47A774FF0010ADCF8043028
:109C8000C3F30803002B40F08E81EFF31183002B08
:109C900040F089812368816822689342FAD1326852
:109CA0009142F7D8D9F8002007FB02FBABEB01018A
:109CB000B1FBF2F107FB03135B1BB3F57A7FDDD336
:109CC000019B013B0193B6D1039B192102984FF0F0
:109CD000100893F86C203DF0F9FF624E6423DFF822
:109CE0008CC16148DFF888E10193DCF80430C3F3EC
:109CF0000803002B40F0EF82EFF31183002B40F0BC
:109D0000EA822568826823689D42FAD133689A42C4
:109D1000F7D8D9F800704FF47A7101FB07F39B1A5A
:109D2000B3FBF7F301FB05354FF47A774FF0010AE7
:109D3000DCF80430C3F30803002B40F01581EFF387
:109D40001183002B40F010812368816822689342C0
:109D5000FAD132689142F7D8D9F8002007FB02FB0C
:109D6000ABEB0101B1FBF2F107FB03135B1BB3F596
:109D70007A7FDDD3019B013B0193B6D110223721BD
:109D800002984FF010083DF0A1FF364E0F23DFF888
:109D9000DCC03548DFF8D8E00193DCF80430C3F3C9
:109DA0000803002B40F05982EFF31183002B40F0A1
:109DB00054822568826823689D42FAD133689A42AA
:109DC000F7D8D9F800704FF47A7101FB07F39B1AAA
:109DD000B3FBF7F301FB05354FF47A774FF0010A37
:109DE000DCF80430C3F30803002B40F09E80EFF34F
:109DF0001183002B40F09980236881682268934288
:109E0000FAD132689142F7D8D9F8002007FB02FB5B
:109E1000ABEB0101B1FBF2F107FB03135B1BB3F5E5
:109E20007A7FDDD3019B013B0193B6D102980122D9
:109E300038214FF010083DF049FF0A4E0F23DFF89C
:109E40002CC00948DFF828E00193DCF80430C3F3A4
:109E50000803002B40F0E281EFF31183002B40F068
:109E6000DD8107E06C95012010E000E000ED00E0EE
:109E7000609501202568826823689D42FAD1336885
:109E80009A42F7D8D9F800704FF47A7101FB07F3C2
:109E90009B1AB3FBF7F301FB05354FF47A774FF0CC
:109EA000010ADCF80430C3F30803FBB9EFF31183B4
:109EB000E3B92368816822689342FAD132689142FB
:109EC000F7D8D9F8002007FB02FBABEB0101B1FB8F
:109ED000F2F107FB03135B1BB3F57A7FE1D3019B20
:109EE000013B0193B1D10DB0BDE8F08FEFF31181CB
:109EF00088F31288D0F808B00368DB0303D5CEF8E6
:109F000000A0D0F808B02368C9B2DEF8002081F3C1
:109F10001188D9F80010134407FB01F2A2EB0B02E1
:109F2000B2FBF1F207FB0323D5E7EFF3118188F3CE
:109F30001288D0F808B00368DB0303D5CEF800A080
:109F4000D0F808B02368C9B2DEF8002081F3118888
:109F5000D9F80010134407FB01F2A2EB0B02B2FB8D
:109F6000F1F207FB032359E7EFF3118188F312881D
:109F7000D0F808B00368DB0303D5CEF800A0D0F812
:109F800008B02368C9B2DEF8002081F31188D9F83F
:109F90000010134407FB01F2A2EB0B02B2FBF1F23B
:109FA00007FB0323E2E6EFF3118188F31288D0F870
:109FB00008B00368DB0303D5CEF800A0D0F808B0E2
:109FC0002368C9B2DEF8002081F31188D9F80010A7
:109FD000134407FB01F2A2EB0B02B2FBF1F207FB09
:109FE000032369E6EFF3118188F31288D0F808B0F3
:109FF0000368DB0303D5CEF800A0D0F808B02368CF
:10A00000C9B2DEF8002081F31188D9F8001013449A
:10A0100007FB01F2A2EB0B02B2FBF1F207FB0323F9
:10A02000DDE5EFF3118188F31288D0F808B00368FA
:10A03000DB0303D5CEF800A0D0F808B02368C9B27E
:10A04000DEF8002081F31188D9F80010134407FBD3
:10A0500001F2A2EB0B02B2FBF1F207FB032366E570
:10A06000EFF3118188F31288D0F808B00368DB039E
:10A0700003D5CEF800A0D0F808B02368C9B2DEF846
:10A08000002081F31188D9F80010134407FB01F276
:10A09000A2EB0B02B2FBF1F207FB0323E2E4EFF3C6
:10A0A000118188F31288D0F808B00368DB0303D568
:10A0B000CEF800A0D0F808B02368C9B2DEF80020BE
:10A0C00081F31188D9F80010134407FB01F2A2EBC9
:10A0D0000B02B2FBF1F207FB03236BE4EFF31181F8
:10A0E00088F31288D0F808B00368DB0303D5CEF8F4
:10A0F00000A0D0F808B02368C9B2DEF8002081F3D0
:10A100001188D9F80010134407FB01F2A2EB0B02EF
:10A11000B2FBF1F207FB0323FFF7F4BBEFF311816E
:10A1200088F31288D0F808B00368DB0303D5CEF8B3
:10A1300000A0D0F808B02368C9B2DEF8002081F38F
:10A140001188D9F80010134407FB01F2A2EB0B02AF
:10A15000B2FBF1F207FB0323FFF77CBBEFF31183A4
:10A1600088F3128881680268D20303D50122CEF8F1
:10A17000002081682568DBB2DEF800A083F3118837
:10A180004FF47A72D9F80070554402FB07F35B1A5A
:10A19000B3FBF7F302FB0535FFF73ABBEFF311838F
:10A1A00088F3128881680268D20303D50122CEF8B1
:10A1B000002081682568DBB2DEF800A083F31188F7
:10A1C0004FF47A72D9F80070554402FB07F35B1A1A
:10A1D000B3FBF7F302FB0535FFF7CABBEFF31183BF
:10A1E00088F3128881680268D20303D50122CEF871
:10A1F000002081682568DBB2DEF800A083F31188B7
:10A200004FF47A72D9F80070554402FB07F35B1AD9
:10A21000B3FBF7F302FB0535FFF752BBEFF31183F6
:10A2200088F3128881680268D20303D50122CEF830
:10A23000002081682568DBB2DEF800A083F3118876
:10A240004FF47A72D9F80070554402FB07F35B1A99
:10A25000B3FBF7F302FB05351FE6EFF3118388F339
:10A26000128881680268D20303D50122CEF800204B
:10A2700081682568DBB2DEF800A083F311884FF413
:10A280007A72D9F80070554402FB07F35B1AB3FBEE
:10A29000F7F302FB05359FE5EFF3118388F312888E
:10A2A00081680268D20303D50122CEF800208168BC
:10A2B0002568DBB2DEF800A083F311884FF47A72D0
:10A2C000D9F80070554402FB07F35B1AB3FBF7F3B0
:10A2D00002FB0535CEE4EFF3118388F31288816821
:10A2E0000268D20303D50122CEF8002081682568D8
:10A2F000DBB2DEF800A083F311884FF47A72D9F84C
:10A300000070554402FB07F35B1AB3FBF7F302FB43
:10A31000053509E5EFF3118388F312888168026837
:10A32000D20303D50122CEF8002081682568DBB274
:10A33000DEF800A083F311884FF47A72D9F8007028
:10A34000554402FB07F35B1AB3FBF7F302FB053539
:10A3500023E4EFF3118388F3128881680268D20343
:10A3600003D50122CEF8002081682568DBB2DEF833
:10A3700000A083F311884FF47A72D9F80070554425
:10A3800002FB07F35B1AB3FBF7F302FB0535FFF79C
:10A39000ACBBEFF3118388F3128881680268D203A3
:10A3A00003D50122CEF8002081682568DBB2DEF8F3
:10A3B00000A083F311884FF47A72D9F800705544E5
:10A3C00002FB07F35B1AB3FBF7F302FB0535FFF75C
:10A3D00027BB019A21E4039B93F86930002B41D1FC
:10A3E0001023CDE90433FFF7DFB91C0903F00F0395
:10A3F000013C032C3CD8474A32F8140040FA03F2DF
:10A40000D70735D5012202FA03F3013B18404BF080
:10A4100085FF414B414A1B5D184412EBC00427D015
:10A4200052F83000A38805691D407FF4B4A9B3FA3F
:10A4300083F220263A49C2F11F02A671039F561CDF
:10A44000E571F96019D1B3FA83F30122C3F11F0357
:10A4500012FA03F33FF49FA932490A6813430B60D1
:10A46000FFF799B918231021CDE90431FFF79CB902
:10A470002B4B039AD360FFF78EB92B4E07F10C01DB
:10A48000DFF8BCC0B7180793284B4CF8221007A977
:10A4900097F88C7008930995CDE90A550BF078FE72
:10A4A000234BDA5DF02A01D8A388CCE7F021214ABA
:10A4B0003E44D955D36896F89C20C3F3022351B289
:10A4C000C3F107001E1D042828BF0420062E88BFE4
:10A4D000DD1E4FF0FF33002903FA00F36FEA030398
:10A4E00003F0030303FA05F34FEA0313DBB20CDBBB
:10A4F00002F01F06104801224D090144B24081F8C4
:10A50000003340F82520A3889DE702F00F020B4995
:10A510008B54C9E770ED050878ED050828930120F4
:10A520004D890008003C014080840508000011109E
:10A53000A85F012000ED00E000E100E014ED00E084
:10A54000685F01204369AF491A688B4222F04002DC
:10A550002DE9F04F83B01A60019000F00981AA4AFA
:10A56000934200F0058138211A68012022F0380258
:10A570000A431A601A6842F040021A602CF0ACFBE1
:10A58000019C2046FFF7FEF8636A1BB19A881968A0
:10A5900012048A61019B5A6940F2E93302E0002B00
:10A5A00000F000819168013B11F0020F9BB2F6D0E0
:10A5B0006A2140F2E933117302E0002B00F00881B8
:10A5C0009168013B11F0010F9BB2F6D0D368019B5B
:10A5D0005A6940F2E93302E0002B00F0CB80916829
:10A5E000013B11F0020F9BB2F6D0102140F2E9338B
:10A5F000117302E0002B00F0BD809168013B11F067
:10A60000010F9BB2F6D0D368019B5B6A13B11A6845
:10A610009B88936164237D48DFF804E24FF01009C2
:10A62000DFF800C27A4CDFF800827A4E0093DCF843
:10A630000430C3F30803002B79D1EFF31183002B0F
:10A6400075D10568A26803689D42FAD133689A42C1
:10A65000F7D8DEF800704FF47A7101FB07F39B1A0C
:10A66000B3FBF7F301FB05354FF47A774FF0010A9E
:10A67000DCF80430C3F30803002B39D1EFF3118366
:10A68000002B35D10368A16802689342FAD1326881
:10A690009142F7D8DEF8002007FB02FBABEB01018B
:10A6A000B1FBF2F107FB03135B1BB3F57A7FDFD33A
:10A6B000009B013B0093BAD1019B52495B691A6828
:10A6C0008B4222F040021A6050D04F4A93424DD044
:10A6D00010211A68012022F038020A431A601A6811
:10A6E00042F040021A6003B0BDE8F04F2CF0F4BA1B
:10A6F000EFF3118189F31288D4F808B02368DB03E3
:10A7000003D5C8F800A0D4F808B00368C9B2D8F8D7
:10A71000002081F31188DEF80010134407FB01F2DA
:10A72000A2EB0B02B2FBF1F207FB0323BCE7EFF352
:10A73000118389F31288A1682268D20303D501220C
:10A74000C8F80020A1680568DBB2D8F800A083F340
:10A7500011884FF47A72DEF80070554402FB07F35B
:10A760005B1AB3FBF7F302FB05357DE70821B0E781
:10A770003021F9E628498A4208D0224B9A420FD06C
:10A7800003F580639A427FF43FAF0223234AD82126
:10A7900001FB03239A89013292B29A819B8933E7A4
:10A7A0000123F3E71C498A4208D0164B9A4224D071
:10A7B00003F580639A427FF40CAF02231749D82037
:10A7C00000FB03139989013189B299819B8900E7C4
:10A7D000114801998242496907D00A4B9A420ED02A
:10A7E00003F580639A4206D102230C48D8240A4616
:10A7F00004FB0303E6E70A46EBE60123DEE7012359
:10A80000F3E700BF00380040003C004064950120A1
:10A8100010E000E06C9501200030014034B70120C9
:10A820006895012000ED00E0609501200269C36891
:10A830002DE9F04712EA030927D00E4605464FF0EE
:10A8400000474FF00008B9FA89F327FA03F21B3BDF
:10A85000D2432A6109EA0209042B13D8DFE803F086
:10A86000322920170300736A002B34D1EB6A1FFAD8
:10A8700083FA346A34B123682046514698476468A5
:10A88000002CF8D1B9F1000FDDD1BDE8F0873068B8
:10A89000696B036889B29847B9F1000FD3D1F4E727
:10A8A0007068A96B036889B29847B9F1000FCAD1E3
:10A8B000EBE7B068E96B036889B29847B9F1000F1C
:10A8C000C1D1E2E7F068296C036889B29847B9F111
:10A8D000000FB8D1D9E703F1FF3AC6F824801FFA78
:10A8E0008AFAC6E7F8B5EFF31184502383F3128890
:10A8F000D0F8FC301B6813F0010303D0E4B284F3FA
:10A900001188F8BD90F8852190F886110A4302F06D
:10A910002102212AF2D0D0E90912914245D095B204
:10A9200047D94B1B9BB28162002590F8851180F8B6
:10A9300090512029E2D18569D54205EB0201DDD095
:10A94000B3FA83F56D09002DD8D190F88421012A3E
:10A95000D4D0064621220120DFF864C0A6F86E316B
:10A96000D6F87C71C6F8885186F88521134AA6F876
:10A970006C3186F884013846C6F868113D65C7E930
:10A980000FC2D6F81C21DFF83CC02832C7F84CC0F3
:10A990000EF0A0FBD6F81C3140221A6286F88451D2
:10A9A0009A6842F080029A60A8E7012380F890310B
:10A9B000A4E706691946731B9BB2B4E795330108F7
:10A9C000CB3301082F330108426A10B48469A154C3
:10A9D000426A04690132D0F8FC10A24228BF00226A
:10A9E000426241B9D0F81C215DF8044B136843F072
:10A9F0008003136070475DF8044B73E7406998303B
:10AA00000EF0CAB8426910B50832184C54F822004A
:10AA10000EF0C2F8164B1A8823460C2A0DD8DFE830
:10AA200002F0070C0C0C130C0C0C190C0C0C1F0076
:10AA30002168CA6822F40072CA60012283F83D20AE
:10AA400000220C4B1A7010BD2168CA6822F4806283
:10AA5000CA60F2E72168CA6822F40062CA60ECE7C3
:10AA60002168CA6822F48052CA60E6E76C79012046
:10AA7000687901205F790120F8B5D0F81C310446CF
:10AA8000DA69910615D5586AE36AC0B2002B00F066
:10AA9000CB80216B9847D4F81C311A6822F480725D
:10AAA0001A609A6822F001029A609A6942F00802DC
:10AAB0009A61DA69D20701D501221A62DA69970729
:10AAC00001D502221A62DA69560701D504221A62F8
:10AAD000DA69150701D508221A62D4F8FC20FAB108
:10AAE000D969490600D4F8BDD96904F58E701E688D
:10AAF0000F079D682CD18F0602D5B50600F1DA80CC
:10AB00000F0602D5350600F1B980480602D5710658
:10AB100000F18280002AE6D02046BDE8F840E1E658
:10AB2000D9690806DCD594F885112129D8D0D4E953
:10AB30000901814200F09B80A069405C0131C0B2F4
:10AB400098622569B1FBF5F005FB1011A162C7E71A
:10AB500015F0010502D116F4907FD1D0CF0701D5B1
:10AB6000F7057BD48F074AD5002D6CD10F0709D587
:10AB7000B70665D508251D62D4F8885145F008054B
:10AB8000C4F88851D4F88851002DC3D08F0605D55C
:10AB9000B50603D50BF0B8FCD4F81C31D4F88821E5
:10ABA000110708D49A6812F0400204D1C4F8882131
:10ABB000D4F8FC20AEE71A68202122F490721A60C3
:10ABC0009A6822F001029A6084F886119A68520607
:10ABD000EED59A68D4F8801122F040029A600029DC
:10ABE000E6D0414B08460B650EF0B0F80028DFD0E8
:10ABF000D4F88001036D9847D4F8FC208AE74F070A
:10AC0000B4D5002DB2D004271F62D4F8887147F064
:10AC10000207C4F88871A9E71968202021F04001D3
:10AC2000196084F8850175E7E3696269D054E369C6
:10AC3000E1680133B3FBF1F201FB1233E3612AE770
:10AC4000002D9FD096E702271F62D4F8887147F045
:10AC50000407C4F888714F0788D5D4E701271F621D
:10AC6000D4F8887147F00107C4F888717AE7A4F82E
:10AC70006E21196821F08001196031E794F885117F
:10AC800021297FF447AFB4F86E1189B2B9B1D4F875
:10AC90002401D4F86811B0F5805F19D0481CC4F8BD
:10ACA000680109789962B4F86E31013B9BB2A4F84F
:10ACB0006E312FE70BF028FCD4F8FC202AE7196846
:10ACC00021F080011960196841F04001196021E705
:10ACD000D4F82C010028E1D131F8020BC0F30800B0
:10ACE0009862C4F86811DEE721330108037C01682B
:10ACF0001F2B0AD9203B2022496802FA03F30B429A
:10AD000014BF0123002353B970472022096802FAB7
:10AD100003F30B4214BF01230023002BF4D02DE9D1
:10AD2000F04F83B0476904468F4E29F011FB4FF472
:10AD30008A73804603FB07631A7C002A2FD18B4954
:10AD40005A6809781568C1B9D16858890A6822F02B
:10AD500001020A60EB6823EA0003EB60844B1B7876
:10AD6000002B33D1237C21681F2B10D8202202FA1C
:10AD700003F38B6003B0BDE8F08F9269136823F092
:10AD800001031360EB6823F48073EB60E6E7202295
:10AD9000203B02FA03F3CB6003B0BDE8F08F734AA7
:10ADA000012112785974002A7FD15A685D89D068D0
:10ADB0001168026822F001020260CB6823EA0503F1
:10ADC000CB606C4A136801331360CBE74FF48A728F
:10ADD000694902FB07F2B3184432D3F888A0324421
:10ADE00001935FFA8AF92AF0FF0B0092A9F110098A
:10ADF0005846A1FB09394FEA191949460DF056FD8D
:10AE0000019B0120009AD3F880101874102900F0DB
:10AE1000908056D9B1F5807F70D0B1F5805F19D19F
:10AE2000296A986B21F48051D3E90FCE296240EA58
:10AE30000E00E9695B6B40EA0C0021F47F411B03C3
:10AE400041EA102143F48053E961296A21F4204149
:10AE50000B432B624FF48A700023494600FB0766C0
:10AE60005846F3640DF0DCFCDAF80030D6F8885070
:10AE700043F0100396F884204049CAF800306B680C
:10AE8000776819407389F8680A4339686A6002680C
:10AE900042F001020260CA681343CB6029F058FAFD
:10AEA000374BA0EB080018605CE75B6899691A688B
:10AEB0000B6823F001030B60D36823F48073D36025
:10AEC0007FE78142C6D1296A986B21F00101D3E95D
:10AED0000FCE296240EA0E00A96940EA0C00D3F8BF
:10AEE00034C021F0FF034CF0010143EA1043AB6191
:10AEF0002B6A23F00A030B432B62ABE7296A986B9A
:10AF000021F48071D3E90FCE296240EA0E00E9698D
:10AF10005B6B40EA0C0021F0FF011B0241EA10418B
:10AF200043F48073E961296A21F420610B432B62A9
:10AF300090E7296A986B21F01001D3E90FCE2962BE
:10AF400040EA0E00A9695B6B40EA0C0021F47F41E6
:10AF50001B0141EA102143F01003A961296A21F085
:10AF6000A0010B432B6275E7104500200C45002023
:10AF70000845002054430020ABAAAAAA0000FFFF06
:10AF80005C4300208E4B1B78002B00F0B280002821
:10AF900000F0AF80431E2DE9F04F032B894C83B0A6
:10AFA0004FF00006A8BF0323A4F1140801900093FA
:10AFB000676F4FF48A7384485FFA87FB03FB06834D
:10AFC00027F0FF05ABF1100B5B7CA0FB0B2B4FEACE
:10AFD0001B1B002B00F08E807C4B13F80B301D44A4
:10AFE0006A6892B2002A63D114F8050CD4E92013E0
:10AFF000002800F06D83603373485B1AA0FB035197
:10B00000890901EB4101A3EB4113182B00F12885BD
:10B01000173BA0FB0323DB0003F0F0036A48D4E9ED
:10B0200022126032521AA0FB0251890901EB410140
:10B03000A2EB4112182A05D4173AA0FB0212C2F360
:10B04000430213436048D4E924126032521AA0FB31
:10B050000251890901EB4101A2EB4112182A00F1CA
:10B060002985A2F11701A0FB0121C1F34301D4F806
:10B070009C2041EA0311D4F8983060325248D21A29
:10B08000A0FB02539B0903EB4303A2EB4312182AD4
:10B0900000F10D85173AA0FB0223C3F3430343EAF3
:10B0A000011383EA132282EA1212150700F0E283E9
:10B0B000474A13680133136026B980224549464840
:10B0C0004BF01CFE4FF48A73002203FB06835A7474
:10B0D000676F54F8103C5FFA87FB27F0FF05D3F841
:10B0E0000090ABF1100B384BA3FB0B3B4FEA1B1B43
:10B0F0000CE0704754F8103C34F80A1CD3F8009068
:10B10000D9F80C2022EA0102C9F80C205946284639
:10B110000DF0CCFB4FF48A734FF0000C03FB06825A
:10B1200082F810C0E26E012A1CD0042A1AD0102A1C
:10B1300000F0BC82402A15D0B2F5807F00F08584F3
:10B14000B2F5806F00F08184B2F5805F00F09984E1
:10B15000B2F5803F4FF03C0C14BF6FF4006E6FF0FF
:10B16000080E01E06FF0080E09F1180A2246484661
:10B170005AF80C1001EA0E014AF80C10E16E0AF0C0
:10B18000B5FEE26E012A29D0042A27D0102A00F049
:10B190009082402A22D0B2F5807F00F05C84B2F524
:10B1A000806F00F05884B2F5805F00F07A84B2F5C9
:10B1B000803F09F1540A14BF4FF4006108210EE0EA
:10B1C0000845002024450020ABAAAAAAF89005084B
:10B1D00058430020A4450020604300200821DAF8ED
:10B1E00000304022B3480B43DFF8E4E210F80BC014
:10B1F000CAF80030A16CA2630CEB0502D4E90F3051
:10B200000343606C43F040031843E36C0143A06DBB
:10B2100019435CF80530014303EA0E0EE36D41EA81
:10B220000E014CF80510C3B15169206E21F00701E1
:10B23000D4F864E00343A06E0B4353615CF805103F
:10B2400021F0C07141EA0E014CF805105CF80530A0
:10B2500023F4C00303434CF80530616B0136236BC4
:10B2600004F58A74D16093609349506854F8C43CE3
:10B27000014054F8C00C19435160136823F0F05397
:10B28000034313603B6843F010033B60009B9E4206
:10B290007FF78EAE019B9E4280F278814FF48A7BCD
:10B2A0000BFB0684CDF800B01434676F009B5FFA87
:10B2B00087FB824803FB068327F0FF05ABF1100BE9
:10B2C0005B7CA0FB0B2B4FEA1B1B002B00F08C8040
:10B2D0007B4B13F80B301D446A6892B2002A63D18D
:10B2E00014F8050CD4E92013002800F0D082603354
:10B2F00072485B1AA0FB0351890901EB4101A3EBE2
:10B300004113182B00F1AF83173BA0FB0323DB0095
:10B3100003F0F0036948D4E922126032521AA0FB0C
:10B320000251890901EB4101A2EB4112182A05D40F
:10B33000173AA0FB0212C2F3430213435F48D4E959
:10B3400024126032521AA0FB0251890901EB41011B
:10B35000A2EB4112182A00F1C883A2F11701A0FB49
:10B360000121C1F34301D4F89C2041EA0311D4F830
:10B37000983060325148D21AA0FB02539B0903EB6C
:10B380004303A2EB4312182A00F1AD83173AA0FB46
:10B390000223C3F3430343EA011383EA132282EA3D
:10B3A0001212110700F04383464A136801331360F9
:10B3B00026B98022444945484BF0A0FC009B00225E
:10B3C00003FB06835A74676F54F8103C5FFA87FBDF
:10B3D00027F0FF05D3F80090ABF1100B374BA3FB20
:10B3E0000B3B4FEA1B1B0BE054F8103C34F80A1CD3
:10B3F000D3F80090D9F80C2022EA0102C9F80C20F9
:10B40000594628460DF052FA009B4FF0000C03FB02
:10B41000068282F810C0E26E012A1CD0042A1AD0DB
:10B42000102A00F04981402A15D0B2F5807F00F043
:10B430000383B2F5806F00F0FF82B2F5805F00F009
:10B440002B83B2F5803F4FF03C0C14BF6FF4006EBD
:10B450006FF0080E01E06FF0080E09F1180A22469D
:10B4600048465CF80A1001EA0E014CF80A10E16E39
:10B470000AF03CFDE26E012A2CD0042A2AD0102AC0
:10B4800000F01D81402A25D0B2F5807F00F0D982DE
:10B49000B2F5806F00F0D582B2F5805F00F0F782E0
:10B4A000B2F5803F09F1540A14BF4FF4006108213E
:10B4B00011E000BFF89005080000FFFFABAAAAAAA0
:10B4C000F890050858430020A44500206043002060
:10B4D0001F80FCFF0821DAF80030402279480B4336
:10B4E000DFF8E8E110F80BC0CAF80030A16CA263E5
:10B4F0000CEB0502D4E90F300343606C43F04003CA
:10B500001843E36C0143A06D19435CF80530014317
:10B5100003EA0E0EE36D41EA0E014CF80510C3B1CB
:10B520005169206E21F00701D4F864E00343A06E56
:10B530000B4353615CF8051021F0C07141EA0E0124
:10B540004CF805105CF8053023F4C00303434CF8B5
:10B550000530616B0136236B04F58A74D16093600A
:10B560005949506854F8C43C014054F8C00C194380
:10B570005160136823F0F053034313603B6843F0BA
:10B5800010033B60019BB3427FF48FAE98F80D30FF
:10B59000D8F8801013F0020FD8F804301A68136A34
:10B5A0000CBF0B4343EA81031362019B012B7AD04A
:10B5B00098F82131D8F8941113F0020FD8F8183107
:10B5C0001A68136A0CBF0B4343EA81031362019BA1
:10B5D000022B68D098F83532D8F8A81213F0020F71
:10B5E000D8F82C321A68136A0CBF0B4343EA810364
:10B5F0001362019B032B56D098F84933D8F8BC133B
:10B6000013F0020FD8F840331A68136A0CBF0B43CB
:10B6100043EA81031362019B042B44D098F85D3404
:10B62000D8F8D01413F0020FD8F854341A68136AFB
:10B630000CBF0B4343EA81031362019B052B32D0FD
:10B6400098F87135D8F8E41513F0020FD8F868357A
:10B650001A68136A0CBF0B4343EA81031362019B10
:10B66000062B20D098F88536D8F8F81613F0020F7C
:10B67000D8F87C361A68136A0CBF0B4343EA81037F
:10B680001362019B072B0ED098F89937D8F80C1845
:10B6900013F0020FD8F890371A68136A14BF43EA00
:10B6A00081030B43136203B0BDE8F08F6FF4006EAB
:10B6B0005AE54FF4006192E56FF4006ECDE64FF469
:10B6C000006108E7F89005080000FFFF1F80FCFFFD
:10B6D0005B1A002B40F3CF810A2BD4BF0023012338
:10B6E000D4F88C205B00D4F88810521A002A40F35A
:10B6F00022820A2A01DD43F00103D4F894205B0082
:10B70000D4F89010521A002A40F31D820A2A01DD53
:10B7100043F00103D4F89C205B00D4F89810521A2F
:10B72000002A40F30C820A2A01DD43F00103D4F819
:10B73000A4205B00D4F8A010521A002A40F3F38131
:10B740000A2A01DD43F00103D4F8AC205B00D4F8F1
:10B75000A810521A002A40F3E2810A2A01DD43F0C0
:10B760000103D4F8B4205B00D4F8B010521A002AB8
:10B7700040F3D1810A2A01DD43F00103D4F8BC2053
:10B780005B00D4F8B810521A002A40F3C0810A2A8C
:10B7900001DD43F00103D4F8C4205B00D4F8C010ED
:10B7A000521A002A40F3AF810A2A01DD43F0010357
:10B7B000D4F8CC205B00D4F8C810521A002A40F309
:10B7C0009E810A2A01DD43F00103D4F8D4205B00F6
:10B7D000D4F8D010521A002A40F38D810A2A01DDD4
:10B7E00043F00103D4F8DC205B00D4F8D810521ADF
:10B7F000002A40F37C810A2A01DD43F00103D4F8DA
:10B80000E4205B00D4F8E010521A002A40F3618172
:10B810000A2A01DD43F00103D4F8EC205B00D4F8E0
:10B82000E810521A002A40F350810A2A01DD43F041
:10B830000103D4F8F4205B00D4F8F010521A002A67
:10B8400040F33F810A2A01DD43F00103D4F8FC20D4
:10B850005B00D4F8F810521A002A40F32E810A2A0D
:10B8600001DD43F0010383EA132282EA121210077A
:10B870007FF41EACCA4AC3F30F13127824F8023CBB
:10B880002F2A7FF41FACC74A22F816301AE45B1A3D
:10B89000002B40F3EA800A2BD4BF00230123D4F805
:10B8A0008C205B00D4F88810521A002A40F33F81A4
:10B8B0000A2A01DD43F00103D4F894205B00D4F898
:10B8C0009010521A002A40F373810A2A01DD43F0D6
:10B8D0000103D4F89C205B00D4F89810521A002A77
:10B8E00040F362810A2A01DD43F00103D4F8A42069
:10B8F0005B00D4F8A010521A002A40F34C810A2AA7
:10B9000001DD43F00103D4F8AC205B00D4F8A810AB
:10B91000521A002A40F33B810A2A01DD43F0010359
:10B92000D4F8B4205B00D4F8B010521A002A40F3C7
:10B930002A810A2A01DD43F00103D4F8BC205B0010
:10B94000D4F8B810521A002A40F319810A2A01DDEE
:10B9500043F00103D4F8C4205B00D4F8C010521A9D
:10B96000002A40F308810A2A01DD43F00103D4F8DC
:10B97000CC205B00D4F8C810521A002A40F3F7809C
:10B980000A2A01DD43F00103D4F8D4205B00D4F887
:10B99000D010521A002A40F3E6800A2A01DD43F053
:10B9A0000103D4F8DC205B00D4F8D810521A002A26
:10B9B00040F3D5800A2A01DD43F00103D4F8E420E6
:10B9C0005B00D4F8E010521A002A40F3C4800A2A1F
:10B9D00001DD43F00103D4F8EC205B00D4F8E8105B
:10B9E000521A002A40F3B3800A2A01DD43F0010312
:10B9F000D4F8F4205B00D4F8F010521A002A6FDD5E
:10BA00000A2A01DD43F00103D4F8FC205B00D4F8DE
:10BA1000F810521A002A60DD0A2A01DD43F0010302
:10BA200083EA132282EA121212077FF4BDACC3F339
:10BA30000F1324F8023CC1E46FF0080E4FF0040C21
:10BA40000BE509F11C0A082145E56FF0080E4FF0DF
:10BA5000040CFFF789BB09F11C0A0821FFF7BFBBE3
:10BA60001346FFF7DBBA134654E413F1090FB4BFD2
:10BA70000023012313E713F1090FB4BF00230123AF
:10BA80002EE66FF4006E4FF0040CFFF76DBB09F16A
:10BA90001C0A4FF400611EE56FF4006E4FF0040CB9
:10BAA000DBE409F11C0A4FF40061FFF798BB0023A7
:10BAB000FFF7F5BA0021FFF7DABA0932FFF6D3AE85
:10BAC000CFE60932FFF6C2AEBEE60932FFF6B1AEEE
:10BAD000ADE60932FFF6A0AE9CE60932A0DB9DE799
:10BAE000093291DB8EE7002355E400213BE4093263
