:020000040800F2
:10000000F0FF001079BA040805970108354001088F
:1000100019BB040819BB040819BB04080000000040
:10002000000000000000000000000000119701081F
:100030000D970108000000000997010839350108F3
:1000400019BB040819BB040819BB040819BB040830
:1000500019BB040819BB0408D9460108194801084E
:10006000D94701089947010859470108F572030863
:10007000E5720308D5720308C5720308B17203085C
:100080009D7203088972030819BB040819BB040890
:1000900019BB040819BB040819BB04081947010857
:1000A0001D1B0108691D010819BB0408291E010850
:1000B000A91C0108E91B010819BB040819BB0408A5
:1000C00019BB040819BB040819BB040819BB0408B0
:1000D00019BB04084D370108B1360108153601086F
:1000E0009946010819BB040841DA010819BB040844
:1000F00019BB040819BB040819BB0408757203086E
:1001000019BB040819BB040819BB040819BB04086F
:1001100019BB040819BB0408A5D2020891D2020831
:10012000617203084D7203083972030825720308CF
:100130001172030819BB040819BB040819BB040891
:1001400019BB040819BB040819BB04080DA8010851
:10015000FD710308E9710308D571030879350108B9
:1001600019BB040819BB040819BB040819BB04080F
:1001700019BB040819BB040819BB040819BB0408FF
:0801800019BB040819BB0408B7
:0801880020B604000100000094
:100190001A023C00AC180020B41A00200000000035
:1001A0000919030827000400A4180020F01A0020F1
:1001B00000000000A406000805100600A81D00208D
:1001C000C825002000000000A8060008122010002A
:1001D000601D0020D025002000000000AE060008B1
:1001E00023100E00C41F0020E025002000000000A6
:1001F0001DD90308F5518800841C0020F02500203B
:1002000000000000E5B5030826100C00842600203D
:100210007826002000000000D57C01080B30180073
:10022000E01D0020BC26002000000000BE060008E3
:100230001F3024005C1C0020D42600200000000099
:10024000D8060008050204008C1F0020F8260020B4
:1002500000000000FC06000803010A00781D0020D1
:10026000FC26002000000000000700081302040024
:10027000001B002008270020000000000A070008DB
:1002800003000100E02C0020F02E00200000000000
:100290000000000010100200E42C0020F42E0020CA
:1002A000000000000E07000825102C01082D00207A
:1002B000F82E002000000000000000001A000E00D0
:1002C000782C0020243000200000000010070008D7
:1002D00019000500BC2B0020343000200000000075
:1002E0001E070008F8210600502B00203C3000209B
:1002F000000000002407000815007000642A002098
:100300004430002000000000000000002A006000CF
:10031000182C0020B4300020000000004DDC010843
:100320000312330040370020943700200000000003
:100330002A07000802000C00F0360020C837002011
:10034000000000000000000008120F00103700201D
:10035000D4370020000000008D140308F7010600C8
:1003600004370020E4370020000000005E0700088A
:100370000A020A0070360020EC370020000000005E
:1003800019B90208020203001438002010380020B6
:100390000000000000000000100201001C380020D6
:1003A0001838002000000000640700081F02100039
:1003B000303800202038002000000000B914030865
:1003C00001200800403B0020044300200000000002
:1003D000660700080C109C00943A00200C43002093
:1003E0000000000041B902080A702800203A0020ED
:1003F000A843002000000000ADD803080EA06E0145
:10040000B0380020D04300200000000075DC010857
:100410000101040088380020404500200000000051
:100420000000000000010400803800204445002046
:10043000000000006E070008020103007C38002065
:10044000484500200000000075B3020809020100C1
:10045000A84200204C450020000000007207000860
:1004600022021401584000205045002000000000E6
:10047000311A030800020500883F0020644600206E
:1004800000000000000000001B0208007C3F00206C
:100490006C46002000000000511403081E000600F6
:1004A000E83C0020744600200000000074070008AB
:1004B00037102400183F00207C4600200000000078
:1004C0007A0700080E020200D83F0020A046002054
:1004D000000000009E0700081610060044380020A7
:1004E000A446002000000000A00700082F102200F2
:1004F000E0420020AC46002000000000A6070008F3
:100500002C001000C04F0020B04F00200000000061
:1005100019F403082B002400F44F0020D04F0020D2
:1005200000000000E9F3030829207800B84E0020FD
:1005300018500020000000000000000028101000EB
:10054000A0500020905000200000000005D90308B2
:100550001C021000FC4A0020B050002000000000E7
:1005600025140308F6210C00404E0020C050002046
:1005700000000000C807000820320A001C510020BB
:1005800010510020000000008DD803081400030063
:10059000A04D00202851002000000000D4070008D2
:1005A0000D0044005C9300202C950020000000000A
:1005B0006D81000804008000E4890020709500200F
:1005C0000000000000000000F9010400D0890020B4
:1005D000F095002000000000FDFC0008130004005E
:1005E000CC890020F495002000000000D807000806
:1005F000FD012400A8890020F895002000000000DB
:1006000085FC000818202E00748900201C9600200C
:10061000000000009919030806101A00D077002086
:100620004C96002000000000B9DA0108FB0101002F
:10063000CC7700206896002000000000051A03080F
:10064000FC010900987600206C9600200000000054
:10065000151A030834001000C47500207896002095
:10066000000000008DDA0108110208009C750020CE
:100670008896002000000000DC0700081212040029
:10068000947500209096002000000000E407000808
:10069000FE0114002C64002094960020000000004D
:0406A0005D140308DA
:1006A40020030000200003010000000000010000FE
:1006B40005565252410000080000AE014A015E0195
:1006C4002C0164010200000001000A019A01001ECD
:1006D4000A00000000000000000100000005000006
:1006E4000102030000000000000000000000000000
:1006F4000000000000800700000000000401010069
:100704006C16000000000000011900057E05EA05D2
:10071400B4053200E803D0070000000028010000FF
:100724000401F401140000000000000000000000B7
:1007340000000000000000000000000000000000B5
:1007440000000000000000000000000000000000A5
:100754000000000000000000010010010000000083
:100764000000E8036400040A00019001000059003D
:1007740000000100000020003200C800D0079600ED
:10078400140032002800B004400600055000140094
:100794000F0008006400010001000000C40900000B
:1007A400190000000000000000000000000000002C
:1007B4000000000000000000000000000000000035
:1007C4000000000000000000010000000202000020
:1007D4000300000048044030000000000101010152
:0407E400FFFFFFFF15
:1007E80001000000A00F0000B80B00000102FFFF8D
:1007F800010000001177010839750108E59C01081E
:100808000000000055720108BD9901087D760108B5
:100818003999010800000000000000001572010865
:1008280081760108F97401082D9C01080000000078
:100838002D7201083D990108517601089D9801081B
:10084800000000000000000021720108FF00000005
:10085800FFFFFFFFFFFF0000CC6005080000080253
:1008680005030300D460050801000802050403001D
:10087800787005080200FE0101100300DC6005081D
:100888000300140200030000E460050804001F02CE
:1008980001000800EC60050805001F0201010800BE
:1008A8000403090412010002EF02014083045632D6
:1008B80000020102030100001201000202020040CE
:1008C800830440570002010203010000090264008A
:1008D800030100C0320904000001030000000921DF
:1008E800110100012226000705830308000A080BEE
:1008F80001020202010009040100010202010005CF
:100908002400100105240100020424020205240623
:100918000102070582030800FF09040200020A0019
:1009280000000705010240000007058102400000A1
:1009380009024300020100C032090400000102025A
:10094800010005240010010524010001042402020D
:100958000524060001070582030800FF09040100B9
:10096800020A000000070501024000000705810295
:1009780040000000FF000000D8F904080000000053
:10098800000000000000000000000000000000005F
:10099800000000000000000000000000000000004F
:1009A80000FFFF0000000000AA550501000001013A
:1009B800ACF904080000000000000000000000007E
:1009C800000000000000000000000000000000001F
:1009D8000000000000000000FF1FFF1F05010905BF
:1009E800A101A1000501093009310932093309358E
:1009F8000934094009381581257F75089508810251
:100A0800C0C0000009022200010100E03209040010
:100A1800000103010200092111010001222600073B
:100A280005830308000A0000000000000102030417
:100A38000102030406070809CD9A0108D1990108A3
:100A4800099D010891720108B5750108A172010894
:100A5800BD7201086972010859720108000000009E
:100A6800000000002D202D2D202D2D2D2D202D2D89
:100A78002D2D000000000000000000000000000014
:100A8800000000AA550B010000AA5507010000AAA2
:100A9800550902000000AA5503009F00010000004C
:100AA800C01200009026002000000000B42600209C
:100AB80000000000FFFFFFFF0000803F0000000073
:100AC80000000000000000000000803F000000005F
:100AD800000000000000000000000000000000000E
:100AE80000000000000000000000000000000000FE
:100AF8000000803F0000000000000000000000002F
:100B0800010000000000803FFFFFFFFF0000803F62
:100B180000000000000000000000000000000000CD
:100B2800843700200800000000000000743700200F
:100B3800080000008C72050898720508A472050860
:100B4800B0720508BC720508C8720508408405081B
:100B5800F43A05081C3A050824720508C06205081D
:100B68007C72050880720508847205088872050879
:100B7800D4720508D8720508DC7205085C380508C7
:100B8800E07205081900C800F40120030000040100
:100B98000000000000000002100000000700000034
:100BA8000000000000000000010203040607080915
:100BB800010000002D7903080000000084050508E5
:100BC80020700020702D7200FFFFFFFFFFFFFFFF66
:100BD8000101012D202D2D202D2D2D2D202D2D2DE8
:100BE80000000000000000000000000000000000FD
:100BF80000000000000000000000000018180508B0
:100C08000000000000000000A41805080100000012
:100C1800FA0000000100000001000000763A002000
:100C280000C80100753A002000500100743A002005
:100C3800005A0100723A002002000000D40805089A
:100C48001878050820780508C61E00200100C40988
:100C580000000000C41E00200100C40900000000BC
:100C6800C21E00200100C40900000000C01E0020B0
:100C78000100C40900000000BC1E00200100C409D6
:100C880000000000BE1E00200100C4090000000092
:100C9800BA1E00200100C40900000000B81E002090
:100CA8000100C409000000009A3800200100C800B3
:100CB8000100000098380020320030753200000032
:100CC80097380020055A05009438002000FF0100DD
:100CD8009638002001000000E80500209238002026
:100CE80002000000CC0705089338002000FF01002F
:100CF8009538002001000000E80500209138002008
:100D080002000000CC0705084C3B0020EE02CA0890
:100D1800010000004A3B002000C8010064000000F8
:100D2800493B002000C8010064000000483B002047
:100D380002000000E00805088E38002080C1803ECF
:100D4800050000008C38002080C1803E05000000AE
:100D58008638002080C1803E0500000084380020CD
:100D680080C1803E050000007F38002000FF0100A0
:100D7800783800206400F401010000007738002072
:100D880004000000EC080508763800200200000086
:100D98000009050800000000000000000C09050813
:100DA800441F00209CFF2C01000000007C42002012
:100DB800E0150C1700000000D63F002002000000DC
:100DC80044090508583B00200100FF7F010000008E
:100DD800573B00200200000050090508A1380020F8
:100DE8000300000060090508A03800200300000087
:100DF80060090508543A00200000E80301000000DB
:100E0800523A00200000E80301000000503A002098
:100E18000000E803010000004E3A00200000E8034B
:100E2800010000004C3A00200000E8030100000027
:100E38004A3A00200000E80301000000493A002077
:100E480000140100483A002003000000700905085A
:100E5800603A00200000F401010000005E3A002022
:100E68000000F401010000005C3A00200000F401D9
:100E7800010000005A3A00200000F40101000000BF
:100E8800583A00200000803E01000000563A002039
:100E98000000803E01000000893A0020196401002A
:100EA800883A00200200000080090508863A0020E0
:100EB800E803D0070A000000843A0020006401001B
:100EC8000A000000793A002000640100783A002006
:100ED80000640100803A0020006401000A0000005C
:100EE8007F3A0020006401000A0000007E3A0020DA
:100EF800006401000A000000833A00200064010039
:100F08000A000000823A0020006401000A00000084
:100F1800813A0020006401000A0000007D3A0020A8
:100F280001FF01000A0000007C3A002001FF0100D7
:100F38000A0000007B3A002001FF01000A000000BF
:100F4800AA3800200000F40101000000A8380020A1
:100F58000000F40101000000A63800200000F401A0
:100F680001000000A43800200000F4010100000086
:100F7800A23800200000F40101000000713A0020AE
:100F880000640100703A0020006401006F3A0020FC
:100F9800006401006E3A0020FF0801006D3A00204D
:100FA80001640100997E03085D7E03088C09050829
:100FB8006C3A0020006401006A3A00201400E8033B
:100FC80001000000683A0020E80330750A000000BC
:100FD800663A002000C80100653A002000C80100F8
:100FE800643A002000C80100633A00200064010050
:100FF8000A0000003E3B00200000D007010000006E
:10100800393B002000C80100383B002000C801001F
:10101800373B002000C801003C3B00200000D007FF
:1010280001000000363B002000C80100353B0020CD
:1010380000C80100343B002000C801003A3B0020F2
:101048000000D00701000000333B002000C8010069
:10105800323B002000C80100313B002000C80100DD
:1010680000000000217C0308FC0905089F380020C7
:1010780031000000980A05089E38002000C80100C9
:101088009C380020E803D007010000005652524166
:1010980043450000997B0308717B0308600B050832
:1010A8002D7B0308E17A0308B40B05086184030863
:1010B800F1850308340C050890380020010301006D
:1010C800F57F0308C97F0308280F0508817A0308FC
:1010D800397A03088C0F050831C1030800000000A5
:1010E80028100508B982030855800308C4100508AC
:1010F800377C030800000000341105080D7D030843
:10110800B97C0308981105089D7D0308617D0308D3
:1011180034120508D57E03081D7F0308B41205089C
:10112800773A0020010601007D7C0308497C03080A
:10113800B0130508D97D030895A7030820140508EE
:101148004D7F030819A8030800150508623A002016
:1011580001030100F17B0308C17B0308D4150508CE
:10116800218003080000000038160508C97A030822
:10117800B9B503089C16050800000000000000002F
:1011880000170508A17F030891A803087017050830
:101198007238002088136F1701000000743800208F
:1011A80088136F1700000000229400200000000040
:1011B8000000000020940020000000000000000053
:1011C8001E94002000000000000000001C94002075
:1011D80000000000000000001A9400200000000039
:1011E800000000001894002000000000000000002B
:1011F8004804002000000000000000004A380020D9
:1012080002000000F81805087038002088136F17CE
:1012180001000000841F002088136F1700000000E1
:10122800CD7903080000000004190508D73F002005
:101238000100000058190508861F00200100000061
:10124800641905087C1F0020020000006C190508BD
:10125800000000000000000078190508B9790308AB
:1012680000000000141A050800000000000000003B
:10127800681A05080000000000000000D81A0508D8
:10128800801F0020E0150C1700000000D6010100A7
:101298000001010100010100BDB3020800000000C7
:1012A8000000000000000000E1710108DD71010884
:1012B800D9710108CD710108C9710108D5710108FA
:1012C800D1710108F1710108E5710108697D010812
:1012D8007D7D0108557D0108417D01082D7D0108AE
:1012E80001000000006002401060024000000000A1
:1012F80000000000000B00000000000000000000DB
:101308000000000000600240286002400100000068
:1013180000000000060C00000000000000000000B3
:10132800000000000060024040600240020000002F
:1013380000000000100D0000000000000000000088
:1013480000000000006002405860024003000000F6
:1013580000000000160E0000000000000000000061
:1013680000000000006002407060024004000000BD
:1013780000000000200F0000000000000000000036
:101388000000000000600240886002400500000084
:10139800000000002610000000000000000000000F
:1013A8000000000000600240A0600240060000004B
:1013B80000000000301100000000000000000000E4
:1013C8000000000000600240B86002400700000012
:1013D80000000000362F00000000000000000000A0
:1013E8000000000000640240106402400000000099
:1013F80000000000003800000000000000000000AD
:10140800000000000064024028640240010000005F
:101418000000000006390000000000000000000085
:101428000000000000640240406402400200000026
:1014380000000000103A000000000000000000005A
:1014480000000000006402405864024003000000ED
:1014580000000000163B0000000000000000000033
:1014680000000000006402407064024004000000B4
:1014780000000000203C0000000000000000000008
:10148800000000000064024088640240050000007B
:1014980000000000264400000000000000000000DA
:1014A8000000000000640240A06402400600000042
:1014B80000000000304500000000000000000000AF
:1014C8000000000000640240B86402400700000009
:1014D8000000000036460000000000000000000088
:1014E800000000004C5F0508E06B050800000000E4
:1014F80085B30208A0860100040000000000000077
:1015080000000000000000000000000000000000D3
:1015180000000000000000000000000000000000C3
:10152800000000004C5F0508B888050800000000AE
:1015380021FB0008E8030000040000000000000090
:101548000000000000000000000000000000000093
:101558000000000000000000000000000000000083
:1015680000000000F87C0508E438050800000000C9
:10157800296102087D00000006000000000000004C
:101588000000000000000000000000000000000053
:101598000000000000000000000000000000000043
:1015A80000000000A45E0508000000000000000024
:1015B800B9290108E803000003000000000000004A
:1015C8000000000000000000000000000000000013
:1015D8000000000000000000000000000000000003
:1015E80000000000C088050800000000000000009E
:1015F800C14002081027000003000000000000009E
:1016080000000000000000000000000000000000D2
:1016180000000000000000000000000000000000C2
:1016280000000000D860050800000000E9F0030889
:1016380025CB00085F7600000500000000000000D0
:101648000000000000000000000000000000000092
:101658000000000000000000000000000000000082
:1016680000000000386105080000000000000000CC
:101678007569010810270000010000000000000043
:101688000000000000000000000000000000000052
:101698000000000000000000000000000000000042
:1016A80000000000CC8805080000000000000000D1
:1016B80025FB0008E803000005000000000000000A
:1016C8000000000000000000000000000000000012
:1016D8000000000000000000000000000000000002
:1016E80000000000D8880508000000000000000085
:1016F8009DD70208204E00000300000000000000F3
:1017080000000000000000000000000000000000D1
:1017180000000000000000000000000000000000C1
:1017280000000000E8880508000000000000000034
:1017380099D50208204E00000300000000000000B8
:101748000000000000000000000000000000000091
:101758000000000000000000000000000000000081
:1017680000000000F88805080000000000000000E4
:10177800010F0108400D03000300000000000000F5
:101788000000000000000000000000000000000051
:101798000000000000000000000000000000000041
:1017A80000000000106005080000000000000000B4
:1017B800ADC800081027000001000000000000006C
:1017C8000000000000000000000000000000000011
:1017D8000000000000000000000000000000000001
:1017E80000000000BC5E05080000000000000000CA
:1017F800ED9203081027000003000000000000001D
:1018080000000000000000000000000000000000D0
:1018180000000000000000000000000000000000C0
:1018280000000000707905080000000000000000BA
:1018380045800008A86100000100000000000000C9
:101848000000000000000000000000000000000090
:101858000000000000000000000000000000000080
:1018680000000000406105080000000000000000C2
:10187800F1810008A00F0000010000000000000036
:101888000000000000000000000000000000000050
:101898000000000000000000000000000000000040
:1018A80000000000186005080000000000000000AB
:1018B800D9AA03081A410000010000000000000036
:1018C8000000000000000000000000000000000010
:1018D8000000000000000000000000000000000000
:1018E80000000000A06105080000000000000000E2
:1018F800C579010810270000010000000000000061
:1019080000000000000000000000000000000000CF
:1019180000000000000000000000000000000000BF
:1019280000000000F46B0508000000000000000043
:1019380025CD03081A410000010000000000000046
:10194800000000000000000000000000000000008F
:10195800000000000000000000000000000000007F
:1019680000000000088905080000000000000000D1
:10197800A1810108400D03000000000000000000E4
:10198800000000000000000000000000000000004F
:10199800000000000000000000000000000000003F
:1019A8000000000010890508000000000000000089
:1019B80003800008400D0300000000000000000044
:1019C800000000000000000000000000000000000F
:1019D80000000000000000000000000000000000FF
:1019E8000000000018890508000000000000000041
:1019F80011B8030850C300000300000000000000F5
:101A080000000000000000000000000000000000CE
:101A180000000000000000000000000000000000BE
:101A280000000000248905080000000000000000F4
:101A38000DD5020840420F00000000000000000021
:101A4800000000000000000000000000000000008E
:101A5800000000000000000000000000000000007E
:101A680000000000308905080000000000000000A8
:101A7800C981000850C300000000000000000000F9
:101A8800000000000000000000000000000000004E
:101A9800000000000000000000000000000000003E
:081AA800000000000000803F77
:1080000070470C4B1B78DB0700D570470A4A136892
:10801000002BFAD04FF47A7101FB03F39842F4D3AA
:10802000064B1B781BB9064B99681B690B60002334
:1080300013607047821D00207C36002070360020BF
:1080400020310020F0B43B4C236846F2A712C31A3B
:10805000934201D8F0BC7047374B20601B6813F087
:10806000200333D1DFED357A1E461D46344A3549AB
:108070001278087812F0010238D100283DD0D4E9F6
:1080800001040A7040422A1B1BB12F492F4B0A6082
:108090001E802F4B1B780E2BDCD19FED2E7A2B4BA5
:1080A0002D4C1D8867EE877A0021FDEEE77A0B469E
:1080B00017EE906A62F30F0366F30F0165F31F4337
:1080C00060F31F41C4E90013F0BC7047234B1B78D9
:1080D00013F0020316D0224A2249138A9568B1F997
:1080E0000060A3B9DFED157A0123BFE728B90127A6
:1080F00002466060A5600F70C6E7D4E90102404205
:10810000AA1AC1E7DFED0D7A1E461D46AEE707EE5F
:10811000903A9FED106ADFED146AB8EEE77AC6EE8A
:10812000077AF4EEE67AF1EE10FA88BFF0EE667A9E
:10813000DAE700BF50140020B01E00209A99993E43
:10814000821D00203C3F002018220020FA1D002044
:10815000B41B00200000C842B81B0020A01E002055
:1081600048930020DC3C00206666663FF8B542225A
:1081700004460021023045F072F80D4F00222346DC
:10818000052104251046D65D9E700132082AD9705B
:108190001D719871597103F10803F4D101232380F3
:1081A000522384F842306423A4F84030F8BD00BF65
:1081B000E0020508024A034B1278197834F050B8EF
:1081C000ED360020EE36002038B5084D002415F8B5
:1081D000013BFF2B184605D025F090FE01462046B6
:1081E0000CF03EFA0134042CF1D138BD9875002012
:1081F000084B1B7803B170472DE9F04F064D2DED6C
:10820000028B2B685C05ABB008D42BB0BDEC028BA5
:10821000BDE8F08FBC1D0020CC890020039038F011
:108220003DFCC14B1B78012B00F06C82BF4B1B78CF
:10823000002B3DD0BE4C0399D4F83031BD4ACB1A47
:10824000934200F2AB82DFF8409399F80060002E71
:1082500000F0CC83B84A116851B3B84FD4F8443118
:10826000039EB868F31A834222D394F84031002B5E
:1082700000F07E8794F84961B14894F848C10068DD
:10828000013BDBB2013684F84031F6B2002B00F03E
:10829000F3860F4684F8496117F8011B176001EB5C
:1082A0000C0384F848310BF0F5FA039BC4F8443111
:1082B0000AF006FEA34B93F8008000F57A70B8F13F
:1082C000010F209000F0E6819F4B1B78002B00F0FF
:1082D000BE809E4F3B68002B00F0B9809C4B944CB5
:1082E000D3F80080D4F85031A8EB0303632B40F29D
:1082F000AE80DFF898A2974EDFF89492412014F0F8
:10830000E1F8BAF9023086FB0320DB17C3EBA000CB
:1083100080B214F0BBF8BAF9003086FB0320DB17FB
:10832000C3EBA00080B214F0B1F8BAF9043086FBB8
:108330000320DB17C3EBA00080B214F0A7F899F874
:10834000001038680BF0A6FA94F8546116F0010A90
:1083500000F0B486804B1B689A066AD57F4B804E2E
:108360001B789B0742F13481B37C042B8CBF4FF008
:10837000030A4FF0020A472014F0A4F8306814F002
:1083800051F8706814F04EF8B6F80CB0754B3868B8
:10839000A3FB0B3BCBF3471B59460BF07BFA99F839
:1083A0000030B0688BEA030B89F800B014F03AF89B
:1083B000B67C38684AEA8606F6B231460BF06AFAAD
:1083C00099F8003038685E40314689F800600BF05B
:1083D00061FA94F8546166BBDFF8B8A14F2014F03D
:1083E00071F8DAF8000014F01DF8DAF8040014F05F
:1083F00019F8304614F016F8012138680BF04AFAE3
:10840000564A99F800301678386806F00106314669
:1084100083F0010389F800300BF03CFA99F8003042
:1084200038685E40314689F800600BF033FA94F802
:1084300054614D4AC4F85081731CDBB2A2FB031295
:10844000D20802EB8202A3EB420384F85431DFF836
:10845000488198F80030022B00F09B83374C637BF7
:10846000032B00F0A983414B1B78002B3AD0404FDF
:108470003B68BBB32E4C0AF023FDD4F86031049066
:1084800044F61F62C31A93422CD994F86631002B2C
:1084900001F0B483013B84F8663194F86761002EE3
:1084A00001F08F82013E84F8676194F86A31002BF5
:1084B00000F08887013B84F86A3194F86E61002EE1
:1084C00000F08386013E84F86E6194F86F91B9F1F3
:1084D000000F01F0918409F1FF3984F86F91049B3A
:1084E000C4F86031234B1B78002B40F0E382224D0F
:1084F0002B78002B00F08A80204B1B78002B3FF458
:1085000084AE0B4F1E4C1F4D07F5327620680BF0E2
:10851000BDF900283FF479AE20680BF0AFF92B7855
:108520008046002B49D039E0C1220020CE22002015
:10853000501400203F0D0300382200208801002045
:1085400030220020CF220020DC2200200C2200203C
:108550005461002067666666B01E0020A01E0020E1
:10856000489300201F85EB51CDCCCCCCE4220020D9
:10857000E8220020142400209D480020EE22002044
:10858000F4220020F82200203C220020701D002050
:1085900010220020C83C0020AF4A0020013B206888
:1085A0002B700BF073F900283FF42FAE20680BF00E
:1085B00065F92B788046002BF0D1684903223046BC
:1085C00044F034FE97F8C81287F8CB82023911F0D4
:1085D000FF0100F0DA82314432464FF6FF7312F8A1
:1085E000010B1B1A91429BB2F9D11A0A1FFA88F8A3
:1085F00090458BD197F8CA22DBB29A4286D158486F
:1086000013F0A2FC2B78184428707FE7554C94F89F
:10861000AD32012B40F2218294F8AE125248534AF7
:108620004E1C194400EB8101A2FB06725048D1F8A0
:108630002C710178920802EB8202B21A84F8AE2201
:1086400029B14C494C4A0968914200F00C82B7B1FB
:108650004A4E21960DF1A808A6F1120948F8289D66
:1086600048F2A50215230399A4F8B022404684F8E5
:10867000B232B847002840F0578494F8AD32404AEF
:108680000133A2FB0312520802EB42029B1A84F848
:10869000AD3231E73B4E306800283FF415AE4FF065
:1086A00000098DF878900BF0F1F830B3364F2D4C6F
:1086B00030680BF0E3F883B27E2B00F089843A7BBC
:1086C0003168002A40F0778394F84BC1BCF1000F69
:1086D00000F0CB811B2B84F84B2140F073830846BC
:1086E0000BF0D4F8002800F06485306887F80C801F
:1086F0000BF0CCF80028DBD1002020AA1EA913F033
:10870000FBFEE1E5214B1B68002B3FF48FAD154CC0
:108710000399D4F824311E4ACB1A93427FF786ADD1
:108720001C4E94F828313768C4F824110133B80777
:1087300084F8283101F10A8617F0340F41F0D5850D
:1087400094F8287117F0070801F09185282F01F09F
:108750000787114B5E201B68984767E519170020B3
:10876000181700205014002004D30408CDCCCCCC22
:1087700053400020BC420020303700201517002055
:10878000ABAAAAAA2422002088010020C81D00202C
:1087900047E80100B01E0020801C0020D34BD448C5
:1087A0001B88D449D44F4E7A3968D44A0533A0FB8C
:1087B0000303D4F83401081A4FF47A71DB0801FB83
:1087C00006F15FFA83FC00261B0A884282F81EC06D
:1087D000D37782F814C053759670167180F0378481
:1087E000C74BC8491B68C84EC848B6F900C00768DF
:1087F000DFF85883806881FB03E6DB17C3EB661361
:1088000003F5FA739BB293761B0AD37688FB079322
:1088100088FB0098FF17C017C7EBA307C0EBA800A1
:108820000CF5EA43DFF828E3177730333F1282F87C
:10883000200000121B12B64E9EF800E0577782F817
:10884000210081FB0C874FEAEC70C0EB671082F8C7
:108850002330B04B96F812B083F81AB078300CF190
:10886000300C1EF0020F82F8240082F822C000F0C3
:108870005883D6F80080A848D6F804E0A74ADFF865
:10888000D4A280FB08794FEAE87C80FB0E70CCEB29
:10889000A95C4FEAEE77C7EBA05702FB0C8000EB18
:1088A000400002FB07E2400002EB4202049052004B
:1088B00007EB8707104607EB8707049A0697049F84
:1088C0008AFB022902464FEAA9498AFB022AFF17BE
:1088D0004FEAD8780CEB8C0C4FEAAA420CEB8C0CCC
:1088E00083F80980A9EB07080592B6F80CA0B668D2
:1088F0000796624647464FFA88F8894EBBF1050F46
:108900004FEAE07C834608EB82080498059A06FB50
:108910001707A2EB0C00079A844606FB10B081FBF8
:1089200002964FEAE2724FEADE7EC2EB6612069EC4
:10893000DFF824B283F80EE00AEBCA0ADFF81CE283
:108940004FFA8CFC0CEB860C4FEA8A0A81FB0796E7
:10895000ABFB0A9A81FB0091BEF800E0DFF80092C1
:1089600083F813E01FFA88F81FFA8CFC4FEAE777C8
:108970004FEAE07002F5FA72C7EB6617C0EB6110C0
:108980004FEA182B4FEA9A1182F310024FEA1C2A81
:10899000B9F8006083F810A083F80A8083F80BB060
:1089A00083F80FC04FEA1E2E4FEA27294FEA2028EE
:1089B000C2F3072B4FEA112C34BF4FF0320A4FF0AD
:1089C000330A1F7383F80D90587483F812805A7518
:1089D00083F816B0D97183F808C083F814E083F8DF
:1089E0001BA01E77039BC4F830312CE4DFF87481A0
:1089F000D8F800000AF04AFFC0B201280FD90228B7
:108A0000484F40F0B9833B78002B41F0C984D4F83B
:108A1000383103997A68CB1A934281F0E185424A52
:108A2000116800293FF444AC99F80030002B7FF422
:108A300014AC3E4BD8F800001B689B781E3B012B02
:108A400041F2A9843430022114F098F90122002364
:108A500089F8002084F8483127E4354A02EB830284
:108A6000D2F82C71F3E5334FF2E57D2B01F09E84B3
:108A700094F84E2122B180F02003DBB284F84EC17D
:108A8000B4F84C2194F84AC11A44BCF1060F92B2D2
:108A90006CD804EB0C0E08460CF1010CA4F84C2128
:108AA0008EF80C3084F84AC10AF0F0FE00287FF4FA
:108AB000FFAD21E6204C227832B1204B20491868C6
:108AC0000AF0B4FE002323701E4E3478002C00F010
:108AD0008080DFF89490D9F86050002D40F08882B3
:108AE000194B039A3570C3F8A82200E5541D0020E5
:108AF000CDCCCCCC5C1C0020546100200C23002089
:108B0000182200201F85EB51FA1D0020441D002073
:108B100048930020382300206BCA5F6B806967FF91
:108B200040420F008801002038220020342200201B
:108B300004D30408CD890108C0220020102400209D
:108B400080220020162400205014002067666666EC
:108B5000A01E002083DE1B43D34D6210B41E0020F4
:108B600040380020302200205C250020D3B203EBE7
:108B70001222FF2A87F80C80A4F84C2140F01B81B8
:108B800008460AF083FE9B48B7E5FF224FF6FF73C5
:108B90002CE50AF095F9984B1B68C01A40F6B833DB
:108BA000984200F21B81954E33793A2B01F00884EC
:108BB000002388F8003056E4914B18680AF05AFEFA
:108BC00000283FF450AC02220023627388F8003082
:108BD00049E48C4E3278002A40F030818A4C94F877
:108BE0002B31002B40F0CD82884A894912680968F0
:108BF00091422CD894F82021002A41F0078794F85C
:108C00002131002B41F0778694F82231002B41F07E
:108C10005B8794F82331002B41F0548794F824317A
:108C2000002B41F0558794F82531002B41F04E87F9
:108C300094F82631002B41F0838794F82731002BDC
:108C400041F07C8794F82831002B41F08787714CE4
:108C5000714ED4F8A8223178704B93FBF1F3134492
:108C6000039A9A42FFF443AC114694F8AC326C4A32
:108C7000C4F8A812D75CFB0745D5DFF8BC919FED7F
:108C8000698AB9F9023007EE903AF8EEE77A664B56
:108C9000219367EE887A0DF1A808FDEEE77AA3F13B
:108CA0003D0248F8282D17EE902A91B240F6C802EE
:108CB00023F8402C1E2203F83E2C40462DF040FDA8
:108CC000B9F9003007EE903AF8EEE77A404667EEE1
:108CD000887AFDEEE77A17EE903A99B22DF030FDE2
:108CE000B9F9043007EE903AF8EEE77A404667EEBD
:108CF000887AFDEEE77A17EE903A99B22DF020FDD2
:108D0000404614F0F1F8B80701F1B085790701F198
:108D10003E86390743D5444B444F21932AADA3F1F6
:108D20003D0245F8282D41F2C811022203F83E2CDD
:108D300023F8401C284639682DF0EAFC284679685B
:108D40002DF0E6FCBB89242101FB03F14FF0640800
:108D50002846323191FBF8F189B22DF0F1FCFB8904
:108D600003EB8303590089B228462DF0E9FC304B10
:108D7000304A1B689342A8BF134623EAE37393FB70
:108D8000F8F303F57A7189B228462DF0D9FC209BBF
:108D9000BA7C591C209128461A7014F0A5F894F852
:108DA000AC323178013393FBF1F201FB123384F8DA
:108DB000AC32FFF79CBB08460AF068FD00287FF440
:108DC00077AC99E40D2B7FF490AC0846A4F84C21C5
:108DD0000AF05CFD00287FF46BAC8DE40D4AB2F81C
:108DE000563100210133A2F8563188F80010FFF700
:108DF0003ABB00BF5C140020B44A0020744A002033
:108E0000784F0020152400201824002054610020F1
:108E10007C3B00205014002058250020A086010033
:108E20005425002058A08B41802200204893002028
:108E30001822002020A10700701D0020944D954BA2
:108E40000093A5F13F01C827CDE91E1505F8407C28
:108E5000914B924A924920A82CF03CF81E9D6B1C25
:108E60001E932C701E9B2922591C1E911A701E9B4A
:108E7000EA22591C1E911A701E9B5A1C1E9220A891
:108E80001F7041F037FF471C20A93A461E9844F056
:108E9000C2F91E9AD31901331E93D4551E9B5A1C36
:108EA0001E921C701E9B5A1C1E921C701E9B5A1CEC
:108EB0001E921C701E9B5A1C1E921C701E9B5A1CDC
:108EC0001E921C701E9B5A1C1E921C701E9B5A1CCC
:108ED0001E921C701E9B5A1C1E921C701E9B5A1CBC
:108EE0001E921C701E9B5A1C1E921C701E9B5A1CAC
:108EF0001E921C701E9B5A1C1E921C701E9B0122EF
:108F000099182AA81E911A7050F8303D5B1B2B70DF
:108F100013F0EAFF634B039A3470C3F8A822FFF7FB
:108F2000E6BA2D22DA765DE5209F4F4541F2268490
:108F3000A6F11300013F002141F2210610F8012F94
:108F400081EA022212B293B2002AACBF5B0086EA29
:108F500043039BB21A0454BF5B0086EA43039BB2EF
:108F6000190454BF5B0086EA43039BB21A0454BF42
:108F70005B0086EA43039BB2190454BF5B0086EA98
:108F800043039BB21A0454BF5B0086EA43039BB2BF
:108F9000190454BF5B0086EA43039BB21A0454BF12
:108FA0005B0086EA4303874299B2C7D140462DF061
:108FB000EDFB3D49209E3D48761A152EA8BF15268B
:108FC000324644F028F994F8AD322E70FFF757BBC3
:108FD00030688DF8789084F84A9184F84B8187F84E
:108FE0000C900AF053FC00287FF462ABFFF784BBBF
:108FF0000024DFF8C480254650270BE01C44EFF323
:10900000118387F31288D9F86020944218DADBB212
:1090100083F3118819F804A0601C514648440022CB
:1090200013F0D8F80AF101030028E7D041463A20AE
:1090300013F032F80AF1010A0543EDB25444DEE7B9
:109040000022DBB2C9F8602083F3118848E5184B91
:1090500039681B78C4F83411013B012B41F27A8244
:10906000144B1B78013B012B3FF6BAAB16210123B1
:1090700091701371FFF7B4BB0CF10103614684F8E2
:10908000496184F848310AF005FCFFF70EB900BFCA
:1090900080220020671D00200827050810270508EA
:1090A0001C270508501400200017002088480020C5
:1090B0003C310020643100201DCF0108B34B1B88D8
:1090C000D8050CD4590601F18782DA0701F18683AD
:1090D00013F0020F0CBF4FF0040A4FF00C0AAC4A19
:1090E000AC4B1678DB7806F001060BB146F00206B1
:1090F000532013F0E7F9A84B1B8803EB83035800B8
:1091000080B213F0C3F9002013F0C0F93BF0F4F87B
:10911000A24BC0EB002083FB00231A18C317C3EB3C
:109120006223FF2BA8BFFF235FFA83FB59463868F1
:109130000AF0B0FB99F8003038688BEA03034AEA7A
:109140000606002189F800300AF0A4FB3146386891
:109150000AF0A0FB99F8003038687340DBB219467A
:1091600089F800300AF096FB94F85461FFF733B9A0
:1091700013F03AFEFFF799B813F026FE01233B7077
:109180004DE4874B84F82B212AA8A3F13A028549A4
:1091900040F8282D4FF4327223F83C2C43F8401C41
:1091A000219313F0A1FE804B039AC3F8A822FFF786
:1091B0009EB930688DF8788087F80C800AF066FBDD
:1091C00000287FF475AAFFF797BA784B94F876E1F8
:1091D000B3F90220B3F90010B3F904309FED746ABB
:1091E000667607EE103A734B84F818E01B682093FC
:1091F0008EF06A0383EA031306EE901AD9B20B09C4
:1092000083F0D50343EA012383EAC1031BB283EA57
:109210000311C3F3072C5342C9B207EE903A8CEA0C
:10922000111C4CEA012CF8EEE77AF8EEE66AB8EE8B
:10923000C77A8CEAC10C0FFA8CFC67EE867A66EE70
:10924000866A27EE067A00208CF0C808CDED227AD7
:10925000CDED216A8DED237A2490259026900DF195
:10926000800988EA0818B9E80F005FFA88F8CCF39B
:10927000072C8CEA181C4CEA082C8CEAC80CDFF886
:1092800038810FFA8CF6A8E80F0086F01E0C99E8DA
:1092900007008CEA0C1C5FFA8CFCC6F3072686EAF2
:1092A0001C1646EA0C2688E807000EF1010386EA40
:1092B000CC0CC822A8F110064FF005094FF01E0E85
:1092C00041F6FE41A27684F86E9184F81BE0E182BB
:1092D00006F11C0284F87631A4F814C016F8013B9C
:1092E00083EA0C0383EA0313DBB2190981EA1C2128
:1092F00041EA032181EAC3031BB21FFA83FC9642B1
:10930000A4F814C0EAD183F0270383EA0313DBB285
:109310004FEA1C2686EA131686EA032686EAC30667
:1093200036B2B3B24FEA132AF6B2DFF89090A382B6
:1093300084F839A084F8386004F1160C04F136087A
:10934000DCF80000DCF80410DCF80820DCF80C3055
:10935000CE46AEE80F000CF1100CC445F146EFD13B
:10936000DFF85C80BCF80030AEF8003008F124096A
:1093700084F8C26184F8C3A118F8011F38680AF0A4
:1093800089FAC145F8D1FFF7A0B800BFF81D002049
:10939000821D0020841D0020541D00200308208011
:1093A00080220020C8057DEA50140020701D002096
:1093B00088C3E43A546100206C140020F0150020AA
:1093C000EF150020D94B1B681922990684F86A21F1
:1093D0007FF573A8D64BD74E1B789A0741F1F681DB
:1093E000B37C042B8CBF4FF003084FF0020809F048
:1093F00067FDF389B268209003EB83035B00ADF84F
:109400009A3002EB820233688DF89C802293B6F882
:109410000CE0B17C7368ADF898E04FF0000C52009E
:109420004FF0FF300DF18008CDF884C024922393D3
:109430008DF89D102590C146B9E80F00DFF8FCE2D9
:10944000AEE80F0099E80F00AEE807007146182259
:1094500021F81C39059194F87611E27681F07803B1
:1094600083EA0313DAB2130983F0F60343EA022313
:1094700083EAC2031BB283EA0312D2B2C3F3072307
:1094800083EA121343EA022383EAC2031BB283F086
:10949000C80282EA0212D2B2C3F3072383EA12138C
:1094A00043EA022383EAC2031BB284F819C083F0A3
:1094B000180C8CEA0C1C5FFA8CFCC3F30722481CC6
:1094C00082EA1C1242EA0C2284F876010598217681
:1094D00082EACC0CC82341F6FE620146A4F814C00F
:1094E0001E30E282A37611F8013B83EA0C0383EA83
:1094F0000313DBB21A0982EA1C2242EA032282EA3F
:10950000C3031BB21FFA83FC8142A4F814C0EAD142
:1095100083F0180383EA0313DBB24FEA1C2B8BEAB8
:10952000131B8BEA032B8BEAC30B0FFA8BFB1FFA7F
:109530008BF3814AA3825FFA8BFB1B0A0692079387
:1095400084F83B3084F83AB0924604F1160C04F1EA
:109550003609DCF80000DCF80410DCF80820DCF840
:109560000C30D646AEE80F000CF1100CCC45F2469C
:10957000EFD1DCF80000CEF80000DFF8C891079BBF
:1095800084F8C4B109F1260A84F8C531CB461BF82A
:10959000011F38680AF07EF9DA45F8D109F090FC2D
:1095A000B3683268089203EB8303726807925E0027
:1095B000824612F01BFF94F876B1089A21928BF044
:1095C0006A0181EA0111C9B20B0983F0D50343EAAC
:1095D000012383EAC1031BB283EA0311C9B2C3F3B7
:1095E000072383EA111343EA012383EAC1031BB271
:1095F000CDE92366079A229283F0C80686EA06120E
:10960000D2B2C3F30726CDF880A086EA12164FF037
:10961000000AADF89A00CDF894A0ADF898A046EAFB
:109620000226C64686EAC206BEE80F00DDF814C070
:1096300084F818B036B2ACE80F0086F0210383EA54
:1096400003139EE80700DBB2C6F3072686EA13166B
:1096500046EA032686EAC303384E84F819A0059625
:109660000BF1010B8CE807002120C82241F6FE41D6
:10967000E076A276E182304684F876B106F11C02EB
:10968000A38210F8011B594081EA0111C9B20E09E9
:1096900086EA132343EA012383EAC10109B28BB2AC
:1096A0009042A382EDD181F0680181EA0111C9B233
:1096B0001B0A83EA111B8BEA012B8BEAC10B0FFA01
:1096C0008BFB1FFA8BF34FEA132A5FFA8BFBA38203
:1096D000DFF864E084F839A004F1360384F838B088
:1096E00004F116060793F36830687168B268F446AF
:1096F000ACE80F00079B10369E42E646F3D1338854
:10970000ACF80030069B84F8C3A103F1230684F86B
:10971000C2B1CA461AF8011F38680AF0BBF85645AC
:10972000F8D1074A94F876E10EE000BFB01E0020A1
:10973000A01E002048930020F01500206C1400208B
:10974000C83C0020EF150020DFF8A4C484F818E01E
:10975000D2E9002321938EF0EB0383EA0313D9B2FD
:109760000B0983F0C50343EA012383EAC1031BB25B
:1097700083EA0311C9B2C3F3072383EA111343EA4F
:10978000012383EAC1031BB283F0C80686EA0616EA
:10979000F6B24FF0000AC3F30723CDF888A083EA9E
:1097A0001613209298E8070043EA062383EAC603CB
:1097B0000FFA83F8059B84F819A088F0310683E836
:1097C000070086EA0616F6B2C8F3072383EA1613E3
:1097D00043EA062383EAC603267F607FA17FE27FF8
:1097E0001BB25E4086EA0616F6B2C3F3072383EA8D
:1097F000161343EA062383EAC6031BB2584080EAE5
:109800000010C0B2C3F3072383EA101343EA002316
:1098100083EAC00000B2414081EA0113DBB2C0F329
:10982000072181EA131141EA032181EAC30109B248
:109830004A4082EA0212D2B2C1F3072383EA12132A
:1098400043EA022383EAC20394F8206094F82100DB
:1098500094F8221094F823201BB25E4086EA061684
:10986000F6B2C3F3072383EA161343EA062383EA17
:10987000C6031BB2584080EA0010C0B2C3F30723EE
:1098800083EA101343EA002383EAC0031BB2594062
:1098900081EA0111C9B2C3F3072383EA111343EA32
:1098A000012383EAC1031BB25A4082EA0212D2B2F8
:1098B000C3F3072383EA121343EA022383EAC203B2
:1098C00094F8246094F8250094F8261094F8272042
:1098D0001BB25E4086EA0616F6B2C3F3072383EA9C
:1098E000161343EA062383EAC6031BB2584080EAF4
:1098F0000010C0B2C3F3072383EA101343EA002326
:1099000083EAC0031BB2594081EA0111C9B2C3F313
:10991000072383EA111343EA012383EAC1031BB23D
:109920005A4082EA0212D2B2C3F3072383EA121327
:1099300043EA022383EAC2031BB283F0270686EAC6
:109940000612D2B2C3F3072686EA121646EA0226A8
:1099500086EAC20636B2B2B20EF10103F6B24FEA9F
:10996000122E4FF0310840F6FE40C82184F87631BF
:10997000A28284F81B80E08284F82860A17684F8B3
:1099800029E0DCF80000DCF80C30DCF80410DCF82E
:109990000820BCF810A00CF5C57CACE80F00069BB5
:1099A000ACF800A003F1130884F8B26184F8B3E1C5
:1099B00019F8011F386809F06DFFC845F8D1FEF7A6
:1099C0007CBD874A874B1278D3F800900A2384F82D
:1099D0006731002A00F0ED85834B012A198809912F
:1099E00041F2148359880791022A00F0148799885C
:1099F0000891032A01F09F83D9880691042A01F077
:109A00004B8319890591052A01F04283062AB3F890
:109A10000AB001F05283072AB3F80C8000D0DE8927
:109A20003AF06AFC94F876A17049CDF880908AF0FB
:109A3000300383EA0313DBB21A0982F07A02C0EB27
:109A4000002042EA032282EAC30381FB00210FFACD
:109A500083FE0144099A84F818A0C317C3EB61235D
:109A60004FF0000962F30F09FF2B089AA8BFFF23EC
:109A7000002062F30F00059A0593079B002163F312
:109A80001F4962F30F01069B002268F30F0263F384
:109A90001F4066F31F428EEA0E1C6BF31F415FFAF4
:109AA0008CFCCDE92190CEF30728CDE9231288EA7A
:109AB0001C16059B8DF895304FF0000E8DF894E044
:109AC00046EA0C260DF18008B8E80F0086EACC06BD
:109AD00036B286F0C809DFF81CC184F819E089EABB
:109AE00009195FFA89F9C6F30726ACE80F0086EA80
:109AF000191343EA092398E8030083EAC9031BB258
:109B000083F023024CF8040B82EA0210C0B2C3F3C4
:109B1000072282EA101242EA00222CF8141982EA83
:109B2000C0000AF1010A232641F2FE62C82384F82C
:109B300076A1A0820CF11601E676E282A3761CF8EB
:109B4000013B434083EA0313DBB21A0982EA102285
:109B500042EA032282EAC3031BB298B28C45A08278
:109B6000EDD183F0F40383EA0313DBB2060A86EA3D
:109B7000131686EA032686EAC306A04636B21FFA03
:109B800086F958F8160FDFF870C0A4F814904FEA61
:109B9000192EF6B284F8326084F833E0D8F8041055
:109BA000D8F80820D8F80C30ACE80F00D8F810002E
:109BB000D8F81410D8F8182004F2BD19ACE8070042
:109BC00004F29F1884F8BDE184F8BC6118F8011F05
:109BD000386809F05FFEC145F8D1FEF766BC00BFEA
:109BE000B849002054610020B81E002003082080DE
:109BF000661400206C140020F0150020794B1B68BF
:109C000003F00802002A4AF60B4048F6034149F6E1
:109C100007484BF60F4204BF8846024613F0040F74
:109C200018BF90469806704B1B7848BF48F4804890
:109C30004FF0190148BF48F02008022B84F8661144
:109C400040F2148564204FF0FF3B4FF0000A94F877
:109C500076C1CDF880808CF0F10383EA0313DBB288
:109C60001E0986F0E706C8F3090246EA0326CDE995
:109C7000218286EAC3064FF0000936B2ADF88EA005
:109C8000ADF890B08DF89E00ADF88C90CDF8929024
:109C9000CDF89690CDF89A9086EA061E0DF18008D0
:109CA000B8E80F005FFA8EFEC6F3072686EA1E1696
:109CB00046EA0E2686EACE06DFF834E184F81990EB
:109CC000AEE80F0098E80F0036B286F0C80888EAC0
:109CD00008185FFA88F8C6F30726AEE8070086EA98
:109CE000181646EA082181EAC80109B22EF8023B9B
:109CF00081F0010686EA0616F6B2C1F30722714624
:109D000082EA16121B0C01F81E3942EA06224FF0B5
:109D1000010E82EAC60641F6FE70C8220CEB0E0365
:109D2000E08284F81BE0A27601F11F0084F818C0DD
:109D3000A68284F8763111F8013B734083EA03135D
:109D4000DBB21A0982EA162242EA032282EAC3033C
:109D50001BB29EB28142A682EDD183F07C0383EADE
:109D60000313DBB2360A86EA131686EA032686EA6E
:109D7000C30636B2B3B24FEA132AF6B2DFF86C90DC
:109D8000A38284F83CA084F83B6004F1160C04F133
:109D90003608DCF80000DCF80410DCF80820DCF8F9
:109DA0000C30CE46AEE80F000CF1100CC445F14665
:109DB000EFD1DCF80000CEF80000DFF838809CF826
:109DC00004308EF8043008F1270984F8C56184F85E
:109DD000C6A118F8011F386809F05CFDC145F8D12B
:109DE000FEF75BBBB01E0020A21F0020F015002074
:109DF0006C140020EF150020854B1B6805229B0684
:109E000084F86F2140F1DF83824BDFED837A9A89FA
:109E1000D3ED028A08EE102AF8EEE88AB8EEC88A76
:109E200068EEA78A28EE278A12F0E0FA94F876A165
:109E30007A4BADF89000B3F90660794A8DED218A2E
:109E40008AF0220383EA0313D9B20B09B6F5FA6F3D
:109E500083F05903A8BF4FF4FA6643EA012383EA6B
:109E6000C103B6F57A7F1BB2B8BF4FF47A76A6F578
:109E70007A7C83EA03116420C9B2C3F3072600FB8E
:109E80000CF386EA1116A2FB03234FF0000E46EAFC
:109E90000126C3F38F130DF18008CDF880E0CDF8D3
:109EA0008CE0CDED228A86EAC106ADF89230C34639
:109EB000BBE80F0036B286F0C80C8CEA0C1C5FFAC7
:109EC0008CFCC6F30726DFF870E1DBF800B084F8FD
:109ED00018A086EA1C16AEE80F0046EA0C2686EAB1
:109EE000CC0212B282F04A0383EA03137146DBB25A
:109EF000C2F3072282EA131241F810B942EA0322A0
:109F000082EAC3030AF1010A4FF04A0E41F2FE4C05
:109F10000026C82005910A4684F876A1A382143150
:109F200084F81BE0A4F816C06676A07612F8010B40
:109F3000584080EA0010C0B2060986EA132343EABB
:109F4000002383EAC00000B283B28A42A382EDD12B
:109F500080F0140080EA0010C0B21E0A86EA1016D3
:109F600086EA002686EAC006A24636B21FFA86FCBA
:109F70005AF8160F2B4B0693F6B24FEA1C2E84F8B4
:109F8000306084F831E0DAF80410DAF80820DAF802
:109F90000C30A4F814C0DFF88CC0BAF818B0ACE8E4
:109FA0000F00DAF81000DAF81410ACE8030004F23D
:109FB0009F1AACF800B084F8BA61D34684F8BBE1CC
:109FC00004F2BB161BF8011F386809F063FC5E45FC
:109FD000F8D1154B154A1B781278013B12F001019C
:109FE000DBB214BFC0224022172B03D81048034411
:109FF00093F814910F4B1B889E071ABF42F0100272
:10A0000000230123002940F0B283032016E000BFA3
:10A01000B01E0020489300200AD7233CB81E002021
:10A02000D34D6210F0150020A04D0020821D0020AD
:10A0300004D30408F81D00206C14002094F876B1B5
:10A0400020938BF0460383EA0313D9B20B0983F004
:10A05000920343EA012383EAC1031BB283EA03119B
:10A06000C9B2C3F3072686EA111646EA012686EA34
:10A07000C10636B286F0C80C8CEA0C1C5FFA8CFC68
:10A0800000230321C6F307268DF884908DF88530D0
:10A090008DF886208DF887008DF8881086EA1C16CA
:10A0A00098E8070046EA0C2686EACC0636B2DDF8C8
:10A0B00014E0E37686EA061CAEE803005FFA8CFC47
:10A0C000C6F3072181EA1C1141EA0C2181EACC0187
:10A0D00094F81CC08EF8002009B28CEA010C8CEABE
:10A0E0000C1C5FFA8CFCC1F3072282EA1C1242EAC4
:10A0F0000C22667FA07F94F81FE0637682EACC0290
:10A1000012B2564086EA0616F6B2C2F3072181EA79
:10A11000161141EA062181EAC60109B2484080EAE7
:10A120000010C0B2C1F3072282EA101242EA0022F4
:10A1300082EAC00212B28EEA020E8EEA0E1E5FFAA8
:10A140008EFEC2F3072282EA1E1242EA0E2294F821
:10A1500020C094F8216094F8220094F8231084F829
:10A1600018B082EACE0212B28CEA020C8CEA0C1C05
:10A170005FFA8CFCC2F3072282EA1C1242EA0C222C
:10A1800082EACC0212B2564086EA0616F6B2C2F352
:10A19000072282EA161242EA062282EAC60212B2B6
:10A1A000504080EA0010C0B2C2F3072282EA1012C7
:10A1B00042EA002282EAC00212B2514081EA011151
:10A1C000C9B2C2F3072282EA111242EA012282EAEC
:10A1D000C10294F824E0D04E13B28EEA030282EA60
:10A1E0000212D2B2C3F3072383EA121343EA022313
:10A1F00083EAC2031BB283F0320282EA0212D2B2B5
:10A20000C3F3072383EA121343EA022383EAC20358
:10A210001BB29AB240F6FE10C8214FEA122CA1766A
:10A22000DBB2E0820BF1010B306884F826C084F8C1
:10A23000253084F876B1A282B2687168B6F80C90C5
:10A2400006F5C57607C6069A86F802E0A6F80090DD
:10A2500002F1100884F8B0C184F8AF311AF8011F78
:10A26000386809F017FBC245F8D1FEF738B9FF206E
:10A2700011F08CFB002800F0AD820378FF2B00F07A
:10A28000AB8290F90110022012F0CAFDFF2011F0FC
:10A290007DFB002800F08B810378FF2B00F0878185
:10A2A000B0F90C309D499E4A097E03EB830303EB12
:10A2B000830349089B0093FBF1F382FB0312D91738
:10A2C000C1EBA20109B2DFF87C82032012F0A8FDE5
:10A2D00098F80930002B40F0548233689A0600F158
:10A2E000D48194F82871FEF731BA4FF4006012F06F
:10A2F00035FE28B18B4B3020B3F9001012F090FDE1
:10A3000094F82871B9077EF41DAA4FF4806012F00A
:10A3100025FE00283EF416AA834A844BD2F800801A
:10A32000D4F824214FF064099A4298BF4FF00008F6
:10A33000102098FBF9F739B212F072FD09FB178172
:10A3400009B2212012F06CFDFEF7FAB9702012F06C
:10A3500005FE00283EF4F0A9DFF8EC812427A8F1DF
:10A360003409B8EC017AD9ED007A67EE277A3846DD
:10A37000FDEEE77A013717EE903AC3EB431103EB9A
:10A380008103D90009B2FFB212F04AFD272FE8D1AC
:10A390003768FEF7D1B9022109F068FAFEF756BB1B
:10A3A000039BC4F838313E70FEF739BB084684F889
:10A3B0004E8109F06BFA00287EF47AA9FEF79CB969
:10A3C000B17830463BF0D0F800287EF4F1AB584B22
:10A3D000186809F05BFA00287EF440A8554F564CE7
:10A3E000F378079397F80EB094F858310593042347
:10A3F0007B73BBF1000F00F02184FE7BDFF84CA1E2
:10A40000DFF84CB10136F6B206EB46090AEB8909D2
:10A41000F3B2152B31465846FB7306F1010600F2E4
:10A4200090862AF067F828B999F80830FF2B09F1CF
:10A430000C09EDD197F80F900C2303FB09F30AEBFD
:10A4400003065AF803100491084640F053FCD6F86E
:10A4500004B0C3B258461E4640F04CFC33465FFA87
:10A4600080FA5344354806960833C371069B049915
:10A47000064629F00F020AEBC30309F00F098272A6
:10A4800080F80D90B373069A04960F3042F0C3FE25
:10A49000069B049E0933184606F1060952465946A2
:10A4A000484442F0B8FEF37903F1010EBBB1013B21
:10A4B00006F1070C224E5CFA83FC4846002310F894
:10A4C000012F5A409300D10883EA420301F018019A
:10A4D000534046FA01F253408445DBB2EFD10EF807
:10A4E000093007983FF05AFDBB7B013BDEB2BE73DB
:10A4F000002E00F09584DDF81490049B0F499A78A3
:10A500000B4B186809F092F9032384F858917B7378
:10A5100088F80030FDF7A7BF66140020D077002030
:10A5200067666666FA1D0020182200203F4B4C002B
:10A53000784F002088010020501400202093002034
:10A540000007090EE01D0020DC00001004D3040801
:10A55000282200201021022391701371FEF740B9C8
:10A56000B04AB14B1768B14EA3FB07239B0BA6FB68
:10A5700003214909C1EB0111A3EB8103190209B2BF
:10A580000023172084F8283112F04AFCA84BA3FBC3
:10A5900007239B09A6FB03125209C2EB0212A3EB8D
:10A5A000820319B2182012F03BFCFEF7D2B800214A
:10A5B00089E690469346CDE90522CDE90722099226
:10A5C0001646FFF72DBA9FED9B8AF0EE488A2BE4E2
:10A5D0004FF0010AFDF7CFBE4FF0100AFEF77FBD26
:10A5E0004FF0010AD8F8000087F800A009F046F9FA
:10A5F0008346D8F8000009F041F91BF07F0F0646AA
:10A6000000F0F080802800F07E82BBF17F0F7EF4A6
:10A6100006AADFF848B29BF80030002B00F07485E2
:10A6200006F0F003E02B7EF4FAA994F84121824F62
:10A6300006F00F06002A00F04A8500227B7084F89D
:10A640004121DFF824A29AF80030002B00F0B984F1
:10A65000073E072E00F2A384DFE816F0AF04A10442
:10A660009904A104E004A104D004D404734A537AE9
:10A67000927A002B40F0CC81002A40F0218592464E
:10A6800064204FF0FF3BFFF7E2BA4FF4005012F0A6
:10A6900065FC002840F05D81694E4FF4806012F047
:10A6A0005DFC002840F01682318A94F82821B37CA2
:10A6B000B1F5967F08D902F00F02072A04D842F2BA
:10A6C0000F738B4228BF0B465E4FFA79CAB1203B0D
:10A6D00007EE903A9FED5C7AF8EEE77AF6EE006AC4
:10A6E00067EE877ABEEE007AF5EEC07AF1EE10FAE8
:10A6F00058BFB0EE667A77EE877AFDEEE77A17EE0E
:10A70000903A052019B212F08BFB4FF4805012F0F2
:10A7100025FC00283FF4E5AD4C4B1A780023900748
:10A72000CDE91E3300F10E8294F82C31012B00F09C
:10A730000982B7F90030DFED466A07EE103AB7F943
:10A74000023007EE903AB8EEC77AF8EEE77A27EED5
:10A75000267A67EEA67ABDEEC77AFDEEE77A20A8E4
:10A760008DED207ACDED217A12F072FBB9E53949F1
:10A77000C97800290CBF042005205FE40021FEF702
:10A7800015BC012012F0EAFB002840F0548198F833
:10A790000A30002B3FF4A1AD022012F0DFFB0028AD
:10A7A00040F04B83042012F0D9FB00283FF495AD14
:10A7B000B8F80C30002B40F01483274B996881F3D4
:10A7C000100109B2042012F02BFB86E54FF00108BE
:10A7D000FEF70DBE014656E5414654E54FF0080A26
:10A7E000FEF77DBC1D4B1A78002A40F091818A2E1D
:10A7F00000F078818E2E7EF412A999F80030002B9B
:10A800007DF428AD164A174B13602D2384F8403190
:10A810001168FEF709B9B046B346CDE9056608965A
:10A82000FFF7FEB85461002073B2E7458988888835
:10A83000D34D62100000000064230020E01D0020C2
:10A84000489300205C1C0020E4380E3FA01E00202E
:10A850000050C347841D0020441D002002430020F7
:10A86000382200200C23002053400020C54BC64A4C
:10A87000C649D27A219340F6C82023F8400C08201C
:10A8800003F83E0C3D3B20930B88002A40F0688182
:10A890000DF1800805330A21404693FBF1F189B29E
:10A8A0002BF04EFFDFF800930A22D9F8003093FB1B
:10A8B000F2F3404699B22BF043FF22F03BFDD9F86A
:10A8C0000890209B4FEA1942591C20911A70209B36
:10A8D0004FEA1922591C20911A70209B5A1C209271
:10A8E00083F80090209B5A1C20921870404612F06A
:10A8F000FBFAFEF70BBA0125A24B94F82A2121930B
:10A900002AAFA3F13901A3F1400647F8281DC82159
:10A91000101D03F8401C4FF4E4734EF67D21707057
:10A920007180384602FB0541B380B5712BF0E6FE1D
:10A93000209B721C9B1A7370384612F0D5FA63196B
:10A94000934A002183F82011039BC2F8A832FDF737
:10A95000CEBD904B1B789B0700F154814FF4806073
:10A9600012F0FCFA8C4E00283FF49EAE4FF0000827
:10A970004FF06409012098FBF9F739B212F050FA50
:10A9800009FB178109B2092012F04AFA8CE67D4BC7
:10A99000DFF834A22193C82223F8402C9AF8002033
:10A9A000A3F140093D3B2093D2074FF0210389F8E2
:10A9B000023040F11181794B1B885D0500F1DF8089
:10A9C000180500F11B81D90500F11681DA0700F1A5
:10A9D000C6839D0740F1BB8371490DF18008404655
:10A9E0002BF07CFE9AF80030D80740F1EF80209BD6
:10A9F0006C4A591C209100211970209B9B1A4046DB
:10AA000089F8013012F070FAFEF783B91D4673E73A
:10AA10005E4B1B8803EB83034FEA430A1FFA8AFA53
:10AA2000002A00F00883604BB3F900B022F082FCEA
:10AA300040B2FFF70CB9DFF88891544F99F8002025
:10AA4000002A40F0DD811346110189B241EA032159
:10AA5000C3F30323194309B20620A4F82A2112F0F4
:10AA6000DFF94948B4F82A113B88077A99F80020A1
:10AA70000131012F03F105034FF00A0CA4F82A114C
:10AA800093FBFCF399B200F0B081C37A01EB810132
:10AA90008FB213B10AB197FBF2F74FF0640A3A2074
:10AAA000B7FBFAF90FFA89F112F0BAF90AFB19713A
:10AAB00089B20A2305313B2091FBF3F109B212F070
:10AAC000AFF964E6032517E7022515E7052513E727
:10AAD000042511E72F4B1B789F077FF547AFD6F86A
:10AAE000088045E7314B1B6899067DF598AF99F8CA
:10AAF0000030002B7DF4AEAB2D4A2E4B13602D237E
:10AB000084F8403184E62C4B1A78002A3DF487AF54
:10AB1000D4F83C21002A08DD28480A2AB8BF0A22B6
:10AB20000021C0F89023C4F83C114FF47A6240F63B
:10AB3000B8317A600022B9601A7058E60725DBE662
:10AB40000625D9E6D6E9002301211EA884F82C1198
:10AB5000CDE91E2312F07CF9FFF7C3BB0825CBE635
:10AB6000174A0DF18008117893FBF1F140460A2352
:10AB7000053191FBF3F189B22BF0E2FD92E6114928
:10AB80002BE700BF802200205C1C0020541D002009
:10AB900050140020A01E002048930020F81D002023
:10ABA000F826050841220020441D0020B01E002088
:10ABB0003822002038230020024300208C0E002081
:10ABC000CC1D0020DC260508821D0020209B2A22A7
:10ABD000591C20911A700AE79D4B1B6883B92B689A
:10ABE0001B067FF5E8AE9B4B1B7803F00303032B9A
:10ABF0003FF4E1AE9849F0E69849EEE69849ECE674
:10AC00009849EAE6984E994BB1894FF4F36707FBF0
:10AC100001F1112091FBF3F109B212F001F9B389AE
:10AC2000642107FB03F393FBF1F393FBF1F201FBC8
:10AC3000123109B2192012F0F3F82EE58C4B8A4E2E
:10AC40001A8C93ED0F7AD3ED0E7A93ED0D5A894B52
:10AC5000049306EE102A884ADFF83C921368926843
:10AC60001D92B2681792F2891692B289DFF82CA26F
:10AC70001392B8EEC66AB27C0E92B9F90020159212
:10AC8000C7EE066ABAF8002014927C4A06937C4B01
:10AC9000B2F900200D92B3F904200C92B3F902200E
:10ACA0000B92B3F900200A9287EE867ADFF8F0E182
:10ACB000744A7168D6F800C0BEF800E012681C92B1
:10ACC0004A147148DFF8DCA1002902F48042C5EE85
:10ACD000067AB8BF49428CEAEC7342F400524FEA5C
:10ACE0006C46A3EBEC73B1FBF0FC00FB1C1142EAD9
:10ACF0000C0206F48049089192B2B3FBF0F100FB1C
:10AD00001133DFED625A0598109249EA0101089A61
:10AD100066EEA56A062600F0F00C89B2069812913C
:10AD20000CF110094FF47A7106FB02F2FDEEE66AAF
:10AD3000B2FBF1F292B20EFB00F006FB03F30F92AE
:10AD4000B3FBF1F390FBF1F29EB209920A230EF1EC
:10AD5000050E27EE257A9EFBF3F25FFA89F308933E
:10AD600016EE903ABDEEC77A1BB267EEA57A1A933B
:10AD700017EE103AFDEEE77A1BB2199317EE903AF0
:10AD80001196DDF81490424E1B921BB206F803CCCC
:10AD900018934846089B834240F2BC800C2303FB77
:10ADA00000A2431E92F808C04CEA00123270711CD7
:10ADB000142B79D8DFE813F0440142014C014A0119
:10ADC000480146016A016801660164015B015201A4
:10ADD00050014E017F0178007D017B0179017701EF
:10ADE000750122F0A7FA01B2ECE4C07A18B112B1F1
:10ADF00093FBF2F399B209B2392012F011F8C6E4CC
:10AE0000B4F82A113B8891FBF2F04FF0640C02FB7E
:10AE100010100CFB0323510082B2B3FBF1F313E6D5
:10AE20002B681C4A1B0692F800907FF566AB3046F3
:10AE300011F096FF3E74FFF760BB0F4A0A231168BA
:10AE400091FBF3F1282009B211F0EAFFAAE400BF58
:10AE5000AC1F0020A01E0020D4260508E826050807
:10AE6000E4260508CC26050848930020A0860100AA
:10AE7000A800001020930020441D0020FA1D00208F
:10AE8000701D0020182200208096980000007A444F
:10AE90002D9300202C22002040380020B41E0020DA
:10AEA000541D002004D304084FF0FF330AEB0C02BA
:10AEB00092F80821012A0DD9023AD2B202F1020E0B
:10AEC000B6440E4606F8013B76454FEA1323F9D106
:10AED00001321144BCF1090FDBB201F1010606D0C9
:10AEE0000C2202FB00A223F06003527A13430B7082
:10AEF00011F01CFF9B4BF21A059B83420AD20C23D4
:10AF000003FB00A31B7A534493F808311344102B1E
:10AF10007FF740AF934B0499DFF878E2F21A0632DC
:10AF2000D2B242F04003CB71814602F1010C8E4E49
:10AF300000215B460FE09AF80700584083004FEA73
:10AF4000D00A83EA40030AF0180A434046FA0AF09E
:10AF500043400131DBB2049800EB010AC8B28242DF
:10AF6000E9D80CF80E3007983FF018F83B7C002B1E
:10AF70007FF4C3AA7D4B1B689E067FF5BEAA11F025
:10AF8000C9FE01233B74FFF7B8BADFF80CA29AF8A8
:10AF9000003023B1764B0121186832F00BFC002001
:10AFA00040F0F0FD99F80030002B7DF453A9714A70
:10AFB000AD23176084F840312AE4032040F0E2FD1D
:10AFC000F0E76D48073E32F0D4F931F073FC97F8A2
:10AFD00001B0072EE3D801A353F826F025B00008EE
:10AFE0009FAF00088FAF00089FAF00081DB000089A
:10AFF0009FAF0008FDAF000805B00008022040F038
:10B00000C1FDCFE7042040F0BDFDCBE7B046B3461D
:10B01000CDE90566CDE90766FEF702BD012040F0E7
:10B02000B1FDBFE7032040F0ADFDBBF1010FB9D189
:10B0300031F040FCB6E74FF0FF3BF7E4069B35E705
:10B040001B9B33E70A9B31E7099B2FE71D9B2DE7ED
:10B050001C9B2BE7149B29E7139B27E7119BA4F864
:10B060005C31129BA4F85E31D4F85C311EE70F9B73
:10B07000A4F85C31109BA4F85E31D4F85C3115E77C
:10B080000E9B13E70D9B11E70C9B0FE70B9B0DE746
:10B09000B046B346FEF7C4BCB046B3460596FEF7CD
:10B0A000BFBC1A9B02E7199B00E7189BFEE6179BA3
:10B0B000FCE6169BFAE6159BF8E6B046FEF7B0BC38
:10B0C0002E4A9A46B2F900B06420FEF7C0BD7B78E4
:10B0D000012B7FF4B6AA073E84F84131072E3FF6D4
:10B0E0005EAF01A353F826F02FB100089FAF000810
:10B0F0008BAF00089FAF00081DB000089FAF00088D
:10B10000FDAF000805B0000820A840F045FD1C4830
:10B11000239A8BF800A04FF47A7341F28831C0F87B
:10B120009033BB60C4F83C217960FFF779BA032003
:10B1300040F028FD7CE7B046B346CDE90566FEF752
:10B140006FBC162B04BF0023FB73FFF773B90D4BC5
:10B150000D491A780D4B002A08BF19463DE40C49E9
:10B160003BE400BF2D9300200007090EB01E002015
:10B17000BC42002038220020FC220020441D002078
:10B180008C0E0020B03B002004270508FC26050893
:10B19000F026050826930020534000202DE9F04FAB
:10B1A0002DED028BA0F10A0385B00C46ED2B01F2C8
:10B1B0003E80DFE813F070073C083C083C083C0880
:10B1C0003C083C083C083C083C083C083C083C085F
:10B1D0003C083C083C083C083C083C083C083C084F
:10B1E0003C083C083C08A6023C083C083C08970286
:10B1F0003C083C083C088A023C081B023C083C080E
:10B200003C083C083C08F7013C08D2013C08BE0160
:10B210003C083C083C08B801B1013C089E013C08D0
:10B220003C0897013C083C083C083C083C088C0161
:10B230003C083C083C083C086D013C084E013C08B9
:10B2400038011D013C083C083C083C083C083C080F
:10B250003C089F063C0857063C08E7053C084A05A1
:10B260003C08E1063C083C083C083C081805CB04B7
:10B27000A80496078307170835050207F6063C0859
:10B280001A07FF003C083C083C083C08EE003C085C
:10B290003C08C4023C083C083C08FC02E5026B0385
:10B2A0003C083C083C083C0844032D033C080B03C5
:10B2B0007E0460043C083C083C083C083C083C0810
:10B2C0003C083C083C083C083C083C083C08180585
:10B2D0003C083C083C083C083C083C083C083C084E
:10B2E0003C083C083C083C083C082A043C083C0854
:10B2F0003C083C083C083C083C083C083C083C082E
:10B300003C083C083C083C083C083C083C083C081D
:10B310003C083C083C083C081B043C083C083C0832
:10B320003C083C083C083C083C083C083C083C08FD
:10B330003C083C083C083C083C083C083C083C08ED
:10B340003C083C083C083C083C083C083C083C08DD
:10B350003C083C083C083C083C083C083C083C08CD
:10B360003C083C083C083C083C083C083C083C08BD
:10B370003C083C083C083C083C083C083C08F903F5
:10B380003C08EE03C4033C083C083C083C083C086D
:10B390009503884952232268501C2060137011F8CD
:10B3A000013F002BF7D10123184605B0BDEC028BFD
:10B3B000BDE8F08F804800220168256802EB420357
:10B3C0005B0019446E1C097A2660297001682568A3
:10B3D00019446E1C497A26602970016825680B445F
:10B3E00001329B7A691C052A21602B70E4D1DAE7CF
:10B3F0000A68724B72490125501C20601570226842
:10B4000098785619266010702268501920601570BF
:10B4100022680978501920601170198820462BF095
:10B42000B5F92B46C0E70B6800255A1C0A601D7051
:10B430000B685A1C0A601D700B685A1C0A6029466A
:10B440001D7020462BF08AF9294620462BF086F9FC
:10B45000A9E75C4F3B78002BA5D0DFF88C81002555
:10B460004646236818F81520591C21601A70717817
:10B4700001EB810101EB810101F2EE2120462BF06D
:10B4800085F93B780135AB4206F10206E9DC8AE733
:10B490000B684D4D591C2A7921601A7023686A790E
:10B4A000591C21601A70298820462BF06FF92368F7
:10B4B000AA79591C21601A70698820462BF066F918
:10B4C0002268E979531C2360012311706CE70B6833
:10B4D00000255A1C0A60204629461D702BF03EF9B3
:10B4E0002946AEE70846082238492BF007F9012320
:10B4F0005AE70B68364A37495278581C20601A7050
:10B5000023680022581C20601A7022680979531C95
:10B5100023600123117047E70A6801215318236053
:10B520000B46117040E7084600212BF017F9012364
:10B530003AE7294D294E05F1400795F90210284BAD
:10B5400093F906208A4203F1080300F078869E42B0
:10B55000F6D10835AF42F0D125E7224B03F59675B9
:10B5600022685979501C2060117022681978501C8B
:10B570002060117022685978501C20601170226878
:10B580009978501C206011702268D978501C206076
:10B590001170226819790A33501C9D422060117085
:10B5A000DED100E70A68094BD97B531C23600123D5
:10B5B0001170F9E64CD404085C1D0020A81D002081
:10B5C000004C0020B8490020403B00207489002036
:10B5D000E42C0020443800205C930020E0930020FD
:10B5E000A0930020082D0020F44F00209B4E0B68F4
:10B5F000327A591C21601A70F18A20462BF0C6F865
:10B60000718A20462BF0C2F8B18A20462BF0BEF892
:10B610002368727B591C21601A70F18B20462BF035
:10B62000B5F8318C20462BF0B1F82368327E591CD6
:10B6300021601A702368B27E591C21601A70337F12
:10B6400003EB8303590001F57A7120462BF09EF835
:10B65000236800255A1C226029461D7020462BF0C5
:10B660007DF823687E4A591C21601D702368F17E95
:10B67000581C206019702368717E581C2060197056
:10B68000236896F82510581C20601970236896F8D6
:10B690002610581C20601970236896F82810581C32
:10B6A00020601970236896F82B10581C20601970C0
:10B6B000236896F82C10581C2060197011782268A5
:10B6C000531C2360012311706EE60A68654B501C01
:10B6D00019782060117022685978531C2360012367
:10B6E000117061E6604D084629882BF04FF8A98853
:10B6F00020462BF04BF8298920462BF047F80123F0
:10B7000052E65A4D05F17806287822F049FC236864
:10B71000027A591C21601A7023686A78591C2160CA
:10B720001A702368AA78591C21601A702368EA7875
:10B730000635591CAE4221601A70E5D133E64C4DF6
:10B7400005F16006A98820462BF020F8E9882046FC
:10B750002BF01CF8298920462BF018F82368AA7AC8
:10B76000591C21601A702368EA7A591C21601A70EA
:10B7700055F80C1B20462AF0F1FFB542E2D112E643
:10B780000A683C4B3C491878551C256010702268AB
:10B790005878551C2560107022689B78501C2060DA
:10B7A00013702046C9882AF0F1FF0123FCE5324DD1
:10B7B000084629882AF0EAFF698820462AF0E6FF31
:10B7C000A98820462AF0E2FF0123EDE52B4B1B68F8
:10B7D00013F000633FF4E8AD0B68294E591C327832
:10B7E00021601A703378002B3FF4DDAD0025E8B2FC
:10B7F00010F0CCF823684278591C21601A708189B6
:10B8000020462AF0C3FF33780135AB42EFDCCAE5AE
:10B810000A681C4B501C19782060117022685978F6
:10B82000501C2060117022689978501C20601170A3
:10B830002268D978531C236001231170B4E5124D9E
:10B840000846698A2AF0A2FFA98A20462AF09EFFAC
:10B85000E98A20462AF09AFF0123A5E57489002091
:10B86000001B0020A04D0020F0360020B84E002024
:10B87000182C0020BC2B0020782C0020CC89002024
:10B88000A0000010E83C0020D0770020A148A24A88
:10B890000379A24D012B23680CBFD17BD1795E1CAB
:10B8A0002660197023685E1C266019702368A978C9
:10B8B0005D1C2560197021680123CD1825600B706F
:10B8C00021680079CD18256008702168D079CD18DD
:10B8D000256008702168D27BC81820600A7063E573
:10B8E00001A829F0A5FB00283FF45DADBDF80410C8
:10B8F00020462AF04BFF23689DF80620591C216042
:10B900001A7023689DF80720591C21601A7023685B
:10B910009DF80820591C21601A7023689DF80920A1
:10B92000591C21601A7023689DF80A20591C216057
:10B930001A702046BDF80C102AF028FF33E5784B2A
:10B9400003F1700522681978501C2060117022687C
:10B950005978501C2060117022689978501C206022
:10B9600011702268D978501C2060117022681979F2
:10B97000501C2060117022685979501C2060117091
:10B98000226899790733501CAB4220601170D9D1DD
:10B9900009E5644D0846A9892AF0F8FE6989204620
:10B9A0002AF0F4FE0123FFE40B685F4D591C1422BA
:10B9B000216005F178061A70287822F0F1FA07461E
:10B9C000687922F0EDFA23683A7A591C21601A70DE
:10B9D00023682A79591C21601A702368027A063577
:10B9E000591CB54221601A70E6D1DCE40B684F4A5D
:10B9F000591C1278216001A81A7029F019FB2268DD
:10BA0000531C236001231070CEE40B68484F591C6F
:10BA10003A7821601A703B78002B3FF4C4ACDFF811
:10BA200028C1444D444845496346226813F8016BD8
:10BA300002F1010EC4F800E01670226815F8016BDF
:10BA400002F1010EC4F800E01670226810F8016BD4
:10BA500002F1010EC4F800E01670226811F8016BC3
:10BA600002F1010EC4F800E016703E78A3EB0C0260
:10BA70009642DADC97E4324D084629892AF086FEA0
:10BA8000698920462AF082FEA98920462AF07EFE96
:10BA9000E98A20462AF07AFE298B20462AF076FE93
:10BAA000698B20462AF072FEE98920462AF06EFE54
:10BAB00079E4234D084629882AF068FE69882046E3
:10BAC0002AF064FEA98820462AF060FEE988204614
:10BAD0002AF05CFE298A20462AF058FE698A204610
:10BAE0002AF054FEA98A20462AF050FE236895F8D1
:10BAF0002020591C21601A702268297F531C236062
:10BB00000123117050E4084610220E492AF0F6FD78
:10BB1000012349E4203A0020FC4A0020A0500020E4
:10BB2000642A0020C41F0020B84E002036470020A1
:10BB3000153D0020283D0020483D0020383D0020D4
:10BB4000183F0020584E0020183D0020B94B1B8C98
:10BB5000B3F5006F00F20284B3F5806F00F2148435
:10BB6000B3F5007FB7EE008AF6EE007A28BFB0EE9C
:10BB7000678AB14D05F10C06B5EC010A20EE080A02
:10BB800040F01CF981B220462AF000FEAE42F3D10B
:10BB9000AA4DDFF8C492DFF8C482A94F05F10C0664
:10BBA00099F80030B5EC010A012B14BF43463B461F
:10BBB000D3ED097A80EE270A40F000F981B22046E1
:10BBC0002AF0E4FDB542EBD1002120462AF0DEFD4B
:10BBD000002120462AF0DAFD204600212AF0D6FD79
:10BBE0000123FFF7E1BB002306461D46DFF8708204
:10BBF000CDE90133994602E0282D00F03E83294625
:10BC0000404628F077FCEFB201350028F4D03846E2
:10BC100022F074F9002840F00D8309F10109EBE7E7
:10BC2000884B084619882AF0B1FD874B20461988B1
:10BC30002AF0ACFD854B21681A784B1C02F00102FA
:10BC4000236001230A70FFF7AFBB002120462AF0D2
:10BC50009DFD002120462AF099FD002120462AF072
:10BC600095FD23687A4D00265A1C22601E702368B9
:10BC70002A68591C92F8462021601A7023682A68A5
:10BC8000591C92F8472021601A7023685A1C2260C0
:10BC90001E7023685A1C22601E7023685A1C226082
:10BCA0001E7023685A1C22601E702B682046198F54
:10BCB0002AF06CFD2B682046D98E2AF067FD236898
:10BCC0002A68591C92F82D2021601A7023685A1C8A
:10BCD00022601E702B682046598E2AF057FD2B6873
:10BCE0002046998E2AF052FD314620462AF04EFD1C
:10BCF00023682A68591C92F8512021601A70236821
:10BD00002A68591C92F8522021601A7023682A6808
:10BD1000591C92F8552021601A7023682A68591C12
:10BD200092F8532021601A7023682A68591C92F8EF
:10BD30005C2021601A7023682A68591C92F84F20F1
:10BD400021601A702B6893F856202368591C2160D3
:10BD50001A702B68204699892AF018FD2B68204616
:10BD6000598A2AF013FD2B682046198B2AF00EFD04
:10BD70002B68226893F83010531C23600123117044
:10BD8000FFF712BB334E0B68B279314D591C21605D
:10BD90001A702B68204659882AF0F8FC2B68204638
:10BDA00019882AF0F3FC718920462AF0EFFCB1894A
:10BDB00020462AF0EBFC2B68204699882AF0E6FC06
:10BDC0002B682046D9882AF0E1FCF18920462AF028
:10BDD000DDFC318A20462AF0D9FC23682A68591CE8
:10BDE00092F8262021601A702368B278591C2160CD
:10BDF0001A7023680022591C21601A70F1882046AD
:10BE00002AF0C4FC318920462AF0C0FC2368727DE8
:10BE1000591C21601A702368B27D591C21601A7068
:10BE20002B682046B3F84C102AF0B0FC0123FFF732
:10BE3000BBBA00BFA8000010DC000010F02E0010FC
:10BE4000BC210010B41E002040380020FF3E00201E
:10BE50005C1D0020203A0020F84A002054280010E1
:10BE6000183100200B68A74EA74A7178A74D581CBF
:10BE70002060197023681278591C21601A70236899
:10BE80002A79591C21601A702368AA78591C2160EC
:10BE90001A70298820462AF079FC298A20462AF03F
:10BEA00075FC23680022591C21601A702368EA7807
:10BEB000591C21601A7023683279591C21601A704C
:10BEC0002368F278591C21601A7023683278591C53
:10BED00021601A70718B20462AF058FC718A204626
:10BEE0002AF054FC2268317D531C23600123117019
:10BEF000FFF75ABA864B1E6800238DF80430002ED7
:10BF000000F02F8201A9304630F00CF9304630F0B5
:10BF1000A1F933689B680746002B00F04982304640
:10BF20009847064623687B4D5A1C22601F70236881
:10BF30002A78591C21601A7023686A78591C21607C
:10BF40001A702368AA78591C21601A7023689DF81A
:10BF50000420591C21601A70A98820462AF016FC7A
:10BF600023685A1C22601E702268297A531C2360A1
:10BF700001231170FFF718BA0B68674A6749907878
:10BF8000674A5D1C2560187023685279581C206030
:10BF90001A702268C978531C236001231170FFF7BF
:10BFA00003BA002120462AF0D9FB5E4B20461988AF
:10BFB0002AF0ECFB0123FFF7F7B95B4D084629880F
:10BFC0002AF0E4FB698820462AF0E0FBB5F904304A
:10BFD000564AD91782FB0323C1EBA301204689B23D
:10BFE0002AF0D4FB0123FFF7DFB9514D0B682A6813
:10BFF000591CD27821601A702B6822689979531CD9
:10C000002360002311702A6821681A440133527A90
:10C01000481C032B20600A70F5D123682A68591C3C
