:020000040800F2
:10000000F0FF012065F804082DA70308F198010806
:10001000E9F80408E9F80408E9F804080000000019
:1000200000000000000000000000000039A70308E5
:1000300035A703080000000031A70308615F01082D
:10004000E9F80408E9F80408E9F80408E9F80408FC
:10005000E9F80408E9F804087DA70108A9A801083F
:100060006DA8010831A80108F5A701086518010865
:10007000551801084518010835180108211801080C
:100080000D180108F9170108E9F80408000000003C
:10009000000000000000000000000000B9A70108F7
:1000A00095460108E9F80408E9F80408B14901088F
:1000B000F148010831480108E9F80408493101080C
:1000C0004F3101083F31010845310108E9F80408C2
:1000D000E9F804083D600108A15F01080000000084
:1000E00041A70108E9F80408B1E603080000000090
:1000F000000000000000000000000000E5170108FB
:1001000000000000E9F8040865470108E9F8040860
:1001100000000000000000000000000000000000DF
:10012000D1170108BD170108A91701089517010883
:10013000811701080000000000000000000000001E
:1001400000000000000000000000000011B80308DB
:100150006D1701085917010845170108E9F8040847
:10016000353101083B3101080000000000000000AB
:10017000000000000000000000000000000000007F
:1001800000000000E9F80408000000000000000082
:08019000E9F80408E9F804088D
:08019800FCF30400010000006B
:1001A00002020300D8140020D41400200000000034
:1001B0000000000010020100E0140020DC14002008
:1001C00000000000040700081F021000F4140020C3
:1001D000E414002000000000F78600081A023C002A
:1001E00020150020381A002000000000618F000850
:1001F000270004001C150020741A002000000000D5
:100200000607000803123300482600208426002039
:10021000000000000A07000825102C0128240020F7
:10022000B8260020000000000000000010100200AE
:1002300010240020E4270020000000003E070008F2
:100240001A000E00C0230020E82700200000000054
:10025000400700081900050004230020F8270020AB
:10026000000000004E070008F82106004021002091
:10027000002800200000000054070008150070004E
:10028000AC1B002008280020000000000000000037
:100290002A00600060230020782800200000000071
:1002A00099B501080902010054540020C4540020EB
:1002B000000000005A070008220214012452002006
:1002C000C854002000000000119000080C109C0091
:1002D000B4500020DC55002000000000E5EF0308CA
:1002E0000002050038500020785600200000000071
:1002F000000000001B02080014500020805600205F
:1003000000000000978600081E000600804D0020B7
:1003100088560020000000005C0700081B100C003D
:10032000603F00209056002000000000E98F020886
:100330002102F000E03D00209C560020000000005B
:10034000AD87020837102400B04F00208C570020E2
:1003500000000000620700080E0202008451002025
:10036000B0570020000000008607000816100600A5
:10037000483D0020B4570020000000008807000816
:100380002F102200A0540020BC57002000000000C5
:100390008E07000805100600444C0020E05700209E
:1003A00000000000B007000812201000284C0020B8
:1003B000E857002000000000B607000823100E00D8
:1003C000CC4C0020F85700200000000065ED02082A
:1003D000F5518800503D0020085800200000000022
:1003E00039C202082C0010003C7300202C7300203E
:1003F000000000008B0903082B002400707300200C
:100400004C730020000000005D09030829207800DB
:1004100034720020947300200000000000000000EF
:10042000281010001C7400200C7400200000000034
:100430004DED02081C021000846D00202C74002079
:10044000000000006D86000820320A004874002079
:100450003C74002000000000D5EC020814000300EA
:10046000447000205474002000000000C6070008FB
:10047000012008005C5B0020587400200000000090
:10048000CA0700080A702800D85A002060740020AB
:1004900000000000F5EC02080EA06E016859002073
:1004A0008874002000000000C1B5010801010400AB
:1004B000D0580020F8750020000000000000000067
:1004C00000010400C8580020FC7500200000000056
:1004D000D207000802010300C45800200076002063
:1004E0000000000065F0030826100C00F4900020C6
:1004F000E890002000000000299203080B3018004B
:100500005C8900202C91002000000000D807000822
:100510001F3024009480002044910020000000003F
:10052000F007000805020400288B002068910020D5
:10053000000000001408000803010A00BC8000202D
:100540006C9100200000000018080008130204004D
:10055000347F00207891002000000000220800086D
:10056000070202004CA2002094A20020000000001C
:1005700028080008F6210C001CA2002098A20020E8
:10058000000000002C08000802000C0010A200204F
:10059000A4A20020000000000000000006020C00E1
:1005A00004A20020B0A2002000000000F18F00088B
:1005B00008120F0088A10020BCA20020000000004B
:1005C000CB860008F701060080A10020CCA2002005
:1005D00000000000380800080A020A00DC9600202B
:1005E000D4A20020000000000DF803080300010061
:1005F000BC970020E0A200200000000000000000E6
:100600000D00440060D6002054D8002000000000F7
:10061000C15C040804008000E8CC002098D80020C9
:100620000000000000000000F901040068CC002078
:1006300018D9002000000000113501081300040043
:1006400064CC00201CD900200000000040080008F5
:10065000FD01240040CC002020D900200000000033
:100660009934010818202E000CCC002044D9002019
:1006700000000000F58E000806101A0054BA002091
:1006800074D900200000000021B60108FB01010020
:1006900090B9002090D9002000000000959100083A
:1006A000FC0109005CB8002094D900200000000083
:1006B000A59100083400100088B70020A0D90020C0
:1006C00000000000F5B501081102080060B7002025
:1006D000B0D90020000000004408000812120400F5
:1006E00058B70020B8D90020000000004C080008CE
:1006F000FE011400A0A50020BCD9002000000000CD
:04070000A3860008C4
:1007040000002003000000000000000000000000C2
:1007140000000000000000000000000000000000D5
:1007240000000000000000000000000000000000C5
:100734000000000000000000010000057E05EA053D
:10074400B4053200E803D0070000000028010000CF
:100754000401F4011400280000000100000020003E
:100764003200C800D0079600140032002800B004FC
:1007740040060005500014000F000800640001004A
:1007840001000000C409000019000000000000007E
:100794000000000000000000000000000000000055
:1007A4000000000000000000000000002000030121
:1007B400000000000001000005534B463400000C0B
:1007C400000003000000E8036400040A0001900133
:1007D40000000000AE014A015E012C016400020029
:1007E400000001000A019A01001E0A000000000036
:1007F40000010000000500000102030000000000E9
:10080400000000000000000000000000008007005D
:1008140000000000040101006C160000000000004C
:1008240001000000013C0000000000000100000085
:1008340002020000320100000000000000204030ED
:0C0844000000000001010101FFFFFFFFA8
:10085000FFFFFFFF00000401000000000000000295
:100860001000000007000000000000000000000071
:100870000102030406070809FFFF0100A00F0000A2
:10088000B80B00000102FFFF0100000090A805085E
:10089000000008020503030098A8050801000802EB
:1008A0000504030004D005080200FE010110030046
:1008B000A0A805080300140200030000A8A805086A
:1008C00004001F0201000800B0A8050805001F026F
:1008D00001010800DC280020FFFFFFFF0000803F2F
:1008E0000000000000000000000000000000803F49
:1008F00000000000000000000000000000000000F8
:1009000000000000000000000000000000000000E7
:10091000000000000000803F000000000000000018
:100920000000000001000000FFFFFFFF0000803F0B
:10093000000000000000000000000000FF000000B8
:1009400000000100FFFFFFFF0000803F0000803F2C
:100950000101FFFFFF00000001000000A1E4020808
:1009600000000000E042050820700020702D720099
:10097000FFFFFFFFD601010101000000000101019E
:10098000002D202D2D202D2D2D2D202D2D2D000045
:100990000000000000000000000000000000000057
:1009A0000000000000000000D8540508000000000E
:1009B000000000006455050801000000FA00000076
:1009C0000100000001000000010101002E5B002079
:1009D00000C801002D5B0020005001002C5B0020AE
:1009E000005A01002A5B002002000000984405081C
:1009F00064BB05086CBB05083ED800200100C40993
:100A0000000000003CD800200100C40900000000E4
:100A10003AD800200100C4090000000038D80020A6
:100A20000100C4090000000034D800200100C409FE
:100A30000000000036D800200100C40900000000BA
:100A400032D800200100C4090000000030D8002086
:100A50000100C40900000000E25800200100C800A5
:100A600001000000E0580020320030753200000024
:100A7000DF580020055A0500DC58002000FF010067
:100A8000DE58002001000000A0010020DA580020FC
:100A900002000000D03F0508DB58002000FF0100E5
:100AA000DD58002001000000A0010020D9580020DE
:100AB00002000000D03F0508685B0020EE02CA0873
:100AC00001000000665B002000C801006400000017
:100AD000655B002000C8010064000000645B00202A
:100AE00002000000A4440508D658002080C1803EC2
:100AF00005000000D458002080C1803E05000000A1
:100B0000CE58002080C1803E05000000CC58002057
:100B100080C1803E05000000C758002000FF010092
:100B2000C05800206400F40101000000BF580020FC
:100B300004000000B0440508BE5800200200000078
:100B4000C4440508575900200D000000D044050892
:100B5000545900200064010052590020320010272F
:100B60000A000000515900200D000000D044050883
:100B7000505900200D000000D04405084F590020B6
:100B80000200000008450508000000000000000009
:100B900014450508E08A00209CFF2C01000000009D
:100BA000985F0020E0150C17000000009A5F0020FD
:100BB000020000004C450508745B00200100FF7F27
:100BC00001000000735B002002000000584505088A
:100BD00059590020030000006845050858590020B5
:100BE00003000000684505080C5B00200000E803D6
:100BF000010000000A5B00200000E8030100000083
:100C0000085B00200000E80301000000065B0020F4
:100C10000000E80301000000045B00200000E8037E
:100C200001000000025B00200000E803010000005A
:100C3000015B002000140100005B002003000000A5
:100C400078450508185B00200000F4010100000051
:100C5000165B00200000F40101000000145B00207E
:100C60000000F40101000000125B00200000F4010C
:100C700001000000105B00200000803E0100000029
:100C80000E5B00200000803E01000000415B002060
:100C900019640100405B002002000000884505083F
:100CA0003E5B0020E803D0070A0000003C5B002008
:100CB000006401000A000000315B002000640100B4
:100CC000305B002000640100385B002000640100FC
:100CD0000A000000375B0020006401000A000000E9
:100CE000365B0020006401000A0000003B5B00202E
:100CF000006401000A0000003A5B0020006401006B
:100D00000A000000395B0020006401000A000000B6
:100D1000355B002001FF01000A000000345B002069
:100D200001FF01000A000000335B002001FF010009
:100D30000A000000625900200000F40101000000D8
:100D4000605900200000F401010000005E590020FD
:100D50000000F401010000005C5900200000F401D3
:100D6000010000005A5900200000F40101000000B9
:100D7000295B002000640100285B00200064010062
:100D8000275B002000640100265B0020FF080100B3
:100D9000255B00200164010069EA02082DEA0208CF
:100DA00094450508245B002000640100225B0020BC
:100DB0001400E80301000000205B0020E803307508
:100DC0000A0000001E5B002000C801001D5B00201F
:100DD00000C801001C5B002000C801001B5B002054
:100DE000006401000A000000585B00200000D007EA
:100DF00001000000535B002000C80100525B00208E
:100E000000C80100515B002000C80100565B0020B3
:100E10000000D00701000000505B002000C8010066
:100E20004F5B002000C801004E5B002000C801009D
:100E3000545B00200000D007010000004D5B002043
:100E400000C801004C5B002000C801004B5B002083
:100E500000C80100000000009DE7020804460508E4
:100E60004D59002031000000A04605084C590020D3
:100E700000C801004A590020E803D0070100000023
:100E80005350454B5452554D46343030000000000D
:100E9000FDE60208D5E602086847050891E6020863
:100EA00045E60208BC47050825E70208C50E030809
:100EB0003C480508D858002001030100C9EB02088E
:100EC0009DEB0208304B0508EDE50208ADE5020890
:100ED000944B0508B3E70208E10E0308304C0508FF
:100EE0008D0A030800000000D84C0508510C0308C7
:100EF00029EC0208744D050805E80208000000000E
:100F0000E44D0508DDE8020889E80208484E0508B6
:100F10006DE9020831E90208E44E0508A5EA020875
:100F2000EDEA0208644F05082F5B0020010601006E
:100F30004DE8020819E8020860500508A9E902080E
:100F4000A10F0308D050050821EB02082510030863
:100F5000B05105081A5B0020010301006DE702088B
:100F60003DE7020884520508F5EB02080000000086
:100F7000E85205082DE60208AD0E03084C5305089B
:100F80000000000000000000B053050875EB0208E7
:100F90009D10030830540508BA58002088136F17B5
:100FA00001000000BC58002088136F1700000000EB
:100FB0001A810020000000000000000018810020BD
:100FC000000000000000000016810020000000006A
:100FD000000000001481002000000000000000005C
:100FE000128100200000000000000000108100209D
:100FF0000000000000000000440A00200000000083
:10100000000000009058002002000000B8550508BC
:10101000B858002088136F1701000000208B0020B3
:1010200088136F170000000041E50208000000006F
:10103000C4550508E25F00200100000018560508AD
:10104000228B00200100000024560508188B002088
:10105000020000002C5605080000000000000000FF
:10106000385605082DE5020800000000D456050892
:1010700000000000000000002857050800000000E4
:1010800000000000985705081C8B0020E0150C1785
:10109000000000000403090412010002EF020140F5
:1010A0008304563200020102030100001201000213
:1010B00002020040830440570002010203010000C5
:1010C00009026400030100C03209040000010300AA
:1010D00000000921110100012226000705830308F1
:1010E000000A080B010202020100090401000102CA
:1010F000020100052400100105240100020424025D
:10110000020524060102070582030800FF09040204
:1011100000020A00000007050102400000070581E7
:101120000240000009024300020100C0320904002D
:101130000001020201000524001001052401000144
:10114000042402020524060001070582030800FFAB
:1011500009040100020A0000000705010240000026
:101160000705810240000000FF0000000C5905083F
:10117000000000000000000000000000000000006F
:10118000000000000000000000000000000000005F
:101190000000000000FFFF0000000000AA5505014C
:1011A00000000100E05805080000000000000000F9
:1011B000000000000000000000000000000000002F
:1011C000000000000000000000000000FF1FFF1FE3
:1011D00005010905A101A100050109300931093204
:1011E000093309350934094009381581257F750807
:1011F00095088102C0C0000009022200010100E040
:10120000320904000001030102000921110100015B
:101210002226000705830308000A000000000000E2
:1012200001020304010203040607080975AA030862
:1012300079A90308B9AC030811870308558A030884
:10124000218703083D870308E9860308D986030838
:1012500000000000000000002D202D2D202D2D2D40
:101260002D202D2D2D2D000000000000000000007D
:1012700000000000000000AA550B010000AA55075D
:10128000010000AA550902000000AA5503009F00B2
:1012900001000000C01200000091002000000000CA
:1012A00024910020000000000000000084A2002023
:1012B000080000000000000074A2002008000000E8
:1012C000200000000000803FCCB70508A0CE050834
:1012D000ACCE0508B8CE0508C4CE0508D0CE0508AA
:1012E000C4C80508E47E05080C7E050854CE050830
:1012F00084AA050890CE050894CE050898CE050866
:101300009CCE0508D8B70508DCCE0508E0CE050858
:10131000607C0508E4CE05081900C800F40120032C
:10132000358C0308D989030895AC03080000000038
:10133000D586030865A90308A18B0308DDA8030867
:10134000000000000000000091860308A58B030840
:1013500099890308D5AB030800000000A98603089B
:10136000E1A80308758B03083DA8030800000000EE
:10137000000000009D8603088DF4030800000000B3
:101380000000000000000000F5850308F185030857
:10139000ED850308E1850308DD850308E985030879
:1013A000E5850308698603085D860308358603081A
:1013B00049860308218603080D860308F98503087A
:1013C00001000000006002401060024000000000C8
:1013D00000000000000B0000000000000000000002
:1013E0000000000000600240286002400100000090
:1013F00000000000060C00000000000000000000DB
:101400000000000000600240406002400200000056
:1014100000000000100D00000000000000000000AF
:10142000000000000060024058600240030000001D
:1014300000000000160E0000000000000000000088
:1014400000000000006002407060024004000000E4
:1014500000000000200F000000000000000000005D
:1014600000000000006002408860024005000000AB
:101470000000000026100000000000000000000036
:101480000000000000600240A06002400600000072
:10149000000000003011000000000000000000000B
:1014A0000000000000600240B86002400700000039
:1014B00000000000362F00000000000000000000C7
:1014C00000000000006402401064024000000000C0
:1014D00000000000003800000000000000000000D4
:1014E0000000000000640240286402400100000087
:1014F00000000000063900000000000000000000AD
:10150000000000000064024040640240020000004D
:1015100000000000103A0000000000000000000081
:101520000000000000640240586402400300000014
:1015300000000000163B000000000000000000005A
:1015400000000000006402407064024004000000DB
:1015500000000000203C000000000000000000002F
:1015600000000000006402408864024005000000A2
:101570000000000026440000000000000000000001
:101580000000000000640240A06402400600000069
:1015900000000000304500000000000000000000D6
:1015A0000000000000640240B86402400700000030
:1015B00000000000364600000000000000000000AF
:1015C0000000000030A40508ECBA05080000000087
:1015D00079F00308A086010004000000000000006C
:1015E00000000000000000000000000000000000FB
:1015F00000000000000000000000000000000000EB
:101600000000000030A4050884D105080000000097
:1016100035330108E803000004000000000000006A
:1016200000000000000000000000000000000000BA
:1016300000000000000000000000000000000000AA
:1016400000000000F0C00508E47C05080000000070
:101650001D1904087D0000000600000000000000C5
:10166000000000000000000000000000000000007A
:10167000000000000000000000000000000000006A
:101680000000000088A30508000000000000000022
:10169000A9550108E8030000030000000000000055
:1016A000000000000000000000000000000000003A
:1016B000000000000000000000000000000000002A
:1016C000000000008CD105080000000000000000B0
:1016D000852302081027000003000000000000001E
:1016E00000000000000000000000000000000000FA
:1016F00000000000000000000000000000000000EA
:10170000000000009CA805080000000081050308F7
:10171000559901085F7600000500000000000000F8
:1017200000000000000000000000000000000000B9
:1017300000000000000000000000000000000000A9
:1017400000000000FCA805080000000000000000E8
:1017500085AC010810270000010000000000000017
:101760000000000000000000000000000000000079
:101770000000000000000000000000000000000069
:101780000000000098D105080000000000000000E3
:1017900039330108E80300000500000000000000E4
:1017A0000000000000000000000000000000000039
:1017B0000000000000000000000000000000000029
:1017C00000000000A4D10508000000000000000097
:1017D000B5110408204E00000300000000000000C6
:1017E00000000000000000000000000000000000F9
:1017F00000000000000000000000000000000000E9
:1018000000000000B4D10508000000000000000046
:10181000B10F0408204E000003000000000000008B
:1018200000000000000000000000000000000000B8
:1018300000000000000000000000000000000000A8
:1018400000000000C4D105080000000000000000F6
:10185000253D0108400D03000300000000000000CA
:101860000000000000000000000000000000000078
:101870000000000000000000000000000000000068
:1018800000000000F4A405080000000000000000B3
:10189000117504081027000001000000000000007E
:1018A0000000000000000000000000000000000038
:1018B0000000000000000000000000000000000028
:1018C00000000000A0A305080000000000000000C8
:1018D000499B0208102700000300000000000000E0
:1018E00000000000000000000000000000000000F8
:1018F00000000000000000000000000000000000E8
:101900000000000044BD05080000000000000000C9
:101910000D320108A8610000010000000000000075
:1019200000000000000000000000000000000000B7
:1019300000000000000000000000000000000000A7
:1019400000000000D4D105080000000000000000E5
:1019500031E20208A0860100010000000000000042
:101960000000000000000000000000000000000077
:101970000000000000000000000000000000000067
:101980000000000004A9050800000000000000009D
:101990008D610108A00F00000100000000000000A0
:1019A0000000000000000000000000000000000037
:1019B0000000000000000000000000000000000027
:1019C00000000000E0D10508000000000000000059
:1019D00031DD0208102700000100000000000000B7
:1019E00000000000000000000000000000000000F7
:1019F00000000000000000000000000000000000E7
:101A000000000000FCA40508000000000000000029
:101A100031B702081A410000010000000000000078
:101A200000000000000000000000000000000000B6
:101A300000000000000000000000000000000000A6
:101A40000000000064A9050800000000000000007C
:101A5000ED8E0308102700000100000000000000C8
:101A60000000000000000000000000000000000076
:101A70000000000000000000000000000000000066
:101A80000000000000BB050800000000000000008E
:101A90000D2003081A4100000100000000000000B2
:101AA0000000000000000000000000000000000036
:101AB0000000000000000000000000000000000026
:101AC00000000000ECD1050800000000000000004C
:101AD000E1940308400D0300000000000000000036
:101AE00000000000000000000000000000000000F6
:101AF00000000000000000000000000000000000E6
:101B000000000000F4D10508000000000000000003
:101B10007F5C0408400D030000000000000000008E
:101B200000000000000000000000000000000000B5
:101B300000000000000000000000000000000000A5
:101B400000000000FCD105080000000000000000BB
:101B500005C9020850C30000030000000000000097
:101B60000000000000000000000000000000000075
:101B70000000000000000000000000000000000065
:101B80000000000008D2050800000000000000006E
:101B9000250F040840420F00000000000000000074
:101BA0000000000000000000000000000000000035
:101BB0000000000000000000000000000000000025
:101BC0000000000014D20508000000000000000022
:101BD0005D70040850C30000000000000000000019
:101BE00000000000000000000000000000000000F5
:101BF00000000000000000000000000000000000E5
:081C0000000000000000803F1D
:1080000020B10078B0FA80F0400970470120704735
:10801000037903F01803082B05D0102B15D033BBC0
:10802000B0F80B007047134BB0F80B0093F9003019
:10803000591C06BF104B1B78DBB2C3EB031203EBDA
:10804000820300EB430080B270470C4BB0F80B008A
:1080500093F900305A1C06BF074B5B78DBB203EB89
:10806000430203EB820300EB430080B27047002021
:10807000704700BF28000020284C00202900002065
:10808000F0B5067906F06003402B09D144794FF032
:10809000FF350023012006F00706A3420BD1F0BDF7
:1080A000602B08BF45794FF001040CBF04FA05F5B9
:1080B0004FF0FF35EDE7042E0CD8DFE806F0030D96
:1080C00018242E0030B1C85CD75C784028420CBF21
:1080D000012000200133E0E70028FBD0C856D75626
:1080E000A0EB070CDCF1000040EB0C00F2E70028ED
:1080F000F0D031F8130032F81370784028420CBFEA
:1081000001200020E6E70028E4D031F9130032F91D
:108110001370C71B78427841DCE70028DAD051F8A9
:10812000230052F82370784028420CBF0120002021
:10813000D0E703685A1C0260197070472DE9F047B8
:10814000089C2578002B804689460CBF4FF0200AFA
:108150004FF0300A661C25B3002A26DD334601E0C5
:10816000024698B113F8011B501E0029F8D1971E42
:1081700060B13D46013D51464046C8476B1C002B4F
:10818000F8DC257827EAE770013045B1041B294661
:108190004046C847301916F8015B002DF7D1BDE8FD
:1081A000F087002A03DC2846F9E70020EEE7571E97
:1081B000DFE72DE9F04714461D4606464FF47A7274
:1081C00000232046294647F081F94E4BDFF84881CD
:1081D0004D4A4E4F034488FB03101844D91782FBC5
:1081E000032CC1EB601088FB002887FB03279C440D
:1081F000474AC1EBEC2CC0EB001E82FB0C29A3EB21
:108200008E0E1F44434A86F806E0C1EB27474FEA2B
:10821000EC7E08EB000ACEEBA90E82FB07824FEA48
:10822000E0780EEB4E0EC8EB6A18ACEBCE0CC8EB48
:108230000818DFF8E8E086F804C0A0EB8800707149
:108240008EFB0303F817C0EBE21240F2B55000FBBF
:108250001272C1EBE353B2F5896F4FEA83073CDA40
:1082600040F2DA239A4242DCB2F5B77FB4BF4FF056
:10827000000E4FF0010E4FEA4E09DFF8A48009EB23
:108280000E0308EBC3031FFA8EFCD88A09EB0E011C
:1082900008EBC10116310B2301E031F8020D9042C9
:1082A00018DD013BF9D1CE44012338F83E00B3700C
:1082B00007F5FA670132121ABC44F270A6F800C042
:1082C000204629464FF47A72002347F0FFF83281A6
:1082D000BDE8F0870133DBB2E9E74FF0030CE64677
:1082E00040F29650DFF838804FF00609CEE74FF0A5
:1082F000020CDFF82C80E64640F229404FF00409DA
:10830000C4E700BF80BC92C7C5B3A29107452EC287
:10831000ABAAAA2A73B06D1689888888792D0311B3
:10832000E01005080378202B024600F10100F9D087
:10833000092BF7D02D2B00F0A4802B2B03BF5378F3
:10834000B7EE000A0246B7EE000AA3F13001C8B248
:1083500009289FED577A10D8F2EE046A07EE901ABA
:10836000F8EEE77A12F8013FE7EE267AA3F1300142
:10837000C8B20928B0EE677AF0D92E2B63D003F08B
:10838000DF03452B02D020EE070A704710B4517866
:108390002D294FD02B2979D0A1F13003092B02F1DF
:1083A00001027AD80024002303EB830301EB43038B
:1083B00012F8011FA1F130000928A3F13003F3D90D
:1083C000B3F59A7F1A4628BF4FF49A72072B6CD9DF
:1083D000DFED386A1346F7EE007A083B072B67EEAD
:1083E000A67AFAD802F00702DAB1F2EE046A012A9C
:1083F00067EEA67A15D0022A67EEA67A11D0032A74
:1084000067EEA67A0DD0042A67EEA67A09D0052A6F
:1084100067EEA67A05D067EEA67A062A18BF67EE41
:10842000A67A002C3BD087EE277A5DF8044B20EE2D
:10843000070A70479178A1F13003092B02F102027B
:1084400030D80124AFE75378A3F13001C8B209282E
:1084500002F1010293D8F2EE046AF0EE665A07EEDA
:10846000901AF8EEE77A12F8013F87EEA66AA3F1B8
:108470003001C8B2092866EEA56A37EE067AEED951
:108480007DE75378BFEE000A02465EE79178A1F1DE
:108490003003092B02F1020284D9F7EE007A27EEAD
:1084A000277AC2E7F7EE007ABDE7F7EE007A9BE79E
:1084B0000000000020BCBE4C0028F0B403DA2D23DD
:1084C0000B7040420131092804464FF0010307DDDB
:1084D00003EB83035B00B0FBF3F2092AF8D883B106
:1084E0000F48A0FB0326B4FBF3F2092A02F1570C54
:1084F00002F1300709DD03FB1244F30801F801CB58
:10850000EFD100230B70F0BC704703FB1244F3085B
:1085100001F8017BE5D100230B70F0BC704700BF70
:10852000CDCCCCCC884270B44FF0010442D301FBD7
:1085300004F4B0FBF4F58D42F9D2ECB142BB092D45
:1085400004FB150005F1570605F130020EDDB4FB02
:10855000F1F403F8016B7CB1B0FBF4F5092D04FBD9
:10856000150005F1570605F13002F0DCB4FBF1F41B
:1085700003F8012B002CEFD100221A7070BC704759
:1085800003F8016BB4FBF1F4002CF5D0B0FBF4F56B
:10859000092D04FB150005F1370605F13002EFDC6B
:1085A000B4FBF1F403F8012B002CEFD100221A7078
:1085B00070BC70470546002AEAD1C0E790ED057A05
:1085C00090ED004AD0ED066AD0ED014AD0ED047A74
:1085D00090ED035AD0ED025AA4EE007AB0EE406A54
:1085E000B0EE470AB0EE667AA4EE867A67EEC07AFD
:1085F000A5EE407AE5EE867A80ED057AC0ED067A42
:108600007047D0ED057A90ED013AD0ED003AD0ED0B
:10861000064A90ED024A90ED077A90ED035A90EDEC
:10862000086AD0ED045AC0ED067AF0EE406A27EEF3
:10863000830AC0ED056AA3EEA60A80ED087AA4EECF
:10864000240AA5EE470AA5EEC60A80ED070A704780
:10865000D0ED007A90ED017A30EE670AE7EE007A0D
:10866000B0EE670AC0ED007A7047704730B42C2333
:1086700000223D2504240121C37002238571C471A9
:1086800001720270C2728273C2734370837043724C
:10869000837230BC704706224FF47A7302704360D5
:1086A000704730B43023012233254FF60174FF2187
:1086B000437000234571048281740272027002715A
:1086C00043818381C38130BC704730B415221623A7
:1086D00017252D242E21027043702F22FF23857031
:1086E00044718171C27143738373C37003710372E8
:1086F000437230BC704770B4034600F11001FF2292
:108700001A705A7002338B42FAD10E4B00224FF08E
:10871000FF3103F10C0600EB42050C469E4200F8C7
:10872000124069700CD093F9044093F9051013F8C6
:10873000032F00EB42059E4200F812406970F2D10F
:1087400070BC7047401105084FF400630384704704
:108750004FF4006303847047012380F8583070475A
:108760004FF4006303847047F0B4037C45690268EA
:108770001F2B37D9203B2021546899400C4223D02D
:1087800010249C40D160D4605168D940CE074ED4AB
:10879000EFF31183502282F31288EA6B1168C90744
:1087A00009D45468002C52D1D5E909618E4243D1D5
:1087B000012285F86020DBB283F31188037C026814
:1087C0001F2B194614D9203B0821506899400842B4
:1087D00000D0D1600421506801FA03F3184223D17C
:1087E000F0BC7047202416689C4026420FD11946E1
:1087F000082310688B40184200D09360042310684F
:1088000003FA01F10842EBD09160F0BC70471021EF
:108810009940946091601168D940CC07B8D5012186
:1088200001FA03F39360B3E7D360F0BC7047012112
:1088300001FA03F3D360ABE7AF690F44D7600ED8FA
:108840002E69711A5160AC62002185F860101168C0
:1088500041F00101DBB2116083F31188AEE7711AB8
:108860005160AE62F0E72DE9F041B24DB24C2A788A
:1088700023789A4240F01B81B04B1A78002A7CD0B2
:10888000AF4B1E78AF4B002E79D11968B3F82C711D
:108890004E628889012A40EA07008881A3F82C618A
:1088A00057D0D3F83011B3F85C724E628889022A2F
:1088B00040EA07008881A3F85C624AD0D3F86012CE
:1088C000B3F88C734E628889032A40EA07008881D6
:1088D000A3F88C633DD0D3F89013B3F8BC744E6208
:1088E0008889042A40EA07008881A3F8BC6430D054
:1088F000D3F8C014B3F8EC754E628889052A40EAB3
:1089000007008881A3F8EC6523D0D3F8F015B3F8FD
:108910001C774E628889062A40EA07008881A3F8FE
:108920001C6716D0D3F82017B3F84C784E628889AC
:10893000072A40EA07008881A3F84C6809D0D3F8D9
:108940005028B3F87C095662918901439181A3F8BC
:108950007C692A7823789A420FD07B481F469B0077
:108960003B449B00C218C3583BB9137A2BB9537AC6
:108970001BB97B1C03F003032370BDE8F0815E6824
:10898000198971603768186847F0010740F20D31A6
:108990003760A0F848108689012A46F480768681DF
:1089A000D7D0D3F83461B3F83871D3F83001776099
:1089B000376847F001073760A0F848108689022A17
:1089C00046F480768681C4D0D3F86462B3F86872C6
:1089D000D3F860027760376847F001073760A0F886
:1089E00048108689032A46F480768681B1D0D3F870
:1089F0009463B3F89873D3F890037760376847F0BF
:108A000001073760A0F848108689042A46F480766A
:108A100086819ED0D3F8C464B3F8C874D3F8C00478
:108A20007760376847F001073760A0F848108689FB
:108A3000052A46F4807686818BD0D3F8F465B3F8A6
:108A4000F875D3F8F0057760376847F001073760AD
:108A5000A0F848108689062A46F4807686813FF47D
:108A600078AFD3F82467B3F82877D3F82007776076
:108A7000376847F001073760A0F848108689072A51
:108A800046F4807686813FF464AFD3F85428B3F877
:108A90005808D3F850385060106840F0010010605A
:108AA000A3F848109A8942F480729A8151E780466F
:108AB0000DF002F927782B78BB4286461DD0BB000B
:108AC0002148DA1900EB8202167AC6B1B8F1000F1C
:108AD0003ED01E490022B1F808C00132BCF1000F9F
:108AE00018BF0026424501F58071F4D186BB134AB8
:108AF0001278002A3FF434AFC2E61348BB003B446F
:108B00009B00C118C258AEEB0202002AFFF635AF37
:108B10004A7A3AB1013AD2B24A721AB30EF57A726F
:108B2000C25000E0C250054B1A78002A7FF4A8AE6C
:108B30000FE700BFD0D50020D1D5002084C200208F
:108B400081BA002088C20020D4D5002084BA002039
:108B5000DA1992000EF51C5186181031815000224E
:108B60003272C4E74A687244C250DCE710B5027C36
:108B700001681F2A4FF020030ED94C68203A934019
:108B80001C4208D00B4A406800241470026822F08E
:108B900001020260CB6010BD0C6893401C42FAD009
:108BA000044A406800241470026822F00102026046
:108BB0008B60F0E76D3F00202DE9F041C4002318E1
:108BC0009B00B749CA585268958AADB2EFB2FE070A
:108BD0000B4461D4BE0737D5BFF35F8F1D7EEDB266
:108BE000012D00F0BB80AF4E138BBFF35F8F2318B6
:108BF00001EB83031D7E022D00F0CE80231801EBD4
:108C000083031D7E032D05D19B7E1BB17378002B42
:108C100040F01A81938896F900C043F480639380F2
:108C2000231801EB83031B7E013363450AD1B3781C
:108C300000257570002B40F08A80204401EB8000F5
:108C400000234375BDE8F081964E17F0040F96F9A6
:108C500000C04DD117F0400700F0B280178A1D6A9E
:108C6000FFB205F80C705FFA8CF56F1C93F818E0F2
:108C70007BB2DF1CBE4533709C4600F0098127188B
:108C800001EB87073F7EBB42CAD105F1020C4FFAC8
:108C90008CFC86F800C0C3E71588824E25F4006579
:108CA0002D042D0C1580158845F4806515809D7E5A
:108CB00000273770002D3DD07578002D37D0231850
:108CC00001EB830301251B7E7570022B03D11388F2
:108CD00043F400631380231801EB83039B7D43F06F
:108CE00001031382204401EB8000037EBDE8F08184
:108CF0009F7E75784FF0010E86F802E0002F5CD061
:108D0000002D78D1231801EB83035B7E002B00F04C
:108D1000A48013880CF1010C4FFA8CFC43F400730F
:108D200086F800C013801388DF05FCD478E7DB7D6C
:108D3000FF2BC4D0231801EB83039D7D05F0FE05B6
:108D40001582DB7DFF2BCDD0FF233370CAE79388DC
:108D500023F440731B041B0C93806EE79B7E514EE3
:108D6000002B3FF441AF7378002B3FF43DAF1388E5
:108D700023F480631B041B0C1380BFF35F8F138BE2
:108D80001388B57043F400731380938896F900C07C
:108D900043F48063938043E79B7E002B3FF42EAF28
:108DA0007378002B3FF42AAF138896F900C023F4A0
:108DB00080631B041B0C138016E0002DA2D0A8E7D3
:108DC0002D067FF52DAFBCF1FF3F6DD0DD6915F8A5
:108DD0000C5015820CF1010C1D7E4FFA8CF39D4254
:108DE0009C4633707FF41CAF938823F480631B048C
:108DF0001B0C938014E71F7ED3F820805FFA8CF55C
:108E0000AE44022F4FFA8EFE17882DD927F48067C3
:108E10003F043F0C1780178AFFB208F80C701788C0
:108E2000D3F820C047F400731380138ADBB20CF828
:108E30000E30938805F1020C4FFA8CFC43F48063EA
:108E400086F800C093806EE7938896F900C023F4FB
:108E500080631B041B0C9380E2E61388012543F416
:108E60008073138075705EE747F400771780178A68
:108E7000FFB208F80C70178AD3F8208005F1030CB4
:108E80004FFA8CFCFBB286F800C008F80E304AE7B7
:108E9000978827F480673F043F0C9780EFE600BF78
:108EA00098A10020B8130020DD7D15829D7E3770CB
:108EB0001DB91B7E002B7FF415AF938823F48063CC
:108EC0001B041B0C93800DE711F046BE08B5202152
:108ED00048F0C9F80346184623B10278202A03F166
:108EE0000103F8D008BD024B186823F09DBF00BFF6
:108EF000DC18002038B52E22002148F09DF80346EA
:108F000040F2DC51642040F21A4240F2022418740C
:108F10005982132019219A8240F2753240F26C7501
:108F20001C8398760E2402201977DA830A21012205
:108F3000DD8283F82C0040F6430583F82D1083F87A
:108F400022409A7383F8252083F82B201D8419462C
:108F50000248BDE838402EF0E2B800BFF07A0508BC
:108F600038B51D4B1B78044600F1250593B104224A
:108F70001A49203048F09EF828461422184948F033
:108F800099F8012384F83A30164B1B7873B984F8AA
:108F90003B3038BD28461422134948F08BF8012392
:108FA00084F83A300F4B1B78002BF0D00F4B186829
:108FB00059689A68DD68E56020606160A260DD69DB
:108FC000186959699A69A2610123E56120616161AB
:108FD00084F83B3038BD00BF8DA300205CA3002087
:108FE00044A300208EA30020FC7A050864A300207F
:108FF000002310B4012228242921047041708270BA
:109000008271C37003714371C3715DF8044B704783
:1090100038B500240546048021462846013424F052
:1090200037F8082CF8D1002185F8E210A5F8E410F3
:10903000A5F8E610A5F8E810A5F8EA10A5F8EC10D8
:10904000A5F8EE10A5F8F010A5F8F2102846BDE836
:10905000384023F0DFBF2DE9F341134D134F0023B8
:1090600005F8033F044600EB8106B44203D11048E3
:1090700002B0BDE8F0813946284647F0E5FF2146B9
:10908000684647F0FDFF4FF000082021684647F092
:10909000EAFF28B96946284647F0D6FF0434E4E7DA
:1090A00080F80080F1E700BFB81300205B77050867
:1090B000BB130020B5EEC00ADFED317AF1EE10FAF5
:1090C000CCBF30EE270A30EE670ADFED2E7A20EEB5
:1090D000270A30B5FDEEC07A87B017EE904A0546F4
:1090E00084EAE470002303A9A0EBE470CDE9003327
:1090F000029344F093FC002CACBF20232D2303A843
:109100008DF8003045F0ECFC012803A924D002289A
:109110002DD0032805BF3023684668468DF80130FE
:1091200047F092FF684645F0DBFC0338C4B22246A4
:109130006946284647F0BEFF00232B55284645F0D8
:10914000CFFC2E22431C2A540DEB0401E81847F0F3
:1091500097FF284607B030BD302368468DF80130B0
:109160008DF802308DF8033047F06EFFDAE73023D8
:1091700068468DF801308DF8023047F065FFD1E781
:109180006F12033A00007A44014B18680CF0FABFE2
:10919000E419002010B50021044601200BF038FE30
:1091A000207010BD38B500240472451EE1B20220C3
:1091B0000BF02EFE0134082C05F8010FF6D138BD56
:1091C000F8B584894FF6FF764FF47A7433B319B348
:1091D0000F78013101E0B44218D00589013CAD0798
:1091E000A4B2F8D5BCB284814FF47A7402E0BCB268
:1091F000B4420BD00589ED0704F1FF37F7D5858917
:10920000ADB20AB115700132013BDFE711F012FC7B
:10921000003018BF0120F8BDFF27DEE70120F8BDB0
:1092200008B5838940F2E93300E0A3B10289013B2C
:1092300012F0020F9BB2F8D089B2818140F2E9337B
:1092400000E043B10289013B12F0010F9BB2F8D05C
:109250008089C0B208BD11F0EDFBC0B208BD426804
:10926000AE49138823F040032DE9F04F1B041B0C7B
:109270001380138885B023F038031B048A420190C1
:109280004FEA134300F0788101F580618A420CBFF8
:10929000302138210B431380019B11881B6941F059
:1092A0004001118013B11A689B88538301200CF090
:1092B00055FD019B586840F2E933828902E0002B9A
:1092C00000F05C810289013B12F0020F9BB2F6D0E4
:1092D0006B23838140F2E93302E0002B00F04E81E2
:1092E0000289013B12F0010F9BB2F6D0838983897A
:1092F00040F2E93302E0002B00F045810289013B96
:1093000012F0020F9BB2F6D08023838140F2E93342
:1093100002E0002B00F037810289013B12F0010FBF
:109320009BB2F6D08389019B1B6913B11A689B8895
:10933000138301200CF012FD794CDFF8F081DFF887
:10934000F0A1784D784E152303939623DFF8E4C1FE
:1093500000934FF0100EDAF80430C3F30803002B2B
:1093600040F0B480EFF31183002B40F0AF80206811
:10937000AA6823689842FAD133689A42F7D8D8F895
:1093800000704FF47A7101FB07F39B1AB3FBF7F3FC
:1093900001FB00304FF47A774FF00109DAF804301E
:1093A000C3F30803002B72D1EFF31183002B6ED1AE
:1093B0002368A96822689342FAD132689142F7D8AB
:1093C000D8F8002007FB02FBABEB0101B1FBF2F187
:1093D00007FB03131B1AB3F57A7FDFD3009B013B16
:1093E0000093B8D1019B1B6913B11A689B88538302
:1093F000019B586840F2E933828902E0002B00F0BB
:1094000087800289013B12F0020F9BB2F6D0F52350
:10941000838140F2E93301E0002B79D00289013BDE
:1094200012F0010F9BB2F7D08389838940F2E933B0
:1094300001E0002B69D00289013B12F0020F9BB2C0
:10944000F7D0FF23838140F2E93301E0002B5CD0A9
:109450000289013B12F0010F9BB2F7D08389DBB286
:109460000293019B1B6913B11A689B881383029BAB
:1094700003F0FD03712B5FD0039B013B13F0FF034F
:1094800003937FF462AF184605B0BDE8F08FEFF3A9
:1094900011818EF31288D5F808B02B68DB0344BF26
:1094A000CCF80090D5F808B02368DCF80020C9B2E9
:1094B00081F31188D8F80010134407FB01F2A2EBE6
:1094C0000B02B2FBF1F207FB032383E7EFF31183F7
:1094D0008EF31288AF682A68D20303D50122CCF834
:1094E0000020AF682068DCF80090DBB283F31188BD
:1094F000D8F800104FF47A72484402FB01F3DB1BEA
:10950000B3FBF1F302FB003044E711F093FAA8E754
:1095100011F090FA019B586887E700BF00380040BF
:1095200080A5002010E000E088A5002084A5002090
:1095300000ED00E07CA50020019B14495A681388C7
:1095400023F040031B041B0C1380138823F0380303
:109550001B048A424FEA134305D001F580618A4219
:1095600001D043F0080313801388062043F0400322
:10957000138005B0BDE8F08F30218BE611F05AFA68
:10958000019B5868B3E611F055FACCE6003800406C
:109590002DE9F04F036987B0CDE90101009213B1C5
:1095A0001A689B88538301200CF0D8FB019B5868F4
:1095B00040F2E933828902E0002B00F0F482028954
:1095C000013B12F0020F9BB2F6D0BDF80830838148
:1095D00040F2E93302E0002B00F0E5820289013B12
:1095E00012F0010F9BB2F6D08389838940F2E933F0
:1095F00002E0002B00F0D4820289013B12F0020F3E
:109600009BB2F6D0BDF80030838140F2E93302E02E
:10961000002B00F0C5820289013B12F0010F9BB2C2
:10962000F6D08389019B1B6913B11A689B88138349
:1096300001200CF093FB64200CF090FB029BA24CE9
:10964000DFF89882A14FA24DDFF89492A14E43F02B
:109650008003039315230593019B1B6913B11A68BB
:109660009B8853837B68C3F30803002B40F064821C
:10967000EFF31183002B40F05F822068AA68236813
:109680009842FAD133689A42F7D8D8F800C04FF41C
:109690007A7101FB0CF39B1AB3FBFCF301FB003066
:1096A0004FF0100E4FF47A7C4FF0010A7B68C3F341
:1096B0000803002B40F09E81EFF31183002B40F054
:1096C00099812368A96822689342FAD1326891424D
:1096D000F7D8D8F800200CFB02FBABEB0101B1FB83
:1096E000F2F10CFB03139842E0D0019B586840F262
:1096F000E933828902E0002B00F041820289013BBC
:1097000012F0020F9BB2F6D0BDF80C30838140F20C
:10971000E93302E0002B00F032820289013B12F0B3
:10972000010F9BB2F6D08389838940F2E93302E0CE
:10973000002B00F0DB810289013B12F0020F9BB28B
:10974000F6D0FF23838140F2E93302E0002B00F0E2
:10975000CD810289013B12F0010F9BB2F6D08389C3
:10976000DBB20493019B1B6913B11A689B881383B6
:109770007B68C3F30803002B40F0BB81EFF3118338
:10978000002B40F0B6812068AA6823689842FAD17D
:1097900033689A42F7D8D8F800C04FF47A7101FBC9
:1097A0000CF39B1AB3FBFCF301FB00304FF0100EDF
:1097B0004FF47A7C4FF0010A7B68C3F30803002B57
:1097C00040F0F980EFF31183002B40F0F480236820
:1097D000A96822689342FAD132689142F7D8D8F842
:1097E00000200CFB02FBABEB0101B1FBF2F10CFB27
:1097F00003139842E0D0009B049A934200F0CC817E
:109800003549019B1A69CB880133CB8012B11368AB
:1098100092885A830CF050FA4FF0010A4FF0100E64
:109820004FF47A7C7B68C3F30803002B40F001817E
:10983000EFF31183002B40F0FC802368A9682268B5
:109840009342FAD132689142F7D8D8F800200CFB45
:1098500002FBABEB0101B1FBF2F10CFB03139842ED
:10986000E0D0019B586840F2E933828902E0002B86
:1098700000F08A810289013B12F0020F9BB2F6D000
:10988000BDF80830838140F2E93302E0002B00F09C
:109890007B810289013B12F0010F9BB2F6D08389D4
:1098A000838940F2E93302E0002B00F072810289E3
:1098B000013B12F0020F9BB2F6D0BDF8003083815D
:1098C00040F2E93311E000BF80A5002000ED00E088
:1098D00010E000E088A50020EC7F002084A5002097
:1098E0007CA50020002B00F054810289013B12F07E
:1098F000010F9BB2F6D08389019B1B6913B11A68D3
:109900009B8813830CF0D8F94FF0010A4FF0100E2A
:109910004FF47A7C7B68C3F30803002B40F0C780C8
:10992000EFF31183002B40F0C2802368A9682268FE
:109930009342FAD132689142F7D8D8F800200CFB54
:1099400002FBABEB0101B1FBF2F10CFB03139842FC
:10995000E0D00CF0B1F94FF0010A4FF0100E4FF4C7
:109960007A7C7B68C3F30803002B40F08180EFF31F
:109970001183002B7CD12368A96822689342FAD115
:1099800032689142F7D8D8F800200CFB02FBABEB11
:109990000101B1FBF2F10CFB03131B1A632BE0D99D
:1099A000059B013B13F0FF0305937FF455AE18466A
:1099B00007B0BDE8F08FEFF311818EF31288D5F870
:1099C00008B02B68DA0344BFC9F800A0D5F808B086
:1099D0002368D9F80020C9B281F31188D8F80010A3
:1099E00013440CFB01F2A2EB0B02B2FBF1F20CFBF5
:1099F0000323FEE6EFF311818EF31288D5F808B049
:109A00002B68DB0344BFC9F800A0D5F808B0236871
:109A1000D9F80020C9B281F31188D8F80010134496
:109A20000CFB01F2A2EB0B02B2FBF1F20CFB0323E5
:109A300059E6EFF311818EF31288D5F808B02B6840
:109A4000DB0344BFC9F800A0D5F808B02368D9F8F3
:109A50000020C9B281F31188D8F8001013440CFB20
:109A600001F2A2EB0B02B2FBF1F20CFB0323F6E6D0
:109A7000EFF311818EF31288D5F808B02B68DB0361
:109A800044BFC9F800A0D5F808B02368D9F8002071
:109A9000C9B281F31188D8F8001013440CFB01F20D
:109AA000A2EB0B02B2FBF1F20CFB032375E7EFF321
:109AB00011818EF31288D5F808B02B68DA0344BF01
:109AC000C9F800A0D5F808B02368D9F80020C9B2B9
:109AD00081F31188D8F8001013440CFB01F2A2EBBB
:109AE0000B02B2FBF1F20CFB032330E710F0A2FFF4
:109AF00038E6EFF31183102282F31288D5F808C0FC
:109B00002A68D10304D50122C9F80020D5F808C07D
:109B10002068D9F800E0DBB283F31188D8F8001090
:109B20004FF47A72704402FB01F3A3EB0C03B3FB16
:109B3000F1F302FB003039E6EFF31183102282F3D8
:109B40001288D5F808C02A68D20304D50122C9F8C2
:109B50000020D5F808C02068D9F800E0DBB283F314
:109B60001188D8F800104FF47A72704402FB01F3A8
:109B7000A3EB0C03B3FBF1F302FB003090E510F014
:109B800059FF019B5868CFE510F054FF019B5868BE
:109B900086E610F04FFFAFE6012007B0BDE8F08F7A
:109BA00010F048FF3EE510F045FF019B58681CE5AA
:109BB00038B5054640683B4A038823F040031B0440
:109BC0001B0C0380038823F038031B0490424FEAE8
:109BD000134305D002F58062904201D043F00803A0
:109BE000038003882A6943F04003038012B113689D
:109BF00092885A83838940F2E93301E0002B43D0F5
:109C00000289013B12F0020F9BB2F7D0F52383814A
:109C100040F2E93301E0002B36D00289013B12F01B
:109C2000010F9BB2F7D08389838940F2E93300E0CA
:109C30000BB30289013B12F0020F9BB2F8D0FF2355
:109C4000838140F2E93300E0ABB10289013B12F0BD
:109C5000010F9BB2F8D08489E4B22B6913B11A6862
:109C60009B881383712C19D008D9AC2C14D0AF2C3D
:109C70000ED1092038BD10F0DDFEEEE7122C0FD01A
:109C8000702C07D1052038BD10F0D4FE6868CBE7F2
:109C9000732C03D0002038BD072038BD062038BD06
:109CA000082038BD00380040F0B5076A83B006468A
:109CB00017B13B68BA885A837069DFF8A8E08389D6
:109CC000C3244FF47A734FF0060C6D464FF6FF71C4
:109CD0000EF1010E03E0013B9BB28B4220D00289C2
:109CE0009207F8D5A3B283814FF47A7302E0A3B24E
:109CF0008B4215D00289D20703F1FF34F7D5828950
:109D000092B20DB12A700135BCF1000F0BD00CF1ED
:109D1000FF3CFF24BEF1000FE1D09EF80040D7E7E2
:109D200010F088FE376A17B13B68BA881A839DF82D
:109D300005009DF801509DF802109DF803409DF824
:109D400004209DF8063041EA052143EA002342EA57
:109D500004220120A6F85810A6F85A20A6F85C3074
:109D600003B0F0BD501105082DE9F04F87B0039006
:109D700090F86900002840F02986039B93F8603032
:109D8000072B00F01A861823CDE90433039BBE4C41
:109D9000BE4EDFF80483BE4F1033184680226B217D
:109DA000029310F063FE6423DFF8F0E2B9480193F8
:109DB0004FF01009DEF80430C3F30803002B40F025
:109DC000AB84EFF31183002B40F0A68425688268F2
:109DD00023689D42FAD13B689A42F7D8D6F800C072
:109DE0004FF47A7101FB0CF39B1AB3FBFCF301FBFC
:109DF00005354FF47A7C4FF0010ADEF80430C3F3E6
:109E00000803002B40F06984EFF31183002B40F02E
:109E100064842368816822689342FAD13A68914247
:109E2000F7D832680CFB02FBABEB0101B1FBF2F19E
:109E30000CFB03135B1BB3F57A7FDED3019B013B65
:109E40000193B7D1072268210298DFF84C82904F26
:109E500010F00CFE6423DFF844E28E4801934FF0CB
:109E60001009DEF80430C3F30803002B40F0988497
:109E7000EFF31183002B40F09384256882682368F8
:109E80009D42FAD13B689A42F7D8D6F800C04FF409
:109E90007A7101FB0CF39B1AB3FBFCF301FB053554
:109EA0004FF47A7C4FF0010ADEF80430C3F3080364
:109EB000002B40F0F483EFF31183002B40F0EF838D
:109EC0002368816822689342FAD13A689142F7D8B0
:109ED00032680CFB02FBABEB0101B1FBF2F10CFBB6
:109EE00003135B1BB3F57A7FDED3019B013B019328
:109EF000B7D11A466B210298DFF89C81644F10F0AD
:109F0000B5FD6423DFF894E1624801934FF0100936
:109F1000DEF80430C3F30803002B40F01F84EFF396
:109F20001183002B40F01A842568826823689D42C3
:109F3000FAD13B689A42F7D8D6F800C04FF47A714C
:109F400001FB0CF39B1AB3FBFCF301FB05354FF44B
:109F50007A7C4FF0010ADEF80430C3F30803002BCB
:109F600040F07F83EFF31183002B40F07A83236866
:109F7000816822689342FAD13A689142F7D83268F0
:109F80000CFB02FBABEB0101B1FBF2F10CFB031389
:109F90005B1BB3F57A7FDED3019B013B0193B7D105
:109FA00001226B210298DFF8F080394F10F05EFD3E
:109FB0000F23DFF8E8E0374801934FF01009DEF88F
:109FC0000430C3F30803002B40F0D384EFF3118374
:109FD000002B40F0CE842568826823689D42FAD128
:109FE0003B689A42F7D8D6F800C04FF47A7101FB6B
:109FF0000CF39B1AB3FBFCF301FB05354FF47A7CA1
:10A000004FF0010ADEF80430C3F30803002B40F0E0
:10A010000A83EFF31183002B40F0058323688168E6
:10A0200022689342FAD13A689142F7D832680CFB21
:10A0300002FBABEB0101B1FBF2F10CFB03135B1B69
:10A04000B3F57A7FDED3019B013B0193B7D1059A2B
:10A050000298DFF844800E4F1B2110F007FD0F23FC
:10A06000DFF838E00B4801934FF01009DEF80430B8
:10A07000C3F30803002B40F05A84EFF31183002B45
:10A0800040F055840CE000BF80A5002084A500208E
:10A0900088A5002010E000E07CA5002000ED00E095
:10A0A0002568826823689D42FAD13B689A42F7D8B6
:10A0B000D6F800C04FF47A7101FB0CF39B1AB3FB86
:10A0C000FCF301FB05354FF47A7C4FF0010ADEF812
:10A0D0000430C3F30803002B40F08782EFF31183B1
:10A0E000002B40F082822368816822689342FAD173
:10A0F0003A689142F7D832680CFB02FBABEB0101E6
:10A10000B1FBF2F10CFB03135B1BB3F57A7FDED3DB
:10A11000019B013B0193A9D1049A0298DFF82083A7
:10A12000C54F1C2110F0A2FC0F23DFF818E3C34831
:10A1300001934FF01009DEF80430C3F30803002B3D
:10A1400040F0D483EFF31183002B40F0CF832568D8
:10A15000826823689D42FAD13B689A42F7D8D6F8C4
:10A1600000C04FF47A7101FB0CF39B1AB3FBFCF3B4
:10A1700001FB05354FF47A7C4FF0010ADEF804301C
:10A18000C3F30803002B40F01282EFF31183002B7E
:10A1900040F00D822368816822689342FAD13A68C0
:10A1A0009142F7D832680CFB02FBABEB0101B1FB2B
:10A1B000F2F10CFB03135B1BB3F57A7FDED3019B3B
:10A1C000013B0193B7D1039A92F86330032B00F25D
:10A1D000F28392F86620012A0BD0022A40F0EB832A
:10A1E000039B93F86B3003F0FB03022B0CBF0022A0
:10A1F00007221A210298DFF848828F4F10F036FCB0
:10A200000F23DFF840E28D4801934FF01009DEF88C
:10A210000430C3F30803002B40F02683EFF31183CF
:10A22000002B40F021832568826823689D42FAD183
:10A230003B689A42F7D8D6F800C04FF47A7101FB18
:10A240000CF39B1AB3FBFCF301FB05354FF47A7C4E
:10A250004FF0010ADEF80430C3F30803002B40F08E
:10A260008881EFF31183002B40F08381236881689C
:10A2700022689342FAD13A689142F7D832680CFBCF
:10A2800002FBABEB0101B1FBF2F10CFB03135B1B17
:10A29000B3F57A7FDED3019B013B0193B7D1039BDA
:10A2A000029893F86820DFF89881634F192110F025
:10A2B000DDFB6423DFF88CE1604801934FF0100967
:10A2C000DEF80430C3F30803002B40F0EE82EFF316
:10A2D0001183002B40F0E9822568826823689D4243
:10A2E000FAD13B689A42F7D8D6F800C04FF47A7199
:10A2F00001FB0CF39B1AB3FBFCF301FB05354FF498
:10A300007A7C4FF0010ADEF80430C3F30803002B17
:10A3100040F01181EFF31183002B40F00C81236892
:10A32000816822689342FAD13A689142F7D832683C
:10A330000CFB02FBABEB0101B1FBF2F10CFB0313D5
:10A340005B1BB3F57A7FDED3019B013B0193B7D151
:10A35000102237210298DFF8E880374F10F086FB93
:10A360000F23DFF8E0E0354801934FF01009DEF8E5
:10A370000430C3F30803002B40F05582EFF3118340
:10A38000002B40F050822568826823689D42FAD1F4
:10A390003B689A42F7D8D6F800C04FF47A7101FBB7
:10A3A0000CF39B1AB3FBFCF301FB05354FF47A7CED
:10A3B0004FF0010ADEF80430C3F30803002B40F02D
:10A3C0009C80EFF31183002B40F097802368816815
:10A3D00022689342FAD13A689142F7D832680CFB6E
:10A3E00002FBABEB0101B1FBF2F10CFB03135B1BB6
:10A3F000B3F57A7FDED3019B013B0193B7D102987D
:10A40000DFF83C800C4F0122382110F02FFB0F2386
:10A41000DFF830E0094801934FF01009DEF804300E
:10A42000C3F30803002B40F0DD81EFF31183002B11
:10A4300040F0D88108E000BF88A5002010E000E0CF
:10A440007CA5002000ED00E02568826823689D421D
:10A45000FAD13B689A42F7D8D6F800C04FF47A7127
:10A4600001FB0CF39B1AB3FBFCF301FB05354FF426
:10A470007A7C4FF0010ADEF80430C3F30803F3B925
:10A48000EFF31183DBB92368816822689342FAD124
:10A490003A689142F7D832680CFB02FBABEB010142
:10A4A000B1FBF2F10CFB03135B1BB3F57A7FE2D334
:10A4B000019B013B0193B1D107B0BDE8F08FEFF3F1
:10A4C000118189F31288D0F808B00368DB0344BF18
:10A4D000C8F800A0D0F808B02368D8F80020C9B2A6
:10A4E00081F31188316813440CFB01F2A2EB0B02DB
:10A4F000B2FBF1F20CFB0323D6E7EFF3118189F3F2
:10A500001288D0F808B00368DB0344BFC8F800A085
:10A51000D0F808B02368D8F80020C9B281F31188B8
:10A52000316813440CFB01F2A2EB0B02B2FBF1F217
:10A530000CFB03235BE7EFF3118189F31288D0F85A
:10A5400008B00368DB0344BFC8F800A0D0F808B027
:10A550002368D8F80020C9B281F311883168134408
:10A560000CFB01F2A2EB0B02B2FBF1F20CFB03239A
:10A57000E6E6EFF3118189F31288D0F808B003689A
:10A58000DB0344BFC8F800A0D0F808B02368D8F8AF
:10A590000020C9B281F31188316813440CFB01F229
:10A5A000A2EB0B02B2FBF1F20CFB03236FE6EFF31D
:10A5B000118189F31288D0F808B00368DB0344BF27
:10A5C000C8F800A0D0F808B02368D8F80020C9B2B5
:10A5D00081F31188316813440CFB01F2A2EB0B02EA
:10A5E000B2FBF1F20CFB0323E5E5EFF3118189F3F4
:10A5F0001288D0F808B00368DB0344BFC8F800A095
:10A60000D0F808B02368D8F80020C9B281F31188C7
:10A61000316813440CFB01F2A2EB0B02B2FBF1F226
:10A620000CFB032370E5EFF3118189F31288D0F856
:10A6300008B00368DB0344BFC8F800A0D0F808B036
:10A640002368D8F80020C9B281F311883168134417
:10A650000CFB01F2A2EB0B02B2FBF1F20CFB0323A9
:10A66000EDE4EFF3118189F31288D0F808B00368A4
:10A67000DB0344BFC8F800A0D0F808B02368D8F8BE
:10A680000020C9B281F31188316813440CFB01F238
:10A69000A2EB0B02B2FBF1F20CFB032378E4EFF325
:10A6A000118189F31288D0F808B00368DB0344BF36
:10A6B000C8F800A0D0F808B02368D8F80020C9B2C4
:10A6C00081F31188316813440CFB01F2A2EB0B02F9
:10A6D000B2FBF1F20CFB032303E4EFF3118189F3E6
:10A6E0001288D0F808B00368DB0344BFC8F800A0A4
:10A6F000D0F808B02368D8F80020C9B281F31188D7
:10A70000316813440CFB01F2A2EB0B02B2FBF1F235
:10A710000CFB0323FFF78EBBEFF3118389F3128841
:10A72000D0F808C00268D20304D50122C8F800207E
:10A73000D0F808C02568D8F800A0DBB283F31188F0
:10A7400031684FF47A72554402FB01F3A3EB0C031A
:10A75000B3FBF1F302FB0535FFF74BBBEFF31183BE
:10A7600089F31288D0F808C00268D20304D5012208
:10A77000C8F80020D0F808C02568D8F800A0DBB2DF
:10A7800083F3118831684FF47A72554402FB01F368
:10A79000A3EB0C03B3FBF1F302FB0535FFF7D7BBCB
:10A7A000EFF3118389F31288D0F808C00268D2034E
:10A7B00004D50122C8F80020D0F808C02568D8F8D0
:10A7C00000A0DBB283F3118831684FF47A725544EC
:10A7D00002FB01F3A3EB0C03B3FBF1F302FB053522
:10A7E000FFF75EBBEFF3118389F31288D0F808C03E
:10A7F0000268D20304D50122C8F80020D0F808C0AE
:10A800002568D8F800A0DBB283F3118831684FF4D3
:10A810007A72554402FB01F3A3EB0C03B3FBF1F393
:10A8200002FB053523E6EFF3118389F31288D0F894
:10A8300008C00268D20304D50122C8F80020D0F86D
:10A8400008C02568D8F800A0DBB283F3118831680E
:10A850004FF47A72554402FB01F3A3EB0C03B3FBF4
:10A86000F1F302FB0535A1E5EFF3118389F31288BB
:10A87000D0F808C00268D20304D50122C8F800202D
:10A88000D0F808C02568D8F800A0DBB283F311889F
:10A8900031684FF47A72554402FB01F3A3EB0C03C9
:10A8A000B3FBF1F302FB0535D0E4EFF3118389F339
:10A8B0001288D0F808C00268D20304D50122C8F873
:10A8C0000020D0F808C02568D8F800A0DBB283F3D8
:10A8D000118831684FF47A72554402FB01F3A3EBFF
:10A8E0000C03B3FBF1F302FB053508E5EFF311832D
:10A8F00089F31288D0F808C00268D20304D5012277
:10A90000C8F80020D0F808C02568D8F800A0DBB24D
:10A9100083F3118831684FF47A72554402FB01F3D6
:10A92000A3EB0C03B3FBF1F302FB053522E4EFF3D9
:10A93000118389F31288D0F808C00268D20304D5C5
:10A940000122C8F80020D0F808C02568D8F800A077
:10A95000DBB283F3118831684FF47A72554402FBFD
:10A9600001F3A3EB0C03B3FBF1F302FB0535FFF797
:10A97000AABBEFF3118389F31288D0F808C00268EC
:10A98000D20304D50122C8F80020D0F808C02568F9
:10A99000D8F800A0DBB283F3118831684FF47A72E3
:10A9A000554402FB01F3A3EB0C03B3FBF1F302FBF1
:10A9B0000535FFF723BB019A1BE4039B93F8653031
:10A9C0003BBB1023CDE90433FFF7E0B90EF04AFD9D
:10A9D000044620B302688388126913407FF4CDA92E
:10A9E0000399C3712022124B827141F80C3F3FF052
:10A9F00085FAA388B3FA83F3C3F11F03012212FA85
:10AA000003F33FF4BAA90B490A6813430B60FFF73D
:10AA1000B4B910211823CDE90413FFF7B7B903998E
:10AA2000034B41F80C3F3FF069FAFFF7A6B900BFAE
:10AA300059870008003C014042697749138823F098
:10AA400040032DE9F04F1B041B0C1380138883B0C7
:10AA500023F038031B048A4201904FEA134300F0AD
:10AA6000D08001F580618A420CBF282130210B4340
:10AA70001380138843F04003138001200BF06EF91C
:10AA8000019C2046FFF770F9236A13B11A689B886E
:10AA90005383019B586940F2E933828902E0002B1D
:10AAA00000F0B4800289013B12F0020F9BB2F6D095
:10AAB0006A23838140F2E93302E0002B00F0A68094
:10AAC0000289013B12F0010F9BB2F6D08389838982
:10AAD00040F2E93302E0002B00F095800289013B4F
:10AAE00012F0020F9BB2F6D01023838140F2E933BB
:10AAF00002E0002B00F087800289013B12F0010F79
:10AB00009BB2F6D08389019B1B6A13B11A689B889C
:10AB100013836423414CDFF81091DFF81081404D1E
:10AB2000DFF80CA13F4E00930BF0C6F84FF47A7794
:10AB30004FF0100C4FF0010ED8F80430C3F30803A7
:10AB4000002B3FD1EFF31183002B3BD12368A96881
:10AB500022689342FAD132689142F7D8D9F800209E
:10AB600007FB02FBABEB0101B1FBF2F107FB0313A7
:10AB70001B1AB3F57A7FDFD3009B013B0093D3D13F
:10AB8000019B25495A69138823F040031B041B0CC1
:10AB90001380138823F038031B048A424FEA1343BF
:10ABA00005D001F580618A4201D043F0080313808B
:10ABB0001388012043F04003138003B0BDE8F04F39
:10ABC0000BF0CCB8EFF311818CF31288D5F808B0F4
:10ABD0002B68DB0344BFCAF800E0D5F808B023684F
:10ABE000DAF80020C9B281F31188D9F800101344B3
:10ABF00007FB01F2A2EB0B02B2FBF1F207FB03230E
:10AC0000B6E7282133E70FF015FF7CE70FF012FFBE
:10AC1000019B58695BE700BF0038004080A5002019
:10AC200010E000E088A5002084A5002000ED00E0F1
:10AC30007CA5002008B5012030F08AFB284A9368E3
:10AC400003F00C03082B08D00C2B1FD0042B254B32
:10AC50001ABF254A1A60186008BD51685368490236
:10AC600003F03F0333D452681F48B0FBF3F0C2F344
:10AC7000881300FB03F01A4B1A4A5B68C3F30143C5
:10AC800001335B00B0FBF3F0106008BD51685368FE
:10AC9000490203F03F0312D452681348B0FBF3F0AB
:10ACA000C2F3881300FB03F00D4B0E4A5B68C3F33D
:10ACB000027301335B00B0FBF3F0106008BDB0FB22
:10ACC000F3F05368C3F3881300FB03F0ECE7B0FB29
:10ACD000F3F05368C3F3881300FB03F0CBE700BF26
:10ACE0000038024090A300200024F400037C026896
:10ACF0001F2B86BF203B51681168202202FA03F304
:10AD00000B4214BF0123002303B970472DE9F0471C
:10AD10004569DFF858A12D0204460AF0CDFF0AEB81
:10AD2000050380461A7C002A34D14B495A680978B9
:10AD3000D2F80090C9B9D16858890A6822F0010296
:10AD40000A60B9F80C3023EA0003A9F80C30434B31
:10AD50001B78002B31D1237C21681F2B13D8202294
:10AD600002FA03F38B60BDE8F0879269136823F061
:10AD700001031360B9F80C3023F480731B041B0C1F
:10AD8000A9F80C30E3E7203B202202FA03F3CB6062
:10AD9000BDE8F0875A6832481568D6685F89012295
:10ADA0005A743168036821F001013160AA890133C6
:10ADB00022EA0702AA810360CDE70AEB05062835DF
:10ADC000776F384630F05CFA01230AEB05014846FC
:10ADD000337430F015FBD6E91202736B316D3D68A8
:10ADE00003431343D6E915200B431343F16DB26EB1
:10ADF00003430B431B48F16E134328400B430343AB
:10AE0000002232643B60D6E918317A69756CB06B08
:10AE100022F007020B431343F26B7B617D60B86045
:10AE2000FA603B687268706FD16896F8705012686B
:10AE300043F010033B6045600B6843F001030B6077
:10AE4000938971890B4393810AF036FF064BA0EB7F
:10AE5000080058627FE700BF81BA002080BA002056
:10AE6000909100203F801CF0B813002084BA00208D
:10AE70008A4B1B78002B00F09880002800F095800A
:10AE80002DE9F04F431E85B0854C0190032B4FF008
:10AE90000006A8BF0323A4F114070393B0464FEAAA
:10AEA000062A07EB0A03256E5B7C002B7ED06A68BE
:10AEB00092B2002A65D114F8050CD4E91B130028BE
:10AEC00000F0AA84603377485B1AA0FB035189091C
:10AED00001EB4101A3EB4113182B00F17785173BE0
:10AEE000A0FB0323DB0003F0F003D4E91D126D483F
:10AEF0006032521AA0FB0251890901EB4101A2EB19
:10AF00004112182A05D4173AA0FB0212C2F34302D9
:10AF10001343D4E91F1263486032521AA0FB025156
:10AF2000890901EB4101A2EB4112182A5EBF173AD1
:10AF3000A0FB0212C2F34305D4E92112594802F1E1
:10AF40006002A2EB0102A0FB02C14FEA911101EBEA
:10AF50004101A2EB411248BF0025182A58BF173AF9
:10AF600045EA03155ABFA0FB0223C3F343030023A2
:10AF700043EA051383EA132282EA1212100700F053
:10AF80000C85494A13680133136026B9802247496A
:10AF9000474844F02BFD07EB0A0383F8118054F86F
:10AFA000109C256ED9F800B00CE0704754F8109C46
:10AFB00034F80A1CD9F800B0BBF80C2022EA0102D0
:10AFC000ABF80C202A683B4B22F0010221219D4264
:10AFD0002A60C5F80080C5F80480C5F80880C5F867
:10AFE0000C80C5F8108069611FD0334B9D4200F082
:10AFF0003783324B9D4200F03D83314B9D4200F040
:10B00000DF84304B9D4200F002852F4A954200F0CC
:10B0100003852E4A954200F07E852D4A954200F028
:10B02000EC84284630F09CF802E02A4A3D219160E9
:10B03000BA448AF8108099F805100C2916D8DFE870
:10B0400011F044011500150015004D011500150003
:10B0500015003B011500150015000D00BBF81C2064
:10B0600022F400621204120CABF81C20224658464F
:10B0700009F096F999F805300C2B37D8DFE813F072
:10B080000601360036003600110136003600360063
:10B09000FB003600360036002C0000BF80BA0020CE
:10B0A00098BA0020ABAAAAAA8C91002004BB002069
:10B0B000E01300201060024028600240406002401F
:10B0C000586002407060024088600240A060024008
:10B0D000B860024000600240BBF81C3023F40063FB
:10B0E0001B041B0C43F40063ABF81C30D4E90D12B5
:10B0F000236AE06B43F040030B431343226CB149D6
:10B1000003431343626C13434022E262A26C28683B
:10B110001343A26D0292626D1343029A01401343DE
:10B120000B432B60D4E913316A69206B22F00702CC
:10B130000B431343D4E909126B616860A960EA60AC
:10B140002B6843F010032B60039B01369E4204F5ED
:10B1500080747FF7A4AE019B9E4280F2CC814FEABF
:10B16000062A0AF114043C444FF0000807EB0A03D6
:10B17000256E5B7C002B00F0BA806A6892B2002AD0
:10B1800065D114F8050CD4E91B13002800F07C826B
:10B1900060338D485B1AA0FB0351890901EB410123
:10B1A000A3EB4113182B00F11484173BA0FB0323DE
:10B1B000DB0003F0F003D4E91D1283486032521A19
:10B1C000A0FB0251890901EB4101A2EB4112182AAF
:10B1D00005D4173AA0FB0212C2F343021343D4E989
:10B1E0001F1279486032521AA0FB0251890901EB03
:10B1F0004101A2EB4112182A5EBF173AA0FB0212CE
:10B20000C2F34305D4E921126F4802F16002A2EBB8
:10B210000102A0FB02C14FEA911101EB4101A2EB37
:10B22000411248BF0025182A58BF173A45EA0315AE
:10B230005ABFA0FB0223C3F34303002343EA0513D1
:10B2400083EA132282EA1212120700F0E0825F4AB8
:10B2500013680133136026B980225D495D4844F0CC
:10B26000C5FB07EB0A0383F8118054F8109C256E88
:10B27000D9F800B047E0BBF81C3023F008031B04EA
:10B280001B0C43F00803ABF81C302FE7BBF8183059
:10B2900023F008031B041B0C43F00803ABF8183021
:10B2A00024E7BBF8183023F400631B041B0C43F4A1
:10B2B0000063ABF8183019E7BBF81C2022F0080235
:10B2C0001204120CABF81C20D0E6BBF8182022F0B8
:10B2D00008021204120CABF81820C7E6BBF81820BD
:10B2E00022F400621204120CABF81820BEE654F8E7
:10B2F000109C34F80A1CD9F800B0BBF80C2022EAE4
:10B300000102ABF80C202A68334B22F00102212104
:10B310009D422A60C5F80080C5F80480C5F8088001
:10B32000C5F80C80C5F8108069611FD02B4B9D4279
:10B3300000F091812A4B9D4200F09781294B9D425C
:10B3400000F03983284B9D4200F05D83274A9542E7
:10B3500000F06783264A954200F0E283254A954231
:10B3600000F0468328462FF0FBFE02E0224A3D21F2
:10B370009160BA448AF8108099F805100C2910D809
:10B38000DFE801F0A70F0F0F9E0F0F0FB00F0F0F89
:10B390000700BBF81C2022F400621204120CABF868
:10B3A0001C202246584608F0FBFF99F805300C2B6C
:10B3B0002ED8DFE803F06F2D2D2D7A2D2D2D642D45
:10B3C0002D2D23003F801CF0ABAAAAAA8C9100204F
:10B3D00004BB0020E01300201060024028600240FF
:10B3E0004060024058600240706002408860024045
:10B3F000A0600240B860024000600240BBF81C3010
:10B4000023F400631B041B0C43F40063ABF81C30F3
:10B41000D4E90D12236AE06B43F040030B4313435E
:10B42000226C974903431343626C13434022E26248
:10B43000A26C28681343A26D0292626D1343029AB4
:10B44000014013430B432B60D4E913316A69206B2D
:10B4500022F007020B431343D4E909126B616860C1
:10B46000A960EA602B6843F010032B60019B013652
:10B47000B34204F580743ED04FEA062A76E6BBF864
:10B480001C3023F008031B041B0C43F00803ABF82B
:10B490001C30BDE7BBF8183023F008031B041B0C5D
:10B4A00043F00803ABF81830B2E7BBF8183023F4C8
:10B4B00000631B041B0C43F40063ABF81830A7E7D0
:10B4C000BBF8182022F400621204120CABF818200A
:10B4D00067E7BBF8182022F008021204120CABF840
:10B4E00018205EE7BBF81C2022F008021204120CA0
:10B4F000ABF81C2055E77A68787B13685179800790
:10B5000054BF012204228A40198C92B221EA02011E
:10B510001984198C0A431A84019B012B00F098802E
:10B52000D7F8042197F80D0113685179820754BFA9
:10B53000012204228A40198C92B221EA0201198464
:10B54000198C0A431A84019B022B00F08180D7F8E2
:10B55000042297F80D0213685179860754BF01221F
:10B5600004228A40198C92B221EA02011984198CB2
:10B570000A431A84019B032B6AD0D7F8042397F857
:10B580000D0313685179850754BF012204228A40B4
:10B59000198C92B221EA02011984198C0A431A8487
:10B5A000019B042B54D0D7F8042497F80D1413688A
:10B5B00050798C0754BF01220422198C824092B228
:10B5C00021EA02011984198C0A431A84019B052B74
:10B5D0003ED0D7F8042597F80D05136851798007F8
:10B5E00054BF012204228A40198C92B221EA02013E
:10B5F0001984198C0A431A84019B062B28D0D7F88A
:10B60000042697F80D1613685079890754BF012254
:10B610000422198C824092B221EA02011984198C09
:10B620000A431A84019B072B12D0D7F8042797F8F6
:10B630000D071368517982074CBF042201228A400A
:10B64000198C92B221EA02011984198C0A431A84D6
:10B6500005B0BDE8F08F0B4A4FF47461916088E645
:10B66000084A4FF474619160E2E4064A4FF47411A1
:10B6700091607EE6034A4FF474119160D8E400BFF4
:10B680003F801CF0006002405B1A002B40F3AA814F
:10B690000A2BD4BF00230123D4E91D12521A002A19
:10B6A0004FEA430340F3FB810A2A01DD43F0010323
:10B6B000D4E91F12521A002A4FEA430340F3F781DC
:10B6C0000A2A01DD43F00103D4E92112521A002AAB
:10B6D0004FEA430340F3E7810A2A01DD43F0010307
:10B6E000D4E92312521A002A4FEA430340F3CF81D0
:10B6F0000A2A01DD43F00103D4E92512521A002A77
:10B700004FEA430340F3BF810A2A01DD43F00103FE
:10B71000D4E92712521A002A4FEA430340F3AF81BB
:10B720000A2A01DD43F00103D4E92912521A002A42
:10B730004FEA430340F39F810A2A01DD43F00103EE
:10B74000D4E92B12521A002A4FEA430340F38F81A7
:10B750000A2A01DD43F00103D4E92D12521A002A0E
:10B760004FEA430340F37F810A2A01DD43F00103DE
:10B77000D4E92F12521A002A4FEA430340F36F8193
:10B780000A2A01DD43F00103D4E93112521A002ADA
:10B790004FEA430340F35F810A2A01DD43F00103CE
:10B7A000D4E93312521A002A4FEA430340F34F817F
:10B7B0000A2A01DD43F00103D4E93512521A002AA6
:10B7C0004FEA430340F33F810A2A01DD43F00103BE
:10B7D000D4E93712521A002A4FEA430340F32F816B
:10B7E0000A2A01DD43F00103D4E93912521A002A72
:10B7F0004FEA430340F31F810A2A01DD43F00103AE
:10B8000083EA132282EA121215077FF420ADC3F3F4
:10B810000F1324F8023C24E55B1A002B40F3DC8074
:10B820000A2BD4BF00230123D4E91D12521A002A87
:10B830004FEA430340F32F810A2A01DD43F001035D
:10B84000D4E91F12521A002A4FEA430340F35F81E2
:10B850000A2A01DD43F00103D4E92112521A002A19
:10B860004FEA430340F34F810A2A01DD43F001030D
:10B87000D4E92312521A002A4FEA430340F33F81CE
:10B880000A2A01DD43F00103D4E92512521A002AE5
:10B890004FEA430340F32F810A2A01DD43F00103FD
:10B8A000D4E92712521A002A4FEA430340F31F81BA
:10B8B0000A2A01DD43F00103D4E92912521A002AB1
:10B8C0004FEA430340F30F810A2A01DD43F00103ED
:10B8D000D4E92B12521A002A4FEA430340F3FF80A7
:10B8E0000A2A01DD43F00103D4E92D12521A002A7D
:10B8F0004FEA430340F3EF800A2A01DD43F00103DE
:10B90000D4E92F12521A002A4FEA430340F3DF8092
:10B910000A2A01DD43F00103D4E93112521A002A48
:10B920004FEA430340F3CF800A2A01DD43F00103CD
:10B93000D4E93312521A002A4FEA430340F3BF807E
:10B940000A2A01DD43F00103D4E93512521A002A14
:10B950004FEA430340F3AF800A2A01DD43F00103BD
:10B96000D4E93712521A002A4FEA430360DD0A2A4B
:10B9700001DD43F00103D4E93912521A002A4FEADB
:10B98000430352DD0A2A01DD43F0010383EA132257
:10B9900082EA121211077FF4F4AA634A1278C3F301
:10B9A0000F132F2A24F8023C7FF4F5AA5F4A22F8ED
:10B9B0001630FFF7F0BA5E4A4FF074619160D8E438
:10B9C0005B4A4FF074619160FFF732BB1346FFF79B
:10B9D0008CBA1346FFF7EFBB13F1090FB4BF002376
:10B9E000012321E713F1090FB4BF0023012353E61C
:10B9F0004FF03D5142F8AC1CBBE44FF03D5142F8D2
:10BA0000AC1CFFF715BB4A4A4A49D160B1E4484A29
:10BA10004849D160FFF70CBB474942F87C1CFFF74F
:10BA200007BB454942F87C1CA3E40932AEDBABE717
:10BA30000932A0DB9DE70932FFF6E2AEDEE609320D
:10BA4000FFF6D2AECEE60932FFF6C2AEBEE609324E
:10BA5000FFF6B2AEAEE60932FFF6A2AE9EE60932BE
:10BA6000FFF692AE8EE60932FFF682AE7EE609322E
:10BA7000FFF672AE6EE60932FFF662AE5EE609329E
:10BA8000FFF652AE4EE60932FFF642AE3EE609320E
:10BA9000FFF632AE2EE60932FFF6D2AECEE609321E
:10BAA000FFF606AE02E60932FFF61AAE16E60932D6
:10BAB000FFF60AAE06E60932FFF652AF4EE709324C
:10BAC000FFF642AF3EE70932FFF632AF2EE709320A
:10BAD000FFF622AF1EE70932FFF612AF0EE709327A
:10BAE000FFF602AFFEE60932FFF6F2AEEEE60932ED
:10BAF000FFF6E2AEDEE60932FFF6D2AECEE609325E
:10BB0000FFF6C2AEBEE60932FFF6B2AEAEE60932CD
:10BB1000FFF6A2AE9EE6094942F8941CFFF788BAE8
:10BB2000064942F8941C24E4E87F0020EC7F0020C2
:10BB3000006002403D000020400F002000003D203A
:10BB4000024B014618680FF007B800BFD818002054
:10BB500038B5064D441E14F8011F286819B9BDE810
:10BB600038400EF0EBBF0EF0F7FFF4E7D8180020D6
:10BB70000048EDE7C877050808B5FFF7E9FFBDE81D
:10BB80000840F5E710B504460348FFF7E1FF2046FB
:10BB9000BDE81040F0E700BF446B050838B5074C1E
:10BBA000074DAC4203D3074B00221A7038BD6288A0
:10BBB000D4E9010143F01AFF1434F2E7A0010008B0
:10BBC00004070008341A002038B5074C074DAC4272
:10BBD00003D3074B01221A7038BD6288D4E90110E3
:10BBE00043F004FF1434F2E7A00100080407000842
:10BBF000341A0020024A136823EA000010607047DC
:10BC000064CC0020DFED2E7AB4EEE70AF1EE10FAF4
:10BC10004ADDDFED2C6A9FED2C7A01E0B0EE670A79
:10BC2000B4EEC70AF1EE10FA70EE667AF6DC9FED1C
:10BC3000277AF4EEC77AF1EE10FA3ED5DFED216AED
:10BC40009FED237A01E0F0EE407AF4EEC77AF1EE50
:10BC500010FA37EEA60AF6D4DFED1E7AB4EEE70A44
:10BC6000F1EE10FA14DDDFED167A37EEC00A60EE61
:10BC7000006A9FED196A9FED197ADFED197AA6EE39
:10BC8000867A20EE266AE6EE877AA6EE270A7047C5
:10BC9000DFED147AB4EEE70AF1EE10FA44BFDFEDFF
:10BCA0000B7A37EEC00AE2E79FED087AF0EE407AB1
:10BCB000F4EEC77AF1EE10FAC0D4B0EE670ACBE723
:10BCC000DB0F4940DB0FC940E4CB1641DB0F49C015
:10BCD000E4CB16C1DB0FC93F92E741B99730083C6E
:10BCE00015A82ABEDB0FC9BFF0EEC07AB0EEE07A2D
:10BCF000B4EEE77AF1EE10FAB4BFB0EE676AB0EED8
:10BD0000476AB5EE406AF1EE10FA46D0B4EEE77A33
:10BD1000F1EE10FA8CBFF0EE675AF0EE475AC5EE1E
:10BD2000866A9FED1F3A9FED1F6A9FED1F4A9FEDA8
:10BD30001F5ADFED1F3ADFED1F4ADFED1F5AA6EE57
:10BD4000C36AE6EEA34AA6EE864AB7EE006AA6EEFE
:10BD5000845AA6EEA46AE6EE855AC5EE866AB4EE6B
:10BD6000E77AF1EE10FA48BFDFED147AF5EEC00A7B
:10BD700048BF77EEE66AF1EE10FA48BFDFED107AC1
:10BD8000B5EEC00A48BF77EEE66AF1EE10FA48BF9A
:10BD9000F1EE666AB0EE660A7047DFED076ADEE72D
:10BDA00039094E3DE3B59E3E88FA163E45FE7F3F7B
:10BDB00099FB243F69A2163EA7DFA834DB0FC93FD9
:10BDC000DB0F4940DFED317A30EE277AFDEEC76AAE
:10BDD00016EE903A2033402B02D99FED2D0A704782
:10BDE000B4EEE70AF1EE10FA4DDD9FED2A6ADFEDC1
:10BDF0002A6A01E0B0EE677AB4EEE67AF1EE10FA64
:10BE000077EE467AF6DC9FED257AF4EEC77AF1EE0E
:10BE100010FA35D5DFED1F6A9FED217A01E0F0EED3
:10BE2000407AF4EEC77AF1EE10FA37EEA60AF6D4AD
:10BE3000DFED167AB4EEE70AF1EE10FA1BDCDFED67
:10BE4000197AB4EEE70AF1EE10FA44BFDFED137A87
:10BE500037EEC00A60EE006A9FED136A9FED137A19
:10BE6000DFED137AA6EE867A20EE266AE6EE877A72
:10BE7000A6EE270A7047DFED0F7A37EEC00AE9E732
:10BE8000B0EE670AD4E7F0EE477ABCE7DB0FC93FB4
:10BE900000000000DB0FC940E4CB1641DB0F49C0B6
:10BEA000E4CB16C1DB0FC9BF92E741B99730083C1C
:10BEB00015A82ABEDB0F494010B44C09012250F8E6
:10BEC000243001F01F0102FA01F10B4340F8243045
