:020000040800F2
:10000000F0FF0010A13E05086D01020899B6010835
:10001000413F0508413F0508413F05080000000039
:10002000000000000000000000000000790102084C
:10003000750102080000000071010208858E0108A8
:10004000413F0508413F0508413F0508413F05087C
:10005000413F0508413F050889D00108C9D1010881
:1000600089D1010849D1010809D1010855000108C9
:1000700045000108350001082500010811000108AC
:10008000FDFF0008E9FF0008413F0508413F050862
:10009000413F0508413F0508413F0508C9D0010817
:1000A000E5750108717B0108413F0508F57C0108F1
:1000B000B17A0108F17901082579010819060108CA
:1000C000210601080D06010815060108413F050833
:1000D000413F050899900108FD8F0108618F0108D3
:1000E00049D00108413F05085D4F0208413F05081E
:1000F000B5760108413F050885770108D5FF00085E
:10010000413F0508413F050855780108413F050872
:10011000413F0508413F0508BDD603084DD50308FA
:10012000C1FF0008ADFF000899FF000885FF000827
:1001300071FF0008413F0508413F0508413F0508A0
:10014000413F0508413F0508413F0508351C0208AD
:100150005DFF000849FF000835FF0008C58E010853
:100160000106010809060108413F0508413F05084D
:10017000413F0508413F0508413F0508413F05084B
:08018000413F0508413F05085D
:08018800483A050001000000E7
:1001900010020100942000209020002000000000A8
:1001A000300700081F021000A8200020982000201F
:1001B000000000008184000807020200CC410020FA
:1001C00014420020000000003207000802000C006A
:1001D00064400020184200200000000000000000E1
:1001E00006020C009C410020244200200000000078
:1001F0005591000808120F001C41002030420020D9
:100200000000000011840008F701060010410020E2
:100210004042002000000000340700081A023C00A1
:10022000404300204846002000000000C590000820
:10023000270004003C43002084460020000000000A
:100240003A0700081400030078600020E4600020F2
:1002500000000000400700080B3018008850002004
:10026000E860002000000000440700081F30240060
:10027000A050002000610020000000005C07000882
:10028000050204000C5C0020246100200000000036
:100290008007000803010A00E050002028610020C8
:1002A000000000008407000813020400B44E002080
:1002B00034610020000000008E07000820320A0090
:1002C0000C7C0020007C002000000000195802086F
:1002D0001C021000C8770020187C002000000000DD
:1002E000B18300081010020090790020287C0020C3
:1002F00000000000920700082810100080790020FC
:100300002C7C002000000000915802081900050014
:10031000787900203C7C0020000000009407000851
:10032000F821060070790020447C002000000000C5
:100330009A070008012008000C7400204C7C002063
:1003400000000000A00700080A7028008873002041
:10035000547C002000000000395802080EA07401EF
:10036000147200207C7C0020000000005907040863
:100370000101040078710020F07D002000000000E1
:10038000000000000001040070710020F47D0020D6
:1003900000000000A8070008020103006C710020A3
:1003A000F87D002000000000090701080902010093
:1003B0001C9A0020949A002000000000AC0700085E
:1003C00022021401EC970020989A002000000000FF
:1003D000F59200080C109C0024880020AC9B0020A3
:1003E00000000000DD060108010205000888002069
:1003F000489C002000000000DDFA02080002050011
:1004000000880020509C0020000000000000000038
:100410001B020800DC870020589C00200000000020
:10042000DD8300081E00060048850020609C002037
:1004300000000000AE0700081B100C004C800020DC
:10044000689C0020000000007D0E03082102F000DF
:10045000CC7E0020749C00200000000099FC020863
:10046000051006009C8A0020649D0020000000000A
:10047000B407000837102400788700206C9D002006
:1004800000000000BA0700080E020200848A002063
:10049000909D002000000000DE07000816100600F6
:1004A000C07E0020949D002000000000E0070008AE
:1004B0002F102200709A00209C9D00200000000058
:1004C000E607000823100E009C840020C09D002039
:1004D00000000000AB580208F5518800FC7D0020A8
:1004E000D09D002000000000BD47030826100C002E
:1004F000649E0020589E00200000000039F0020891
:100500000A020A0040A4002088A600200000000083
:1005100011760308F6210C00FC9E002094A6002012
:10052000000000000808000803000100689F002088
:10053000A0A600200000000000000000031233000D
:1005400054A60020A4A60020000000001408000803
:1005500025102C0174A40020D8A600200000000063
:10056000000000001A000E002CB0002058B000203F
:10057000000000004808000815007000E0AB0020F3
:1005800068B0002000000000000000002A006000A9
:10059000CCAF0020D8B000200000000031070408D4
:1005A0002C00100048B1002038B1002000000000ED
:1005B000C10404082B0024007CB1002058B10020A5
:1005C000000000009104040829207800D0A9002030
:1005D000A0B1002000000000000000000D003C0061
:1005E000D8E4002084E50020000000005F670108D7
:1005F0000400800060DB0020C0E500200000000057
:10060000000000001300040040DB002040E6002052
:100610000000000058080008FD0124001CDB002039
:1006200044E6002000000000D966010818202E00D2
:10063000E8DA002068E60020000000005D92000873
:1006400006101A0044C9002098E6002000000000AF
:10065000B9070408FB01010040C90020B4E60020EE
:1006600000000000C9920008FC0109000CC800202D
:10067000B8E6002000000000D99200083400100005
:1006800038C70020C4E60020000000008D070408E1
:100690001102080010C70020D4E60020000000006E
:1006A0005C0800081212040008C70020DCE60020E5
:1006B000000000006408000812201000F8C60020A6
:1006C000E0E600200000000068080008F9010400CE
:1006D000B8BA0020F0E600200000000051670108D1
:1006E000FA010200A0B40020F4E60020000000009F
:1006F0007D8500080202030070B20020F8E60020A9
:1007000000000000000000000C0204005CB20020A9
:10071000FCE600200000000069840008FE011400CF
:1007200064B4002000E7002000000000E983000816
:100730000000023C24010000000020030000000033
:1007400003000000AE014A015E012C0164000200BA
:10075000000001000A019A01001E0A0000000000CA
:10076000000100000005000001020300000000007D
:1007700000000000000000000000000000800700F2
:1007800000000000040101006C16000000000000E1
:10079000013500050000280100000401F4011400E7
:1007A000E8036400040A0001900100002800000032
:1007B0000100000020000101000020003200C800FC
:1007C000D0079600140032002800B004400600054F
:1007D000500014000F000800640001000100000038
:1007E000C409000019000000000000000000000023
:1007F00000000000000000000000000000000000F9
:1008000000000000000000000000000001000000E7
:1008100002020000000000000000000000000000D4
:1008200000000000000000000000000000000000C8
:1008300000000000000000000000000000000000B8
:1008400000000000000001007E05EA05B40532004A
:10085000E803D00700000000080444300000000056
:1008600001010101FFFFFFFF000000010000054240
:080870004646340000080000B8
:100878001A03000000000000000000000000000053
:10088800000000000000000000000000040309044C
:1008980012010002000000408304205700020102F8
:1008A8000301000095CE0008D9840008D58400080B
:1008B800D18400083D930008CD840008C98400084D
:1008C800885905080D030208CDE401084D0E0208F9
:1008D8000000000000000000510B02086D0A020829
:1008E80000000000000000000000000005E0010812
:1008F8007185000865850008E1980008FD980008E2
:100908001D850008C5980008A99800080068214CB2
:100918001F0000001C0000001F0000001E00000057
:100928001F0000001E0000001F0000001F00000044
:100938001E0000001F0000001E0000001F00000035
:10094800FF01FF0000000000000000000102030496
:100958000607080900000000044200200800000003
:1009680000000000F44100200800000025E601080E
:1009780011E50108E9100208000000008DE00108F7
:10098800A10C020861E40108190C0208000000002B
:100998000000000049E00108DDDF0108D1DF01089F
:1009A8001D0202083902020801020208E5010208D4
:1009B800C9010208DDE50108EDE401082910020873
:1009C8000000000061E001081D0C020835E4010880
:1009D800790B0208000000000000000055E0010843
:1009E8001CC8050828C8050834C8050840C80508F3
:1009F8004CC8050858C8050888E70508900806087F
:100A080074070608A8C70508243006080CC8050896
:100A180010C8050814C8050818C8050864C80508DA
:100A280068C805086CC80508E405060870C8050804
:100A38001900C800F4012003685E0C0001000000E2
:100A4800A00F0000B80B00000102FFFF010000002A
:100A58000403090412010002EF0201408304563224
:100A6800000201020301000012010002020200401C
:100A7800830440570002010203010000090220001C
:100A8800010104C0320904000002080650050705E8
:100A980081024000000705010240000009026400CD
:100AA800030100C03209040000010300000009210D
:100AB800110100012226000705830308000A080B1C
:100AC80001020202010009040100010202010005FD
:100AD8002400100105240100020424020205240652
:100AE8000102070582030800FF09040200020A0048
:100AF80000000705010240000007058102400000D0
:100B080009024300020100C0320904000001020288
:100B1800010005240010010524010001042402023B
:100B28000524060001070582030800FF09040100E7
:100B3800020A0000000705010240000007058102C3
:100B480040000000FF00000074730508000000006A
:100B5800000000000000000000000000000000008D
:100B6800000000000000000000000000000000007D
:100B780000FFFF0000000000AA5505010000010069
:100B88004873050800000000000000000000000095
:100B9800000000000000000000000000000000004D
:100BA8000000000000000000FF1FFF1F05010905ED
:100BB800A101A100050109300931093209330935BC
:100BC8000934094009381581257F7508950881027F
:100BD800C0C0000009022200010100E0320904003F
:100BE800000103010200092111010001222600076A
:100BF80005830308000A0000000000000102030446
:100C08000102030406070809B10D0208B50C020821
:100C18000D110208C9E0010841E60108D9E0010800
:100C2800F5E00108A1E0010891E0010800000000DA
:100C3800000000002D202D2D202D2D2D2D202D2DB7
:100C48002D2D000000000000000000000000000042
:100C5800000000AA550B010000AA5507010000AAD0
:100C6800550902000000AA5503009F00010000007A
:100C7800C0120000B860002000000000DC60002006
:100C88000000000001000000C94F02080000000039
:100C98009C74050820700020702D7200FFFFFFFF74
:100CA800D601010100010101002D202D2D202D2D3F
:100CB8002D2D202D2D2D000000000000000000002B
:100CC800000000000000000000000000000000001C
:100CD800848905080000000000000000108A05084B
:100CE80001000000FA0000000100000001000000FF
:100CF80001010000DE73002000C80100DD73002040
:100D080000500100DC730020005A0100DA73002053
:100D1800020000000C79050860D9050868D90508A3
:100D28006EE500200100C409000000006CE5002009
:100D38000100C409000000006AE500200100C409A0
:100D48000000000068E500200100C4090000000060
:100D580064E500200100C4090000000066E50020E9
:100D68000100C4090000000062E500200100C40978
:100D78000000000060E500200100C4090000000038
:100D88008E7100200100C800010000008C71002055
:100D980032003075320000008A710020055A0500C3
:100DA8008771002000FF0100897100200100000008
:100DB8003006002085710020020000001C90050804
:100DC8008671002000FF01008871002001000000EA
:100DD8003006002084710020020000001C900508E5
:100DE80018740020EE02CA080100000016740020E2
:100DF80000C80100640000001574002000C801004C
:100E0800640000001474002002000000187905082E
:100E18007E71002080C1803E050000007C710020AA
:100E280080C1803E050000007671002080C1803EB0
:100E3800050000007471002080C1803E050000009C
:100E48006F71002000FF0100687100206400F40148
:100E580001000000677100200400000024790508E3
:100E6800667100200200000038790508037200202E
:100E78000D0000004479050800720020006401009C
:100E8800FE710020320010270A000000FD710020CA
:100E98000D00000044790508FC7100200D000000D9
:100EA80044790508FB710020020000007C790508E0
:100EB800000000000000000088790508C45B0020DD
:100EC8009CFF2C010000000008770020E0150C179B
:100ED800000000000A77002002000000C079050821
:100EE800247400200100FF7F01000000237400200B
:100EF80002000000CC7905080572002003000000FC
:100F0800DC7905080472002003000000DC7905087C
:100F1800BC7300200000E80301000000BA73002041
:100F28000000E80301000000B87300200000E80397
:100F380001000000B67300200000E8030100000073
:100F4800B47300200000E80301000000B273002021
:100F58000000E80301000000B17300200014010044
:100F6800B073002003000000EC790508C873002066
:100F78000000F40101000000C67300200000F40125
:100F880001000000C47300200000F401010000000B
:100F9800C27300200000F40101000000C0730020AB
:100FA8000000803E01000000BE7300200000803E6B
:100FB80001000000F173002019640100F0730020A3
:100FC80002000000FC790508EE730020E803D00752
:100FD8000A000000EC730020006401000A00000011
:100FE800E173002000640100E07300200064010048
:100FF800E8730020006401000A000000E773002085
:10100800006401000A000000E6730020006401008B
:101018000A000000EB730020006401000A000000D1
:10102800EA730020006401000A000000E973002050
:10103800006401000A000000E573002001FF0100C0
:101048000A000000E473002001FF01000A0000000C
:10105800E373002001FF01000A0000000E72002067
:101068000000F401010000000C7200200000F401EF
:10107800010000000A7200200000F40101000000D5
:10108800087200200000F401010000000672002030
:101098000000F40101000000D97300200064010081
:1010A800D873002000640100D77300200064010099
:1010B800D6730020FF080100D573002001640100E9
:1010C800A95502086D550208087A0508D47300204E
:1010D80000640100D27300201400E803010000003E
:1010E800D0730020E80330750A000000CE7300209A
:1010F80000C80100CD73002000C80100CC73002097
:1011080000C80100CB730020006401000A00000041
:10111800087400200000D0070100000003740020BC
:1011280000C801000274002000C8010001740020FA
:1011380000C80100067400200000D007010000006C
:101148000074002000C80100FF73002000C80100DF
:10115800FE73002000C80100047400200000D007BE
:1011680001000000FD73002000C80100FC7300208E
:1011780000C80100FB73002000C801000000000047
:10118800DD520208787A0508F97100203100000064
:10119800147B0508F871002000C80100F6710020D2
:1011A800E803D0070100000042455441464C494736
:1011B80048544634000000008371002000030100F9
:1011C80082710020000301003D52020815520208F6
:1011D800DC7B0508D151020885510208307C0508DE
:1011E8006552020805750208B07C05088071002068
:1011F8000103010009570208DD560208A47F05080B
:1012080015510208D550020808800508F352020853
:101218004D820208A4800508117102080000000030
:101228004C8105086D78020869570208E8810508AD
:101238004553020800000000688205081D54020892
:10124800C9530208CC820508AD540208715402083B
:1012580068830508E55502082D560208E883050845
:10126800DF730020010601008D530208595302085C
:10127800E4840508E95402086975020854850508DC
:1012880061560208ED75020834860508CA73002005
:1012980001030100AD5202087D52020808870508C3
:1012A80035570208000000006C87050855510208F0
:1012B800D5740208D087050800000000000000006F
:1012C8005C880508B556020865760208DC880508BA
:1012D8006271002088136F170100000064710020FC
:1012E80088136F17000000003E5100200000000026
:1012F800000000003C510020000000000000000039
:101308003A51002000000000000000003851002081
:10131800000000000000000036510020000000001E
:101328000000000034510020000000000000000010
:10133800880500200000000000000000387100202F
:1013480002000000648A05086071002088136F1786
:1013580001000000045C002088136F1700000000E3
:101368006950020800000000708A05083A770020DA
:1013780001000000C48A0508065C00200100000086
:10138800D08A0508FC5B002002000000D88A050806
:101398000000000000000000E48A0508555002081B
:1013A80000000000808B050800000000000000001D
:1013B800D48B05080000000000000000448C0508DC
:1013C800005C0020E0150C17000000000100000080
:1013D80000000100E0010000FFFFFFFF0801FFFF20
:1013E800FF0000000000803F000000000000000037
:1013F800000000000000803FFFFFFFFFFFFFFFFF2E
:10140800FF000000010000000000803F0000000015
:1014180000000000000000000000803F0000000005
:1014280000000000000000000000000000000000B4
:1014380000000000000000000000000000000000A4
:101448000000803F000000000000000000000000D5
:10145800010000000000040100000000000000027C
:101468001000000007000800CDDF0108C9DF0108EF
:10147800C5DF0108B9DF0108B5DF0108C1DF0108D0
:10148800BDDF010859080108000000000000000045
:1014980000000000010000000060024010600240EF
:1014A8000000000000000000000B00000000000029
:1014B80000000000000000000060024028600240B8
:1014C8000100000000000000060C00000000000001
:1014D8000000000000000000006002404060024080
:1014E8000200000000000000100D000000000000D5
:1014F8000000000000000000006002405860024048
:101508000300000000000000160E000000000000AC
:10151800000000000000000000600240706002400F
:101528000400000000000000200F00000000000080
:1015380000000000000000000060024088600240D7
:101548000500000000000000261000000000000058
:10155800000000000000000000600240A06002409F
:10156800060000000000000030110000000000002C
:10157800000000000000000000600240B860024067
:101588000700000000000000362F000000000000E7
:1015980000000000000000000064024010640240E7
:1015A80000000000000000000038000000000000FB
:1015B80000000000000000000064024028640240AF
:1015C80001000000000000000639000000000000D3
:1015D8000000000000000000006402404064024077
:1015E8000200000000000000103A000000000000A7
:1015F800000000000000000000640240586402403F
:101608000300000000000000163B0000000000007E
:101618000000000000000000006402407064024006
:101628000400000000000000203C00000000000052
:1016380000000000000000000064024088640240CE
:101648000500000000000000264400000000000023
:10165800000000000000000000640240A064024096
:1016680006000000000000003045000000000000F7
:10167800000000000000000000640240B86402405E
:1016880007000000000000003646000000000000CF
:10169800000000000000000094F20508A4EF05080F
:1016A800000000001D070108A086010004000000DA
:1016B8000000000000000000000000000000000022
:1016C8000000000000000000000000000000000012
:1016D800000000000000000094F205089CF20508D4
:1016E8000000000075650108E80300000400000020
:1016F80000000000000000000000000000000000E2
:1017080000000000000000000000000000000000D1
:10171800000000000000000074DF0508A4F20508BE
:1017280000000000918303087D000000060000000F
:1017380000000000000000000000000000000000A1
:101748000000000000000000000000000000000091
:101758000000000000000000ACF2050800000000D6
:101768000000000021C80108E80300000300000091
:101778000000000000000000000000000000000061
:101788000000000000000000000000000000000051
:101798000000000000000000B0F205080000000092
:1017A80000000000A56B04081027000003000000DB
:1017B8000000000000000000000000000000000021
:1017C8000000000000000000000000000000000011
:1017D80000000000000000006C2E06080000000059
:1017E80099010408FDB601085F76000005000000B5
:1017F80000000000000000000000000000000000E1
:1018080000000000000000000000000000000000D0
:101818000000000000000000C42E060800000000C0
:10182800000000006DD6010810270000010000002C
:1018380000000000000000000000000000000000A0
:101848000000000000000000000000000000000090
:101858000000000000000000BCF2050800000000C5
:101868000000000079650108E80300000500000099
:101878000000000000000000000000000000000060
:101888000000000000000000000000000000000050
:101898000000000000000000C8F205080000000079
:1018A80000000000290F0108204E0000030000007E
:1018B8000000000000000000000000000000000020
:1018C8000000000000000000000000000000000010
:1018D8000000000000000000D8F205080000000029
:1018E800000000002D0D0108204E0000030000003C
:1018F80000000000000000000000000000000000E0
:1019080000000000000000000000000000000000CF
:101918000000000000000000E8F2050800000000D8
:1019280000000000B5CC0108400D030003000000D2
:10193800000000000000000000000000000000009F
:10194800000000000000000000000000000000008F
:10195800000000000000000060C60508000000004C
:10196800000000006DC501081027000001000000FC
:10197800000000000000000000000000000000005F
:10198800000000000000000000000000000000004F
:101998000000000000000000ECEC0508000000005A
:1019A80000000000E11903081027000003000000F0
:1019B800000000000000000000000000000000001F
:1019C800000000000000000000000000000000000F
:1019D8000000000000000000F8F205080000000008
:1019E800000000004DE00208A08601000100000090
:1019F80000000000000000000000000000000000DF
:101A080000000000000000000000000000000000CE
:101A1800000000000000000000F3050800000000BE
:101A280000000000916A010850C300000100000096
:101A3800000000000000000000000000000000009E
:101A4800000000000000000000000000000000008E
:101A58000000000000000000A8DB050800000000EE
:101A680000000000BD670108A86100000100000037
:101A7800000000000000000000000000000000005E
:101A8800000000000000000000000000000000004E
:101A9800000000000000000008F305080000000036
:101AA80000000000B9580308A086010001000000EA
:101AB800000000000000000000000000000000001E
:101AC800000000000000000000000000000000000E
:101AD800000000000000000088C6050800000000A3
:101AE80000000000E9910108A00F000001000000BB
:101AF80000000000000000000000000000000000DE
:101B080000000000000000000000000000000000CD
:101B1800000000000000000014F3050800000000A9
:101B280000000000AD480308102700000100000075
:101B3800000000000000000000000000000000009D
:101B4800000000000000000000000000000000008D
:101B5800000000000000000088E605080000000002
:101B680000000000C53C03081A4100000100000005
:101B7800000000000000000000000000000000005D
:101B8800000000000000000000000000000000004D
:101B9800000000000000000068DB050800000000ED
:101BA80000000000F9E8010810270000010000000B
:101BB800000000000000000000000000000000001D
:101BC800000000000000000000000000000000000D
:101BD8000000000000000000B0EF05080000000051
:101BE80000000000D58902081A4100000100000029
:101BF80000000000000000000000000000000000DD
:101C080000000000000000000000000000000000CC
:101C1800000000000000000020F30508000000009C
:101C2800000000005DEF0108400D03000000000007
:101C3800000000000000000000000000000000009C
:101C4800000000000000000000000000000000008C
:101C5800000000000000000028F305080000000054
:101C68000000000031650108400D0300000000007D
:101C7800000000000000000000000000000000005C
:101C8800000000000000000000000000000000004C
:101C9800000000000000000030F30508000000000C
:101CA800000000002D53030850C30000030000008B
:101CB800000000000000000000000000000000001C
:101CC800000000000000000000000000000000000C
:101CD80000000000000000003CF3050800000000C0
:101CE80000000000A10C010840420F0000000000A5
:101CF80000000000000000000000000000000000DC
:101D080000000000000000000000000000000000CB
:101D1800000000000000000048F305080000000073
:101D2800000000000DD0010850C3000000000000B2
:101D3800000000000000000000000000000000009B
:101D4800000000000000000000000000000000008B
:101D580000000000000000000000803F602E060820
:101D68000000080205030300682E060801000802A7
:101D78000504030064F205080200FE0101100300D7
:101D8800BCDC05080300140200030000702E0608DE
:101D980004001F0201000800782E060805001F0233
:0C1DA80001010800FFFF0000FFFFFFFF2B
:1080000003685A1C02601970704700BF2DE9F047E1
:10801000089C2578002B804689460CBF4FF0200A2B
:108020004FF0300A661C25B3002A26DD334601E0F6
:10803000024698B113F8011B501E0029F8D1971E73
:1080400060B13D46013D51464046C8476B1C002B80
:10805000F8DC257827EAE770013045B1041B294692
:108060004046C847301916F8015B002DF7D1BDE82E
:10807000F087002A03DC2846F9E70020EEE7571EC8
:10808000DFE700BF2DE9F04714461D4606464FF4D2
:108090007A720023204629464BF036FD4D4BDFF81F
:1080A00048814D4A4D4F034488FB03101844D917AB
:1080B00082FB032CC1EB601088FB002887FB0327A1
:1080C0009C44474AC1EBEC2CC0EB001E82FB0C2900
:1080D000A3EB8E0E1F44434A86F806E0C1EB274708
:1080E0004FEAEC7E08EB000ACEEBA90E82FB07827A
:1080F0004FEAE0780EEB4E0EC8EB6A18ACEBCE0CF4
:10810000C8EB0818DFF8E4E086F804C0A0EB8800AC
:1081100070718EFB0303F817C0EBE21240F2B5500A
:1081200000FB1272C1EBE353B2F5896F4FEA83078C
:108130003CDA40F2DA239A4242DCB2F5B77FB4BFB0
:108140004FF0000E4FF0010E4FEA4E09DFF8A0800D
:1081500009EB0E0308EBC3031FFA8EFCD88A09EB68
:108160000E0108EBC10116310B2301E031F8020DBD
:10817000904218DD013BF9D1CE44012338F83E008E
:10818000B37007F5FA670132121ABC44F270A6F810
:1081900000C0204629464FF47A7200234BF0B4FC0D
:1081A0003281BDE8F0870133DBB2E9E74FF0030C21
:1081B000E64640F29650DFF838804FF00609CEE7E9
:1081C0004FF0020CDFF82880E64640F229404FF0DD
:1081D0000409C4E780BC92C7C5B3A29107452EC26B
:1081E000ABAAAA2A73B06D1689888888792D0311E5
:1081F000385705080028F0B403DA2D230B704042ED
:108200000131092804464FF0010307DD03EB830326
:108210005B00B0FBF3F2092AF8D883B10F48A0FB4A
:108220000326B4FBF3F2092A02F1570C02F13007DE
:1082300009DD03FB1244F30801F801CBEFD1002361
:108240000B70F0BC704703FB1244F30801F8017B8C
:10825000E5D100230B70F0BC704700BFCDCCCCCC77
:10826000884270B44FF0010442D301FB04F4B0FB28
:10827000F4F58D42F9D2ECB142BB092D04FB150097
:1082800005F1570605F130020EDDB4FBF1F403F8F9
:10829000016B7CB1B0FBF4F5092D04FB150005F171
:1082A000570605F13002F0DCB4FBF1F403F8012BC2
:1082B000002CEFD100221A7070BC704703F8016BDC
:1082C000B4FBF1F4002CF5D0B0FBF4F5092D04FB60
:1082D000150005F1370605F13002EFDCB4FBF1F4CF
:1082E00003F8012B002CEFD100221A7070BC7047EC
:1082F0000546002AEAD1C0E790ED057A90ED004AE4
:10830000D0ED066AD0ED014AD0ED047A90ED035A23
:10831000D0ED025AA4EE007AB0EE406AB0EE470A01
:10832000B0EE667AA4EE867A67EEC07AA5EE407A61
:10833000E5EE867A80ED057AC0ED067A704700BFDB
:10834000D0ED057A90ED013AD0ED003AD0ED064A35
:1083500090ED024A90ED077A90ED035A90ED086A8D
:10836000D0ED045AC0ED067AF0EE406A27EE830A9B
:10837000C0ED056AA3EEA60A80ED087AA4EE240AF1
:10838000A5EE470AA5EEC60A80ED070A704700BFB2
:10839000D0ED007A90ED017A30EE670AE7EE007AD0
:1083A000B0EE670AC0ED007A704700BF704700BFAB
:1083B00030B414220023342503240221C270012288
:1083C0008571C4710370C3728373C373417041724A
:1083D00082700272827230BC704700BF06224FF476
:1083E0007A7302704360704730B432230122312522
:1083F0004FF60174FF21437000234571048281749C
:1084000002720270027143818381C38130BC704764
:10841000144BFF22F0B54FF0FF34C27002710272AC
:1084200042724273827303F10C0EA446172716267C
:108430001525002202EB820281189E4585544E705C
:108440008F7081F803C00C710AD093F90620DD7992
:108450001E7A5F7A93F90AC093F90B400633E9E775
:10846000F0BD00BF9857050810B42C21012402224A
:108470000023047041708270C3705DF8044B704734
:10848000034600F11001FF221A705A7002338B422A
:10849000FAD1027042708270C270027142718272AF
:1084A000C272704730B41D6995420AD314460A4619
:1084B00021448D42996938BF2A1B214430BC4BF0BE
:1084C000C1BD30BC704700BF00207047012070471D
:1084D00001207047002070474FF40070024B10607D
:1084E0009B680B6000207047C0BA0020013A30B48E
:1084F000D2B28C1C04EB42040025020F092AD3B22D
:1085000003F130028ABF37330A700B704D700231AD
:108510008C424FEA0010F0D130BC70470B4A0C4B34
:1085200010681B681A22C0180A8001D109487047D8
:1085300010B5094B09491C680822FFF7D7FF2046F0
:1085400004220749FFF7D2FF024810BDE8F7FF1FDA
:10855000ECF7FF1F88010020EAF7FF1F8A010020C7
:108560009A01002004230B8000487047A4010020DA
:1085700012230B8000487047A80100201F2203230C
:1085800002704370704700BF08307047704700BFEB
:10859000816170476D4B2DE9F04F1C686C4BB3F84F
:1085A0000AE0B3F804809A894FEA0E2AB4EB0A0471
:1085B0004FEA1E6B4FF0000587B065EB0B05CDE968
:1085C00000450746009C1889019EA0FB044500FB5E
:1085D0000655E00940EA45604FEA08448C46E91137
:1085E0004FEA184510EB0408D888009C41EB0509B8
:1085F000CDE90489A0FB0445B3F8028000FB0655D1
:10860000200A40EA05604FEAC83429124FEA58456B
:1086100010EB040841EB05090099A2FB010102FBE4
:1086200006114FEAD05A4AEA412A1AF5FA634FEA8C
:10863000E15B4BF10004B3F5FA6FCDE9023474F15C
:108640000003424E64DA0524AAFB040104FB0B116B
:1086500000FB0BF40AFB0144DDE90423A0FB0A0143
:1086600021444D104FEA3004121B4FEA900463EB93
:10867000050344EA8174B8EB0408CDE90423DDE97D
:10868000023434484FEAA10569EB05094FF0FF3188
:10869000834274EB010326DA40F6AC501AEB000279
:1086A0004FF000014BEB010302FB03F1A2FB02239D
:1086B00003EB4103D400DD00101B45EA527563EB68
:1086C0000501DDE9044524184D41CDE904450B249D
:1086D000A2FB040104FB031149104FEA3000B8EB80
:1086E000000869EB0109DDE900325343009ADDE936
:1086F0000201A2FB02AB0BEB430B4FEADA7242EA38
:108700004B02801A4FEAEB7361EB0301CDE90201E2
:1087100097B17168A1FB082301FB0933540D5D1566
:1087200044EAC324DDE90423A21A65EB03031D46D2
:10873000D30B43EA45433B60BCF1000F02D0029BE0
:10874000CCF8003007B0BDE8F08F00BFC81600209D
:10875000787B002024FAFFFF2DE9F04FDFF8DCC121
:10876000754CDCF808502288B4F90AA0C2EB251336
:108770005200C2EBE502B4F902505B436A43B4F91C
:1087800004501B135D43AD1305EBE225B5F5FA323A
:108790004FEAE57B85B04BF1FF33CDE90023DDE9FE
:1087A00000325343009AA561A2FB0289CDE9020180
:1087B000B4F908200199009809EB43095143D317F4
:1087C00000FB0311A2FB00230B444FEAEA7B0AFBE8
:1087D00009F11F0308FB0B13AAFB080119444FEA18
:1087E000102A4AEA016A16034FEA212B47EA125778
:1087F0001AEB0602E6884BEB070312F1000A43F579
:10880000004BAAFB060106FB0B114A10CB1752EADC
:10881000030100F08E80B4F91060009806FB09F1A6
:10882000F71708FB0711A6FB08673944B4F90E8057
:108830008B4601994FEAE87908FB01F100FB091129
:10884000A8FB00898944DCF80C104FEA4947C1F5C0
:10885000801C47EAD837B2464FEA4846B4F90C8044
:108860001AEB060A66464BEB070BF7174FEAC806EA
:10887000019600260096F907DDE900674FEACC7003
:1088800016EB0A0647EB0B0741EA5C01801B61EB24
:10889000070140F6354C8946A0FB0C010CFB091181
:1088A0004BF032F9B4F91620B4F914A04E13470B6B
:1088B00047EAC14702FB06FCD31707FB03CCA2FB28
:1088C00007236344564307FB0366A2FB0723334495
:1088D000560E46EAC31632184FEA636747EB0103A8
:1088E00080460AFB01F14FEAEA7B08FB0B17AAFB63
:1088F00008013944C60C46EA413612EB06084FEA35
:10890000E147B4F9122043EB07094FEA182141EA85
:10891000096113010B44029A0AB11B0A1360039BFD
:1089200023B105EB850580352D121D6005B0BDE82E
:10893000F08F0023EFE700BF8C7B0020C8160020DB
:10894000704770474FF4006303847047012380F839
:1089500058307047F0B4037C456902681F2B37D943
:10896000203B2021546899400C4223D010249C4085
:10897000D160D4605168D940CE074ED4EFF3118353
:10898000502282F31288EA6B1168C90709D454682F
:10899000002C52D1D5E909618E4243D1012285F8DC
:1089A0006020DBB283F31188037C02681F2B194619
:1089B00014D9203B082150689940084200D0D1606A
:1089C0000421506801FA03F3184223D1F0BC704728
:1089D000202416689C4026420FD1194608231068AF
:1089E0008B40184200D093600423106803FA01F111
:1089F0000842EBD09160F0BC704710219940946020
:108A000091601168D940CC07B8D5012101FA03F370
:108A10009360B3E7D360F0BC7047012101FA03F320
:108A2000D360ABE7AF690F44D7600ED82E69711AD7
:108A30005160AC62002185F86010116841F00101BD
:108A4000DBB2116083F31188AEE7711A5160AE6238
:108A5000F0E700BF2DE9F041B14DB24C2A78237800
:108A60009A4240F01B81B04B1A78002A7CD0AF4B61
:108A70001E78AF4B002E79D11968B3F82C714E6275
:108A80008889012A40EA07008881A3F82C6157D021
:108A9000D3F83011B3F85C724E628889022A40EA3A
:108AA00007008881A3F85C624AD0D3F86012B3F85B
:108AB0008C734E628889032A40EA07008881A3F8F4
:108AC0008C633DD0D3F89013B3F8BC744E628889A0
:108AD000042A40EA07008881A3F8BC6430D0D3F8A8
:108AE000C014B3F8EC754E628889052A40EA070085
:108AF0008881A3F8EC6523D0D3F8F015B3F81C7780
:108B00004E628889062A40EA07008881A3F81C671C
:108B100016D0D3F82017B3F84C784E628889072A0C
:108B200040EA07008881A3F84C6809D0D3F85028A0
:108B3000B3F87C095662918901439181A3F87C695D
:108B40002A7823789A420FD07A481F469B003B44EC
:108B50009B00C218C3583BB9137A2BB9537A1BB97F
:108B60007B1C03F003032370BDE8F0815E68198964
:108B700071603768186847F0010740F20D313760BF
:108B8000A0F848108689012A46F480768681D7D0DD
:108B9000D3F83461B3F83871D3F8300177603768AF
:108BA00047F001073760A0F848108689022A46F48A
:108BB00080768681C4D0D3F86462B3F86872D3F843
:108BC00060027760376847F001073760A0F8481007
:108BD0008689032A46F480768681B1D0D3F89463DF
:108BE000B3F89873D3F890037760376847F00107BC
:108BF0003760A0F848108689042A46F4807686817A
:108C00009ED0D3F8C464B3F8C874D3F8C0047760B6
:108C1000376847F001073760A0F848108689052AB1
:108C200046F4807686818BD0D3F8F465B3F8F87576
:108C3000D3F8F0057760376847F001073760A0F890
:108C400048108689062A46F4807686813FF478AFFC
:108C5000D3F82467B3F82877D3F82007776037680C
:108C600047F001073760A0F848108689072A46F4C4
:108C7000807686813FF464AFD3F85428B3F858085F
:108C8000D3F850385060106840F001001060A3F82D
:108C900048109A8942F480729A8151E780460FF019
:108CA0009DFF27782B78BB4286461DD0BB0021480C
:108CB000DA1900EB8202167AC6B1B8F1000F3DD086
:108CC0001D490022B1F808C00132BCF1000F18BFE5
:108CD0000026424501F58071F4D17EBB124A12781C
:108CE000002A3FF434AFC2E61248BB003B449B006D
:108CF000C118C258AEEB0202002AFFF635AF4A7A1D
:108D00003AB1013AD2B24A7212B30EF57A72C25037
:108D100000E0C250044B1A78002A7FF4A8AE0FE797
:108D200048E4002049E4002058300010543000107E
:108D300060D100204CE4002060C90020DA199200C4
:108D40000EF51C5186181031815000223272C5E791
:108D50004A687244C250DDE710B5027C01681F2AE0
:108D60004FF020030ED94C68203A93401C4208D0A3
:108D70000B4A406800241470026822F0010202606D
:108D8000CB6010BD0C6893401C42FAD0044A406886
:108D900000241470026822F0010202608B60F0E788
:108DA000B38A00202DE9F041C40023189B00B74985
:108DB000CA585268958AADB2EFB2FE070B4461D42F
:108DC000BE0737D5BFF35F8F1D7EEDB2012D00F0DA
:108DD000BB80AF4E138BBFF35F8F231801EB830370
:108DE0001D7E022D00F0CE80231801EB83031D7E33
:108DF000032D05D19B7E1BB1737C002B40F01A81A3
:108E0000938896F910C043F480639380231801EB94
:108E100083031B7E013363450AD1B37C002575743F
:108E2000002B40F08A80204401EB80000023437532
:108E3000BDE8F081964E17F0040F96F910C04DD1A1
:108E400017F0400700F0B280178A1D6AFFB205F8DC
:108E50000C705FFA8CF56F1C93F818E07BB2DF1C86
:108E6000BE4533749C4600F00981271801EB870743
:108E70003F7EBB42CAD105F1020C4FFA8CFC86F84A
:108E800010C0C3E71588824E25F400652D042D0C13
:108E90001580158845F4806515809D7E0027377400
:108EA000002D3DD0757C002D37D0231801EB8303B6
:108EB00001251B7E7574022B03D1138843F40063D4
:108EC0001380231801EB83039B7D43F0010313827E
:108ED000204401EB8000037EBDE8F0819F7E757C1D
:108EE0004FF0010E86F812E0002F5CD0002D78D1F3
:108EF000231801EB83035B7E002B00F0A480138812
:108F00000CF1010C4FFA8CFC43F4007386F810C08E
:108F100013801388DF05FCD478E7DB7DFF2BC4D0FA
:108F2000231801EB83039D7D05F0FE051582DB7D93
:108F3000FF2BCDD0FF233374CAE7938823F440730B
:108F40001B041B0C93806EE79B7E514E002B3FF45D
:108F500041AF737C002B3FF43DAF138823F4806353
:108F60001B041B0C1380BFF35F8F138B1388B57426
:108F700043F400731380938896F910C043F4806320
:108F8000938043E79B7E002B3FF42EAF737C002B36
:108F90003FF42AAF138896F910C023F480631B04B2
:108FA0001B0C138016E0002DA2D0A8E72D067FF53C
:108FB0002DAFBCF1FF3F6DD0DD6915F80C50158267
:108FC0000CF1010C1D7E4FFA8CF39D429C463374CC
:108FD0007FF41CAF938823F480631B041B0C9380E5
:108FE00014E71F7ED3F820805FFA8CF5AE44022F81
:108FF0004FFA8EFE17882DD927F480673F043F0C67
:109000001780178AFFB208F80C701788D3F820C0B1
:1090100047F400731380138ADBB20CF80E30938888
:1090200005F1020C4FFA8CFC43F4806386F810C003
:1090300093806EE7938896F910C023F480631B0435
:109040001B0C9380E2E61388012543F480731380A0
:1090500075745EE747F400771780178AFFB208F847
:109060000C70178AD3F8208005F1030C4FFA8CFCA2
:10907000FBB286F810C008F80E304AE7978827F44C
:1090800080673F043F0C9780EFE600BF304100202F
:10909000C8160020DD7D15829D7E37741DB91B7EAC
:1090A000002B7FF415AF938823F480631B041B0C03
:1090B00093800DE747F080BF014B186810F090B81F
:1090C000F845002038B51D4B1B78044600F12505F6
:1090D00093B104221A4920304CF018FB2846142280
:1090E00018494CF013FB012384F83A30164B1B78D7
:1090F00073B984F83B3038BD2846142213494CF02C
:1091000005FB012384F83A300F4B1B78002BF0D07D
:109110000F4B186859689A68DD68E56020606160E7
:10912000A260DD69186959699A69A2610123E56144
:109130002061616184F83B3038BD00BF09410020E7
:10914000D8400020C04000200A41002038C4050853
:10915000E04000200023012282710360037143710B
:10916000C37170472DE9F84FDDE90A648946174657
:1091700000212022984605464CF08AFA5EB1D6E9D5
:1091800000327189EB81C3F30F432B82C2F30F438B
:10919000EA822B836982484649F0C0FF17F0100B22
:1091A00010D1431E70B119F803202E2A18BF09EB05
:1091B000030104D14AE011F8016D2E2E3ED013F1C7
:1091C000FF33F8D208280246CA46A8BF08224FF04B
:1091D000000B4FF020336B602B60C5F80730494619
:1091E000284605F108064AF02DFF5A4651463046FA
:1091F0004AF028FF6B1EE81D13F8012FA2F1610150
:1092000019299CBF203A1A708342F5D105F10B0150
:1092100016F8013BA3F16102192A9CBF203B06F816
:10922000013CB142F4D11823C8F30F42EF722B7303
:10923000A5F81A80AA82EC61BDE8F88FC01A00F187
:10924000FF3BBBF1030FA8BF4FF0030B082B03F14B
:10925000010AA8BF0823CA441A46BAE738B52E2225
:1092600000214CF015FA034640F2DC51642040F234
:109270001A4240F2022418745982132019219A824A
:1092800040F2753240F26C751C8398760E240A20E9
:109290001977DA8302210122DD8283F82D0040F65E
:1092A0004305197283F82C1083F822409A7383F8CF
:1092B000252083F82B201D8419460248BDE838403C
:1092C00025F0F2BC48C4050810B500210446012071
:1092D0000EF07CFF207010BD38B500240472451ECE
:1092E000E1B202200EF072FF0134082C05F8010FE4
:1092F000F6D138BD38B500240546048021462846FD
:1093000001342CF0D9FC082CF8D1002185F8E210AA
:10931000A5F8E410A5F8E610A5F8E810A5F8EA10FD
:10932000A5F8EC10A5F8EE10A5F8F010A5F8F210CD
:109330002846BDE838402CF081BC00BF2DE9F04F35
:10934000002087B00C461D460121924612F08AF992
:10935000002D63D005EB0A03DFF8D094DFF8D0B41A
:10936000039355461CE0002D00F0C581D9F8143058
:10937000AB4264D0D9F81030AB4200F09780D9E905
:109380000631AB4252D8A94200F26F81691A2046D9
:1093900041F0F4FD039B01359D4204F500743DD07E
:1093A000D9F82060AE42DED8D9F83080AE1B4FEA43
:1093B000D60AD8F830300AF1020A9A4506F00706B4
:1093C00003D3D8F838309A4509D94146504641F080
:1093D000A3FD8046002800F04D81C9F8300098F8C0
:1093E0000430002B40F0E280D8F82870002F00F005
:1093F000DF81D8F83030D8F80C20AAEB030A06EB4E
:10940000CA0A4346204602EB4A224FF40071B8478D
:10941000039B01359D4204F50074C1D1002108462B
:1094200012F020F9002007B0BDE8F08FA942ADD9B5
:109430004FF40072002120464CF02AF9AAE752228C
:1094400061204123002622706270A070722284F88D
:10945000E70184F8E631D9F82800E3704FF0FF33D4
:10946000314684F8E42184F8E521C4F8E8014FF49A
:10947000F07284F8EC3184F8ED3184F8EE3184F840
:10948000EF31201D4CF004F955216FF05502C4F85E
:10949000F061C4F8F461C4F8F86184F8FC6184F800
:1094A000FD6184F8FE1184F8FF2173E74FF4007228
:1094B000002120464CF0ECF8D44BD54F03CBEB23E6
:1094C000022223704FF0080C9026F8234FF0580E1C
:1094D000C4F80300227484F80DC0C4F8071084F89F
:1094E00001E0A6706375D9F81010D9F80830D9F8E2
:1094F0001C602273591A21624FF0FF3100233F2074
:10950000A1763E21A273E372E3736374A374E374E0
:109510002375A375E3756376E3766377A377E377C3
:109520002076217784F82C2007CFD9F8187084F89A
:109530002830F61B84F8293084F82A3084F82B3040
:1095400084F82D3084F82E3084F82F3084F83130B0
:1095500084F8323084F8333080236662C4F84700E0
:1095600004F1470684F8403029209423A94F84F859
:1095700046C084F8420084F843300E200D234FF09B
:10958000010C84F8440084F8453084F830C07160E0
:1095900003CF33465527AA269A60C4F85200C4F870
:1095A000561084F8FE7184F8FF61F3E64FF4007200
:1095B000002120464CF06CF8D8F84030002E61D1E4
:1095C00004F12007002B77D0D8F8303092491122CF
:1095D000CDE900662046FFF7C5FDD8F840301A6C8B
:1095E00004F1400A002A79D01B6B8C49CDE9006652
:1095F00038461122FFF7B6FDD8F84460002E3FF43C
:10960000C9AE4FF4E078CDE904450CE00024CDE983
:1096100000C4FFF7A7FDB66CBA46A8F120080EB348
:10962000B8F11F0F1ED93468356B96F804E011228B
:109630002B46214650460AF1200706F11C0CBEF1CC
:10964000000FE3D172793369019342F021022B4676
:10965000CDF800C0FFF786FDB66CBA46A8F1200829
:10966000002EDDD1DDE9044594E6E91A204641F0FB
:1096700085FC8FE6231F04F5FE7243F804BF9A426F
:10968000FBD187E6002BD8F844200CBF012302232E
:10969000C3EB0613002A3FF47DAE966C013B002E0F
:1096A0003FF478AE013BB66CF9D1002E3FF472AEB8
:1096B000A2464FF40078A6E7CDE900663346D9F814
:1096C0000C1008222046FFF74DFDD8F84460002E0C
:1096D0003FF460AEBA464FF4F07894E7CDE9006607
:1096E0003346384611224D49FFF73CFDD8F8446017
:1096F000002E86D14EE64FF40072294620464BF0EC
:10970000C7FF80220C2384F8BE2184F8C231D9F827
:109710001000434BD9F8086084F8B85183FB00323D
:10972000C117C1EB2232B2F5806F84F8B95184F8C9
:10973000BA5184F8BB5184F8BC5184F8BD51C4F8C7
:10974000C601C4F8CA6142DBFF2384F8BF3184F844
:10975000C13184F8C031324B711E83FB0132CE1708
:10976000C6EB2232B2F5806F29DA2E4B84F8C52180
:1097700083FB01030B442C48C6EB6313C3EB831636
:1097800080FB0370891B1844DE17921022F03F0201
:109790000131C6EBE0100A43034484F8C42184F885
:1097A000C3315522AA2384F8FE2184F8FF31F1E564
:1097B00039464FF4007220464BF06AFFEAE5FF237A
:1097C00084F8C33184F8C53184F8C431E9E7154B16
:1097D00084F8C12183FB00730344134FC1EB63136F
:1097E00087FB0317C3EB831C9110A0EB0C02F81846
:1097F000DF1721F03F010132C7EBE0100A430344B9
:1098000084F8C02184F8BF31A5E700BF5CC4050817
:1098100068C4050878C4050854C4050858C4050878
:10982000975545418320088281808080C0BA0020FE
:10983000DEADBEEF08B5012017F0B4FF174A9368FC
:1098400003F00C03042B1ED0082B18D15168536869
:10985000490203F03F0319D452681148B0FBF3F0FA
:10986000C2F3881300FB03F00C4B0E4A5B68C3F392
:10987000014301335B00B0FBF3F0106008BD094BFE
:10988000074A1A6008BD074B186008BDB0FBF3F02B
:109890005368C3F3881300FB03F0E5E70038024088
:1098A0000024F400E0DA002010B5044C04480A4615
:1098B000214616F063FC204610BD00BFDC160020D8
:1098C00084C4050810B5044C04480A46214616F025
:1098D00055FC204610BD00BFDC16002094C40508CE
:1098E00010B5044C04480A46214616F047FC2046B1
:1098F00010BD00BFDC160020A0C405080A4608B54C
:10990000054920B1054816F039FC034808BD044854
:1099100016F034FC004808BDDC160020CCC4050855
:10992000B4C4050830B5437F83B004461BB9012099
:10993000637703B030BD052502236A4601A900689C
:10994000ADF8045013F064FD9DF8013003F00103FD
:1099500083F00100637703B030BD00BFF8B5074C5A
:1099600005460F46266803E023689B1BBB4204D8CC
:109970002846FFF7D7FF0028F6D0F8BD10B4002026
:1099800010B545F2082182B00446FFF7E7FF02A9AF
:10999000062301F8023D206840F018FF02A9C72302
:1099A00001F8013D01232068637740F00FFF02B00A
:1099B00010BD00BF10B5027F84B000230446D8203C
:1099C00002938DF80C308DF80800EAB10B0E8DF87B
:1099D00009300DF10A030A0A080C5A7099701870C0
:1099E00041F288312046FFF7B9FF04A9062301F8A8
:1099F000093D206840F0EAFE012302A96377206850
:109A000040F0A0FE04B010BD0DF10903E3E700BF74
:109A1000F8B584894FF6FF764FF47A7433B319B3EF
:109A20000F78013101E0B44218D00589013CAD073F
:109A3000A4B2F8D5BCB284814FF47A7402E0BCB20F
:109A4000B4420BD00589ED0704F1FF37F7D58589BE
:109A5000ADB20AB115700132013BDFE713F0B6FC7D
:109A6000003018BF0120F8BDFF27DEE70120F8BD58
:109A7000F0B5077F83B004464FF0030C0020009040
:109A800016461D468DF804008DF800C04FB30B0E2E
:109A90008DF801300DF10203080C0A0A9970187054
:109AA000062120465A70FFF759FFC0B1206813F015
:109AB0007DFC237F2268002B14BF05230423694605
:109AC00050680022FFF7A4FF23683246586800213F
:109AD0002B46FFF79DFF206813F062FC284603B079
:109AE000F0BD0DF10103D7E7F0B5077F836985B0BD
:109AF00004464FF0020C002002900E4615468DF8E9
:109B00000C008DF808C0002F33D01A0E8DF80920F4
:109B10000DF10A02180C1F0A93701070577006217D
:109B20002046FFF71BFF04A9062301F8093D206822
:109B300040F04CFE01236377206813F037FC237F4D
:109B40002268002B14BF0523042302A950680022B9
:109B5000FFF75EFF23683146002258682B46FFF767
:109B600057FF206813F01CFCA2692A44A26105B0CB
:109B7000F0BD0DF10902CDE710B4144681611A461B
:109B800021465DF8044BAFE7F0B5076A83B006469F
:109B900017B13B68BA885A837069DFF8A8E08389F7
:109BA000C3244FF47A734FF0060C6D464FF6FF71E5
:109BB0000EF1010E03E0013B9BB28B4220D00289E3
:109BC0009207F8D5A3B283814FF47A7302E0A3B26F
:109BD0008B4215D00289D20703F1FF34F7D5828971
:109BE00092B20DB12A700135BCF1000F0BD00CF10F
:109BF000FF3CFF24BEF1000FE1D09EF80040D7E704
:109C000013F0E4FB376A17B13B68BA881A839DF8F2
:109C100005009DF801509DF802109DF803409DF845
:109C200004209DF8063041EA052143EA002342EA78
:109C300004220120A6F85810A6F85A20A6F85C3095
:109C400003B0F0BDAC57050810B500F10C040022BC
:109C50002121204647F02AF8FC222021204647F007
:109C600025F840222421204647F020F80C22232109
:109C7000204647F01BF800222221204647F016F824
:109C800064200FF05BF8012010BD10B500F10C044A
:109C900001220B21204647F009F820B11D2209219D
:109CA000204647F003F800F0010010BD10B500F1A8
:109CB0000C0470220021204646F0F8FF20220121EA
:109CC000204646F0F3FF00220221204646F0EEFF38
:109CD00064200FF033F8012010BD0122482146F026
:109CE000E5BF0122582146F0E1BF3122F42146F0C0
:109CF000DDBF13B506230C466A4628210C3013F04D
:109D0000DDFBF0B19DF801309DF8002042EA03220E
:109D100004219DF8033012B292FBF1F222809DF8EB
:109D2000022042EA032212B29DF8043092FBF1F2C3
:109D300062809DF8052043EA02231BB293FBF1F3F6
:109D4000A38002B010BD7FB5002500F10C060C46C3
:109D50000D804D808D8001230DF1070206213046D4
:109D600013F0ACFB10B9002004B070BD9DF80730B3
:109D70005B07F8D5062302AA2946304613F09EFB5E
:109D80000028F0D09DF809209DF8083043EA02230E
:109D900023809DF80B209DF80A3043EA022363805C
:109DA0009DF80D209DF80C3043EA0223A380DBE7E9
:109DB00013B506230C466A4603210C3013F07EFBD4
:109DC000A0B19DF800209DF8013043EA02232380D2
:109DD0009DF802209DF8033043EA0223A3809DF8FA
:109DE00004209DF8053043EA0223638002B010BDD1
:109DF00007B5032301AA002113F060FB9DF805308D
:109E00009DF804001B0243EA00439DF80600184336
:109E100003B05DF804FB08B5FFF7EAFF014B58609B
:109E200008BD00BFC816002008B5FFF7E1FF014BD1
:109E3000186008BDC816002007B506236A46F7213A
:109E400013F03CFB9DF801309DF800100B4A1B01FC
:109E500043EA01339DF8021043EA1113D3609DF8E1
:109E600004309DF803101B0143EA01339DF80510EF
:109E700043EA1113936003B05DF804FBC816002099
:109E800070B582B0044606230C306A463B2113F0BD
:109E900015FBA8B19DF804009DF800609DF8011025
:109EA0009DF802509DF803209DF8053041EA0621F7
:109EB00043EA002342EA05226184A284E38401206C
:109EC00002B070BD2DE9F04F87B0A94A02904068FA
:109ED000038823F040031B041B0C0380038823F03A
:109EE00038031B0490424FEA134300F03F8102F510
:109EF000806290420CBF3022382213430380029BC1
:109F000002881B6942F04002028013B11A689B88E4
:109F10005383838940F2E93302E0002B00F0908103
:109F20000289013B12F0020F9BB2F6D06B238381B2
:109F300040F2E93302E0002B00F082810289013B0C
:109F400012F0010F9BB2F6D08389838940F2E93386
:109F500002E0002B00F071810289013B12F0020F38
:109F60009BB2F6D08023838140F2E93302E0002BDC
:109F700000F063810289013B12F0010F9BB2F6D021
:109F80008389029B1B6913B11A689B88138306237C
:109F9000784CDFF8EC81DFF8ECA1774D774E049335
:109FA0009623DFF8E4C101934FF0100EDAF8043085
:109FB000C3F30803002B40F0B280EFF31183002BB2
:109FC00040F0AD802068AA6823689842FAD13368CF
:109FD0009A42F7D8D8F800704FF47A7101FB07F372
:109FE0009B1AB3FBF7F301FB00304FF47A774FF085
:109FF0000109DAF80430C3F30803002B70D1EFF342
:10A000001183002B6CD12368A96822689342FAD18E
:10A0100032689142F7D8D8F8002007FB02FBABEB7F
:10A020000101B1FBF2F107FB03131B1AB3F57A7FB1
:10A03000DFD3019B013B0193B8D1029B1B6913B194
:10A040001A689B885383029B586840F2E9338289DF
:10A0500002E0002B00F085800289013B12F0020F24
:10A060009BB2F6D0F523838140F2E93301E0002B67
:10A0700077D00289013B12F0010F9BB2F7D08389A0
:10A08000838940F2E93301E0002B67D00289013B6C
:10A0900012F0020F9BB2F7D0FF23838140F2E93325
:10A0A00001E0002B5AD00289013B12F0010F9BB254
:10A0B000F7D08389DBB20393029B1A6912B113684C
:10A0C00091881983039B682B60D0049B013B13F09C
:10A0D000FF0304937FF464AF184607B0BDE8F08F28
:10A0E000EFF311818EF31288D5F808B02B68DB03EB
:10A0F00044BFCCF80090D5F808B02368DCF8002005
:10A10000C9B281F31188D8F80010134407FB01F29B
:10A11000A2EB0B02B2FBF1F207FB032385E7EFF39F
:10A1200011838EF31288AF682A68D20303D5012207
:10A13000CCF80020AF682068DCF80090DBB283F335
:10A140001188D8F800104FF47A72484402FB01F3EA
:10A15000DB1BB3FBF1F302FB003046E713F036F9EB
:10A16000AAE713F033F9029B586889E73022C4E666
:10A170000038004010B4002010E000E018B40020C7
:10A1800014B4002000ED00E00CB4002012B11368FC
:10A1900092885A83029B586840F2E933828901E031
:10A1A000002B45D00289013B12F0020F9BB2F7D081
:10A1B0008C23838140F2E93301E0002B38D00289FF
:10A1C000013B12F0010F9BB2F7D08389838940F2E3
:10A1D000E9330289013B12F0020F9BB215D1002B2B
:10A1E000F7D113F0F3F8029B1B6913B11A689B882F
:10A1F0001383059B142B04D3182B17D9543B062B20
:10A2000014D9002007B0BDE8F08FFF23838140F20E
:10A21000E93301E0002BE4D00289013B12F0010F89
:10A220009BB2F7D08389DBB20593DCE7032054E7C8
:10A2300013F0CCF8029B5868C8E713F0C7F8A0E603
:10A2400013F0C4F8029B58687FE600BF037C0268E5
:10A250001F2B86BF203B51681168202202FA03F3AE
:10A260000B4214BF0123002303B970472DE9F043CB
:10A270004569DFF81C9283B02D0204460EF0AEFC57
:10A2800009EB050380461A7C002A31D16F4A5968D0
:10A2900010780A68C0B9C8685E89016821F00101B8
:10A2A0000160938923EA06039381694B1B78002B95
:10A2B00031D1237C21681F2B12D8202202FA03F30C
:10A2C0008B6003B0BDE8F08389690B6823F001035C
:10A2D0000B60938923F480731B041B0C9381E4E7C8
:10A2E0002022203B02FA03F3CB6003B0BDE8F083E9
:10A2F0005A6858481568D6685F8901225A743168CF
:10A30000036821F001013160AA89013322EA0702C2
:10A31000AA810360CDE709EB05034F495E6F3368FF
:10A3200023F001033360002333608E427360B36017
:10A33000F36033614FF02103736168D0474B9E4255
:10A3400060D0474B9E4266D0464B9E4268D0464BFB
:10A350009E426AD0454B9E426BD0454B9E426CD08C
:10A36000444B9E426DD03046019217F023F9019A7A
:10A3700009EB05070123283509EB050110463B745D
:10A3800017F068FAD7E912027B6B396D97F87050B5
:10A3900003431343D7E915200B431343F96DBA6EFA
:10A3A00003430B433068F96E1343334A0B430240B7
:10A3B0001343002139643360D7E918317269786C2E
:10A3C00022F007020B431343D7E90E12736170604A
:10A3D000B160F26033687A68786FD168126843F0D0
:10A3E0001003336045600B6843F001030B609389F1
:10A3F00079890B4393810EF0F1FB204BA0EB080011
:10A40000186056E74FF4746143F8201CB0E71C4B0A
:10A410003D219960ACE74FF4741143F8381CA7E76D
:10A420004FF0746143F8501CA2E7164943F8641CCE
:10A430009EE7154943F87C1C9AE7144943F8941C9D
:10A4400096E74FF03D5143F8AC1C91E754300010B3
:10A4500050300010749E00201060024028600240BE
:10A4600040600240586002407060024088600240D4
:10A47000A0600240B86002403F801CF0143200101F
:10A48000006002403D000020400F002000003D2001
:10A4900060C900208A4B1B78002B00F098800028B0
:10A4A00000F095802DE9F04F431E85B0854C01905A
:10A4B000032B4FF00006A8BF0323A4F11407039356
:10A4C000B0464FEA062A07EB0A03256E5B7C002B99
:10A4D0007ED06A6892B2002A65D114F8050CD4E9DE
:10A4E0001B13002800F0AA84603377485B1AA0FB96
:10A4F0000351890901EB4101A3EB4113182B00F132
:10A500007785173BA0FB0323DB0003F0F003D4E9BE
:10A510001D126D486032521AA0FB0251890901EBED
:10A520004101A2EB4112182A05D4173AA0FB0212EE
:10A53000C2F343021343D4E91F1263486032521A34
:10A54000A0FB0251890901EB4101A2EB4112182A3B
:10A550005EBF173AA0FB0212C2F34305D4E92112F1
:10A56000594802F16002A2EB0102A0FB02C14FEACE
:10A57000911101EB4101A2EB411248BF0025182ABD
:10A5800058BF173A45EA03155ABFA0FB0223C3F38D
:10A590004303002343EA051383EA132282EA1212DB
:10A5A000100700F00C85494A13680133136026B97F
:10A5B00080224749474849F045FD07EB0A0383F8E5
:10A5C000118054F8109C256ED9F800B00CE070474B
:10A5D00054F8109C34F80A1CD9F800B0BBF80C20D1
:10A5E00022EA0102ABF80C202A683B4B22F0010260
:10A5F00021219D422A60C5F80080C5F80480C5F875
:10A600000880C5F80C80C5F8108069611FD0334BF5
:10A610009D4200F03783324B9D4200F03D83314B29
:10A620009D4200F0DF84304B9D4200F002852F4AAE
:10A63000954200F003852E4A954200F07E852D4A12
:10A64000954200F0EC84284616F0B4FF02E02A4A56
:10A650003D219160BA448AF8108099F805100C29C0
:10A6600016D8DFE811F044011500150015004D0162
:10A670001500150015003B011500150015000D0013
:10A68000BBF81C2022F400621204120CABF81C2050
:10A69000224658460CF024FE99F805300C2B37D88A
:10A6A000DFE813F0060136003600360011013600EF
:10A6B00036003600FB003600360036002C0000BFA6
:10A6C0005030001074C90020ABAAAAAAB41600101A
:10A6D000E0C90020183200101060024028600240DB
:10A6E0004060024058600240706002408860024052
:10A6F000A0600240B860024000600240BBF81C301D
:10A7000023F400631B041B0C43F40063ABF81C3000
:10A71000D4E90D12236AE06B43F040030B4313436B
:10A72000226CB14903431343626C13434022E2623B
:10A73000A26C28681343A26D0292626D1343029AC1
:10A74000014013430B432B60D4E913316A69206B3A
:10A7500022F007020B431343D4E909126B616860CE
:10A76000A960EA602B6843F010032B60039B01365D
:10A770009E4204F580747FF7A4AE019B9E4280F256
:10A78000CC814FEA062A0AF114043C444FF0000839
:10A7900007EB0A03256E5B7C002B00F0BA806A6829
:10A7A00092B2002A65D114F8050CD4E91B130028D5
:10A7B00000F07C8260338D485B1AA0FB035189094D
:10A7C00001EB4101A3EB4113182B00F11484173B5B
:10A7D000A0FB0323DB0003F0F003D4E91D12834840
:10A7E0006032521AA0FB0251890901EB4101A2EB30
:10A7F0004112182A05D4173AA0FB0212C2F34302F1
:10A800001343D4E91F1279486032521AA0FB025157
:10A81000890901EB4101A2EB4112182A5EBF173AE8
:10A82000A0FB0212C2F34305D4E921126F4802F1E2
:10A830006002A2EB0102A0FB02C14FEA911101EB01
:10A840004101A2EB411248BF0025182A58BF173A10
:10A8500045EA03155ABFA0FB0223C3F343030023B9
:10A8600043EA051383EA132282EA1212120700F068
:10A87000E0825F4A13680133136026B980225D4984
:10A880005D4849F0DFFB07EB0A0383F8118054F8B9
:10A89000109C256ED9F800B047E0BBF81C3023F0BF
:10A8A00008031B041B0C43F00803ABF81C302FE714
:10A8B000BBF8183023F008031B041B0C43F00803FB
:10A8C000ABF8183024E7BBF8183023F400631B04FE
:10A8D0001B0C43F40063ABF8183019E7BBF81C20DD
:10A8E00022F008021204120CABF81C20D0E6BBF8D0
:10A8F000182022F008021204120CABF81820C7E648
:10A90000BBF8182022F400621204120CABF81820D5
:10A91000BEE654F8109C34F80A1CD9F800B0BBF815
:10A920000C2022EA0102ABF80C202A68334B22F0FB
:10A93000010221219D422A60C5F80080C5F80480EB
:10A94000C5F80880C5F80C80C5F8108069611FD073
:10A950002B4B9D4200F091812A4B9D4200F0978144
:10A96000294B9D4200F03983284B9D4200F05D83C6
:10A97000274A954200F06783264A954200F0E28319
:10A98000254A954200F04683284616F013FE02E061
:10A99000224A3D219160BA448AF8108099F8051046
:10A9A0000C2910D8DFE801F0A70F0F0F9E0F0F0F33
:10A9B000B00F0F0F0700BBF81C2022F40062120436
:10A9C000120CABF81C20224658460CF089FC99F872
:10A9D00005300C2B2ED8DFE803F06F2D2D2D7A2DAE
:10A9E0002D2D642D2D2D23003F801CF0ABAAAAAA8B
:10A9F000B4160010E0C900201832001010600240A8
:10AA0000286002404060024058600240706002408E
:10AA100088600240A0600240B860024000600240CE
:10AA2000BBF81C3023F400631B041B0C43F40063CD
:10AA3000ABF81C30D4E90D12236AE06B43F04003FD
:10AA40000B431343226C974903431343626C134334
:10AA50004022E262A26C28681343A26D0292626DEA
:10AA60001343029A014013430B432B60D4E9133183
:10AA70006A69206B22F007020B431343D4E90912E1
:10AA80006B616860A960EA602B6843F010032B607B
:10AA9000019B0136B34204F580743ED04FEA062A8A
:10AAA00076E6BBF81C3023F008031B041B0C43F0B4
:10AAB0000803ABF81C30BDE7BBF8183023F00803DF
:10AAC0001B041B0C43F00803ABF81830B2E7BBF8CB
:10AAD000183023F400631B041B0C43F40063ABF831
:10AAE0001830A7E7BBF8182022F400621204120CF9
:10AAF000ABF8182067E7BBF8182022F00802120410
:10AB0000120CABF818205EE7BBF81C2022F00802FC
:10AB10001204120CABF81C2055E77A68787B136896
:10AB20005179800754BF012204228A40198C92B2C5
:10AB300021EA02011984198C0A431A84019B012B12
:10AB400000F09880D7F8042197F80D011368517927
:10AB5000820754BF012204228A40198C92B221EA52
:10AB600002011984198C0A431A84019B022B00F0FC
:10AB70008180D7F8042297F80D021368517986076F
:10AB800054BF012204228A40198C92B221EA0201A8
:10AB90001984198C0A431A84019B032B6AD0D7F8B5
:10ABA000042397F80D0313685179850754BF0122D8
:10ABB00004228A40198C92B221EA02011984198C6C
:10ABC0000A431A84019B042B54D0D7F8042497F825
:10ABD0000D14136850798C0754BF01220422198C7C
:10ABE000824092B221EA02011984198C0A431A8424
:10ABF000019B052B3ED0D7F8042597F80D05136867
:10AC00005179800754BF012204228A40198C92B2E4
:10AC100021EA02011984198C0A431A84019B062B2C
:10AC200028D0D7F8042697F80D16136850798907AD
:10AC300054BF01220422198C824092B221EA0201FF
:10AC40001984198C0A431A84019B072B12D0D7F858
:10AC5000042797F80D071368517982074CBF042227
:10AC600001228A40198C92B221EA02011984198CBE
:10AC70000A431A8405B0BDE8F08F0B4A4FF47461A3
:10AC8000916088E6084A4FF474619160E2E4064AF4
:10AC90004FF4741191607EE6034A4FF47411916091
:10ACA000D8E400BF3F801CF0006002405B1A002B1C
:10ACB00040F3AA810A2BD4BF00230123D4E91D123B
:10ACC000521A002A4FEA430340F3FB810A2A01DDAE
:10ACD00043F00103D4E91F12521A002A4FEA43033A
:10ACE00040F3F7810A2A01DD43F00103D4E9211280
:10ACF000521A002A4FEA430340F3E7810A2A01DD92
:10AD000043F00103D4E92312521A002A4FEA430305
:10AD100040F3CF810A2A01DD43F00103D4E9251273
:10AD2000521A002A4FEA430340F3BF810A2A01DD89
:10AD300043F00103D4E92712521A002A4FEA4303D1
:10AD400040F3AF810A2A01DD43F00103D4E929125F
:10AD5000521A002A4FEA430340F39F810A2A01DD79
:10AD600043F00103D4E92B12521A002A4FEA43039D
:10AD700040F38F810A2A01DD43F00103D4E92D124B
:10AD8000521A002A4FEA430340F37F810A2A01DD69
:10AD900043F00103D4E92F12521A002A4FEA430369
:10ADA00040F36F810A2A01DD43F00103D4E9311237
:10ADB000521A002A4FEA430340F35F810A2A01DD59
:10ADC00043F00103D4E93312521A002A4FEA430335
:10ADD00040F34F810A2A01DD43F00103D4E9351223
:10ADE000521A002A4FEA430340F33F810A2A01DD49
:10ADF00043F00103D4E93712521A002A4FEA430301
:10AE000040F32F810A2A01DD43F00103D4E939120E
:10AE1000521A002A4FEA430340F31F810A2A01DD38
:10AE200043F0010383EA132282EA121215077FF42A
:10AE300020ADC3F30F1324F8023C24E55B1A002B6A
:10AE400040F3DC800A2BD4BF00230123D4E91D1278
:10AE5000521A002A4FEA430340F32F810A2A01DDE8
:10AE600043F00103D4E91F12521A002A4FEA4303A8
:10AE700040F35F810A2A01DD43F00103D4E9211286
:10AE8000521A002A4FEA430340F34F810A2A01DD98
:10AE900043F00103D4E92312521A002A4FEA430374
:10AEA00040F33F810A2A01DD43F00103D4E9251272
:10AEB000521A002A4FEA430340F32F810A2A01DD88
:10AEC00043F00103D4E92712521A002A4FEA430340
:10AED00040F31F810A2A01DD43F00103D4E929125E
:10AEE000521A002A4FEA430340F30F810A2A01DD78
:10AEF00043F00103D4E92B12521A002A4FEA43030C
:10AF000040F3FF800A2A01DD43F00103D4E92D124A
:10AF1000521A002A4FEA430340F3EF800A2A01DD68
:10AF200043F00103D4E92F12521A002A4FEA4303D7
:10AF300040F3DF800A2A01DD43F00103D4E9311236
:10AF4000521A002A4FEA430340F3CF800A2A01DD58
:10AF500043F00103D4E93312521A002A4FEA4303A3
:10AF600040F3BF800A2A01DD43F00103D4E9351222
:10AF7000521A002A4FEA430340F3AF800A2A01DD48
:10AF800043F00103D4E93712521A002A4FEA43036F
:10AF900060DD0A2A01DD43F00103D4E93912521AB7
:10AFA000002A4FEA430352DD0A2A01DD43F0010380
:10AFB00083EA132282EA121211077FF4F4AA634A89
:10AFC0001278C3F30F132F2A24F8023C7FF4F5AA5A
:10AFD0005F4A22F81630FFF7F0BA5E4A4FF074610C
:10AFE0009160D8E45B4A4FF074619160FFF732BB27
:10AFF0001346FFF78CBA1346FFF7EFBB13F1090FA7
:10B00000B4BF0023012321E713F1090FB4BF0023CC
:10B01000012353E64FF03D5142F8AC1CBBE44FF026
:10B020003D5142F8AC1CFFF715BB4A4A4A49D16072
:10B03000B1E4484A4849D160FFF70CBB474942F8A0
:10B040007C1CFFF707BB454942F87C1CA3E409328E
:10B05000AEDBABE70932A0DB9DE70932FFF6E2AEDB
:10B06000DEE60932FFF6D2AECEE60932FFF6C2AE18
:10B07000BEE60932FFF6B2AEAEE60932FFF6A2AE88
:10B080009EE60932FFF692AE8EE60932FFF682AEF8
:10B090007EE60932FFF672AE6EE60932FFF662AE68
:10B0A0005EE60932FFF652AE4EE60932FFF642AED8
:10B0B0003EE60932FFF632AE2EE60932FFF6D2AE98
:10B0C000CEE60932FFF606AE02E60932FFF61AAE08
:10B0D00016E60932FFF60AAE06E60932FFF652AF6F
:10B0E0004EE70932FFF642AF3EE70932FFF632AFD4
:10B0F0002EE70932FFF622AF1EE70932FFF612AF44
:10B100000EE70932FFF602AFFEE60932FFF6F2AEB5
:10B11000EEE60932FFF6E2AEDEE60932FFF6D2AE27
:10B12000CEE60932FFF6C2AEBEE60932FFF6B2AE97
:10B13000AEE60932FFF6A2AE9EE6094942F8941C3B
:10B14000FFF788BA064942F8941C24E461B2002053
:10B1500064B20020006002403D000020400F00204B
:10B1600000003D20037903F01803082B05D0102BB5
:10B1700013D023BBB0F80B007047124BB0F80B0094
:10B1800093F90030591C06BF0F4B1B78DBB2C3EBA1
:10B19000431300EB830080B270470C4BB0F80B00F8
:10B1A00093F900305A1C06BF074B5B78DBB203EB08
:10B1B000430203EB820300EB430080B270470020A0
:10B1C000704700BFBD160020F8C60020BC16002046
:10B1D000F0B5067906F06003402B09D144794FF0B1
:10B1E000FF350023012006F00706A3420BD1F0BD76
:10B1F000602B08BF45794FF001040CBF04FA05F538
:10B200004FF0FF35EDE7042E0CD8DFE806F0030D14
:10B2100018242E0030B1C85CD75C784028420CBF9F
:10B22000012000200133E0E70028FBD0C856D756A4
:10B23000A0EB070CDCF1000040EB0C00F2E700286B
:10B24000F0D031F8130032F81370784028420CBF68
:10B2500001200020E6E70028E4D031F9130032F99C
:10B260001370C71B78427841DCE70028DAD051F828
:10B27000230052F82370784028420CBF01200020A0
:10B28000D0E7024B0146186845F096BEEC4400201A
:10B2900038B5064D441E14F8011F286819B9BDE8D9
:10B2A000384045F06CBD45F087FEF4E7EC440020E3
:10B2B0000048EDE72701060808B5FFF7E9FFBDE8FC
:10B2C0000840F5E710B504460348FFF7E1FF2046C4
:10B2D000BDE81040F0E700BFFDC3050838B5074CD6
:10B2E000074DAC4203D3074B00221A7038BD628869
:10B2F000D4E9010148F0A6FE1434F2E790010008F9
:10B300003007000814E7002038B5074C074DAC4261
:10B3100003D3074B01221A7038BD6288D4E90110AB
:10B3200048F090FE1434F2E790010008300700085E
:10B3300014E70020024A136823EA000010607047F7
:10B3400040DB0020DFED2E7AB4EEE70AF1EE10FAD2
:10B350004ADDDFED2C6A9FED2C7A01E0B0EE670A42
:10B36000B4EEC70AF1EE10FA70EE667AF6DC9FEDE5
:10B37000277AF4EEC77AF1EE10FA3ED5DFED216AB6
:10B380009FED237A01E0F0EE407AF4EEC77AF1EE19
:10B3900010FA37EEA60AF6D4DFED1E7AB4EEE70A0D
:10B3A000F1EE10FA14DDDFED167A37EEC00A60EE2A
:10B3B000006A9FED196A9FED197ADFED197AA6EE02
:10B3C000867A20EE266AE6EE877AA6EE270A70478E
:10B3D000DFED147AB4EEE70AF1EE10FA44BFDFEDC8
:10B3E0000B7A37EEC00AE2E79FED087AF0EE407A7A
:10B3F000F4EEC77AF1EE10FAC0D4B0EE670ACBE7EC
:10B40000DB0F4940DB0FC940E4CB1641DB0F49C0DD
:10B41000E4CB16C1DB0FC93F92E741B99730083C36
:10B4200015A82ABEDB0FC9BFF0EEC07AB0EEE07AF5
:10B43000B4EEE77AF1EE10FAB4BFB0EE676AB0EEA0
:10B44000476AB5EE406AF1EE10FA46D0B4EEE77AFC
:10B45000F1EE10FA8CBFF0EE675AF0EE475AC5EEE7
:10B46000866A9FED1F3A9FED1F6A9FED1F4A9FED71
:10B470001F5ADFED1F3ADFED1F4ADFED1F5AA6EE20
:10B48000C36AE6EEA34AA6EE864AB7EE006AA6EEC7
:10B49000845AA6EEA46AE6EE855AC5EE866AB4EE34
:10B4A000E77AF1EE10FA48BFDFED147AF5EEC00A44
:10B4B00048BF77EEE66AF1EE10FA48BFDFED107A8A
:10B4C000B5EEC00A48BF77EEE66AF1EE10FA48BF63
:10B4D000F1EE666AB0EE660A7047DFED076ADEE7F6
:10B4E00039094E3DE3B59E3E88FA163E45FE7F3F44
:10B4F00099FB243F69A2163EA7DFA834DB0FC93FA2
:10B50000DB0F4940DFED317A30EE277AFDEEC76A76
:10B5100016EE903A2033402B02D99FED2D0A70474A
:10B52000B4EEE70AF1EE10FA4DDD9FED2A6ADFED89
:10B530002A6A01E0B0EE677AB4EEE67AF1EE10FA2C
:10B5400077EE467AF6DC9FED257AF4EEC77AF1EED7
:10B5500010FA35D5DFED1F6A9FED217A01E0F0EE9C
:10B56000407AF4EEC77AF1EE10FA37EEA60AF6D476
:10B57000DFED167AB4EEE70AF1EE10FA1BDCDFED30
:10B58000197AB4EEE70AF1EE10FA44BFDFED137A50
:10B5900037EEC00A60EE006A9FED136A9FED137AE2
:10B5A000DFED137AA6EE867A20EE266AE6EE877A3B
:10B5B000A6EE270A7047DFED0F7A37EEC00AE9E7FB
:10B5C000B0EE670AD4E7F0EE477ABCE7DB0FC93F7D
:10B5D00000000000DB0FC940E4CB1641DB0F49C07F
:10B5E000E4CB16C1DB0FC9BF92E741B99730083CE5
:10B5F00015A82ABEDB0F494010B44C09012250F8AF
:10B60000243001F01F0102FA01F10B4340F824300D
:10B610005DF8044B704700BF4B0901F01F0150F863
:10B620002320012303FA01F1114214BF1846002020
:10B63000704700BF2DE9F043002489B006460D464F
:10B640001F46A04605E025290CD030460134A84706
:10B65000039A531C039311780029F4D1204609B0B2
:10B66000BDE8F083931CCDE903385078302842D0F0
:10B67000A0F13003DBB2092B4FF0000945D96C284B
:10B680002AD0642873D019D9732858D063D9752863
:10B6900040F0828007F1040C386805AB00220A21D3
:10B6A0006746FCF7DDFD05AB049A009329464B463F
:10B6B0003046FCF7ABFC039A0444CAE725283CD08B
:10B6C00051D958286BD06328C2D139783046A84761
:10B6D00004370134039ABCE7039B5A1C03921B787E
:10B6E000642B52D016D8252B27D064D9582B18D0CC
:10B6F000632BEAD0ADE7D31C03939078A0F130031D
:10B70000DBB2092B4FF00109B9D804AA03A93FF015
:10B7100087FCB4E7732B12D051D9752B2DD0782B21
:10B7200097D1A3F15802B2FA82F23868520905ABF8
:10B7300010210437FCF794FDB5E7252185E73B6828
:10B74000049A0093294600233046FCF75FFC043737
:10B750000444039A7DE76E287FF47AAF039A3B682E
:10B7600004371C6075E700283FF478AF70E738684D
:10B7700005A9FCF73FFD043795E7386805AB0022C3
:10B780000A21FCF76DFD04378DE73B1D386805A9DC
:10B790001F46FCF72FFD86E778287FF459AFA0F10C
:10B7A0005802B2FA82F23868520905AB1021FCF750
:10B7B00057FD043777E7002B3FF450AF49E76E2B76
:10B7C000CDD046E710B5064C0B4602460549206829
:10B7D000FFF730FF2068BDE8104045F0D0BA00BF49
:10B7E000EC440020B59000080FB437B506AC09480A
:10B7F00054F8045BFFF74CFD214628460194FFF7FF
:10B80000E1FF0548FFF744FD03B0BDE8304004B058
:10B81000704700BF02C405080DC405080FB407B582
:10B8200004A951F8040B0191FFF7DEFFFFF740FD7B
:10B8300003B05DF804EB04B070470FB407B504A97A
:10B8400051F8040B0191FFF7BDFFFFF731FD03B085
:10B850005DF804EB04B070470FB407B504A951F8C4
:10B86000040B0191FFF7AEFF03B05DF804EB04B0E9
:10B8700070472DE9F0411746027902F06003402B32
:10B8800005460C462BD10026504FDFF85C8115E0B1
:10B890002B7903F00703022B15D0032B19D0012BB2
:10B8A00014BFA15DA1573846FFF7D6FF6B79013B66
:10B8B000B34202DD4046FFF7EBFC01366B79B34241
:10B8C000E6DCBDE8F08134F816103846FFF7C4FF17
:10B8D000ECE734F916103846FFF7BEFFE6E702F052
:10B8E0000702042A66D8DFE802F0031E27292C008D
:10B8F0002478202B3CD0602B48D0002BE1D1B5F828
:10B900000560B5F8078031482146FFF7A5FFA6423C
:10B9100048DCA04546DB002FD3D0424631462C48B8
:10B92000BDE8F04198E794F90040202B20D0602B2F
:10B930002CD0002BC5D144E02488DAE7B4F90040CC
:10B94000F3E72668202B344612D0602B1ED0002B44
:10B95000B7D131461D48FFF77FFFD5F805108E425D
:10B9600020D8002FADD01B48BDE8F04174E700247B
:10B970006A79194B03EBC2010979A14212DD53F830
:10B98000323053F82400BDE8F04181E46A79144173
:10B99000E30703D51148BDE8F0415DE71048BDE875
:10B9A000F04159E7FFF784FC224629680D48BDE8BD
:10B9B000F04119E7202BDAD0602BEFD0002B80D19B
:10B9C0001C46B5F90560B5F907809CE71CF505082C
:10B9D00012F4050813C40508ECA4050859F5050878
:10B9E00019C405081DC4050811C405080CB407B521
:10B9F00010F020000BD079B92320FFF742FC05A9F5
:10BA000004980191FFF7DEFEFFF752FC012003B01E
:10BA10005DF804EB02B070470020F8E70CB4C306F1
:10BA200007B500D561B905A904980191FFF7CAFED1
:10BA3000FFF73EFC012003B05DF804EB02B0704755
:10BA40000020F8E70EB400B584B005AB019053F8C0
:10BA5000042B0649039301A8FFF7ECFD019B00228C
:10BA60001A7004B05DF804EB03B070470180000861
:10BA700070B406688E4217D90139751E002311F87B
:10BA8000014F0822634013F0800F4FEA430318BFB1
:10BA900083F0D503013ADBB2F5D18D42EFD1721CB0
:10BAA0000260337070BC7047721C002302603370F8
:10BAB00070BC70470A44914215D010B40139541E2D
:10BAC00011F8012F0823504010F0800F4FEA40007A
:10BAD00018BF80F0D500013BC0B2F5D1A142EFD133
:10BAE0005DF8044B704770474840082310F0800F02
:10BAF0004FEA400018BF80F0D500013BC0B2F5D13D
:10BB0000704700BF0A44914215D030B40139551E28
:10BB100041F2210211F8014F082380EA04200404B5
:10BB20004CBF82EA40004000013B80B2F7D18D4219
:10BB3000F0D130BC7047704770B502221349144CE5
:10BB4000144E4FF6FF70FFF7DDFF22884AB1A518AB
:10BB5000B54218D2052A16D92146FFF7D3FF2C4645
:10BB6000F3E721460222FFF7CDFF0222A118FFF7DB
:10BB7000C9FF094BE41A094B1C8041F60F53C31A45
:10BB80005842584170BD0020FCE700BF004000084B
:10BB90000240000800800008FA3F000816E7002075
:10BBA0000F4B2DE93048D3E9004554EA05020AD18C
:10BBB000034640F2011200201880988098715A8044
:10BBC0001881BDE83088074B1A6814EB020B45F169
:10BBD000000C5A466346FCF755FA0120BDE8308850
:10BBE000205A002010B4002030B403888278C47832
:10BBF000154DA3F5FA6303F0030101EB4101013A8E
:10BC000002EB81029B0835F812500279611E40F266
:10BC1000B55404FB03132B4403EB430302EBC303B0
:10BC20004279847909490089C3EB031302EB83034A
:10BC30002144C3EB031301EB83034FF47A72002119
:10BC4000C2FB030130BC70473857050880436D388C
:10BC50002DE9F04707468CB01E469246002A5CD17B
:10BC6000154614460A88B2F5FA6F36D38B78581EFB
:10BC70000B2832D891F803C00CF1FF301E282CD8C5
:10BC800091F804E0BEF1170F27D891F80590B9F1AB
:10BC90003B0F22D888793B281FD8B1F80880B8F527
:10BCA0007A7F1AD24FF001085EBB09890491002CFB
:10BCB000B4BF2D212B21002CB8BF6442CDE90290E6
:10BCC000CDE905140795CDE900CE38462A49FFF79E
:10BCD000B9FE40460CB0BDE8F08700232749ADF817
:10BCE00028304FF0010C18468DF82A30ADF82C3072
:10BCF00099469E461A4698460991634609A9002E20
:10BD0000D3D0CDE90290CDE900CE38461C49FFF7EB
:10BD100099FE40460CB0BDE8F0871A4C84FB023413
