:020000040800F2
:10000000F0FF0010F16805087D41010865AF0208A6
:1000100091690508916905089169050800000000CB
:1000200000000000000000000000000089410108FD
:1000300085410108000000008141010819B0020853
:100040009169050891690508916905089169050894
:1000500091690508916905086DEB030899EC03089F
:100060005DEC030821EC0308E5EB0308A139050862
:100070009139050881390508713905085D39050888
:100080004939050835390508916905089169050858
:10009000916905089169050891690508A9EB0308AC
:1000A00091690508658E020891690508258F020887
:1000B000A58D0208E58C020891690508B54F050871
:1000C000BD4F0508A54F0508AD4F05089169050806
:1000D0009169050891B1020891690508F5B0020817
:1000E00031EB0308916905086D8F0108A9890208A1
:1000F000798A020891690508498B020821390508A7
:100100009169050891690508198C0208916905082B
:10011000916905089169050869950308F993030831
:100120000D390508F9380508E5380508D1380508FE
:10013000BD380508916905089169050891690508A8
:10014000916905089169050891690508455C0108F0
:10015000A9380508953805088138050859B00208FE
:10016000954F05089D4F0508916905089169050897
:100170009169050891690508916905089169050863
:08018000916905089169050869
:0801880098640500010000006D
:1001900020320A00382300202C2300200000000019
:1001A000A18800081C021000B41E00204423002077
:1001B0000000000041DD0208281010002C22002061
:1001C00054230020000000001989000804120200D6
:1001D000C4220020642300200000000094070008CF
:1001E0000F020100C0220020682300200000000050
:1001F0009607000801200800341A00206C23002014
:1002000000000000980700080A702800B0190020BC
:100210007423002000000000C18800080EA06E01B9
:10022000401800209C23002000000000DD1A040874
:1002300001010400A41700200C250020000000008C
:1002400000000000000104009C1700201025002081
:1002500000000000A007000802010300981700201A
:100260001425002000000000E58F010814000300A1
:10027000083F0020743F002000000000A407000891
:100280000B301800182F0020783F002000000000DD
:10029000A80700081F302400302F0020903F0020C6
:1002A00000000000C0070008050204009C3A00207E
:1002B000B43F002000000000E407000803010A002A
:1002C000702F0020B83F002000000000E807000861
:1002D00013020400442D0020C43F00200000000051
:1002E000F2070008070202009C510020F051002094
:1002F00000000000F8070008F6210C009C500020C8
:10030000F451002000000000FC07000802000C006F
:1003100048500020005200200000000000000000B3
:1003200006020C006C5100200C520020000000005E
:10033000D9E5020808120F00BC5000201852002016
:1003400000000000C5DD0208F7010600B0500020E3
:1003500028520020000000000808000809020100DF
:10036000506E0020C86E0020000000000E0800083B
:1003700022021401206C0020CC6E0020000000003E
:1003800081E702080C109C00585C0020E06F002000
:1003900000000000B98F0108010205003C5C00204C
:1003A0007C70002000000000FDF80108000205003C
:1003B000345C002084700020000000000000000079
:1003C0001B020800105C00208C7000200000000060
:1003D0006DDD02081E0006007C590020947000208C
:1003E00000000000100800081B100C0080540020C2
:1003F0009C700020000000009D0C02082102F0000B
:1004000000530020A870002000000000B9FA010885
:1004100005100600D05E002098710020000000004A
:100420001608000837102400AC5B0020A0710020E3
:10043000000000001C0800080E020200B85E002048
:10044000C4710020000000004008000816100600DB
:10045000F4520020C871002000000000420800088B
:100460002F102200A46E0020D07100200000000098
:100470004808000823100E00D0580020F471002016
:100480000000000033890008F55188003052002038
:100490000472002000000000DD45020826100C0058
:1004A000987200208C7200200000000059EE0108B4
:1004B0001A023C0094740020C8760020000000005E
:1004C00041E5020827000400A873002004770020FB
:1004D000000000006A0800081E0206006C78002078
:1004E0001C810020000000006E0800081F021000A0
:1004F00034810020248100200000000009DE020871
:100500000A020A0028A6002070A8002000000000AF
:10051000D94903080300010050A100207CA8002055
:100520000000000000000000031233003CA800207F
:1005300080A80020000000007408000825102C018D
:100540005CA60020B4A8002000000000000000000D
:100550001010020098A00020E0A900200000000078
:10056000A80800081A000E0074B20020A0B20020F3
:1005700000000000AA08000819000500B0B1002022
:10058000B0B2002000000000B8080008F821060002
:1005900020B00020B8B2002000000000BE08000813
:1005A0001500700024AE0020C0B200200000000042
:1005B000000000002A00600014B2002030B30020C8
:1005C00000000000B51A04082C001000A0B30020A1
:1005D00090B3002000000000AD1904082B00240097
:1005E000D4B30020B0B30020000000007D1904083F
:1005F00019021000D8AC0020F8B300200000000061
:10060000A9DD020829207800F0AB002008B4002002
:1006100000000000000000000D003400ECF200209B
:1006200088F3002000000000356B02080400800001
:1006300074E90020BCF3002000000000000000006E
:100640001300040054E900203CF4002000000000E6
:10065000C4080008FD01240030E9002040F4002017
:10066000000000002D69020818202E00FCE8002080
:1006700064F4002000000000E9E6020806101A00F9
:1006800058D7002094F4002000000000F91C040852
:10069000FB01010054D70020B0F40020000000004E
:1006A00055E70208FC01090020D60020B4F4002020
:1006B0000000000065E702083400100010D500209B
:1006C000C0F4002000000000CD1C04081102080046
:1006D000E8D40020D0F4002000000000C808000882
:1006E00012120400E0D40020D8F400200000000022
:1006F000D008000812201000D0D40020DCF4002024
:1007000000000000D4080008F9010400E0C800203F
:10071000ECF4002000000000FDBE0308FA01020016
:1007200080C20020F0F400200000000001DF020879
:1007300002020300A8B40020F4F40020000000002E
:10074000000000000C02040094B40020F8F4002023
:1007500000000000F1DD020811000C0001B70020CC
:10076000FCF400200000000081650208FE01140076
:10077000DCB6002008F500200000000079DD02084A
:100780001002010040F500203CF5002000000000B0
:04079000E408000871
:1007940011180000E8036400040A0001900100003D
:1007A40003000000AE014A015E012C016401010056
:1007B400000001000A019A01001E0A000000000066
:1007C4000001000000050000010203000000000019
:1007D400000000000000000000000000008007008E
:1007E40000000000040101006C160000000000007D
:1007F40001350000023C0000000000000100000080
:10080400020200002401000000002E00000001008C
:10081400000020000101000020003200C800D007C1
:100824009600140032002800B00440060005500071
:1008340014000F0008006400010001000000C40956
:10084400000019000000000000000000000000008B
:100854000000000000000000000000000000000094
:100864000000000000002003000000000000000061
:100874000000000000000000000000000000000074
:100884000000000000000000000000000000000064
:100894000000000000000000000000000000000054
:1008A4000000010000057E05EA05B4053200E803F6
:1008B400D00700000000280100000401F401140026
:1008C400000044320000000001010101FFFFFFFFAE
:1008D400000000010000054F4246340000080000FB
:0108E4000013
:1008E500FFFFFFFF01000000498000080000000035
:1008F5008482050820700020702D7200FFFFFFFF25
:1009050001000000425702000000010642570200A4
:1009150000000106D601010100010101002D202D75
:100925002D202D2D2D2D202D2D2D0000000000001A
:1009350000000000000000000000000000000000B2
:100945000000000078970508000000000000000086
:100955000498050801000000FA00000001000000ED
:100965000100000001010000061A002000C8010076
:10097500051A002000500100041A0020005A010049
:10098500021A00200200000000870508D8F10508BA
:10099500E0F1050872F300200100C4090000000021
:1009A50070F300200100C409000000006EF3002070
:1009B5000100C409000000006CF300200100C40917
:1009C5000000000068F300200100C40900000000D9
:1009D5006AF300200100C4090000000066F300204E
:1009E5000100C4090000000064F300200100C409EF
:1009F50000000000BA1700200100C8000100000037
:100A0500B81700203200307532000000B6170020FC
:100A1500055A0500B317002000FF0100B517002097
:100A25000100000034020020B11700200200000080
:100A350040A70508B217002000FF0100B4170020E9
:100A45000100000034020020B01700200200000061
:100A550040A70508401A0020EE02CA080100000060
:100A65003E1A002000C80100640000003D1A002065
:100A750000C80100640000003C1A002002000000CC
:100A85000C870508AA17002080C1803E05000000DC
:100A9500A817002080C1803E05000000A217002095
:100AA50080C1803E05000000A017002080C1803E67
:100AB500050000009B17002000FF0100941700208F
:100AC5006400F401010000009317002004000000F9
:100AD5001887050892170020020000002C870508DA
:100AE5002F1800200D000000388705082C1800205D
:100AF500006401002A180020320010270A000000B7
:100B0500291800200D000000388705082818002046
:100B15000D00000038870508271800200200000096
:100B25007087050800000000000000007C870508AC
:100B3500543A00209CFF2C0100000000F41D002009
:100B4500E0150C1700000000F61D00200200000053
:100B5500B48705084C1A00200100FF7F0100000042
:100B65004B1A002002000000C0870508311800203C
:100B750003000000D087050830180020030000009E
:100B8500D0870508E41900200000E80301000000F3
:100B9500E21900200000E80301000000E019002030
:100BA5000000E80301000000DE1900200000E80352
:100BB50001000000DC1900200000E803010000002E
:100BC500DA1900200000E80301000000D91900200F
:100BD50000140100D819002003000000E087050873
:100BE500F01900200000F40101000000EE190020BA
:100BF5000000F40101000000EC1900200000F401E0
:100C050001000000EA1900200000F40101000000C5
:100C1500E81900200000803E01000000E6190020D0
:100C25000000803E01000000191A0020196401002F
:100C3500181A002002000000F0870508161A002087
:100C4500E803D0070A000000141A00200064010020
:100C55000A000000091A002000640100081A00209B
:100C650000640100101A0020006401000A00000061
:100C75000F1A0020006401000A0000000E1A00206F
:100C8500006401000A000000131A0020006401003E
:100C95000A000000121A0020006401000A0000008A
:100CA500111A0020006401000A0000000D1A00203E
:100CB50001FF01000A0000000C1A002001FF0100DD
:100CC5000A0000000B1A002001FF01000A000000C5
:100CD5003A1800200000F401010000003818002037
:100CE5000000F40101000000361800200000F401A6
:100CF50001000000341800200000F401010000008C
:100D0500321800200000F40101000000011A002043
:100D150000640100001A002000640100FF19002092
:100D250000640100FE190020FF080100FD190020E4
:100D35000164010031860008F5850008FC87050877
:100D4500FC19002000640100FA1900201400E803D2
:100D550001000000F8190020E80330750A000000C2
:100D6500F619002000C80100F519002000C801008F
:100D7500F419002000C80100F319002000640100E7
:100D85000A000000301A00200000D0070100000012
:100D95002B1A002000C801002A1A002000C80100F3
:100DA500291A002000C801002E1A00200000D007D3
:100DB50001000000281A002000C80100271A0020A1
:100DC50000C80100261A002000C801002C1A0020C6
:100DD5000000D00701000000251A002000C801000E
:100DE500241A002000C80100231A002000C80100B1
:100DF50000000000658300086C88050825180020A0
:100E050031000000088905082418002000C80100E9
:100E150022180020E803D007010000004F4D4E497D
:100E25004255534634000000AF170020000301006F
:100E3500AE17002000030100C58200089D8200084E
:100E4500D0890508598200080D820008248A050802
:100E5500ED820008D5A80008A48A0508AC17002073
:100E6500010301009187000865870008988D050832
:100E75009981000855810008FC8D05087B830008D1
:100E850051B50008988E0508C9A4000800000000A7
:100E9500408F05083DAC0008F1870008DC8F050888
:100EA500CD830008000000005C900508A5840008BB
:100EB50051840008C090050835850008F9840008AC
:100EC5005C9105086D860008B5860008DC9105086B
:100ED500071A00200106010015840008E1830008B7
:100EE500D89205087185000839A9000848930508B6
:100EF500E9860008BDA9000828940508F219002014
:100F0500010301003583000805830008FC940508EA
:100F1500BD8700080000000060950508DD81000818
:100F2500A5A80008C4950508000000000000000001
:100F3500509605083D87000835AA0008D096050893
:100F45008E17002088136F170100000090170020EE
:100F550088136F1700000000CE2F0020000000004E
:100F650000000000CC2F0020000000000000000061
:100F7500CA2F00200000000000000000C82F00203C
:100F85000000000000000000C62F00200000000047
:100F950000000000C42F0020000000000000000039
:100FA500040B002000000000000000006617002070
:100FB50002000000589805088C17002088136F1749
:100FC50001000000943A002088136F17000000000C
:100FD500E98000080000000064980508261E00202E
:100FE50001000000B8980508963A002001000000AD
:100FF500C49805088C3A002002000000CC9805082A
:101005000000000000000000D8980508D580000801
:1010150000000000749905080000000000000000B1
:10102500C89905080000000000000000389A05086E
:10103500903A0020E0150C17000000000403090495
:1010450012010002EF020140830456320002010240
:101055000301000012010002020200408304405710
:10106500000201020301000009022000010104C081
:1010750032090400000208065005070581024000F8
:10108500000705010240000009026400030100C0D9
:1010950032090400000103000000092111010001CB
:1010A5002226000705830308000A080B0102020235
:1010B50001000904010001020201000524001001DC
:1010C5000524010002042402020524060102070585
:1010D50082030800FF09040200020A000000070558
:1010E500010240000007058102400000090243009B
:1010F500020100C0320904000001020201000524BA
:101105000010010524010001042402020524060043
:1011150001070582030800FF09040100020A000017
:10112500000705010240000007058102400000009C
:10113500FF000000189B05080000000000000000EB
:10114500000000000000000000000000000000009A
:1011550000000000000000000000000000FFFF008C
:1011650000000000AA55050100000100EC9A0508E1
:10117500000000000000000000000000000000006A
:10118500000000000000000000000000000000005A
:1011950000000000FF1FFF1F05010905A101A100B7
:1011A5000501093009310932093309350934094086
:1011B50009381581257F750895088102C0C0000092
:1011C50009022200010100E03209040000010301C7
:1011D50002000921110100012226000705830308E9
:1011E500000A0000000000000102030401020304DC
:1011F50006070809C14D0108C54C01081D51010824
:10120500D920010851260108E92001080521010816
:10121500B1200108A1200108000000000000000025
:101225002D202D2D202D2D2D2D202D2D2D2D00006A
:10123500000000000000000000000000000000AAFF
:10124500550B010000AA5507010000AA5509020027
:101255000000AA5503009F0001000000C012000015
:10126500483F0020000000006C3F00200000000007
:1012750000000000E0510020080000000000000010
:10128500D051002008000000680306087403060812
:10129500800306088C03060898030608A4030608BD
:1012A50054000608E0350608343406080403060829
:1012B5000C5E0608580306085C030608600306086A
:1012C50064030608B0030608B4030608B803060855
:1012D50084320608BC0306081900C800F40120037F
:1012E5000100000000000100E0010000FFFFFFFF1A
:1012F5000801FFFFFF000000685E0C0035260108AD
:1013050021250108F9500108000000009D20010871
:10131500B14C010871240108294C010800000000A6
:101325000000000059200108ED1F0108E11F010818
:101335002D4201084942010811420108F541010801
:10134500D9410108ED250108FD240108395001089E
:1013550000000000712001082D4C010845240108FA
:10136500894B01080000000000000000652001080D
:1013750001000000A00F0000B80B00000102FFFFF4
:10138500010000001A03000000000000000000003A
:101395000000000000000000000000000000000048
:1013A50004030904120100020000004083042057D1
:1013B5000002010203010000412203085DDE02086C
:1013C50059DE020855DE0208C9E7020851DE0208A7
:1013D5004DDE020890B305081D430108DD24010810
:1013E5005D4E01080000000000000000614B01088F
:1013F5007D4A010800000000000000000000000018
:1014050015200108F5DE0208E9DE0208F9EC0208FC
:1014150015ED0208A1DE0208DDEC0208C1EC0208A8
:101425000068214C1F0000001C0000001F00000088
:101435001E0000001F0000001E0000001F0000002D
:101445001F0000001E0000001F0000001E0000001D
:101455001F000000FF01FF000000803F00000000AA
:1014650000000000000000000000803FFFFFFFFFBC
:10147500FF000000FFFF0000FFFFFFFF485C0608BC
:101485000000080205030300505C0608010008027D
:1014950005040300782006080200FE010110030080
:1014A50034F505080300140200030000585C060823
:1014B50004001F0201000800605C060805001F0209
:1014C50001010800FFFFFFFF0000803F0000000052
:1014D50000000000000000000000803F0000000048
:1014E50000000000000000000000000000000000F7
:1014F50000000000000000000000000000000000E7
:101505000000803F00000000000000000000000017
:101515000100000008000000FFFFFFFFDD1F0108BC
:10152500D91F0108D51F0108C91F0108C51F0108DA
:10153500D11F0108CD1F01083191010800000000ED
:1015450000000000000000000100000000600240F3
:10155500106002400000000000000000000B0000C9
:1015650000000000000000000000000000600240D4
:10157500286002400100000000000000060C000089
:1015850000000000000000000000000000600240B4
:10159500406002400200000000000000100D000045
:1015A5000000000000000000000000000060024094
:1015B500586002400300000000000000160E000005
:1015C5000000000000000000000000000060024074
:1015D500706002400400000000000000200F0000C1
:1015E5000000000000000000000000000060024054
:1015F5008860024005000000000000002610000081
:101605000000000000000000000000000060024033
:10161500A06002400600000000000000301100003C
:101625000000000000000000000000000060024013
:10163500B86002400700000000000000362F0000DF
:1016450000000000000000000000000000640240EF
:101655001064024000000000000000000038000097
:1016650000000000000000000000000000640240CF
:101675002864024001000000000000000639000057
:1016850000000000000000000000000000640240AF
:10169500406402400200000000000000103A000013
:1016A500000000000000000000000000006402408F
:1016B500586402400300000000000000163B0000D3
:1016C500000000000000000000000000006402406F
:1016D500706402400400000000000000203C00008F
:1016E500000000000000000000000000006402404F
:1016F5008864024005000000000000002644000048
:10170500000000000000000000000000006402402E
:10171500A064024006000000000000003045000003
:10172500000000000000000000000000006402400E
:10173500B8640240070000000000000036460000C3
:10174500000000000000000000000000D85A060854
:10175500500B060800000000F98F0108A086010063
:101765000400000000000000000000000000000070
:101775000000000000000000000000000000000064
:10178500000000000000000000000000D85A060814
:10179500285E060800000000FD650208E803000059
:1017A5000400000000000000000000000000000030
:1017B5000000000000000000000000000000000024
:1017C50000000000000000000000000008F8050807
:1017D5000033060800000000FD5503087D000000E9
:1017E50006000000000000000000000000000000EE
:1017F50000000000000000000000000000000000E4
:10180500000000000000000000000000485A060823
:10181500000000000000000055A60208E8030000D3
:1018250003000000000000000000000000000000B0
:1018350000000000000000000000000000000000A3
:10184500000000000000000000000000305E0608F7
:101855000000000000000000319F04081027000070
:101865000300000000000000000000000000000070
:101875000000000000000000000000000000000063
:10188500000000000000000000000000545C060895
:1018950000000000AD920008DD7302085F760000CD
:1018A500050000000000000000000000000000002E
:1018B5000000000000000000000000000000000023
:1018C500000000000000000000000000AC5C0608FD
:1018D5000000000000000000F1D102081027000000
:1018E50001000000000000000000000000000000F2
:1018F50000000000000000000000000000000000E3
:101905000000000000000000000000003C5E06082A
:101915000000000000000000FF650208E803000069
:1019250005000000000000000000000000000000AD
:1019350000000000000000000000000000000000A2
:10194500000000000000000000000000485E0608DE
:10195500000000000000000001980108204E000072
:10196500030000000000000000000000000000006F
:101975000000000000000000000000000000000062
:10198500000000000000000000000000585E06088E
:10199500000000000000000005960108204E000030
:1019A500030000000000000000000000000000002F
:1019B5000000000000000000000000000000000022
:1019C500000000000000000000000000685E06083E
:1019D5000000000000000000E9AA0208400D030015
:1019E50003000000000000000000000000000000EF
:1019F50000000000000000000000000000000000E2
:101A0500000000000000000000000000D4010608EE
:101A15000000000000000000ADA302081027000030
:101A250001000000000000000000000000000000B0
:101A350000000000000000000000000000000000A1
:101A450000000000000000000000000098080608E3
:101A55000000000000000000011802081027000027
:101A6500030000000000000000000000000000006E
:101A75000000000000000000000000000000000061
:101A8500000000000000000000000000785E06086D
:101A950000000000000000007D0D0108A086010087
:101AA5000100000000000000000000000000000030
:101AB5000000000000000000000000000000000021
:101AC5000000000000000000000000004C5A06085D
:101AD50000000000000000004D6E020850C3000029
:101AE50001000000000000000000000000000000F0
:101AF50000000000000000000000000000000000E1
:101B0500000000000000000000000000E8F40508E7
:101B1500000000000000000049EE0108A086010059
:101B250000000000000000000000000000000000B0
:101B350000000000000000000000000000000000A0
:101B450000000000000000000000000020F405086F
:101B55000000000000000000796B0208A861000089
:101B6500010000000000000000000000000000006F
:101B75000000000000000000000000000000000060
:101B8500000000000000000000000000805E060864
:101B95000000000000000000D9560208A0860100E0
:101BA500010000000000000000000000000000002F
:101BB5000000000000000000000000000000000020
:101BC500000000000000000000000000FC01060805
:101BD5000000000000000000E7B20208A00F0000AE
:101BE50001000000000000000000000000000000EF
:101BF50000000000000000000000000000000000E0
:101C05000000000000000000000000008C5E0608D7
:101C15000000000000000000CD460208102700006B
:101C250001000000000000000000000000000000AE
:101C3500000000000000000000000000000000009F
:101C4500000000000000000000000000B85B06086E
:101C55000000000000000000B9640208A00F0000A9
:101C6500010000000000000000000000000000006E
:101C7500000000000000000000000000000000005F
:101C850000000000000000000000000054FF0508EF
:101C95000000000000000000E53A02081A410000BB
:101CA500010000000000000000000000000000002E
:101CB500000000000000000000000000000000001F
:101CC500000000000000000000000000E0F305082F
:101CD500000000000000000009290108102700008D
:101CE50001000000000000000000000000000000EE
:101CF50000000000000000000000000000000000DF
:101D05000000000000000000000000005C0B060859
:101D15000000000000000000D9BC00081A410000C6
:101D250001000000000000000000000000000000AD
:101D3500000000000000000000000000000000009E
:101D4500000000000000000000000000985E06088A
:101D550000000000000000006D2F0108400D030089
:101D6500000000000000000000000000000000006E
:101D7500000000000000000000000000000000005E
:101D8500000000000000000000000000A05E060842
:101D95000000000000000000BB650208400D0300C4
:101DA500000000000000000000000000000000002E
:101DB500000000000000000000000000000000001E
:101DC500000000000000000000000000A85E0608FA
:101DD50000000000000000004D51020850C3000043
:101DE50003000000000000000000000000000000EB
:101DF50000000000000000000000000000000000DE
:101E0500000000000000000000000000B45E0608AD
:101E150000000000000000007995010840420F0015
:101E250000000000000000000000000000000000AD
:101E3500000000000000000000000000000000009D
:101E4500000000000000000000000000C05E060861
:101E55000000000000000000C9D1020850C30000C6
:101E6500000000000000000000000000000000006D
:101E7500000000000000000000000000000000005D
:101E85000000000000000000000000000000803F8E
:101E95000000040100000000000000021000000026
:101EA500070000000000000000000000010203041C
:041EB500060708090B
:10800000D0E90920131A584258417047014B1868AB
:10801000704700BF60170020024B00221A715A718E
:10802000704700BF60170020014B1868704700BF01
:10803000880100207047034B1A790AB901221A718E
:108040000020704788010020124B134A9979F1B142
:1080500012490978C1B912491161124A12491268CC
:10806000996011791973D168196110495961517971
:1080700019761169D9610E4919629179D26983F82B
:1080800024109A62002070470A491161E5E70A4905
:108090001161E2E76017002088010020963A002075
:1080A00088810508E83700208E3A00208F3A0020AA
:1080B000923A00201482050884820508034B9A8DA9
:1080C000034B4FF0FF301A80704700BF601700204D
:1080D000943A0020024B1A88024B00209A85704780
:1080E000943A002060170020064B93F90030012BD2
:1080F00004D0054B1A8EDA85002070474FF0FF3010
:10810000704700BF040A00206017002008B5064B26
:108110001A782AB1054A1278012A1CBF00221A7067
:10812000FFF792FF002008BD963A00208C3A00200D
:10813000064B93F90020064B12B91A7000207047C5
:108140001A78002AFAD10122F7E700BF040A0020BA
:10815000923A00200E4B0F4A93F83210517293F866
:1081600033109172998E118093F83B2083F8382058
:10817000B3F840209A87B3F84220DA87B3F8482052
:10818000A3F84420B3F84A20A3F846200020704703
:1081900060170020182F00200E4A0F4B517A83F8E9
:1081A0003210917A12889A8693F8382083F83B200F
:1081B0009A8FA3F84020DA8FA3F84220B3F8442026
:1081C000A3F84820B3F8462083F83310A3F84A20D8
:1081D00000207047182F002060170020084A094B24
:1081E00092F8842083F84C20074A917883F84D1048
:1081F000D178127983F84E1083F84F200020704711
:1082000030520020601700203C5C0020104A1148CA
:1082100092F8503092F8521003F00F0343EA012312
:1082200092F854100901C9B20B43A0F86C3092F8CF
:10823000531092F8513092F8552003F00F031201B9
:1082400043EA0123D2B21343A0F86E3000207047F6
:1082500060170020305200200E490F4BB1F86C20FF
:1082600002F00F0083F85000C2F30310120A83F8E3
:108270005220B1F86E2083F8540002F00F0183F809
:108280005110C2F30311120A83F8551083F85320DA
:10829000002070473052002060170020074A084B2A
:1082A00092F8561083F86A10B2F85810B2F85A20B3
:1082B000A3F86610A3F8682000207047601700201C
:1082C00030520020074A084B92F86A1083F8561083
:1082D000B2F86610B2F86820A3F85810A3F85A2034
:1082E00000207047305200206017002008B5662239
:1082F000024903484EF0CEFB002008BD305200205A
:10830000BC170020084A0949B2F8C2304B8292F8E3
:10831000C43092F8C52003EB83035B000B82044B4F
:1083200000209A70704700BF6017002058D70020C7
:10833000D0D40020084A094B518AA3F8C210128AEF
:108340000A21B2FBF1F283F8C420054A927883F83F
:10835000C5200020704700BF58D7002060170020BC
:10836000D0D4002030B1007910F1FF3018BF4FF0A9
:10837000FF3070474FF0FF307047114A114B528861
:1083800002F0010283F8C6200F4AD17883F8C710A3
:10839000117983F8C810517983F8C910D188A3F8EE
:1083A000CA10117A83F8CC10517A83F8CD10117865
:1083B000927A83F8CE1083F8CF200020704700BF58
:1083C00054E900206017002080540020034B002057
:1083D00083F8D00083F8D100704700BF60170020F9
:1083E0000A4B0B4A1B68B2F8D2105980B2F8D4106D
:1083F000A3F84C10B2F8D6109980B2F8D810B2F8A1
:10840000DA20D9801A800020704700BF203F00206A
:10841000601700200D4B93F8DC207A2101FB02321B
:108420000020B2F8E210A3F8D210B2F82C11A3F891
:10843000D410B2F8E410A3F8D610B2F8E610B2F8EF
:10844000E020A3F8D810A3F8DA20704760170020C6
:10845000124B93F8782283F8702293F8792283F8EC
:108460007122B3F87A22A3F87222B3F87C22A3F81F
:1084700074220B4AB3F87E121268A3F86C12B3F898
:108480008012A3F86E12B3F88212B3F88432A2F805
:108490006210A2F864300020704700BF601700200F
:1084A000203F0020134B93F8702283F8782293F832
:1084B000712283F87922B3F87222B3F86C12A3F810
:1084C0007A22B3F87422A3F87C22A3F87E1293F8E0
:1084D000DC20B3F86E12A3F880127A2101FB02327D
:1084E0000020B2F84211B2F84421A3F88212A3F896
:1084F00084227047601700200D4BB3F88622A3F842
:108500005622B3F88822A3F85822B3F88A22A3F897
:108510005A22B3F88C22A3F85C22B3F88E22A3F877
:108520005E22B3F89022A3F860220020704700BFBB
:10853000601700200D4BB3F85622A3F88622B3F83B
:108540005822A3F88822B3F85A22A3F88A22B3F853
:108550005C22A3F88C22B3F85E22A3F88E22B3F833
:108560006022A3F890220020704700BF601700200F
:108570001E4B1F4993F8922230324A7593F8DC2043
:108580007A2101FB0232002092F8271183F893121E
:1085900092F8FA1083F8941292F8FB1083F895126F
:1085A00092F8FC1083F89612B2F81411A3F89812FE
:1085B000B2F81211A3F89A1292F82F1183F89C12B4
:1085C00092F8531183F89D1292F8541183F89E1279
:1085D00092F84E1183F89F1292F84F1192F85021A1
:1085E00083F8A01283F8A122704700BF6017002013
:1085F000880100200D4A92F8DC307A2101FB032328
:1086000092F8A21283F8461192F8A31283F84A1145
:1086100092F8A41283F8471192F8A51292F8A622B4
:1086200083F8481183F84921002070476017002023
:108630000D4B93F8DC207A2101FB0232002092F8E6
:10864000461183F8A21292F84A1183F8A31292F805
:10865000471183F8A41292F8481192F8492183F83F
:10866000A51283F8A6227047601700200E4B0F4911
:1086700093F8922230320A7693F8A72230328A7623
:1086800093F8C2220A491A2000FB021203F52A734A
:1086900002F1180152F8040B43F8040B8A42F9D195
:1086A00012881A800020704760170020880100207F
:1086B000585C002010B50A4A0A4892F8C2321A24BF
:1086C00002F52A7104FB030302F5307251F8040B22
:1086D00043F8040B9142F9D10A881A80002010BD9A
:1086E00060170020585C002010B5124A124992F819
:1086F000923292F8DC0030334B7502F1E0017A23BC
:1087000000FB031302F2C321002002F533721C7A2E
:108710000C705C7A4C709C7A8C709C8922F81040AA
:108720000130032803F1060301F10301EFD100201A
:1087300010BD00BF60170020880100200749084BCA
:108740000A7883F8DC20013283F892224A7883F891
:10875000C222013283F8A72200207047D0D4002023
:1087600060170020094B93F8DC2283F8DB2293F892
:10877000DD2283F8D82293F8DE2283F8D922B3F8D9
:10878000E022A3F8D4220020704700BF6017002029
:10879000094B93F8DB2283F8DC2293F8D82283F884
:1087A000DD2293F8D92283F8DE22B3F8D422A3F88D
:1087B000E0220020704700BF601700200A4930B552
:1087C0000A4C002201F2E220135DA3F16105052DA0
:1087D0009CBF203BDBB283540132072AF4D1002036
:1087E00081F8E90230BD00BF6017002058F105088C
:1087F000094B93F8EA22012A084A07D893F8EB12AA
:10880000012902D0032918BF03219170B3F8EC327B
:1088100013800020704700BF60170020D05E00204A
:1088200010B5044623790E2B00D110BD032B04D1C3
:10883000D4F809309868FFF7F3FF0E34F2E70B49DC
:10884000D1F8F0329A68134618790E280CD19B1A89
:108850005A10074B5343013B91F8F92293FBF2F373
:10886000013381F8F83270470E33EDE760170020CE
:10887000B76DDBB6084BD3F8FC0210B558B1074C06
:10888000E169013191FBF0F200FB121003EB800370
:10889000E061D3F8000310BD6017002088010020BC
:1088A00010B44FF4FA7346F203444FF4C8419622D1
:1088B0000480818002814380C3805DF8044B70474F
:1088C00030B44FF4987240F29E73104D02600383EF
:1088D0004FF4E17203230E4C0E49C0F81A50C283C4
:1088E0000825962280F82030002380F82150C0F817
:1088F00022404161C0F8062003714382C0F80A306B
:10890000C0F80E3080F8263030BC70477D009600ED
:10891000780096000201000100230121022201716A
:10892000427183700380C3708371C3710372437299
:10893000704700230A2203604360836083810280C2
:10894000704703788B4283BF034B03EB4101B1F8BF
:1089500010030020704700BF60170020044B93F8FD
:10896000280318B1002283F828230120704700BF94
:1089700060170020F0B4C24D95F84F6305F54B72B7
:108980000244B41E1444A24200F07881013A013C32
:10899000002341F2210112F8017F83EA07231FB26D
:1089A000BBB2002FACBF5B0081EA43039BB21F0444
:1089B00054BF5B0081EA43039BB21F0454BF5B00BA
:1089C00081EA43039BB21F0454BF5B0081EA430367
:1089D0009BB21F0454BF5B0081EA43039BB21F0498
:1089E00054BF5B0081EA43039BB21F0454BF5B008A
:1089F00081EA43039BB21F0454BF5B0081EA430337
:108A0000A2429BB2C7D10644B21E013E2A442E4464
:108A100092F82C1396F82C2302EB012292B29A4280
:108A200001D0F0BC704795F85023002A00F0218156
:108A3000431CDBB25C1C2C442B444FF4AF6193F815
:108A40002C6394F82C3303EB06239BB201FB03F356
:108A50001B1303F54873012AA5F8103300F00981B0
:108A6000C31CDBB25C1C2C442B44022A93F82C63FD
:108A700094F82C3303EB06239BB201FB03F34FEA7C
:108A8000233303F54873A5F8123300F0F280431D39
:108A9000DBB25C1C2C442B44032A93F82C6394F81F
:108AA0002C3303EB06239BB201FB03F34FEA233382
:108AB00003F54873A5F8143300F0DB80C31DDBB267
:108AC0005C1C2C442B44042A93F82C6394F82C331C
:108AD00003EB06239BB201FB03F34FEA233303F5B9
:108AE0004873A5F8163300F0C48000F10903DBB227
:108AF0005C1C2C442B44052A93F82C6394F82C33EB
:108B000003EB06239BB201FB03F34FEA233303F588
:108B10004873A5F8183300F0AC8000F10B03DBB20A
:108B20005C1C2C442B44062A93F82C6394F82C33B9
:108B300003EB06239BB201FB03F34FEA233303F558
:108B40004873A5F81A3300F0948000F10D03DBB2EE
:108B50005C1C2C442B44072A93F82C6394F82C3388
:108B600003EB06239BB201FB03F34FEA233303F528
:108B70004873A5F81C337CD000F10F03DBB25C1CFA
:108B80002C442B44082A93F82C6394F82C3303EBE1
:108B900006239BB201FB03F34FEA233303F548732B
:108BA000A5F81E3365D000F11103DBB25C1C2C4428
:108BB0002B44092A93F82C6394F82C3303EB0623F7
:108BC0009BB201FB03F34FEA233303F54873A5F887
:108BD00020334ED000F11303DBB25C1C2C442B4439
:108BE0000A2A93F82C6394F82C3303EB06239BB2E8
:108BF00001FB03F34FEA233303F54873A5F822334F
:108C000037D000F11503DBB25C1C2C442B440B2A3B
:108C100093F82C6394F82C3303EB06239BB201FBEF
:108C200003F34FEA233303F54873A5F8243320D028
:108C300000F11703DBB25C1C2C442B440C2A93F884
:108C40002C6394F82C3303EB06239BB201FB03F354
:108C50004FEA233303F54873A5F8263309D000F112
:108C60001903DBB25A1C2A442B4493F82C3392F894
:108C70002C33012385F82833F0BC70470023C2E66B
:108C80006017002007299DBF034B03EB8101B1F85A
:108C900054030020704700BF601700201A4B93F860
:108CA000742332B193F878230021A82A83F874132F
:108CB00001D00020704793F88B23002AF9D110B41B
:108CC000DFED126A03F55E7103F5547003F562720D
:108CD000B4EE047ACC780B7903EB042307EE903AD8
:108CE000F8EEE77AB0EE666AA7EE876A02318A424A
:108CF000FCEEC67A17EE903A40F8043FEAD1012024
:108D00005DF8044B704700BF601700200080BBC3B4
:108D1000034B03EB4101B1F89003C008704700BF5B
:108D2000601700201F4B93F8B423A2B370B493F8DC
:108D3000B543B3F8B65303EB4401002091F8BB638D
:108D400091F8BC2383F8B40342EA0622954202D08C
:108D5000002070BC704793F8B923032A03D0812AFE
:108D60001BD0012AF5D10120122C18D9122483F826
:108D7000B5430D4B0021A3F12805DE781A790131A6
:108D800042EA0622CEB2A64225F8022B03F10203E4
:108D9000F3D370BC7047002070470320E4E7002C39
:108DA000E7D1D6E760170020181B0020F8B5134D57
:108DB00095F815240AB90120F8BD114B1C682368E9
:108DC0005E6A46B1204605F58061B047002385F80C
:108DD00015340120F8BD05F58067BE1800E0236852
:108DE0009B68204698470028F9D0236817F8011B94
:108DF0001B6820469847B742F1D1E7E7601700208B
:108E0000B45E002003788B4210D9094B03EB81013B
:108E100093F84834D1F818041BB900F5777080B284
:108E20007047400800F5777080B2704700207047A7
:108E300060170020036933F8110000EB8000C010B8
:108E400000F55C7080B27047436993F82320002AD4
:108E500000F0CF802DE9F0477B4ADE7D12780021BB
:108E60001B2A06F0040506F0080483F8231000F01E
:108E7000C280002D40F0CC80002C40F0D9802546E7
:108E800093F802A093F8068093F801E00269DF7876
:108E900093F8049093F807C00AF0070008F00F0158
:108EA0004FEAC1184EEA002107F03F07187A1180F7
:108EB000997893F805A093F80AE07F0147EAD10773
:108EC000D97857804FEA890949EA9119997B0AF0C4
:108ED000010A01F03F014F0149EA8A219180597945
:108EE00048EA5101D1800CF07F0C997993F8078002
:108EF0004FEA0C1C4CEA111C597AA2F808C0400039
:108F000040EAD81001F0030140EA412093F80DC077
:108F1000D97A50810EF01F0E587A4FEA8E1E4EEA13
:108F200090009081187B93F80AE00CF0070C40EA5F
:108F30000C20C90093F80DC0108241EA5E11D18166
:108F400047EADC01518293F80FE093F80E80597CD8
:108F5000DF7C93F812C0587D4FEA8E0E4EEA981EC1
:108F600093F8108008F001084EEA882E01F00F01F6
:108F700093F81280A2F814E093F810E07F00C90182
:108F800041EA5E0147EAD81793F814E093F811809C
:108F9000D1820CF07F0C4FEA0C1C997D0EF0030E71
:108FA0004CEA181C47EA4E2716F0010F93F814E01C
:108FB000A2F818C000F01F0093F815C0578340F2C4
:108FC000147314BF1F46AD278001C90016F0020FAD
:108FD00040EA9E0041EA5C1108BFAD239083D18333
:108FE000178453840CBB002D0CBF01200920BDE861
:108FF000F0871046704715491F8C0E8075B147F0F9
:1090000002021A8412B274B147F003021A8409E012
:109010001A8C94B942F002021A8431E78CB147F0FD
:1090200001021A8412B24A802AE70320BDE8F087C1
:109030001A8C42F001021A8422E742F003021A84D9
:109040001EE73AB22546EEE799B400209CB4002012
:109050000A4BDFED0B6ADFED0B7A03EB8101D1F8F0
:109060004C3407EE103AB8EE477AE7EE267AFCEE7B
:10907000E77A17EE903A98B2704700BF6017002069
:1090800001F11F3F00405C44714A92F88C3433B1C7
:1090900092F892340021162B82F88C1401D0002013
:1090A000704792F89134022BF0B440F2CE8002F572
:1090B0009260184402F29241D32311F8014F6340A9
:1090C00013F0800F4FEA430318BF83F0D503DBB2E0
:1090D00013F0800F4FEA430318BF83F0D503DBB2D0
:1090E00013F0800F4FEA430318BF83F0D503DBB2C0
:1090F00013F0800F4FEA430318BF83F0D503DBB2B0
:1091000013F0800F4FEA430318BF83F0D503DBB29F
:1091100013F0800F4FEA430318BF83F0D503DBB28F
:1091200013F0800F4FEA430318BF83F0D503DBB27F
:1091300013F0800F4FEA430318BF83F0D503884232
:10914000DBB2BAD192F8A914994202D00020F0BC47
:10915000704792F8980492F8976492F89C1492F8E9
:10916000A03492F8A44492F89454B2F894C4D2F87B
:10917000947400F00F00C00140EA560001F01F0196
:1091800092F89B64C2F85804890141EA960103F001
:109190003F0392F89F6492F8A304C2F864145B0141
:1091A00043EAD60392F89314C2F8703404F07F04B3
:1091B000B2F89834D2F89864240105F0070544EA1F
:1091C000101041EA0521C3F30A13C2F87C04B2F877
:1091D0009C54C2F84C14B2F89E44D2F8A004B2F8E1
:1091E000A214C2F85C34D2F8A434C0F38A10C1F3DC
:1091F0004A01C3F3CA13CCF3CA0CC7F38A37C6F3C8
:10920000CA366D09C4F30A04C2F87404C2F87814AB
:10921000C2F850C4C2F85474C2F86064C2F868540A
:10922000C2F86C44C2F8803492F8A83492F8A704CB
:10923000B2F8A614DB0043EA5013C1F38A01C2F866
:109240008834C2F88414012081E7D3237AE700BF71
:109250006017002010B5064CD4F8F43404F59A6079
:109260009847022806BF012084F8F804002010BDAA
:109270006017002038B503788B4213D90A4C94F854
:10928000F8340D464BB1D4F8203504F59A6104F258
:10929000FC409847002384F8F83404EB4504B4F804
:1092A000FC0438BD002038BD601700206C4B2DE950
:1092B000F0411C68E707054617D56A4B93F824254B
:1092C00093F8251591425ED1D3F82825AA4202D8F9
:1092D000654A00211170D3F88C05281A00283FDD5B
:1092E000012083F89005BDE8F08114F4005440F0AB
:1092F00082805E4883689847C60739D55C4BC0F3C7
:10930000400210F00A0F83F820204BD0554B224624
:10931000A6462746A44693F84815D3F85C655C1822
:10932000013194F84C8584F84CE5A2EB080293F8DF
:10933000604532444F4EC3F85C2501F00F0112091D
:10934000052C83F84815327037D0410744BF0122FD
:1093500083F88A25002FB7D0434A01211170BFE757
:1093600093F890050028BED193F88A05BDE8F081F6
:1093700042073C4B44BF012283F88A25D3F82825B5
:10938000AA42A8D8A4E7D3F82C05394C364983F86B
:109390002525284401220025C3F8280584F82050FB
:1093A0000A709DE72F4BD3F82C15FF222944012783
:1093B000C3F828159646BC46ADE7BCF1000F01D0B6
:1093C00040F2FF3C93F86125D3F8841503EB420685
:1093D000541CB6F86425A6F864C5ACEB02020A4436
:1093E00004F00F011409E64683F86115C3F88425DB
:1093F000A3F88845A9E71B4BB3F8302512BBB3F897
:109400003225FAB9B3F83425E2B9B3F83625CAB92A
:10941000B3F83825B2B9B3F83A259AB9B3F83C2570
:1094200082B9B3F83E256AB9B3F8402552B9B3F80A
:1094300042253AB9B3F8442522B9B3F84625002AA3
:109440003FF442AFD3F82C25094807492A440024A9
:10945000C3F82825012280F820400A703BE700BFAE
:1094600054E900206017002072540020E43E0020E0
:1094700088010020745800202DE9F843504D514BCD
:1094800028681E68002843D04F4CDFF85491DFF85D
:1094900044814E4F21F021FF002834D0286821F06C
:1094A00016FF2379032B29D8DFE803F034231702B2
:1094B000474AB22302F1060C12F8011B0B449445F3
:1094C000DBB2F9D1984236D0B4F8A0350133A4F814
:1094D000A03500232371637110E06279531CDBB265
:1094E0002244062B637182F8940507D1032323716C
:1094F00004E059280CBF022300232371286821F0BF
:10950000ECFE0028CAD1D4F89C35F61AC82E06D82D
:10951000BDE8F8835928F1D101232371EEE72D4BE3
:109520001B78012B40D0022BF2D128682A49BDE8D4
:10953000F84344F069BF94F8952594F8943599F868
:10954000001043EA02231BB21F299AB210D098F8E8
:109550000030012B1BD0022B2FD1A2F12803B3F531
:10956000076F27D294F89835062B23D9226024E080
:1095700094F8961594F897053B8041EA002394F8F7
:10958000980594F899157B80B880F980DFE7A2F1FF
:109590002803B3F5916F0DD294F898352260072B0C
:1095A0000BD10D3A226008E028680C49BDE8F84369
:1095B00044F02ABF4FF0FF332360C4F89C6588E76E
:1095C000E0D5002088B60020601700209CB4002061
:1095D000F41C0020E4D50020B4010020AC010020E0
:1095E00099B4002010B5074CD4F8A40535F088FADA
:1095F0000B2020F0F7FDD4F8A405BDE8104035F0AD
:1096000079BA00BF60170020164B174AD3F8A81587
:10961000126801F13C00904222D2D3F8AC05411A05
:109620003C2916D8D3F8B015104810B480FB01C0FF
:109630000F4CC917C1EBE00121602168B1F5C87F6B
:1096400002DD4FF0FF3121605DF8044BC3F8A8251F
:10965000C8E70749C3F8A8256FF001000860C1E713
:10966000704700BF6017002088B60020BF3CB622BC
:10967000880100202DE9F843784C94F8BB2594F834
:10968000BC359A4200F0888094F8BB2594F8BB352D
:10969000C2EBC20204EB8202C3EBC30304EB8303FD
:1096A00092F8DF1593F8C4658B1E9E422FD06C4A4A
:1096B000B4F818361278D4F8C01501339BB21C2ABE
:1096C000A4F818366CD0002594F8BB35654A0133F0
:1096D000A2FB0302520802EB42029B1ADBB284F89F
:1096E000BB3500293DD020F009FDD4F82436C01A3E
:1096F000B0F5FA7F04DB002345F0040584F8223638
:10970000D4F81C36002B34D12846BDE8F88394F8F1
:10971000BB3504F2C457C3EBC30307EB830361B14A
:109720001944002213F8015B2A44994292B2F9D1FC
:10973000D3B203EB1222FF2A3AD0494AB4F81836C2
:109740001278D4F8C01501339BB21C2AA4F818363D
:10975000B9D1454BB4F818265A8004229A800025C6
:10976000B2E794F82236002BBDD1D4F81C36002B7A
:10977000CAD03E4A1268D31AB3F5FA7FC4D994F816
:109780006035032B04BF0023A4F888350023C4F8F8
:109790001C362846BDE8F883D4F8C0150025A0E79C
:1097A000314BB4F818265A8003229A8000258BE7A3
:1097B00094F8BB3501221C2101FB0323FA18FD5C40
:1097C0006DB3012D16D1082E3FD0254AB4F81836B6
:1097D0001278D4F8C01501339BB21C2AA4F81836AD
:1097E0007FF471AF204BB4F818265A8006229A8075
:1097F000002569E71A4AB4F818361278D4F8C0156B
:1098000001339BB21C2AA4F818367FF45CAF164BC8
:10981000B4F818265A8005229A80002554E7192E9C
:10982000D4F8C01524D00E4AB4F818361278013393
:109830009BB21C2AA4F818367FF446AF0A4BB4F842
:1098400018265A8006229A803EE794F82036002B8C
:1098500040F0EB801D46D4F8C01535E760170020B6
:1098600099B40020ABAAAAAA9CB4002088B6002014
:1098700092F802C05578036992F8038092F8049038
:109880009679D77992F808E00CF0070C45EA0C2598
:1098900008F03F0892F80AC01D8095784FEA4818F2
:1098A00048EAD508957BA3F8028092F803804FEA36
:1098B000890040EA981092F8058008F0010840EA13
:1098C0008820988006F00F06507992F80780F601FC
:1098D00046EA5000567AD8804FEA4E0E4EEAD81E1D
:1098E00006F0030692F80680D07A07F07F074EEA6A
:1098F000462E3F01567BA3F80AE047EA18171F815E
:1099000006F00707967A92F809E0C00040EA561080
:10991000167B0CF01F0C46EA072605F03F05577B27
:10992000D8816D014FEA8C1C45EAD7004CEA9E0CA9
:10993000A3F80CC01E825882D07B92F80EE0D77C30
:1099400092F8128092F811C0967C557D800040EA12
:109950009E1092F810E07F000EF0010E47EAD81733
:109960000CF00F0C92F8108040EA8E204FEACC1CCD
:1099700092F814E098824CEA580C907DA3F816C037
:1099800006F07F0692F811C00EF0030E47EA4E274C
:10999000360146EA1C165F8392F814C0577D1E8379
:1099A00005F01F05AD01C00045EA9C0540EA5710CF
:1099B000D8839D83D57D40F2147015F0010F14BF3C
:1099C0000646AD2615F0020F08BFAD201E84588450
:1099D0002B075FD415F0040F0CBF0125092594F85F
:1099E0006035032B1CD1137E94F861052E4ED4F8FC
:1099F0008425C3EB8323A6FB036304EB40065B09CA
:109A0000B6F86475A6F86435DB1B1344013000F02A
:109A10000F02180984F86125C4F88435A4F8880574
:109A2000224B1B68C4F81C364EE65378102B15D019
:109A300020D8DBB994F82136D4F8C015002B7FF478
:109A400042AE94F82336012B26D919B10A78303A60
:109A5000012A21D9002584F8235635E694F82136C9
:109A60000BB984F82156012384F82236D4F8C015A6
:109A7000002529E6303B012BF8D852F8010F0C499C
:109A8000C4F8B4059379908888808B71C4F8C015A8
:109A9000002519E60325A2E70133012284F82336C5
:109AA00084F8222600250FE61F85EB5188B600209A
:109AB000141D002010B5044620F020FB544B00225A
:109AC00083F8282693F82926012A19D9D3F82C26B9
:109AD00040F6AC51821A8A4212DD4E49B3F818267C
:109AE0000978013292B21C29A3F8182605D14A4AF6
:109AF000B3F81816518001219180002283F829269D
:109B0000E2B27E2A29D093F8291629B393F82916B0
:109B10001B295CD893F83816002972D0002182F0F6
:109B2000200283F8381693F82916022903D1012A56
:109B300008BF83F8302693F8BC1593F8294693F8AC
:109B40002906C1EBC10103EB810121440130C0B200
:109B500081F8C32583F8290610BD93F82926012A28
:109B60002FD993F8BC252D4993F8BB450132A1FBB1
:109B700002C1490801EB4101521AD2B294420CD001
:109B800093F8294693F8BC1583F8BC25C1EBC101B5
:109B900003EB8101621E81F8DF2593F830263AB18C
:109BA0000121002283F8281683F83026C3F8240602
:109BB000184A12781C2A1ED00022C3F8340683F8F3
:109BC0003826012283F82926C3F82C0610BD00226E
:109BD00083F829260F49B3F818260978013292B282
:109BE0001C29A3F81826B7D10B4AB3F818365380AE
:109BF0000223938010BDD3F834260749821A0A80C5
:109C0000DAE77D2A8FD1012283F8382610BD00BF04
:109C10006017002099B400209CB40020ABAAAAAA27
:109C200070B55C4C064620F069FAD4F83C36C4F8AE
:109C30003C06C01AB0F5FA5F1AD9002384F8403602
:109C400084F84136A12E2FD0A22E00F09C8094F8EB
:109C5000412694F84F330025A2B16A1C6119D5B290
:109C6000F6B29D4281F82C6384F840560CD070BD4A
:109C700094F84056002DE5D094F8412694F84F33DF
:109C8000002AEAD19D42F2D194F84236052B72D0D7
:109C9000062B03D194F82D331E2B0DD0002384F80E
:109CA000413684F8403670BD01221B2384F84126DA
:109CB00084F84F330025D0E76A1E002A4FF00001D8
:109CC00050DD08460B462344013093F82C33DBB2B9
:109CD00083EA0105ED074FEA530348BF83F08C0385
:109CE00083EA5105EE074FEA530348BF83F08C0324
:109CF00083EA9105ED074FEA530344BF83F08C03D9
:109D0000DBB283EAD105EE074FEA530344BF83F089
:109D10008C03DBB283EA1115ED074FEA530344BF0E
:109D200083F08C03DBB283EA5115EE074FEA53034D
:109D300044BF83F08C03DBB283EA9115ED074FEA51
:109D4000530344BF83F08C03DBB283EAD115590877
:109D5000EB0748BF81F08C01C0B248BFC9B2824254
:109D60000346B0DC224492F82C338B4296D1032078
:109D7000FEF700FE92E70020FEF7FCFD94F82D337D
:109D80001E2B8BD198E70122232384F8412684F8E7
:109D90004F338FE76017002010B5044620F0AEF96E
:109DA0000F4BD3F84426C3F84406801A41F2883298
:109DB0009042E4B205D983F87843012283F848261B
:109DC00010BD93F848269918142A81F8784303D1D6
:109DD000012283F8742310BD0132D2B2EEE700BF36
:109DE0006017002038B5044620F088F9444AD2F8BC
:109DF0004C36C31AB3F57A6F16D892F85036C2F8BB
:109E00004C06B3B1022B1FD0442B92F8B51375D971
:109E100001330231DBB249008B4282F850361BDB42
:109E200001318B4263D038BD0023C2F84C0682F862
:109E30005036A82CF7D1002382F8B433A2F8B633F9
:109E400092F8B513204603E0E0B282F8B50301466C
:109E5000D51885F8B803DBE7B2F8B633E4B283EA85
:109E6000042424B2002CB8BF41F22101A3B2B4BF34
:109E700081EA43035B009BB21C0446BF41F221010F
:109E800081EA43035B009BB2180446BF41F2210103
:109E900081EA43035B009BB2190446BF41F22101F2
:109EA00081EA43035B009BB21D0446BF41F22101DE
:109EB00081EA43035B009BB21C0446BF41F22101CF
:109EC00081EA43035B009BB2180446BF41F22101C3
:109ED00081EA43035B009BB2190446BF41F22101B2
:109EE00081EA43035B009BB2A2F8B63338BD002180
:109EF000012382F8501682F8B43338BDE0B2A7E7E8
:109F0000601700202DE9F04120F0F8F8BF4C05461D
:109F100094F8510680B9042294F8153453B1D4F85A
:109F200074363BB1ED1AB5F57A7F03DB002310469A
:109F3000C4F87436BDE8F08194F85216002284F813
:109F40005126002900F06C8194F854365BB213F16D
:109F5000630FC0F21E81AE4F84F8642694F8652624
:109F6000002A41D013F1310F80F2C98113F1380F6B
:109F700080F2CA8113F13D0F80F2CB8113F1420FC1
:109F800080F2CC8113F1450F80F2CD8113F1470FA0
:109F900080F2CE8113F1490F80F2CF8113F14A0F85
:109FA00000F0D08113F14B0F00F0D08113F14C0F72
:109FB00000F0D18113F14D0F00F0D18113F15C0F4E
:109FC000B8BF642680F2F580D4F86806DFF84CC28A
:109FD00000FB06F08CFB00C6C017C0EB661004EB5C
:109FE000820680B2C6F8180487F8343094F8607698
:109FF00094F8613694F8620694F863661B0443EAA9
:10A000000763334343EA002303F0F020B0F1E02F6D
:10A0100000F0F380102794F8780694F85636D4F8B8
:10A020007C6694F880C63678034103F00F039E42A5
:10A0300010D90B2B0ED8002A40F0338194F85686A5
:10A0400094F857E604EB83030CEA08080EEB082E9D
:10A05000C3F818E494F85836034103F00F039E4206
:10A0600010D90B2B0ED8002A40F01F8194F8588687
:10A0700094F859E604EB83030CEA08080EEB082E6B
:10A08000C3F818E494F85A36034103F00F039E42D4
:10A0900010D90B2B0ED8002A40F00B8194F85A8669
:10A0A00094F85BE604EB83030CEA08080EEB082E39
:10A0B000C3F818E494F85C36034103F00F039E42A2
:10A0C00010D90B2B0ED8002A40F0F78094F85C864C
:10A0D00094F85DE604EB83030CEA08080EEB082E07
:10A0E000C3F818E494F85E36034103F00F039E4270
:10A0F00010D90B2B0ED80AB19A420BD094F85E8679
:10A1000094F85FE604EB83030CEA08080EEB082ED4
:10A11000C3F818E40D2F32DD94F86036034103F0E4
:10A120000F039E4210D90B2B0ED80AB19A420BD0C6
:10A1300094F8608694F861E604EB83030CEA08085F
:10A140000EEB082EC3F818E4102F18D194F86236DD
:10A1500043FA00F000F00F00864210D90B280ED809
:10A160000AB190420BD094F8622694F8633604EB5F
:10A17000800002EA0C0C03EB0C23C0F81834C9B3BE
:10A1800094F856361B0635D4C4F8745605220120BF
:10A19000C2E694F864360133DBB2042B84F86436EB
:10A1A0006CD994F865261A4F6FF05B03002A3FF4D0
:10A1B0001BAF6FF05B0C4FF00C0E16480EF1FF3624
:10A1C00000EB460600EB4E0096F9448196F845E117
:10A1D00090F84501A0EB0E06A3EB0800ACEB080CD1
:10A1E00000FB06F090FBFCF0704440B200286BDAF4
:10A1F0000026E9E6052201208EE694F856060006C0
:10A200003FF508AF04480C27036004E760170020FF
:10A2100088010020888105083C0A00201F85EB5139
:10A220001FF06CFF5049514B91F83520A3FB000300
:10A230005B0C3AB394F8540694F85526D2B2122A1D
:10A2400018BF012A09D002F0EF02A2F1A202B2FA6D
:10A2500082F252090AB981F83520D4F86C1694F8C4
:10A260006526B9B18B422CD0591A012931D094F806
:10A270005216A4F87006C4F86C36B7E63A4F97F950
:10A2800034306BE694F8542694F8550600EB02201F
:10A2900080B2E2E7A4F87006C4F86C3694F852165F
:10A2A000A4E693427FF4CAAED4E693427FF4DEAED6
:10A2B000E8E693427FF4F2AEFCE693427FF406AF09
:10A2C00010E794F8521691E66428A8BF6420064669
:10A2D0007AE6002ACBD0B4F87066D4F86816244F1A
:10A2E000861B143E01FB06F187FB0176C917A1EB23
:10A2F000E60104EB820689B2C6F81814B7E76FF0DE
:10A30000300C4FF0010E58E76FF0370C4FF0020E93
:10A3100053E76FF03C0C4FF0030E4EE76FF0410C2B
:10A320004FF0040E49E76FF0440C4FF0050E44E780
:10A330006FF0460C4FF0060E3FE76FF0480C4FF001
:10A34000070E3AE79C464FF0080E36E76FF04A0CCE
:10A350004FF0090E31E79C464FF00A0E2DE79C4660
:10A360004FF00B0E29E700BF8801002083DE1B435E
:10A370006766666610B504461FF0C0FE124BD3F840
:10A380008426C3F88406801A41F28832904209D9A3
:10A39000E4B2012283F8544683F88826002283F829
:10A3A000512610BD93F888260F2AFAD89918013241
:10A3B000D2B2E4B2102A81F8544683F88826EDD14F
:10A3C000012283F8512610BD6017002038B50C46D5
:10A3D00005461FF093FEE36940F6AC52C31A934260
:10A3E00005DD002384F822300F2D19D038BD94F8F4
:10A3F0002220002AF8D0182AF8D8511CC9B21929ED
:10A4000084F82210A55410D10A4A12781B2A08BFDA
:10A41000094A4FF0010184F8231008BF938038BD2A
:10A420000123E061257084F82230002384F8233072
:10A4300038BD00BF99B400209CB4002010B50D4C6D
:10A44000D4F88C0634F06AFB30B91FF057FED4F80C
:10A450009036834205D310BD1FF050FEC4F890061D
:10A4600010BD054AC01A1368C4F8AC35C4F8B0056D
:10A4700010BD00BF6017002088B6002070B50546EB
:10A480000C468E1814F8013B697995F90400802276
:10A4900049F098FD08B1A642F4D170BD08B5074B4C
:10A4A00093F8361049B193F8372032B1044B18684D
:10A4B0001BF0FCFB034BA3F8940608BD88010020A9
:10A4C000E837002060170020F8B5214F3E68002EC5
:10A4D0003BD0204B1B7813B11F4A82F836301F4BFC
:10A4E0001B7813B11C4A82F83730FFF7D7FF1C4B9B
:10A4F0001C4C1B78013384F896361B4B1B883BB1F0
:10A50000154D3868291D1BF0E8FB08B901232B7194
:10A510003279164B84F89C26F268C4F8A0265A1C9F
:10A52000C4F8A426727984F8A8263269C4F898364B
:10A53000C4F8AC26323BC4F8B036B37984F8B436EC
:10A54000F369C4F8B8360020F8BD4FF0FF30FBE7E0
:10A55000E8370020E92D002088010020EA2D0020A6
:10A56000E42D002060170020E62D0020BE01002011
:10A5700008B5064B93F8372022B9012283F837201B
:10A58000002008BDFFF78AFFFAE700BF880100201E
:10A5900008B5064B93F8362022B9012283F83620FD
:10A5A000002008BDFFF77AFFFAE700BF880100200E
:10A5B00008B5054B1A78054B1978054B18681BF040
:10A5C00075FB044B188008BD8F3A00208E3A00209E
:10A5D000E8370020903A002070B5134E134C3568D0
:10A5E00094F8361094F8372028461BF0A2FC217905
:10A5F000AB798B4203D32B6828461B6998470C4DD7
:10A600000BF09AFE94F8361094F8372023793068CE
:10A6100029706A70AB701BF049FBA8801FF0C4FF63
:10A620004FF0FF3070BD00BFE837002088010020E8
:10A63000702F002008B5084B93F8961621B9012217
:10A6400083F89626002008BD4B1E594259414920E7
:10A650000BF0DAFEF6E700BF6017002010B5044BE0
:10A66000044C1A880449204626F03AFA204610BDC8
:10A67000943A00201C1E0020D128060810B5054B76
:10A6800005491A8E03F2C164204626F029FA2046B5
:10A6900010BD00BF60170020D128060808B5044B84
:10A6A000D88D40F400400CF0EFF8002008BD00BF4A
:10A6B0006017002070B5384B86B01A788DF80C20E2
:10A6C0005A788DF80D2000269A78CDF80E608DF816
:10A6D0000E209A88ADF810201A7ACDF8126003ADDA
:10A6E0008DF8142095E807006C4603C422802B4A9D
:10A6F0001278022A1C4632D1294B1978294B8DF841
:10A7000000101A78284B8DF8012018681BF0CEFA3B
:10A71000264BADF8040093F8C636E3B905200CF0DB
:10A720005FF8234B0A221E788DF80260694628469E
:10A730004DF0AEFC58B19DF8003023709DF801300B
:10A740006370BDF80430A670A3801FF02DFF4FF09A
:10A75000FF3006B070BD06200CF042F8E1E7154B63
:10A760001B7873B90E4B19780E4B8DF800101A78C0
:10A770000D4B8DF8012018681BF098FAADF8040015
:10A78000CFE730460CF02CF80B4B8DF800601B889F
:10A79000ADF80430C5E700BF702F00208C3A0020D0
:10A7A0008E3A00208F3A0020E83700206017002002
:10A7B000923A0020963A0020943A002008B50C4BBB
:10A7C00093F90030012B0B4B04D1002283F8C626ED
:10A7D000002008BD93F8C60618B9012283F8C626E2
:10A7E000F6E7012818BF02200BF0FAFFF0E700BFE0
:10A7F000040A00206017002070B5124C124B94F927
:10A8000000401A78012C05460E4605D1012A01D0D8
:10A8100001221A70002070BD012A03D100200BF024
:10A82000DFFFF7E7022AF3D1084B002483F8C6467E
:10A83000FFF7C4FF064B314628461C70FDF766FC47
:10A84000E8E700BF040A00208C3A002060170020CF
:10A85000963A002008B5074B93F90020064B12B931
:10A860001A70002008BD1A780AB90122F8E7FFF72C
:10A870009FFEF6E7040A00208E3A002008B5074B39
:10A8800093F90020064B12B91A70002008BD1A78FF
:10A890000AB90122F8E7FFF78BFEF6E7040A002069
:10A8A0008F3A002010B5094C94F84C00032801D8C9
:10A8B00019F076FE064B94F84D209A7094F84E20CD
:10A8C000DA7094F84F201A71002010BD6017002034
:10A8D0003C5C002008B56622034904484CF0DAF8D5
:10A8E00019F0A2F8002008BDBC170020305200204B
:10A8F00008B5064B93F8D10028B1054B01385978BB
:10A90000C0B22EF03BFE002008BD00BF6017002043
:10A91000D0D4002008B5064B93F8D00028B1054BE1
:10A9200001381978C0B23BF0F1FF002008BD00BF2C
:10A9300060170020D0D4002038B51E4D95F8DC40BB
:10A940007A2303FB045495F8933284F827311A4B89
:10A9500018683BF0F7FF95F8943284F8FA3095F8D0
:10A96000953284F8FB3095F8963284F8FC30B5F8CF
:10A970009832A4F81431B5F89A32A4F8123195F847
:10A980009C3284F82F3195F89D3284F8533195F834
:10A990009E3284F8543195F89F3284F84E3195F800
:10A9A000A03284F84F3195F8A13284F8503100205C
:10A9B00038BD00BF60170020203F002038B50D4B88
:10A9C0000D4A18680021034602F1090514781C722B
:10A9D00054785C7294789C7235F811409C810131F6
:10A9E000032902F1030203F10603EFD13BF0AAFFB2
:10A9F000002038BD203F0020231A002008B5054B59
:10AA000093F8A7020138C0B283F8C2022EF0DEFD2F
:10AA1000002008BD6017002008B5054B93F892028E
:10AA20000138C0B283F8DC001FF0C7FD002008BD6C
:10AA30006017002010B5054C94F8DC001FF0BDFD38
:10AA400094F8C2022EF0C2FD002010BD6017002055
:10AA500070B41B4A92F9F84292F8F952214491FBE2
:10AA6000F4F304FB1311D2F8F04282F8F412CBB2E3
:10AA7000A1686B430E2404FB0313C2F8C83602F22C
:10AA8000CB6419460E790E2E12D1002182F8DC1605
:10AA90001E790E2ECCB201F101010ED1AC4223463B
:10AAA00028BF2B46013B82F8DC3670BC34F0E8BA94
:10AAB0004E7B04F8016F0E31E4E70E33E8E700BF88
:10AAC0006017002038B5164BD3F8F02252680546BF
:10AAD0001C46BAB994F8DD0698B10138C0B284F8C2
:10AAE000DD0604EBC00000F5DC6003C80D4B83E815
:10AAF0000300FDF7A4FE284694F9F412FFF7A8FF1F
:10AB0000002038BD93F9F502D3F8C836C0EBC00079
:10AB100003EB400090470028DCDA4FF0FF30F0E70D
:10AB200060170020501A002038B505460C4641B386
:10AB30001D4BD3F8F0228A4225D093F8DD26082A4F
:10AB40001FD8511C83F8DD1603F53C7103C903EBD4
:10AB5000C20202F5DC6282E803000022C3F8F04280
:10AB600083F8F522236833B19847013003D1284692
:10AB7000BDE83840A6E7FDF762FE00212846FFF752
:10AB800067FF002038BD93F9F51293F8F92291FB85
:10AB9000F2F402FB141283F8F522FDF750FE214671
:10ABA0002846FFF755FFECE76017002070B5194BFA
:10ABB0009B78012B25D127F0E5FD0446D0B116493D
:10ABC0001648174D25F08CFF27F006FA044627F0AB
:10ABD000A7F8A468820AC2EB94242B4611491248B4
:10ABE00025F07EFF2B4622460E491048BDE87040F6
:10ABF00025F076BF0E490948094D25F071FF224620
:10AC0000EBE70C4905480C4D002425F069FF22466E
:10AC1000E3E700BFD05E002065F10508901E00202C
:10AC200062F1050871F10508981E0020A01E0020A1
:10AC30006BF10508BE0606087904060808B5FFF79B
:10AC4000B5FF054A054B917883F8EB121288A3F8FB
:10AC5000EC22002008BD00BFD05E0020601700205D
:10AC600010B5044627F08EFDD8B1204634F008FA1E
:10AC70000F4B03220521204634F0DEF9204634F044
:10AC8000C9F927F075F827F085FD60B113201FF092
:10AC90004BFB204634F0F4F9204634F0BBF9FFF7C3
:10ACA00085FF002010BD642020F0B8F8EBE700BF5E
:10ACB00077F105082DE9F0411E4600238B55074624
:10ACC00008460C4690464AF051FF751E301A21186E
:10ACD000254440426A1A002AA5EB040312DA2344F1
:10ACE00020211A1B002A11DA0023A355094B93F8DF
:10ACF0004817891B234642463846C9B2BDE8F04191
:10AD000034F09AB92B5C05F80139E3E703F801192F
:10AD1000E7E700BF60170020F0B5184E002383B0AE
:10AD200004460821D6F84C0786F8293602AD20F0F3
:10AD3000D7FAD6F84C07812120F0D2FA8923D6F829
:10AD40004C6725F8023DE71D14F8010B32462946F1
:10AD50000DF0DEFFBC42F7D1BDF806301A0A52FAF8
:10AD600083F3C3F1FF039BB23246D8B20021ADF8A2
:10AD700006300DF0CDFF03B0F0BD00BF601700201E
:10AD80000FB400B583B004AB054953F8042B01930D
:10AD9000002025F029FC03B05DF804EB04B07047F7
:10ADA00063C800084E482DE9F04144224D4F002170
:10ADB00004464DF095F94C4B97F85027DFF844E1E5
:10ADC00097F85B879EF8031084F82C1003F5D36C7A
:10ADD000012A08BF9C460CF110060FCE04F10C05A9
:10ADE0000FC597F854329EF80200BCF86010326824
:10ADF00084F82A80012B04BF97F8633784F82A303F
:10AE00000C2821852A6016D80123834013F4E85FBB
:10AE10004BD094F82830042B53D05A1F042A47D81B
:10AE20003249334A063BC4E90112032B51D8DFE80B
:10AE300003F04446424E002094F82830032BE8D11A
:10AE40002C4A2B4BC4E9012307222B4B022083F809
:10AE500039201CF0B3FA4FF48073238420486368D0
:10AE60009847238C07EE903AF8EEE77AF7EE006AFF
:10AE700086EEA77AB7F864374FF47A72226384EDCE
:10AE8000007A7BB11D4D05F16C06B7F86437216B74
:10AE900000EE103A2846B8EE400A243526F064FB4E
:10AEA000AE42F2D10120BDE8F08113F0810FC3D191
:10AEB00088B9BDE8F0810B22C7E70922C5E70A225D
:10AEC000C3E70F4A0A4BC4E901230822BDE70C225D
:10AED000BBE70822B9E70128ADD10020E9E700BFB0
:10AEE000580E0010601700201C0000109DE402089E
:10AEF000592205080916050888010020C81E0020EF
:10AF000001160508D058002038B51A4C1FF0F6F885
:10AF1000D4F82436C31AB3F5FA6FC4BF002384F8FB
:10AF2000283694F82836054623B90023C4F8C035DE
:10AF3000012038BD00221049D4F8C0050DF052F9A7
:10AF400094F828367BB90D4B1B781C2B04D1D4F810
:10AF5000D4370B4AEB1AD3800023C4F8D457C4F873
:10AF6000C035012038BD0748FFF7D6FE002384F81E
:10AF70002836E8E760170020881D002099B40020DB
:10AF80009CB40020E882050890F84B3830B53BB9F6
:10AF900090F8491890F84A380124DAB2914200D862
:10AFA00030BDB0F8525804FA03F22A43A0F85228F0
:10AFB0000133F2E710B50446012100791AF0CCFF05
:10AFC000627920689108838902228A4023EA020379
:10AFD000838110BD10B50446222100791AF0BCFF10
:10AFE00063792268990802238B409BB2D94389B2C6
:10AFF000118291890B43938110BD73B590F85B3832
:10B00000032B05460C462AD100231E4E8DF807302F
:10B010009DF8073095F85C289A4201D802B070BDBF
:10B020009DF8073006EBC3031B797BB184F0010365
:10B0300073B19DF8073056F8330033F061FD9DF889
:10B0400007300133DBB28DF80730E1E72346EFE745
:10B050009DF8073056F8330033F04CFDEFE7036CF2
:10B06000C06BDB79DB0748BF81F0010424B102B07B
:10B07000BDE8704033F044BD02B0BDE8704033F02D
:10B0800039BD00BF546E00202DE9F04F6F4B85B0E5
:10B090001B780390002B7CD06D4A1378924603F006
:10B0A000FF0E002B75D16B4EDFF8B081B6F8DC37A0
:10B0B00002934FF03C09B6F8DE3796F8D81796F8A9
:10B0C000D97796F8DA2701934C4698F8023098F829
:10B0D0000350C3F1FF039BB2002B00F0B380C3F118
:10B0E000FF036B43B8F800C0BCFBF9FB1B12BBF1BC
:10B0F000050F0DD8DFE80BF0035062728494DAB2CA
:10B10000EB1A0CFB03F3B3FBF4F71744FFB2294629
:10B11000039B012B0BBF3B020B0243EA014343EAB3
:10B12000074313430025C5F1170C012000FA0CFC5E
:10B1300001981CEA030F8446029814BFE346834635
:10B1400005EB0E0C44480135182D40F82CB0EAD11F
:10B150000EF1180EBEF5407F08F10408B5D10123A9
:10B160008AF80030D6F8E03786F8DA2740F22A323B
:10B170005A60D6F8E42786F8D81700215162118862
:10B1800086F8D97741F0010111801A6842F0010276
:10B190001A6005B0BDE8F08FBCFBF4F104FB11CCE4
:10B1A0001FFA8CFCDAB2CCF13C0CEB1A03FB0CF16D
:10B1B000B1FBF4F11144C9B22F46A9E7BCFBF4F28C
:10B1C00004FB12CCD9B21FFA8CFCEB1A0CFB03F275
:10B1D000B2FBF4F20A44D2B22F4699E7BCFBF4F278
:10B1E00004FB12CC1FFA8CFCD9B2CCF13C0CEB1A4C
:10B1F00003FB0CF3B3FBF4F70F44FFB22A4687E7D7
:10B20000BCFBF4F204FB12CCDFB21FFA8CFCEB1A8D
:10B210000CFB03F3B3FBF4F13944C9B22A4677E7D8
:10B22000BCFBF4F204FB12CC1FFA8CFCDFB2CCF1B5
:10B230003C0CEB1A03FB0CF2B2FBF4F23A44D2B230
:10B24000294665E72A462F46294661E7E65E002043
:10B25000E75E002060170020145F0020F0530020FC
:10B26000044A0023016842F823100133202BF9D14E
:10B27000704700BFF05300202DE9F041A84E96F82A
:10B28000008098B0B8F1000F40F02E81A54B1F78D8
:10B29000002F00F0298138461EF0C6F8A24C036842
:10B2A000C4F8E437C3680546002B00F01D8138461A
:10B2B00033F0F8F9C4F8E80718B12923837180F84E
:10B2C00007802A7A994F2A2133F0B4FAD4F8E40798
:10B2D0001EF02AF841F0FEF8D4F8E40794490388F8
:10B2E000944A23F001031B041B0C8842038011D0F5
:10B2F000DFF844C2136860450CD00CF5804C604503
:10B3000008D00CF5806C604504D00CF5806C60456D
:10B3100040F0ED801368BB4240F2EF8088420FD0CE
:10B32000854FB8420CD007F58047B84208D007F5E2
:10B330008067B84204D007F58067B84240F0DA80F1
:10B3400003F1B77303F558537C4FB3FBF7F3013B9D
:10B350009BB288420FD0784988420CD001F58041D9
:10B36000884208D001F58061884204D001F58061EF
:10B37000884240F0C5801268591C0327B2FBF1F2E5
:10B380006F49B2FBF1F291B2B1FBF7F14F00A4F8B3
:10B39000DC1718A9A4F8DE7721F85C3D0027ADF88A
:10B3A0000C70ADF806708DF80E70029241F0CAFF75
:10B3B000CDE90677089760230493EB79ADF8147014
:10B3C0009F0740F1A080DB00042203F00803ADF8E2
:10B3D0001420ADF81E300023069304AA6979D4F82E
:10B3E000E4071DF05EF908226979D4F8E4071DF03E
:10B3F00029F9D4F8E437B3F8442042F40042A3F822
:10B4000044201A8842F080021A80EA79697912F0A1
:10B41000020F14BF042201228A40198C92B221EA41
:10B4200002011984198C0A431A841A8842F0010215
:10B430001A8029210022287D48F056F960224149CE
:10B44000287D002348F0B8F8E868C4F8E0070AF05F
:10B4500049F9D4F8E007036823F0010303600AF018
:10B4600041F909A80AF000F9D4F8E4376A793433CD
:10B47000134400270A9340F22A33CDE90D374FF4E5
:10B4800080630F932B6909932F4B0B9340230C93ED
:10B490004FF480514FF48043CDE910134FF4403006
:10B4A0004FF4807309A9CDE91230D4F8E0070AF00F
:10B4B000EDF86A79D4F8E4370C2A9CBF234931F8B7
:10B4C00012709A891743D4F8E0279F81136843F0DC
:10B4D0001003136009A800230993FFF7C1FE0120A0
:10B4E000FFF7D2FD0123337018B0BDE8F081B7EB50
:10B4F000530F04D213685B0822E7002329E70023D7
:10B500001268520838E701225B00ADF8122003F000
:10B5100002034FF48072ADF82020ADF81C305AE7DA
:10B52000E65E0020BC6B002060170020FF6BDC0291
:10B5300000040140F4E8002000000140006CDC023F
:10B5400000350C00691A0508145F002074EA05082C
:10B5500010B5194C94F8C63033B3184A136843F445
:10B5600080331360FFF788FE154B01221A7094F8A0
:10B57000C720144B022A98BFDA7094F8C8201A71B9
:10B5800094F8C9205A71B4F8CA20DA8094F8CC2013
:10B590001A7294F8CD205A7294F8CE201A7094F84A
:10B5A000CF209A72002010BD19F078F84FF4803047
:10B5B00024F09AFEDBE700BF6017002054E900206A
:10B5C000E55E00208054002001EB81010D4B70B539
:10B5D000A1F1A1051D449C3B06465C1815F8013FEE
:10B5E000717996F90400402248F0ECFCA542F5D1AF
:10B5F000717996F9040000234022BDE8704048F0BC
:10B60000E1BC00BFEF82050838B505464C1E14F8B2
:10B61000011F01B938BD2846FFF7D6FFF7E707B588
:10B6200001EB410301EB4101C1F3C301503A103179
:10B630005B008DF8042003F00E038DF80610032242
:10B6400001A98DF80530FEF719FF03B05DF804FB82
:10B650000A460021E3E738B5042209490546FEF70A
:10B660000DFF4FF48064013C00234022697995F975
:10B670000400A4B248F0A6FC002CF4D138BD00BFF1
:10B680009285050838B541790446AE23802290F9A9
:10B69000040048F097FC054688B116220949204667
:10B6A000FEF7ECFE042208492046FEF7E7FE20469E
:10B6B000FFF7D1FF032205492046FEF7DFFE2846AB
:10B6C00038BD00BF96850508AC850508B08505081E
:10B6D000F8B5584C94F90020002A5FD0564B997960
:10B6E00001B99A71198E11B9E18801B119865349CE
:10B6F000088810B9A08800B10880022AE17805D135
:10B7000011F0080218BF012283F8C6264C4B4D4A9F
:10B710001B784D4DD35C85F83D304C4B4C4E1B781F
:10B720003068002B3FD194F90130082293FBF2F2EC
:10B730000132002833D04769BA5C85F83F2080B3D6
:10B740005A4202F0070203F0070358BF5342013385
:10B75000026952F823301B7885F8403001F00A0363
:10B760000A2B3C4F26D1E2883B49384625F0B8F9F0
:10B77000202385F84630E3789A073AD513F0040F72
:10B780000CBF4F23492385F848305223502285F8B7
:10B790004930002385F8472085F84A30F8BD3F221C
:10B7A000CBE72E4BD7E7552385F83F30462385F866
:10B7B0004030D3E7C90705D5A2882749384625F088
:10B7C0008FF9D5E794F9011030684B4203F0070375
:10B7D00001F0070258BF5A420132082391FBF3F1EE
:10B7E00001311AF063FA1C490246384625F078F90F
:10B7F000BEE794F9002094F90230022A07D0272BE3
:10B8000011DC182B11DC0F2BD4BF0023012332686D
:10B810006AB10133D26952F8232011491148BDE8B9
:10B82000F84025F05DB90323F1E70223EFE70B4A67
:10B83000F3E700BF040A002060170020943A0020BC
:10B840008C3A00208AF10508880100208D3A0020FA
:10B85000E8370020CA010020D128060888F1050831
:10B8600060040608CF0100203C4A117870B53C4CBA
:10B87000002949D1D4F8FC3213B9C4F8F03770BDAF
:10B88000384BD8690028B8BFD961DB6904EB830362
:10B89000D3F80033C4F8F037002BF0D00123137035
:10B8A000314BC4F8F0324FF400500023A4F8F432C6
:10B8B00084F8DD361BF08AFDD4F8F00733F0D2FBB4
:10B8C000D4F8F007437A027A112B4FF0010136D8F1
:10B8D00084F8F417022184F8F517002184F8F6178C
:10B8E000510884F8483784F8F912017B31B10021FE
:10B8F00084F8F61784F8483784F8F922D4F8F0125F
:10B90000BDE87040FFF710B9FCF7B4FFD4F8F0576A
:10B9100085420646B3D094F8F52294F8F41294F8D0
:10B92000F93201FB032384F8F5322B6828465B6863
:10B930009847EB7BC4F8F067013BEB73BCE784F8F6
:10B94000F517022184F8F617991E002584F8481788
:10B95000911E84F8F45784F8F912C6E70F6C0020A2
:10B960006017002088010020E4010020F8B5BE4BDC
:10B97000D3F8F02206460D461C460AB9FA2005E027
:10B98000062904D1FFF770FF4FF4FA70F8BD0529BE
:10B990000ED193F8F7272AB1002283F8F7274FF446
:10B9A000FA70F3E73046FFF78DF84FF4FA70EDE7E1
:10B9B000072908D10022AD4983F8F727FFF7B4F82B
:10B9C0004FF4FA70E2E7022945D193F8F7775FB9AF
:10B9D00093F9F53294F8DC26934233DA013384F894
:10B9E000F5326B1E012B03D894F8F737002BC5D026
:10B9F00094F9F532D4F8C816C3EBC30201EB420147
:10BA00000A79013A0C2AB9D801A050F822F000BFF7
:10BA10000BBB0008F1BA0008B7BA0008CDBA00089D
:10BA20001DBB0008F7BB000885BB00083BBC000835
:10BA300075BC00087DB9000885BB000841BB000843
:10BA4000B3BB000894F8F412013149B2FFF700F8D3
:10BA500084F8F572C5E70129C3D193F8F737002BB5
:10BA6000C2D194F8F512D4F8C8264B1E5BB2C3EBD2
:10BA7000C30002EB400084F8F532007920B9002BB6
:10BA8000C4BF023984F8F51294F9F532581C06D077
:10BA9000C3EBC30302EB43031B79002BA4D194F83F
:10BAA000F412013949B23046FEF7D2FF94F8DC3681
:10BAB00084F8F53295E7042D7FF460AFD1F80910D2
:10BAC0003046FFF731F84FF4FA705FE7D1F80530F0
:10BAD000002B3FF453AF042D7FF450AFD1F8091081
:10BAE0003046984701303FF45DAF4FF4FA704DE7B0
:10BAF000D1F80530002B3FF441AF042D7FF43EAF69
:10BB0000D1F8091030469847EFE73046FEF7DAFFE4
:10BB1000002384F8F7374FF4FA7037E7D1F809209B
:10BB2000002A3FF42BAF291F4D424D4115701C4494
:10BB3000FA2094F8CC2642F0010284F8CC2625E7BE
:10BB4000D1F8091000293FF419AF042D94F8F72714
:10BB500040F0B280464922B9012284F8F7274A67AB
:10BB6000E5E74A6F022AE2D801324A67DFE7012D92
:10BB700040F094803E4A526F0A3295400A8815433D
:10BB80000D80D4E7D1F8090000283FF4F7AE07682C
:10BB9000042D3A7806D1457995423AD98079024404
:10BBA0003A7036E00579954233D28079121A3A70AC
:10BBB0002FE0D1F809000268042D137816D100791E
:10BBC000984201D901331370D1F805301BB1D1F877
:10BBD00009103046984794F9F5321C44FA2094F83D
:10BBE000CC3643F0010384F8CC36CFE6002BEBD003
:10BBF000013B1370E8E7D1F8090000283FF4BEAE1E
:10BC000007683A78042D55B212D190F905C0AC45B9
