:020000040800F2
:10000000F0FF0010E13A05084D7F010829AD020814
:10001000813B0508813B0508813B05080000000085
:10002000000000000000000000000000597F0108EF
:10003000557F010800000000517F01088DAD0208C6
:10004000813B0508813B0508813B0508813B05088C
:10005000813B0508813B0508A9B40408D5B504080F
:1000600099B504085DB5040821B50408BD0201086E
:10007000AD0201089D0201088D0201087902010804
:100080006502010851020108813B0508813B050812
:10009000813B0508813B0508813B0508E5B4040860
:1000A000813B0508813B0508813B0508813B05082C
:1000B000A18C0208E18B0208218B0208813B050814
:1000C000813B0508813B0508813B0508813B05080C
:1000D000813B050805AF0208813B050869AE0208AF
:1000E0006DB40408813B050839D20108813B05083D
:1000F000813B0508813B0508813B05083D0201085D
:10010000813B0508813B0508558A0208813B0508AB
:10011000813B0508813B0508A55A03082D590308B2
:10012000290201081502010801020108ED01010878
:10013000D9010108813B0508813B0508813B050881
:10014000813B0508813B0508813B0508D5B70108BF
:10015000C5010108B10101089D010108CDAD0208EA
:10016000813B0508813B0508813B0508813B05086B
:10017000813B0508813B0508813B0508813B05085B
:08018000813B0508813B0508E5
:080188008836050001000000AB
:1001900010020100641E0020601E0020000000000C
:1001A0001C0700081F021000781E0020681E002097
:1001B00000000000A184000802000C00303E002076
:1001C0003C3F00200000000000000000F701060096
:1001D000DC3E0020483F0020000000001E07000811
:1001E0000B3018005C510020445500200000000036
:1001F000240700081F302400245100205C550020F3
:10020000000000003C07000805020400F052002036
:1002100080550020000000006007000803010A006C
:1002200016480020845500200000000064070008E4
:10023000130204007C4700209055002000000000BD
:100240006E0700081C021000006D00209471002051
:1002500000000000B183000820320A00B0710020C5
:10026000A471002000000000C1DD0108140003009B
:1002700068710020BC7100200000000072070008B7
:100280001010020064710020C07100200000000006
:10029000760700082810100054710020C471002057
:1002A0000000000039DE0108190005004C71002033
:1002B000D47100200000000078070008F821060033
:1002C00044710020DC710020000000007E0700085F
:1002D00001200800046B0020E471002000000000F1
:1002E000840700080C109C00586A0020EC71002064
:1002F00000000000C10601080A702800E46900201F
:100300008872002000000000E1DD01080EA07401E9
:1003100070680020B0720020000000003D970308C4
:1003200001010400D06700202474002000000000B8
:100330000000000000010400C867002028740020AD
:10034000000000008C07000802010300C4670020C1
:100350002C74002000000000ED06010809020100D5
:100360007C6E002030740020000000009007000820
:10037000220214015875002034740020000000008F
:10038000598B000801020500DC6700204875002039
:100390000000000009D5010800020500806D002062
:1003A0005075002000000000000000001A023C0010
:1003B00018770020947B002000000000318A00089C
:1003C0002700040014770020D07B002000000000EC
:1003D000920700080A020A00408200208884002058
:1003E0000000000025F5020803000100687D0020E0
:1003F000948400200000000000000000031233007D
:100400005484002098840020000000009807000811
:1004100025102C0174820020CC84002000000000F4
:1004200000000000F6210C00AC7C0020F8850020C4
:1004300000000000CC0700081A000E00508F0020BA
:100440007C8F002000000000D80700081500700015
:100450000C8B00208C8F00200000000000000000AA
:100460002A006000F08E0020FC8F002000000000B9
:10047000159703082C0010006C9000205C90002061
:1004800000000000A59403082B002400A090002089
:100490007C9000200000000075940308292078005B
:1004A000FC880020C4900020000000000000000034
:1004B0001B020800E098002054A900200000000062
:1004C000D98300081E0006004C9600205CA900207D
:1004D00000000000E60700081B100C00BC93002081
:1004E00064A9002000000000714B04082102F00004
:1004F0001492002070A90020000000007937040841
:1005000005100600F09B002060AA002000000000FB
:10051000EC070008371024007C98002068AA00200F
:1005200000000000F20700080E020200D49B002029
:100530008CAA002000000000160800081610060013
:100540000892002090AA002000000000180800086F
:100550002F10220030A9002098AA002000000000DF
:100560001E08000823100E0094950020BCAA00204D
:100570000000000051DE0108F55188004491002080
:10058000CCAA0020000000009976040826100C0078
:1005900060AB002054AB002000000000B124040830
:1005A0000D0034005CDE0020D4DE002000000000DE
:1005B0003D08010804008000E4D4002008DF00208A
:1005C000000000000000000013000400D0D4002050
:1005D00088DF00200000000040080008FD01240022
:1005E000ACD400208CDF002000000000456E020823
:1005F00018202E0078D40020B0DF0020000000007A
:10060000C18A000806101A00D8C20020E0DF0020CE
:10061000000000009D970308FB010100D4C20020E8
:10062000FCDF0020000000002D8B0008FC01090009
:10063000A0C1002000E00020000000003D8B000869
:1006400034001000C8C000200CE0002000000000B2
:100650007197030811020800A0C000201CE00020D0
:1006600000000000440800081212040098C0002096
:1006700024E00020000000004C08000812201000B8
:1006800088C0002028E0002000000000500800087A
:10069000FF11060074B5002038E0002000000000C3
:1006A0008584000808120F0080B5002040E000207B
:1006B0000000000015840008F901040070B5002056
:1006C00050E000200000000089870408FA010200C1
:1006D00058AF002054E0002000000000A185000871
:1006E0000202030088AC002058E000200000000057
:1006F000000000000C02040044AC00205CE000207C
:10070000000000006D840008FE011400A4AE00206B
:0C07100060E0002000000000E58300080D
:10071C0000003F0100000000AE014A015E012C0107
:10072C0064010100000001000A019A01001E0A0088
:10073C0000000000000100000005000001020300A1
:10074C00000000000000000000000000000000009D
:10075C000080070000000000040101006C1600007E
:10076C000000000001180300000000050000280133
:10077C0000000401F4011400E8036400040A000101
:10078C009001000020002003000000000000000089
:10079C00000000000000000000000000000000004D
:1007AC00000000000000000000000000000000003D
:1007BC00000000000000000000000000000001002C
:1007CC000000000001000000020200007E05EA05A6
:1007DC00B4053200E803D00700000000010000005F
:1007EC0020000201000020003200C800D007960053
:1007FC00140032002800B00440060005500014001C
:10080C000F0008006400010001000000C409000092
:10081C0019000000000000000000000000000000B3
:10082C0000000000000000000000000000000000BC
:10083C00000000000800443000000000010101012C
:10084C00FFFFFFFF00000001000005535846340075
:04085C000008000090
:100860001A0300000000000000000000000000006B
:100870000000000000000000000000000403090464
:100880001201000200000040830420570002010210
:1008900003010000D9920008C1920008B19200083B
:1008A000F58400085D92000805920008E5840008C0
:1008B000A00200202DDF0008FD840008F984000854
:1008C000F1840008998C0008ED840008E984000890
:1008D000C8550508719D0108D56C0108B1A801082B
:1008E0000000000000000000B5A50108D1A4010827
:1008F0000000000000000000000000000D6801087A
:1009000095850008898500083593000851930008F3
:100910004185000819930008FD9200080068214CE9
:100920001F0000001C0000001F0000001E0000004F
:100930001F0000001E0000001F0000001F0000003C
:100940001E0000001F0000001E0000001F0000002D
:10095000FF01FF0000000401000000000000000291
:100960001000000007000000000000000000000070
:100970000102030406070809008002021F000000AC
:1009800053544D202020202050726F647574202015
:100990002020202020202020302E30310000000098
:1009A0002C3F002008000000000000001C3F002039
:1009B000080000002D6E0108196D01084DAB0108FB
:1009C000000000009568010805A70108696C01088E
:1009D0007DA6010800000000000000005168010829
:1009E000E1660108D5660108819C01089D9C01080B
:1009F000659C0108499C01082D9C0108E56D0108D2
:100A0000F56C01088DAA0108000000006968010862
:100A100081A601083D6C0108DDA501080000000069
:100A2000000000005D680108C00300200000000015
:100A300000000000000000000000000000000000B6
:100A400000000000000000000000000000000000A6
:100A500050BA05085CBA050868BA050874BA0508F2
:100A600080BA05088CBA0508D0CA05087CF70508C5
:100A7000ACF60508ECB90508401E060898BA05084A
:100A80009CBA0508A0BA0508A4BA0508CCC4050894
:100A9000A8BA0508ACBA0508EB6E0108E76E0108B4
:100AA000DF6E01086376010841760108AD65010833
:100AB00001760108CF6E0108C56E0108C16E0108FC
:100AC000B96E01080403090412010002EF0201409B
:100AD00083045632000201020301000012010002E9
:100AE000020200408304405700020102030100009B
:100AF00009022000010104C03209040000020806B6
:100B00005005070581024000000705010240000072
:100B100009026400030100C032090400000103005F
:100B200000000921110100012226000705830308A6
:100B3000000A080B0102020201000904010001027F
:100B40000201000524001001052401000204240212
:100B5000020524060102070582030800FF090402BA
:100B600000020A000000070501024000000705819D
:100B70000240000009024300020100C032090400E3
:100B800000010202010005240010010524010001FA
:100B9000042402020524060001070582030800FF61
:100BA00009040100020A00000007050102400000DC
:100BB0000705810240000000FF0000000100000066
:100BC000FF1FFF1F05010905A101A1000501093053
:100BD00009310932093309350934094009381581C9
:100BE000257F750895088102C0C000000902220017
:100BF000010100E0320904000001030102000921A3
:100C0000110100012226000705830308000A0000E5
:100C100000000000010203040102030406070809A2
:100C200015A8010819A7010871AB0108D1680108CE
:100C3000496E0108E1680108FD680108A96801081A
:100C4000996801080000000000000000185500200D
:100C5000000000003C55002000000000E001207072
:100C60000020702D72000000FFFFFFFF0001010156
:100C7000000800000000000000000000E8780508FF
:100C80000000000000000000747905080100000069
:100C9000FA00000001000000010000000101000056
:100CA0003A6A002000C80100396A002000500100A3
:100CB000386A0020005A0100366A00200200000055
:100CC0000C69050880C1050888C1050896930020B5
:100CD0000100C40900000000949300200100C40931
:100CE00000000000929300200100C40900000000F1
:100CF000909300200100C409000000008C930020A4
:100D00000100C409000000008E9300200100C40906
:100D1000000000008A9300200100C40900000000C8
:100D2000889300200100C40900000000EC67002047
:100D30000100C80001000000EA67002032003075A1
:100D400032000000E9670020055A0500E667002030
:100D500000FF0100E867002001000000EC05002012
:100D6000E467002002000000488A0508E5670020CB
:100D700000FF0100E767002001000000EC050020F3
:100D8000E367002002000000488A0508106B00207D
:100D9000EE02CA08010000000E6B002000C801002E
:100DA000640000000D6B002000C80100640000001A
:100DB0000C6B00200200000018690508D6670020AF
:100DC00080C1803E05000000D467002080C1803EC5
:100DD00005000000CE67002080C1803E05000000B5
:100DE000CC67002080C1803E05000000C76700205E
:100DF00000FF0100C26700206400F4010100000050
:100E0000C16700200400000024690508C0670020B5
:100E10000200000038690508616800200D0000002C
:100E2000446905085E680020006401005C680020D9
:100E3000320010270A0000005B6800200D0000004F
:100E4000446905085A6800200D000000446905083F
:100E500059680020020000007C6905081C6B002016
:100E60000100FF7F010000001B6B0020020000005A
:100E70008869050863680020030000009869050878
:100E8000626800200300000098690508186A0020C5
:100E90000000E80301000000166A00200000E803DB
:100EA00001000000146A00200000E80301000000B7
:100EB000126A00200000E80301000000106A002010
:100EC0000000E803010000000E6A00200000E803B3
:100ED000010000000D6A0020001401000C6A0020CF
:100EE00003000000A8690508246A00200000F4013E
:100EF00001000000226A00200000F401010000004F
:100F0000206A00200000F401010000001E6A002099
:100F10000000F401010000001C6A00200000803E77
:100F2000010000001A6A00200000803E010000005D
:100F30004D6A0020196401004C6A00200200000084
:100F4000B86905084A6A0020E803D0070A000000D3
:100F5000486A0020006401000A0000003D6A002089
:100F6000006401003C6A002000640100446A002023
:100F7000006401000A000000436A002000640100D0
:100F80000A000000426A0020006401000A0000001C
:100F9000476A0020006401000A000000466A002041
:100FA000006401000A000000456A0020006401009E
:100FB0000A000000416A002001FF01000A00000051
:100FC000406A002001FF01000A0000003F6A002083
:100FD00001FF01000A0000006C6800200000F4011D
:100FE000010000006A6800200000F4010100000018
:100FF000686800200000F40101000000666800201D
:101000000000F40101000000646800200000F40109
:1010100001000000356A002000640100346A0020ED
:1010200000640100336A002000640100326A00207D
:10103000FF080100316A0020016401003DDB010866
:1010400001DB0108C4690508306A00200064010062
:101050002E6A00201400E803010000002C6A002022
:10106000E80330750A0000002A6A002000C8010069
:10107000296A002000C80100286A002000C8010079
:10108000276A0020006401000A000000026B0020B3
:101090000000D00701000000FD6A002000C8010028
:1010A000FC6A002000C80100FB6A002000C80100A3
:1010B000006B00200000D00701000000FA6A002049
:1010C00000C80100F96A002000C80100F86A002089
:1010D00000C80100FE6A00200000D00701000000E7
:1010E000F76A002000C80100F66A002000C801006D
:1010F000F56A002000C801000000000071D8010856
:10110000346A05085768002031000000D06A0508DD
:101110005668002000C8010054680020E803D0078A
:1011200001000000535441434B580000E267002087
:1011300000030100E167002000030100D1D701088E
:10114000A9D70108986B050865D7010819D70108C8
:10115000EC6B0508F9D7010841F601086C6C05082D
:10116000D86700200103010099DC01086DDC01084B
:10117000606F05089DD6010851D60108C46F0508A7
:1011800087D80108A909020860700508DBD50108A5
:1011900027FF01080871050895FA0108F9DC010824
:1011A0005C710508D9D8010800000000DC71050851
:1011B000B1D901085DD901084072050841DA01087A
:1011C00005DA0108DC72050879DB0108C1DB0108DA
:1011D0005C7305083B6A00200106010021D9010863
:1011E000EDD80108587405087DDA0108A5F6010854
:1011F000C8740508F1DB010829F70108A87505087E
:10120000266A00200103010041D8010811D8010815
:101210007C760508C5DC010800000000E0760508C2
:10122000E9D601080FF60108447705080000000020
:1012300000000000D077050845DC0108A1F701088F
:101240004078050801000000A00F0000B80B000066
:101250000102FFFF010000000000803F00000000CD
:1012600000000000000000000000803FFFFFFFFFC3
:10127000FFFFFFFFFF000000D60101000000803FDC
:101280000000000000000000000000000000803F9F
:10129000000000000000000000000000000000004E
:1012A000000000000000000000000000000000003E
:1012B000000000000000803F00000000000000006F
:1012C000000000000100000001000000000001001B
:1012D000FFFFFFFFFFFF01FFFFFF0000FFFFFFFF1A
:1012E0007C1C06080000080205030300841C060895
:1012F000010008020504030098DA05080200FE0157
:1013000001100300D0C4050803001402000300000C
:101310008C1C060804001F0201000800941C06082B
:1013200005001F020101080008000000D166010845
:10133000CD660108C9660108BD660108B9660108E5
:10134000C5660108C16601085D75010819740108C8
:10135000917501080596010809B201087D960108FA
:10136000F9670108E5670108DD670108A5080108BC
:10137000000000000000000000000000010000006C
:101380000060024010600240000000000000000009
:10139000000B000000000000000000000000000042
:1013A00000600240286002400100000000000000D0
:1013B000060C00000000000000000000000000001B
:1013C0000060024040600240020000000000000097
:1013D000100D0000000000000000000000000000F0
:1013E000006002405860024003000000000000005E
:1013F000160E0000000000000000000000000000C9
:101400000060024070600240040000000000000024
:10141000200F00000000000000000000000000009D
:1014200000600240886002400500000000000000EB
:101430002610000000000000000000000000000076
:1014400000600240A06002400600000000000000B2
:10145000301100000000000000000000000000004B
:1014600000600240B8600240070000000000000079
:10147000362F000000000000000000000000000007
:101480000064024010640240000000000000000000
:101490000038000000000000000000000000000014
:1014A00000640240286402400100000000000000C7
:1014B00006390000000000000000000000000000ED
:1014C000006402404064024002000000000000008E
:1014D000103A0000000000000000000000000000C2
:1014E0000064024058640240030000000000000055
:1014F000163B00000000000000000000000000009B
:10150000006402407064024004000000000000001B
:10151000203C00000000000000000000000000006F
:1015200000640240886402400500000000000000E2
:101530002644000000000000000000000000000041
:1015400000640240A06402400600000000000000A9
:101550003045000000000000000000000000000016
:1015600000640240B8640240070000000000000070
:1015700036460000000000000000000000000000EF
:10158000101B0608DCE10508000000000107010847
:10159000A086010004000000000000000000000020
:1015A000000000000000000000000000000000003B
:1015B000000000000000000000000000000000002B
:1015C000101B0608541E060800000000BD6E02082D
:1015D000E80300000400000000000000000000001C
:1015E00000000000000000000000000000000000FB
:1015F00000000000000000000000000000000000EB
:101600008CC7050890F50508000000009904030840
:101610007D00000006000000000000000000000047
:1016200000000000000000000000000000000000BA
:1016300000000000000000000000000000000000AA
:10164000801A06080000000000000000D1A6020871
:10165000E80300000300000000000000000000009C
:10166000000000000000000000000000000000007A
:10167000000000000000000000000000000000006A
:101680005C1E06080000000000000000B1FF030817
:101690001027000003000000000000000000000010
:1016A000000000000000000000000000000000003A
:1016B000000000000000000000000000000000002A
:1016C000881C060800000000519103087574020888
:1016D0005F76000005000000000000000000000030
:1016E00000000000000000000000000000000000FA
:1016F00000000000000000000000000000000000EA
:10170000E01C060800000000000000008DE0020858
:101710001027000001000000000000000000000091
:1017200000000000000000000000000000000000B9
:1017300000000000000000000000000000000000A9
:10174000681E06080000000000000000E56C0208AA
:10175000E803000005000000000000000000000099
:101760000000000000000000000000000000000079
:101770000000000000000000000000000000000069
:10178000741E06080000000000000000FD0F0108A4
:10179000204E0000030000000000000000000000D8
:1017A0000000000000000000000000000000000039
:1017B0000000000000000000000000000000000029
:1017C000841E06080000000000000000010E010851
:1017D000204E000003000000000000000000000098
:1017E00000000000000000000000000000000000F9
:1017F00000000000000000000000000000000000E9
:10180000941E06080000000000000000A1A30208CA
:10181000400D030003000000000000000000000075
:1018200000000000000000000000000000000000B8
:1018300000000000000000000000000000000000A8
:10184000A4B805080000000000000000EDA0020898
:101850001027000001000000000000000000000050
:101860000000000000000000000000000000000078
:101870000000000000000000000000000000000068
:10188000F0E105080000000000000000DD5604083B
:10189000102700000300000000000000000000000E
:1018A0000000000000000000000000000000000038
:1018B0000000000000000000000000000000000028
:1018C000BCC305080000000000000000BD6B02085A
:1018D000A8610000010000000000000000000000FE
:1018E00000000000000000000000000000000000F8
:1018F00000000000000000000000000000000000E8
:10190000CCB80508000000000000000055B0020837
:10191000A00F000001000000000000000000000017
:1019200000000000000000000000000000000000B7
:1019300000000000000000000000000000000000A7
:10194000A41E0608000000000000000089770408BB
:10195000102700000100000000000000000000004F
:101960000000000000000000000000000000000077
:101970000000000000000000000000000000000067
:1019800088CE05080000000000000000996B0408E4
:101990001A410000010000000000000000000000EB
:1019A0000000000000000000000000000000000037
:1019B0000000000000000000000000000000000027
:1019C0007CC305080000000000000000696F0108EA
:1019D00010270000010000000000000000000000CF
:1019E00000000000000000000000000000000000F7
:1019F00000000000000000000000000000000000E7
:101A0000E8E105080000000000000000910E020857
:101A10001A4100000100000000000000000000006A
:101A200000000000000000000000000000000000B6
:101A300000000000000000000000000000000000A6
:101A4000B01E0608000000000000000091760108AA
:101A5000400D030000000000000000000000000036
:101A60000000000000000000000000000000000076
:101A70000000000000000000000000000000000066
:101A8000B81E06080000000000000000796B020884
:101A9000400D0300000000000000000000000000F6
:101AA0000000000000000000000000000000000036
:101AB0000000000000000000000000000000000026
:101AC000C01E060800000000000000004582040857
:101AD00050C30000030000000000000000000000F0
:101AE00000000000000000000000000000000000F6
:101AF00000000000000000000000000000000000E6
:101B0000CC1E06080000000000000000750D010852
:101B100040420F0000000000000000000000000034
:101B200000000000000000000000000000000000B5
:101B300000000000000000000000000000000000A5
:101B4000D81E060800000000000000007D0B010800
:101B500050C3000000000000000000000000000072
:101B60000000000000000000000000000000000075
:101B70000000000000000000000000000000000065
:041B80000000803FA2
:1080000003685A1C02601970704700BF2DE9F047E1
:10801000089C2578002B804689460CBF4FF0200A2B
:108020004FF0300A661C25B3002A26DD334601E0F6
:10803000024698B113F8011B501E0029F8D1971E73
:1080400060B13D46013D51464046C8476B1C002B80
:10805000F8DC257827EAE770013045B1041B294692
:108060004046C847301916F8015B002DF7D1BDE82E
:10807000F087002A03DC2846F9E70020EEE7571EC8
:10808000DFE700BF2DE9F04714461D4606464FF4D2
:108090007A720023204629464BF056FB4D4BDFF801
:1080A00048814D4A4D4F034488FB03101844D917AB
:1080B00082FB032CC1EB601088FB002887FB0327A1
:1080C0009C44474AC1EBEC2CC0EB001E82FB0C2900
:1080D000A3EB8E0E1F44434A86F806E0C1EB274708
:1080E0004FEAEC7E08EB000ACEEBA90E82FB07827A
:1080F0004FEAE0780EEB4E0EC8EB6A18ACEBCE0CF4
:10810000C8EB0818DFF8E4E086F804C0A0EB8800AC
:1081100070718EFB0303F817C0EBE21240F2B5500A
:1081200000FB1272C1EBE353B2F5896F4FEA83078C
:108130003CDA40F2DA239A4242DCB2F5B77FB4BFB0
:108140004FF0000E4FF0010E4FEA4E09DFF8A0800D
:1081500009EB0E0308EBC3031FFA8EFCD88A09EB68
:108160000E0108EBC10116310B2301E031F8020DBD
:10817000904218DD013BF9D1CE44012338F83E008E
:10818000B37007F5FA670132121ABC44F270A6F810
:1081900000C0204629464FF47A7200234BF0D4FAEF
:1081A0003281BDE8F0870133DBB2E9E74FF0030C21
:1081B000E64640F29650DFF838804FF00609CEE7E9
:1081C0004FF0020CDFF82880E64640F229404FF0DD
:1081D0000409C4E780BC92C7C5B3A29107452EC26B
:1081E000ABAAAA2A73B06D1689888888792D0311E5
:1081F000785305080028F0B403DA2D230B704042B1
:108200000131092804464FF0010307DD03EB830326
:108210005B00B0FBF3F2092AF8D883B10F48A0FB4A
:108220000326B4FBF3F2092A02F1570C02F13007DE
:1082300009DD03FB1244F30801F801CBEFD1002361
:108240000B70F0BC704703FB1244F30801F8017B8C
:10825000E5D100230B70F0BC704700BFCDCCCCCC77
:10826000884270B44FF0010442D301FB04F4B0FB28
:10827000F4F58D42F9D2ECB142BB092D04FB150097
:1082800005F1570605F130020EDDB4FBF1F403F8F9
:10829000016B7CB1B0FBF4F5092D04FB150005F171
:1082A000570605F13002F0DCB4FBF1F403F8012BC2
:1082B000002CEFD100221A7070BC704703F8016BDC
:1082C000B4FBF1F4002CF5D0B0FBF4F5092D04FB60
:1082D000150005F1370605F13002EFDCB4FBF1F4CF
:1082E00003F8012B002CEFD100221A7070BC7047EC
:1082F0000546002AEAD1C0E790ED057A90ED004AE4
:10830000D0ED066AD0ED014AD0ED047A90ED035A23
:10831000D0ED025AA4EE007AB0EE406AB0EE470A01
:10832000B0EE667AA4EE867A67EEC07AA5EE407A61
:10833000E5EE867A80ED057AC0ED067A704700BFDB
:10834000D0ED057A90ED013AD0ED003AD0ED064A35
:1083500090ED024A90ED077A90ED035A90ED086A8D
:10836000D0ED045AC0ED067AF0EE406A27EE830A9B
:10837000C0ED056AA3EEA60A80ED087AA4EE240AF1
:10838000A5EE470AA5EEC60A80ED070A704700BFB2
:10839000D0ED007A90ED017A30EE670AE7EE007AD0
:1083A000B0EE670AC0ED007A704700BF704700BFAB
:1083B00030B400230221012214253424C5708471B5
:1083C0000370C3728373C3734170C1714172827051
:1083D0000272827230BC704706224FF47A730270C8
:1083E0004360704730B43023112231254FF60174B9
:1083F000FF214370427101230022C5700482817401
:10840000037203700371837042818281C28130BC28
:10841000704700BF144BFF22F0B54FF0FF34C2701D
:108420000271027242724273827303F10C0EA4460F
:10843000172716261525002202EB820281189E4579
:1084400085544E708F7081F803C00C710AD093F977
:108450000620DD791E7A5F7A93F90AC093F90B4002
:108460000633E9E7F0BD00BFD853050810B42C214E
:10847000012402220023047041708270C3705DF8F1
:10848000044B704730B401232725002403212922FF
:10849000857004704170C2700371437130BC7047C5
:1084A000034600F11001FF221A705A7002339942FC
:1084B000FAD102704270027142718272C2727047C8
:1084C00030B41D6995420AD314460A4621448D42B0
:1084D000996938BF2A1B214430BC4BF0D3BB30BC58
:1084E000704700BF00207047002070470120704790
:1084F0000120704700207047002070474FF4007043
:10850000024B10609B680B600020704790B5002004
:10851000013A30B4D2B28C1C04EB42040025020FA5
:10852000092AD3B203F130028ABF37330A700B70C5
:108530004D7002318C424FEA0010F0D130BC7047D0
:108540000B4A0C4B10681B681A22C0180A8001D114
:108550000948704710B5094B09491C680822FFF704
:10856000D7FF204604220749FFF7D2FF024810BD7B
:10857000E8F7FF1FECF7FF1F88010020EAF7FF1F55
:108580008A0100209A01002004230B8000487047D4
:10859000A401002012230B8000487047A80100208E
:1085A0004222032302704370704700BF08307047B7
:1085B000704700BF81617047012380F858307047D1
:1085C0004FF40063038470474FF4006303847047E3
:1085D000F0B4037C456902681F2B37D9203B20216A
:1085E000546899400C4223D010249C40D160D46040
:1085F0005168D940CE074ED4EFF31183502282F355
:108600001288EA6B1168C90709D45468002C52D14A
:10861000D5E909618E4243D1012285F86020DBB2A1
:1086200083F31188037C02681F2B194614D9203B61
:10863000082150689940084200D0D1600421506858
:1086400001FA03F3184223D1F0BC704720241668C6
:108650009C4026420FD11946082310688B401842CF
:1086600000D093600423106803FA01F10842EBD0B4
:108670009160F0BC7047102199409460916011683E
:10868000D940CC07B8D5012101FA03F39360B3E7D1
:10869000D360F0BC7047012101FA03F3D360ABE76C
:1086A000AF690F44D7600ED82E69711A5160AC6261
:1086B000002185F86010116841F00101DBB2116002
:1086C00083F31188AEE7711A5160AE62F0E700BF24
:1086D0002DE9F041B14DB24C2A7823789A4240F00E
:1086E0001B81B04B1A78002A7CD0AF4B1E78AF4B61
:1086F000002E79D11968B3F82C714E628889012A4D
:1087000040EA07008881A3F82C6157D0D3F83011D4
:10871000B3F85C724E628889022A40EA07008881B9
:10872000A3F85C624AD0D3F86012B3F88C734E623F
:108730008889032A40EA07008881A3F88C633DD02A
:10874000D3F89013B3F8BC744E628889042A40EAC7
:1087500007008881A3F8BC6430D0D3F8C014B3F804
:10876000EC754E628889052A40EA07008881A3F8E3
:10877000EC6523D0D3F8F015B3F81C774E628889E6
:10878000062A40EA07008881A3F81C6716D0D3F8B0
:108790002017B3F84C784E628889072A40EA070010
:1087A0008881A3F84C6809D0D3F85028B3F87C0925
:1087B0005662918901439181A3F87C692A782378D4
:1087C0009A420FD07A481F469B003B449B00C21838
:1087D000C3583BB9137A2BB9537A1BB97B1C03F0EE
:1087E00003032370BDE8F0815E6819897160376802
:1087F000186847F0010740F20D313760A0F84810C3
:108800008689012A46F480768681D7D0D3F83461F0
:10881000B3F83871D3F830017760376847F0010753
:108820003760A0F848108689022A46F4807686814F
:10883000C4D0D3F86462B3F86872D3F8600277608A
:10884000376847F001073760A0F848108689032A87
:1088500046F480768681B1D0D3F89463B3F89873E8
:10886000D3F890037760376847F001073760A0F8C6
:1088700048108689042A46F4807686819ED0D3F8F3
:10888000C464B3F8C874D3F8C0047760376847F09D
:1088900001073760A0F848108689052A46F48076DB
:1088A00086818BD0D3F8F465B3F8F875D3F8F0056A
:1088B0007760376847F001073760A0F8481086896D
:1088C000062A46F4807686813FF478AFD3F8246791
:1088D000B3F82877D3F820077760376847F00107A7
:1088E0003760A0F848108689072A46F4807686818A
:1088F0003FF464AFD3F85428B3F85808D3F850388D
:108900005060106840F001001060A3F848109A8988
:1089100042F480729A8151E7804621F0AFFA2778BD
:108920002B78BB4286461DD0BB002148DA1900EBEC
:108930008202167AC6B1B8F1000F3DD01D4900225F
:10894000B1F808C00132BCF1000F18BF0026424543
:1089500001F58071F4D17EBB124A1278002A3FF4EF
:1089600034AFC2E61248BB003B449B00C118C2585A
:10897000AEEB0202002AFFF635AF4A7A3AB1013A6D
:10898000D2B24A7212B30EF57A72C25000E0C250EF
:10899000044B1A78002A7FF4A8AE0FE7CCDD002044
:1089A000CDDD0020F02E0010EC2E0010F4CA0020C7
:1089B000D0DD0020F4C20020DA1992000EF51C511F
:1089C00086181031815000223272C5E74A6872441D
:1089D000C250DDE710B5027C01681F2A4FF020036A
:1089E0000ED94C68203A93401C4208D00B4A40688C
:1089F00000241470026822F001020260CB6010BDF6
:108A00000C6893401C42FAD0044A40680024147059
:108A1000026822F0010202608B60F0E7079C0020F0
:108A200043F01EB9014B186822F010BB447B0020B4
:108A300038B51D4B1B78044600F1250593B104227F
:108A40001A4920304CF082FC2846142218494CF078
:108A50007DFC012384F83A30164B1B7873B984F8F7
:108A60003B3038BD2846142213494CF06FFC0123DB
:108A700084F83A300F4B1B78002BF0D00F4B18685E
:108A800059689A68DD68E56020606160A260DD6910
:108A9000186959699A69A2610123E56120616161E0
:108AA00084F83B3038BD00BF853E0020543E002096
:108AB0003C3E0020863E002084B605085C3E002037
:108AC00038B52E2200214CF003FC034640F2DC5165
:108AD000642040F21A4240F2022418745982132092
:108AE00019219A8240F2753240F26C751C83987697
:108AF0000E240A201977DA8302210122DD8283F80D
:108B00002D0040F64305197283F82C1083F822409B
:108B10009A7383F8252083F82B201D841946024878
:108B2000BDE8384031F004BC8CB6050810B5002112
:108B30000446012020F0F4FA207010BD38B500245E
:108B40000472451EE1B2022020F0EAFA0134082C3A
:108B500005F8010FF6D138BD38B50024054604806C
:108B600021462846013417F061F9082CF8D100217C
:108B700085F8E210A5F8E410A5F8E610A5F8E810CD
:108B8000A5F8EA10A5F8EC10A5F8EE10A5F8F0107D
:108B9000A5F8F2102846BDE8384017F009B900BF23
:108BA0002DE9F84FDDE90A648946174600212022A5
:108BB000984605464CF08CFB5EB1D6E900327189CF
:108BC000EB81C3F30F432B82C2F30F43EA822B8363
:108BD000698248464AF0C2F817F0100B10D1431EC4
:108BE00070B119F803202E2A18BF09EB030104D134
:108BF0004AE011F8016D2E2E3ED013F1FF33F8D26A
:108C000008280246CA46A8BF08224FF0000B4FF0C2
:108C100020336B602B60C5F807304946284605F1C4
:108C200008064BF02FF85A46514630464BF02AF8CA
:108C30006B1EE81D13F8012FA2F1610119299CBFD9
:108C4000203A1A708342F5D105F10B0116F8013B69
:108C5000A3F16102192A9CBF203B06F8013CB142F6
:108C6000F4D11823C8F30F42EF722B73A5F81A80C2
:108C7000AA82EC61BDE8F88FC01A00F1FF3BBBF19E
:108C8000030FA8BF4FF0030B082B03F1010AA8BF85
:108C90000823CA441A46BAE72DE9F04F002087B0EE
:108CA0000C461D46012192461FF08AFB002D63D021
:108CB00005EB0A03DFF8D094DFF8D0B403935546F0
:108CC0001CE0002D00F0C581D9F81430AB4264D00F
:108CD000D9F81030AB4200F09780D9E90631AB42A9
:108CE00052D8A94200F26F81691A204646F0A0FDD1
:108CF000039B01359D4204F500743DD0D9F82060F6
:108D0000AE42DED8D9F83080AE1B4FEAD60AD8F88A
:108D100030300AF1020A9A4506F0070603D3D8F864
:108D200038309A4509D94146504646F04FFD8046B5
:108D3000002800F04D81C9F8300098F80430002B6D
:108D400040F0E280D8F82870002F00F0DF81D8F8DA
:108D50003030D8F80C20AAEB030A06EBCA0A4346C7
:108D6000204602EB4A224FF40071B847039B0135BD
:108D70009D4204F50074C1D1002108461FF020FB7C
:108D8000002007B0BDE8F08FA942ADD94FF40072C2
:108D9000002120464CF09CFAAAE752226120412390
:108DA000002622706270A070722284F8E70184F8B5
:108DB000E631D9F82800E3704FF0FF33314684F8EC
:108DC000E42184F8E521C4F8E8014FF4F07284F856
:108DD000EC3184F8ED3184F8EE3184F8EF31201D68
:108DE0004CF076FA55216FF05502C4F8F061C4F8E2
:108DF000F461C4F8F86184F8FC6184F8FD6184F8DA
:108E0000FE1184F8FF2173E74FF400720021204621
:108E10004CF05EFAD44BD54F03CBEB2302222370E8
:108E20004FF0080C9026F8234FF0580EC4F80300BA
:108E3000227484F80DC0C4F8071084F801E0A6700D
:108E40006375D9F81010D9F80830D9F81C6022736E
:108E5000591A21624FF0FF3100233F20A1763E21B5
:108E6000A273E372E3736374A374E3742375A3754D
:108E7000E3756376E3766377A377E37720762177EC
:108E800084F82C2007CFD9F8187084F82830F61B06
:108E900084F8293084F82A3084F82B3084F82D3077
:108EA00084F82E3084F82F3084F8313084F8323052
:108EB00084F8333080236662C4F8470004F1470623
:108EC00084F8403029209423A94F84F846C084F8C0
:108ED000420084F843300E200D234FF0010C84F83B
:108EE000440084F8453084F830C0716003CF3346C5
:108EF0005527AA269A60C4F85200C4F8561084F880
:108F0000FE7184F8FF61F3E64FF400720021204601
:108F10004CF0DEF9D8F84030002E61D104F1200782
:108F2000002B77D0D8F8303092491122CDE9006675
:108F30002046FFF735FED8F840301A6C04F1400A9D
:108F4000002A79D01B6B8C49CDE900663846112286
:108F5000FFF726FED8F84460002E3FF4C9AE4FF468
:108F6000E078CDE904450CE00024CDE900C4FFF72A
:108F700017FEB66CBA46A8F120080EB3B8F11F0F61
:108F80001ED93468356B96F804E011222B46214631
:108F900050460AF1200706F11C0CBEF1000FE3D188
:108FA00072793369019342F021022B46CDF800C05B
:108FB000FFF7F6FDB66CBA46A8F12008002EDDD109
:108FC000DDE9044594E6E91A204646F031FC8FE6D7
:108FD000231F04F5FE7243F804BF9A42FBD187E6D3
:108FE000002BD8F844200CBF01230223C3EB061347
:108FF000002A3FF47DAE966C013B002E3FF478AE24
:10900000013BB66CF9D1002E3FF472AEA2464FF48C
:109010000078A6E7CDE900663346D9F80C1008229F
:109020002046FFF7BDFDD8F84460002E3FF460AE47
:10903000BA464FF4F07894E7CDE9006633463846F7
:1090400011224D49FFF7ACFDD8F84460002E86D1BF
:109050004EE64FF40072294620464CF039F9802242
:109060000C2384F8BE2184F8C231D9F81000434B98
:10907000D9F8086084F8B85183FB0032C117C1EBFE
:109080002232B2F5806F84F8B95184F8BA5184F86D
:10909000BB5184F8BC5184F8BD51C4F8C601C4F872
:1090A000CA6142DBFF2384F8BF3184F8C13184F800
:1090B000C031324B711E83FB0132CE17C6EB223218
:1090C000B2F5806F29DA2E4B84F8C52183FB0103AA
:1090D0000B442C48C6EB6313C3EB831680FB037071
:1090E000891B1844DE17921022F03F020131C6EBB3
:1090F000E0100A43034484F8C42184F8C3315522A4
:10910000AA2384F8FE2184F8FF31F1E539464FF4B3
:10911000007220464CF0DCF8EAE5FF2384F8C33106
:1091200084F8C53184F8C431E9E7154B84F8C121CE
:1091300083FB00730344134FC1EB631387FB0317D7
:10914000C3EB831C9110A0EB0C02F818DF1721F081
:109150003F010132C7EBE0100A43034484F8C02109
:1091600084F8BF31A5E700BFA0B60508ACB6050876
:10917000BCB6050898B605089CB605089755454144
:10918000832008828180808090B50020DEADBEEF14
:1091900008B5012012F0D6F8174A936803F00C03C3
:1091A000042B1ED0082B18D151685368490203F0D4
:1091B0003F0319D452681148B0FBF3F0C2F388138F
:1091C00000FB03F00C4B0E4A5B68C3F30143013311
:1091D0005B00B0FBF3F0106008BD094B074A1A6052
:1091E00008BD074B186008BDB0FBF3F05368C3F32C
:1091F000881300FB03F0E5E7003802400024F40088
:1092000098C100202DE9F0410D4601211C46084679
:1092100016461FF0D5F8C4B105EB44280E4F01E007
:1092200010F0B0F93A680023146929461A4630460E
:10923000A0470028F4D110F0A5F90028FBD005F5CF
:109240000075454506F10106ECD1002101201FF013
:10925000B7F80020BDE8F0817CB500202DE9F04191
:109260000D4601211C46084616461FF0A9F8ACB170
:109270000E4F05EB44283A680023946829461A46A5
:109280003046A0470028F6D010F07CF90028FBD02B
:1092900005F50075454506F10106ECD100210120D8
:1092A0001FF08EF80020BDE8F08100BF7CB50020E3
:1092B00008B510F067F980F00100404240B208BDE7
:1092C00038B514460D4610F04FF94FF4007302689C
:1092D0002A600020236038BD002108B508461FF031
:1092E0006FF846F05BFA10F04DF90028FBD0012131
:1092F00000201FF065F8002008BD00BF10B5044C29
:1093000004480A46214610F06BFC204610BD00BF01
:10931000B0140020C8B6050810B5044C04480A462D
:10932000214610F05DFC204610BD00BFB0140020A7
:10933000D8B6050810B5044C04480A46214610F07A
:109340004FFC204610BD00BFB0140020E4B6050855
:109350000A4608B5054920B1054810F041FC03480C
:1093600008BD044810F03CFC004808BDB0140020C3
:1093700010B70508F8B6050830B5437F83B004463A
:109380001BB90120637703B030BD052502236A466F
:1093900001A90068ADF8045042F092FB9DF801303D
:1093A00003F0010383F00100637703B030BD00BF19
:1093B000F8B5074C05460F46266803E023689B1B5B
:1093C000BB4204D82846FFF7D7FF0028F6D0F8BDE7
:1093D00050AE002010B545F2082182B00446FFF7D8
:1093E000E7FF02A9062301F8023D206801230022BD
:1093F00042F066FB02A9C72301F8013D0123206862
:109400006377002242F05CFB02B010BD70B50446E9
:1094100084B0007F0022D82502920B468DF80C20E4
:109420008DF8085008B30A0E8DF809200DF10A02D4
:109430001E0C1D0A93701670557041F2883120463B
:10944000FFF7B6FF04A9062301F8093D20680123B0
:10945000002242F035FB0123637702A9206805232F
:10946000002242F02DFB04B070BD0DF10902DFE7D0
:10947000F8B584894FF6FF764FF47A7433B319B395
:109480000F78013101E0B44218D00589013CAD07E5
:10949000A4B2F8D5BCB284814FF47A7402E0BCB2B5
:1094A000B4420BD00589ED0704F1FF37F7D5858964
:1094B000ADB20AB115700132013BDFE742F00CFAA0
:1094C000003018BF0120F8BDFF27DEE70120F8BDFE
:1094D000F0B5077F83B004464FF0030C00200090E6
:1094E00016461D468DF804008DF800C04FB30B0ED4
:1094F0008DF801300DF10203080C0A0A99701870FA
:10950000062120465A70FFF753FFC0B1206842F091
:10951000D3F9237F2268002B14BF05230423694657
:1095200050680022FFF7A4FF2368324658680021E4
:109530002B46FFF79DFF206842F0B8F9284603B09C
:10954000F0BD0DF10103D7E7F0B5077F836985B062
:1095500004464FF0020C002002900E4615468DF88E
:109560000C008DF808C0002F37D01A0E8DF8092096
:109570000DF10A024FEA134C1F0A82F800C09370E3
:10958000577006212046FFF713FF04A9062301F8B0
:10959000093D00222068012342F092FA01236377FB
:1095A000206842F089F9237F2268002B14BF05232D
:1095B000042302A950680022FFF75AFF23683146AE
:1095C000002258682B46FFF753FF206842F06EF9DF
:1095D000A2692A44A26105B0F0BD0DF10902C9E7F4
:1095E00010B4144681611A4621465DF8044BABE77E
:1095F000F0B5076A83B0064617B13B68BA885A834C
:109600007069DFF8A8E08389C3244FF47A734FF0C0
:10961000060C6D464FF6FF710EF1010E03E0013BA3
:109620009BB28B4220D002899207F8D5A3B28381E6
:109630004FF47A7302E0A3B28B4215D00289D207AD
:1096400003F1FF34F7D5828992B20DB12A7001354A
:10965000BCF1000F0BD00CF1FF3CFF24BEF1000F5A
:10966000E1D09EF80040D7E742F036F9376A17B1EB
:109670003B68BA881A839DF805009DF801509DF853
:1096800002109DF803409DF804209DF8063041EA41
:10969000052143EA002342EA04220120A6F85810DB
:1096A000A6F85A20A6F85C3003B0F0BDEC530508CC
:1096B000037C022B01D000207047F0B5838B4269F8
:1096C00083B03BB18169CC899C4203D01380CB81AC
:1096D00000BF4269036A13B119689B884B83938961
:1096E000044640F2E93301E0002B61D01189013BCF
:1096F00011F0020F9BB2F7D0C323938140F2E933FC
:1097000001E0002B54D01189013B11F0010F9BB2F5
:10971000F7D093899389138998074FF005076E4610
:109720004FF47A714FF0FF0C4FF6FF7506D44B1EC5
:109730009BB2D1B1194613899807F8D5A2F80CC08D
:109740004FF47A7302E083B2AB420ED01189C9079D
:1097500003F1FF30F7D5918989B20EB1317001362E
:10976000791E2FB10F461946E5E7104642F0B4F8CE
:10977000236A13B11A689B8813839DF804009DF82F
:1097800000609DF801109DF802509DF803209DF89F
:10979000053041EA062143EA002342EA052201207E
:1097A000A4F85810A4F85A20A4F85C3003B0F0BD17
:1097B000104642F091F86269ACE700BF037B022BD0
:1097C00001D000207047F0B5038B026983B03BB134
:1097D0004169CC899C4203D01380CB8100BF0269D0
:1097E000C36913B119689B884B839389044640F27F
:1097F000E93301E0002B5ED01189013B11F0020F2B
:109800009BB2F7D0BB23938140F2E93301E0002BF8
:1098100051D01189013B11F0010F9BB2F7D0938910
:109820009389138998074FF005076E464FF47A71B4
:109830004FF0FF0C4FF6FF7506D44B1E9BB2D1B113
:10984000194613899807F8D5A2F80CC04FF47A731B
:1098500002E083B2AB420ED01189C90703F1FF3099
:10986000F7D5918989B20EB131700136791E2FB1C9
:109870000F461946E5E7104642F02EF8E36913B1AA
:109880001A689B8813839DF804009DF800609DF87A
:1098900001109DF802509DF803209DF8053041EA23
:1098A000062143EA002342EA052201206184A284C2
:1098B000E38403B0F0BD104642F00EF82269AFE732
:1098C0002DE9F04F87B090F869300090002B41F0FF
:1098D0007D80009B93F86030072B01F06C8018238B
:1098E000CDE90233009B1B7C022B01F00F80642327
:1098F000B94CBA4EDFF8F0E2B948DFF8F082B94F60
:1099000001934FF01009DEF80430C3F30803002B75
:1099100040F0A884EFF31183002B40F0A384256866
:10992000826823689D42FAD13B689A42F7D8D6F8FC
:1099300000C04FF47A7101FB0CF39B1AB3FBFCF3EC
:1099400001FB05354FF47A7C4FF0010ADEF8043054
:10995000C3F30803002B40F06684EFF31183002B60
:1099600040F061842368816822689342FAD13A68A2
:109970009142F7D832680CFB02FBABEB0101B1FB63
:10998000F2F10CFB03135B1BB3F57A7FDED3019B73
:10999000013B0193B7D1009B1B7C022B00F0618738
:1099A0006423DFF844E28E48DFF840828D4F019354
:1099B0004FF01009DEF80430C3F30803002B40F029
:1099C0009584EFF31183002B40F090842568826822
:1099D00023689D42FAD13B689A42F7D8D6F800C076
:1099E0004FF47A7101FB0CF39B1AB3FBFCF301FB00
:1099F00005354FF47A7C4FF0010ADEF80430C3F3EA
:109A00000803002B40F0F183EFF31183002B40F0AB
:109A1000EC832368816822689342FAD13A689142C4
:109A2000F7D832680CFB02FBABEB0101B1FBF2F1A2
:109A30000CFB03135B1BB3F57A7FDED3019B013B69
:109A40000193B7D1009B1B7C022B00F0B5866423E9
:109A5000DFF894E16248DFF89481624F01934FF0A0
:109A60001009DEF80430C3F30803002B40F01C8417
:109A7000EFF31183002B40F0178425688268236878
:109A80009D42FAD13B689A42F7D8D6F800C04FF40D
:109A90007A7101FB0CF39B1AB3FBFCF301FB053558
:109AA0004FF47A7C4FF0010ADEF80430C3F3080368
:109AB000002B40F07C83EFF31183002B40F0778381
:109AC0002368816822689342FAD13A689142F7D8B4
:109AD00032680CFB02FBABEB0101B1FBF2F10CFBBA
:109AE00003135B1BB3F57A7FDED3019B013B01932C
:109AF000B7D1009B1B7C022B00F009860F23DFF8F7
:109B0000E8E03748DFF8E480364F01934FF0100962
:109B1000DEF80430C3F30803002B40F0D084EFF3E9
:109B20001183002B40F0CB842568826823689D4216
:109B3000FAD13B689A42F7D8D6F800C04FF47A7150
:109B400001FB0CF39B1AB3FBFCF301FB05354FF44F
:109B50007A7C4FF0010ADEF80430C3F30803002BCF
:109B600040F00783EFF31183002B40F0028323685A
:109B7000816822689342FAD13A689142F7D83268F4
:109B80000CFB02FBABEB0101B1FBF2F10CFB03138D
:109B90005B1BB3F57A7FDED3019B013B0193B7D109
:109BA000009B1B7C022B00F05C850F23DFF838E064
:109BB0000B48DFF838800B4F01934FF01009DEF8A7
:109BC0000430C3F30803002B40F05784EFF31183F4
:109BD000002B40F052840BE050AE002054AE002029
:109BE00010E000E058AE002000ED00E04CAE002098
:109BF0002568826823689D42FAD13B689A42F7D86B
:109C0000D6F800C04FF47A7101FB0CF39B1AB3FB3A
:109C1000FCF301FB05354FF47A7C4FF0010ADEF8C6
:109C20000430C3F30803002B40F08582EFF3118367
:109C3000002B40F080822368816822689342FAD129
:109C40003A689142F7D832680CFB02FBABEB01019A
:109C5000B1FBF2F10CFB03135B1BB3F57A7FDED390
:109C6000019B013B0193AAD1009B1B7C022B00F0BE
:109C7000A2840F23DFF814E3C248DFF81483C24F35
:109C800001934FF01009DEF80430C3F30803002BF2
:109C900040F0D283EFF31183002B40F0CD83256891
:109CA000826823689D42FAD13B689A42F7D8D6F879
:109CB00000C04FF47A7101FB0CF39B1AB3FBFCF369
:109CC00001FB05354FF47A7C4FF0010ADEF80430D1
:109CD000C3F30803002B40F01082EFF31183002B35
:109CE00040F00B822368816822689342FAD13A6877
:109CF0009142F7D832680CFB02FBABEB0101B1FBE0
:109D0000F2F10CFB03135B1BB3F57A7FDED3019BEF
:109D1000013B0193B7D1009A92F86330032B00F214
:109D2000F08392F86650012D0AD0022D40F0E983AD
:109D300092F86B3003F0FB03022B0CBF00250725C4
:109D4000009B1B7C022B00F0E2830F23DFF83CE238
:109D50008C48DFF83C828C4F01934FF01009DEF8FD
:109D60000430C3F30803002B40F02483EFF3118386
:109D7000002B40F01F832568826823689D42FAD13A
:109D80003B689A42F7D8D6F800C04FF47A7101FBCD
:109D90000CF39B1AB3FBFCF301FB05354FF47A7C03
:109DA0004FF0010ADEF80430C3F30803002B40F043
:109DB0008681EFF31183002B40F081812368816855
:109DC00022689342FAD13A689142F7D832680CFB84
:109DD00002FBABEB0101B1FBF2F10CFB03135B1BCC
:109DE000B3F57A7FDED3019B013B0193B7D1009B92
:109DF0001B7C022B00F032876423DFF890E161487E
:109E0000DFF88C81604F01934FF01009DEF80430C9
:109E1000C3F30803002B40F0EE82EFF31183002B15
:109E200040F0E9822568826823689D42FAD13B6848
:109E30009A42F7D8D6F800C04FF47A7101FB0CF3C0
:109E40009B1AB3FBFCF301FB05354FF47A7C4FF012
:109E5000010ADEF80430C3F30803002B40F011813F
:109E6000EFF31183002B40F00C8123688168226896
:109E70009342FAD13A689142F7D832680CFB02FB60
:109E8000ABEB0101B1FBF2F10CFB03135B1BB3F570
:109E90007A7FDED3019B013B0193B7D1009B1B7CF2
:109EA000022B00F086860F23DFF8E0E03548DFF86C
:109EB000E080354F01934FF01009DEF80430C3F312
:109EC0000803002B40F05582EFF31183002B40F084
:109ED00050822568826823689D42FAD13B689A4285
:109EE000F7D8D6F800C04FF47A7101FB0CF39B1A37
:109EF000B3FBFCF301FB05354FF47A7C4FF0010A0C
:109F0000DEF80430C3F30803002B40F09C80EFF32D
:109F10001183002B40F09780236881682268934268
:109F2000FAD13A689142F7D832680CFB02FBABEBEE
:109F30000101B1FBF2F10CFB03135B1BB3F57A7F5C
:109F4000DED3019B013B0193B7D1009B1B7C022B0D
:109F500000F0DA850F23DFF834E00A48DFF83080BC
:109F6000094F00934FF01009DEF80430C3F30803E3
:109F7000002B40F0DD81EFF31183002B40F0D881FE
:109F800008E000BF10E000E058AE002000ED00E067
:109F90004CAE00202568826823689D42FAD13B6858
:109FA0009A42F7D8D6F800C04FF47A7101FB0CF34F
:109FB0009B1AB3FBFCF301FB05354FF47A7C4FF0A1
:109FC000010ADEF80430C3F30803F3B9EFF3118399
:109FD000DBB92368816822689342FAD13A689142DA
:109FE000F7D832680CFB02FBABEB0101B1FBF2F1DD
:109FF0000CFB03135B1BB3F57A7FE2D3009B013BA1
:10A000000093B1D107B0BDE8F08FEFF3118189F370
:10A010001288D0F808B00368DB0344BFC8F800A07A
:10A02000D0F808B02368D8F80020C9B281F31188AD
:10A03000316813440CFB01F2A2EB0B02B2FBF1F20C
:10A040000CFB0323D6E7EFF3118189F31288D0F8D4
:10A0500008B00368DB0344BFC8F800A0D0F808B01C
:10A060002368D8F80020C9B281F3118831681344FD
:10A070000CFB01F2A2EB0B02B2FBF1F20CFB03238F
:10A080005BE7EFF3118189F31288D0F808B0036819
:10A09000DB0344BFC8F800A0D0F808B02368D8F8A4
:10A0A0000020C9B281F31188316813440CFB01F21E
:10A0B000A2EB0B02B2FBF1F20CFB0323E6E6EFF39B
:10A0C000118189F31288D0F808B00368DB0344BF1C
:10A0D000C8F800A0D0F808B02368D8F80020C9B2AA
:10A0E00081F31188316813440CFB01F2A2EB0B02DF
:10A0F000B2FBF1F20CFB032371E6EFF3118189F35C
:10A100001288D0F808B00368DB0344BFC8F800A089
:10A11000D0F808B02368D8F80020C9B281F31188BC
:10A12000316813440CFB01F2A2EB0B02B2FBF1F21B
:10A130000CFB0323E7E5EFF3118189F31288D0F8D4
:10A1400008B00368DB0344BFC8F800A0D0F808B02B
:10A150002368D8F80020C9B281F31188316813440C
:10A160000CFB01F2A2EB0B02B2FBF1F20CFB03239E
:10A1700072E5EFF3118189F31288D0F808B0036813
:10A18000DB0344BFC8F800A0D0F808B02368D8F8B3
:10A190000020C9B281F31188316813440CFB01F22D
:10A1A000A2EB0B02B2FBF1F20CFB0323F0E4EFF3A2
:10A1B000118189F31288D0F808B00368DB0344BF2B
:10A1C000C8F800A0D0F808B02368D8F80020C9B2B9
:10A1D00081F31188316813440CFB01F2A2EB0B02EE
:10A1E000B2FBF1F20CFB03237BE4EFF3118189F363
:10A1F0001288D0F808B00368DB0344BFC8F800A099
:10A20000D0F808B02368D8F80020C9B281F31188CB
:10A21000316813440CFB01F2A2EB0B02B2FBF1F22A
:10A220000CFB032306E4EFF3118189F31288D0F8C5
:10A2300008B00368DB0344BFC8F800A0D0F808B03A
:10A240002368D8F80020C9B281F31188316813441B
:10A250000CFB01F2A2EB0B02B2FBF1F20CFB0323AD
:10A26000FFF791BBEFF3118389F31288D0F808C090
:10A270000268D20304D50122C8F80020D0F808C033
:10A280002568D8F800A0DBB283F3118831684FF459
:10A290007A72554402FB01F3A3EB0C03B3FBF1F319
:10A2A00002FB0535FFF74EBBEFF3118389F31288EC
:10A2B000D0F808C00268D20304D50122C8F80020F3
:10A2C000D0F808C02568D8F800A0DBB283F3118865
:10A2D00031684FF47A72554402FB01F3A3EB0C038F
:10A2E000B3FBF1F302FB0535FFF7DABBEFF31183A4
:10A2F00089F31288D0F808C00268D20304D501227D
:10A30000C8F80020D0F808C02568D8F800A0DBB253
:10A3100083F3118831684FF47A72554402FB01F3DC
:10A32000A3EB0C03B3FBF1F302FB0535FFF761BBB5
:10A33000EFF3118389F31288D0F808C00268D203C2
:10A3400004D50122C8F80020D0F808C02568D8F844
:10A3500000A0DBB283F3118831684FF47A72554460
:10A3600002FB01F3A3EB0C03B3FBF1F302FB053596
:10A3700023E6EFF3118389F31288D0F808C002684E
:10A38000D20304D50122C8F80020D0F808C02568FF
:10A39000D8F800A0DBB283F3118831684FF47A72E9
:10A3A000554402FB01F3A3EB0C03B3FBF1F302FBF7
:10A3B0000535A1E5EFF3118389F31288D0F808C0C1
:10A3C0000268D20304D50122C8F80020D0F808C0E2
:10A3D0002568D8F800A0DBB283F3118831684FF408
:10A3E0007A72554402FB01F3A3EB0C03B3FBF1F3C8
:10A3F00002FB0535D2E4EFF3118389F31288D0F81C
:10A4000008C00268D20304D50122C8F80020D0F8A1
:10A4100008C02568D8F800A0DBB283F31188316842
:10A420004FF47A72554402FB01F3A3EB0C03B3FB28
:10A43000F1F302FB053508E5EFF3118389F3128888
:10A44000D0F808C00268D20304D50122C8F8002061
:10A45000D0F808C02568D8F800A0DBB283F31188D3
:10A4600031684FF47A72554402FB01F3A3EB0C03FD
:10A47000B3FBF1F302FB053524E4EFF3118389F319
:10A480001288D0F808C00268D20304D50122C8F8A7
:10A490000020D0F808C02568D8F800A0DBB283F30C
:10A4A000118831684FF47A72554402FB01F3A3EB33
:10A4B0000C03B3FBF1F302FB0535FFF7ACBBEFF385
:10A4C000118389F31288D0F808C00268D20304D53A
:10A4D0000122C8F80020D0F808C02568D8F800A0EC
:10A4E000DBB283F3118831684FF47A72554402FB72
:10A4F00001F3A3EB0C03B3FBF1F302FB0535FFF70C
:10A5000026BB009B019D1B7C022B7FF41EAC009A96
:10A51000938B506917463BB19269D189994203D018
:10A520000380D38100BF7869009B1B6A13B11A684E
:10A530009B885383838940F2E93302E0002B00F0CB
:10A540001E840289013B12F0020F9BB2F6D01A233F
:10A55000838140F2E93302E0002B00F0108402898D
:10A56000013B12F0010F9BB2F6D08389838940F240
:10A57000E93302E0002B00F0FF830289013B12F077
:10A58000020F9BB2F6D0858140F2E93302E0002B46
:10A5900000F0F2830289013B12F0010F9BB2F6D06A
:10A5A0008389009B1B6A002B3FF4CFAB1A689B8802
:10A5B0001383FFF7CABB009A938B506915463BB1D2
:10A5C0009269D189994203D00380D38100BF686921
:10A5D000009B1B6A13B11A689B885383838940F2DE
:10A5E000E93302E0002B00F0C2830289013B12F044
:10A5F000020F9BB2F6D01C23838140F2E93302E0C4
:10A60000002B00F0B4830289013B12F0010F9BB2D2
:10A61000F6D08389838940F2E93302E0002B00F011
:10A62000A3830289013B12F0020F9BB2F6D0BDF862
:10A630000830838140F2E93302E0002B00F094837C
:10A640000289013B12F0010F9BB2F6D08389009B77
:10A650001B6A002B3FF40DAB1A689B881383FFF72E
:10A6600008BB009A938B506915463BB19269D1891A
:10A67000994203D00380D38100BF6869009B1B6AA5
:10A6800013B11A689B885383838940F2E93302E04F
:10A69000002B00F07D830289013B12F0020F9BB278
:10A6A000F6D01B23838140F2E93302E0002B00F057
:10A6B0006F830289013B12F0010F9BB2F6D08389B0
:10A6C000838940F2E93302E0002B00F05E830289C7
:10A6D000013B12F0020F9BB2F6D0BDF80C30838123
:10A6E00040F2E93302E0002B00F04F830289013B86
:10A6F00012F0010F9BB2F6D08389009B1B6A002BDE
:10A700003FF453AA1A689B881383FFF74EBA009A46
:10A71000938B506915463BB19269D189994203D018
:10A720000380D38100BF6869009B1B6A13B11A685C
:10A730009B885383838940F2E93302E0002B00F0C9
:10A7400047830289013B12F0020F9BB2F6D06B23C4
:10A75000838140F2E93302E0002B00F03983028963
:10A76000013B12F0010F9BB2F6D08389838940F23E
:10A77000E93302E0002B00F028830289013B12F04C
:10A78000020F9BB2F6D00123838140F2E93302E04D
:10A79000002B00F01A830289013B12F0010F9BB2DB
:10A7A000F6D08389009B1B6A002B3FF4A7A91A6887
:10A7B0009B881383FFF7A2B9009A938B50691546C3
:10A7C0003BB19269D189994203D00380D38100BF04
:10A7D0006869009B1B6A13B11A689B88538383893D
:10A7E00040F2E93302E0002B00F00A830289013BCA
:10A7F00012F0020F9BB2F6D06B23838140F2E93353
:10A8000002E0002B00F0FC820289013B12F0010FF4
:10A810009BB2F6D08389838940F2E93302E0002BB2
:10A8200000F0EB820289013B12F0020F9BB2F6D0DE
:10A830000023838140F2E93302E0002B00F0DD8247
:10A840000289013B12F0010F9BB2F6D08389009B75
:10A850001B6A002B3FF4FBA81A689B881383FFF741
:10A86000F6B8009A938B506915463BB19269D1892D
:10A87000994203D00380D38100BF6869009B1B6AA3
:10A8800013B11A689B885383838940F2E93302E04D
:10A89000002B00F0AD820289013B12F0020F9BB247
:10A8A000F6D06823838140F2E93302E0002B00F008
:10A8B0009F820289013B12F0010F9BB2F6D083897F
:10A8C000838940F2E93302E0002B00F08E82028996
:10A8D000013B12F0020F9BB2F6D00723838140F2B6
:10A8E000E93302E0002B00F080820289013B12F084
:10A8F000010F9BB2F6D08389009B1B6A002B3FF4AB
:10A900004FA81A689B881383FFF74AB8009A938B65
:10A91000506914463BB19269D189994203D00380B2
:10A92000D38100BF6069009B1B6A13B11A689B88C2
:10A930005383838940F2E93302E0002B00F0508218
:10A940000289013B12F0020F9BB2F6D06B23838188
:10A9500040F2E93302E0002B00F042820289013B21
:10A9600012F0010F9BB2F6D08389838940F2E9335C
:10A9700002E0002B00F031820289013B12F0020F4D
:10A980009BB2F6D08023838140F2E93302E0002BB2
:10A9900000F023820289013B12F0010F9BB2F6D036
:10A9A0008389009B1B6A002B3EF4A1AF1A689B8829
:10A9B0001383FEF79CBF009B93F86530002B40F09B
:10A9C000B3811023CDE90233FEF78CBF1C09013C93
:10A9D000032C03F00F0300F21882AD4A32F8140082
:10A9E00040FA03F2D50740F11082012505FA03F37E
:10A9F000013B184048F0F8FEA64BDFF8B0A213F870
:10AA0000049081441AEBC90400F0FF81A388A24A94
:10AA10002021B3FA83F3A171C3F11F0300994FF012
:10AA20000008581C84F80780CA603EF452AF9B4E61
:10AA30009B4AF71801F10C0042F8230041462046DA
:10AA400097F87C7040F058FCA3885AF83910954A62
:10AA5000B3FA83F3C3F11F035FFA83FC0CF0FC002D
:10AA600000F1804000F59C300CF0030C4FEA8C0C98
:10AA70004FF00F0E0EFA0CF9D0F808E001F13F414B
:10AA80002EEA090EC0F808E001F57E01D0F808E0D2
:10AA9000C1F3872101FA0CF105FA03F341EA0E0133
:10AAA00081605361D2F800E07F48DFF804C2D943E7
:10AAB0000EEA010EC2F800E0D2F804E001EA0E0E40
:10AAC000C2F804E0D2F800E043EA0E0EC2F800E05B
:10AAD000D2F808E001EA0E0EC2F808E0D2F80CE065
:10AAE00001EA0E01D16002681A4302601CF80720D7
:10AAF000F02A00F21F81002B3EF4EBAE69490A6890
:10AB000013430B60FEF7E5BE009A938B5069154620
:10AB10003BB19269D189994203D00380D38100BFB0
:10AB20006869009B1B6A13B11A689B8853838389E9
:10AB300040F2E93302E0002B00F032810289013B50
:10AB400012F0020F9BB2F6D03823838140F2E93332
:10AB500002E0002B00F024810289013B12F0010F7A
:10AB60009BB2F6D08389838940F2E93302E0002B5F
:10AB700000F013810289013B12F0020F9BB2F6D064
:10AB80000123838140F2E93302E0002B00F00581CC
:10AB90000289013B12F0010F9BB2F6D08389009B22
:10ABA0001B6A002B3FF4D6A91A689B881383FFF712
:10ABB000D1B9009A938B506915463BB19269D189FE
:10ABC000994203D00380D38100BF6869009B1B6A50
:10ABD00013B11A689B885383838940F2E93302E0FA
:10ABE000002B00F0ED800289013B12F0020F9BB2B6
:10ABF000F6D03723838140F2E93302E0002B00F0E6
:10AC0000DF800289013B12F0010F9BB2F6D08389ED
:10AC1000838940F2E93302E0002B00F0CE80028904
:10AC2000013B12F0020F9BB2F6D01023838140F259
:10AC3000E93302E0002B00F0C0800289013B12F0F2
:10AC4000010F9BB2F6D08389009B1B6A002B3FF457
:10AC50002AA91A689B881383FFF725B9009A938B5A
:10AC600092F86850506917463BB19269D189994270
:10AC700003D00380D38100BF7869009B1B6A13B1A6
:10AC80001A689B885383838940F2E93314E000BF3C
:10AC900018AF050820AF0508B985000878530508E6
:10ACA000E4AB0020003C0140083C014090AC002097
:10ACB00024AC0020002B7BD00289013B12F0020F54
:10ACC0009BB2F7D01923838140F2E93301E0002BD6
:10ACD0006ED00289013B12F0010F9BB2F7D083893D
:10ACE000838940F2E93301E0002B5ED00289013B09
:10ACF00012F0020F9BB2F7D0ADB2858140F2E9337A
:10AD000001E0002B51D00289013B12F0010F9BB2F0
:10AD1000F7D08389009B1B6A002B3FF46DA81A684B
:10AD20009B881383FFF768B810211823CDE902131D
:10AD3000FEF7D8BD3E44F02296F88C308DF81430E2
:10AD400005A803238DF815308DF816808DF817505F
:10AD50000CF8072010F016FBA388B3FA83F3C3F1B5
:10AD60001F0305FA03F3C6E640F0B6FD6FE440F0BA
:10AD7000B3FD009B58694DE440F0AEFD11E440F096
:10AD8000ABFD009B5869FFF7F1BB40F0A5FDB4E4B3
:10AD900040F0A2FD009B586992E440F09DFDFEE664
:10ADA00040F09AFD009B5869DDE640F095FDB1E763
:10ADB00040F092FD009B586992E740F08DFD43E71B
:10ADC00040F08AFD009B586922E740F085FDE9E4E8
:10ADD00040F082FD009B5869C8E440F07DFDE0E54D
:10ADE00040F07AFD009B5869BFE540F075FD83E5B2
:10ADF00040F072FD009B586962E540F06DFD26E56C
:10AE000040F06AFD009B586905E5009A014BD3604C
:10AE1000FEF75FBDB985000842697B49138823F0BE
:10AE200040032DE9F04F1B041B0C1380138883B0E3
:10AE300023F038031B048A4201904FEA134300F0C9
:10AE4000D88001F580618A420CBF282130210B4354
:10AE50001380138843F0400313801FF00FF804465B
:10AE60001FF00CF88442FBD0019C2046FEF728FD21
:10AE7000236A13B11A689B885383019B586940F277
:10AE8000E933828902E0002B00F0B8800289013B9F
:10AE900012F0020F9BB2F6D06A23838140F2E933AD
:10AEA00002E0002B00F0AA800289013B12F0010FA2
:10AEB0009BB2F6D08389838940F2E93302E0002B0C
:10AEC00000F099800289013B12F0020F9BB2F6D08C
:10AED0001023838140F2E93302E0002B00F08B80E5
:10AEE0000289013B12F0010F9BB2F6D08389019BCE
:10AEF0001B6A13B11A689B8813836423434CDFF8E1
:10AF00001891DFF81881424DDFF814A1414E0093EB
:10AF10001EF0B4FF4FF47A774FF0100C4FF0010E93
:10AF2000D8F80430C3F30803002B43D1EFF31183A7
:10AF3000002B3FD12368A96822689342FAD1326876
:10AF40009142F7D8D9F8002007FB02FBABEB0101D7
:10AF5000B1FBF2F107FB03131B1AB3F57A7FDFD3C2
:10AF6000009B013B0093D3D1019B27495A69138869
:10AF700023F040031B041B0C1380138823F03803B9
:10AF80001B048A424FEA134305D001F580618A42CF
:10AF900001D043F008031380138843F0400313806B
:10AFA0001EF06CFF04461EF069FF8442FBD003B024
:10AFB000BDE8F08FEFF311818CF31288D5F808B05B
:10AFC0002B68DB0344BFCAF800E0D5F808B023685B
:10AFD000DAF80020C9B281F31188D9F800101344BF
:10AFE00007FB01F2A2EB0B02B2FBF1F207FB03231A
:10AFF000B2E728212BE740F06FFC78E740F06CFCCB
:10B00000019B586957E700BF0038004050AE002050
:10B0100010E000E058AE002054AE002000ED00E04B
:10B020004CAE002038B5054640683B4A038823F003
:10B0300040031B041B0C0380038823F038031B040C
:10B0400090424FEA134305D002F58062904201D04E
:10B0500043F00803038003882A6943F04003038018
:10B0600012B1136892885A83838940F2E93301E070
:10B07000002B43D00289013B12F0020F9BB2F7D0A4
:10B08000F523838140F2E93301E0002B36D00289B9
:10B09000013B12F0010F9BB2F7D08389838940F204
:10B0A000E93300E00BB30289013B12F0020F9BB2BF
:10B0B000F8D0FF23838140F2E93300E0ABB102898D
:10B0C000013B12F0010F9BB2F8D08489E4B22B69E6
:10B0D00013B11A689B881383712C19D008D9AC2C32
:10B0E00014D0AF2C0ED1092038BD40F0F5FBEEE7AF
:10B0F000122C0FD0702C07D1052038BD40F0ECFB8E
:10B100006868CBE7732C03D0002038BD072038BD1A
:10B11000062038BD082038BD00380040037C026896
:10B120001F2B86BF203B51681168202202FA03F3CF
:10B130000B4214BF0123002303B970472DE9F043EC
:10B140004569DFF81C9283B02D0204461EF096FE7E
:10B1500009EB050380461A7C002A31D16F4A5968F1
:10B1600010780A68C0B9C8685E89016821F00101D9
:10B170000160938923EA06039381694B1B78002BB6
:10B1800031D1237C21681F2B12D8202202FA03F32D
:10B190008B6003B0BDE8F08389690B6823F001037D
:10B1A0000B60938923F480731B041B0C9381E4E7E9
:10B1B0002022203B02FA03F3CB6003B0BDE8F0830A
:10B1C0005A6858481568D6685F8901225A743168F0
:10B1D000036821F001013160AA89013322EA0702E4
:10B1E000AA810360CDE709EB05034F495E6F336821
:10B1F00023F001033360002333608E427360B36039
:10B20000F36033614FF02103736168D0474B9E4276
:10B2100060D0474B9E4266D0464B9E4268D0464B1C
:10B220009E426AD0454B9E426BD0454B9E426CD0AD
:10B23000444B9E426DD0304601920FF0EDFE019AD4
:10B2400009EB05070123283509EB050110463B747E
:10B2500010F0D0F8D7E912027B6B396D97F8705077
:10B2600003431343D7E915200B431343F96DBA6E1B
:10B2700003430B433068F96E1343334A0B430240D8
:10B280001343002139643360D7E918317269786C4F
:10B2900022F007020B431343D7E90E12736170606B
:10B2A000B160F26033687A68786FD168126843F0F1
:10B2B0001003336045600B6843F001030B60938912
:10B2C00079890B4393811EF0D9FD204BA0EB080038
:10B2D000186056E74FF4746143F8201CB0E71C4B2C
:10B2E0003D219960ACE74FF4741143F8381CA7E78F
:10B2F0004FF0746143F8501CA2E7164943F8641CF0
:10B300009EE7154943F87C1C9AE7144943F8941CBE
:10B3100096E74FF03D5143F8AC1C91E7EC2E00103E
:10B32000E82E0010787C0020106002402860024067
:10B3300040600240586002407060024088600240F5
:10B34000A0600240B86002403F801CF0942D0010C5
:10B35000006002403D000020400F002000003D2022
:10B36000F4C200208A4B1B78002B00F09880002844
:10B3700000F095802DE9F04F431E85B0854C01907B
:10B38000032B4FF00006A8BF0323A4F11407039377
:10B39000B0464FEA062A07EB0A03256E5B7C002BBA
:10B3A0007ED06A6892B2002A65D114F8050CD4E9FF
:10B3B0001B13002800F0AA84603377485B1AA0FBB7
:10B3C0000351890901EB4101A3EB4113182B00F153
:10B3D0007785173BA0FB0323DB0003F0F003D4E9E0
:10B3E0001D126D486032521AA0FB0251890901EB0F
:10B3F0004101A2EB4112182A05D4173AA0FB021210
:10B40000C2F343021343D4E91F1263486032521A55
:10B41000A0FB0251890901EB4101A2EB4112182A5C
:10B420005EBF173AA0FB0212C2F34305D4E9211212
:10B43000594802F16002A2EB0102A0FB02C14FEAEF
:10B44000911101EB4101A2EB411248BF0025182ADE
:10B4500058BF173A45EA03155ABFA0FB0223C3F3AE
:10B460004303002343EA051383EA132282EA1212FC
:10B47000100700F00C85494A13680133136026B9A0
:10B4800080224749474848F0FDFB07EB0A0383F851
:10B49000118054F8109C256ED9F800B00CE070476C
:10B4A00054F8109C34F80A1CD9F800B0BBF80C20F2
:10B4B00022EA0102ABF80C202A683B4B22F0010281
:10B4C00021219D422A60C5F80080C5F80480C5F896
:10B4D0000880C5F80C80C5F8108069611FD0334B17
:10B4E0009D4200F03783324B9D4200F03D83314B4B
:10B4F0009D4200F0DF84304B9D4200F002852F4AD0
:10B50000954200F003852E4A954200F07E852D4A33
:10B51000954200F0EC8428460FF07EFD02E02A4AB6
:10B520003D219160BA448AF8108099F805100C29E1
:10B5300016D8DFE811F044011500150015004D0183
:10B540001500150015003B011500150015000D0034
:10B55000BBF81C2022F400621204120CABF81C2071
:10B56000224658461DF0E2F899F805300C2B37D8E2
:10B57000DFE813F006013600360036001101360010
:10B5800036003600FB003600360036002C0000BFC7
:10B59000E82E001008C30020ABAAAAAA9814001035
:10B5A00074C30020982D00101060024028600240F3
:10B5B0004060024058600240706002408860024073
:10B5C000A0600240B860024000600240BBF81C303E
:10B5D00023F400631B041B0C43F40063ABF81C3022
:10B5E000D4E90D12236AE06B43F040030B4313438D
:10B5F000226CB14903431343626C13434022E2625D
:10B60000A26C28681343A26D0292626D1343029AE2
:10B61000014013430B432B60D4E913316A69206B5B
:10B6200022F007020B431343D4E909126B616860EF
:10B63000A960EA602B6843F010032B60039B01367E
:10B640009E4204F580747FF7A4AE019B9E4280F277
:10B65000CC814FEA062A0AF114043C444FF000085A
:10B6600007EB0A03256E5B7C002B00F0BA806A684A
:10B6700092B2002A65D114F8050CD4E91B130028F6
:10B6800000F07C8260338D485B1AA0FB035189096E
:10B6900001EB4101A3EB4113182B00F11484173B7C
:10B6A000A0FB0323DB0003F0F003D4E91D12834861
:10B6B0006032521AA0FB0251890901EB4101A2EB51
:10B6C0004112182A05D4173AA0FB0212C2F3430212
:10B6D0001343D4E91F1279486032521AA0FB025179
:10B6E000890901EB4101A2EB4112182A5EBF173A0A
:10B6F000A0FB0212C2F34305D4E921126F4802F104
:10B700006002A2EB0102A0FB02C14FEA911101EB22
:10B710004101A2EB411248BF0025182A58BF173A31
:10B7200045EA03155ABFA0FB0223C3F343030023DA
:10B7300043EA051383EA132282EA1212120700F089
:10B74000E0825F4A13680133136026B980225D49A5
:10B750005D4848F097FA07EB0A0383F8118054F824
:10B76000109C256ED9F800B047E0BBF81C3023F0E0
:10B7700008031B041B0C43F00803ABF81C302FE735
:10B78000BBF8183023F008031B041B0C43F008031C
:10B79000ABF8183024E7BBF8183023F400631B041F
:10B7A0001B0C43F40063ABF8183019E7BBF81C20FE
:10B7B00022F008021204120CABF81C20D0E6BBF8F1
:10B7C000182022F008021204120CABF81820C7E669
:10B7D000BBF8182022F400621204120CABF81820F7
:10B7E000BEE654F8109C34F80A1CD9F800B0BBF837
:10B7F0000C2022EA0102ABF80C202A68334B22F01D
:10B80000010221219D422A60C5F80080C5F804800C
:10B81000C5F80880C5F80C80C5F8108069611FD094
:10B820002B4B9D4200F091812A4B9D4200F0978165
:10B83000294B9D4200F03983284B9D4200F05D83E7
:10B84000274A954200F06783264A954200F0E2833A
:10B85000254A954200F0468328460FF0DDFB02E0C2
:10B86000224A3D219160BA448AF8108099F8051067
:10B870000C2910D8DFE801F0A70F0F0F9E0F0F0F54
:10B88000B00F0F0F0700BBF81C2022F40062120457
:10B89000120CABF81C20224658461CF047FF99F8C2
:10B8A00005300C2B2ED8DFE803F06F2D2D2D7A2DCF
:10B8B0002D2D642D2D2D23003F801CF0ABAAAAAAAC
:10B8C0009814001074C30020982D001010600240DE
:10B8D00028600240406002405860024070600240B0
:10B8E00088600240A0600240B860024000600240F0
:10B8F000BBF81C3023F400631B041B0C43F40063EF
:10B90000ABF81C30D4E90D12236AE06B43F040031E
:10B910000B431343226C974903431343626C134355
:10B920004022E262A26C28681343A26D0292626D0B
:10B930001343029A014013430B432B60D4E91331A4
:10B940006A69206B22F007020B431343D4E9091202
:10B950006B616860A960EA602B6843F010032B609C
:10B96000019B0136B34204F580743ED04FEA062AAB
:10B9700076E6BBF81C3023F008031B041B0C43F0D5
:10B980000803ABF81C30BDE7BBF8183023F0080300
:10B990001B041B0C43F00803ABF81830B2E7BBF8EC
:10B9A000183023F400631B041B0C43F40063ABF852
:10B9B0001830A7E7BBF8182022F400621204120C1A
:10B9C000ABF8182067E7BBF8182022F00802120431
:10B9D000120CABF818205EE7BBF81C2022F008021E
:10B9E0001204120CABF81C2055E77A68787B1368B8
:10B9F0005179800754BF012204228A40198C92B2E7
:10BA000021EA02011984198C0A431A84019B012B33
:10BA100000F09880D7F8042197F80D011368517948
:10BA2000820754BF012204228A40198C92B221EA73
:10BA300002011984198C0A431A84019B022B00F01D
:10BA40008180D7F8042297F80D0213685179860790
:10BA500054BF012204228A40198C92B221EA0201C9
:10BA60001984198C0A431A84019B032B6AD0D7F8D6
:10BA7000042397F80D0313685179850754BF0122F9
:10BA800004228A40198C92B221EA02011984198C8D
:10BA90000A431A84019B042B54D0D7F8042497F846
:10BAA0000D14136850798C0754BF01220422198C9D
:10BAB000824092B221EA02011984198C0A431A8445
:10BAC000019B052B3ED0D7F8042597F80D05136888
:10BAD0005179800754BF012204228A40198C92B206
:10BAE00021EA02011984198C0A431A84019B062B4E
:10BAF00028D0D7F8042697F80D16136850798907CF
:10BB000054BF01220422198C824092B221EA020120
:10BB10001984198C0A431A84019B072B12D0D7F879
:10BB2000042797F80D071368517982074CBF042248
:10BB300001228A40198C92B221EA02011984198CDF
:10BB40000A431A8405B0BDE8F08F0B4A4FF47461C4
:10BB5000916088E6084A4FF474619160E2E4064A15
:10BB60004FF4741191607EE6034A4FF474119160B2
:10BB7000D8E400BF3F801CF0006002405B1A002B3D
:10BB800040F3AA810A2BD4BF00230123D4E91D125C
:10BB9000521A002A4FEA430340F3FB810A2A01DDCF
:10BBA00043F00103D4E91F12521A002A4FEA43035B
:10BBB00040F3F7810A2A01DD43F00103D4E92112A1
:10BBC000521A002A4FEA430340F3E7810A2A01DDB3
:10BBD00043F00103D4E92312521A002A4FEA430327
:10BBE00040F3CF810A2A01DD43F00103D4E9251295
:10BBF000521A002A4FEA430340F3BF810A2A01DDAB
:10BC000043F00103D4E92712521A002A4FEA4303F2
:10BC100040F3AF810A2A01DD43F00103D4E9291280
:10BC2000521A002A4FEA430340F39F810A2A01DD9A
:10BC300043F00103D4E92B12521A002A4FEA4303BE
:10BC400040F38F810A2A01DD43F00103D4E92D126C
:10BC5000521A002A4FEA430340F37F810A2A01DD8A
:10BC600043F00103D4E92F12521A002A4FEA43038A
:10BC700040F36F810A2A01DD43F00103D4E9311258
:10BC8000521A002A4FEA430340F35F810A2A01DD7A
:10BC900043F00103D4E93312521A002A4FEA430356
:10BCA00040F34F810A2A01DD43F00103D4E9351244
:10BCB000521A002A4FEA430340F33F810A2A01DD6A
:10BCC00043F00103D4E93712521A002A4FEA430322
:10BCD00040F32F810A2A01DD43F00103D4E9391230
:10BCE000521A002A4FEA430340F31F810A2A01DD5A
:10BCF00043F0010383EA132282EA121215077FF44C
:10BD000020ADC3F30F1324F8023C24E55B1A002B8B
:10BD100040F3DC800A2BD4BF00230123D4E91D1299
:10BD2000521A002A4FEA430340F32F810A2A01DD09
:10BD300043F00103D4E91F12521A002A4FEA4303C9
:10BD400040F35F810A2A01DD43F00103D4E92112A7
:10BD5000521A002A4FEA430340F34F810A2A01DDB9
:10BD600043F00103D4E92312521A002A4FEA430395
:10BD700040F33F810A2A01DD43F00103D4E9251293
:10BD8000521A002A4FEA430340F32F810A2A01DDA9
:10BD900043F00103D4E92712521A002A4FEA430361
:10BDA00040F31F810A2A01DD43F00103D4E929127F
:10BDB000521A002A4FEA430340F30F810A2A01DD99
:10BDC00043F00103D4E92B12521A002A4FEA43032D
:10BDD00040F3FF800A2A01DD43F00103D4E92D126C
:10BDE000521A002A4FEA430340F3EF800A2A01DD8A
:10BDF00043F00103D4E92F12521A002A4FEA4303F9
:10BE000040F3DF800A2A01DD43F00103D4E9311257
:10BE1000521A002A4FEA430340F3CF800A2A01DD79
:10BE200043F00103D4E93312521A002A4FEA4303C4
:10BE300040F3BF800A2A01DD43F00103D4E9351243
:10BE4000521A002A4FEA430340F3AF800A2A01DD69
:10BE500043F00103D4E93712521A002A4FEA430390
:10BE600060DD0A2A01DD43F00103D4E93912521AD8
:10BE7000002A4FEA430352DD0A2A01DD43F00103A1
:10BE800083EA132282EA121211077FF4F4AA634AAA
:10BE90001278C3F30F132F2A24F8023C7FF4F5AA7B
:10BEA0005F4A22F81630FFF7F0BA5E4A4FF074612D
:10BEB0009160D8E45B4A4FF074619160FFF732BB48
:10BEC0001346FFF78CBA1346FFF7EFBB13F1090FC8
:10BED000B4BF0023012321E713F1090FB4BF0023EE
:10BEE000012353E64FF03D5142F8AC1CBBE44FF048
:10BEF0003D5142F8AC1CFFF715BB4A4A4A49D16094
:10BF0000B1E4484A4849D160FFF70CBB474942F8C1
:10BF10007C1CFFF707BB454942F87C1CA3E40932AF
:10BF2000AEDBABE70932A0DB9DE70932FFF6E2AEFC
:10BF3000DEE60932FFF6D2AECEE60932FFF6C2AE39
:10BF4000BEE60932FFF6B2AEAEE60932FFF6A2AEA9
