:020000040800F2
:10000000F0FF0120E9FD0408B5010308C5FE010861
:1000100061FE040861FE040861FE0408000000009F
:10002000000000000000000000000000C101030803
:10003000BD01030800000000B901030805CB010859
:1000400061FE040861FE040861FE040861FE040804
:1000500061FE040861FE0408C512020805140208C6
:10006000C5130208851302084513020859FF00084A
:1000700049FF000839FF000829FF000815FF0008A4
:1000800001FF0008EDFE000861FE0408000000000A
:10009000000000000000000000000000051302083E
:1000A0002DB4010849B7010861FE040809B8010828
:1000B00089B6010861FE0408C9B5010861FE04089B
:1000C00061FE040861FE040861FE040861FE040884
:1000D00061FE0408E1CB010845CB010800000000E7
:1000E0008512020861FE0408213D0308000000009B
:1000F000000000000000000000000000D9FE000821
:100100000000000061FE0408FDB4010861FE04085F
:1001100000000000000000000000000000000000DF
:10012000C5FE0008B1FE00089DFE000889FE00081B
:1001300075FE000800000000000000000000000044
:10014000000000000000000000000000F91103089A
:1001500061FE00084DFE000839FE000861FE04083B
:1001600061FE040861FE04080000000000000000B9
:10017000000000000000000000000000000000007F
:100180000000000061FE0408000000000000000004
:0801900061FE040861FE040891
:0801980080F9040001000000E1
:1001A00010020100B01E0020AC1E00200000000064
:1001B0002C0700080B123800C0150020B41E0020C8
:1001C000000000002E0700081F021000FC1E002087
:1001D000EC1E002000000000A18400082C0010008C
:1001E000D43A0020C43A002000000000A7170108FC
:1001F0002B002400083B0020E43A0020000000000F
:1002000079170108190210008C3A00202C3B0020BD
:10021000000000001184000829207800A439002083
:100220003C3B0020000000000000000028101000EF
:10023000C43B0020B43B002000000000D10B0108AB
:100240001C021000EC330020D43B00200000000012
:10025000B183000820320A00F03B0020E43B00207C
:1002600000000000590B010814000300F0370020C3
:10027000FC3B002000000000660700080120080089
:1002800078220020003C0020000000006A070008DF
:100290000C109C00CC210020083C00200000000035
:1002A00095AE03080A70280058210020A43C0020C5
:1002B00000000000790B01080EA06E01E81F00206D
:1002C000CC3C002000000000D52102080101040000
:1002D0004C1F00203C3E00200000000000000000F9
:1002E00000010400441F0020403E002000000000E8
:1002F0007207000802010300401F0020443E002056
:1003000000000000C1AE03081A023C005C3E002061
:10031000A043002000000000F98D00082700040021
:10032000583E0020DC430020000000007607000853
:1003300003123300704F0020AC4F0020000000007B
:100340007A07000825102C01504D0020E04F0020B6
:10035000000000000000000010100200384D0020D6
:100360000C51002000000000AE0700081A000E002B
:10037000E84C00201051002000000000B0070008E9
:10038000190005002C4C0020205100200000000026
:10039000BE070008F8210600684A00202851002006
:1003A00000000000C407000815007000144500207C
:1003B0003051002000000000000000002A00600012
:1003C000884C0020A051002000000000AD21020850
:1003D0000B301800BC790020447E00200000000093
:1003E000CC0700081F302400F07000205C7E002045
:1003F00000000000E407000805020400CC7B002098
:10040000807E0020000000000808000803010A00A8
:1004100018710020847E0020000000000C080008F5
:10042000130204009C6F0020907E0020000000005A
:10043000160800080902010020990020289A0020CF
:10044000000000001A08000822021401F0960020A3
:100450002C9A002000000000258F000801020500F2
:1004600044880020409B0020000000005146030803
:10047000000205003C880020489B0020000000008E
:10048000000000001B02080030880020509B002064
:1004900000000000DD8300081E00060060850020CB
:1004A000589B0020000000001C0800081B100C00D6
:1004B000CC800020609B002000000000E54A03087B
:1004C0002102F000247F00206C9B0020000000002F
:1004D000294703080E020200C08900205C9C00200E
:1004E000000000002208000823100E00E099002000
:1004F000609C002000000000E90B01082F10220082
:10050000A4990020709C002000000000240800082E
:100510001610060074990020949C00200000000032
:100520004608000805100600F89900209C9C002051
:10053000000000004C08000837102400CC87002081
:10054000A49C00200000000052080008F55188001B
:10055000947E0020C89C0020000000000971030860
:1005600026100C005C9D0020509D00200000000023
:10057000713D0308F6210C00F4A2002044A30020E2
:10058000000000007808000802000C00E8A200202B
:1005900050A30020000000000000000008120F001F
:1005A000D8A200205CA300200000000031840008D5
:1005B000F7010600D0A200206CA30020000000007C
:1005C000840800080A020A00F09D002074A300209D
:1005D00000000000E5B3030803000100D09E0020E6
:1005E00080A3002000000000000000000D00240097
:1005F000C0D9002050DB00200000000025140408B2
:10060000040080009CD0002074DB0020000000006B
:1006100000000000F901040020D00020F4DB0020DD
:100620000000000025A90108130004001CD00020D0
:10063000F8DB0020000000008C08000818202E00C5
:10064000E8CF0020FCDB002000000000898E0008BD
:1006500006101A0034C600202CDC00200000000028
:1006600035220208FB0101006CC5002048DC002097
:1006700000000000F98E0008FC01090038C40020C9
:100680004CDC002000000000098F0008340010003E
:1006900064C3002058DC002000000000092202088A
:1006A000110208003CC3002068DC002000000000AC
:1006B000900800081212040034C3002070DC0020EF
:1006C00000000000980800081220100024C3002039
:1006D00074DC0020000000009C080008FD012100DF
:1006E00068BA002084DC002000000000ADA80108EA
:1006F0000202030088A40020A8DC00200000000003
:10070000000000000C02040044A40020ACDC002027
:100710000000000089840008FE011400A4A6002047
:0C072000B0DC002000000000E9830008AD
:10072C0000000000000000000000000000000000BD
:10073C0000000000000000000000000000000000AD
:10074C00000000000000000000000000000000009D
:10075C000000000000000000000003000000E8039F
:10076C006400040A0001B300000020030000000034
:10077C00000000000000000000000000000000006D
:10078C00000000000000000000000000000000005D
:10079C00000000000000000000000000000000004D
:1007AC00010000057E05EA05B4053200E803D00718
:1007BC0000000000280100000401F40114000000F6
:1007CC00AE014A015E012C01640101000000010030
:1007DC000A019A01001E0A0000000000000100003E
:1007EC0000050000010203000000000000000000F2
:1007FC000000000000000000008007000000000066
:10080C00040101006C160000000000000100000053
:10081C0000000100000000000000000000000000CB
:10082C0000000000000000000000000000000000BC
:10083C0000000000000000000000C40900001900C6
:10084C0020000301000020003200C800D0079600F1
:10085C00140032002800B0044006000550001400BB
:10086C000F000800640001000100000000000000FF
:10087C0001000000020200003F0100000000000027
:10088C00000444320000000001010101FFFFFFFFE2
:10089C00000000010000054D34315200000800003A
:1008AC00010101FF01FF0000000004010000000035
:1008BC000000000210000000070000000000000013
:1008CC0000000000010203040607080901000000F3
:1008DC00F902010800000000181A05082070002019
:1008EC00702D7200FFFFFFFF0101010000010101EB
:1008FC0000D6012D202D2D202D2D2D2D202D2D2DF3
:10090C0000000000000000000000000000000000DB
:10091C00000000000000000000000000442C05084E
:10092C000000000000000000D02C050801000000B1
:10093C00FA000000010000000100000001010100AC
:10094C00AE21002000C80100AD21002000500100A4
:10095C00AC210020005A0100AA2100200200000056
:10096C00DC1B05082870050830700508A6800020DF
:10097C000100C40900000000A48000200100C4098B
:10098C0000000000A28000200100C409000000004B
:10099C00A08000200100C409000000009C80002001
:1009AC000100C409000000009E8000200100C40961
:1009BC00000000009A8000200100C4090000000023
:1009CC00988000200100C40900000000621F002074
:1009DC000100C80001000000601F002032003075CB
:1009EC00320000005E1F0020055A05005B1F00202E
:1009FC0000FF01005D1F0020010000005C020020D0
:100A0C00591F002002000000F03D05085A1F00206D
:100A1C0000FF01005C1F0020010000005C020020B0
:100A2C00581F002002000000F03D05088422002021
:100A3C00EE02CA08010000008222002000C801005A
:100A4C00640000008122002000C801006400000046
:100A5C008022002002000000E81B0508521F002025
:100A6C0080C1803E05000000501F002080C1803EE8
:100A7C00050000004A1F002080C1803E05000000D8
:100A8C00481F002080C1803E05000000431F00204D
:100A9C0000FF01003C1F00206400F4010100000075
:100AAC003B1F002004000000F41B05083A1F002027
:100ABC0002000000081C0508D71F00200D000000D4
:100ACC00141C0508D41F002000640100D21F002054
:100ADC00320010270A000000D11F00200D0000007A
:100AEC00141C0508D01F00200D000000141C050864
:100AFC00CF1F0020020000004C1C05080000000065
:100B0C0000000000581C0508847B00209CFF2C0171
:100B1C0000000000FC250020E0150C170000000070
:100B2C00FE25002002000000901C050890220020E9
:100B3C000100FF7F010000008F2200200200000056
:100B4C009C1C0508D91F002003000000AC1C0508E4
:100B5C00D81F002003000000AC1C05088C210020CD
:100B6C000000E803010000008A2100200000E803D7
:100B7C0001000000882100200000E80301000000B3
:100B8C00862100200000E8030100000084210020E1
:100B9C000000E80301000000822100200000E803AF
:100BAC0001000000812100200014010080210020A0
:100BBC0003000000BC1C0508982100200000F40173
:100BCC0001000000962100200000F401010000004B
:100BDC00942100200000F40101000000922100206B
:100BEC000000F40101000000902100200000803E74
:100BFC00010000008E2100200000803E010000005A
:100C0C00C121002019640100C02100200200000055
:100C1C00CC1C0508BE210020E803D0070A00000008
:100C2C00BC210020006401000A000000B12100205A
:100C3C0000640100B021002000640100B8210020F4
:100C4C00006401000A000000B721002000640100CC
:100C5C000A000000B6210020006401000A00000018
:100C6C00BB210020006401000A000000BA21002012
:100C7C00006401000A000000B9210020006401009A
:100C8C000A000000B521002001FF01000A0000004D
:100C9C00B421002001FF01000A000000B321002054
:100CAC0001FF01000A000000E21F00200000F40117
:100CBC0001000000E01F00200000F4010100000012
:100CCC00DE1F00200000F40101000000DC1F0020EA
:100CDC000000F40101000000DA1F00200000F40104
:100CEC0001000000A921002000640100A8210020BF
:100CFC0000640100A721002000640100A62100204F
:100D0C00FF080100A521002001640100F108010881
:100D1C00B5080108D81C0508A421002000640100B6
:100D2C00A22100201400E80301000000A0210020F3
:100D3C00E80330750A0000009E21002000C8010065
:100D4C009D21002000C801009C21002000C801004A
:100D5C009B210020006401000A0000007622002084
:100D6C000000D007010000007122002000C8010023
:100D7C007022002000C801006F22002000C8010072
:100D8C00742200200000D007010000006E22002019
:100D9C0000C801006D22002000C801006C22002058
:100DAC0000C80100722200200000D00701000000E2
:100DBC006B22002000C801006A22002000C801003C
:100DCC006922002000C8010000000000250601086F
:100DDC00481D0508CD1F002031000000E41D05084A
:100DEC00CC1F002000C80100CA1F0020E803D00758
:100DFC00010000004D4154454B46343131525800EE
:100E0C00571F002000030100561F002000030100A3
:100E1C006D05010845050108AC1E05080105010812
:100E2C00B5040108001F0508AD050108950501086A
:100E3C00801F0508541F0020010301004D0A010802
:100E4C00210A01087422050845040108050401085B
:100E5C00D82205083B060108393C01087423050813
:100E6C00A5180108000000001C240508611A0108DF
:100E7C00AD0A0108B82405088D0601080000000021
:100E8C002825050865070108110701088C250508A8
:100E9C00F5070108B9070108282605082D090108DE
:100EAC0075090108A8260508AF21002001060100DC
:100EBC00D5060108A1060108A42705083108010878
:100ECC00411D010814280508A5090108C51D0108C4
:100EDC00F42805089A21002001030100F5050108FA
:100EEC00C5050108C8290508790A01080000000099
:100EFC002C2A050885040108BD1C0108902A050848
:100F0C0000000000000000001C2B0508F909010876
:100F1C003D1E01089C2B0508361F002088136F17F7
:100F2C0001000000381F002088136F17000000001C
:100F3C007671002000000000000000007471002099
:100F4C000000000000000000727100200000000092
:100F5C000000000070710020000000000000000084
:100F6C006E71002000000000000000006C71002079
:100F7C000000000000000000880B002000000000B2
:100F8C00000000000C1F002002000000242D0508AA
:100F9C00341F002088136F1701000000C47B002051
:100FAC0088136F170000000099030108000000006F
:100FBC00302D05084626002001000000842D050870
:100FCC00C67B002001000000902D0508BC7B002092
:100FDC0002000000982D0508000000000000000031
:100FEC00A42D05088503010800000000402E05080B
:100FFC000000000000000000942E05080000000016
:10100C0000000000042F0508C07B0020E0150C1721
:10101C000000000001000000A00F0000B80B000051
:10102C0002FFFF0104520020FFFFFFFF0000803F82
:10103C000000000000000000000000000000803FE5
:10104C000000000000000000000000000000000094
:10105C000000000000000000000000000000000084
:10106C00000000000000803F0000000000000000B5
:10107C000000000001000000FFFFFFFF0000803FA8
:10108C00000000000000000000000000FF00000055
:10109C000403090412010002EF02014083045632DA
:1010AC0000020102030100001201000202020040D2
:1010BC00830440570002010203010000090264008E
:1010CC00030100C0320904000001030000000921E3
:1010DC00110100012226000705830308000A080BF2
:1010EC0001020202010009040100010202010005D3
:1010FC002400100105240100020424020205240628
:10110C000102070582030800FF09040200020A001D
:10111C0000000705010240000007058102400000A5
:10112C0009024300020100C032090400000102025E
:10113C000100052400100105240100010424020211
:10114C000524060001070582030800FF09040100BD
:10115C00020A000000070501024000000705810299
:10116C0040000000FF000000F439050800000000FA
:10117C000000000000000000000000000000000063
:10118C000000000000000000000000000000000053
:10119C0000FFFF0000000000AA550501000001003F
:1011AC00C839050800000000000000000000000025
:1011BC000000000000000000000000000000000023
:1011CC000000000000000000FF1FFF1F05010905C3
:1011DC00A101A10005010930093109320933093592
:1011EC000934094009381581257F75089508810255
:1011FC00C0C0000009022200010100E03209040015
:10120C00000103010200092111010001222600073F
:10121C0005830308000A000000000000010203041B
:10122C000102030406070809FD040308010403086E
:10123C004107030889E00208CDE3020899E002089F
:10124C00B5E0020861E0020851E00208000000006D
:10125C00000000002D202D2D202D2D2D2D202D2D8D
:10126C002D2D000000000000000000000000000018
:10127C00000000AA550B010000AA5507010000AAA6
:10128C00550902000000AA5503009F000100000050
:10129C00C0120000187E0020000000003C7E0020E0
:1012AC00000000000100000001000000000001002F
:1012BC00E00108FFFFFF01000000803F0000803FBD
:1012CC00FFFFFFFF0000000034A300200800000017
:1012DC000000000024A300200800000020000000F3
:1012EC000000803FC48C0508909705089C97050862
:1012FC00A8970508B4970508C0970508987E0508B7
:10130C0050B00508F0AE05084497050860D70508ED
:10131C008097050884970508889705088C97050819
:10132C00D08C0508CC970508D097050850AD05085A
:10133C00D49705081900C800F4012003ADE5020894
:10134C0051E302081D070308000000004DE00208ED
:10135C00ED03030819E5020865030308000000000B
:10136C000000000009E002081DE5020811E3020874
:10137C005D0603080000000021E002086903030871
:10138C00EDE40208C50203080000000000000000A4
:10139C0015E0020808000000C9B2030800000000B4
:1013AC0000000000000000006DDF020869DF020889
:1013BC0065DF020859DF020855DF020861DF020809
:1013CC005DDF0208E1DF0208D5DF0208ADDF0208AD
:1013DC00C1DF020899DF020885DF020871DF02080D
:1013EC00010000000060024010600240000000009C
:1013FC0000000000000B00000000000000000000D6
:10140C000000000000600240286002400100000063
:10141C0000000000060C00000000000000000000AE
:10142C00000000000060024040600240020000002A
:10143C0000000000100D0000000000000000000083
:10144C0000000000006002405860024003000000F1
:10145C0000000000160E000000000000000000005C
:10146C0000000000006002407060024004000000B8
:10147C0000000000200F0000000000000000000031
:10148C00000000000060024088600240050000007F
:10149C00000000002610000000000000000000000A
:1014AC000000000000600240A06002400600000046
:1014BC0000000000301100000000000000000000DF
:1014CC000000000000600240B8600240070000000D
:1014DC0000000000362F000000000000000000009B
:1014EC000000000000640240106402400000000094
:1014FC0000000000003800000000000000000000A8
:10150C00000000000064024028640240010000005A
:10151C000000000006390000000000000000000080
:10152C000000000000640240406402400200000021
:10153C0000000000103A0000000000000000000055
:10154C0000000000006402405864024003000000E8
:10155C0000000000163B000000000000000000002E
:10156C0000000000006402407064024004000000AF
:10157C0000000000203C0000000000000000000003
:10158C000000000000640240886402400500000076
:10159C0000000000264400000000000000000000D5
:1015AC000000000000640240A0640240060000003D
:1015BC0000000000304500000000000000000000AA
:1015CC000000000000640240B86402400700000004
:1015DC000000000036460000000000000000000083
:1015EC0000000000789A0508788F050800000000BC
:1015FC00D5AE0308A0860100040000000000000026
:10160C0000000000000000000000000000000000CE
:10161C0000000000000000000000000000000000BE
:10162C0000000000789A0508809A05080000000068
:10163C0049A70108E80300000400000000000000B6
:10164C00000000000000000000000000000000008E
:10165C00000000000000000000000000000000007E
:10166C000000000058760508889A05080000000064
:10167C0051D303087D0000000600000000000000AC
:10168C00000000000000000000000000000000004E
:10169C00000000000000000000000000000000003E
:1016AC0000000000909A05080000000000000000F7
:1016BC00DDC30108E8030000030000000000000087
:1016CC00000000000000000000000000000000000E
:1016DC0000000000000000000000000000000000FE
:1016EC0000000000949A05080000000000000000B3
:1016FC0021920208102700000300000000000000E7
:10170C0000000000000000000000000000000000CD
:10171C0000000000000000000000000000000000BD
:10172C0000000000A8D505080000000061150108A4
:10173C0009FF01085F7600000500000000000000B2
:10174C00000000000000000000000000000000008D
:10175C00000000000000000000000000000000007D
:10176C000000000000D6050800000000000000008A
:10177C00251A0208102700000100000000000000DC
:10178C00000000000000000000000000000000004D
:10179C00000000000000000000000000000000003D
:1017AC0000000000A09A05080000000000000000E6
:1017BC004DA70108E8030000050000000000000030
:1017CC00000000000000000000000000000000000D
:1017DC0000000000000000000000000000000000FD
:1017EC0000000000AC9A050800000000000000009A
:1017FC00F1CB0308204E00000300000000000000A5
:10180C0000000000000000000000000000000000CC
:10181C0000000000000000000000000000000000BC
:10182C0000000000BC9A0508000000000000000049
:10183C00F1C90308204E0000030000000000000066
:10184C00000000000000000000000000000000008C
:10185C00000000000000000000000000000000007C
:10186C0000000000CC9A05080000000000000000F9
:10187C00E1AA0108400D0300030000000000000075
:10188C00000000000000000000000000000000004C
:10189C00000000000000000000000000000000003C
:1018AC00000000001C96050800000000000000006D
:1018BC00592C040810270000010000000000000053
:1018CC00000000000000000000000000000000000C
:1018DC0000000000000000000000000000000000FC
:1018EC0000000000A08F05080000000000000000B0
:1018FC0055560308102700000300000000000000EC
:10190C0000000000000000000000000000000000CB
:10191C0000000000000000000000000000000000BB
:10192C0000000000707205080000000000000000BC
:10193C0021A60108A86100000100000000000000C1
:10194C00000000000000000000000000000000008B
:10195C00000000000000000000000000000000007B
:10196C00000000003C96050800000000000000008C
:10197C0031CD0108A00F00000100000000000000A4
:10198C00000000000000000000000000000000004B
:10199C00000000000000000000000000000000003B
:1019AC0000000000DC9A05080000000000000000A8
:1019BC00297203081027000001000000000000003D
:1019CC00000000000000000000000000000000000B
:1019DC0000000000000000000000000000000000FB
:1019EC0000000000987D05080000000000000000C9
:1019FC007D9B03081A41000001000000000000005C
:101A0C0000000000000000000000000000000000CA
:101A1C0000000000000000000000000000000000BA
:101A2C0000000000307205080000000000000000FB
:101A3C0065E802081027000001000000000000000B
:101A4C00000000000000000000000000000000008A
:101A5C00000000000000000000000000000000007A
:101A6C00000000008C8F0508000000000000000042
:101A7C00B94201081A4100000100000000000000FA
:101A8C00000000000000000000000000000000004A
:101A9C00000000000000000000000000000000003A
:101AAC0000000000E89A050800000000000000009B
:101ABC00EDEE0208400D03000000000000000000E5
:101ACC00000000000000000000000000000000000A
:101ADC0000000000000000000000000000000000FA
:101AEC0000000000F09A0508000000000000000053
:101AFC00E3130408400D0300000000000000000088
:101B0C0000000000000000000000000000000000C9
:101B1C0000000000000000000000000000000000B9
:101B2C0000000000F89A050800000000000000000A
:101B3C00E97C030850C30000030000000000000013
:101B4C000000000000000000000000000000000089
:101B5C000000000000000000000000000000000079
:101B6C0000000000049B05080000000000000000BD
:101B7C0065C9030840420F0000000000000000008F
:101B8C000000000000000000000000000000000049
:101B9C000000000000000000000000000000000039
:101BAC0000000000109B0508000000000000000071
:101BBC00C127040850C30000000000000000000012
:101BCC000000000000000000000000000000000009
:101BDC0000000000000000000000000000000000F9
:101BEC00000000000000803FFFFF00009CD50508AE
:101BFC000000080205030300A4D505080100080233
:101C0C0005040300F49805080200FE01011003000E
:101C1C00847305080300140200030000ACD505080A
:101C2C0004001F0201000800B4D5050805001F02BE
:081C3C0001010800FFFFFFFF9A
:1080000003685A1C02601970704700BF2DE9F047E1
:10801000089C2578002B804689460CBF4FF0200A2B
:108020004FF0300A661C25B3002A26DD334601E0F6
:10803000024698B113F8011B501E0029F8D1971E73
:1080400060B13D46013D51464046C8476B1C002B80
:10805000F8DC257827EAE770013045B1041B294692
:108060004046C847301916F8015B002DF7D1BDE82E
:10807000F087002A03DC2846F9E70020EEE7571EC8
:10808000DFE700BF2DE9F04714461D4606464FF4D2
:108090007A7200232046294647F0DAFC4D4BDFF880
:1080A00048814D4A4D4F034488FB03101844D917AB
:1080B00082FB032CC1EB601088FB002887FB0327A1
:1080C0009C44474AC1EBEC2CC0EB001E82FB0C2900
:1080D000A3EB8E0E1F44434A86F806E0C1EB274708
:1080E0004FEAEC7E08EB000ACEEBA90E82FB07827A
:1080F0004FEAE0780EEB4E0EC8EB6A18ACEBCE0CF4
:10810000C8EB0818DFF8E4E086F804C0A0EB8800AC
:1081100070718EFB0303F817C0EBE21240F2B5500A
:1081200000FB1272C1EBE353B2F5896F4FEA83078C
:108130003CDA40F2DA239A4242DCB2F5B77FB4BFB0
:108140004FF0000E4FF0010E4FEA4E09DFF8A0800D
:1081500009EB0E0308EBC3031FFA8EFCD88A09EB68
:108160000E0108EBC10116310B2301E031F8020DBD
:10817000904218DD013BF9D1CE44012338F83E008E
:10818000B37007F5FA670132121ABC44F270A6F810
:1081900000C0204629464FF47A72002347F058FC6D
:1081A0003281BDE8F0870133DBB2E9E74FF0030C21
:1081B000E64640F29650DFF838804FF00609CEE7E9
:1081C0004FF0020CDFF82880E64640F229404FF0DD
:1081D0000409C4E780BC92C7C5B3A29107452EC26B
:1081E000ABAAAA2A73B06D1689888888792D0311E5
:1081F000581605080028F0B403DA2D230B7040420E
:108200000131092804464FF0010307DD03EB830326
:108210005B00B0FBF3F2092AF8D883B10F48A0FB4A
:108220000326B4FBF3F2092A02F1570C02F13007DE
:1082300009DD03FB1244F30801F801CBEFD1002361
:108240000B70F0BC704703FB1244F30801F8017B8C
:10825000E5D100230B70F0BC704700BFCDCCCCCC77
:10826000884270B44FF0010442D301FB04F4B0FB28
:10827000F4F58D42F9D2ECB142BB092D04FB150097
:1082800005F1570605F130020EDDB4FBF1F403F8F9
:10829000016B7CB1B0FBF4F5092D04FB150005F171
:1082A000570605F13002F0DCB4FBF1F403F8012BC2
:1082B000002CEFD100221A7070BC704703F8016BDC
:1082C000B4FBF1F4002CF5D0B0FBF4F5092D04FB60
:1082D000150005F1370605F13002EFDCB4FBF1F4CF
:1082E00003F8012B002CEFD100221A7070BC7047EC
:1082F0000546002AEAD1C0E790ED057A90ED004AE4
:10830000D0ED066AD0ED014AD0ED047A90ED035A23
:10831000D0ED025AA4EE007AB0EE406AB0EE470A01
:10832000B0EE667AA4EE867A67EEC07AA5EE407A61
:10833000E5EE867A80ED057AC0ED067A704700BFDB
:10834000D0ED057A90ED013AD0ED003AD0ED064A35
:1083500090ED024A90ED077A90ED035A90ED086A8D
:10836000D0ED045AC0ED067AF0EE406A27EE830A9B
:10837000C0ED056AA3EEA60A80ED087AA4EE240AF1
:10838000A5EE470AA5EEC60A80ED070A704700BFB2
:10839000D0ED007A90ED017A30EE670AE7EE007AD0
:1083A000B0EE670AC0ED007A704700BF704700BFAB
:1083B00030B414220023112503240221C2700122AB
:1083C0008571C4710370C3728373C373417041724A
:1083D00082700272827230BC704700BF06224FF476
:1083E0007A7302704360704730B420230122212544
:1083F0004FF47F44FF214370002345710482817450
:1084000002720270027143818381C38130BC704764
:1084100030B409231F2503242221292203700123BC
:1084200045728472C1720273437330BC704700BFDF
:10843000144BFF22F0B54FF0FF34C270027102728C
:1084400042724273827303F10C0EA446172716265C
:108450001525002202EB820281189E4585544E703C
:108460008F7081F803C00C710AD093F90620DD7972
:108470001E7A5F7A93F90AC093F90B400633E9E755
:10848000F0BD00BFB816050810B42C21012402224B
:108490000023047041708270C3705DF8044B704714
:1084A000034600F11001FF221A705A7002339942FC
:1084B000FAD1027042708270C2707047CB794A79EB
:1084C00030B48D790C7BDB09520202F4606243EA1E
:1084D0004503134322071DD40380CB790A7A5B013D
:1084E00003F47E6343EAD20343808B7A0A7A4C7AA0
:1084F000DB09520243EA440302F4606213438380BF
:108500008B7ACA7A5B0103F47E6343EAD203C380A9
:1085100030BC70470381CB790A7A5B0103F47E6338
:1085200043EAD20343818B7A0A7A4C7ADB095202FE
:1085300043EA440302F46062134383818B7ACA7A6C
:108540005B0103F47E6343EAD203C38130BC70470E
:1085500001207047CB79002B5ED1F0B58D7A4E7B30
:1085600091F809C0CF7A0A7CCB7C91F811E02C02FB
:1085700004F470644CEA04042D094FEA062C45EA21
:1085800007150CF4706791F80CC04CEA070C8F7B50
:1085900085B0360946EA07161702ADF8025007F40F
:1085A0007065CF7BADF804C02F4391F814C08D7C6B
:1085B000ADF806601902120901F470611B0942EA64
:1085C0000E12294343EA0C1304ADADF80870ADF860
:1085D0000A20ADF80040114EADF80C10ADF80E3089
:1085E0000DF10202C5F10E0CC5F11E0701E032F8D3
:1085F000024BC4F30A0303F2CA4321054FEA4303C3
:10860000A6FB03134CBFB9180CEB02015B08AA428E
:108610004352ECD105B0F0BD704700BFABAAAAAA87
:10862000F0B4174C2378591C01F03F01E5184B1C9E
:1086300021447E2603F03F021B232E7122700B7112
:10864000C61D7D2704E0A518B042DAB2297113D007
:1086500010F8011BA1F17D05531C012D03F03F0310
:10866000F1D82244E51881F020010133B04217719E
:1086700003F03F022971EBD12270F0BC704700BFBC
:1086800030150020F0B58F7A8D79CC7ACE790A7CBE
:10869000DFED5F3A4B7C4FEA072E0EF4706E45EA31
:1086A0000E053F0107F4706C04EE105A4FEA042ED9
:1086B0000D7A240104F470670EF4706E46EA0C041F
:1086C00004EE904A45EA0E0405EE104A4C7AF8EEA4
:1086D000E44A3C4305EE904A16020C7B120102F478
:1086E000706506F470664A7BB8EEC55A64EEA34A1C
:1086F00034432A4306EE104AF8EEE55A25EE235A93
:10870000FCEEE44A06EE902A1D028A7B1B0185B02E
:1087100003F4706405F47065CB7BB8EEC66A14EEA2
:10872000901A65EEA35ABCEEC55A2A4307EE102AEA
:10873000B8EEC44AF8EEE66A26EE236AFCEEE55A85
:10874000ADF8021015EE101A234307EE903AB8EE7A
:10875000C77A24EE234A66EEA36ABCEEC66AADF879
:10876000041015EE901AF8EEE77A27EE237ABCEEA5
:10877000C44AFCEEE66AADF8061016EE101A67EE73
:10878000A37A14EE103ABCEEC77AADF8081016EED4
:10879000901A9BB2FCEEE77AADF80A1017EE101AA9
:1087A0001A46ADF80C10A2F5487217EE901A0DF1AA
:1087B0000204B2F5AF6FADF80E10ADF800302146EF
:1087C00004AD08D8A9420CD031F8022BA2F54872AA
:1087D000B2F5AF6FF6D90F4B1B78122B0CD005B04A
:1087E000F0BD821E0E3001E034F8023B22F8023F59
:1087F0009042F9D105B0F0BD074A0849B2F84430BB
:1088000001339BB2A2F844300B8005B0F0BD00BF2D
:10881000ABAA2A3F78A40020301500207CA40020B9
:10882000054A92F846303F2B05D8D118013381F81C
:10883000480082F84630704730150020014BD3F8CD
:1088400088301847301500200206144A144912785F
:1088500000EBC0034FEA131346BF523B1BB2413338
:10886000032AA1F88C3000D0704770B40D4D0E4E25
:1088700028780E4C36F81020DB009BB29A1A26F8A6
:1088800010302368411C13440948236001F00F0194
:108890001A092970028070BC704700BF1C25002097
:1088A000301500201D250020202500204025002017
:1088B0004425002038B590F90E30002B01DB002054
:1088C00038BD0378812BFAD1104D427995F98E305D
:1088D000B3EBD20FF3D149B195F8912043789A4286
:1088E000EDD195F8922083789A42E8D10446407BF6
:1088F000FFF7AAFFE37A227B9B0003F01C0343EA05
:10890000921385F8C830012038BD00BF3015002013
:1089100010B50A4C0A4A2378D2F8CC0033B917F0C4
:10892000A9FA237883F00103237010BD17F09CFA95
:10893000237883F00103237010BD00BF980100204D
:108940003015002040F08001014818F0BBBE00BF88
:108950009C3A00204FF40063038470470B460246A4
:10896000FF21014818F0F6BE9C3A002010B50446DD
:10897000FB20FFF7E7FF00F07F000E2801D8002062
:1089800010BD20460F21FFF7E9FF012010BD00BFF9
:10899000012380F858307047F0B4037C45690268C1
:1089A0001F2B37D9203B2021546899400C4223D0FB
:1089B00010249C40D160D4605168D940CE074ED479
:1089C000EFF31183502282F31288EA6B1168C90712
:1089D00009D45468002C52D1D5E909618E4243D1A3
:1089E000012285F86020DBB283F31188037C0268E2
:1089F0001F2B194614D9203B082150689940084282
:108A000000D0D1600421506801FA03F3184223D149
:108A1000F0BC7047202416689C4026420FD11946AE
:108A2000082310688B40184200D09360042310681C
:108A300003FA01F10842EBD09160F0BC70471021BD
:108A40009940946091601168D940CC07B8D5012154
:108A500001FA03F39360B3E7D360F0BC70470121E0
:108A600001FA03F3D360ABE7AF690F44D7600ED8C8
:108A70002E69711A5160AC62002185F8601011688E
:108A800041F00101DBB2116083F31188AEE7711A86
:108A90005160AE62F0E700BF2DE9F041B14DB24C3C
:108AA0002A7823789A4240F01B81B04B1A78002A2A
:108AB0007CD0AF4B1E78AF4B002E79D11968B3F83C
:108AC0002C714E628889012A40EA07008881A3F848
:108AD0002C6157D0D3F83011B3F85C724E6288899C
:108AE000022A40EA07008881A3F85C624AD0D3F8E2
:108AF0006012B3F88C734E628889032A40EA07003B
:108B00008881A3F88C633DD0D3F89013B3F8BC747C
:108B10004E628889042A40EA07008881A3F8BC6471
:108B200030D0D3F8C014B3F8EC754E628889052AAA
:108B300040EA07008881A3F8EC6523D0D3F8F0154C
:108B4000B3F81C774E628889062A40EA07008881BC
:108B5000A3F81C6716D0D3F82017B3F84C784E62F0
:108B60008889072A40EA07008881A3F84C6809D061
:108B7000D3F85028B3F87C0956629189014391815A
:108B8000A3F87C692A7823789A420FD07A481F4646
:108B90009B003B449B00C218C3583BB9137A2BB9C6
:108BA000537A1BB97B1C03F003032370BDE8F081EB
:108BB0005E68198971603768186847F0010740F2EC
:108BC0000D313760A0F848108689012A46F4807676
:108BD0008681D7D0D3F83461B3F83871D3F8300137
:108BE0007760376847F001073760A0F8481086893A
:108BF000022A46F480768681C4D0D3F86462B3F842
:108C00006872D3F860027760376847F00107376011
:108C1000A0F848108689032A46F480768681B1D070
:108C2000D3F89463B3F89873D3F8900377603768F8
:108C300047F001073760A0F848108689042A46F4F7
:108C4000807686819ED0D3F8C464B3F8C874D3F814
:108C5000C0047760376847F001073760A0F8481014
:108C60008689052A46F4807686818BD0D3F8F46510
:108C7000B3F8F875D3F8F0057760376847F0010767
:108C80003760A0F848108689062A46F480768681E7
:108C90003FF478AFD3F82467B3F82877D3F82007E8
:108CA0007760376847F001073760A0F84810868979
:108CB000072A46F4807686813FF464AFD3F85428BF
:108CC000B3F85808D3F850385060106840F00100ED
:108CD0001060A3F848109A8942F480729A8151E793
:108CE000804613F0BBFD27782B78BB4286461DD00B
:108CF000BB002148DA1900EB8202167AC6B1B8F13E
:108D0000000F3DD01D490022B1F808C00132BCF16E
:108D1000000F18BF0026424501F58071F4D17EBBDB
:108D2000124A1278002A3FF434AFC2E61248BB0060
:108D30003B449B00C118C258AEEB0202002AFFF66A
:108D400035AF4A7A3AB1013AD2B24A7212B30EF54D
:108D50007A72C25000E0C250044B1A78002A7FF4A5
:108D6000A8AE0FE7C9A60020CAA6002062C6002050
:108D700061C6002064C60020CCA600201CA70020ED
:108D8000DA1992000EF51C5186181031815000221C
:108D90003272C5E74A687244C250DDE710B5027C02
:108DA00001681F2A4FF020030ED94C68203A9340E7
:108DB0001C4208D00B4A406800241470026822F05C
:108DC00001020260CB6010BD0C6893401C42FAD0D7
:108DD000044A406800241470026822F00102026014
:108DE0008B60F0E7C489002018F08EBD014B186835
:108DF00013F09ABF5043002038B51D4B1B78044632
:108E000000F1250593B104221A49203048F00EFCE8
:108E100028461422184948F009FC012384F83A3006
:108E2000164B1B7873B984F83B3038BD28461422A2
:108E3000134948F0FBFB012384F83A300F4B1B78B1
:108E4000002BF0D00F4B186859689A68DD68E56010
:108E500020606160A260DD69186959699A69A26140
:108E60000123E5612061616184F83B3038BD00BFBA
:108E70002DA40020FCA30020E4A300202EA40020A9
:108E8000386F050804A4002038B52E22002148F0D0
:108E90008FFB03462224642040F2DC5140F21A4248
:108EA0001C73187440F20224132059829A821921EB
:108EB00040F2753240F26C751C8398760E240220C5
:108EC0001977DA830A210122DD8283F82C0040F62B
:108ED000430583F82D1083F822409A7383F82520E8
:108EE00083F82B201D8419460248BDE8384010F055
:108EF000ECB900BF446F050810B5002104460120FD
:108F000012F076FE207010BD38B500240472451EA4
:108F1000E1B2022012F06CFE0134082C05F8010FBA
:108F2000F6D138BD38B500240546048021462846D0
:108F300001342FF093F9082CF8D1002185F8E210C4
:108F4000A5F8E410A5F8E610A5F8E810A5F8EA10D1
:108F5000A5F8EC10A5F8EE10A5F8F010A5F8F210A1
:108F60002846BDE838402FF03BB900BF08B5302097
:108F700033F01EF84FF47A7013F0C2FC8E210448CF
:108F800018F0A0FBA0F1C400B0FA80F0400908BDC1
:108F90009C3A002010B51A4C362033F009F894F9A9
:108FA0008E3003EB43032344232093F8D01032F098
:108FB000F7FF94F98E3003EB43032344242093F806
:108FC000D11032F0EDFF94F98E3003EB43032344CC
:108FD000252093F8D21032F0E3FF94F88E1001EBC5
:108FE00041014900103101F0FE010A2032F0D8FFA2
:108FF0003A2032F0DDFF3420BDE8104032F0D8BF17
:1090000030150020094890F8C81090F98E300B44B4
:10901000DAB2931C5BB21D2BC4BFA2F11D035BB27D
:10902000002BF4DB80F88E30B4E700BF3015002051
:1090300010B50D4B0D4A0E4C1B781268C4F8302148
:10904000132B4FF0C00284F8342103D1094B4FF6A3
:10905000C072DA80C0210C2032F0A2FF0F2384F806
:109060008E30BDE8104095E778A4002050A600207F
:10907000301500207CA4002010B5264C94F8353122
:1090800094F836211844C0B2904284F8350105D3D3
:10909000801AC0B29042FBD284F83501362032F0FB
:1090A00087FF94F835312344232093F8943003EB61
:1090B0004303234493F8381132F072FF94F83531AA
:1090C0002344242093F8943003EB4303234493F880
:1090D000391132F065FF94F835312344252093F897
:1090E000943003EB4303234493F83A1132F058FFD2
:1090F00094F8353123440A2093F8941032F050FF4D
:1091000094F83534082B00D010BD3A20BDE810404B
:1091100032F04EBF3015002038B5104C054694F89B
:1091200093100C2032F03CFF0821182032F038FF59
:109130008DB994F89110092032F032FF0D210720EB
:1091400032F02EFF1920162132F02AFF0A20BDE846
:10915000384013F033BC0321EDE700BF3015002089
:10916000024BD3F8380418F083B800BF3015002044
:10917000F8B5DB4E054613F071FB96F83C34044617
:109180000E2B00F2E580DFE813F00F00F1000E0176
:10919000E300E300E300E300E300E300E3003B015E
:1091A0005A01B901DC01E500CE4BD6F840241B681A
:1091B0009B1A0A2B40F2CC8000250FF099FCA6F8F0
:1091C0004454FFF7D3FE0121022032F0E9FE0721CB
:1091D000032032F0E5FED321042032F0E1FE91219C
:1091E000052032F0DDFE0D21062032F0D9FE0421EB
:1091F000072032F0D5FE0C21082032F0D1FE2921C3
:10920000092032F0CDFE06210B2032F0C9FE96F87F
:109210009310B54C0C2032F0C3FE5C210D2032F0CF
:10922000BFFE4E210E2032F0BBFEC4210F2032F0D3
:10923000B7FE7C21102032F0B3FE4321112032F022
:10924000AFFE0321122032F0ABFE2321132032F0B7
:10925000A7FE3B21142032F0A3FE4421152032F05A
:109260009FFE0F21172032F09BFE0821182032F0BC
:1092700097FE1D21192032F093FE6C211A2032F046
:109280008FFE03211B2032F08BFE40211C2032F088
:1092900087FE91211D2032F083FE5621212032F0DD
:1092A0007FFE1021222032F07BFEA921232032F004
:1092B00077FE0A21242032F073FE2946252032F061
:1092C0006FFE1121262032F06BFE5921292032F049
:1092D00067FE88212C2032F063FE31212D2032F0F0
:1092E0005FFE0B212E2032F05BFEFF213E2032F08C
:1092F00057FE04F15A071025362032F059FE294650
:109300000A2032F04DFE332032F052FE4FF46170ED
:1093100013F0F6FA2320FFF715FB20702420FFF747
:1093200011FB60702520FFF70DFB033404F8010CDE
:109330000635BC42EDB2DFD16C4B1A780A23132AF2
:1093400086F83C3404D16A4AB6F84414518013803C
:109350000020F8BD12F0F8FE644B1A780023132A9F
:1093600086F83C3400F08A810120F8BDFFF7F8FE52
:10937000002840F0C281D6F84834E41A002C40F3AB
:1093800018814FF4FA700FF099FBFFF7C1FAFFF75D
:1093900039FED6F8483403F5F42303F59073C6F884
:1093A00048340020F8BDFFF7DBFE002840F0848140
:1093B000D6F84834E21A002A40F3FB8096F8542489
:1093C00003F5D4531033032AC6F8483411D0474B61
:1093D0001978132900F049815AB9D6F8503401336D
:1093E000642BC6F8503400F20D81012B01D9FFF730
:1093F0008FFA002486F85444FFF704FE2046F8BD97
:1094000001200FF037FB002840F0C280374B1A785C
:109410000123132A86F83C3400F0FA80FFF7F2FDAE
:10942000344B1B78032B02D1334B00221A8004F5F6
:10943000F42404F59074C6F848440020F8BD96F969
:1094400034317D2B07DD294B1B788222132B86F8C4
:10945000342100F00581234CD6F8302123689B1A73
:10946000DC2B00F20F81FFF77BFE00283FF470AF8A
:109470002846FFF77BFA00283FF46AAF0021284610
:10948000FFF718FA002800F0B880AB7B03F07F03E9
:10949000282B40F2B280154F6B783A7886F89130DD
:1094A000132A08BF124A96F93431A97886F84C3449
:1094B0004FF0340008BF938086F8921032F078FDA8
:1094C0003A782368C6F83031132A4FF00C0386F837
:1094D0003C347FF43DAF064A00201380F8BD00BF46
:1094E0003015002050A600200016002078A400208F
:1094F0007CA400201C25002044250020A44C6420CE
:109500000FF0DCFA2368D6F830219B1AB3F55C7FA4
:1095100003D896F94C747A2F5DDD236896F83411E0
:10952000C6F830310C2032F03BFD342032F040FDE3
:10953000984B1A780D23132A86F83C347FF408AF31
:10954000C9E7934F64200FF0B9FA3B68D6F8302191
:1095500096F934419B1AB3F55C7F02D814F17A0F67
:1095600059DA96F94C341A1B022A13DD894A23442E
:10957000117803EBD3735B100E22132986F8933016
:1095800086F83C247FF4E4AE834B00201A80F8BDBB
:109590000FF0BAFAFFF74CFD7E4B1B780B22132B12
:1095A00086F83C247FF4D4AE7B4B0B221A8000203B
:1095B000F8BD00200FF05EFA00283FF4C9AE754BED
:1095C0001B780022132B86F83C247FF4C1AE724B2B
:1095D00000201880F8BDFFF7C3FD00283FF4B8AEA7
:1095E0002846FFF7C3F900283FF4B2AE2846012110
:1095F000FFF760F9002840F0BA80342032F0D8FC40
:109600000020F8BD0123132986F83C347FF406AF0F
:10961000614A138002E7FFF7A3FD00283FF498AEEC
:109620002846FFF7A3F900283FF492AE284601210F
:10963000FFF740F90028E0D0564A3B681278C6F898
:109640003031132AA4F10403D9B208BF524A4BB2F5
:1096500086F8343108BFD3800C2032F0A1FCCCE76F
:109660004D4B4FF68272DA80F5E6B6F844344A483C
:1096700001339BB2A6F844344380ADE6464A01204C
:109680001380F8BD434A96F8341112782368C6F85F
:109690003031132A01F11001C9B208BF3E4A4BB262
:1096A0004FF00C0086F8343108BFD38032F078FCDC
:1096B000342032F07DFCD6E62846FFF757F9002823
:1096C0003FF476AE01212846FFF7F4F8002894D045
:1096D0002B7B0022C6F850241A0739D596F854245B
:1096E00004F5FA7442F00202C6F8484486F854249D
:1096F0005B073FF52DAE0220F8BD2846FFF736F98F
:1097000000283FF438AE01212846FFF7D3F800289F
:109710003FF473AF2B7B19077FF56FAF0023C6F8BB
:1097200050340FF0F1F91B4B1A78132A08BF1A4A6C
:109730004FF002034FF0030104F5FA7486F8541455
:1097400086F83C3408BF1380C6F848440020F8BDB2
:1097500004F6AC543420C6F8484432F029FC96F89C
:1097600054242B7B42F0010286F85424C0E7094AB6
:1097700023681278C6F83031391DC9B24BB2132AAA
:1097800086F84C347FF468AF034A938064E700BFE7
:1097900050A6002078A400207CA400202DE9F041F0
:1097A000B74E96F855340446052B00F2CF80DFE81B
:1097B00003F01A25348EC10396F89030002B00F088
:1097C0002382B04D5024286816F044FB322013F059
:1097D000F5F8631E13F0FF04F5D1062386F855341F
:1097E0000120BDE8F081A84BD6F858241B689B1ACD
:1097F0000A2B00F24D810020BDE8F08101200FF01E
:1098000039F9002840F0A88096F89000002840F030
:10981000A380062386F85534EEE796F960349A4A19
:10982000D6F85C147D2BC4BF822386F8603413689D
:109830005B1A322B00F21681FFF792FC0028DAD077
:10984000FB20FFF77FF810F07F05D4D02946254490
:109850002046FFF783F815F8013C1A06CBD5A5780A
:10986000012DC8D103F07F03322BC4D996F86034A0
:1098700086F89330362032F09BFB96F8381123207F
:1098800032F08EFB96F83911242032F089FB96F8DD
:109890003A11252032F084FB00210A2032F080FBAF
:1098A0003A2032F085FB142013F02AF8342032F0ED
:1098B0007FFB00240523284686F8613486F836416C
:1098C000FFF72AFC0323204686F8553494E7FFF778
:1098D00047FC00288FD0FB20FFF734F810F07F05FD
:1098E00089D0294625442046FFF738F815F9013C70
:1098F000002B80DAA378012B7FF47DAF60790028FC
:109900007FF479AFE278237986F891206FF0040133
:1099100086F89230091B621D04F10A058B18034476
:1099200012F8010F3344AA4283F8940000F09380A8
:109930006079F3E796F86154782D47D9362032F0F4
:1099400037FB052386F85534002055E7D6F86434F4
:109950004E49BDE8F04118470FF0D6F81421192000
:1099600032F01EFB484A82231946126886F860349A
:109970000C20C6F85C2432F013FB0C21072032F0D7
:109980000FFB0821182032F00BFB362032F010FBC1
:1099900096F83811232032F003FB96F83911242071
:1099A00032F0FEFA96F83A11252032F0F9FA002149
:1099B0000A2032F0F5FA3A2032F0FAFA342032F086
:1099C000F7FA022386F85534002015E7FFF7C8FBA5
:1099D00000283FF410AFFB20FEF7B4FF10F07F0724
:1099E0003FF409AF394627442046FEF7B7FF17F981
:1099F000013C002BBFF6FFAEA378012B7FF4FBAE3A
:109A0000E27896F891309A427FF4F5AE227996F892
:109A100092309A427FF4EFAE6279AA427FF4EBAEC5
:109A200004F1050E00231EF801CF17F8038CF0187F
:109A3000E045D9B2104403F1010302D0BCF1000F9C
:109A400002D12C2D00F23581052B80F894C000F056
:109A500034816279E7E7237B86F8C630042386F8F1
:109A60005534C8E696F860341268C6F85C240533AD
:109A7000DBB219460C2086F8603432F091FADBE64E
:109A800030150020F038002050A600208519002055
:109A9000FFF76CFA0121022032F082FA1821084601
:109AA00032F07EFA0421072032F07AFAFF213E20BC
:109AB00032F076FA00210C2032F072FA5C210D208F
:109AC00032F06EFA2321132032F06AFA7A21142040
:109AD00032F066FA1621192032F062FA6C211A204F
:109AE00032F05EFA03211B2032F05AFA40211C208A
:109AF00032F056FA91211D2032F052FA56212120DF
:109B000032F04EFA1021222032F04AFAA921232005
:109B100032F046FA0A21242032F042FA00212520B0
:109B200032F03EFA1121262032F03AFA592129204A
:109B300032F036FA88212C2032F032FA31212D20F1
:109B400032F02EFA0B212E2032F02AFA07210320C0
:109B500032F026FA0021092032F022FA96F8354434
:109B6000092C7DD00F2C52D0082C27D10C21172086
:109B700032F016FA76210E2032F012FA27210F2049
:109B800032F00EFA1921062032F00AFA0521204699
:109B900032F006FA21460B2032F002FAAA211020F8
:109BA00032F0FEF93921112032F0FAF91121122098
:109BB00032F0F6F94221152032F0F2F9414C00253D
:109BC000362032F0F5F9E9B20A2032F0E9F9332013
:109BD00032F0EEF94FF4617012F092FE2320FEF79E
:109BE000B1FE20702420FEF7ADFE60702520FEF748
:109BF000A9FE0135FF2DA07004F10304E0D101237B
:109C000086F855340020F7E512F09EFAE5E50E21BE
:109C1000172032F0C5F980210E2032F0C1F920461C
:109C2000002132F0BDF92321062032F0B9F90121DB
:109C3000082032F0B5F908210B2032F0B1F97B2170
:109C4000102032F0ADF9F821112032F0A9F90321EA
:109C5000122032F0A5F95321152032F0A1F9ADE719
:109C60000C21172032F09CF976210E2032F098F961
:109C700027210F2032F094F91E21062032F090F9AE
:109C80000121082032F08CF90A210B2032F088F9EA
:109C90007B21102032F084F96121112032F080F90B
:109CA0001321122032F07CF95121152032F078F97D
:109CB00084E70A4486F8362140E6053586F8615483
:109CC000002099E5681600202DE9F0413F4B1A78F5
:109CD0000AB903221A703E483E4E01683E4CA0F578
:109CE000B875322385F8763101F13F4303F57E03E1
:109CF0009B0A0022F35C85F8772103F01F065B09BD
:109D00000122032BC4F8380402FA06F254D0042BC3
:109D100057D0022B4BD0B5F87471002301264FF0B9
:109D2000030C06FA03F2BA430DD15A0008680CFA84
:109D300002F2D2431040086008680860C868024018
:109D4000CA60CA68CA600133102BEAD1234EC4F836
:109D500068644FF032080027304685F86E8085F839
:109D60006F703BF003FCD4F8680416F083F8A6F19A
:109D700028031846083685F8468085F84770C4F8E9
:109D80006C343BF0F3FB304685F8768085F87770CD
:109D9000C4F8CC603BF0EAFBD4F8CC0016F06AF8CB
:109DA000D4F86C0416F060F80120BDE8F0810C4B8B
:109DB000586C02435A64AEE7094B186C02431A64AC
:109DC000A9E7074B186B02431A63A4E71C25002080
:109DD00000A60020B046050830150020F8A4002099
:109DE0000038024010B50C46FFF76EFF08230A4802
:109DF00023700A4A0A4B01781268C3F840241329D9
:109E00004FF0000283F83C2408BF064B4FF00100DE
:109E100008BF1A8010BD00BF78A4002050A6002003
:109E2000301500207CA4002070B50546007B0E464E
:109E300015F0F8FD464B186018B105220023827119
:109E4000C3713BF093FB6B7B424A434C003318BF1A
:109E5000012313700EF04CFEE87A15F0E3FD20604C
:109E600018B1272200238271C3713BF0D9FB20680F
:109E70003A4C17F0FDF93A4B1870FFF725FF2B7895
:109E800084F83534092B2DD00F2B2BD0082B12D072
:109E9000344B1A780AB903221A70334A0023126825
:109EA000C4F8582484F855343222C4F87834C4F8FD
:109EB0007C24012070BD2D4A337013682C4A2D4933
:109EC000C4F888205A05C4F86414E1D52A4B1A78DE
:109ED00092BB2A4A2A49116002221A70012384F88F
:109EE0007034D5E710202749274A3070092BC4F871
:109EF0006414C4F8882013D00F2B06D123224FF40A
:109F0000AF6384F87124A4F87234184B1B685B05A6
:109F1000BED51E4D2B788BB1002384F87434B7E77F
:109F20004FF4C873A4F87234104B1B6820225B05F1
:109F300084F87124ACD5ECE70023D0E7144B154A24
:109F40001A6029F0ADF902232B700123E5E700BF69
:109F5000F0380020F4380020E438002030150020CC
:109F6000E93800201C25002050A600201CD000202D
:109F70008586000845A600089188002014710020FD
:109F800021880008BD9F0008558500089F88002093
:109F9000EC7000202186000838B50D4604463B20B1
:109FA00032F006F82A46214603483CF09DFA352057
:109FB000BDE8384031F0FCBF9C3A00202DE9F04F5D
:109FC0000B78063B83B00D460746042B20D8DFE80C
:109FD00003F0AC2303407400C34CFFF7C1F820B179
:109FE00094F88464002E00F01D8194F88C34002BCA
:109FF00040F0C38012F032FCD4F88034D4F87C14E2
:10A0000042F22832C01A02FB01F28242C0F2A08062
:10A01000002003B0BDE8F08F12F020FCB24C002607
:10A020000822C4F8800441F2B4432A703046C4F8D0
:10A03000883484F884640EF01DFD0028CDD03223CE
:10A04000C4F88064C4F878642E703046C4F87C3458
:10A05000DFE7A54C12F002FCB4F87224D4F888149F
:10A06000D4F880340A44C01A8242D1DC362031F060
:10A070009FFF3CF093FA3A2031F09AFF1E2012F035
:10A080003FFCD4F86C0415F0F5FE362031F090FF5B
:10A0900094F8B8140131C9B204F59760FFF77CFF5A
:10A0A00094F87434002B40F0098194F884340A2227
:10A0B0002A70002BACD00220ABE78B4C12F0CEFB09
:10A0C000D4F88824D4F8803402F67462C01A82422C
:10A0D0009EDA12F0C3FBDFF83482C4F8800441F248
:10A0E000B44398F80200C4F88834002684F88464E5
:10A0F000FEF7C2FF342031F05BFFD4F86C0415F09A
:10A10000B3FED4F87874012F00F2C780774B1B7828
:10A11000122B08BF764B07F1010708BF5F800823A9
:10A12000C4F878742B70002073E76F4B2F22002047
:10A1300083F83621FEF7F0FF07232B700120FEF78E
:10A140009BFF342031F034FF002003B0BDE8F08FD6
:10A15000684B186815F07EFE674B1B78032B02D105
:10A16000664B00221A800120FEF786FF342031F072
:10A170001FFF07232B7000204BE712F06FFBD4F872
:10A180008034D4F88824C01A8242BFF633AF092342
:10A190002B7094F8913084F8B93494F8922084F8B4
:10A1A000BA240E2384F8B83494F8CC84FE7884F86A
:10A1B000BB64B8F1000F40F0388194F8C730012B30
:10A1C00000F0DE81C0F0D781022B0CBF32200020CE
:10A1D00084F8BC047B7D88F001081A0784F8CC84DD
:10A1E00040F196808822002384F8BD2484F8CD3481
:10A1F0004349444801F10907002201E011F8016FC9
:10A2000086EA122600EB46068F42B6F8743083EADF
:10A2100002231BB29AB2F1D1120A84F8C52484F841
:10A22000C634E7E6FB20FEF78DFB94F8718400F05E
:10A230007F0080453FF6D9AE41463846FEF78EFB9B
:10A24000A8F1070313F0FF0307F1030200F0B58143
:10A2500003332C48F91812F8013B83EA162300EB6C
:10A2600043038A42B3F8743083EA0626B6B2F2D1C9
:10A27000330A07EB080212F8041C994200F0DC8054
:10A280001A4AD4F8F43412780133122AC4F8F43498
:10A290007FF4ABAE164A9380A7E6FEF739FB642F36
:10A2A0007FF634AF32230122C4F87C34072384F8CC
:10A2B0008C64304688F801202B70AAE6124AD4F844
:10A2C000EC341268D31A0020182B8DF8070069D9D6
:10A2D00002AF012307F8013DC4F8EC2439460022FF
:10A2E00028F0D8FBE1E600BF3015002078A400205C
:10A2F0007CA40020F03800201C25002044250020EC
:10A30000EB1900205816050850A6002098010020DF
:10A31000C3F3011213F0400340F03A81013294F884
:10A32000CD1402F0030291423FF462AF94F8AC64A2
:10A3300094F8E82494F800E0BA4806F0F00661F3D7
:10A34000010684F8BD64561C964504EB02075FFACB
:10A3500083FC06F03F0203F1010300F030813E79F7
:10A3600000F8016B052BEED184F8E8249C46AE4A38
:10A3700084F8BEC4174601EB41004B1C410057F85E
:10A3800012CD42F801C0584200F003000A4403F025
:10A390000303BF8894F8BB64978058BF434284F896
:10A3A000CD3425E794F8B494DFF8948209F10109DB
:10A3B00009F003094FEAC90A83460DF10707AAEB22
:10A3C0000906264496F89634002B87D0002885D1BC
:10A3D00096F8902494F8F034934202D313E00028C6
:10A3E000EDD1F2183946002392F89104424629F043
:10A3F0001DF994F8F03496F890240133DBB29342BF
:10A4000084F8F034EBD39A42D9D1AAEB090AA244DA
:10A4100009F1010384F8B49403F003098AF896B4AF
:10A4200084F8F0B44FEAC90AC9E794F88C3063F0B5
:10A430007F0384F8BC34CDE612F8033CF6B2B34295
:10A440007FF41EAF3B78A8F1030843457FF418AFB3
:10A450007A7894F891309A427FF412AFBA7894F8EF
:10A4600092309A427FF40CAF94F8C62022B1BB79A7
:10A4700013B19A427FF404AF00230122C4F8783468
:10A48000C4F88834C4F87C240EF03EFB674A537845
:10A49000A3B17B79387994F836119B00DBB28842FE
:10A4A000937006D301F13F068642C0F2AE800133BD
:10A4B00093700121002384F88C14537094F8713444
:10A4C0003B443E4613F8020CFEF7BEF9787D58492E
:10A4D00056F8163F94F8ADC400F00300C0EBC0027C
:10A4E0008B5011440CF10103B6888E80224403F096
:10A4F00003030121DEB282F89614B0424FF000024D
:10A5000084F8AC240DD03246C2EBC201214402F1E2
:10A51000010E91F89614002954D00EF003029042D7
:10A52000F2D1C3EBC3022244002192F89624C4F86E
:10A53000B01482B1B44503D10DE08C450BD00E466A
:10A54000013303F00303C3EBC3022244D9B292F8F0
:10A550009624002AF1D194F8AC3484F8AD6466F303
:10A56000051384F8AC3412F079F90123C4F880049F
:10A5700084F8843439E532F001F900F07F0027E6F1
:10A580002C4A2D4B127B33F81200C0F346101FE605
:10A590002A4894F8AC3402EB420700F1120101EBB7
:10A5A000470103F0F0030F688988C4F8BE7462F3B2
:10A5B0000103818084F8BD341AE61E4659E684F80A
:10A5C000E8E4D4E694F8ACE4D4F8B00462F3051EF1
:10A5D0005FFA8EF242F04002013084F8AC24520659
:10A5E000C4F8B0049DD50428BDD9032384F896147B
:10A5F00084F89D1484F8A41484F8AB14C4F8B0143F
:10A6000084F8B43484F8AD34ADE701F17F06B0428C
:10A6100002DC023393704CE7BF318842DCBF033366
:10A62000937046E7EF190020001A002098010020DF
:10A63000C019002090A60020C0A60020EE1900201E
:10A64000518500082DE9F0410D4682B0804612F098
:10A6500005F92B78063B0746032B4DD8DFE803F0BE
:10A66000512E0242C74EFEF77BFD00285DD1D6F881
:10A670007C3442F22832044602FB03F2D6F8F83466
:10A68000FF1A97424DDDD6F86C0415F0EDFBD6F8B5
:10A690007C34012B58D1D6F87874012F7DD801373E
:10A6A0000120C6F87874FEF7E7FC342031F080FC16
:10A6B000072320462B7002B0BDE8F081B14E08237D
:10A6C0002B700020C6F8F8740EF0D4F90028CAD018
:10A6D00000243223C6F8F844C6F878442C70C6F833
:10A6E0007C341EE0A74C12F0B9F8D4F8FC34C01A40
:10A6F00040F26353984233DC0024204602B0BDE8A8
:10A70000F081A04B2F22002083F83621FEF704FDB4
:10A7100007232B700120FEF7AFFC342031F048FCFA
:10A720000024204602B0BDE8F081FB20FEF70AF9C4
:10A7300000F07F00132856D8D6F87C3442F2283235
:10A7400002FB03F2002499E78F4B186815F082FB97
:10A750008E4B1B78032B31D00D20FEF78DFCA4E728
:10A76000362031F025FC3BF019FF3A2031F020FC77
:10A77000D4F86C0415F07EFB362031F019FC94F807
:10A780000415013104F20450C9B2FFF705FC082397
:10A79000C4F8F8742B700224C3E7FEF7B9F8642FED
:10A7A0007FF67DAF794B1B783222032BC6F87C24D1
:10A7B0007FF475AF764B00221A8070E7754F764EA6
:10A7C0003A78764836F812C00368511C01F00F0140
:10A7D00039700021A3EB0C0326F812106C4A0360B9
:10A7E0001B091380B8E714214046FEF7B7F898F923
:10A7F0001330002BA0DA98F8003000240120112B30
:10A80000C6F87844C6F87C0402D042F2283235E714
:10A8100098F8012096F891309A42F6D198F80220E3
:10A8200096F892309A42F0D101900EF06DF90198AD
:10A83000FEF722FC98F81200FEF706F898F80330AD
:10A8400003F00303022B0ED0342031F0B1FB0723B9
:10A850002B70D6F87C34C6F8F87442F2283202FB2A
:10A8600003F202240AE711F0F9FF96F8C730C6F8A0
:10A87000FC04012B2FD060D3022B4949494A0CBF5D
:10A8800064232346497C98F8040032F8111096F8A6
:10A89000702496F8914086F80735090986F808155E
:10A8A0004FF0110C96F89210B6F88C3086F800052F
:10A8B00086F804C586F8054586F8061586F8093534
:10A8C0008AB9134686F80A3596F8002586F80B25CE
:10A8D00009232B70BDE73249324A0B7B32F8133023
:10A8E000C3F30713CEE796F8183596F8462083424F
:10A8F00030D096F8193586F81A3596F81A1596F864
:10A900004600294C002205E09EF848308CF80830BB
:10A910000A2A1BD001F10108884206EB010E04EB64
:10A92000020CD3B208F03F0102F10102ECD1002287
:10A9300086F81A0586F84620C4E71C4B18491B8880
:10A94000184A0520B3FBF0F3DBB29BE786F81A1533
:10A950001346B7E7013303F01F0396F81A1586F87C
:10A96000183586F81915002AC7D186F81A2511F06E
:10A9700075FF0F4B0F4A1B68C31A9342BDDD28F0C9
:10A9800053FFBAE730150020F03800201C250020C6
:10A99000442500201D2500202025002040250020E2
:10A9A00090A60020C0A60020341A0020A079002024
:10A9B0000C7E002047E8010008B5838940F2E933A6
:10A9C00000E0A3B10289013B12F0020F9BB2F8D064
:10A9D00089B2818140F2E93300E043B10289013B51
:10A9E00012F0010F9BB2F8D08089C0B208BD16F0FA
:10A9F000E1FDC0B208BD00BFF8B584894FF6FF760F
:10AA00004FF47A7433B319B30F78013101E0B442D3
:10AA100018D00589013CAD07A4B2F8D5BCB2848139
:10AA20004FF47A7402E0BCB2B4420BD00589ED0752
:10AA300004F1FF37F7D58589ADB20AB1157001323F
:10AA4000013BDFE716F0B6FD003018BF0120F8BD6E
:10AA5000FF27DEE70120F8BDF0B5076A83B00646A0
:10AA600017B13B68BA885A837069DFF8A8E0838918
:10AA7000C3244FF47A734FF0060C6D464FF6FF7106
:10AA80000EF1010E03E0013B9BB28B4220D0028904
:10AA90009207F8D5A3B283814FF47A7302E0A3B290
:10AAA0008B4215D00289D20703F1FF34F7D5828992
:10AAB00092B20DB12A700135BCF1000F0BD00CF130
:10AAC000FF3CFF24BEF1000FE1D09EF80040D7E725
:10AAD00016F070FD376A17B13B68BA881A839DF883
:10AAE00005009DF801509DF802109DF803409DF867
:10AAF00004209DF8063041EA052143EA002342EA9A
:10AB000004220120A6F85810A6F85A20A6F85C30B6
:10AB100003B0F0BDCC180508037B022B01D0002048
:10AB20007047F0B5038B026983B03BB14169CC89B2
:10AB30009C4203D01380CB8100BF0269C36913B16B
:10AB400019689B884B839389044640F2E93301E0FE
:10AB5000002B5ED01189013B11F0020F9BB2F7D0A0
:10AB6000BB23938140F2E93301E0002B51D01189DE
:10AB7000013B11F0010F9BB2F7D0938993891389A0
:10AB800098074FF005076E464FF47A714FF0FF0CAF
:10AB90004FF6FF7506D44B1E9BB2D1B119461389EF
:10ABA0009807F8D5A2F80CC04FF47A7302E083B28C
:10ABB000AB420ED01189C90703F1FF30F7D5918957
:10ABC00089B20EB131700136791E2FB10F46194688
:10ABD000E5E7104616F0EEFCE36913B11A689B88AE
:10ABE00013839DF804009DF800609DF801109DF806
:10ABF00002509DF803209DF8053041EA062143EA02
:10AC0000002342EA052201206184A284E38403B088
:10AC1000F0BD104616F0CEFC2269AFE72DE9F04FEB
:10AC200087B0A94A02904068038823F040031B04C0
:10AC30001B0C0380038823F038031B0490424FEA67
:10AC4000134300F03F8102F5806290420CBF302236
:10AC5000382213430380029B02881B6942F04002A2
:10AC6000028013B11A689B885383838940F2E933C9
:10AC700002E0002B00F090810289013B12F0020FEC
:10AC80009BB2F6D06B23838140F2E93302E0002BC4
:10AC900000F082810289013B12F0010F9BB2F6D0D5
:10ACA0008389838940F2E93302E0002B00F071814F
:10ACB0000289013B12F0020F9BB2F6D08023838100
:10ACC00040F2E93302E0002B00F063810289013B8E
:10ACD00012F0010F9BB2F6D08389029B1B6913B15E
:10ACE0001A689B8813830623784CDFF8EC81DFF821
:10ACF000ECA1774D774E04939623DFF8E4C10193DE
:10AD00004FF0100EDAF80430C3F30803002B40F0C4
:10AD1000B280EFF31183002B40F0AD802068AA6869
:10AD200023689842FAD133689A42F7D8D8F800706D
:10AD30004FF47A7101FB07F39B1AB3FBF7F301FBA6
:10AD400000304FF47A774FF00109DAF80430C3F39A
:10AD50000803002B70D1EFF31183002B6CD1236813
:10AD6000A96822689342FAD132689142F7D8D8F89C
:10AD7000002007FB02FBABEB0101B1FBF2F107FB8B
:10AD800003131B1AB3F57A7FDFD3019B013B0193B9
:10AD9000B8D1029B1B6913B11A689B885383029B2D
:10ADA000586840F2E933828902E0002B00F0858088
:10ADB0000289013B12F0020F9BB2F6D0F52383818A
:10ADC00040F2E93301E0002B77D00289013B12F019
:10ADD000010F9BB2F7D08389838940F2E93301E008
:10ADE000002B67D00289013B12F0020F9BB2F7D013
:10ADF000FF23838140F2E93301E0002B5AD002891E
:10AE0000013B12F0010F9BB2F7D08389DBB20393B1
:10AE1000029B1A6912B1136891881983039B682BEE
:10AE200060D0049B013B13F0FF0304937FF464AFF5
:10AE3000184607B0BDE8F08FEFF311818EF312884A
:10AE4000D5F808B02B68DB0344BFCCF80090D5F8E8
:10AE500008B02368DCF80020C9B281F31188D8F863
:10AE60000010134407FB01F2A2EB0B02B2FBF1F25C
:10AE700007FB032385E7EFF311838EF31288AF6896
:10AE80002A68D20303D50122CCF80020AF682068DD
:10AE9000DCF80090DBB283F31188D8F800104FF48F
:10AEA0007A72484402FB01F3DB1BB3FBF1F302FBB4
:10AEB000003046E716F07EFBAAE716F07BFB029B0C
:10AEC000586889E73022C4E60038004050A60020C8
:10AED00010E000E058A6002054A6002000ED00E09D
:10AEE0004CA6002012B1136892885A83029B5868BE
:10AEF00040F2E933828901E0002B45D00289013B11
:10AF000012F0020F9BB2F7D08C23838140F2E93319
:10AF100001E0002B38D00289013B12F0010F9BB2F7
:10AF2000F7D08389838940F2E9330289013B12F02B
:10AF3000020F9BB215D1002BF7D116F03BFB029B01
:10AF40001B6913B11A689B881383059B142B04D3C8
:10AF5000182B17D9543B062B14D9002007B0BDE895
:10AF6000F08FFF23838140F2E93301E0002BE4D02E
:10AF70000289013B12F0010F9BB2F7D08389DBB24B
:10AF80000593DCE7032054E716F014FB029B586896
:10AF9000C8E716F00FFBA0E616F00CFB029B586802
:10AFA0007FE600BF08B5012025F016FF174A936819
:10AFB00003F00C03042B1ED0082B18D151685368E2
:10AFC000490203F03F0319D452681148B0FBF3F073
:10AFD000C2F3881300FB03F00C4B0E4A5B68C3F30B
:10AFE000014301335B00B0FBF3F0106008BD094B77
:10AFF000074A1A6008BD074B186008BDB0FBF3F0A4
:10B000005368C3F3881300FB03F0E5E70038024000
:10B010000024F40030C60020037C02681F2B86BF8A
:10B02000203B51681168202202FA03F30B4214BF3F
:10B030000123002303B970472DE9F0474569DFF884
:10B0400058A12D02044611F009FC0AEB05038046C5
:10B050001A7C002A34D14B495A680978D2F80090FA
:10B06000C9B9D16858890A6822F001020A60B9F8A2
:10B070000C3023EA0003A9F80C30434B1B78002B5B
:10B0800031D1237C21681F2B13D8202202FA03F32D
:10B090008B60BDE8F0879269136823F001031360A9
:10B0A000B9F80C3023F480731B041B0CA9F80C3086
:10B0B000E3E7203B202202FA03F3CB60BDE8F087F0
:10B0C0005A6832481568D6685F8901225A74316817
:10B0D000036821F001013160AA89013322EA0702E5
:10B0E000AA810360CDE70AEB05062835776F38465D
:10B0F00025F00AFE01230AEB05014846337425F0CA
:10B100008BFED6E91202736B316D3D680343134326
:10B11000D6E915200B431343F16DB26E03430B4385
:10B120001B48F16E134328400B4303430022326453
:10B130003B60D6E918317A69756CB06B22F0070272
:10B140000B431343F26B7B617D60B860FA603B6830
:10B150007268706FD16896F87050126843F01003EF
:10B160003B6045600B6843F001030B609389718974
:10B170000B43938111F072FB064BA0EB08001860A3
:10B180007FE700BF61C6002060C60020C8DC002049
:10B190003F801CF0D0DC00201CA700208A4B1B78CD
:10B1A000002B00F09880002800F095802DE9F04FEA
:10B1B000431E85B0854C0190032B4FF00006A8BFBD
:10B1C0000323A4F114070393B0464FEA062A07EBC2
:10B1D0000A03256E5B7C002B7ED06A6892B2002A3F
:10B1E00065D114F8050CD4E91B13002800F0AA84DB
:10B1F000603377485B1AA0FB0351890901EB4101D9
:10B20000A3EB4113182B00F17785173BA0FB032319
:10B21000DB0003F0F003D4E91D126D486032521ACE
:10B22000A0FB0251890901EB4101A2EB4112182A4E
:10B2300005D4173AA0FB0212C2F343021343D4E928
:10B240001F1263486032521AA0FB0251890901EBB8
:10B250004101A2EB4112182A5EBF173AA0FB02126D
:10B26000C2F34305D4E92112594802F16002A2EB6E
:10B270000102A0FB02C14FEA911101EB4101A2EBD7
:10B28000411248BF0025182A58BF173A45EA03154E
:10B290005ABFA0FB0223C3F34303002343EA051371
:10B2A00083EA132282EA1212100700F00C85494A41
:10B2B00013680133136026B980224749474844F098
:10B2C00051FE07EB0A0383F8118054F8109C256E99
:10B2D000D9F800B00CE0704754F8109C34F80A1C00
:10B2E000D9F800B0BBF80C2022EA0102ABF80C2020
:10B2F0002A683B4B22F0010221219D422A60C5F8B9
:10B300000080C5F80480C5F80880C5F80C80C5F831
:10B31000108069611FD0334B9D4200F03783324B60
:10B320009D4200F03D83314B9D4200F0DF84304B65
:10B330009D4200F002852F4A954200F003852E4A77
:10B34000954200F07E852D4A954200F0EC84284617
:10B3500025F04AFC02E02A4A3D219160BA448AF86D
:10B36000108099F805100C2916D8DFE811F0440177
:10B370001500150015004D011500150015003B01C5
:10B380001500150015000D00BBF81C2022F400620A
:10B390001204120CABF81C20224658460FF0DEFEB9
:10B3A00099F805300C2B37D8DFE813F0060136008A
:10B3B000360036001101360036003600FB0036003C
:10B3C000360036002C0000BF60C6002030A70020E9
:10B3D000ABAAAAAACCDC00209CA70020D4DC0020C9
:10B3E0001060024028600240406002405860024005
:10B3F0007060024088600240A0600240B860024075
:10B4000000600240BBF81C3023F400631B041B0CDB
:10B4100043F40063ABF81C30D4E90D12236AE06BEF
:10B4200043F040030B431343226CB14903431343DE
:10B43000626C13434022E262A26C28681343A26D3F
:10B440000292626D1343029A014013430B432B6037
:10B45000D4E913316A69206B22F007020B431343CE
:10B46000D4E909126B616860A960EA602B6843F057
:10B4700010032B60039B01369E4204F580747FF716
:10B48000A4AE019B9E4280F2CC814FEA062A0AF1CB
:10B4900014043C444FF0000807EB0A03256E5B7C64
:10B4A000002B00F0BA806A6892B2002A65D114F8C5
:10B4B000050CD4E91B13002800F07C8260338D4812
:10B4C0005B1AA0FB0351890901EB4101A3EB411376
:10B4D000182B00F11484173BA0FB0323DB0003F0BF
:10B4E000F003D4E91D1283486032521AA0FB0251C6
:10B4F000890901EB4101A2EB4112182A05D4173A40
:10B50000A0FB0212C2F343021343D4E91F1279488D
:10B510006032521AA0FB0251890901EB4101A2EBF2
:10B520004112182A5EBF173AA0FB0212C2F343056C
:10B53000D4E921126F4802F16002A2EB0102A0FBE4
:10B5400002C14FEA911101EB4101A2EB411248BF48
:10B550000025182A58BF173A45EA03155ABFA0FB21
:10B560000223C3F34303002343EA051383EA1322B0
:10B5700082EA1212120700F0E0825F4A1368013378
:10B58000136026B980225D495D4844F0EBFC07EB6F
:10B590000A0383F8118054F8109C256ED9F800B086
:10B5A00047E0BBF81C3023F008031B041B0C43F0DE
:10B5B0000803ABF81C302FE7BBF8183023F0080362
:10B5C0001B041B0C43F00803ABF8183024E7BBF84E
:10B5D000183023F400631B041B0C43F40063ABF826
:10B5E000183019E7BBF81C2022F008021204120CD4
:10B5F000ABF81C20D0E6BBF8182022F00802120499
:10B60000120CABF81820C7E6BBF8182022F4006231
:10B610001204120CABF81820BEE654F8109C34F853
:10B620000A1CD9F800B0BBF80C2022EA0102ABF8E2
:10B630000C202A68334B22F0010221219D422A600E
:10B64000C5F80080C5F80480C5F80880C5F80C80EE
:10B65000C5F8108069611FD02B4B9D4200F091818D
:10B660002A4B9D4200F09781294B9D4200F039837F
:10B67000284B9D4200F05D83274A954200F0678386
:10B68000264A954200F0E283254A954200F046831F
:10B69000284625F0A9FA02E0224A3D219160BA44E9
:10B6A0008AF8108099F805100C2910D8DFE801F00D
:10B6B000A70F0F0F9E0F0F0FB00F0F0F0700BBF854
:10B6C0001C2022F400621204120CABF81C2022464B
:10B6D00058460FF043FD99F805300C2B2ED8DFE8C3
:10B6E00003F06F2D2D2D7A2D2D2D642D2D2D230062
:10B6F0003F801CF0ABAAAAAACCDC00209CA70020AB
:10B70000D4DC00201060024028600240406002400B
:10B71000586002407060024088600240A0600240B1
:10B72000B860024000600240BBF81C3023F40063A4
:10B730001B041B0C43F40063ABF81C30D4E90D125E
:10B74000236AE06B43F040030B431343226C974999
:10B7500003431343626C13434022E262A26C2868E5
:10B760001343A26D0292626D1343029A0140134388
:10B770000B432B60D4E913316A69206B22F0070276
:10B780000B431343D4E909126B616860A960EA6056
:10B790002B6843F010032B60019B0136B34204F584
:10B7A00080743ED04FEA062A76E6BBF81C3023F0C0
:10B7B00008031B041B0C43F00803ABF81C30BDE767
:10B7C000BBF8183023F008031B041B0C43F00803DC
:10B7D000ABF81830B2E7BBF8183023F400631B0451
:10B7E0001B0C43F40063ABF81830A7E7BBF8182034
:10B7F00022F400621204120CABF8182067E7BBF8C1
:10B80000182022F008021204120CABF818205EE790
:10B81000BBF81C2022F008021204120CABF81C200A
:10B8200055E77A68787B13685179800754BF012205
:10B8300004228A40198C92B221EA02011984198CDF
:10B840000A431A84019B012B00F09880D7F8042149
:10B8500097F80D0113685179820754BF0122042221
:10B860008A40198C92B221EA02011984198C0A4388
:10B870001A84019B022B00F08180D7F8042297F8EC
:10B880000D0213685179860754BF012204228A40B1
:10B89000198C92B221EA02011984198C0A431A8484
:10B8A000019B032B6AD0D7F8042397F80D03136884
:10B8B0005179850754BF012204228A40198C92B223
:10B8C00021EA02011984198C0A431A84019B042B72
:10B8D00054D0D7F8042497F80D14136850798C07C6
:10B8E00054BF01220422198C824092B221EA020143
:10B8F0001984198C0A431A84019B052B3ED0D7F872
:10B90000042597F80D0513685179800754BF01226B
:10B9100004228A40198C92B221EA02011984198CFE
:10B920000A431A84019B062B28D0D7F8042697F8DF
:10B930000D1613685079890754BF01220422198C0F
:10B94000824092B221EA02011984198C0A431A84B6
:10B95000019B072B12D0D7F8042797F80D0713681F
:10B96000517982074CBF042201228A40198C92B27D
:10B9700021EA02011984198C0A431A8405B0BDE832
:10B98000F08F0B4A4FF47461916088E6084A4FF4D7
:10B9900074619160E2E4064A4FF4741191607EE6AE
:10B9A000034A4FF474119160D8E400BF3F801CF04B
:10B9B000006002405B1A002B40F3AA810A2BD4BF1F
:10B9C00000230123D4E91D12521A002A4FEA43032F
:10B9D00040F3FB810A2A01DD43F00103D4E91F1281
:10B9E000521A002A4FEA430340F3F7810A2A01DD85
:10B9F00043F00103D4E92112521A002A4FEA43030B
:10BA000040F3E7810A2A01DD43F00103D4E9231260
:10BA1000521A002A4FEA430340F3CF810A2A01DD7C
:10BA200043F00103D4E92512521A002A4FEA4303D6
:10BA300040F3BF810A2A01DD43F00103D4E9271254
:10BA4000521A002A4FEA430340F3AF810A2A01DD6C
:10BA500043F00103D4E92912521A002A4FEA4303A2
:10BA600040F39F810A2A01DD43F00103D4E92B1240
:10BA7000521A002A4FEA430340F38F810A2A01DD5C
:10BA800043F00103D4E92D12521A002A4FEA43036E
:10BA900040F37F810A2A01DD43F00103D4E92F122C
:10BAA000521A002A4FEA430340F36F810A2A01DD4C
:10BAB00043F00103D4E93112521A002A4FEA43033A
:10BAC00040F35F810A2A01DD43F00103D4E9331218
:10BAD000521A002A4FEA430340F34F810A2A01DD3C
:10BAE00043F00103D4E93512521A002A4FEA430306
:10BAF00040F33F810A2A01DD43F00103D4E9371204
:10BB0000521A002A4FEA430340F32F810A2A01DD2B
:10BB100043F00103D4E93912521A002A4FEA4303D1
:10BB200040F31F810A2A01DD43F0010383EA132257
:10BB300082EA121215077FF420ADC3F30F1324F825
:10BB4000023C24E55B1A002B40F3DC800A2BD4BFB7
:10BB500000230123D4E91D12521A002A4FEA43039D
:10BB600040F32F810A2A01DD43F00103D4E91F12BB
:10BB7000521A002A4FEA430340F35F810A2A01DD8B
:10BB800043F00103D4E92112521A002A4FEA430379
:10BB900040F34F810A2A01DD43F00103D4E9231267
:10BBA000521A002A4FEA430340F33F810A2A01DD7B
:10BBB00043F00103D4E92512521A002A4FEA430345
:10BBC00040F32F810A2A01DD43F00103D4E9271253
:10BBD000521A002A4FEA430340F31F810A2A01DD6B
:10BBE00043F00103D4E92912521A002A4FEA430311
:10BBF00040F30F810A2A01DD43F00103D4E92B123F
:10BC0000521A002A4FEA430340F3FF800A2A01DD5B
:10BC100043F00103D4E92D12521A002A4FEA4303DC
:10BC200040F3EF800A2A01DD43F00103D4E92F122B
:10BC3000521A002A4FEA430340F3DF800A2A01DD4B
:10BC400043F00103D4E93112521A002A4FEA4303A8
:10BC500040F3CF800A2A01DD43F00103D4E9331217
:10BC6000521A002A4FEA430340F3BF800A2A01DD3B
:10BC700043F00103D4E93512521A002A4FEA430374
:10BC800040F3AF800A2A01DD43F00103D4E9371203
:10BC9000521A002A4FEA430360DD0A2A01DD43F00D
:10BCA0000103D4E93912521A002A4FEA430352DD44
:10BCB0000A2A01DD43F0010383EA132282EA121209
:10BCC00011077FF4F4AA634A1278C3F30F132F2AE3
:10BCD00024F8023C7FF4F5AA5F4A22F81630FFF7F9
:10BCE000F0BA5E4A4FF074619160D8E45B4A4FF05D
:10BCF00074619160FFF732BB1346FFF78CBA1346AD
:10BD0000FFF7EFBB13F1090FB4BF0023012321E7B5
:10BD100013F1090FB4BF0023012353E64FF03D5147
:10BD200042F8AC1CBBE44FF03D5142F8AC1CFFF7AD
:10BD300015BB4A4A4A49D160B1E4484A4849D160F2
:10BD4000FFF70CBB474942F87C1CFFF707BB45498E
:10BD500042F87C1CA3E40932AEDBABE70932A0DB7E
:10BD60009DE70932FFF6E2AEDEE60932FFF6D2AE1B
:10BD7000CEE60932FFF6C2AEBEE60932FFF6B2AE3B
:10BD8000AEE60932FFF6A2AE9EE60932FFF692AEAB
:10BD90008EE60932FFF682AE7EE60932FFF672AE1B
:10BDA0006EE60932FFF662AE5EE60932FFF652AE8B
:10BDB0004EE60932FFF642AE3EE60932FFF632AEFB
:10BDC0002EE60932FFF6D2AECEE60932FFF606AE17
:10BDD00002E60932FFF61AAE16E60932FFF60AAE9F
:10BDE00006E60932FFF652AF4EE70932FFF642AFE0
:10BDF0003EE70932FFF632AF2EE70932FFF622AFF7
:10BE00001EE70932FFF612AF0EE70932FFF602AF66
:10BE1000FEE60932FFF6F2AEEEE60932FFF6E2AEDA
:10BE2000DEE60932FFF6D2AECEE60932FFF6C2AE4A
:10BE3000BEE60932FFF6B2AEAEE60932FFF6A2AEBA
:10BE40009EE6094942F8941CFFF788BA064942F871
:10BE5000941C24E478A400207CA40020006002400C
:10BE60003D000020400F002000003D20024B014615
:10BE7000186815F049BD00BF4442002038B5064D92
:10BE8000441E14F8011F286819B9BDE8384015F0A0
