:020000040800F2
:1000000000000120AD6105082D620508C56B0308DD
:10001000296C03082D6205082D6205080000000008
:100020000000000000000000000000002D62050834
:100030002D620508000000002D620508756C03089C
:100040002D6205082D6205082D6205082D62050840
:100050002D6205082D62050801C404082DC5040899
:10006000F1C40408B5C4040879C404087D19010862
:100070006D1901085D1901084D19010839190108A8
:1000800025190108111901082D6205082D620508BE
:100090002D6205082D6205082D6205083DC404087F
:1000A0002D62050881F600082D62050871F600082A
:1000B0002D62050861F6000851F60008111B0108C1
:1000C000351B0108511A0108751A01082D6205082F
:1000D0002D6205088DF2000881F2000875F2000813
:1000E000C5C304082D6205082D6205082D620508A8
:1000F0003DF600082D6205082DF60008FD180108E0
:100100002D6205082D62050841F600082D620508DC
:1001100069F200082D6205082D6205088BF60108BA
:10012000E9180108D5180108C1180108AD1801081F
:100130009918010800000000000000000000000005
:10014000000000000000000000000000CB000208DA
:1001500085180108711801085D1801082D6205084D
:100160008D190108B51901082D6205082D620508D1
:100170002D6205082D620508000000000000000047
:100180002D6205082D6205082D6205082D620508FF
:100190002D6205082D620508000000002D6205088B
:1001A0000000000000000000000000002D620508B3
:1001B0002D6205082D620508000000000000000007
:1001C000000000000000000000000000000000002F
:1001D0000000000000000000000000002D62050883
:0801E000FC5C050001000000B9
:1001E80010020100901F01208C1F01200000000058
:1001F800B00700081F021000AC1F01209C1F01203F
:1002080000000000ED830008F6210C00244A0120BC
:10021800784A012000000000B407000820320A00D4
:10022800D44A0120C84A012000000000952A01088C
:100238001C021000C0450120E04A01200000000017
:10024800F5820008281010000C490120F04A01200E
:1002580000000000052C010801200800BC41012015
:10026800004B012000000000C00700080A702800A9
:1002780038410120084B012000000000AD2B010887
:100288000EA07401C43F0120304B01200000000083
:10029800D975020801010400283F0120A44C01205F
:1002A800000000000000000000010400203F0120C1
:1002B800A84C012000000000C80700080201030044
:1002C8001C3F0120AC4C012000000000B1250208B1
:1002D80003010A002C5D0120385D012000000000A8
:1002E800CC07000807020200E864012060650120CD
:1002F80000000000D6070008031233000C65012037
:100308006465012000000000D807000802000C0006
:10031800B46401209865012000000000000000007E
:1003280006021000A4640120A4650120000000005A
:10033800AD8C0008F701060098640120B46501201F
:10034800000000000C0800081D020200946401204F
:10035800BC65012000000000120800080A020A001B
:1003680098630120C065012000000000B12C02083C
:100378000300010048640120CC6501200000000052
:100388000000000010100200F86E0120506F0120DC
:10039800000000001408000825102C01FC6C012046
:1003A800546F012000000000000000001900050043
:1003B800986C0120807001200000000016080008D9
:1003C8001A000E00606B01208870012000000000F8
:1003D8001C080008F8210600546A012098700120C2
:1003E800000000002A08000815007000606901205C
:1003F800A070012000000000000000002A0060003A
:10040800D46B01201071012000000000B1750208B2
:100418002C00100080710120707101200000000084
:10042800517202082B002400B47101209071012040
:10043800000000002172020829207800506701207E
:10044800D871012000000000000000001A023C00E2
:10045800487301201C760120000000001D8C000854
:100468002700040044730120587601200000000092
:100478003008000816100600A8780120188301200B
:1004880000000000340800082F102200F482012028
:1004980020830120000000003A080008F551880078
:1004A800E07701204483012000000000E57604087D
:1004B80026100C00D8830120CC8301200000000006
:1004C8008199030814000300447F0120108401204F
:1004D800000000005C0800080B301800907701202D
:1004E8001484012000000000600800081F30240068
:1004F800A87701202C84012000000000780800085B
:1005080005020400587A01205084012000000000F0
:100518009C08000809020100E48F01209490012042
:1005280000000000A008000822021401B48D012078
:100538009890012000000000558E00080C109C00C7
:10054800E48B0120AC910120000000007525020811
:1005580001020500C88B012048920120000000001C
:10056800F93B040800020500C08B012050920120CD
:1005780000000000000000001B0208009C8B012006
:100588005892012000000000218300081E00060088
:10059800088901206092012000000000A2080008DC
:1005A8001B100C00888601206892012000000000C2
:1005B800174004082102F0000885012074920120E8
:1005C80000000000793F040805100600448D012052
:1005D8006493012000000000A808000837102400D8
:1005E800388B01206C93012000000000AE08000841
:1005F8000E0202002C8D01209093012000000000C3
:10060800D208000823100E0054BD0120D8BE0120D6
:1006180000000000272C01080D003C00D4BC01207C
:10062800E8BE01200000000031F00308040080004B
:10063800F4AF012024BF01200000000000000000EA
:1006480013000400D4AF0120A4BF01200000000063
:10065800D4080008FD012400B0AF0120A8BF012084
:10066800000000005D1E030818202E007CAF01204A
:10067800CCBF012000000000B58D000806101A004C
:1006880060AF0120FCBF0120000000003D76020899
:10069800FB0101005CAF012018C001200000000030
:1006A800258E0008FC01090028AE01201CC001208D
:1006B80000000000358E00083400100054AD012001
:1006C80028C00120000000000D7602081102080071
:1006D8002CAD012038C0012000000000D808000817
:1006E8001212040024AD012040C0012000000000C7
:1006F800E00800081220100014AD012044C00120B9
:1007080000000000E4080008FF110600DCA1012039
:1007180054C0012000000000D18300080812140012
:10072800E8A101205CC00120000000005D830008F2
:10073800F9010400D8A1012070C0012000000000C8
:100748002D97040813020400D4A1012074C00120CD
:1007580000000000F4080008FA0102007C9F012054
:1007680078C00120000000006D8400080202030028
:10077800449801207CC00120000000000000000017
:100788000C0204003098012080C001200000000005
:10079800B9830008FE011400689A012084C0012072
:0807A800000000002D83000891
:1007B0000000000000000000010000000202000034
:1007C000E8036400040A000165FDC4090401010096
:1007D0006C1600000000013C00000000000000005A
:1007E0000000000000000000000000000000000009
:1007F00000000000000000000000000000000000F9
:100800000000000000000000000001003D010000A9
:100810000000000000050000280100007E05EA0538
:10082000B4053200E803D00700000401F40114000D
:1008300020030000C40900001900000000000000AF
:1008400000000000000000000000000000000000A8
:100850000000000000000000000000000300000095
:10086000AE014A015E012C0164000200000001009B
:100870000A019A01001E0A000000000000010000A9
:10088000000500000102030000000000000000005D
:1008900000000000000000000080070000000000D1
:1008A00018000000010000002000020100002000EC
:1008B0003200C800D0079600140032002800B004AF
:1008C00040060005500014000F00080064000100FD
:1008D000010000001800403000000000010101018B
:1008E000FFFFFFFF00000001000005414646370002
:0808F0000008000000000100F7
:1008F80061CB010809C90108590E0208000000006F
:10090800000000005900020855FF0108000000001F
:10091800000000000000000061BB010855BB010891
:1009280049BB01083DBB01087D9400086594000897
:10093800559400084984000805940008AD93000800
:1009480039840008E400012099FD0008518400085A
:100958004D84000845840008A18E000841840008E1
:100968003D840008F8820508FF01FF000068214C5B
:100978001F0000001C0000001F0000001E000000F7
:100988001F0000001E0000001F0000001F000000E4
:100998001E0000001F0000001E0000001F000000D5
:1009A8000000000004010000000700000000000033
:1009B800000000000002000010000000000000001D
:1009C8000000000007000000B00100000200000065
:1009D80009000000008002021F00000053544D204F
:1009E8002020202050726F64757420202020202041
:1009F80020202020302E303101000000252201085F
:100A080000000000948D050820700020702D7200F1
:100A1800FFFFFFFFD60101010100000000010101F5
:100A2800002D202D2D202D2D2D2D202D2D2D00009C
:100A380000000000000000000000000000000000AE
:100A4800000000000000000024A4050800000000C9
:100A580000000000B0A4050801000000FA00000032
:100A68000100000001000000010100008E4101208A
:100A780000C801008D410120005001008C41012077
:100A8800005A01008A41012002000000AC930508C9
:100A980060F3050868F3050882BD01200100C40958
:100AA8000000000080BD01200100C4090000000012
:100AB8007EBD01200100C409000000007CBD0120AA
:100AC8000100C4090000000078BD01200100C4092C
:100AD800000000007ABD01200100C40900000000E8
:100AE80076BD01200100C4090000000074BD01208A
:100AF8000100C409000000003E3F01200100C800B9
:100B0800010000003C3F0120320030753200000037
:100B18003A3F0120055A0500373F012000FF010038
:100B2800393F012001000000A0010120353F0120CC
:100B380002000000E0BF0508363F012000FF010069
:100B4800383F012001000000A0010120343F0120AE
:100B580002000000E0BF0508C8410120EE02CA08F3
:100B680001000000C641012000C801006400000027
:100B7800C541012000C8010064000000C4410120F3
:100B880002000000B89305082E3F012080C1803E76
:100B9800050000002C3F012080C1803E05000000B8
:100BA800263F012080C1803E05000000243F01202F
:100BB80080C1803E050000001F3F012000FF0100AA
:100BC800183F01206400F40101000000173F0120D4
:100BD80004000000C4930508163F0120020000002D
:100BE800D8930508B33F01200D000000E4930508E1
:100BF800B03F012000640100AE3F01203200102701
:100C08000A000000AD3F01200D000000E493050834
:100C1800AC3F01200D000000E4930508AB3F012024
:100C2800020000001C9405080000000000000000FD
:100C380028940508107A01209CFF2C010000000070
:100C4800FE440120E0150C170000000000450120BB
:100C58000200000060940508D44101200100FF7FD4
:100C680001000000D3410120020000006C94050837
:100C7800B53F0120030000007C940508B43F012023
:100C8800030000007C9405086C4101200000E80383
:100C9800010000006A4101200000E8030100000093
:100CA800684101200000E8030100000066410120BE
:100CB8000000E80301000000644101200000E8038F
:100CC80001000000624101200000E803010000006B
:100CD800614101200014010060410120030000006F
:100CE8008C940508784101200000F40101000000FF
:100CF800764101200000F401010000007441012048
:100D08000000F40101000000724101200000F4011C
:100D180001000000704101200000803E0100000039
:100D28006E4101200000803E01000000A141012029
:100D380019640100A0410120020000009C940508EC
:100D48009E410120E803D0070A0000009C410120D1
:100D5800006401000A0000009141012000640100C4
:100D680090410120006401009841012000640100C5
:100D78000A00000097410120006401000A000000F9
:100D880096410120006401000A0000009B410120F7
:100D9800006401000A0000009A410120006401007B
:100DA8000A00000099410120006401000A000000C7
:100DB8009541012001FF01000A0000009441012033
:100DC80001FF01000A0000009341012001FF01001A
:100DD8000A000000BE3F01200000F40101000000ED
:100DE800BC3F01200000F40101000000BA3F0120CF
:100DF8000000F40101000000B83F01200000F401E8
:100E080001000000B63F01200000F40101000000CD
:100E1800894101200064010088410120006401002B
:100E2800874101200064010086410120FF0801007C
:100E3800854101200164010005280108C92701082E
:100E4800A894050884410120006401008241012022
:100E58001400E8030100000080410120E803307518
:100E68000A0000007E41012000C801007D410120E8
:100E780000C801007C41012000C801007B4101201D
:100E8800006401000A000000B84101200000D007FA
:100E980001000000B341012000C80100B241012057
:100EA80000C80100B141012000C80100B64101207D
:100EB8000000D00701000000B041012000C8010077
:100EC800AF41012000C80100AE41012000C8010067
:100ED800B44101200000D00701000000AD4101200D
:100EE80000C80100AC41012000C80100AB4101204D
:100EF80000C8010000000000392501081895050800
:100F0800A93F012031000000B4950508A83F012041
:100F180000C80100A63F0120E803D0070100000037
:100F2800414C49454E464C494748544E4746370080
:100F3800333F012000030100323F0120000301007C
:100F480099240108712401087C9605082D240108BC
:100F5800E1230108D0960508C1240108C54A010803
:100F680050970508303F0120010301006929010855
:100F78003D290108449A0508712301083123010815
:100F8800A89A05084F250108E14A0108449B05086D
:100F9800C946010800000000EC9B0508294F01081C
:100FA800C9290108889C0508A1250108000000003E
:100FB800089D050879260108252601086C9D050865
:100FC80009270108CD260108089E050841280108BF
:100FD80089280108889E05088F4101200106010023
:100FE800E9250108B5250108849F0508452701085A
:100FF800A14B0108F49F0508BD280108254C0108EC
:10100800D4A005087A41012001030100092501083F
:10101800D9240108A8A105089529010800000000A5
:101028000CA20508B1230108954A010870A2050819
:101038000000000000000000FCA2050815290108B6
:101048009D4C01087CA30508123F012088136F17E7
:1010580001000000143F012088136F1700000000F2
:10106800C6BD01200000000000000000C4BD012032
:101078000000000000000000C2BD012000000000C8
:1010880000000000C0BD01200000000000000000BA
:10109800BEBD01200000000000000000BCBD012012
:1010A8000000000000000000980C01200000000073
:1010B80000000000E83E01200200000004A5050829
:1010C800103F012088136F1701000000507A01209B
:1010D80088136F1700000000C522010800000000F7
:1010E80010A50508324501200100000064A5050887
:1010F800527A01200100000070A50508487A0120F5
:101108000200000078A505080000000000000000AB
:1011180084A50508B12201080000000020A60508E2
:10112800000000000000000074A605080000000090
:1011380000000000E4A605084C7A0120E0150C1711
:101148000000000000C20100000008001A030000AF
:101158000000000000000000000000000000000087
:101168000000000000000000040309040A06000251
:10117800000000400100000009072000010104C030
:1011880032090400000208065005070581024000E4
:10119800000705010240000009022000010104C007
:1011A80032090400000208065005070581024000C4
:1011B800000705010240000009022000010104C0E7
:1011C80032090400000208065005070581020002E2
:1011D80000070501020002000A06000200000040A4
:1011E8000100000009026400030100C03209040084
:1011F8000001030000000921110100012226000757
:1012080005830308000A080B010202020100090411
:10121800010001020201000524001001052401005B
:1012280002042402020524060102070582030800BD
:10123800FF09040200020A0000000705010240003D
:101248000007058102400000F7CB010853C90108D7
:101258005D1002080000000091BC0108EFBC010805
:10126800BDBC0108000000000000000000000000F4
:1012780079BC010885BC01086DBC010861BC010886
:101288000A060002000000400100000009022200D6
:10129800010100E0320904000001030102000921F4
:1012A800110100012226000705830308000A000037
:1012B8000A06000200000040010000000907430080
:1012C800020104C0320904000001020201000524E1
:1012D800001001052401000104240202052406006F
:1012E80001070582030800FF09040100020A000043
:1012F80000070501024000000705810240000000C8
:1013080009024300020100C0320904000001020280
:101318000100052400100105240100010424020233
:1013280005240600010705820308001009040100CE
:10133800020A0000000705010200020007058102F9
:101348000002000009024300020100C03209040043
:10135800000102020100052400100105240100011A
:101368000424020205240600010705820308001070
:1013780009040100020A00000007050102400000FC
:10138800070581024000000058A70508000000007A
:101398000000000000000000000000000000000045
:1013A8000000000000000000000000000000000035
:1013B800120100020000004083042A5700020102C3
:1013C800030100001201000202000040830440579C
:1013D800000201020301000012010002EF020140B5
:1013E80083045632000201020301000005010905C9
:1013F800A101A10005010930093109320933093574
:101408000934094009381581257F75089508810236
:10141800C0C00000092111010001222600000000BF
:1014280000000000506501200800000000000000D6
:101438004065012008000000280C0608340C060846
:10144800400C06084C0C0608580C0608640C0608E4
:10145800DC0106085435060838340608C40B0608AB
:10146800485D0608180C06081C0C0608200C06081F
:10147800240C0608700C0608740C0608780C06087C
:10148800B03206087C0C06081900C800F4012003D5
:10149800FFFFFFFF0000803F000000000000000089
:1014A800000000000000803F000000000000000075
:1014B8000000000000000000000000000000000024
:1014C8000000000000000000000000000000803F55
:1014D8000000000000000000000000000100000003
:1014E800FFFFFFFF0000803F000000000000000039
:1014F800000000000000803F685E0C00FF01000053
:10150800A00F0000B80B00000102FFFF010000005F
:1015180000FFFF0000000000AA55050100000101BE
:10152800D4B805080000000000000000000000001A
:1015380000000000000000000000000000000000A3
:101548000000000000000000FF1FFF1F2D202D2DB0
:10155800202D2D2D2D202D2D2D2D000000000000DB
:101568000000000000000000000000AA550B010068
:1015780000AA5507010000AA550902000000AA5553
:1015880003009F0001000000C0120000E483012056
:1015980000000000088401200000000011C60108B6
:1015A80025BA0108AFC50108EDC50108DDB9010874
:1015B800D9C50108C5C501081DBC0108FDBB010846
:1015C800B9BB010800000000ADBB010899BB0108C8
:1015D80085BB0108000000000000000000000000BA
:1015E8000000000079BB0108000000006DBB010885
:1015F80051F20108B5B8010835B801081DB801084D
:1016080000000100E0010000FFFFFFFF0801FFFFED
:10161800FF000000FFFF0000FFFFFFFF845B0608DC
:1016280000000802050304008C5B0608010008029C
:1016380005040400AC0D06080200FE0101100300B9
:10164800BCF605080300140200030000945B0608BA
:1016580004001F02010008009C5B060805001F0229
:10166800010108001000000065C8010821C7010831
:1016780099C80108DDE30108B914020855E4010816
:1016880029BB010815BB01080DBB01081529020873
:101698000000000000000000000000000100000041
:1016A80000600240106002400000000000000000DE
:1016B800000B000000000000000000000000000017
:1016C80000600240286002400100000000000000A5
:1016D800060C0000000000000000000000000000F0
:1016E800006002404060024002000000000000006C
:1016F800100D0000000000000000000000000000C5
:101708000060024058600240030000000000000032
:10171800160E00000000000000000000000000009D
:1017280000600240706002400400000000000000F9
:10173800200F000000000000000000000000000072
:1017480000600240886002400500000000000000C0
:10175800261000000000000000000000000000004B
:1017680000600240A0600240060000000000000087
:101778003011000000000000000000000000000020
:1017880000600240B860024007000000000000004E
:10179800362F0000000000000000000000000000DC
:1017A80000640240106402400000000000000000D5
:1017B80000380000000000000000000000000000E9
:1017C800006402402864024001000000000000009C
:1017D80006390000000000000000000000000000C2
:1017E8000064024040640240020000000000000063
:1017F800103A000000000000000000000000000097
:101808000064024058640240030000000000000029
:10181800163B00000000000000000000000000006F
:1018280000640240706402400400000000000000F0
:10183800203C000000000000000000000000000044
:1018480000640240886402400500000000000000B7
:101858002644000000000000000000000000000016
:1018680000640240A064024006000000000000007E
:1018780030450000000000000000000000000000EB
:1018880000640240B8640240070000000000000045
:1018980036460000000000000000000000000000C4
:1018A800145A0608381A060800000000C525020860
:1018B800A0860100040000000000000000000000F5
:1018C8000000000000000000000000000000000010
:1018D8000000000000000000000000000000000000
:1018E800145A06085C5D060800000000712203080F
:1018F800E8030000040000000000000000000000F1
:1019080000000000000000000000000000000000CF
:1019180000000000000000000000000000000000BF
:1019280090F905082C330608000000001D18000077
:101938007D0000000600000000000000000000001C
:10194800000000000000000000000000000000008F
:10195800000000000000000000000000000000007F
:10196800845906080000000000000000093503083B
:10197800E803000003000000000000000000000071
:10198800000000000000000000000000000000004F
:10199800000000000000000000000000000000003F
:1019A800645D0608000000000000000009DC020871
:1019B80010270000030000000000000000000000E5
:1019C800000000000000000000000000000000000F
:1019D80000000000000000000000000000000000FF
:1019E800905B060800000000D14401085540030838
:1019F8005F76000005000000000000000000000005
:101A080000000000000000000000000000000000CE
:101A180000000000000000000000000000000000BE
:101A2800E85B06080000000000000000618C030865
:101A38001027000001000000000000000000000066
:101A4800000000000000000000000000000000008E
:101A5800000000000000000000000000000000007E
:101A6800705D06080000000000000000251E030845
:101A7800E80300000500000000000000000000006E
:101A8800000000000000000000000000000000004E
:101A9800000000000000000000000000000000003E
:101AA8007C5D06080000000000000000C54902082F
:101AB800204E0000030000000000000000000000AD
:101AC800000000000000000000000000000000000E
:101AD80000000000000000000000000000000000FE
:101AE8008C5D06080000000000000000B1470208F5
:101AF800204E00000300000000000000000000006D
:101B080000000000000000000000000000000000CD
:101B180000000000000000000000000000000000BD
:101B28009C5D06080000000000000000B5270308BF
:101B3800400D03000300000000000000000000004A
:101B4800000000000000000000000000000000008D
:101B5800000000000000000000000000000000007D
:101B6800940A06080000000000000000D5080408D8
:101B78001027000001000000000000000000000025
:101B8800000000000000000000000000000000004D
:101B9800000000000000000000000000000000003D
:101BA8004C1A06080000000000000000794B0408E9
:101BB80010270000030000000000000000000000E3
:101BC800000000000000000000000000000000000D
:101BD80000000000000000000000000000000000FD
:101BE800AC5D06080000000000000000FDA501082B
:101BF800A0860100010000000000000000000000B5
:101C080000000000000000000000000000000000CC
:101C180000000000000000000000000000000000BC
:101C280088590608000000000000000099210308F8
:101C380050C3000001000000000000000000000088
:101C4800000000000000000000000000000000008C
:101C5800000000000000000000000000000000007C
:101C6800A8F505080000000000000000D91E0308C0
:101C7800A861000001000000000000000000000052
:101C8800000000000000000000000000000000004C
:101C9800000000000000000000000000000000003C
:101CA800B45D060800000000000000004995040823
:101CB800A0860100010000000000000000000000F4
:101CC800000000000000000000000000000000000C
:101CD80000000000000000000000000000000000FC
:101CE800BC0A06080000000000000000756D03082B
:101CF800A00F00000100000000000000000000002C
:101D080000000000000000000000000000000000CB
:101D180000000000000000000000000000000000BB
:101D2800C05D06080000000000000000D98F04080C
:101D38001027000001000000000000000000000063
:101D4800000000000000000000000000000000008B
:101D5800000000000000000000000000000000007B
:101D6800DC0006080000000000000000616B0408A9
:101D78001A410000010000000000000000000000FF
:101D8800000000000000000000000000000000004B
:101D9800000000000000000000000000000000003B
:101DA80068F505080000000000000000D195030850
:101DB80010270000010000000000000000000000E3
:101DC800000000000000000000000000000000000B
:101DD80000000000000000000000000000000000FB
:101DE800441A060800000000000000009D6A01086F
:101DF8001A4100000100000000000000000000007F
:101E080000000000000000000000000000000000CA
:101E180000000000000000000000000000000000BA
:101E2800CC5D06080000000000000000F99E0308D1
:101E3800400D03000000000000000000000000004A
:101E4800000000000000000000000000000000008A
:101E5800000000000000000000000000000000007A
:101E6800D45D06080000000000000000EFEF030842
:101E7800400D03000000000000000000000000000A
:101E8800000000000000000000000000000000004A
:101E9800000000000000000000000000000000003A
:101EA800DC5D06080000000000000000957D0408C5
:101EB80050C3000003000000000000000000000004
:101EC800000000000000000000000000000000000A
:101ED80000000000000000000000000000000000FA
:101EE800E85D06080000000000000000294702081D
:101EF80040420F0000000000000000000000000049
:101F080000000000000000000000000000000000C9
:101F180000000000000000000000000000000000B9
:101F2800F45D0608000000000000000061050408D8
:101F380050C3000000000000000000000000000086
:101F48000000000000000000000000000000000089
:101F58000000000000000000000000000000000079
:101F68000000803F781601200000000000000000FB
:101F78000000000000000000000000000000000059
:101F88000000000000000000000000000000000049
:101F98000000000000000000000000000000000039
:101FA8000000000000000000000000000000000029
:101FB8000000000000000000000000000000000019
:081FC800000000000000000011
:101FD00001000000780E002000000000200000003A
:0C1FE000000000000000803F0000803F77
:1080000003685A1C02601970704700BF2DE9F047E1
:10801000089C002B8846074621780CBF4FF02009AA
:108020004FF03009651C29B3002A27DD2B4601E0FB
:108030000246A8B113F8016B501E002EF8D1961E0F
:1080400070B1B2460AF1FF3A49463846C0470AF1D4
:108050000103002BF6DC26EAE6702178013039B105
:10806000041B3846C047281915F8011B0029F8D110
:10807000BDE8F087002A03DC0846F9E70020EFE7B7
:10808000561EDEE72DE9F84F14461D4606464FF40E
:108090007A720023204629464E4F4DF0BBFE4E4BD0
:1080A0004E4A40F2B55C0344DFF83CA182FB030179
:1080B000D81787FB03784A4F1944984487FB037EFF
:1080C000C0EB6111C0EBE8279E4482FB01824FEABE
:1080D000E179C0EB2E4E8AFB078A0A44C1EB011BF3
:1080E000C9EB62193F4AA3EB8B0BC9EB091982FB61
:1080F0000E824FEAE77886F806B0A1EB8901DFF837
:10810000EC90C8EBAA08717189FB03134FEAEE717A
:1081100008EB4808C1EBE212A7EBC8080CFB12E21F
:10812000C0EBE35386F80480B2F5896F4FEA830011
:108130003CDA40F2DA239A4242DCB2F5B77FDFF84C
:10814000B080B4BF4FF0000E4FF0010E4FEA4E0961
:108150001FFA8EFC09EB0E0308EBC303DF8A09EB61
:108160000E010B2308EBC101163101E031F8027D4D
:10817000974218DD013BF9D1CE44012338F83E7017
:1081800000F5FA6E0132B3702046F444D71B29463D
:108190004FF47A720023A6F800C0F7704DF03AFE53
:1081A0003281BDE8F88F0133DBB2E9E74FF0030C11
:1081B00040F29657DFF838804FF00609E646CEE7E2
:1081C0004FF0020C40F22947DFF824804FF00409F9
:1081D000E646C4E7C5B3A29180BC92C78988888867
:1081E00007452EC273B06D16ABAAAA2A792D0311CA
:1081F000188005080028F0B504DA2D23404201312B
:1082000001F8013C092804464FF0010307DD03EBA8
:1082100083035B00B0FBF3F2092AF8D883B10E4860
:10822000A0FB0356B4FBF3F2092A02F1570C02F14A
:10823000300708DD03FB1244F30801F801CBEFD14E
:1082400000230B70F0BD03FB1244F30801F8017B1F
:10825000E6D100230B70F0BDCDCCCCCC884270B4FD
:108260004FF0010442D301FB04F4B0FBF4F58D425E
:10827000F9D2ECB142BB092D04FB150005F15706FC
:1082800005F130020EDD03F8016BB4FBF1F47CB1B3
:10829000B0FBF4F5092D04FB150005F1570605F1B7
:1082A0003002F0DC03F8012BB4FBF1F4002CEFD129
:1082B000002270BC1A707047B4FBF1F403F8016B34
:1082C000002CF5D0B0FBF4F5092D04FB150005F1E9
:1082D000370605F13002EFDC03F8012BB4FBF1F4B3
:1082E000002CEFD1002270BC1A7070470546002A9E
:1082F000EAD1C0E7142200230221C27001220370D8
:10830000C3728373C373417041728270027282724E
:1083100030B43E2504248571C47130BC704700BF61
:1083200006224FF47A730270436070473023312283
:10833000FF21437001234271002281740372037094
:108340000371837042818281C28130B434254FF43D
:108350007F44C570048230BC704700BFF0B5154B38
:108360004FF0FF34FF21172703F10C0EA446162609
:1083700015250022C1700171017241724173817330
:108380008174C17402EB8202734500EB02018554D3
:108390004E708F7081F803C00C710AD093F90620DB
:1083A00006335D789E78DF7893F904C093F9054031
:1083B000E8E7F0BD7880050810B42C2101240322E1
:1083C0000023047041708270C3705DF8044B7047E5
:1083D00030B401232B25002402212A228570047049
:1083E0004170C2700371437130BC7047FF22034675
:1083F00000F110011A70023303F8012C8B42F9D1FD
:10840000027042708270C270027142718271C271D8
:10841000704700BF30B41D6995420AD314460A461E
:1084200021448D42996938BF2A1B214430BC4EF04B
:1084300031BA30BC704700BF002070470020704741
:1084400001207047012070470020704700207047CE
:10845000054B002010B49B684FF4007414800B602F
:108460005DF8044B704700BF00A201202C220223BC
:1084700002704370704700BF08307047704700BFFC
:10848000816170474378007840EA032010FB01F0D7
:108490004FF4807190FBF1F000F30F0000B27047D1
:1084A0006B4B8C462DE9F04F1C680025694B87B05B
:1084B0000746B3F80AE018894FEA0E2AB3F8048099
:1084C0004FEA1E6B9A89B4EB0A0465EB0B05CDE904
:1084D0000045009C019EA0FB044500FB0655E009F9
:1084E0004FEA084440EA4560E9114FEA184510EBAD
:1084F0000408D888009C41EB0509A0FB0445CDE9A0
:10850000048900FB0655B3F80280200A4FEAC834FC
:1085100040EA056029124FEA584510EB040841EB88
:1085200005090099A2FB010102FB06114FEAD05A8E
:10853000474E4AEA412A4FEAE15B1AF5FA634BF1EA
:108540000004B3F5FA6FCDE9023474F1000362DA86
:108550000524AAFB040104FB0B1100FB0BF40AFB2E
:108560000144A0FB0A012144DDE904234D104FEA38
:108570003004121B4FEA9004374863EB050344EACA
:1085800081748D104FF0FF31B8EB0408CDE904235E
:10859000DDE9023469EB0509834274EB010325DA56
:1085A00040F6AC5000211AEB00024BEB010302FB3A
:1085B00003F1A2FB022303EB4103D400DD00101BF7
:1085C00045EA527563EB0501DDE9044524184D4188
:1085D000CDE904450B24A2FB040104FB031149105F
:1085E0004FEA3000B8EB000869EB0109DDE9003221
:1085F000DDE902015343009AA2FB02AB0BEB430BF4
:108600004FEADA724FEAEB7342EA4B02801A61EBEF
:108610000301CDE9020197B17168A1FB082301FBB9
:108620000933540D5D1544EAC324DDE90423A21A7D
:1086300065EB03031D46D30B43EA45433B60BCF1A6
:10864000000F02D0029BCCF8003007B0BDE8F08FDD
:10865000D8160120D049012024FAFFFF2DE9F04F60
:10866000DFF8D8C185B0744CDCF808502288B4F922
:108670000AA0C2EB251352005B43C2EBE502B4F93A
:1086800002501B136A43B4F904505D43AD1305EB6C
:10869000E225B5F5FA324FEAE57BA5614BF1FF33F0
:1086A0004FEAEA7BCDE90023DDE90032CDE90201A2
:1086B0005343009A0199A2FB0289B4F9082000985B
:1086C00009EB43095143D31700FB0311A2FB00231D
:1086D0000B440AFB09F116031F0308FB0B13AAFB4B
:1086E000080147EA125719444FEA102A4AEA016A78
:1086F0004FEA212B1AEB0602E6884BEB070312F137
:10870000000A43F5004BAAFB060106FB0B114A10B9
:10871000CB1752EA030100F08C80B4F91060009886
:1087200006FB09F1F71708FB0711A6FB0867B4F968
:108730000E8039444FEAE879B2468B46019908FB2E
:1087400001F100FB0911A8FB00898944DCF80C1039
:108750004FEA4846C1F5801C4FEA49471AEB060A22
:1087600047EAD8376646B4F90C804FEACC704BEB39
:10877000070BF7174FEAC806F9070196002641EAEA
:108780005C0140F6354C0096DDE9006716EB0A0601
:1087900047EB0B07801B61EB07018946A0FB0C012F
:1087A0000CFB09114DF036FBB4F916204E13B4F949
:1087B00014A0470B804602FB06FCD31747EAC147CB
:1087C0004FEAEA7B07FB03CCA2FB07236344564333
:1087D00007FB0366A2FB07233344560E46EAC31683
:1087E0005F16321847EB01030AFB01F108FB0B1778
:1087F000AAFB08013944C60C46EA4136CF1412EBF5
:108800000608B4F9122043EB07094FEA18211301B7
:1088100041EA09610B44029A0AB11B0A1360039BE7
:1088200023B105EB850580352D121D6005B0BDE82F
:10883000F08F0023EFE700BFE4490120D8160120A4
:108840007047704710B5064C237C0BB9002010BD53
:108850002BF0B6FB6369C01AD0F5FA50F7D5F5E7EF
:10886000D81601204FF40063838470474FF40063EF
:1088700083847047012380F85C307047034610B44E
:10888000D0F8F840D968406964B1D3F810218C1A47
:10889000013A005D08BF0A465DF8044BC0B2C3F858
:1088A000102170471A6A805C01328A4228BF224632
:1088B000C0B25DF8044B1A62704700BFD0F8FC30BC
:1088C00013B190F890017047D0E90903181AB0FA73
:1088D00080F04009704700BFD0E909120369914256
:1088E00038BFC918013B8A1AD0F8FC1031B1D0F852
:1088F0007C11096849680A449A4201D2981A704763
:1089000000207047D0F8F8306BB1D0F88031D0F843
:1089100010211B685B689A4201D8981A7047C0689A
:10892000801A18447047D0E907239A4203D2C068DE
:108930001044C01A7047D01A704700BF436A70B421
:10894000064683B01BB19A88196812048A6172695D
:1089500003206D463B4C536823F48053536040F230
:10896000E93301E0013B33D091688907FAD564B35C
:1089700034F8023B938140F2E93301E0013B27D018
:108980009168C907FAD5D3680DB125F8023B0138C3
:10899000E5D1516840F2E93341F48051516001E082
:1089A000013B15D091688807FAD5002C47D0237871
:1089B000137340F2E93301E0013B09D09168C90724
:1089C000FAD5D368C5B12B7016E04FF6FF73D1E727
:1089D0001D498A4207D01D4B9A422ED003F5806371
:1089E0009A4209D102231A4AD82101FB03239A890A
:1089F000013292B29A819B89736A13B11A689B887B
:108A000093619DF8014001209DF803309DF802100C
:108A10009DF8042041EA04219DF8054042EA032222
:108A20009DF80630A6F85C1043EA0423A6F85E2001
:108A3000A6F8603003B070BC70470123D3E7FF2372
:108A4000B6E700BF8C8005080030014000380040C8
:108A500038B9012013B506230C466A4628210C308C
:108A600044F05AF8F0B19DF8013004219DF800203F
:108A700042EA03229DF8033012B292FBF1F2228007
:108A80009DF8022042EA03229DF8043012B292FBC4
:108A9000F1F262809DF8052043EA02231BB293FBAA
:108AA000F1F3A38002B010BD7FB5002500F10C06E4
:108AB0000C4601230D800DF107024D8030468D805C
:108AC000062144F029F810B9002004B070BD9DF8CB
:108AD00007305B07F8D5062302AA2946304644F042
:108AE0001BF80028F0D09DF809209DF8083043EAD3
:108AF00002239DF80B2023809DF80A3043EA0223CD
:108B00009DF80D2063809DF80C3043EA0223A3807A
:108B1000DBE713B506230C466A4603210C3043F00D
:108B2000FBFFA0B19DF800209DF8013043EA02232D
:108B30009DF8022023809DF8033043EA02239DF82C
:108B40000420A3809DF8053043EA0223638002B02D
:108B500010BD07B5032301AA002143F0DDFF9DF8F6
:108B600005309DF804001B0243EA00439DF806000F
:108B7000184303B05DF804FB08B5FFF7EAFF014BAB
:108B8000586008BDD816012008B5FFF7E2FF014B79
:108B9000186008BDD816012007B506236A46F721DC
:108BA00043F0BAFF9DF801309DF800101B010B4AFD
:108BB00043EA01339DF8021043EA11139DF80310B4
:108BC000D3609DF804301B0143EA01339DF8051082
:108BD00043EA1113936003B05DF804FBD81601203B
:108BE00038B504460D46FFF72DFE246808B12DF078
:108BF000B9FE054B0022C92120461A742A465B7C27
:108C000043F094FE012038BDD816012044F02CBD5D
:108C1000014B18682EF0AAB8CC7501201D4B1B78AB
:108C200070B5044600F1250593B104221A4920309D
:108C30004FF0B4F92846142218494FF0AFF9012338
:108C400084F83A30164B1B7873B984F83B3070BD0A
:108C50002846142213494FF0A1F9012384F83A3031
:108C60000F4B1B78002BF0D00F4A01231668556874
:108C70009068D16826606560A060E160D16916697E
:108C80005569906984F83B3026616561A061E161B6
:108C900070BD00BFFC840120C4840120AC8401208D
:108CA000FD840120B0F10508CC8401200123262198
:108CB0002722017042708370C37070472DE9F84F0E
:108CC0000A9E8946174600212022984605460B9C9D
:108CD0004FF06EF85EB17189D6E900236982C2F364
:108CE0000F40EA81C3F30F42EB8228822A83484671
:108CF0004CF09AFB17F0100A0FD1431E68B119F817
:108D000003202E2A4DD009EB030103E011F8016D79
:108D10002E2E3ED013F1FF33F8D208280246CB4660
:108D20004FF0000AA8BF08224FF0203305F10806D3
:108D3000494628466B602B60C5F807304DF0AAFD08
:108D40005246594630464DF0A5FD6A1EE81D12F800
:108D5000013FA3F16101203B192998BF13708242A2
:108D6000F5D105F10B0116F8013BA3F16102203B9F
:108D7000192A98BF06F8013CB142F4D1C8F30F425A
:108D80001823EF72A5F81A80AA82EC612B73BDE854
:108D9000F88FC01A00F1FF3ABAF1030FA8BF4FF0E5
:108DA000030A082B03F1010BA8BF0823CB441A4682
:108DB000BAE700BF38B52E2200214EF0F9FF642437
:108DC0000346222140F2DC5040F21A4240F26C7518
:108DD00019731C7440F20221132458829A821920BC
:108DE00040F27532DD82198340F643050E219C76F0
:108DF000187702240A20DA83012283F8221083F8EC
:108E00002D0019461D8483F82C409A7383F8252081
:108E100083F82B200248BDE8384012F021BA00BF89
:108E2000C0F1050810B504460021012029F0A4FF77
:108E3000207010BD38B50023451E1C460372E1B2F8
:108E40000134022029F098FF082C05F8010FF6D113
:108E500038BD00BF38B5002305461C4603802146B7
:108E6000013428463FF056FB082CF8D10023284651
:108E700085F8E2301946A5F8E430A5F8E630A5F803
:108E8000E830A5F8EA30A5F8EC30A5F8EE30A5F802
:108E9000F030A5F8F230BDE838403FF0FFBA00BF2F
:108EA0002DE9F04F1E4685B00C46002001211546E5
:108EB00029F048FC002E61D07319DFF870B3D54E4D
:108EC00002931CE0002D00F0DD81DBF81430AB4292
:108ED00065D0DBF81030AB4200F09B80DBE9063157
:108EE000AB4253D88D42C0F07881691A204649F0D0
:108EF0003FF90135029B04F500749D423ED0DBF83A
:108F00002070AF42DED8EF1BDBF830804FEAD70A83
:108F1000D8F8303007F007070AF1020A9A4503D360
:108F2000D8F838309A4509D94146504649F0EEF80C
:108F30008046002800F05681CBF8300098F80430C5
:108F4000002B40F0E980D8F82890B9F1000F00F02C
:108F5000F781D8F830104346D8F80C202046AAEB09
:108F6000010A4FF40071013504F5007407EBCA0AD9
:108F700002EB4A22C847029B9D42C0D1002108460D
:108F800029F0E0FB002005B0BDE8F08F8D42ACD2A7
:108F90004FF40072002120464EF00AFFA9E7722329
:108FA00000274FF0FF3C4FF0520E6122412084F821
:108FB000E431394684F8E531DBF82830A27084F8D2
:108FC000E7214FF4F072E07084F8E601201D84F888
:108FD00000E084F801E084F8ECC1C4F8E83184F8DA
:108FE000EDC184F8EEC184F8EFC14EF0E1FE5521E9
:108FF0006FF05502C4F8F071C4F8F471C4F8F87158
:1090000084F8FC7184F8FD7184F8FE1184F8FF2166
:109010006FE74FF40072002120467F4F4EF0C8FEEC
:109020005821EB2002226170F82120704FF0080CCB
:1090300061753F21902384F80DC021764FF0FF3EEB
:10904000A370002322744FF080082273A273E3728E
:10905000E3736374A374E3742375A375E375637694
:10906000E3766377A377E37784F81AE04FF0010E95
:1090700003CF3E27C4F80300C4F80710DBF808103C
:10908000DBF810002777081ADBF81C10634F20620A
:10909000DBF8180084F82C200E22091A84F82830F6
:1090A00084F8293029206162942184F82A3084F8D8
:1090B0002B3084F82D3084F82E3084F82F3084F84B
:1090C000313084F8323084F833300D2384F846C0D0
:1090D00004F1470C84F8420084F8431084F84420DB
:1090E00084F845304E4B84F830E04FF0AA0E84F8F7
:1090F00040804FF0550807CFC4F84700CCF8041063
:10910000CCF8082084F8FE8184F8FFE103CBC4F892
:109110005200C4F85610ECE64FF4007200212046CD
:109120004EF046FED8F84030002F63D104F1200203
:109130000392002B00F08980D8F83030112201977B
:109140002046009704F140093649FFF7B7FDD8F8EB
:1091500040301A6C002A00F08A801B6B11220197A4
:109160004FF4E07A039800972F49FFF7A7FDD8F84E
:10917000448018F1000318BF0123002B3FF4B9AE5F
:10918000474603940CE00024AAF1200AC146CDE929
:1091900000C4FFF793FDBF6CEFB1BAF11F0F1AD9EE
:1091A00097F804E01122484609F12008396807F1D0
:1091B0001C0C3B6BBEF1000FE5D17A79AAF1200AB5
:1091C0003C69C14642F02102CDE900C4FFF776FDBB
:1091D000BF6C002FE1D1039C8BE6E91A204648F0D2
:1091E000C7FF86E6231F04F5FE7243F8046F9A4218
:1091F000FBD17EE6002BD8F8448014BF0223012364
:10920000B8F1000FC3EB071714BF012300232AD0C6
:1092100042460EE0DEADBEEFD4F10508E0F10508F0
:10922000F0F10508CCF10508D0F1050800A20120F5
:1092300033B1926C013F131C18BF0123002FF7DCE0
:109240009046A1464FF4007A97E7DBF80C103B46B6
:109250000197082200972046DDF80C904FF4F07A31
:10926000FFF72CFD83E7A1464FF4007A85E70197CD
:109270003B460097112203984FF4E07A4749FFF7E5
:109280001DFD74E74FF40072294620464EF090FD14
:1092900080220C2384F8B85184F8BE2184F8C231AE
:1092A0003F4BDBF81020DBF8080083FB02314FEA6C
:1092B000E27C84F8B951CCEB213184F8BA5184F8BE
:1092C000BB51B1F5806F84F8BC5184F8BD51C4F82E
:1092D000C621C4F8CA0142DBFF2384F8BF3184F8F9
:1092E000C13184F8C031421E2D4BD71783FB0231A8
:1092F000C7EB2131B1F5806F29DA2A4B84F8C5110B
:10930000891083FB0203284821F03F011344C7EB77
:109310006313C3EB831780FB03C0D21B1844DF1712
:109320000132C7EBE0100A43034484F8C42184F8F7
:10933000C3315522AA2384F8FE2184F8FF31D8E5F1
:1093400049464FF4007220464EF032FDD1E5FF232E
:1093500084F8C33184F8C53184F8C431E9E7114B8E
:1093600084F8C111891083FB02730F4F21F03F0174
:109370001344CCEB6313C3EB831C87FB03E7A2EB23
:109380000C021F444FEAE37C0132CCEBE7170A439F
:109390003B4484F8C02184F8BF31A4E7D0F105082C
:1093A0009755454183200882818080802DE9F041D6
:1093B0000D4601211C461646084629F0C3F9BCB1EA
:1093C0000F4F05EB442801E014F0C8FF3A68002372
:1093D0002946304614691A46A0470028F4D114F0F3
:1093E000BDFF0028FBD005F5007501364545EDD1E0
:1093F0000021012029F0A6F90020BDE8F08100BF7E
:10940000E4A101202DE9F0410D4601211C4616463C
:10941000084629F097F9A4B10D4F05EB44283A68A6
:1094200000232946304694681A46A0470028F6D003
:1094300014F094FF0028FBD005F500750136454572
:10944000EDD10021012029F07DF90020BDE8F08157
:10945000E4A1012008B514F081FF80F00100404232
:1094600040B208BD38B514460D4614F069FF4FF4FC
:109470000073026800202A60238038BD002108B5EF
:10948000084629F05FF948F029FE14F067FF00282C
:10949000FBD00121002029F055F9002008BD00BFB4
:1094A000437F30B5044683B01BB90120637703B016
:1094B00030BD052502236A4601A90068ADF80450B5
:1094C00043F086F99DF8013003F0010383F00100B9
:1094D000637703B030BD00BFF8B5074C05460F46B3
:1094E000266803E023689B1BBB4204D82846FFF78D
:1094F000D7FF0028F6D0F8BD149A012030B583B00C
:1095000045F2082104460625FFF7E6FF02A9206878
:10951000012301F8025D002243F05AF902A9C72293
:109520000123206801F8012D0022637743F050F9F0
:1095300003B030BD70B5002284B00446D825007F4A
:109540000B4602928DF80C208DF8085008B3090ED6
:109550000DF10A028DF809101E0C93701D0A41F2DC
:109560008831167020465570FFF7B6FF04A9062211
:109570002068012301F8092D002243F029F9012375
:1095800002A9002263770523206843F021F904B083
:1095900070BD0DF10902DFE710B500F10C040022E7
:1095A0002121204643F002FEFC222021204643F0E8
:1095B000FDFD40222421204643F0F8FD0C2223210A
:1095C000204643F0F3FD00222221204643F0EEFD29
:1095D00064202DF053FA012010BD10B500F10C04E9
:1095E00001220B21204643F0E1FD20B11D2209217B
:1095F000204643F0DBFD00F0010010BD10B500F186
:109600000C0470220021204643F0D0FD20220121CD
:10961000204643F0CBFD00220221204643F0C6FD48
:1096200064202DF02BFA012010BD0122482143F0C7
:10963000BDBD0122582143F0B9BD3122F42143F0D0
:10964000B5BD00BF0269C3682DE9F04712EA0309FE
:1096500027D00E4605464FF000474FF00008B9FAF4
:1096600089F327FA03F21B3BD2432A6109EA020974
:10967000042B13D8DFE803F0322920170300736AA4
:10968000002B34D1EB6A1FFA83FA346A34B12368B1
:109690002046514698476468002CF8D1B9F1000F74
:1096A000DDD1BDE8F0873068696B036889B29847FF
:1096B000B9F1000FD3D1F4E77068A96B036889B2E0
:1096C0009847B9F1000FCAD1EBE7B068E96B0368BE
:1096D00089B29847B9F1000FC1D1E2E7F068296C6F
:1096E000036889B29847B9F1000FB8D1D9E703F1FF
:1096F000FF3AC6F824801FFA8AFAC6E72DE9F04F30
:109700008DB090F86D300390002B40F02A86039BBB
:1097100093F86430072B00F01A861823CDE9043340
:10972000039B80226B21BF4C1033DFF804934FF072
:109730001008BD4E1846029343F038FD6423DFF84D
:10974000F4C2BA48DFF8F0E20193DCF80430C3F366
:109750000803002B40F0BE84EFF31183002B40F090
:10976000B9842568826823689D42FAD133689A4299
:10977000F7D8D9F800704FF47A7101FB07F39B1A00
:10978000B3FBF7F301FB05354FF47A774FF0010A8D
:10979000DCF80430C3F30803002B40F07B84EFF3C4
:1097A0001183002B40F076842368816822689342FD
:1097B000FAD132689142F7D8D9F8002007FB02FBB2
:1097C000ABEB0101B1FBF2F107FB03135B1BB3F53C
:1097D0007A7FDDD3019B013B0193B6D1072268213B
:1097E00002984FF0100843F0E1FC8F4E6423DFF83D
:1097F00044C28E48DFF840E20193DCF80430C3F342
:109800000803002B40F0A684EFF31183002B40F0F7
:10981000A1842568826823689D42FAD133689A4200
:10982000F7D8D9F800704FF47A7101FB07F39B1A4F
:10983000B3FBF7F301FB05354FF47A774FF0010ADC
:10984000DCF80430C3F30803002B40F00384EFF38B
:109850001183002B40F0FE832368816822689342C5
:10986000FAD132689142F7D8D9F8002007FB02FB01
:10987000ABEB0101B1FBF2F107FB03135B1BB3F58B
:109880007A7FDDD3019B013B0193B6D11A466B2150
:1098900002984FF0100843F089FC634E6423DFF810
:1098A00094C16248DFF890E10193DCF80430C3F31F
:1098B0000803002B40F02E84EFF31183002B40F0BF
:1098C00029842568826823689D42FAD133689A42C8
:1098D000F7D8D9F800704FF47A7101FB07F39B1A9F
:1098E000B3FBF7F301FB05354FF47A774FF0010A2C
:1098F000DCF80430C3F30803002B40F08C83EFF353
:109900001183002B40F0878323688168226893428B
:10991000FAD132689142F7D8D9F8002007FB02FB50
:10992000ABEB0101B1FBF2F107FB03135B1BB3F5DA
:109930007A7FDDD3019B013B0193B6D101226B21DC
:1099400002984FF0100843F031FC374E0F23DFF838
:10995000E4C03648DFF8E0E00193DCF80430C3F3FC
:109960000803002B40F0D184EFF31183002B40F06B
:10997000CC842568826823689D42FAD133689A4274
:10998000F7D8D9F800704FF47A7101FB07F39B1AEE
:10999000B3FBF7F301FB05354FF47A774FF0010A7B
:1099A000DCF80430C3F30803002B40F01583EFF319
:1099B0001183002B40F01083236881682268934252
:1099C000FAD132689142F7D8D9F8002007FB02FBA0
:1099D000ABEB0101B1FBF2F107FB03135B1BB3F52A
:1099E0007A7FDDD3019B013B0193B6D1049A1B2101
:1099F00002984FF0100843F0D9FB0B4E0F23DFF80D
:109A000034C00A48DFF830E00193DCF80430C3F3D7
:109A10000803002B40F05984EFF31183002B40F032
:109A200054840BE0149A01201C9A012010E000E0FD
:109A3000189A012000ED00E0109A01202568826844
:109A400023689D42FAD133689A42F7D8D9F800705A
:109A50004FF47A7101FB07F39B1AB3FBF7F301FB99
:109A600005354FF47A774FF0010ADCF80430C3F380
:109A70000803002B40F09182EFF31183002B40F09C
:109A80008C822368816822689342FAD132689142BD
:109A9000F7D8D9F8002007FB02FBABEB0101B1FBC3
:109AA000F2F107FB03135B1BB3F57A7FDDD3019B58
:109AB000013B0193A9D1059A1C2102984FF010088F
:109AC00043F074FBC54E0F23DFF818C3C448DFF81A
:109AD00018E30193DCF80430C3F30803002B40F0D3
:109AE000D583EFF31183002B40F0D0832568826883
:109AF00023689D42FAD133689A42F7D8D9F80070AA
:109B00004FF47A7101FB07F39B1AB3FBF7F301FBE8
:109B100005354FF47A774FF0010ADCF80430C3F3CF
:109B20000803002B40F01A82EFF31183002B40F062
:109B300015822368816822689342FAD13268914283
:109B4000F7D8D9F8002007FB02FBABEB0101B1FB12
:109B5000F2F107FB03135B1BB3F57A7FDDD3019BA7
:109B6000013B0193B6D1039A92F86730032B00F2C0
:109B7000EC8392F86A20012A0BD0022A40F0E58398
:109B8000039B93F86F3003F0FB03022B0CBF002202
:109B900007221A21029843F009FB4FF010080F2307
:109BA000DFF840C28E48DFF840E28C4E0193DCF8CB
:109BB0000430C3F30803002B40F02A83EFF3118332
:109BC000002B40F025832568826823689D42FAD1E6
:109BD00033689A42F7D8D9F800704FF47A7101FBD4
:109BE00007F39B1AB3FBF7F301FB05354FF47A77C4
:109BF0004FF0010ADCF80430C3F30803002B40F0F7
:109C00008E81EFF31183002B40F0898123688168F6
:109C100022689342FAD132689142F7D8D9F80020ED
:109C200007FB02FBABEB0101B1FBF2F107FB0313F6
:109C30005B1BB3F57A7FDDD3019B013B0193B6D16A
:109C4000039B192102984FF0100893F86C2043F001
:109C5000ADFA624E6423DFF88CC16148DFF888E119
:109C60000193DCF80430C3F30803002B40F0EF82CB
:109C7000EFF31183002B40F0EA82256882682368A5
:109C80009D42FAD133689A42F7D8D9F800704FF460
:109C90007A7101FB07F39B1AB3FBF7F301FB053560
:109CA0004FF47A774FF0010ADCF80430C3F308036D
:109CB000002B40F01581EFF31183002B40F0108151
:109CC0002368816822689342FAD132689142F7D8BA
:109CD000D9F8002007FB02FBABEB0101B1FBF2F16D
:109CE00007FB03135B1BB3F57A7FDDD3019B013BBD
:109CF0000193B6D11022372102984FF0100843F09B
:109D000055FA364E0F23DFF8DCC03548DFF8D8E0CF
:109D10000193DCF80430C3F30803002B40F05982B0
:109D2000EFF31183002B40F054822568826823688A
:109D30009D42FAD133689A42F7D8D9F800704FF4AF
:109D40007A7101FB07F39B1AB3FBF7F301FB0535AF
:109D50004FF47A774FF0010ADCF80430C3F30803BC
:109D6000002B40F09E80EFF31183002B40F0998090
:109D70002368816822689342FAD132689142F7D809
:109D8000D9F8002007FB02FBABEB0101B1FBF2F1BC
:109D900007FB03135B1BB3F57A7FDDD3019B013B0C
:109DA0000193B6D10298012238214FF0100843F0F8
:109DB000FDF90A4E0F23DFF82CC00948DFF828E030
:109DC0000193DCF80430C3F30803002B40F0E28178
:109DD000EFF31183002B40F0DD8107E01C9A012096
:109DE00010E000E000ED00E0109A01202568826894
:109DF00023689D42FAD133689A42F7D8D9F80070A7
:109E00004FF47A7101FB07F39B1AB3FBF7F301FBE5
:109E100005354FF47A774FF0010ADCF80430C3F3CC
:109E20000803FBB9EFF31183E3B923688168226863
:109E30009342FAD132689142F7D8D9F8002007FB53
:109E400002FBABEB0101B1FBF2F107FB03135B1B60
:109E5000B3F57A7FE1D3019B013B0193B1D10DB002
:109E6000BDE8F08FEFF3118188F31288D0F808B0C5
:109E70000368DB0303D5CEF800A0D0F808B0236850
:109E8000C9B2DEF8002081F31188D9F8001013441C
:109E900007FB01F2A2EB0B02B2FBF1F207FB03237B
:109EA000D5E7EFF3118188F31288D0F808B0036882
:109EB000DB0303D5CEF800A0D0F808B02368C9B200
:109EC000DEF8002081F31188D9F80010134407FB55
:109ED00001F2A2EB0B02B2FBF1F207FB032359E7FD
:109EE000EFF3118188F31288D0F808B00368DB0320
:109EF00003D5CEF800A0D0F808B02368C9B2DEF8C8
:109F0000002081F31188D9F80010134407FB01F2F7
:109F1000A2EB0B02B2FBF1F207FB0323E2E6EFF345
:109F2000118188F31288D0F808B00368DB0303D5E9
:109F3000CEF800A0D0F808B02368C9B2DEF800203F
:109F400081F31188D9F80010134407FB01F2A2EB4A
:109F50000B02B2FBF1F207FB032369E6EFF3118179
:109F600088F31288D0F808B00368DB0303D5CEF875
:109F700000A0D0F808B02368C9B2DEF8002081F351
:109F80001188D9F80010134407FB01F2A2EB0B0271
:109F9000B2FBF1F207FB0323DDE5EFF3118188F358
:109FA0001288D0F808B00368DB0303D5CEF800A010
:109FB000D0F808B02368C9B2DEF8002081F3118818
:109FC000D9F80010134407FB01F2A2EB0B02B2FB1D
:109FD000F1F207FB032366E5EFF3118188F31288A2
:109FE000D0F808B00368DB0303D5CEF800A0D0F8A2
:109FF00008B02368C9B2DEF8002081F31188D9F8CF
:10A000000010134407FB01F2A2EB0B02B2FBF1F2CA
:10A0100007FB0323E2E4EFF3118188F31288D0F801
:10A0200008B00368DB0303D5CEF800A0D0F808B071
:10A030002368C9B2DEF8002081F31188D9F8001036
:10A04000134407FB01F2A2EB0B02B2FBF1F207FB98
:10A0500003236BE4EFF3118188F31288D0F808B082
:10A060000368DB0303D5CEF800A0D0F808B023685E
:10A07000C9B2DEF8002081F31188D9F8001013442A
:10A0800007FB01F2A2EB0B02B2FBF1F207FB032389
:10A09000FFF7F4BBEFF3118188F31288D0F808B012
:10A0A0000368DB0303D5CEF800A0D0F808B023681E
:10A0B000C9B2DEF8002081F31188D9F800101344EA
:10A0C00007FB01F2A2EB0B02B2FBF1F207FB032349
:10A0D000FFF77CBBEFF3118388F312888168026875
:10A0E000D20303D50122CEF8002081682568DBB2B7
:10A0F000DEF800A083F311884FF47A72D9F800706B
:10A10000554402FB07F35B1AB3FBF7F302FB05357B
:10A11000FFF73ABBEFF3118388F312888168026876
:10A12000D20303D50122CEF8002081682568DBB276
:10A13000DEF800A083F311884FF47A72D9F800702A
:10A14000554402FB07F35B1AB3FBF7F302FB05353B
:10A15000FFF7CABBEFF3118388F3128881680268A6
:10A16000D20303D50122CEF8002081682568DBB236
:10A17000DEF800A083F311884FF47A72D9F80070EA
:10A18000554402FB07F35B1AB3FBF7F302FB0535FB
:10A19000FFF752BBEFF3118388F3128881680268DE
:10A1A000D20303D50122CEF8002081682568DBB2F6
:10A1B000DEF800A083F311884FF47A72D9F80070AA
:10A1C000554402FB07F35B1AB3FBF7F302FB0535BB
:10A1D0001FE6EFF3118388F3128881680268D203C7
:10A1E00003D50122CEF8002081682568DBB2DEF8B5
:10A1F00000A083F311884FF47A72D9F800705544A7
:10A2000002FB07F35B1AB3FBF7F302FB05359FE58F
:10A21000EFF3118388F3128881680268D20303D5B3
:10A220000122CEF8002081682568DBB2DEF800A0AC
:10A2300083F311884FF47A72D9F80070554402FB09
:10A2400007F35B1AB3FBF7F302FB0535CEE4EFF33C
:10A25000118388F3128881680268D20303D5012232
:10A26000CEF8002081682568DBB2DEF800A083F319
:10A2700011884FF47A72D9F80070554402FB07F345
:10A280005B1AB3FBF7F302FB053509E5EFF3118326
:10A2900088F3128881680268D20303D50122CEF8C0
:10A2A000002081682568DBB2DEF800A083F3118806
:10A2B0004FF47A72D9F80070554402FB07F35B1A29
:10A2C000B3FBF7F302FB053523E4EFF3118388F3C7
:10A2D000128881680268D20303D50122CEF80020DB
:10A2E00081682568DBB2DEF800A083F311884FF4A3
:10A2F0007A72D9F80070554402FB07F35B1AB3FB7E
:10A30000F7F302FB0535FFF7ACBBEFF3118388F3DE
:10A31000128881680268D20303D50122CEF800209A
:10A3200081682568DBB2DEF800A083F311884FF462
:10A330007A72D9F80070554402FB07F35B1AB3FB3D
:10A34000F7F302FB0535FFF727BB019A21E4039BD6
:10A3500093F86930002B41D11023CDE90433FFF786
:10A36000DFB91C0903F00F03013C032C3CD8474A1A
:10A3700032F8140040FA03F2D70735D5012202FA69
:10A3800003F3013B18404BF095FD414B414A1B5DE7
:10A39000184412EBC00427D052F83000A388056996
:10A3A0001D407FF4B4A9B3FA83F220263A49C2F1E2
:10A3B0001F02A671039F561CE571F96019D1B3FA0B
:10A3C00083F30122C3F11F0312FA03F33FF49FA9A1
:10A3D00032490A6813430B60FFF799B9182310211B
:10A3E000CDE90431FFF79CB92B4B039AD360FFF7FB
:10A3F0008EB92B4E07F10C01DFF8BCC0B7180793DC
:10A40000284B4CF8221007A997F87C7008930995FF
:10A41000CDE90A5514F0D8FB234BDA5DF02A01D8B8
:10A42000A388CCE7F021214A3E44D955D36896F859
:10A430008C20C3F3022351B2C3F107001E1D042870
:10A4400028BF0420062E88BFDD1E4FF0FF330029F1
:10A4500003FA00F36FEA030303F0030303FA05F3BF
:10A460004FEA0313DBB20CDB02F01F061048012297
:10A470004D090144B24081F8003340F82520A388FB
:10A480009DE702F00F020B498B54C9E718EA050853
:10A4900020EA05085098012075880008003C01401A
:10A4A00018800508000011108C64012000ED00E008
:10A4B00000E100E014ED00E04C6401204369B34981
:10A4C0001A688B4222F040022DE9F04F83B01A60E7
:10A4D000019000F01181AE4A934200F00D813821C5
:10A4E0001A6822F038020A431A601A6842F04002E1
:10A4F0001A6029F065FD044629F062FD8442FBD014
:10A50000019C2046FFF7FAF8626A1AB19388126834
:10A510001B049361019B5A6940F2E93302E0002B6E
:10A5200000F004819168013B11F0020F9BB2F6D05C
:10A530006A2140F2E933117302E0002B00F00C8134
:10A540009168013B11F0010F9BB2F6D0D368019BDB
:10A550005A6940F2E93302E0002B00F0CF809168A5
:10A56000013B11F0020F9BB2F6D0102140F2E9330B
:10A57000117302E0002B00F0C1809168013B11F0E3
:10A58000010F9BB2F6D0D368019B5B6A13B11A68C6
:10A590009B88936164237F48DFF80CE24FF0100939
:10A5A000DFF808C27C4CDFF808827C4E0093DCF8B0
:10A5B0000430C3F30803002B7DD1EFF31183002B8C
:10A5C00079D10568A26803689D42FAD133689A423E
:10A5D000F7D8DEF800704FF47A7101FB07F39B1A8D
:10A5E000B3FBF7F301FB05354FF47A774FF0010A1F
:10A5F000DCF80430C3F30803002B3DD1EFF31183E3
:10A60000002B39D10368A16802689342FAD13268FD
:10A610009142F7D8DEF8002007FB02FBABEB01010B
:10A62000B1FBF2F107FB03135B1BB3F57A7FDFD3BA
:10A63000009B013B0093BAD1019B54495B691A68A6
:10A640008B4222F040021A6054D0514A934251D0BA
:10A6500010211A6822F038020A431A601A6842F080
:10A6600040021A6029F0ACFC044629F0A9FC84429F
:10A67000FBD003B0BDE8F08FEFF3118189F31288AE
:10A68000D4F808B02368DB0303D5C8F800A0D4F8D9
:10A6900008B00368C9B2D8F8002081F31188DEF849
:10A6A0000010134407FB01F2A2EB0B02B2FBF1F224
:10A6B00007FB0323B8E7EFF3118389F31288A1683E
:10A6C0002268D20303D50122C8F80020A1680568DA
:10A6D000DBB2D8F800A083F311884FF47A72DEF869
:10A6E0000070554402FB07F35B1AB3FBF7F302FB60
:10A6F000053579E70821ACE73021F1E628498A429F
:10A7000008D0224B9A420FD003F580639A427FF41F
:10A710003BAF0223234AD82101FB03239A8901324C
:10A7200092B29A819B892FE70123F3E71C498A4261
:10A7300008D0164B9A4224D003F580639A427FF4E6
:10A7400008AF02231749D82000FB03139989013170
:10A7500089B299819B89FCE6114801998242496935
:10A7600007D00A4B9A420ED003F580639A4206D175
:10A7700002230C48D8240A4604FB0303E6E70A46F2
:10A78000E7E60123DEE70123F3E700BF00380040DE
:10A79000003C0040149A012010E000E01C9A0120C7
:10A7A0000030014038B90120189A012000ED00E086
:10A7B000109A0120F8B5EFF31184502383F3128827
:10A7C000D0F8FC301B6813F0010303D0E4B284F32B
:10A7D0001188F8BD90F8852190F886110A4302F09F
:10A7E0002102212AF2D0D0E90912914245D095B236
:10A7F00047D94B1B9BB28162002590F8851180F8E8
:10A8000090512029E2D18569D54205EB0201DDD0C6
:10A81000B3FA83F56D09002DD8D190F88421012A6F
:10A82000D4D0064621220120DFF864C0A6F86E319C
:10A83000D6F87C71C6F8885186F88521134AA6F8A7
:10A840006C3186F884013846C6F868113D65C7E961
:10A850000FC2D6F81C21DFF83CC02832C7F84CC024
:10A8600017F054F9D6F81C3140221A6286F8845148
:10A870009A6842F080029A60A8E7012380F890313C
:10A88000A4E706691946731B9BB2B4E7F1BD010842
:10A8900027BE01088BBD0108426A10B48469A15427
:10A8A000426A04690132D0F8FC10A24228BF00229B
:10A8B000426241B9D0F81C215DF8044B136843F0A3
:10A8C0008003136070475DF8044B73E7406998306C
:10A8D00016F07EBE426910B50832184C54F82200BA
:10A8E00016F076FE164B1A8823460C2A0DD8DFE8A0
:10A8F00002F0070C0C0C130C0C0C190C0C0C1F00A8
:10A900002168CA6822F40072CA60012283F83D20DF
:10A9100000220C4B1A7010BD2168CA6822F48062B4
:10A92000CA60F2E72168CA6822F40062CA60ECE7F4
:10A930002168CA6822F48052CA60E6E7EC8C0120E4
:10A94000E88C0120DF8C0120F8B5D0F81C310446DA
:10A95000DA69910615D5586AE36AC0B2002B00F097
:10A96000CB80216B9847D4F81C311A6822F480728E
:10A970001A609A6822F001029A609A6942F008020D
:10A980009A61DA69D20701D501221A62DA6997075A
:10A9900001D502221A62DA69560701D504221A6229
:10A9A000DA69150701D508221A62D4F8FC20FAB139
:10A9B000D969490600D4F8BDD96904F58E701E68BE
:10A9C0000F079D682CD18F0602D5B50600F1DA80FD
:10A9D0000F0602D5350600F1B980480602D571068A
:10A9E00000F18280002AE6D02046BDE8F840E1E68A
:10A9F000D9690806DCD594F885112129D8D0D4E985
:10AA00000901814200F09B80A069405C0131C0B225
:10AA100098622569B1FBF5F005FB1011A162C7E74B
:10AA200015F0010502D116F4907FD1D0CF0701D5E2
:10AA3000F7057BD48F074AD5002D6CD10F0709D5B8
:10AA4000B70665D508251D62D4F8885145F008057C
:10AA5000C4F88851D4F88851002DC3D08F0605D58D
:10AA6000B50603D514F06CFAD4F81C31D4F888215B
:10AA7000110708D49A6812F0400204D1C4F8882162
:10AA8000D4F8FC20AEE71A68202122F490721A60F4
:10AA90009A6822F001029A6084F886119A68520638
:10AAA000EED59A68D4F8801122F040029A6000290D
:10AAB000E6D0414B08460B6516F064FE0028DFD057
:10AAC000D4F88001036D9847D4F8FC208AE74F073B
:10AAD000B4D5002DB2D004271F62D4F8887147F096
:10AAE0000207C4F88871A9E71968202021F0400105
:10AAF000196084F8850175E7E3696269D054E369F8
:10AB0000E1680133B3FBF1F201FB1233E3612AE7A1
:10AB1000002D9FD096E702271F62D4F8887147F076
:10AB20000407C4F888714F0788D5D4E701271F624E
:10AB3000D4F8887147F00107C4F888717AE7A4F85F
:10AB40006E21196821F08001196031E794F88511B0
:10AB500021297FF447AFB4F86E1189B2B9B1D4F8A6
:10AB60002401D4F86811B0F5805F19D0481CC4F8EE
:10AB7000680109789962B4F86E31013B9BB2A4F880
:10AB80006E312FE714F0DCF9D4F8FC202AE71968BD
:10AB900021F080011960196841F04001196021E736
:10ABA000D4F82C010028E1D131F8020BC0F30800E1
:10ABB0009862C4F86811DEE77DBD0108037C016876
:10ABC0001F2B0AD9203B2022496802FA03F30B42CB
:10ABD00014BF0123002353B970472022096802FAE9
:10ABE00003F30B4214BF01230023002BF4D02DE903
:10ABF000F04F83B0476904468F4E29F0E1F94FF4D6
:10AC00008A73804603FB07631A7C002A2FD18B4985
:10AC10005A6809781568C1B9D16858890A6822F05C
:10AC200001020A60EB6823EA0003EB60844B1B78A7
:10AC3000002B33D1237C21681F2B10D8202202FA4D
:10AC400003F38B6003B0BDE8F08F9269136823F0C3
:10AC500001031360EB6823F48073EB60E6E72022C6
:10AC6000203B02FA03F3CB6003B0BDE8F08F734AD8
:10AC7000012112785974002A7FD15A685D89D06801
:10AC80001168026822F001020260CB6823EA050322
:10AC9000CB606C4A136801331360CBE74FF48A72C0
:10ACA000694902FB07F2B3184432D3F888A0324452
:10ACB00001935FFA8AF92AF0FF0B0092A9F11009BB
:10ACC0005846A1FB09394FEA1919494616F00AFB03
:10ACD000019B0120009AD3F880101874102900F00D
:10ACE000908056D9B1F5807F70D0B1F5805F19D1D1
:10ACF000296A986B21F48051D3E90FCE296240EA8A
:10AD00000E00E9695B6B40EA0C0021F47F411B03F4
:10AD100041EA102143F48053E961296A21F420417A
:10AD20000B432B624FF48A700023494600FB0766F1
:10AD30005846F36416F090FADAF80030D6F88850E6
:10AD400043F0100396F884204049CAF800306B683D
:10AD5000776819407389F8680A4339686A6002683D
:10AD600042F001020260CA681343CB6029F028F95F
:10AD7000374BA0EB080018605CE75B6899691A68BC
:10AD80000B6823F001030B60D36823F48073D36056
:10AD90007FE78142C6D1296A986B21F00101D3E98E
:10ADA0000FCE296240EA0E00A96940EA0C00D3F8F0
:10ADB00034C021F0FF034CF0010143EA1043AB61C2
:10ADC0002B6A23F00A030B432B62ABE7296A986BCB
:10ADD00021F48071D3E90FCE296240EA0E00E969BF
:10ADE0005B6B40EA0C0021F0FF011B0241EA1041BD
:10ADF00043F48073E961296A21F420610B432B62DB
:10AE000090E7296A986B21F01001D3E90FCE2962EF
:10AE100040EA0E00A9695B6B40EA0C0021F47F4117
:10AE20001B0141EA102143F01003A961296A21F0B6
:10AE3000A0010B432B6275E7F4410020F041002094
:10AE4000EC410020385E0120ABAAAAAA0000FFFF57
:10AE5000984000208E4B1B78002B00F0B280002819
:10AE600000F0AF80431E2DE9F04F032B894C83B0D7
:10AE70004FF00006A8BF0323A4F11408019000932B
:10AE8000676F4FF48A7384485FFA87FB03FB06837E
:10AE900027F0FF05ABF1100B5B7CA0FB0B2B4FEAFF
:10AEA0001B1B002B00F08E807C4B13F80B301D44D5
:10AEB0006A6892B2002A63D114F8050CD4E9201311
:10AEC000002800F06D83603373485B1AA0FB0351C8
:10AED000890901EB4101A3EB4113182B00F12885EF
:10AEE000173BA0FB0323DB0003F0F0036A48D4E91F
:10AEF00022126032521AA0FB0251890901EB410172
:10AF0000A2EB4112182A05D4173AA0FB0212C2F391
:10AF1000430213436048D4E924126032521AA0FB62
:10AF20000251890901EB4101A2EB4112182A00F1FB
:10AF30002985A2F11701A0FB0121C1F34301D4F837
:10AF40009C2041EA0311D4F8983060325248D21A5A
:10AF5000A0FB02539B0903EB4303A2EB4312182A05
:10AF600000F10D85173AA0FB0223C3F3430343EA24
:10AF7000011383EA132282EA1212150700F0E2831A
:10AF8000474A13680133136026B980224549464871
:10AF90004BF080FC4FF48A73002203FB06835A7443
:10AFA000676F54F8103C5FFA87FB27F0FF05D3F872
:10AFB0000090ABF1100B384BA3FB0B3B4FEA1B1B74
:10AFC0000CE0704754F8103C34F80A1CD3F8009099
:10AFD000D9F80C2022EA0102C9F80C20594628466B
:10AFE00016F080F94FF48A734FF0000C03FB0682D1
:10AFF00082F810C0E26E012A1CD0042A1AD0102A4E
:10B0000000F0BC82402A15D0B2F5807F00F0858424
:10B01000B2F5806F00F08184B2F5805F00F0998412
:10B02000B2F5803F4FF03C0C14BF6FF4006E6FF030
:10B03000080E01E06FF0080E09F1180A2246484692
:10B040005AF80C1001EA0E014AF80C10E16E13F0E8
:10B0500069FCE26E012A29D0042A27D0102A00F0C8
:10B060009082402A22D0B2F5807F00F05C84B2F555
:10B07000806F00F05884B2F5805F00F07A84B2F5FA
:10B08000803F09F1540A14BF4FF4006108210EE01B
:10B09000EC41002008420020ABAAAAAA84A7050818
:10B0A000E8220020884200209C4000200821DAF895
:10B0B00000304022B3480B43DFF8E4E210F80BC045
:10B0C000CAF80030A16CA2630CEB0502D4E90F3082
:10B0D0000343606C43F040031843E36C0143A06DED
:10B0E00019435CF80530014303EA0E0EE36D41EAB3
:10B0F0000E014CF80510C3B15169206E21F0070113
:10B10000D4F864E00343A06E0B4353615CF8051070
:10B1100021F0C07141EA0E014CF805105CF80530D1
:10B1200023F4C00303434CF80530616B0136236BF5
:10B1300004F58A74D16093609349506854F8C43C14
:10B14000014054F8C00C19435160136823F0F053C8
:10B15000034313603B6843F010033B60009B9E4237
:10B160007FF78EAE019B9E4280F278814FF48A7BFE
:10B170000BFB0684CDF800B01434676F009B5FFAB8
:10B1800087FB824803FB068327F0FF05ABF1100B1A
:10B190005B7CA0FB0B2B4FEA1B1B002B00F08C8071
:10B1A0007B4B13F80B301D446A6892B2002A63D1BE
:10B1B00014F8050CD4E92013002800F0D082603385
:10B1C00072485B1AA0FB0351890901EB4101A3EB13
:10B1D0004113182B00F1AF83173BA0FB0323DB00C7
:10B1E00003F0F0036948D4E922126032521AA0FB3E
:10B1F0000251890901EB4101A2EB4112182A05D441
:10B20000173AA0FB0212C2F3430213435F48D4E98A
:10B2100024126032521AA0FB0251890901EB41014C
:10B22000A2EB4112182A00F1C883A2F11701A0FB7A
:10B230000121C1F34301D4F89C2041EA0311D4F861
:10B24000983060325148D21AA0FB02539B0903EB9D
:10B250004303A2EB4312182A00F1AD83173AA0FB77
:10B260000223C3F3430343EA011383EA132282EA6E
:10B270001212110700F04383464A1368013313602A
:10B2800026B98022444945484BF004FB009B00222C
:10B2900003FB06835A74676F54F8103C5FFA87FB10
:10B2A00027F0FF05D3F80090ABF1100B374BA3FB51
:10B2B0000B3B4FEA1B1B0BE054F8103C34F80A1C04
:10B2C000D3F80090D9F80C2022EA0102C9F80C202A
:10B2D0005946284616F006F8009B4FF0000C03FB79
:10B2E000068282F810C0E26E012A1CD0042A1AD00D
:10B2F000102A00F04981402A15D0B2F5807F00F075
:10B300000383B2F5806F00F0FF82B2F5805F00F03A
:10B310002B83B2F5803F4FF03C0C14BF6FF4006EEE
:10B320006FF0080E01E06FF0080E09F1180A2246CE
:10B3300048465CF80A1001EA0E014CF80A10E16E6A
:10B3400013F0F0FAE26E012A2CD0042A2AD0102A37
:10B3500000F01D81402A25D0B2F5807F00F0D9820F
:10B36000B2F5806F00F0D582B2F5805F00F0F78211
:10B37000B2F5803F09F1540A14BF4FF4006108216F
:10B3800011E000BF84A705080000FFFFABAAAAAA2E
:10B3900084A70508E8220020884200209C40002065
:10B3A0001F80FCFF0821DAF80030402279480B4367
:10B3B000DFF8E8E110F80BC0CAF80030A16CA26316
:10B3C0000CEB0502D4E90F300343606C43F04003FB
:10B3D0001843E36C0143A06D19435CF80530014349
:10B3E00003EA0E0EE36D41EA0E014CF80510C3B1FD
:10B3F0005169206E21F00701D4F864E00343A06E88
:10B400000B4353615CF8051021F0C07141EA0E0155
:10B410004CF805105CF8053023F4C00303434CF8E6
:10B420000530616B0136236B04F58A74D16093603B
:10B430005949506854F8C43C014054F8C00C1943B1
:10B440005160136823F0F053034313603B6843F0EB
:10B4500010033B60019BB3427FF48FAE98F80D3030
:10B46000D8F8801013F0020FD8F804301A68136A65
:10B470000CBF0B4343EA81031362019B012B7AD07B
:10B4800098F82131D8F8941113F0020FD8F8183138
:10B490001A68136A0CBF0B4343EA81031362019BD2
:10B4A000022B68D098F83532D8F8A81213F0020FA2
:10B4B000D8F82C321A68136A0CBF0B4343EA810395
:10B4C0001362019B032B56D098F84933D8F8BC136C
:10B4D00013F0020FD8F840331A68136A0CBF0B43FD
:10B4E00043EA81031362019B042B44D098F85D3436
:10B4F000D8F8D01413F0020FD8F854341A68136A2D
:10B500000CBF0B4343EA81031362019B052B32D02E
:10B5100098F87135D8F8E41513F0020FD8F86835AB
:10B520001A68136A0CBF0B4343EA81031362019B41
:10B53000062B20D098F88536D8F8F81613F0020FAD
:10B54000D8F87C361A68136A0CBF0B4343EA8103B0
:10B550001362019B072B0ED098F89937D8F80C1876
:10B5600013F0020FD8F890371A68136A14BF43EA31
:10B5700081030B43136203B0BDE8F08F6FF4006EDC
:10B580005AE54FF4006192E56FF4006ECDE64FF49A
:10B59000006108E784A705080000FFFF1F80FCFF8B
:10B5A0005B1A002B40F3CF810A2BD4BF0023012369
:10B5B000D4F88C205B00D4F88810521A002A40F38B
:10B5C00022820A2A01DD43F00103D4F894205B00B3
:10B5D000D4F89010521A002A40F31D820A2A01DD85
:10B5E00043F00103D4F89C205B00D4F89810521A61
:10B5F000002A40F30C820A2A01DD43F00103D4F84B
:10B60000A4205B00D4F8A010521A002A40F3F38162
:10B610000A2A01DD43F00103D4F8AC205B00D4F822
:10B62000A810521A002A40F3E2810A2A01DD43F0F1
:10B630000103D4F8B4205B00D4F8B010521A002AE9
:10B6400040F3D1810A2A01DD43F00103D4F8BC2084
:10B650005B00D4F8B810521A002A40F3C0810A2ABD
:10B6600001DD43F00103D4F8C4205B00D4F8C0101E
:10B67000521A002A40F3AF810A2A01DD43F0010388
:10B68000D4F8CC205B00D4F8C810521A002A40F33A
:10B690009E810A2A01DD43F00103D4F8D4205B0027
:10B6A000D4F8D010521A002A40F38D810A2A01DD05
:10B6B00043F00103D4F8DC205B00D4F8D810521A10
:10B6C000002A40F37C810A2A01DD43F00103D4F80B
:10B6D000E4205B00D4F8E010521A002A40F36181A4
:10B6E0000A2A01DD43F00103D4F8EC205B00D4F812
:10B6F000E810521A002A40F350810A2A01DD43F073
:10B700000103D4F8F4205B00D4F8F010521A002A98
:10B7100040F33F810A2A01DD43F00103D4F8FC2005
:10B720005B00D4F8F810521A002A40F32E810A2A3E
:10B7300001DD43F0010383EA132282EA12121007AB
:10B740007FF41EACCA4AC3F30F13127824F8023CEC
:10B750002F2A7FF41FACC74A22F816301AE45B1A6E
:10B76000002B40F3EA800A2BD4BF00230123D4F836
:10B770008C205B00D4F88810521A002A40F33F81D5
:10B780000A2A01DD43F00103D4F894205B00D4F8C9
:10B790009010521A002A40F373810A2A01DD43F007
:10B7A0000103D4F89C205B00D4F89810521A002AA8
:10B7B00040F362810A2A01DD43F00103D4F8A4209A
:10B7C0005B00D4F8A010521A002A40F34C810A2AD8
:10B7D00001DD43F00103D4F8AC205B00D4F8A810DD
:10B7E000521A002A40F33B810A2A01DD43F001038B
:10B7F000D4F8B4205B00D4F8B010521A002A40F3F9
:10B800002A810A2A01DD43F00103D4F8BC205B0041
:10B81000D4F8B810521A002A40F319810A2A01DD1F
:10B8200043F00103D4F8C4205B00D4F8C010521ACE
:10B83000002A40F308810A2A01DD43F00103D4F80D
:10B84000CC205B00D4F8C810521A002A40F3F780CD
:10B850000A2A01DD43F00103D4F8D4205B00D4F8B8
:10B86000D010521A002A40F3E6800A2A01DD43F084
:10B870000103D4F8DC205B00D4F8D810521A002A57
:10B8800040F3D5800A2A01DD43F00103D4F8E42017
:10B890005B00D4F8E010521A002A40F3C4800A2A50
:10B8A00001DD43F00103D4F8EC205B00D4F8E8108C
:10B8B000521A002A40F3B3800A2A01DD43F0010343
:10B8C000D4F8F4205B00D4F8F010521A002A6FDD8F
:10B8D0000A2A01DD43F00103D4F8FC205B00D4F810
:10B8E000F810521A002A60DD0A2A01DD43F0010334
:10B8F00083EA132282EA121212077FF4BDACC3F36B
:10B900000F1324F8023CC1E46FF0080E4FF0040C52
:10B910000BE509F11C0A082145E56FF0080E4FF010
:10B92000040CFFF789BB09F11C0A0821FFF7BFBB14
:10B930001346FFF7DBBA134654E413F1090FB4BF03
:10B940000023012313E713F1090FB4BF00230123E0
:10B950002EE66FF4006E4FF0040CFFF76DBB09F19B
:10B960001C0A4FF400611EE56FF4006E4FF0040CEA
:10B97000DBE409F11C0A4FF40061FFF798BB0023D8
:10B98000FFF7F5BA0021FFF7DABA0932FFF6D3AEB6
:10B99000CFE60932FFF6C2AEBEE60932FFF6B1AE1F
:10B9A000ADE60932FFF6A0AE9CE60932A0DB9DE7CA
:10B9B000093291DB8EE7002355E400213BE4093294
:10B9C000FFF685AE81E60932FFF674AE70E6093205
:10B9D000FFF663AE5FE60932FFF652AE4EE609327D
:10B9E000FFF641AE3DE60932FFF630AE2CE60932F5
:10B9F000FFF61FAE1BE60932FFF60EAE0AE609326D
:10BA0000FFF6C2AEBEE60932FFF6DFADDBE5093276
:10BA1000FFF6F5ADF1E50932FFF6E4ADE0E50932F8
:10BA2000FFF64EAF4AE70932FFF63DAF39E709327C
:10BA3000FFF62CAF28E70932FFF61BAF17E70932F4
:10BA4000FFF60AAF06E70932FFF6F9AEF5E609326E
:10BA5000FFF6E8AEE4E60932FFF6D7AED3E60932E8
:10BA6000FFF6C6AEC2E60932FFF6B5AEB1E600BFDC
:10BA700035980120389801200932FFF69FAE9BE6E9
:10BA80000932FFF68EAE8AE620B10078B0FA80F077
:10BA9000400970470120704708B520214CF057FA43
:10BAA000034618461BB102780133202AF9D008BD9D
:10BAB000037903F01803082B05D0102B14D033BBE7
:10BAC000B0F80B007047134BB0F80B0093F900303F
:10BAD000591C07D1104B1B78C3EB431300EB8300B9
