:020000040800F2
:10000000F0FF0010BD4C05086137010845D9020812
:100010005D4D05085D4D05085D4D050800000000BB
:100020000000000000000000000000006D37010823
:1000300069370108000000006537010835AF020884
:100040005D4D05085D4D05085D4D05085D4D0508D4
:100050005D4D05085D4D05085D4D05085D4D0508C4
:100060005D4D05085D4D05085D4D050871FD0008F5
:1000700061FD000851FD000841FD00082DFD00084C
:1000800019FD000805FD00085D4D05085D4D0508DA
:100090005D4D05085D4D05085D4D05085D4D050884
:1000A0006D960208F99B02089D9502087D9D020845
:1000B000399B0208799A0208AD9902086513010874
:1000C0006D130108551301085D1301085D4D050806
:1000D0005D4D050841B0020835B0020899AF02082D
:1000E0005D4D05085D4D050851850108CD94020858
:1000F0003D9702085D4D05080D980208F1FC0008C7
:100100005D4D05085D4D0508DD9802085D4D05084B
:100110008DAF020881AF020875C9030805C803083E
:10012000DDFC0008C9FC0008B5FC0008A1FC0008C3
:100130008DFC00085D4D05085D4D05085D4D050809
:100140005D4D05085D4D05085D4D05082952010806
:1001500079FC000865FC000851FC000875AF020836
:10016000451301084D1301085D4D05085D4D050857
:100170005D4D05085D4D05085D4D05085D4D0508A3
:080180005D4D05085D4D050809
:080188006448050001000000BD
:1001900010020100302100202C210020000000006E
:1001A0006C0700081F0210004421002034210020A9
:1001B000000000008D84000814000300345A002061
:1001C000A05A002000000000700700080B30180043
:1001D000484A0020A45A00200000000074070008CC
:1001E0001F302400604A0020BC5A0020000000009C
:1001F0008C07000805020400C8550020E05A0020C2
:1002000000000000B007000803010A00A04A002017
:10021000E45A002000000000B407000813020400A4
:10022000AC480020F05A002000000000BE07000883
:10023000070202009C6C0020F06C0020000000000F
:10024000C4070008F6210C00CC6B0020F46C0020E1
:1002500000000000C807000802000C00746B0020BA
:10026000006D0020000000000000000006020C00ED
:100270006C6C00200C6D002000000000D193000881
:1002800008120F00EC6B0020186D00200000000029
:100290001D840008F7010600E06B0020286D002097
:1002A00000000000D407000820320A006478002013
:1002B0005878002000000000A5EC01081C02100086
:1002C000E07300207078002000000000B183000877
:1002D00028101000587700208078002000000000CF
:1002E0001DED010804120200F8770020907800202C
:1002F00000000000DA0700080F020100F477002078
:100300009478002000000000DC07000801200800AD
:10031000047000209878002000000000DE0700082C
:100320000A702800806F0020A078002000000000E4
:10033000C5EC01080EA06E01106E0020C8780020E8
:100340000000000031F8030801010400746D002072
:10035000387A0020000000000000000000010400C6
:100360006C6D00203C7A002000000000E6070008C9
:1003700002010300686D0020407A002000000000A8
:10038000C98501081A023C004C7B0020687E0020D1
:10039000000000004193000827000400487B002073
:1003A000A47E002000000000EA0700080902010006
:1003B000C89A0020409B002000000000EE070008C3
:1003C0002202140198980020449B002000000000A5
:1003D0009D9500080C109C00D0880020589C00209F
:1003E000000000009D85010801020500B48800207E
:1003F000F49C0020000000005506030800020500E0
:10040000AC880020FC9C00200000000000000000E0
:100410001B02080088880020049D002000000000C6
:10042000DD8300081E000600F48500200C9D0020DE
:1004300000000000F00700081B100C00F8800020EE
:10044000149D002000000000F51903082102F000AF
:10045000787F0020209D0020000000001108030884
:1004600005100600488B0020109E002000000000B0
:10047000F60700083710240024880020189E00206A
:1004800000000000FC0700080E020200308B002074
:100490003C9E002000000000200800081610060006
:1004A0006C7F0020409E0020000000002208000811
:1004B0002F1022001C9B0020489E002000000000FE
:1004C0002808000823100E00488500206C9E00209C
:1004D0000000000035ED0108F5518800A87E0020DD
:1004E0007C9E0020000000003553030826100C00FD
:1004F000109F0020049F002000000000B1FB0208B4
:100500000A020A00D4A400201CA70020000000005A
:10051000417D030803000100FC9F002028A7002064
:10052000000000000000000003123300E8A60020D5
:100530002CA70020000000004A08000825102C010C
:1005400008A5002060A700200000000000000000B7
:1005500010100200449F00208CA800200000000022
:100560007E0800081A000E00C8B00020F4B0002079
:1005700000000000800800081900050004B00020F9
:1005800004B10020000000008E080008F8210600D9
:1005900074AE00200CB10020000000009408000898
:1005A0001500700078AC002014B10020000000009D
:1005B000000000002A00600068B0002084B1002024
:1005C0000000000009F803082C001000F4B100201E
:1005D000E4B1002000000000F9F603082B0024001D
:1005E00028B2002004B2002000000000C9F6030871
:1005F0002920780068AA00204CB2002000000000EA
:10060000000000000400800098E8002090F2002024
:1006100000000000000000001300040078E8002043
:1006200010F30020000000009C080008FD012400D9
:1006300054E8002014F3002000000000B1840208F8
:1006400018202E0020E8002038F3002000000000D1
:100650000595000806101A007CD6002068F30020DB
:10066000000000004DFA0308FB01010078D60020CD
:1006700084F300200000000071950008FC010900CF
:1006800044D5002088F30020000000008195000878
:100690003400100034D4002094F300200000000047
:1006A00021FA0308110208000CD40020A4F3002052
:1006B00000000000A00800081212040004D400206A
:1006C000ACF3002000000000A80800081220100071
:1006D000F4D30020B0F3002000000000AC080008B4
:1006E0000D004C0058C70020C0F30020000000009F
:1006F0000D870208F90104001CC700200CF400203B
:100700000000000027850208FA01020004C1002051
:1007100010F4002000000000AD8500080202030074
:1007200048B5002014F40020000000000000000084
:100730000C02040034B5002018F400200000000072
:100740007584000811000C004EB500201CF4002038
:100750000000000005810208FE011400CCB4002056
:0C07600028F4002000000000E9830008DD
:10076C000000000003000000AE014A015E012C01F4
:10077C0064010100000001000A019A01001E0A0038
:10078C000000000000010000000500000102030051
:10079C00000000000000000000000000000000004D
:1007AC000080070000000000040101006C1600002E
:1007BC000000000001000000013C000000000000EF
:1007CC0001000000020200003D01000000000000DA
:1007DC000000E8036400040A0001900100002003FB
:1007EC0000002700000001000000200001010000B3
:1007FC0020003200C800D0079600140032002800F8
:10080C00B00440060005500014000F0008006400FE
:10081C00010001000000C4090000190000000000E4
:10082C0000000000000000000000000000000000BC
:10083C0000000000000000000000000000000000AC
:10084C00000000000000000000000000000000009C
:10085C00000000000000000000000000000000008C
:10086C00000000000000000000000000000000007C
:10087C00010000057E05EA05B4053200E803D00747
:10088C0000000000280100000401F4011400000025
:10089C00080045300000000001010101FFFFFFFFCF
:1008AC00000000010000054F4E5834000008000005
:1008BC001A0300000000000000000000000000000F
:1008CC000000000000000000000000000403090408
:1008DC0012010002000000408304205700020102B4
:1008EC00030100007DD30008098500080585000878
:1008FC0001850008E5950008FD840008F9840008CE
:10090C00AC67050801390108E91A010841440108DE
:10091C000000000000000000454101086140010892
:10092C00000000000000000000000000211601087B
:10093C00A185000895850008899B0008A59B0008E7
:10094C004D8500086D9B0008519B00080068214CE8
:10095C001F0000001C0000001F0000001E00000013
:10096C001F0000001E0000001F0000001F00000000
:10097C001E0000001F0000001E0000001F000000F1
:10098C00FF01FF0000000000000000000102030452
:10099C00060708090403090412010002EF020140D2
:1009AC00830456320002010203010000120100020E
:1009BC0002020040830440570002010203010000C0
:1009CC0009022000010104C03209040000020806DB
:1009DC005005070581024000000705010240000098
:1009EC0009026400030100C0320904000001030085
:1009FC0000000921110100012226000705830308CC
:100A0C00000A080B010202020100090401000102A4
:100A1C000201000524001001052401000204240237
:100A2C00020524060102070582030800FF090402DF
:100A3C0000020A00000007050102400000070581C2
:100A4C000240000009024300020100C03209040008
:100A5C00000102020100052400100105240100011F
:100A6C00042402020524060001070582030800FF86
:100A7C0009040100020A0000000705010240000001
:100A8C000705810240000000FF000000F47105081A
:100A9C00000000000000000000000000000000004A
:100AAC00000000000000000000000000000000003A
:100ABC000000000000FFFF0000000000AA55050127
:100ACC0000000100C87105080000000000000000D3
:100ADC00000000000000000000000000000000000A
:100AEC00000000000000000000000000FF1FFF1FBE
:100AFC0005010905A101A1000501093009310932DF
:100B0C00093309350934094009381581257F7508E1
:100B1C0095088102C0C0000009022200010100E01A
:100B2C003209040000010301020009211101000136
:100B3C002226000705830308000A000000000000BD
:100B4C00010203040102030406070809A543010876
:100B5C00A942010801470108E51601085D1C0108BE
:100B6C00F516010811170108BD160108AD1601088C
:100B7C0000000000000000002D202D2D202D2D2D1B
:100B8C002D202D2D2D2D0000000000000000000058
:100B9C0000000000000000AA550B010000AA550738
:100BAC00010000AA550902000000AA5503009F008D
:100BBC0001000000C0120000745A00200000000068
:100BCC00985A00200000000000000000E06C00209B
:100BDC000800000000000000D06C0020080000009D
:100BEC0024D9050830D905083CD9050848D9050889
:100BFC0054D9050860D9050830E80508B41806086A
:100C0C0098170608B0D805084440060814D90508FA
:100C1C0018D905081CD9050820D905086CD9050870
:100C2C0070D9050874D90508F015060878D9050897
:100C3C001900C800F4012003FFFFFFFF01000000B2
:100C4C004DE4010800000000E47B05082070002042
:100C5C00702D7200FFFFFFFFD6010000425702000B
:100C6C0000000106425702000000010601010000CD
:100C7C0000010101002D202D2D202D2D2D2D202D9D
:100C8C002D2D0000000000000000000000000000FE
:100C9C00000000000000000000000000D8900508D3
:100CAC000000000000000000649105080100000035
:100CBC00FA0000000100000001000000010100002A
:100CCC00D66F002000C80100D56F00200050010035
:100CDC00D46F0020005A0100D26F002002000000E7
:100CEC0060800508FCD9050804DA05087AF20020B2
:100CFC000100C4090000000078F200200100C409C2
:100D0C000000000076F200200100C4090000000081
:100D1C0074F200200100C4090000000070F20020F1
:100D2C000100C4090000000072F200200100C40997
:100D3C00000000006EF200200100C4090000000059
:100D4C006CF200200100C409000000008A6D002034
:100D5C000100C80001000000886D002032003075D1
:100D6C0032000000866D0020055A0500836D0020BE
:100D7C0000FF0100856D002001000000BC05002073
:100D8C00816D00200200000088A00508826D002003
:100D9C0000FF0100846D002001000000BC05002054
:100DAC00806D00200200000088A005081070002053
:100DBC00EE02CA08010000000E70002000C80100FD
:100DCC00640000000D70002000C8010064000000E9
:100DDC000C700020020000006C8005087A6D002069
:100DEC0080C1803E05000000786D002080C1803EEF
:100DFC0005000000726D002080C1803E05000000DF
:100E0C00706D002080C1803E050000006B6D0020DD
:100E1C0000FF0100646D00206400F401010000007B
:100E2C00636D00200400000078800508626D0020CE
:100E3C00020000008C800508FF6D00200D000000F2
:100E4C0098800508FC6D002000640100FA6D0020FC
:100E5C00320010270A000000F96D00200D00000080
:100E6C0098800508F86D00200D000000988005089A
:100E7C00F76D002002000000D08005080000000083
:100E8C0000000000DC800508805500209CFF2C0130
:100E9C000000000020730020E0150C17000000007B
:100EAC002273002002000000148105081C70002031
:100EBC000100FF7F010000001B70002002000000F9
:100ECC0020810508016E0020030000003081050818
:100EDC00006E00200300000030810508B46F002074
:100EEC000000E80301000000B26F00200000E803DE
:100EFC0001000000B06F00200000E80301000000BA
:100F0C00AE6F00200000E80301000000AC6F002071
:100F1C000000E80301000000AA6F00200000E803B5
:100F2C0001000000A96F002000140100A86F002030
:100F3C000300000040810508C06F00200000F40190
:100F4C0001000000BE6F00200000F4010100000051
:100F5C00BC6F00200000F40101000000BA6F0020FB
:100F6C000000F40101000000B86F00200000803E7A
:100F7C0001000000B66F00200000803E0100000060
:100F8C00E96F002019640100E86F002002000000E6
:100F9C0050810508E66F0020E803D0070A00000026
:100FAC00E46F0020006401000A000000D96F0020EB
:100FBC0000640100D86F002000640100E06F002085
:100FCC00006401000A000000DF6F002000640100D3
:100FDC000A000000DE6F0020006401000A0000001F
:100FEC00E36F0020006401000A000000E26F0020A3
:100FFC00006401000A000000E16F002000640100A1
:10100C000A000000DD6F002001FF01000A00000053
:10101C00DC6F002001FF01000A000000DB6F0020E4
:10102C0001FF01000A0000000A6E00200000F4011C
:10103C0001000000086E00200000F4010100000017
:10104C00066E00200000F40101000000046E002078
:10105C000000F40101000000026E00200000F40109
:10106C0001000000D16F002000640100D06F00204F
:10107C0000640100CF6F002000640100CE6F0020DF
:10108C00FF080100CD6F00200164010035EA010862
:10109C00F9E901085C810508CC6F002000640100AF
:1010AC00CA6F00201400E80301000000C86F002084
:1010BC00E80330750A000000C66F002000C801006C
:1010CC00C56F002000C80100C46F002000C80100DB
:1010DC00C36F0020006401000A00000000700020B3
:1010EC000000D00701000000FB6F002000C80100C9
:1010FC00FA6F002000C80100F96F002000C8010041
:10110C00FE6F00200000D00701000000F86F0020E7
:10111C0000C80100F76F002000C80100F66F002026
:10112C0000C80100FC6F00200000D0070100000087
:10113C00F56F002000C80100F46F002000C801000A
:10114C00F36F002000C801000000000069E70108EF
:10115C00CC810508F56D002031000000688205087F
:10116C00F46D002000C80100F26D0020E803D007E8
:10117C00010000004F4D4E494E5854340000000001
:10118C007F6D0020000301007E6D00200003010034
:10119C00C9E60108A1E60108308305085DE60108EF
:1011AC0011E6010884830508F1E60108090B020821
:1011BC00048405087C6D00200103010095EB0108F7
:1011CC0069EB0108F88605089DE5010859E5010859
:1011DC005C8705087FE701089D170208F88705085A
:1011EC00FD06020800000000A0880508710E020828
:1011FC00F5EB01083C890508D1E701080000000067
:10120C00BC890508A9E8010855E80108208A0508E9
:10121C0039E90108FDE80108BC8A050871EA0108F2
:10122C00B9EA01083C8B0508D76F002001060100C4
:10123C0019E80108E5E70108388C050875E901088B
:10124C006D0B0208A88C0508EDEA0108F10B0208E9
:10125C00888D0508C26F00200103010039E70108E1
:10126C0009E701085C8E0508C1EB010800000000CD
:10127C00C08E0508E1E50108D90A0208248F05088B
:10128C000000000000000000B08F050841EB0108D1
:10129C00690C0208309005085E6D002088136F17EA
:1012AC0001000000606D002088136F170000000023
:1012BC00FE4A00200000000000000000FC4A002054
:1012CC000000000000000000FA4A002000000000AE
:1012DC0000000000F84A00200000000000000000A0
:1012EC00F64A00200000000000000000F44A002034
:1012FC0000000000000000008C0400200000000032
:10130C0000000000366D002002000000B8910508B6
:10131C005C6D002088136F1701000000C055002081
:10132C0088136F1700000000EDE4010800000000B6
:10133C00C4910508527300200100000018920508A2
:10134C00C25500200100000024920508B855002069
:10135C00020000002C9205080000000000000000B4
:10136C0038920508D9E4010800000000D492050861
:10137C000000000000000000289305080000000099
:10138C000000000098930508BC550020E0150C17D0
:10139C0000000000685E0C0001000000A00F0000BF
:1013AC00B80B00000102FFFF01000000411C010806
:1013BC002D1B0108DD46010800000000A9160108DC
:1013CC00954201087D1A01080D4201080000000039
:1013DC000000000065160108F9150108ED1501085B
:1013EC00113801082D380108F5370108D9370108E3
:1013FC00BD370108F91B0108091B01081D4601082E
:10140C00000000007D16010811420108511A010864
:10141C006D41010800000000000000007116010879
:10142C000100000000000100E0010000FFFFFFFFD1
:10143C000801FFFFFF0000000000803F00000000DB
:10144C0000000000000000000000803FFFFFFFFFD5
:10145C00FF00000001000000FFFFFFFF0000803FC5
:10146C000000000000000000000000000000803FB1
:10147C000000000000000000000000000000000060
:10148C000000000000000000000000000000000050
:10149C00000000000000803F000000000000000081
:1014AC00000000000100000000000401000000002A
:1014BC00000000021000000007000800E9150108F8
:1014CC00E5150108E1150108D5150108D11501082C
:1014DC00DD150108D91501080000400004000004C6
:1014EC00158701080000000000000000000000004B
:1014FC00010000000060024010600240000000008B
:10150C0000000000000B00000000000000000000C4
:10151C000000000000600240286002400100000052
:10152C0000000000060C000000000000000000009D
:10153C000000000000600240406002400200000019
:10154C0000000000100D0000000000000000000072
:10155C0000000000006002405860024003000000E0
:10156C0000000000160E000000000000000000004B
:10157C0000000000006002407060024004000000A7
:10158C0000000000200F0000000000000000000020
:10159C00000000000060024088600240050000006E
:1015AC0000000000261000000000000000000000F9
:1015BC000000000000600240A06002400600000035
:1015CC0000000000301100000000000000000000CE
:1015DC000000000000600240B860024007000000FC
:1015EC0000000000362F000000000000000000008A
:1015FC000000000000640240106402400000000083
:10160C000000000000380000000000000000000096
:10161C000000000000640240286402400100000049
:10162C00000000000639000000000000000000006F
:10163C000000000000640240406402400200000010
:10164C0000000000103A0000000000000000000044
:10165C0000000000006402405864024003000000D7
:10166C0000000000163B000000000000000000001D
:10167C00000000000064024070640240040000009E
:10168C0000000000203C00000000000000000000F2
:10169C000000000000640240886402400500000065
:1016AC0000000000264400000000000000000000C4
:1016BC000000000000640240A0640240060000002C
:1016CC000000000030450000000000000000000099
:1016DC000000000000640240B864024007000000F3
:1016EC000000000036460000000000000000000072
:1016FC00000000003C030608E4FB050800000000A5
:10170C00DD850108A0860100040000000000000037
:10171C0000000000000000000000000000000000BD
:10172C0000000000000000000000000000000000AD
:10173C00000000003C0306084403060800000000FB
:10174C0081810208E8030000040000000000000092
:10175C00000000000000000000000000000000007D
:10176C00000000000000000000000000000000006D
:10177C000000000014E005084C03060800000000FF
:10178C00458A03087D0000000600000000000000F0
:10179C00000000000000000000000000000000003D
:1017AC00000000000000000000000000000000002D
:1017BC0000000000540306080000000000000000B8
:1017CC000DEB0208E803000003000000000000001D
:1017DC0000000000000000000000000000000000FD
:1017EC0000000000000000000000000000000000ED
:1017FC000000000058030608000000000000000074
:10180C008D78040810270000030000000000000081
:10181C0000000000000000000000000000000000BC
:10182C0000000000000000000000000000000000AC
:10183C00000000008C3E060800000000C5F4030800
:10184C00F9D902085F7600000500000000000000D6
:10185C00000000000000000000000000000000007C
:10186C00000000000000000000000000000000006C
:10187C0000000000E43E060800000000000000002C
:10188C0019F40208102700000100000000000000FD
:10189C00000000000000000000000000000000003C
:1018AC00000000000000000000000000000000002C
:1018BC0000000000640306080000000000000000A7
:1018CC0083810208E803000005000000000000000E
:1018DC0000000000000000000000000000000000FC
:1018EC0000000000000000000000000000000000EC
:1018FC00000000007003060800000000000000005B
:10190C00D18D0108204E00000300000000000000F3
:10191C0000000000000000000000000000000000BB
:10192C0000000000000000000000000000000000AB
:10193C00000000008003060800000000000000000A
:10194C00D58B0108204E00000300000000000000B1
:10195C00000000000000000000000000000000007B
:10196C00000000000000000000000000000000006B
:10197C0000000000900306080000000000000000BA
:10198C00A1EF0208400D030003000000000000005E
:10199C00000000000000000000000000000000003B
:1019AC00000000000000000000000000000000002B
:1019BC000000000068D705080000000000000000CF
:1019CC0065E802081027000001000000000000007C
:1019DC0000000000000000000000000000000000FB
:1019EC0000000000000000000000000000000000EB
:1019FC00000000002CF905080000000000000000A9
:101A0C005925030810270000030000000000000007
:101A1C0000000000000000000000000000000000BA
:101A2C0000000000000000000000000000000000AA
:101A3C0000000000A00306080000000000000000E9
:101A4C0019700208A08601000100000000000000CF
:101A5C00000000000000000000000000000000007A
:101A6C00000000000000000000000000000000006A
:101A7C0000000000A80306080000000000000000A1
:101A8C00298A020850C30000010000000000000079
:101A9C00000000000000000000000000000000003A
:101AAC00000000000000000000000000000000002A
:101ABC00000000000CDD0508000000000000000024
:101ACC00A1FB0208A086010000000000000000003D
:101ADC0000000000000000000000000000000000FA
:101AEC0000000000000000000000000000000000EA
:101AFC000000000044DC05080000000000000000AD
:101B0C0055870208A86100000100000000000000D9
:101B1C0000000000000000000000000000000000B9
:101B2C0000000000000000000000000000000000A9
:101B3C0000000000B00306080000000000000000D8
:101B4C0031640308A08601000100000000000000C1
:101B5C000000000000000000000000000000000079
:101B6C000000000000000000000000000000000069
:101B7C000000000090D705080000000000000000E5
:101B8C0007B10208A00F00000100000000000000D7
:101B9C000000000000000000000000000000000039
:101BAC000000000000000000000000000000000029
:101BBC0000000000BC03060800000000000000004C
:101BCC00255403081027000001000000000000004D
:101BDC0000000000000000000000000000000000F9
:101BEC0000000000000000000000000000000000E9
:101BFC0000000000C8030608000000000000000000
:101C0C003D800208A00F0000010000000000000051
:101C1C0000000000000000000000000000000000B8
:101C2C0000000000000000000000000000000000A8
:101C3C000000000030E70508000000000000000074
:101C4C003D4803081A41000001000000000000009C
:101C5C000000000000000000000000000000000078
:101C6C000000000000000000000000000000000068
:101C7C000000000004DC050800000000000000006B
:101C8C00151F0108102700000100000000000000D3
:101C9C000000000000000000000000000000000038
:101CAC000000000000000000000000000000000028
:101CBC0000000000F0FB0508000000000000000020
:101CCC00251F02081A41000001000000000000005E
:101CDC0000000000000000000000000000000000F8
:101CEC0000000000000000000000000000000000E8
:101CFC0000000000D40306080000000000000000F3
:101D0C007D250108400D03000000000000000000CC
:101D1C0000000000000000000000000000000000B7
:101D2C0000000000000000000000000000000000A7
:101D3C0000000000DC0306080000000000000000AA
:101D4C003F810208400D030000000000000000006D
:101D5C000000000000000000000000000000000077
:101D6C000000000000000000000000000000000067
:101D7C0000000000E4030608000000000000000062
:101D8C00A55E030850C30000030000000000000023
:101D9C000000000000000000000000000000000037
:101DAC000000000000000000000000000000000027
:101DBC0000000000F0030608000000000000000016
:101DCC00498B010840420F00000000000000000099
:101DDC0000000000000000000000000000000000F7
:101DEC0000000000000000000000000000000000E7
:101DFC0000000000FC0306080000000000000000CA
:101E0C00F9F2020850C300000000000000000000BE
:101E1C0000000000000000000000000000000000B6
:101E2C0000000000000000000000000000000000A6
:101E3C00000000000000803F803E06080000080201
:101E4C0005030300883E0608010008020504030090
:101E5C000C0306080200FE010110030058DD050802
:101E6C000300140200030000903E060804001F0249
:101E7C0001000800983E060805001F020101080039
:081E8C00FFFF0000FFFFFFFF54
:1080000003685A1C02601970704700BF2DE9F047E1
:10801000089C2578002B804689460CBF4FF0200A2B
:108020004FF0300A661C25B3002A26DD334601E0F6
:10803000024698B113F8011B501E0029F8D1971E73
:1080400060B13D46013D51464046C8476B1C002B80
:10805000F8DC257827EAE770013045B1041B294692
:108060004046C847301916F8015B002DF7D1BDE82E
:10807000F087002A03DC2846F9E70020EEE7571EC8
:10808000DFE700BF2DE9F04714461D4606464FF4D2
:108090007A720023204629464CF044FC4D4BDFF811
:1080A00048814D4A4D4F034488FB03101844D917AB
:1080B00082FB032CC1EB601088FB002887FB0327A1
:1080C0009C44474AC1EBEC2CC0EB001E82FB0C2900
:1080D000A3EB8E0E1F44434A86F806E0C1EB274708
:1080E0004FEAEC7E08EB000ACEEBA90E82FB07827A
:1080F0004FEAE0780EEB4E0EC8EB6A18ACEBCE0CF4
:10810000C8EB0818DFF8E4E086F804C0A0EB8800AC
:1081100070718EFB0303F817C0EBE21240F2B5500A
:1081200000FB1272C1EBE353B2F5896F4FEA83078C
:108130003CDA40F2DA239A4242DCB2F5B77FB4BFB0
:108140004FF0000E4FF0010E4FEA4E09DFF8A0800D
:1081500009EB0E0308EBC3031FFA8EFCD88A09EB68
:108160000E0108EBC10116310B2301E031F8020DBD
:10817000904218DD013BF9D1CE44012338F83E008E
:10818000B37007F5FA670132121ABC44F270A6F810
:1081900000C0204629464FF47A7200234CF0C2FBFF
:1081A0003281BDE8F0870133DBB2E9E74FF0030C21
:1081B000E64640F29650DFF838804FF00609CEE7E9
:1081C0004FF0020CDFF82880E64640F229404FF0DD
:1081D0000409C4E780BC92C7C5B3A29107452EC26B
:1081E000ABAAAA2A73B06D1689888888792D0311E5
:1081F000506505080028F0B403DA2D230B704042C7
:108200000131092804464FF0010307DD03EB830326
:108210005B00B0FBF3F2092AF8D883B10F48A0FB4A
:108220000326B4FBF3F2092A02F1570C02F13007DE
:1082300009DD03FB1244F30801F801CBEFD1002361
:108240000B70F0BC704703FB1244F30801F8017B8C
:10825000E5D100230B70F0BC704700BFCDCCCCCC77
:10826000884270B44FF0010442D301FB04F4B0FB28
:10827000F4F58D42F9D2ECB142BB092D04FB150097
:1082800005F1570605F130020EDDB4FBF1F403F8F9
:10829000016B7CB1B0FBF4F5092D04FB150005F171
:1082A000570605F13002F0DCB4FBF1F403F8012BC2
:1082B000002CEFD100221A7070BC704703F8016BDC
:1082C000B4FBF1F4002CF5D0B0FBF4F5092D04FB60
:1082D000150005F1370605F13002EFDCB4FBF1F4CF
:1082E00003F8012B002CEFD100221A7070BC7047EC
:1082F0000546002AEAD1C0E790ED057A90ED004AE4
:10830000D0ED066AD0ED014AD0ED047A90ED035A23
:10831000D0ED025AA4EE007AB0EE406AB0EE470A01
:10832000B0EE667AA4EE867A67EEC07AA5EE407A61
:10833000E5EE867A80ED057AC0ED067A704700BFDB
:10834000D0ED057A90ED013AD0ED003AD0ED064A35
:1083500090ED024A90ED077A90ED035A90ED086A8D
:10836000D0ED045AC0ED067AF0EE406A27EE830A9B
:10837000C0ED056AA3EEA60A80ED087AA4EE240AF1
:10838000A5EE470AA5EEC60A80ED070A704700BFB2
:10839000D0ED007A90ED017A30EE670AE7EE007AD0
:1083A000B0EE670AC0ED007A704700BF704700BFAB
:1083B00030B42C230022182504240221C370012389
:1083C000C572C4730270827182734170417283708E
:1083D000C3710372837230BC704700BF06224FF432
:1083E0007A7302704360704730B430211423312215
:1083F00034254FF601744170C371FF21012342718E
:108400000022C5700482817403720370837103714A
:10841000837042818281C28130BC7047144BFF223D
:10842000F0B54FF0FF34C2700271027242724273B3
:10843000827303F10C0EA446172716261525002279
:1084400002EB820281189E4585544E708F7081F830
:1084500003C00C710AD093F90620DD791E7A5F7A89
:1084600093F90AC093F90B400633E9E7F0BD00BF6A
:10847000B065050810B41F210124022200230470F6
:1084800041708270C3705DF8044B704770B403464E
:1084900000F11001FF221A705A7002338B42FAD198
:1084A0000B4B4FF0FF3103F10F060C46002205E0A5
:1084B00093F9044093F9051013F8032F00F81240C4
:1084C00000EB42059E426970F2D170BC704700BF5C
:1084D000C465050830B41D6995420AD314460A469E
:1084E00021448D42996938BF2A1B214430BC4CF08D
:1084F000B7BC30BC704700BF0020704701207047F8
:1085000001207047002070474FF40070024B10604C
:108510009B680B600020704720C70020013A30B4F0
:10852000D2B28C1C04EB42040025020F092AD3B2FC
:1085300003F130028ABF37330A700B704D7002317D
:108540008C424FEA0010F0D130BC70470B4A0C4B04
:1085500010681B681A22C0180A8001D109487047A8
:1085600010B5094B09491C680822FFF7D7FF2046C0
:1085700004220749FFF7D2FF024810BDE8F7FF1FAA
:10858000ECF7FF1F88010020EAF7FF1F8A01002097
:108590009A01002004230B8000487047A4010020AA
:1085A00012230B8000487047A80100203E220223BE
:1085B00002704370704700BF08307047704700BFBB
:1085C000816170476D4B2DE9F04F1C686C4BB3F81F
:1085D0000AE0B3F804809A894FEA0E2AB4EB0A0441
:1085E0004FEA1E6B4FF0000587B065EB0B05CDE938
:1085F00000450746009C1889019EA0FB044500FB2E
:108600000655E00940EA45604FEA08448C46E91106
:108610004FEA184510EB0408D888009C41EB050987
:10862000CDE90489A0FB0445B3F8028000FB0655A0
:10863000200A40EA05604FEAC83429124FEA58453B
:1086400010EB040841EB05090099A2FB010102FBB4
:1086500006114FEAD05A4AEA412A1AF5FA634FEA5C
:10866000E15B4BF10004B3F5FA6FCDE9023474F12C
:108670000003424E64DA0524AAFB040104FB0B113B
:1086800000FB0BF40AFB0144DDE90423A0FB0A0113
:1086900021444D104FEA3004121B4FEA900463EB63
:1086A000050344EA8174B8EB0408CDE90423DDE94D
:1086B000023434484FEAA10569EB05094FF0FF3158
:1086C000834274EB010326DA40F6AC501AEB000249
:1086D0004FF000014BEB010302FB03F1A2FB02236D
:1086E00003EB4103D400DD00101B45EA527563EB38
:1086F0000501DDE9044524184D41CDE904450B246D
:10870000A2FB040104FB031149104FEA3000B8EB4F
:10871000000869EB0109DDE900325343009ADDE905
:108720000201A2FB02AB0BEB430B4FEADA7242EA07
:108730004B02801A4FEAEB7361EB0301CDE90201B2
:1087400097B17168A1FB082301FB0933540D5D1536
:1087500044EAC324DDE90423A21A65EB03031D46A2
:10876000D30B43EA45433B60BCF1000F02D0029BB0
:10877000CCF8003007B0BDE8F08F00BF60170020D4
:10878000BC77002024FAFFFF2DE9F04FDFF8DCC1B1
:10879000754CDCF808502288B4F90AA0C2EB251306
:1087A0005200C2EBE502B4F902505B436A43B4F9EC
:1087B00004501B135D43AD1305EBE225B5F5FA320A
:1087C0004FEAE57B85B04BF1FF33CDE90023DDE9CE
:1087D00000325343009AA561A2FB0289CDE9020150
:1087E000B4F908200199009809EB43095143D317C4
:1087F00000FB0311A2FB00230B444FEAEA7B0AFBB8
:1088000009F11F0308FB0B13AAFB080119444FEAE7
:10881000102A4AEA016A16034FEA212B47EA125747
:108820001AEB0602E6884BEB070312F1000A43F548
:10883000004BAAFB060106FB0B114A10CB1752EAAC
:10884000030100F08E80B4F91060009806FB09F176
:10885000F71708FB0711A6FB08673944B4F90E8027
:108860008B4601994FEAE87908FB01F100FB0911F9
:10887000A8FB00898944DCF80C104FEA4947C1F590
:10888000801C47EAD837B2464FEA4846B4F90C8014
:108890001AEB060A66464BEB070BF7174FEAC806BA
:1088A000019600260096F907DDE900674FEACC70D3
:1088B00016EB0A0647EB0B0741EA5C01801B61EBF4
:1088C000070140F6354C8946A0FB0C010CFB091151
:1088D0004CF028F8B4F91620B4F914A04E13470B45
:1088E00047EAC14702FB06FCD31707FB03CCA2FBF8
:1088F00007236344564307FB0366A2FB0723334465
:10890000560E46EAC31632184FEA636747EB010377
:1089100080460AFB01F14FEAEA7B08FB0B17AAFB32
:1089200008013944C60C46EA413612EB06084FEA04
:10893000E147B4F9122043EB07094FEA182141EA55
:10894000096113010B44029A0AB11B0A1360039BCD
:1089500023B105EB850580352D121D6005B0BDE8FE
:10896000F08F0023EFE700BFD877002060170020CA
:108970007047704770472DE9F041334B334E1A8AE8
:108980007489B6F91450B6F90480B6F90E70B6F9C8
:1089900020C05B69121B34895443E213B6F91240BC
:1089A0001544E40294FBF5F4B6F902501444A4F51E
:1089B0007A6E0EFB0EF20EFB05F50EFB08FEB6F905
:1089C0000C80F4611213574302FB08F2121402EBFD
:1089D0006E32ED1205EBE7270232B6F90050B6F819
:1089E00006E0921002F5004207EB85070EFB02F24B
:1089F00007FA0CF74FEAD23E02374CF25032A3EBA3
:108A0000A70742FA0CF37B4355BF5B00B3FBFEF3B1
:108A1000B3FBFEF35B0078B11A1202FB02F540F6DD
:108A2000DE326A430A4D12145D4302EB254202F620
:108A3000CF6203EB2213036021B10A235C430834A5
:108A400024110C60BDE8F0816017002098770020A9
:108A500043E3FFFF0A4B1A68642353434FF48052E9
:108A600093FBF2F30360074B1A880A235343302227
:108A700093FBF2F303F584531A330B60704700BF86
:108A8000D0770020CC7700204FF400630384704738
:108A90004FF40063038470474FF40063038470470E
:108AA00010B500F10C0400222121204649F002F902
:108AB000FC222021204649F0FDF8402224212046B6
:108AC00049F0F8F80C222321204649F0F3F800225F
:108AD0002221204649F0EEF8642022F087F9012097
:108AE00010BD10B500F10C0470220021204649F0A1
:108AF000E1F820220121204649F0DCF80022022181
:108B0000204649F0D7F8642022F070F9012010BD0A
:108B10000122482149F0CEB80122582149F0CAB8B3
:108B20003122F42149F0C6B8044B93F82020920179
:108B3000343202F0FC02F42149F0BCB898770020EE
:108B40002E22F42149F0B6B8034690F82B0028B144
:108B5000002283F82B20C3F82220DA84704700BF5C
:108B6000704700BF01207047034690F8640028B1A9
:108B7000002283F864209A65A3F85C20704700BF48
:108B8000704700BFF0B4037C456902681F2B37D9DA
:108B9000203B2021546899400C4223D010249C4053
:108BA000D160D4605168D940CE074ED4EFF3118321
:108BB000502282F31288EA6B1168C90709D45468FD
:108BC000002C52D1D5E909618E4243D1012285F8AA
:108BD0006020DBB283F31188037C02681F2B1946E7
:108BE00014D9203B082150689940084200D0D16038
:108BF0000421506801FA03F3184223D1F0BC7047F6
:108C0000202416689C4026420FD11946082310687C
:108C10008B40184200D093600423106803FA01F1DE
:108C20000842EBD09160F0BC7047102199409460ED
:108C300091601168D940CC07B8D5012101FA03F33E
:108C40009360B3E7D360F0BC7047012101FA03F3EE
:108C5000D360ABE7AF690F44D7600ED82E69711AA5
:108C60005160AC62002185F86010116841F001018B
:108C7000DBB2116083F31188AEE7711A5160AE6206
:108C8000F0E700BF2DE9F041B14DB24C2A782378CE
:108C90009A4240F01B81B04B1A78002A7CD0AF4B2F
:108CA0001E78AF4B002E79D11968B3F82C714E6243
:108CB0008889012A40EA07008881A3F82C6157D0EF
:108CC000D3F83011B3F85C724E628889022A40EA08
:108CD00007008881A3F85C624AD0D3F86012B3F829
:108CE0008C734E628889032A40EA07008881A3F8C2
:108CF0008C633DD0D3F89013B3F8BC744E6288896E
:108D0000042A40EA07008881A3F8BC6430D0D3F875
:108D1000C014B3F8EC754E628889052A40EA070052
:108D20008881A3F8EC6523D0D3F8F015B3F81C774D
:108D30004E628889062A40EA07008881A3F81C67EA
:108D400016D0D3F82017B3F84C784E628889072ADA
:108D500040EA07008881A3F84C6809D0D3F850286E
:108D6000B3F87C095662918901439181A3F87C692B
:108D70002A7823789A420FD07A481F469B003B44BA
:108D80009B00C218C3583BB9137A2BB9537A1BB94D
:108D90007B1C03F003032370BDE8F0815E68198932
:108DA00071603768186847F0010740F20D3137608D
:108DB000A0F848108689012A46F480768681D7D0AB
:108DC000D3F83461B3F83871D3F83001776037687D
:108DD00047F001073760A0F848108689022A46F458
:108DE00080768681C4D0D3F86462B3F86872D3F811
:108DF00060027760376847F001073760A0F84810D5
:108E00008689032A46F480768681B1D0D3F89463AC
:108E1000B3F89873D3F890037760376847F0010789
:108E20003760A0F848108689042A46F48076868147
:108E30009ED0D3F8C464B3F8C874D3F8C004776084
:108E4000376847F001073760A0F848108689052A7F
:108E500046F4807686818BD0D3F8F465B3F8F87544
:108E6000D3F8F0057760376847F001073760A0F85E
:108E700048108689062A46F4807686813FF478AFCA
:108E8000D3F82467B3F82877D3F8200777603768DA
:108E900047F001073760A0F848108689072A46F492
:108EA000807686813FF464AFD3F85428B3F858082D
:108EB000D3F850385060106840F001001060A3F8FB
:108EC00048109A8942F480729A8151E7804621F0D5
:108ED000DDFE27782B78BB4286461DD0BB0021489B
:108EE000DA1900EB8202167AC6B1B8F1000F3DD054
:108EF0001D490022B1F808C00132BCF1000F18BFB3
:108F00000026424501F58071F4D17EBB124A1278E9
:108F1000002A3FF434AFC2E61248BB003B449B003A
:108F2000C118C258AEEB0202002AFFF635AF4A7AEA
:108F30003AB1013AD2B24A7212B30EF57A72C25005
:108F400000E0C250044B1A78002A7FF4A8AE0FE765
:108F500080F1002081F100202C3400102834001012
:108F600098DE002084F1002098D60020DA199200C3
:108F70000EF51C5186181031815000223272C5E75F
:108F80004A687244C250DDE710B5027C01681F2AAE
:108F90004FF020030ED94C68203A93401C4208D071
:108FA0000B4A406800241470026822F0010202603B
:108FB000CB6010BD0C6893401C42FAD0044A406854
:108FC00000241470026822F0010202608B60F0E756
:108FD0004DB5002010B5027C01681F2A4FF0200318
:108FE0000ED94C68203A93401C4208D00B4A406886
:108FF00000241470026822F001020260CB6010BDF0
:109000000C6893401C42FAD0044A40680024147053
:10901000026822F0010202608B60F0E75F8B0020A3
:109020002DE9F041C40023189B00B749CA58526883
:10903000958AADB2EFB2FE070B4461D4BE0737D5B7
:10904000BFF35F8F1D7EEDB2012D00F0BB80AF4EF0
:10905000138BBFF35F8F231801EB83031D7E022D5B
:1090600000F0CE80231801EB83031D7E032D05D174
:109070009B7E1BB1737E002B40F01A81938896F97A
:1090800018C043F480639380231801EB83031B7E95
:10909000013363450AD1B37E00257576002B40F07D
:1090A0008A80204401EB800000234375BDE8F081F5
:1090B000964E17F0040F96F918C04DD117F04007DF
:1090C00000F0B280178A1D6AFFB205F80C705FFAD3
:1090D0008CF56F1C93F818E07BB2DF1CBE4533762D
:1090E0009C4600F00981271801EB87073F7EBB42B1
:1090F000CAD105F1020C4FFA8CFC86F818C0C3E700
:109100001588824E25F400652D042D0C15801588D8
:1091100045F4806515809D7E00273776002D3DD073
:10912000757E002D37D0231801EB830301251B7EAC
:109130007576022B03D1138843F400631380231840
:1091400001EB83039B7D43F001031382204401EB79
:109150008000037EBDE8F0819F7E757E4FF0010E9A
:1091600086F81AE0002F5CD0002D78D1231801EB8F
:1091700083035B7E002B00F0A48013880CF1010CAC
:109180004FFA8CFC43F4007386F818C013801388E0
:10919000DF05FCD478E7DB7DFF2BC4D0231801EB7F
:1091A00083039D7D05F0FE051582DB7DFF2BCDD071
:1091B000FF233376CAE7938823F440731B041B0C08
:1091C00093806EE79B7E514E002B3FF441AF737E40
:1091D000002B3FF43DAF138823F480631B041B0C6A
:1091E0001380BFF35F8F138B1388B57643F400733E
:1091F0001380938896F918C043F48063938043E703
:109200009B7E002B3FF42EAF737E002B3FF42AAFE2
:10921000138896F918C023F480631B041B0C138079
:1092200016E0002DA2D0A8E72D067FF52DAFBCF1EA
:10923000FF3F6DD0DD6915F80C5015820CF1010C63
:109240001D7E4FFA8CF39D429C4633767FF41CAF13
:10925000938823F480631B041B0C938014E71F7E08
:10926000D3F820805FFA8CF5AE44022F4FFA8EFEC1
:1092700017882DD927F480673F043F0C1780178A81
:10928000FFB208F80C701788D3F820C047F40073B9
:109290001380138ADBB20CF80E30938805F1020CB0
:1092A0004FFA8CFC43F4806386F818C093806EE715
:1092B000938896F918C023F480631B041B0C9380D9
:1092C000E2E61388012543F48073138075765EE728
:1092D00047F400771780178AFFB208F80C70178AD6
:1092E000D3F8208005F1030C4FFA8CFCFBB286F812
:1092F00018C008F80E304AE7978827F480673F04C3
:109300003F0C9780EFE600BF006C00206017002044
:10931000DD7D15829D7E37761DB91B7E002B7FF487
:1093200015AF938823F480631B041B0C93800DE717
:1093300048F058BD014B186821F0E2BE187E0020AD
:1093400038B51D4B1B78044600F1250593B1042266
:109350001A4920304DF0E6F82846142218494DF0FD
:10936000E1F8012384F83A30164B1B7873B984F87E
:109370003B3038BD2846142213494DF0D3F8012361
:1093800084F83A300F4B1B78002BF0D00F4B186845
:1093900059689A68DD68E56020606160A260DD69F7
:1093A000186959699A69A2610123E56120616161C7
:1093B00084F83B3038BD00BFDA6B00209C6B002086
:1093C000846B0020DB6B0020E0D40508A46B002038
:1093D0000D4B002270B4026003F10A0629252824EF
:1093E00000EB820100F822404D70DC781A79CA70D7
:1093F000B3428C7005D093F905209C79DD79053353
:10940000EEE770BC704700BFD86505082DE9F84F3E
:10941000DDE90A6489461746002120229846054660
:109420004DF042F85EB1D6E900327189EB81C3F3A9
:109430000F432B82C2F30F43EA822B836982484693
:109440004AF07AFD17F0100B10D1431E70B119F8D5
:1094500003202E2A18BF09EB030104D14AE011F8BA
:10946000016D2E2E3ED013F1FF33F8D208280246AC
:10947000CA46A8BF08224FF0000B4FF020336B60A4
:109480002B60C5F807304946284605F108064BF021
:10949000E7FC5A46514630464BF0E2FC6B1EE81D95
:1094A00013F8012FA2F1610119299CBF203A1A700B
:1094B0008342F5D105F10B0116F8013BA3F16102DE
:1094C000192A9CBF203B06F8013CB142F4D1182375
:1094D000C8F30F42EF722B73A5F81A80AA82EC61D1
:1094E000BDE8F88FC01A00F1FF3BBBF1030FA8BF26
:1094F0004FF0030B082B03F1010AA8BF0823CA444D
:109500001A46BAE738B52E2200214CF0CDFF0346AB
:1095100040F2DC51642040F21A4240F202241874F6
:109520005982132019219A8240F2753240F26C75EB
:109530001C8398760E2402201977DA830A210122EF
:10954000DD8283F82C0040F6430583F82D1083F864
:1095500022409A7383F8252083F82B201D84194616
:109560000248BDE838401EF0A1BB00BFECD405089E
:1095700010B500210446012020F086FE207010BDA9
:1095800038B500240472451EE1B2022020F07CFEB2
:109590000134082C05F8010FF6D138BD38B5002488
:1095A000054604802146284601342DF041F9082C57
:1095B000F8D1002185F8E210A5F8E410A5F8E6102E
:1095C000A5F8E810A5F8EA10A5F8EC10A5F8EE103B
:1095D000A5F8F010A5F8F2102846BDE838402DF0A7
:1095E000E9B800BF2DE9F04F002087B00C461D46BA
:1095F0000121924624F06AF9002D63D005EB0A039D
:10960000DFF8D094DFF8D0B4039355461CE0002D6A
:1096100000F0C581D9F81430AB4264D0D9F81030CD
:10962000AB4200F09780D9E90631AB4252D8A9424B
:1096300000F26F81691A204642F090FA039B0135CF
:109640009D4204F500743DD0D9F82060AE42DED8CA
:10965000D9F83080AE1B4FEAD60AD8F830300AF17C
:10966000020A9A4506F0070603D3D8F838309A451F
:1096700009D94146504642F03FFA8046002800F0A2
:109680004D81C9F8300098F80430002B40F0E2809A
:10969000D8F82870002F00F0DF81D8F83030D8F8E3
:1096A0000C20AAEB030A06EBCA0A4346204602EB4B
:1096B0004A224FF40071B847039B01359D4204F5DF
:1096C0000074C1D10021084624F000F9002007B041
:1096D000BDE8F08FA942ADD94FF4007200212046B9
:1096E0004CF0E2FEAAE752226120412300262270BC
:1096F0006270A070722284F8E70184F8E631D9F82C
:109700002800E3704FF0FF33314684F8E42184F8F9
:10971000E521C4F8E8014FF4F07284F8EC3184F8E4
:10972000ED3184F8EE3184F8EF31201D4CF0BCFEB1
:1097300055216FF05502C4F8F061C4F8F461C4F823
:10974000F86184F8FC6184F8FD6184F8FE1184F806
:10975000FF2173E74FF40072002120464CF0A4FE75
:10976000D44BD54F03CBEB23022223704FF0080CD0
:109770009026F8234FF0580EC4F80300227484F8A2
:109780000DC0C4F8071084F801E0A6706375D9F81D
:109790001010D9F80830D9F81C602273591A2162C8
:1097A0004FF0FF3100233F20A1763E21A273E372E8
:1097B000E3736374A374E3742375A375E37563762D
:1097C000E3766377A377E3772076217784F82C20FC
:1097D00007CFD9F8187084F82830F61B84F82930A0
:1097E00084F82A3084F82B3084F82D3084F82E3019
:1097F00084F82F3084F8313084F8323084F83330F4
:1098000080236662C4F8470004F1470684F84030BC
:1098100029209423A94F84F846C084F8420084F894
:1098200043300E200D234FF0010C84F8440084F8DF
:10983000453084F830C0716003CF33465527AA26DF
:109840009A60C4F85200C4F8561084F8FE7184F887
:10985000FF61F3E64FF40072002120464CF024FE35
:10986000D8F84030002E61D104F12007002B77D0CA
:10987000D8F8303092491122CDE900662046FFF732
:10988000C5FDD8F840301A6C04F1400A002A79D09E
:109890001B6B8C49CDE9006638461122FFF7B6FDF7
:1098A000D8F84460002E3FF4C9AE4FF4E078CDE91B
:1098B00004450CE00024CDE900C4FFF7A7FDB66C19
:1098C000BA46A8F120080EB3B8F11F0F1ED93468AC
:1098D000356B96F804E011222B46214650460AF1DA
:1098E000200706F11C0CBEF1000FE3D17279336939
:1098F000019342F021022B46CDF800C0FFF786FD10
:10990000B66CBA46A8F12008002EDDD1DDE9044589
:1099100094E6E91A204642F021F98FE6231F04F568
:10992000FE7243F804BF9A42FBD187E6002BD8F8B9
:1099300044200CBF01230223C3EB0613002A3FF48B
:109940007DAE966C013B002E3FF478AE013BB66CC9
:10995000F9D1002E3FF472AEA2464FF40078A6E78C
:10996000CDE900663346D9F80C1008222046FFF7EF
:109970004DFDD8F84460002E3FF460AEBA464FF477
:10998000F07894E7CDE900663346384611224D4918
:10999000FFF73CFDD8F84460002E86D14EE64FF428
:1099A0000072294620464CF07FFD80220C2384F86B
:1099B000BE2184F8C231D9F81000434BD9F80860B1
:1099C00084F8B85183FB0032C117C1EB2232B2F5E3
:1099D000806F84F8B95184F8BA5184F8BB5184F887
:1099E000BC5184F8BD51C4F8C601C4F8CA6142DB59
:1099F000FF2384F8BF3184F8C13184F8C031324B81
:109A0000711E83FB0132CE17C6EB2232B2F5806F96
:109A100029DA2E4B84F8C52183FB01030B442C4823
:109A2000C6EB6313C3EB831680FB0370891B1844DA
:109A3000DE17921022F03F020131C6EBE0100A431C
:109A4000034484F8C42184F8C3315522AA2384F83E
:109A5000FE2184F8FF31F1E539464FF400722046CB
:109A60004CF022FDEAE5FF2384F8C33184F8C531C8
:109A700084F8C431E9E7154B84F8C12183FB0073F6
:109A80000344134FC1EB631387FB0317C3EB831C22
:109A90009110A0EB0C02F818DF1721F03F01013202
:109AA000C7EBE0100A43034484F8C02184F8BF31B7
:109AB000A5E700BF00D505080CD505081CD505088D
:109AC000F8D40508FCD40508975545418320088241
:109AD0008180808020C70020DEADBEEF08B5012068
:109AE0000BF05AF9174A936803F00C03042B1ED0AD
:109AF000082B18D151685368490203F03F0319D469
:109B000052681148B0FBF3F0C2F3881300FB03F076
:109B10000C4B0E4A5B68C3F3014301335B00B0FB9F
:109B2000F3F0106008BD094B074A1A6008BD074BE7
:109B3000186008BDB0FBF3F05368C3F3881300FB53
:109B400003F0E5E7003802400024F40018E80020A4
:109B500010B5044C04480A46214609F009FE204687
:109B600010BD00BF7C17002028D5050810B5044C97
:109B700004480A46214609F0FBFD204610BD00BFFF
:109B80007C17002038D5050810B5044C04480A4657
:109B9000214609F0EDFD204610BD00BF7C170020D6
:109BA00044D505080A4608B5054920B1054809F01D
:109BB000DFFD034808BD044809F0DAFD004808BD90
:109BC0007C17002070D5050858D5050830B5437FAF
:109BD00083B004461BB90120637703B030BD05256F
:109BE00002236A4601A90068ADF8045047F008FE58
:109BF0009DF8013003F0010383F00100637703B0A7
:109C000030BD00BFF8B5074C05460F46266803E097
:109C100023689B1BBB4204D82846FFF7D7FF0028C8
:109C2000F6D0F8BD78B4002010B545F2082182B016
:109C30000446FFF7E7FF02A9062301F8023D20686A
:109C400041F0A8FB02A9C72301F8013D01232068C8
:109C5000637741F09FFB02B010BD00BF10B5027FDB
:109C600084B000230446D82002938DF80C308DF880
:109C70000800EAB10B0E8DF809300DF10A030A0A4B
:109C8000080C5A709970187041F288312046FFF71D
:109C9000B9FF04A9062301F8093D206841F07AFBC9
:109CA000012302A96377206841F030FB04B010BDA6
:109CB0000DF10903E3E700BF08B5838940F2E933FA
:109CC00000E0A3B10289013B12F0020F9BB2F8D071
:109CD00089B2818140F2E93300E043B10289013B5E
:109CE00012F0010F9BB2F8D08089C0B208BD47F0D6
:109CF00065FDC0B208BD00BFF0B5076A83B0064677
:109D000017B13B68BA885A837069DFF8A8E0838985
:109D1000C3244FF47A734FF0060C6D464FF6FF7173
:109D20000EF1010E03E0013B9BB28B4220D0028971
:109D30009207F8D5A3B283814FF47A7302E0A3B2FD
:109D40008B4215D00289D20703F1FF34F7D58289FF
:109D500092B20DB12A700135BCF1000F0BD00CF19D
:109D6000FF3CFF24BEF1000FE1D09EF80040D7E792
:109D700047F024FD376A17B13B68BA881A839DF80B
:109D800005009DF801509DF802109DF803409DF8D4
:109D900004209DF8063041EA052143EA002342EA07
:109DA00004220120A6F85810A6F85A20A6F85C3024
:109DB00003B0F0BDE865050813B506230C466A46F6
:109DC00028210C3047F068FEF0B19DF801309DF875
:109DD000002042EA032204219DF8033012B292FBD4
:109DE000F1F222809DF8022042EA032212B29DF88D
:109DF000043092FBF1F262809DF8052043EA0223D1
:109E00001BB293FBF1F3A38002B010BD13B5062380
:109E10000C466A4603210C3047F03EFEA0B19DF887
:109E200000209DF8013043EA022323809DF80220A0
:109E30009DF8033043EA0223A3809DF804209DF897
:109E4000053043EA0223638002B010BD07B5032347
:109E500001AA002147F020FE9DF805309DF804007E
:109E60001B0243EA00439DF80600184303B05DF867
:109E700004FB08B5FFF7EAFF014B586008BD00BFBF
:109E80006017002008B5FFF7E1FF014B186008BD1F
:109E90006017002007B506236A46F72147F0FCFD4E
:109EA0009DF801309DF800100B4A1B0143EA013375
:109EB0009DF8021043EA1113D3609DF804309DF819
:109EC00003101B0143EA01339DF8051043EA111307
:109ED000936003B05DF804FB6017002007B503230F
:109EE00001AAF62147F0D8FD9DF805309DF8042021
:109EF0001B0243EA02439DF806201343054AB2F9C8
:109F00002020C2F10802D340034A536103B05DF838
:109F100004FB00BF987700206017002007B50223DC
:109F200001AAF62147F0B8FD9DF804209DF8053000
:109F300043EA0223024A138203B05DF804FB00BF28
:109F40006017002070B582B00446062310306A46C0
:109F5000432147F0A1FDC0B19DF804009DF80060C9
:109F60009DF801109DF802509DF803209DF80530E2
:109F700041EA062143EA002342EA0522A4F85810E8
:109F8000A4F85A20A4F85C30012002B070BD00BFD4
:109F900070B582B0044606230C306A463B2147F078
:109FA0007BFDA8B19DF804009DF800609DF80110AC
:109FB0009DF802509DF803209DF8053041EA0621E6
:109FC00043EA002342EA05226184A284E38401205B
:109FD00002B070BD7FB504AA002302F8093DE72155
:109FE0000123064647F056FC9DF80730144D154CEA
:109FF00013F0030320D0052302AAE821304647F0DE
:10A0000049FC9DF80A209DF80910130443EA012336
:10A010009DF8081012F0800F14BF4FF07F4200220D
:10A020000B4313432B609DF80C209DF80B3043EA43
:10A030000223238004B070BD2B602380FAE700BFA9
:10A04000D0770020CC77002038B5054640683B4AE1
:10A05000038823F040031B041B0C0380038823F0B8
:10A0600038031B0490424FEA134305D002F5806287
:10A07000904201D043F00803038003882A6943F02B
:10A080004003038012B1136892885A83838940F297
:10A09000E93301E0002B43D00289013B12F0020FAB
:10A0A0009BB2F7D0F523838140F2E93301E0002B26
:10A0B00036D00289013B12F0010F9BB2F7D08389A1
:10A0C000838940F2E93300E00BB30289013B12F0CF
:10A0D000020F9BB2F8D0FF23838140F2E93300E006
:10A0E000ABB10289013B12F0010F9BB2F8D0848919
:10A0F000E4B22B6913B11A689B881383712C19D0B1
:10A1000008D9AC2C14D0AF2C0ED1092038BD47F0A3
:10A1100055FBEEE7122C0FD0702C07D1052038BD6F
:10A1200047F04CFB6868CBE7732C03D0002038BDA8
:10A13000072038BD062038BD082038BD0038004053
:10A140002DE9F04F87B0A94A02904068038823F0B8
:10A1500040031B041B0C0380038823F038031B04FB
:10A1600090424FEA134300F03F8102F58062904233
:10A170000CBF3022382213430380029B02881B69E4
:10A1800042F04002028013B11A689B88538383898E
:10A1900040F2E93302E0002B00F090810289013B9C
:10A1A00012F0020F9BB2F6D06B23838140F2E933A9
:10A1B00002E0002B00F082810289013B12F0010FC6
:10A1C0009BB2F6D08389838940F2E93302E0002B09
:10A1D00000F071810289013B12F0020F9BB2F6D0B0
:10A1E0008023838140F2E93302E0002B00F0638199
:10A1F0000289013B12F0010F9BB2F6D08389029BCA
:10A200001B6913B11A689B8813830623784CDFF807
:10A21000EC81DFF8ECA1774D774E04939623DFF8BD
:10A22000E4C101934FF0100EDAF80430C3F30803D1
:10A23000002B40F0B280EFF31183002B40F0AD8093
:10A240002068AA6823689842FAD133689A42F7D8FE
:10A25000D8F800704FF47A7101FB07F39B1AB3FB37
:10A26000F7F301FB00304FF47A774FF00109DAF889
:10A270000430C3F30803002B70D1EFF31183002BDC
:10A280006CD12368A96822689342FAD1326891425E
:10A29000F7D8D8F8002007FB02FBABEB0101B1FBBC
:10A2A000F2F107FB03131B1AB3F57A7FDFD3019B8F
:10A2B000013B0193B8D1029B1B6913B11A689B88BB
:10A2C0005383029B586840F2E933828902E0002BF5
:10A2D00000F085800289013B12F0020F9BB2F6D09C
:10A2E000F523838140F2E93301E0002B77D0028926
:10A2F000013B12F0010F9BB2F7D08389838940F2B2
:10A30000E93301E0002B67D00289013B12F0020F14
:10A310009BB2F7D0FF23838140F2E93301E0002BA9
:10A320005AD00289013B12F0010F9BB2F7D083890A
:10A33000DBB20393029B1A6912B1136891881983E7
:10A34000039B682B60D0049B013B13F0FF03049335
:10A350007FF464AF184607B0BDE8F08FEFF31181CA
:10A360008EF31288D5F808B02B68DB0344BFCCF815
:10A370000090D5F808B02368DCF80020C9B281F35A
:10A380001188D8F80010134407FB01F2A2EB0B026E
:10A39000B2FBF1F207FB032385E7EFF311838EF3A2
:10A3A0001288AF682A68D20303D50122CCF80020B6
:10A3B000AF682068DCF80090DBB283F31188D8F82E
:10A3C00000104FF47A72484402FB01F3DB1BB3FB2D
:10A3D000F1F302FB003046E747F0F0F9AAE747F057
:10A3E000EDF9029B586889E73022C4E60038004046
:10A3F00078B4002010E000E080B400207CB400209D
:10A4000000ED00E074B4002012B1136892885A8302
:10A41000029B586840F2E933828901E0002B45D065
:10A420000289013B12F0020F9BB2F7D08C2383818B
:10A4300040F2E93301E0002B38D00289013B12F0F1
:10A44000010F9BB2F7D08389838940F2E9330289F7
:10A45000013B12F0020F9BB215D1002BF7D147F050
:10A46000ADF9029B1B6913B11A689B881383059B86
:10A47000142B04D3182B17D9543B062B14D90020C6
:10A4800007B0BDE8F08FFF23838140F2E93301E09C
:10A49000002BE4D00289013B12F0010F9BB2F7D0F0
:10A4A0008389DBB20593DCE7032054E747F086F9A4
:10A4B000029B5868C8E747F081F9A0E647F07EF9AB
:10A4C000029B58687FE600BF037C02681F2B86BF93
:10A4D000203B51681168202202FA03F30B4214BF9B
:10A4E0000123002303B970472DE9F0474569DFF8E0
:10A4F00058A12D02044620F0C9FB0AEB0503804653
:10A500001A7C002A34D14B495A680978D2F8009055
:10A51000C9B9D16858890A6822F001020A60B9F8FD
:10A520000C3023EA0003A9F80C30434B1B78002BB6
:10A5300031D1237C21681F2B13D8202202FA03F388
:10A540008B60BDE8F0879269136823F00103136004
:10A55000B9F80C3023F480731B041B0CA9F80C30E1
:10A56000E3E7203B202202FA03F3CB60BDE8F0874B
:10A570005A6832481568D6685F8901225A74316872
:10A58000036821F001013160AA89013322EA070240
:10A59000AA810360CDE70AEB05062835776F3846B8
:10A5A0000AF092FB01230AEB0501484633740AF0D6
:10A5B0004BFCD6E91202736B316D3D6803431343C4
:10A5C000D6E915200B431343F16DB26E03430B43E1
:10A5D0001B48F16E134328400B43034300223264AF
:10A5E0003B60D6E918317A69756CB06B22F00702CE
:10A5F0000B431343F26B7B617D60B860FA603B688C
:10A600007268706FD16896F87050126843F010034A
:10A610003B6045600B6843F001030B6093897189CF
:10A620000B43938120F032FB064BA0EB080018602F
:10A630007FE700BF2834001024340010209F002042
:10A640003F801CF0F035001098D600208A4B1B7814
:10A65000002B00F09880002800F095802DE9F04F45
:10A66000431E85B0854C0190032B4FF00006A8BF18
:10A670000323A4F114070393B0464FEA062A07EB1D
:10A680000A03256E5B7C002B7ED06A6892B2002A9A
:10A6900065D114F8050CD4E91B13002800F0AA8436
:10A6A000603377485B1AA0FB0351890901EB410134
:10A6B000A3EB4113182B00F17785173BA0FB032375
:10A6C000DB0003F0F003D4E91D126D486032521A2A
:10A6D000A0FB0251890901EB4101A2EB4112182AAA
:10A6E00005D4173AA0FB0212C2F343021343D4E984
:10A6F0001F1263486032521AA0FB0251890901EB14
:10A700004101A2EB4112182A5EBF173AA0FB0212C8
:10A71000C2F34305D4E92112594802F16002A2EBC9
:10A720000102A0FB02C14FEA911101EB4101A2EB32
:10A73000411248BF0025182A58BF173A45EA0315A9
:10A740005ABFA0FB0223C3F34303002343EA0513CC
:10A7500083EA132282EA1212100700F00C85494A9C
:10A7600013680133136026B98022474947484AF0ED
:10A7700077FB07EB0A0383F8118054F8109C256ED1
:10A78000D9F800B00CE0704754F8109C34F80A1C5B
:10A79000D9F800B0BBF80C2022EA0102ABF80C207B
:10A7A0002A683B4B22F0010221219D422A60C5F814
:10A7B0000080C5F80480C5F80880C5F80C80C5F88D
:10A7C000108069611FD0334B9D4200F03783324BBC
:10A7D0009D4200F03D83314B9D4200F0DF84304BC1
:10A7E0009D4200F002852F4A954200F003852E4AD3
:10A7F000954200F07E852D4A954200F0EC84284673
:10A800000AF0D2F902E02A4A3D219160BA448AF85E
:10A81000108099F805100C2916D8DFE811F04401D2
:10A820001500150015004D011500150015003B0120
:10A830001500150015000D00BBF81C2022F4006265
:10A840001204120CABF81C20224658461EF0BBFC2A
:10A8500099F805300C2B37D8DFE813F006013600E5
:10A86000360036001101360036003600FB00360097
:10A87000360036002C0000BF24340010ACD6002077
:10A88000ABAAAAAA8C1A001018D70020F435001021
:10A890001060024028600240406002405860024060
:10A8A0007060024088600240A0600240B8600240D0
:10A8B00000600240BBF81C3023F400631B041B0C37
:10A8C00043F40063ABF81C30D4E90D12236AE06B4B
:10A8D00043F040030B431343226CB149034313433A
:10A8E000626C13434022E262A26C28681343A26D9B
:10A8F0000292626D1343029A014013430B432B6093
:10A90000D4E913316A69206B22F007020B43134329
:10A91000D4E909126B616860A960EA602B6843F0B2
:10A9200010032B60039B01369E4204F580747FF771
:10A93000A4AE019B9E4280F2CC814FEA062A0AF126
:10A9400014043C444FF0000807EB0A03256E5B7CBF
:10A95000002B00F0BA806A6892B2002A65D114F820
:10A96000050CD4E91B13002800F07C8260338D486D
:10A970005B1AA0FB0351890901EB4101A3EB4113D1
:10A98000182B00F11484173BA0FB0323DB0003F01A
:10A99000F003D4E91D1283486032521AA0FB025121
:10A9A000890901EB4101A2EB4112182A05D4173A9B
:10A9B000A0FB0212C2F343021343D4E91F127948E9
:10A9C0006032521AA0FB0251890901EB4101A2EB4E
:10A9D0004112182A5EBF173AA0FB0212C2F34305C8
:10A9E000D4E921126F4802F16002A2EB0102A0FB40
:10A9F00002C14FEA911101EB4101A2EB411248BFA4
:10AA00000025182A58BF173A45EA03155ABFA0FB7C
:10AA10000223C3F34303002343EA051383EA13220B
:10AA200082EA1212120700F0E0825F4A13680133D3
:10AA3000136026B980225D495D484AF011FA07EBA0
:10AA40000A0383F8118054F8109C256ED9F800B0E1
:10AA500047E0BBF81C3023F008031B041B0C43F039
:10AA60000803ABF81C302FE7BBF8183023F00803BD
:10AA70001B041B0C43F00803ABF8183024E7BBF8A9
:10AA8000183023F400631B041B0C43F40063ABF881
:10AA9000183019E7BBF81C2022F008021204120C2F
:10AAA000ABF81C20D0E6BBF8182022F008021204F4
:10AAB000120CABF81820C7E6BBF8182022F400628D
:10AAC0001204120CABF81820BEE654F8109C34F8AF
:10AAD0000A1CD9F800B0BBF80C2022EA0102ABF83E
:10AAE0000C202A68334B22F0010221219D422A606A
:10AAF000C5F80080C5F80480C5F80880C5F80C804A
:10AB0000C5F8108069611FD02B4B9D4200F09181E8
:10AB10002A4B9D4200F09781294B9D4200F03983DA
:10AB2000284B9D4200F05D83274A954200F06783E1
:10AB3000264A954200F0E283254A954200F046837A
:10AB400028460AF031F802E0224A3D219160BA44D9
:10AB50008AF8108099F805100C2910D8DFE801F068
:10AB6000A70F0F0F9E0F0F0FB00F0F0F0700BBF8AF
:10AB70001C2022F400621204120CABF81C202246A6
:10AB800058461EF020FB99F805300C2B2ED8DFE834
:10AB900003F06F2D2D2D7A2D2D2D642D2D2D2300BD
:10ABA0003F801CF0ABAAAAAA8C1A001018D700206C
:10ABB000F4350010106002402860024040600240FE
:10ABC000586002407060024088600240A06002400D
:10ABD000B860024000600240BBF81C3023F4006300
:10ABE0001B041B0C43F40063ABF81C30D4E90D12BA
:10ABF000236AE06B43F040030B431343226C9749F5
:10AC000003431343626C13434022E262A26C286840
:10AC10001343A26D0292626D1343029A01401343E3
:10AC20000B432B60D4E913316A69206B22F00702D1
:10AC30000B431343D4E909126B616860A960EA60B1
:10AC40002B6843F010032B60019B0136B34204F5DF
:10AC500080743ED04FEA062A76E6BBF81C3023F01B
:10AC600008031B041B0C43F00803ABF81C30BDE7C2
:10AC7000BBF8183023F008031B041B0C43F0080337
:10AC8000ABF81830B2E7BBF8183023F400631B04AC
:10AC90001B0C43F40063ABF81830A7E7BBF818208F
:10ACA00022F400621204120CABF8182067E7BBF81C
:10ACB000182022F008021204120CABF818205EE7EC
:10ACC000BBF81C2022F008021204120CABF81C2066
:10ACD00055E77A68787B13685179800754BF012261
:10ACE00004228A40198C92B221EA02011984198C3B
:10ACF0000A431A84019B012B00F09880D7F80421A5
:10AD000097F80D0113685179820754BF012204227C
:10AD10008A40198C92B221EA02011984198C0A43E3
:10AD20001A84019B022B00F08180D7F8042297F847
:10AD30000D0213685179860754BF012204228A400C
:10AD4000198C92B221EA02011984198C0A431A84DF
:10AD5000019B032B6AD0D7F8042397F80D031368DF
:10AD60005179850754BF012204228A40198C92B27E
:10AD700021EA02011984198C0A431A84019B042BCD
:10AD800054D0D7F8042497F80D14136850798C0721
:10AD900054BF01220422198C824092B221EA02019E
:10ADA0001984198C0A431A84019B052B3ED0D7F8CD
:10ADB000042597F80D0513685179800754BF0122C7
:10ADC00004228A40198C92B221EA02011984198C5A
:10ADD0000A431A84019B062B28D0D7F8042697F83B
:10ADE0000D1613685079890754BF01220422198C6B
:10ADF000824092B221EA02011984198C0A431A8412
:10AE0000019B072B12D0D7F8042797F80D0713687A
:10AE1000517982074CBF042201228A40198C92B2D8
:10AE200021EA02011984198C0A431A8405B0BDE88D
:10AE3000F08F0B4A4FF47461916088E6084A4FF432
:10AE400074619160E2E4064A4FF4741191607EE609
:10AE5000034A4FF474119160D8E400BF3F801CF0A6
:10AE6000006002405B1A002B40F3AA810A2BD4BF7A
:10AE700000230123D4E91D12521A002A4FEA43038A
:10AE800040F3FB810A2A01DD43F00103D4E91F12DC
:10AE9000521A002A4FEA430340F3F7810A2A01DDE0
:10AEA00043F00103D4E92112521A002A4FEA430366
:10AEB00040F3E7810A2A01DD43F00103D4E92312BC
:10AEC000521A002A4FEA430340F3CF810A2A01DDD8
:10AED00043F00103D4E92512521A002A4FEA430332
:10AEE00040F3BF810A2A01DD43F00103D4E92712B0
:10AEF000521A002A4FEA430340F3AF810A2A01DDC8
:10AF000043F00103D4E92912521A002A4FEA4303FD
:10AF100040F39F810A2A01DD43F00103D4E92B129B
:10AF2000521A002A4FEA430340F38F810A2A01DDB7
:10AF300043F00103D4E92D12521A002A4FEA4303C9
:10AF400040F37F810A2A01DD43F00103D4E92F1287
:10AF5000521A002A4FEA430340F36F810A2A01DDA7
:10AF600043F00103D4E93112521A002A4FEA430395
:10AF700040F35F810A2A01DD43F00103D4E9331273
:10AF8000521A002A4FEA430340F34F810A2A01DD97
:10AF900043F00103D4E93512521A002A4FEA430361
:10AFA00040F33F810A2A01DD43F00103D4E937125F
:10AFB000521A002A4FEA430340F32F810A2A01DD87
:10AFC00043F00103D4E93912521A002A4FEA43032D
:10AFD00040F31F810A2A01DD43F0010383EA1322B3
:10AFE00082EA121215077FF420ADC3F30F1324F881
:10AFF000023C24E55B1A002B40F3DC800A2BD4BF13
:10B0000000230123D4E91D12521A002A4FEA4303F8
:10B0100040F32F810A2A01DD43F00103D4E91F1216
:10B02000521A002A4FEA430340F35F810A2A01DDE6
:10B0300043F00103D4E92112521A002A4FEA4303D4
:10B0400040F34F810A2A01DD43F00103D4E92312C2
:10B05000521A002A4FEA430340F33F810A2A01DDD6
:10B0600043F00103D4E92512521A002A4FEA4303A0
:10B0700040F32F810A2A01DD43F00103D4E92712AE
:10B08000521A002A4FEA430340F31F810A2A01DDC6
:10B0900043F00103D4E92912521A002A4FEA43036C
:10B0A00040F30F810A2A01DD43F00103D4E92B129A
:10B0B000521A002A4FEA430340F3FF800A2A01DDB7
:10B0C00043F00103D4E92D12521A002A4FEA430338
:10B0D00040F3EF800A2A01DD43F00103D4E92F1287
:10B0E000521A002A4FEA430340F3DF800A2A01DDA7
:10B0F00043F00103D4E93112521A002A4FEA430304
:10B1000040F3CF800A2A01DD43F00103D4E9331272
:10B11000521A002A4FEA430340F3BF800A2A01DD96
:10B1200043F00103D4E93512521A002A4FEA4303CF
:10B1300040F3AF800A2A01DD43F00103D4E937125E
:10B14000521A002A4FEA430360DD0A2A01DD43F068
:10B150000103D4E93912521A002A4FEA430352DD9F
:10B160000A2A01DD43F0010383EA132282EA121264
:10B1700011077FF4F4AA634A1278C3F30F132F2A3E
:10B1800024F8023C7FF4F5AA5F4A22F81630FFF754
:10B19000F0BA5E4A4FF074619160D8E45B4A4FF0B8
:10B1A00074619160FFF732BB1346FFF78CBA134608
:10B1B000FFF7EFBB13F1090FB4BF0023012321E711
:10B1C00013F1090FB4BF0023012353E64FF03D51A3
:10B1D00042F8AC1CBBE44FF03D5142F8AC1CFFF709
:10B1E00015BB4A4A4A49D160B1E4484A4849D1604E
:10B1F000FFF70CBB474942F87C1CFFF707BB4549EA
:10B2000042F87C1CA3E40932AEDBABE70932A0DBD9
:10B210009DE70932FFF6E2AEDEE60932FFF6D2AE76
:10B22000CEE60932FFF6C2AEBEE60932FFF6B2AE96
:10B23000AEE60932FFF6A2AE9EE60932FFF692AE06
:10B240008EE60932FFF682AE7EE60932FFF672AE76
:10B250006EE60932FFF662AE5EE60932FFF652AEE6
:10B260004EE60932FFF642AE3EE60932FFF632AE56
:10B270002EE60932FFF6D2AECEE60932FFF606AE72
:10B2800002E60932FFF61AAE16E60932FFF60AAEFA
:10B2900006E60932FFF652AF4EE70932FFF642AF3B
:10B2A0003EE70932FFF632AF2EE70932FFF622AF52
:10B2B0001EE70932FFF612AF0EE70932FFF602AFC2
:10B2C000FEE60932FFF6F2AEEEE60932FFF6E2AE36
:10B2D000DEE60932FFF6D2AECEE60932FFF6C2AEA6
:10B2E000BEE60932FFF6B2AEAEE60932FFF6A2AE16
:10B2F0009EE6094942F8941CFFF788BA064942F8CD
:10B30000941C24E439B500203CB5002000600240C4
:10B310003D000020400F002000003D2020B10078BB
:10B32000B0FA80F0400970470120704708B520212D
:10B330004BF0D1F80346184623B10278202A03F1D6
:10B340000103F8D008BD037903F01803082B05D0DA
:10B35000102B15D033BBB0F80B007047124BB0F870
:10B360000B0093F90030591C06BF104B1B78DBB261
:10B37000C3EB031203EB820300EB430080B2704780
:10B380000B4BB0F80B0093F900305A1C06BF074B6B
:10B390005B78DBB203EB430203EB820300EB430079
:10B3A00080B270470020704759170020F4D3002066
:10B3B00058170020F0B5067906F06003402B09D13C
:10B3C00044794FF0FF350023012006F00706A34221
:10B3D0000BD1F0BD602B08BF45794FF001040CBFC5
:10B3E00004FA05F54FF0FF35EDE7042E0CD8DFE841
:10B3F00006F0030D18242E0030B1C85CD75C7840ED
:10B4000028420CBF012000200133E0E70028FBD0D8
:10B41000C856D756A0EB070CDCF1000040EB0C003F
:10B42000F2E70028F0D031F8130032F813707840BA
:10B4300028420CBF01200020E6E70028E4D031F9C3
:10B44000130032F91370C71B78427841DCE70028FB
:10B45000DAD051F8230052F82370784028420CBF0C
:10B4600001200020D0E7024B0146186846F0BABC24
:10B470000C7D002038B5064D441E14F8011F2868C5
:10B4800019B9BDE8384046F028BC46F0ABFCF4E7FB
:10B490000C7D00200048EDE74B11060808B5FFF7CA
:10B4A000E9FFBDE80840F5E710B504460348FFF79B
:10B4B000E1FF2046BDE81040F0E700BF21D40508B9
:10B4C00038B5074C074DAC4203D3074B00221A7026
:10B4D00038BD6288D4E9010149F0C2FC1434F2E7B6
:10B4E000900100086C0700083CF40020024A136831
:10B4F00023EA00001060704778E80020DFED2E7A24
:10B50000B4EEE70AF1EE10FA4ADDDFED2C6A9FEDAA
:10B510002C7A01E0B0EE670AB4EEC70AF1EE10FA39
:10B5200070EE667AF6DC9FED277AF4EEC77AF1EEDC
:10B5300010FA3ED5DFED216A9FED237A01E0F0EEAF
:10B54000407AF4EEC77AF1EE10FA37EEA60AF6D496
:10B55000DFED1E7AB4EEE70AF1EE10FA14DDDFED4E
:10B56000167A37EEC00A60EE006A9FED196A9FED09
:10B57000197ADFED197AA6EE867A20EE266AE6EED3
:10B58000877AA6EE270A7047DFED147AB4EEE70A51
:10B59000F1EE10FA44BFDFED0B7A37EEC00AE2E7B6
:10B5A0009FED087AF0EE407AF4EEC77AF1EE10FAE9
:10B5B000C0D4B0EE670ACBE7DB0F4940DB0FC940D0
:10B5C000E4CB1641DB0F49C0E4CB16C1DB0FC93F0A
:10B5D00092E741B99730083C15A82ABEDB0FC9BFD6
:10B5E000F0EEC07AB0EEE07AB4EEE77AF1EE10FA5F
:10B5F000B4BFB0EE676AB0EE476AB5EE406AF1EEEE
:10B6000010FA46D0B4EEE77AF1EE10FA8CBFF0EE05
:10B61000675AF0EE475AC5EE866A9FED1F3A9FEDD6
:10B620001F6A9FED1F4A9FED1F5ADFED1F3ADFEDA6
:10B630001F4ADFED1F5AA6EEC36AE6EEA34AA6EE46
:10B64000864AB7EE006AA6EE845AA6EEA46AE6EE33
:10B65000855AC5EE866AB4EEE77AF1EE10FA48BF75
:10B66000DFED147AF5EEC00A48BF77EEE66AF1EE38
:10B6700010FA48BFDFED107AB5EEC00A48BF77EE8A
:10B68000E66AF1EE10FA48BFF1EE666AB0EE660ABD
:10B690007047DFED076ADEE739094E3DE3B59E3EB0
:10B6A00088FA163E45FE7F3F99FB243F69A2163E6D
:10B6B000A7DFA834DB0FC93FDB0F4940DFED317A4C
:10B6C00030EE277AFDEEC76A16EE903A2033402B13
:10B6D00002D99FED2D0A7047B4EEE70AF1EE10FA99
:10B6E0004DDD9FED2A6ADFED2A6A01E0B0EE677A50
:10B6F000B4EEE67AF1EE10FA77EE467AF6DC9FEDDC
:10B70000257AF4EEC77AF1EE10FA35D5DFED1F6A2F
:10B710009FED217A01E0F0EE407AF4EEC77AF1EE87
:10B7200010FA37EEA60AF6D4DFED167AB4EEE70A81
:10B73000F1EE10FA1BDCDFED197AB4EEE70AF1EE58
:10B7400010FA44BFDFED137A37EEC00A60EE006AEC
:10B750009FED136A9FED137ADFED137AA6EE867ADA
:10B7600020EE266AE6EE877AA6EE270A7047DFED1E
:10B770000F7A37EEC00AE9E7B0EE670AD4E7F0EED9
:10B78000477ABCE7DB0FC93F00000000DB0FC94070
:10B79000E4CB1641DB0F49C0E4CB16C1DB0FC9BFB8
:10B7A00092E741B99730083C15A82ABEDB0F494003
:10B7B00010B44C09012250F8243001F01F0102FAA4
:10B7C00001F10B4340F824305DF8044B704700BF93
:10B7D0004B0901F01F0150F82320012303FA01F166
:10B7E000114214BF18460020704700BF2DE9F043F6
:10B7F000002489B006460D461F46A04605E02529CF
:10B800000CD030460134A847039A531C0393117897
:10B810000029F4D1204609B0BDE8F083931CCDE99E
:10B8200003385078302842D0A0F13003DBB2092B26
:10B830004FF0000945D96C282AD0642873D019D953
:10B84000732858D063D9752840F0828007F1040C22
:10B85000386805AB00220A216746FCF701FD05ABFD
:10B86000049A009329464B463046FCF7CFFB039AD7
:10B870000444CAE725283CD051D958286BD0632806
:10B88000C2D139783046A84704370134039ABCE75F
:10B89000039B5A1C03921B78642B52D016D8252B7D
:10B8A00027D064D9582B18D0632BEAD0ADE7D31C2E
:10B8B00003939078A0F13003DBB2092B4FF001091C
:10B8C000B9D804AA03A940F09BF9B4E7732B12D0AE
:10B8D00051D9752B2DD0782B97D1A3F15802B2FAFC
:10B8E00082F23868520905AB10210437FCF7B8FC26
:10B8F000B5E7252185E73B68049A00932946002394
:10B900003046FCF783FB04370444039A7DE76E2836
:10B910007FF47AAF039A3B6804371C6075E7002810
:10B920003FF478AF70E7386805A9FCF763FC04378B
:10B9300095E7386805AB00220A21FCF791FC043733
:10B940008DE73B1D386805A91F46FCF753FC86E7C9
:10B9500078287FF459AFA0F15802B2FA82F2386821
:10B96000520905AB1021FCF77BFC043777E7002B6D
:10B970003FF450AF49E76E2BCDD046E710B5064CEB
:10B980000B46024605492068FFF730FF2068BDE8F6
:10B99000104046F0A2B900BF0C7D00203193000892
:10B9A0000FB437B506AC094854F8045BFFF762FDE5
:10B9B000214628460194FFF7E1FF0548FFF75AFDAD
:10B9C00003B0BDE8304004B0704700BF26D405087E
:10B9D00031D405080FB407B504A951F8040B01913F
:10B9E000FFF7DEFFFFF756FD03B05DF804EB04B090
:10B9F000704713460A4601460048EBE735D4050870
:10BA00000048E7E74ED405080FB407B504A951F87C
:10BA1000040B0191FFF7B2FFFFF73CFD03B05DF8A7
:10BA200004EB04B070470FB407B504A951F8040B38
:10BA30000191FFF7A3FF03B05DF804EB04B070477A
:10BA40002DE9F843037903F06001202928D002D8BA
:10BA500049B1BDE8F883402945D06029F9D124488F
:10BA6000BDE8F843D0E703F00703022B02D0042B14
:10BA700008D06BB9B0F80720B0F805101D48BDE834
:10BA8000F843C1E7D0F805201A48BDE8F843BBE702
:10BA9000B0F90720B0F905101648BDE8F843B3E740
:10BAA0004579154E1548FFF7E5FC06EBC502002465
:10BAB00092F804800123A04502D8BDE8F843E9E4E8
:10BAC00056F8357057F824204FEA84094AB113B963
:10BAD0000B48FFF7CFFC57F809100A48FFF7A3FF00
:10BAE00000230134E7E741790748BDE8F8438BE7D5
:10BAF00096D405085AD40508ACB5050871D40508D4
:10BB000082D405085E04060885D405082DE9F041B5
:10BB10001746027902F06003402B05460C462BD1F4
:10BB20000026514FDFF85C8115E02B7903F0070305
:10BB3000022B15D0032B19D0012B14BFA15DA157E7
:10BB40003846FFF770FF6B79013BB34202DD404698
:10BB5000FFF790FC01366B79B342E6DCBDE8F0817B
:10BB600034F816103846FFF75EFFECE734F916108C
:10BB70003846FFF758FFE6E702F00702042A66D8C6
:10BB8000DFE802F0031E27292C002478202B3CD06C
:10BB9000602B48D0002BE1D1B5F80560B5F80780DF
:10BBA00031482146FFF73FFFA64248DCA04546DB6F
:10BBB000002FD3D0424631462C48BDE8F04132E751
:10BBC00094F90040202B20D0602B2CD0002BC5D125
:10BBD00044E02488DAE7B4F90040F3E72668202B34
:10BBE000344612D0602B1ED0002BB7D131461E48F0
:10BBF000FFF719FFD5F805108E4220D8002FADD0E1
:10BC00001B48BDE8F0410EE700246A79194B03EBAD
:10BC1000C2010979A14212DD53F8323053F82400F1
:10BC2000BDE8F04126E46A791441E30703D51248E0
:10BC3000BDE8F041F7E61148BDE8F041F3E6FFF753
