:020000040800F2
:10000000F0FF0010353B050879E30208C5550108EB
:10001000D53B0508D53B0508D53B05080000000089
:1000200000000000000000000000000085E302085E
:1000300081E30208000000007DE30208352D01087D
:10004000D53B0508D53B0508D53B0508D53B05083C
:10005000D53B0508D53B05081D6A01085D6B010805
:100060001D6B0108DD6A01089D6A01084DFD00084D
:100070003DFD00082DFD00081DFD000809FD0008DC
:10008000F5FC0008E1FC0008D53B0508D53B050858
:10009000D53B0508D53B0508D53B05085D6A010839
:1000A000D53B0508D53B0508D53B0508D53B0508DC
:1000B000A9190108E9180108D53B05081103010831
:1000C00019030108050301080D030108D53B0508C4
:1000D000D53B0508E52F0108D53B0508492F010848
:1000E000DD690108D53B050869310308D53B0508E2
:1000F00069170108D53B050829180108CDFC00083F
:10010000D53B0508D53B0508D53B0508D53B05087B
:10011000AD2E0108112E0108D1E40108BDE401084B
:10012000B9FC0008A5FC000891FC00087DFC000853
:1001300069FC0008D53B0508D53B0508D53B0508FB
:10014000D53B0508D53B0508D53B050841FE02080F
:1001500055FC000841FC00082DFC0008752D010825
:10016000F902010801030108D53B0508D53B050844
:10017000D53B0508D53B0508D53B0508D53B05080B
:08018000D53B0508D53B05083D
:08018800DC3605000100000057
:1001900010020100902000208C20002000000000B0
:1001A000300700081F021000A42000209420002027
:1001B000000000005D8400081A023C00D8400020C6
:1001C000E043002000000000D19000082700040058
:1001D000D44000201C44002000000000320700082A
:1001E00007020200344800205C48002000000000A4
:1001F0003807000802000C00044800206048002076
:10020000000000000000000006020C00F84700207B
:100210006C480020000000006191000808120F00E7
:10022000784700207848002000000000198400086A
:10023000F70106006C4700208848002000000000FD
:100240003A0700080A020A002045002090480020D2
:100250000000000031840108F6210C00AC440020AD
:100260009C48002000000000400700080300010037
:1002700018450020A84800200000000000000000F1
:100280000312330034470020AC4800200000000077
:100290004C07000825102C0154450020E0480020A0
:1002A000000000000000000020320A00DC540020A2
:1002B000D054002000000000792702081C02100022
:1002C00098500020E854002000000000B18300088E
:1002D0001010020060520020F854002000000000BE
:1002E000800700082810100050520020FC54002005
:1002F00000000000F1270208190005004852002004
:100300000C5500200000000082070008F8210600BC
:10031000405200201455002000000000880700080B
:1003200001200800DC4C00201C55002000000000CB
:100330008E0700080A702800584C00202455002021
:1003400000000000992702080EA06E01E84A002074
:100350004C550020000000000D00040801010400BD
:100360004C4A0020BC5600200000000000000000A5
:1003700000010400444A0020C05600200000000094
:100380009607000802010300404A0020C4560020DE
:10039000000000009181010814000300B8700020E3
:1003A00024710020000000009C0700080B3018009A
:1003B000C86000202871002000000000A00700088D
:1003C0001F302400E0600020407100200000000089
:1003D000B8070008050204004C6C0020647100207E
:1003E00000000000DC07000803010A002061002073
:1003F0006871002000000000E007000813020400FC
:10040000F45E00207471002000000000EA0700087C
:1004100009020100989D0020109E002000000000AD
:10042000EE07000822021401689B0020149E0020A1
:1004300000000000099300080C109C00A08B002015
:10044000289F0020000000006581010801020500CE
:10045000848B0020C49F0020000000005D3C030846
:10046000000205007C8B0020CC9F002000000000D3
:10047000000000001B020800588B0020D49F0020C1
:1004800000000000DD8300081E000600C488002074
:10049000DC9F002000000000F00700081B100C008B
:1004A000C8830020E49F002000000000FD4F0308E7
:1004B0002102F00048820020F09F00200000000090
:1004C000193E030805100600188E0020E0A0002049
:1004D00000000000F607000837102400F48A00200E
:1004E000E8A0002000000000FC0700080E02020047
:1004F000008E00200CA10020000000002008000851
:10050000161006003C82002010A100200000000010
:10051000220800082F102200EC9D002018A10020C6
:10052000000000002808000823100E001888002092
:100530003CA100200000000009280208F5518800B5
:10054000788100204CA10020000000003D890308B4
:1005500026100C00E0A10020D4A100200000000023
:10056000B93103081A000E0040AB00206CAB00202C
:10057000000000004A0800081500700004A70020D1
:100580007CAB002000000000000000002A0060009A
:10059000E0AA0020ECAB002000000000E5FF03080B
:1005A0002C0010005CAC00204CAC002000000000CF
:1005B00075FD03082B00240090AC00206CAC0020DB
:1005C0000000000045FD030829207800F4A4002065
:1005D000B4AC002000000000000000000D003C0052
:1005E000B8E1002064E200200000000051AA0308E6
:1005F0000400800040D80020A0E20020000000009D
:10060000000000001300040020D8002020E3002098
:10061000000000005808000818202E00ECD7002029
:1006200024E30020000000007192000806101A0068
:100630004CC6002054E30020000000006D000408B8
:10064000FB01010048C6002070E30020000000000C
:10065000DD920008FC01090014C5002074E30020AD
:1006600000000000ED920008340010003CC400209F
:1006700080E300200000000041000408110208008F
:1006800014C4002090E30020000000005C08000873
:10069000121204000CC4002098E3002000000000A7
:1006A0006408000812201000FCC300209CE3002016
:1006B0000000000068080008FD01210034C100208E
:1006C000ACE30020000000007D050108F9010400F2
:1006D000F8B50020D0E3002000000000F505010877
:1006E000FA010200E0AF0020D4E300200000000087
:1006F000898500080202030088AD0020D8E30020AD
:1007000000000000000000000C02040074AD002096
:10071000DCE300200000000045840008FE01140016
:10072000A4AF0020E0E3002000000000E9830008FF
:100730000000200300000000013C3901000000001F
:1007400000000000010000000202000000000000A4
:100750000000000000000000000000000000000099
:100760000000000000000000000000000000000089
:100770000000000000000000000000000000010078
:1007800000050000280100000401F4011400E80342
:100790006400040A00019001000000000300000052
:1007A000AE014A015E012C0164010200000001005B
:1007B0000A019A01001E0A0000000000000100006A
:1007C000000500000102030000000000000000001E
:1007D0000000000000000000008007000000000092
:1007E000040101006C160000000000000118370031
:1007F0000000010000002000030100002000320082
:10080000C800D0079600140032002800B00440064B
:100810000005500014000F000800640001000100F2
:100820000000C409000019000000000000000000E2
:1008300000000000000000000000000000000000B8
:10084000000000000000000000007E05EA05B4057D
:100850003200E803D0070000080444300000000024
:1008600001010101FFFFFFFF000000010000054B37
:0808700054563200000800009C
:100878001A03000000000000000000000000000053
:10088800000000000000000000000000040309044C
:1008980012010002000000408304205700020102F8
:1008A800030100000000200089DC0008E58400083E
:1008B800E1840008DD84000851930008D984000809
:1008C800D58400081456050819E50208D9C6020897
:1008D80059F0020800000000000000005DED020869
:1008E80079EC020800000000000000000000000091
:1008F80011C202087D85000871850008F598000876
:100908001199000829850008D9980008BD980008A1
:100918000068214C1F0000001C0000001F000000A0
:100928001E0000001F0000001E0000001F00000045
:100938001F0000001E0000001F0000001E00000035
:100948001F000000FF01FF00000000000000000081
:100958000102030406070809685E0C000100000094
:10096800A00F0000B80B00000102FFFF010000000B
:100978000000803F000000000000000000000000B0
:100988000000803FFFFFFFFFFFFFFFFFFF000000A9
:10099800F8CB050804CC050810CC05081CCC0508C4
:1009A80028CC050834CC0508B0E305084C04060833
:1009B80030030608D4ED0508D02B0608E8CB050857
:1009C800ECCB0508F0CB0508F4CB050840CC0508AE
:1009D80044CC050848CC0508A00106084CCC0508FD
:1009E8001900C800F401200301000000291F0208B3
:1009F800000000007C6F050820700020702D720038
:100A0800FFFFFFFFD601010100010101002D202D8C
:100A18002D202D2D2D2D202D2D2D00000000000026
:100A280000000000000000000000000000000000BE
:100A380000000000648405080000000000000000B9
:100A4800F084050801000000FA0000000100000021
:100A58000100000001010000AE4C002000C80100A8
:100A6800AD4C002000500100AC4C0020005A0100A1
:100A7800AA4C002002000000EC73050840D50508C8
:100A880048D505084EE200200100C4090000000016
:100A98004CE200200100C409000000004AE20020E6
:100AA8000100C4090000000048E200200100C40958
:100AB8000000000044E200200100C409000000001A
:100AC80046E200200100C4090000000042E20020C4
:100AD8000100C4090000000040E200200100C40930
:100AE80000000000624A00200100C8000100000068
:100AF800604A002032003075320000005E4A002053
:100B0800055A05005B4A002000FF01005D4A0020ED
:100B18000100000094030020594A00200200000050
:100B2800D08B05085A4A002000FF01005C4A0020CB
:100B38000100000094030020584A00200200000031
:100B4800D08B0508E84C0020EE02CA08010000001E
:100B5800E64C002000C8010064000000E54C0020BD
:100B680000C8010064000000E44C002002000000FE
:100B7800F8730508524A002080C1803E0500000035
:100B8800504A002080C1803E050000004A4A0020EB
:100B980080C1803E05000000484A002080C1803E98
:100BA80005000000434A002000FF01003C4A0020E5
:100BB8006400F401010000003B4A0020040000002A
:100BC800047405083A4A0020020000001874050859
:100BD800D74A00200D00000024740508D44A0020DC
:100BE80000640100D24A0020320010270A000000E9
:100BF800D14A00200D00000024740508D04A0020C6
:100C08000D00000024740508CF4A002002000000EF
:100C18005C74050800000000000000006874050806
:100C2800046C00209CFF2C0100000000D84F00201D
:100C3800E0150C1700000000DA4F00200200000049
:100C4800A0740508F44C00200100FF7F010000009B
:100C5800F34C002002000000AC740508D94A0020BB
:100C680003000000BC740508D84A002003000000F7
:100C7800BC7405088C4C00200000E803010000004B
:100C88008A4C00200000E80301000000884C002086
:100C98000000E80301000000864C00200000E80383
:100CA80001000000844C00200000E803010000005F
:100CB800824C00200000E80301000000814C002065
:100CC80000140100804C002003000000CC740508CB
:100CD800984C00200000F40101000000964C002010
:100CE8000000F40101000000944C00200000F40111
:100CF80001000000924C00200000F40101000000F7
:100D0800904C00200000803E010000008E4C002026
:100D18000000803E01000000C14C00201964010061
:100D2800C04C002002000000DC740508BE4C002006
:100D3800E803D0070A000000BC4C00200064010052
:100D48000A000000B14C002000640100B04C0020F3
:100D580000640100B84C0020006401000A00000093
:100D6800B74C0020006401000A000000B64C0020C7
:100D7800006401000A000000BB4C00200064010070
:100D88000A000000BA4C0020006401000A000000BC
:100D9800B94C0020006401000A000000B54C002096
:100DA80001FF01000A000000B44C002001FF01000F
:100DB8000A000000B34C002001FF01000A000000F7
:100DC800E24A00200000F40101000000E04A00208F
:100DD8000000F40101000000DE4A00200000F401D8
:100DE80001000000DC4A00200000F40101000000BE
:100DF800DA4A00200000F40101000000A94C00209C
:100E080000640100A84C002000640100A74C0020E9
:100E180000640100A64C0020FF080100A54C00203A
:100E28000164010009250208CD240208E8740508B8
:100E3800A44C002000640100A24C00201400E80328
:100E480001000000A04C0020E80330750A000000F3
:100E58009E4C002000C801009D4C002000C80100E5
:100E68009C4C002000C801009B4C0020006401003D
:100E78000A000000D84C00200000D0070100000044
:100E8800D34C002000C80100D24C002000C801004B
:100E9800D14C002000C80100D64C00200000D0072B
:100EA80001000000D04C002000C80100CF4C0020F9
:100EB80000C80100CE4C002000C80100D44C00201E
:100EC8000000D00701000000CD4C002000C8010040
:100ED800CC4C002000C80100CB4C002000C8010009
:100EE800000000003D22020858750508CD4A002080
:100EF80031000000F4750508CC4A002000C8010044
:100F0800CA4A0020E803D007010000004B414B55B6
:100F18005445463456320000574A00200003010069
:100F2800564A0020000301009D210208752102088D
:100F3800BC76050831210208E5200208107705086B
:100F4800C52102086144020890770508544A002028
:100F580001030100692602083D260208847A050873
:100F68007520020835200208E87A0508532202088D
:100F7800BD510208847B05086D400208000000008E
:100F88002C7C0508C9470208C9260208C87C050840
:100F9800A522020800000000487D05087D230208FC
:100FA80029230208AC7D05080D240208D123020874
:100FB800487E0508452502088D250208C87E0508D3
:100FC800AF4C002001060100ED220208B9220208F8
:100FD800C47F050849240208C5440208348005086E
:100FE800C125020849450208148105089A4C0020C9
:100FF800010301000D220208DD210208E88105082D
:1010080095260208000000004C820508B520020859
:1010180031440208B082050800000000000000000A
:101028003C83050815260208C1450208BC8305084B
:10103800364A002088136F1701000000384A002044
:1010480088136F17000000007E6100200000000078
:10105800000000007C61002000000000000000008B
:101068007A61002000000000000000007861002084
:101078000000000000000000766100200000000071
:101088000000000074610020000000000000000063
:10109800640C002000000000000000000C4A002042
:1010A8000200000044850508344A002088136F17A1
:1010B80001000000446C002088136F170000000036
:1010C800C91F020800000000508505080A500020CA
:1010D80001000000A4850508466C002001000000FE
:1010E800B08505083C6C002002000000B8850508A2
:1010F8000000000000000000C4850508B51F0208B4
:1011080000000000608605080000000000000000E4
:10111800B4860508000000000000000024870508C8
:10112800406C0020E0150C170000000004030904BF
:1011380012010002EF02014083045632000201024C
:10114800030100001201000202020040830440571C
:10115800000201020301000009022000010104C08D
:101168003209040000020806500507058102400004
:10117800000705010240000009026400030100C0E5
:1011880032090400000103000000092111010001D7
:101198002226000705830308000A080B0102020241
:1011A80001000904010001020201000524001001E8
:1011B8000524010002042402020524060102070591
:1011C80082030800FF09040200020A000000070564
:1011D80001024000000705810240000009024300A7
:1011E800020100C0320904000001020201000524C6
:1011F8000010010524010001042402020524060050
:1012080001070582030800FF09040100020A000023
:1012180000070501024000000705810240000000A8
:10122800FF0000000C880508000000000000000016
:1012380000000000000000000000000000000000A6
:1012480000000000000000000000000000FFFF0098
:1012580000000000AA55050100000100E08705080C
:101268000000000000000000000000000000000076
:101278000000000000000000000000000000000066
:1012880000000000FF1FFF1F05010905A101A100C3
:101298000501093009310932093309350934094092
:1012A80009381581257F750895088102C0C000009E
:1012B80009022200010100E03209040000010301D3
:1012C80002000921110100012226000705830308F5
:1012D800000A0000000000000102030401020304E8
:1012E80006070809BDEF0208C1EE020819F3020853
:1012F800D5C202084DC80208E5C2020801C30208A7
:10130800ADC202089DC202080000000000000000F3
:101318002D202D2D202D2D2D2D202D2D2D2D000076
:10132800000000000000000000000000000000AA0B
:10133800550B010000AA5507010000AA5509020033
:101348000000AA5503009F0001000000C012000021
:10135800F8700020000000001C7100200000000050
:101368000100000000000100E0010000FFFFFFFF96
:101378000801FFFFFF0000000000000018A3002084
:10138800080000000000000008A30020080000007A
:1013980031C802081DC70208F5F202080000000063
:1013A80099C20208ADEE02086DC6020825EE0208D1
:1013B800000000000000000055C20208E9C1020850
:1013C800DDC1020829E4020845E402080DE4020828
:1013D800F1E30208D5E30208E9C70208F9C60208E2
:1013E80035F20208000000006DC2020829EE02086A
:1013F80041C6020885ED0208000000000000000058
:1014080061C20208010000000000803F00000000E7
:1014180000000000000000000000803F0000000005
:1014280000000000000000000000000000000000B4
:1014380000000000000000000000000000000000A4
:101448000000803F000000000000000000000000D5
:10145800010000000000040100000000000000027C
:101468001000000007000800D9C10208D5C1020811
:10147800D1C10208C5C10208C1C10208CDC1020814
:10148800C9C10208E982010800000000000000004C
:1014980000000000010000000060024010600240EF
:1014A8000000000000000000000B00000000000029
:1014B80000000000000000000060024028600240B8
:1014C8000100000000000000060C00000000000001
:1014D8000000000000000000006002404060024080
:1014E8000200000000000000100D000000000000D5
:1014F8000000000000000000006002405860024048
:101508000300000000000000160E000000000000AC
:10151800000000000000000000600240706002400F
:101528000400000000000000200F00000000000080
:1015380000000000000000000060024088600240D7
:101548000500000000000000261000000000000058
:10155800000000000000000000600240A06002409F
:10156800060000000000000030110000000000002C
:10157800000000000000000000600240B860024067
:101588000700000000000000362F000000000000E7
:1015980000000000000000000064024010640240E7
:1015A80000000000000000000038000000000000FB
:1015B80000000000000000000064024028640240AF
:1015C80001000000000000000639000000000000D3
:1015D8000000000000000000006402404064024077
:1015E8000200000000000000103A000000000000A7
:1015F800000000000000000000640240586402403F
:101608000300000000000000163B0000000000007E
:101618000000000000000000006402407064024006
:101628000400000000000000203C00000000000052
:1016380000000000000000000064024088640240CE
:101648000500000000000000264400000000000023
:10165800000000000000000000640240A064024096
:1016680006000000000000003045000000000000F7
:10167800000000000000000000640240B86402405E
:1016880007000000000000003646000000000000CF
:1016980000000000000000002CEE050838EC0508EA
:1016A8000000000019A80308A0860100040000003B
:1016B8000000000000000000000000000000000022
:1016C8000000000000000000000000000000000012
:1016D80000000000000000002CEE050834EE0508AC
:1016E8000000000019040108E803000004000000DD
:1016F80000000000000000000000000000000000E2
:1017080000000000000000000000000000000000D1
:1017180000000000000000006CDB05083CEE050836
:1017280000000000B99101087D00000006000000DB
:1017380000000000000000000000000000000000A1
:101748000000000000000000000000000000000091
:10175800000000000000000044EE05080000000042
:1017680000000000D9250108E8030000030000007C
:101778000000000000000000000000000000000061
:101788000000000000000000000000000000000051
:10179800000000000000000048EE050800000000FE
:1017A8000000000011640408102700000300000076
:1017B8000000000000000000000000000000000021
:1017C8000000000000000000000000000000000011
:1017D8000000000000000000182A060800000000B1
:1017E8004DFA0308295601085F760000050000003D
:1017F80000000000000000000000000000000000E1
:1018080000000000000000000000000000000000D0
:101818000000000000000000702A06080000000018
:1018280000000000E570010810270000010000001A
:1018380000000000000000000000000000000000A0
:101848000000000000000000000000000000000090
:10185800000000000000000054EE05080000000031
:10186800000000001D040108E80300000500000056
:101878000000000000000000000000000000000060
:101888000000000000000000000000000000000050
:10189800000000000000000060EE050800000000E5
:1018A8000000000061AE0308204E000003000000A5
:1018B8000000000000000000000000000000000020
:1018C8000000000000000000000000000000000010
:1018D800000000000000000070EE05080000000095
:1018E8000000000055A80308204E00000300000077
:1018F80000000000000000000000000000000000E0
:1019080000000000000000000000000000000000CF
:10191800000000000000000080EE05080000000044
:1019280000000000890E0108400D030003000000BC
:10193800000000000000000000000000000000009F
:10194800000000000000000000000000000000008F
:101958000000000000000000ACEC050800000000DA
:101968000000000085D003081027000001000000D7
:10197800000000000000000000000000000000005F
:10198800000000000000000000000000000000004F
:1019980000000000000000006CE9050800000000DD
:1019A80000000000615B030810270000030000002E
:1019B800000000000000000000000000000000001F
:1019C800000000000000000000000000000000000F
:1019D800000000000000000090EE05080000000074
:1019E8000000000031B00208A086010001000000DC
:1019F80000000000000000000000000000000000DF
:101A080000000000000000000000000000000000CE
:101A1800000000000000000098EE0508000000002B
:101A280000000000E108010850C3000001000000A8
:101A3800000000000000000000000000000000009E
:101A4800000000000000000000000000000000008E
:101A5800000000000000000088D705080000000012
:101A6800000000000D060108A86100000100000048
:101A7800000000000000000000000000000000005E
:101A8800000000000000000000000000000000004E
:101A98000000000000000000A0EE050800000000A3
:101AA80000000000399A0308A08601000100000028
:101AB800000000000000000000000000000000001E
:101AC800000000000000000000000000000000000E
:101AD8000000000000000000CCEC05080000000039
:101AE8000000000035310108A00F000001000000CF
:101AF80000000000000000000000000000000000DE
:101B080000000000000000000000000000000000CD
:101B18000000000000000000ACEE05080000000016
:101B2800000000002D8A03081027000001000000B3
:101B3800000000000000000000000000000000009D
:101B4800000000000000000000000000000000008D
:101B58000000000000000000B0E2050800000000DE
:101B680000000000457E03081A4100000100000043
:101B7800000000000000000000000000000000005D
:101B8800000000000000000000000000000000004D
:101B9800000000000000000048D705080000000011
:101BA8000000000005CB020810270000010000001B
:101BB800000000000000000000000000000000001D
:101BC800000000000000000000000000000000000D
:101BD80000000000000000004CEC050800000000B8
:101BE80000000000455902081A41000001000000E9
:101BF80000000000000000000000000000000000DD
:101C080000000000000000000000000000000000CC
:101C18000000000000000000B8EE05080000000009
:101C28000000000069D10208400D03000000000018
:101C3800000000000000000000000000000000009C
:101C4800000000000000000000000000000000008C
:101C58000000000000000000C0EE050800000000C1
:101C680000000000D5030108400D0300000000003B
:101C7800000000000000000000000000000000005C
:101C8800000000000000000000000000000000004C
:101C98000000000000000000C8EE05080000000079
:101CA80000000000AD94030850C3000003000000CA
:101CB800000000000000000000000000000000001C
:101CC800000000000000000000000000000000000C
:101CD8000000000000000000D4EE0508000000002D
:101CE800000000002DAE030840420F000000000075
:101CF80000000000000000000000000000000000DC
:101D080000000000000000000000000000000000CB
:101D18000000000000000000E0EE050800000000E0
:101D280000000000C5AB030850C30000000000001D
:101D3800000000000000000000000000000000009B
:101D4800000000000000000000000000000000008B
:101D580000000000000000000000803FFFFF0000BE
:101D68000C2A06080000080205030300142A0608C6
:101D78000100080205040300D8CE05080200FE0190
:101D8800011003009CD8050803001402000300009A
:101D98001C2A060804001F0201000800242A06085D
:0C1DA80005001F0201010800FFFFFFFF03
:1080000003685A1C02601970704700BF2DE9F047E1
:10801000089C2578002B804689460CBF4FF0200A2B
:108020004FF0300A661C25B3002A26DD334601E0F6
:10803000024698B113F8011B501E0029F8D1971E73
:1080400060B13D46013D51464046C8476B1C002B80
:10805000F8DC257827EAE770013045B1041B294692
:108060004046C847301916F8015B002DF7D1BDE82E
:10807000F087002A03DC2846F9E70020EEE7571EC8
:10808000DFE700BF2DE9F04714461D4606464FF4D2
:108090007A720023204629464BF080FB4D4BDFF8D7
:1080A00048814D4A4D4F034488FB03101844D917AB
:1080B00082FB032CC1EB601088FB002887FB0327A1
:1080C0009C44474AC1EBEC2CC0EB001E82FB0C2900
:1080D000A3EB8E0E1F44434A86F806E0C1EB274708
:1080E0004FEAEC7E08EB000ACEEBA90E82FB07827A
:1080F0004FEAE0780EEB4E0EC8EB6A18ACEBCE0CF4
:10810000C8EB0818DFF8E4E086F804C0A0EB8800AC
:1081100070718EFB0303F817C0EBE21240F2B5500A
:1081200000FB1272C1EBE353B2F5896F4FEA83078C
:108130003CDA40F2DA239A4242DCB2F5B77FB4BFB0
:108140004FF0000E4FF0010E4FEA4E09DFF8A0800D
:1081500009EB0E0308EBC3031FFA8EFCD88A09EB68
:108160000E0108EBC10116310B2301E031F8020DBD
:10817000904218DD013BF9D1CE44012338F83E008E
:10818000B37007F5FA670132121ABC44F270A6F810
:1081900000C0204629464FF47A7200234BF0FEFAC5
:1081A0003281BDE8F0870133DBB2E9E74FF0030C21
:1081B000E64640F29650DFF838804FF00609CEE7E9
:1081C0004FF0020CDFF82880E64640F229404FF0DD
:1081D0000409C4E780BC92C7C5B3A29107452EC26B
:1081E000ABAAAA2A73B06D1689888888792D0311E5
:1081F000C85305080028F0B403DA2D230B70404261
:108200000131092804464FF0010307DD03EB830326
:108210005B00B0FBF3F2092AF8D883B10F48A0FB4A
:108220000326B4FBF3F2092A02F1570C02F13007DE
:1082300009DD03FB1244F30801F801CBEFD1002361
:108240000B70F0BC704703FB1244F30801F8017B8C
:10825000E5D100230B70F0BC704700BFCDCCCCCC77
:10826000884270B44FF0010442D301FB04F4B0FB28
:10827000F4F58D42F9D2ECB142BB092D04FB150097
:1082800005F1570605F130020EDDB4FBF1F403F8F9
:10829000016B7CB1B0FBF4F5092D04FB150005F171
:1082A000570605F13002F0DCB4FBF1F403F8012BC2
:1082B000002CEFD100221A7070BC704703F8016BDC
:1082C000B4FBF1F4002CF5D0B0FBF4F5092D04FB60
:1082D000150005F1370605F13002EFDCB4FBF1F4CF
:1082E00003F8012B002CEFD100221A7070BC7047EC
:1082F0000546002AEAD1C0E790ED057A90ED004AE4
:10830000D0ED066AD0ED014AD0ED047A90ED035A23
:10831000D0ED025AA4EE007AB0EE406AB0EE470A01
:10832000B0EE667AA4EE867A67EEC07AA5EE407A61
:10833000E5EE867A80ED057AC0ED067A704700BFDB
:10834000D0ED057A90ED013AD0ED003AD0ED064A35
:1083500090ED024A90ED077A90ED035A90ED086A8D
:10836000D0ED045AC0ED067AF0EE406A27EE830A9B
:10837000C0ED056AA3EEA60A80ED087AA4EE240AF1
:10838000A5EE470AA5EEC60A80ED070A704700BFB2
:10839000D0ED007A90ED017A30EE670AE7EE007AD0
:1083A000B0EE670AC0ED007A704700BF704700BFAB
:1083B00030B434220023352504240221C270012266
:1083C0008571C4710370C3728373C373417041724A
:1083D00082700272827230BC704700BF06224FF476
:1083E0007A7302704360704730B4332332223125F0
:1083F0004FF47F44FF214370427101230022C57076
:1084000004828174037203700371837042818281DC
:10841000C28130BC704700BF30B415221623172527
:108420003A243B21027043703C22FF238570847202
:10843000C1720273C3700371037243724373837317
:1084400030BC704710B42E21012403220023047095
:1084500041708270C3705DF8044B704770B403467E
:1084600000F11001FF221A705A7002338B42FAD1C8
:108470000E4B00224FF0FF3103F10C0600EB4205DA
:108480000C469E4200F8124069700CD093F90440EB
:1084900093F9051013F8032F00EB42059E4200F8F4
:1084A00012406970F2D170BC704700BF28540508B3
:1084B00030B41D6995420AD314460A4621448D42C0
:1084C000996938BF2A1B214430BC4BF005BC30BC35
:1084D000704700BF0020704701207047012070479F
:1084E000002070474FF40070024B10609B680B60D7
:1084F0000020704700B60020013A30B4D2B28C1C84
:1085000004EB42040025020F092AD3B203F1300222
:108510008ABF37330A700B704D7002318C424FEABC
:108520000010F0D130BC70470B4A0C4B10681B6830
:108530001A22C0180A8001D10948704710B5094BAA
:1085400009491C680822FFF7D7FF20460422074983
:10855000FFF7D2FF024810BDE8F7FF1FECF7FF1F3F
:1085600088010020EAF7FF1F8A0100209A010020FD
:1085700004230B8000487047A401002012230B80C5
:1085800000487047A8010020232203230270437093
:10859000704700BF08307047704700BF8161704767
:1085A0006D4B2DE9F04F1C686C4BB3F80AE0B3F843
:1085B00004809A894FEA0E2AB4EB0A044FEA1E6B34
:1085C0004FF0000587B065EB0B05CDE90045074688
:1085D000009C1889019EA0FB044500FB0655E0099C
:1085E00040EA45604FEA08448C46E9114FEA1845D5
:1085F00010EB0408D888009C41EB0509CDE90489FB
:10860000A0FB0445B3F8028000FB0655200A40EAAF
:1086100005604FEAC83429124FEA584510EB0408A8
:1086200041EB05090099A2FB010102FB06114FEA8B
:10863000D05A4AEA412A1AF5FA634FEAE15B4BF154
:108640000004B3F5FA6FCDE9023474F10003424E31
:1086500064DA0524AAFB040104FB0B1100FB0BF4F4
:108660000AFB0144DDE90423A0FB0A0121444D106B
:108670004FEA3004121B4FEA900463EB050344EA0F
:108680008174B8EB0408CDE90423DDE902343448F1
:108690004FEAA10569EB05094FF0FF31834274EB06
:1086A000010326DA40F6AC501AEB00024FF000014D
:1086B0004BEB010302FB03F1A2FB022303EB41039B
:1086C000D400DD00101B45EA527563EB0501DDE9BE
:1086D000044524184D41CDE904450B24A2FB0401B7
:1086E00004FB031149104FEA3000B8EB000869EBB6
:1086F0000109DDE900325343009ADDE90201A2FBE2
:1087000002AB0BEB430B4FEADA7242EA4B02801AE0
:108710004FEAEB7361EB0301CDE9020197B1716898
:10872000A1FB082301FB0933540D5D1544EAC32462
:10873000DDE90423A21A65EB03031D46D30B43EACC
:1087400045433B60BCF1000F02D0029BCCF80030E7
:1087500007B0BDE8F08F00BFC816002048540020C5
:1087600024FAFFFF2DE9F04FDFF8DCC1754CDCF88F
:1087700008502288B4F90AA0C2EB25135200C2EBBC
:10878000E502B4F902505B436A43B4F904501B1389
:108790005D43AD1305EBE225B5F5FA324FEAE57B13
:1087A00085B04BF1FF33CDE90023DDE900325343BF
:1087B000009AA561A2FB0289CDE90201B4F9082063
:1087C0000199009809EB43095143D31700FB0311AA
:1087D000A2FB00230B444FEAEA7B0AFB09F11F03CB
:1087E00008FB0B13AAFB080119444FEA102A4AEAB6
:1087F000016A16034FEA212B47EA12571AEB0602C9
:10880000E6884BEB070312F1000A43F5004BAAFB85
:10881000060106FB0B114A10CB1752EA030100F0C8
:108820008E80B4F91060009806FB09F1F71708FB79
:108830000711A6FB08673944B4F90E808B460199ED
:108840004FEAE87908FB01F100FB0911A8FB008958
:108850008944DCF80C104FEA4947C1F5801C47EA0F
:10886000D837B2464FEA4846B4F90C801AEB060AEC
:1088700066464BEB070BF7174FEAC8060196002632
:108880000096F907DDE900674FEACC7016EB0A069F
:1088900047EB0B0741EA5C01801B61EB070140F6E7
:1088A000354C8946A0FB0C010CFB09114AF076FF00
:1088B000B4F91620B4F914A04E13470B47EAC14788
:1088C00002FB06FCD31707FB03CCA2FB0723634480
:1088D000564307FB0366A2FB07233344560E46EAC2
:1088E000C31632184FEA636747EB010380460AFB61
:1088F00001F14FEAEA7B08FB0B17AAFB0801394498
:10890000C60C46EA413612EB06084FEAE147B4F9D5
:10891000122043EB07094FEA182141EA09611301CC
:108920000B44029A0AB11B0A1360039B23B105EBA7
:10893000850580352D121D6005B0BDE8F08F002340
:10894000EFE700BF5C540020C81600207047704756
:10895000012380F8583070474FF400630384704758
:10896000F0B4037C456902681F2B37D9203B2021D6
:10897000546899400C4223D010249C40D160D460AC
:108980005168D940CE074ED4EFF31183502282F3C1
:108990001288EA6B1168C90709D45468002C52D1B7
:1089A000D5E909618E4243D1012285F86020DBB20E
:1089B00083F31188037C02681F2B194614D9203BCE
:1089C000082150689940084200D0D16004215068C5
:1089D00001FA03F3184223D1F0BC70472024166833
:1089E0009C4026420FD11946082310688B4018423C
:1089F00000D093600423106803FA01F10842EBD021
:108A00009160F0BC704710219940946091601168AA
:108A1000D940CC07B8D5012101FA03F39360B3E73D
:108A2000D360F0BC7047012101FA03F3D360ABE7D8
:108A3000AF690F44D7600ED82E69711A5160AC62CD
:108A4000002185F86010116841F00101DBB211606E
:108A500083F31188AEE7711A5160AE62F0E700BF90
:108A60002DE9F041B14DB24C2A7823789A4240F07A
:108A70001B81B04B1A78002A7CD0AF4B1E78AF4BCD
:108A8000002E79D11968B3F82C714E628889012AB9
:108A900040EA07008881A3F82C6157D0D3F8301141
:108AA000B3F85C724E628889022A40EA0700888126
:108AB000A3F85C624AD0D3F86012B3F88C734E62AC
:108AC0008889032A40EA07008881A3F88C633DD097
:108AD000D3F89013B3F8BC744E628889042A40EA34
:108AE00007008881A3F8BC6430D0D3F8C014B3F871
:108AF000EC754E628889052A40EA07008881A3F850
:108B0000EC6523D0D3F8F015B3F81C774E62888952
:108B1000062A40EA07008881A3F81C6716D0D3F81C
:108B20002017B3F84C784E628889072A40EA07007C
:108B30008881A3F84C6809D0D3F85028B3F87C0991
:108B40005662918901439181A3F87C692A78237840
:108B50009A420FD07A481F469B003B449B00C218A4
:108B6000C3583BB9137A2BB9537A1BB97B1C03F05A
:108B700003032370BDE8F0815E681989716037686E
:108B8000186847F0010740F20D313760A0F848102F
:108B90008689012A46F480768681D7D0D3F834615D
:108BA000B3F83871D3F830017760376847F00107C0
:108BB0003760A0F848108689022A46F480768681BC
:108BC000C4D0D3F86462B3F86872D3F860027760F7
:108BD000376847F001073760A0F848108689032AF4
:108BE00046F480768681B1D0D3F89463B3F8987355
:108BF000D3F890037760376847F001073760A0F833
:108C000048108689042A46F4807686819ED0D3F85F
:108C1000C464B3F8C874D3F8C0047760376847F009
:108C200001073760A0F848108689052A46F4807647
:108C300086818BD0D3F8F465B3F8F875D3F8F005D6
:108C40007760376847F001073760A0F848108689D9
:108C5000062A46F4807686813FF478AFD3F82467FD
:108C6000B3F82877D3F820077760376847F0010713
:108C70003760A0F848108689072A46F480768681F6
:108C80003FF464AFD3F85428B3F85808D3F85038F9
:108C90005060106840F001001060A3F848109A89F5
:108CA00042F480729A8151E7804609F0DFFE27780E
:108CB0002B78BB4286461DD0BB002148DA1900EB59
:108CC0008202167AC6B1B8F1000F3DD01D490022CC
:108CD000B1F808C00132BCF1000F18BF00264245B0
:108CE00001F58071F4D17EBB124A1278002A3FF45C
:108CF00034AFC2E61248BB003B449B00C118C258C7
:108D0000AEEB0202002AFFF635AF4A7A3AB1013AD9
:108D1000D2B24A7212B30EF57A72C25000E0C2505B
:108D2000044B1A78002A7FF4A8AE0FE728E1002050
:108D300029E10020403200103C32001068CE0020B3
:108D40002CE1002068C60020DA1992000EF51C51B3
:108D500086181031815000223272C5E74A68724489
:108D6000C250DDE710B5027C01681F2A4FF02003D6
:108D70000ED94C68203A93401C4208D00B4A4068F8
:108D800000241470026822F001020260CB6010BD62
:108D90000C6893401C42FAD0044A406800241470C6
:108DA000026822F0010202608B60F0E72F8E002043
:108DB0002DE9F041C40023189B00B749CA585268F6
:108DC000958AADB2EFB2FE070B4461D4BE0737D52A
:108DD000BFF35F8F1D7EEDB2012D00F0BB80AF4E63
:108DE000138BBFF35F8F231801EB83031D7E022DCE
:108DF00000F0CE80231801EB83031D7E032D05D1E7
:108E00009B7E1BB1737C002B40F01A81938896F9EE
:108E100010C043F480639380231801EB83031B7E0F
:108E2000013363450AD1B37C00257574002B40F0F3
:108E30008A80204401EB800000234375BDE8F08167
:108E4000964E17F0040F96F910C04DD117F0400759
:108E500000F0B280178A1D6AFFB205F80C705FFA45
:108E60008CF56F1C93F818E07BB2DF1CBE453374A1
:108E70009C4600F00981271801EB87073F7EBB4223
:108E8000CAD105F1020C4FFA8CFC86F810C0C3E77A
:108E90001588824E25F400652D042D0C158015884B
:108EA00045F4806515809D7E00273774002D3DD0E8
:108EB000757C002D37D0231801EB830301251B7E21
:108EC0007574022B03D1138843F4006313802318B5
:108ED00001EB83039B7D43F001031382204401EBEC
:108EE0008000037EBDE8F0819F7E757C4FF0010E0F
:108EF00086F812E0002F5CD0002D78D1231801EB0A
:108F000083035B7E002B00F0A48013880CF1010C1E
:108F10004FFA8CFC43F4007386F810C0138013885A
:108F2000DF05FCD478E7DB7DFF2BC4D0231801EBF1
:108F300083039D7D05F0FE051582DB7DFF2BCDD0E3
:108F4000FF233374CAE7938823F440731B041B0C7C
:108F500093806EE79B7E514E002B3FF441AF737CB4
:108F6000002B3FF43DAF138823F480631B041B0CDC
:108F70001380BFF35F8F138B1388B57443F40073B2
:108F80001380938896F910C043F48063938043E77D
:108F90009B7E002B3FF42EAF737C002B3FF42AAF57
:108FA000138896F910C023F480631B041B0C1380F4
:108FB00016E0002DA2D0A8E72D067FF52DAFBCF15D
:108FC000FF3F6DD0DD6915F80C5015820CF1010CD6
:108FD0001D7E4FFA8CF39D429C4633747FF41CAF88
:108FE000938823F480631B041B0C938014E71F7E7B
:108FF000D3F820805FFA8CF5AE44022F4FFA8EFE34
:1090000017882DD927F480673F043F0C1780178AF3
:10901000FFB208F80C701788D3F820C047F400732B
:109020001380138ADBB20CF80E30938805F1020C22
:109030004FFA8CFC43F4806386F810C093806EE78F
:10904000938896F910C023F480631B041B0C938053
:10905000E2E61388012543F48073138075745EE79C
:1090600047F400771780178AFFB208F80C70178A48
:10907000D3F8208005F1030C4FFA8CFCFBB286F884
:1090800010C008F80E304AE7978827F480673F043D
:109090003F0C9780EFE600BF8C470020C8160020E9
:1090A000DD7D15829D7E37741DB91B7E002B7FF4FC
:1090B00015AF938823F480631B041B0C93800DE78A
:1090C00047F0C6BD014B18680AF030B89043002045
:1090D00038B51D4B1B78044600F1250593B10422D9
:1090E0001A4920304CF05AF92846142218494CF0FD
:1090F00055F9012384F83A30164B1B7873B984F87C
:109100003B3038BD2846142213494CF047F901235F
:1091100084F83A300F4B1B78002BF0D00F4B1868B7
:1091200059689A68DD68E56020606160A260DD6969
:10913000186959699A69A2610123E5612061616139
:1091400084F83B3038BD00BF05A30020D4A2002026
:10915000BCA2002006A30020D4BF0508DCA200208A
:1091600010B4292128240122002304704170827048
:10917000C3705DF8044B70472DE9F84FDDE90A64D0
:109180008946174600212022984605464CF0C8F82B
:109190005EB1D6E900327189EB81C3F30F432B82B4
:1091A000C2F30F43EA822B836982484649F000FEEE
:1091B00017F0100B10D1431E70B119F803202E2A9E
:1091C00018BF09EB030104D14AE011F8016D2E2EFE
:1091D0003ED013F1FF33F8D208280246CA46A8BF92
:1091E00008224FF0000B4FF020336B602B60C5F866
:1091F00007304946284605F108064AF06DFD5A46F3
:10920000514630464AF068FD6B1EE81D13F8012FE9
:10921000A2F1610119299CBF203A1A708342F5D14D
:1092200005F10B0116F8013BA3F16102192A9CBF5D
:10923000203B06F8013CB142F4D11823C8F30F4299
:10924000EF722B73A5F81A80AA82EC61BDE8F88F43
:10925000C01A00F1FF3BBBF1030FA8BF4FF0030B97
:10926000082B03F1010AA8BF0823CA441A46BAE72B
:1092700038B52E2200214CF053F8034640F2DC5161
:10928000642040F21A4240F20224187459821320DA
:1092900019219A8240F2753240F26C751C839876DF
:1092A0000E240A201977DA8302210122DD8283F855
:1092B0002D0040F64305197283F82C1083F82240E4
:1092C0009A7383F8252083F82B201D8419460248C1
:1092D000BDE8384022F0DABCE0BF050810B5002137
:1092E0000446012008F0A8FD207010BD38B5002408
:1092F0000472451EE1B2022008F09EFD0134082CE4
:1093000005F8010FF6D138BD38B5002405460480B4
:1093100021462846013430F08FFD082CF8D1002179
:1093200085F8E210A5F8E410A5F8E610A5F8E81015
:10933000A5F8EA10A5F8EC10A5F8EE10A5F8F010C5
:10934000A5F8F2102846BDE8384030F037BD00BF20
:109350002DE9F04F002087B00C461D4601219246B2
:109360000CF016F9002D63D005EB0A03DFF8D0945A
:10937000DFF8D0B4039355461CE0002D00F0C58102
:10938000D9F81430AB4264D0D9F81030AB4200F0B9
:109390009780D9E90631AB4252D8A94200F26F81D9
:1093A000691A204641F0ECF9039B01359D4204F512
:1093B00000743DD0D9F82060AE42DED8D9F83080B4
:1093C000AE1B4FEAD60AD8F830300AF1020A9A45A5
:1093D00006F0070603D3D8F838309A4509D9414634
:1093E000504641F09BF98046002800F04D81C9F8B5
:1093F000300098F80430002B40F0E280D8F8287054
:10940000002F00F0DF81D8F83030D8F80C20AAEB1C
:10941000030A06EBCA0A4346204602EB4A224FF4EF
:109420000071B847039B01359D4204F50074C1D11A
:10943000002108460CF0ACF8002007B0BDE8F08F22
:10944000A942ADD94FF40072002120464BF068FFCD
:10945000AAE7522261204123002622706270A07088
:10946000722284F8E70184F8E631D9F82800E37025
:109470004FF0FF33314684F8E42184F8E521C4F845
:10948000E8014FF4F07284F8EC3184F8ED3184F89F
:10949000EE3184F8EF31201D4BF042FF55216FF083
:1094A0005502C4F8F061C4F8F461C4F8F86184F8B6
:1094B000FC6184F8FD6184F8FE1184F8FF2173E7F4
:1094C0004FF40072002120464BF02AFFD44BD54FB9
:1094D00003CBEB23022223704FF0080C9026F823D5
:1094E0004FF0580EC4F80300227484F80DC0C4F87D
:1094F000071084F801E0A6706375D9F81010D9F848
:109500000830D9F81C602273591A21624FF0FF31DC
:1095100000233F20A1763E21A273E372E3736374BC
:10952000A374E3742375A375E3756376E3766377B9
:10953000A377E3772076217784F82C2007CFD9F81A
:10954000187084F82830F61B84F8293084F82A3003
:1095500084F82B3084F82D3084F82E3084F82F30A6
:1095600084F8313084F8323084F8333080236662F6
:10957000C4F8470004F1470684F8403029209423BA
:10958000A94F84F846C084F8420084F843300E2086
:109590000D234FF0010C84F8440084F8453084F822
:1095A00030C0716003CF33465527AA269A60C4F8AD
:1095B0005200C4F8561084F8FE7184F8FF61F3E697
:1095C0004FF40072002120464BF0AAFED8F840303C
:1095D000002E61D104F12007002B77D0D8F830306D
:1095E00092491122CDE900662046FFF7C5FDD8F863
:1095F00040301A6C04F1400A002A79D01B6B8C4968
:10960000CDE9006638461122FFF7B6FDD8F8446070
:10961000002E3FF4C9AE4FF4E078CDE904450CE0EC
:109620000024CDE900C4FFF7A7FDB66CBA46A8F147
:1096300020080EB3B8F11F0F1ED93468356B96F8A9
:1096400004E011222B46214650460AF1200706F17C
:109650001C0CBEF1000FE3D172793369019342F023
:1096600021022B46CDF800C0FFF786FDB66CBA4646
:10967000A8F12008002EDDD1DDE9044594E6E91AC1
:10968000204641F07DF88FE6231F04F5FE7243F873
:1096900004BF9A42FBD187E6002BD8F844200CBFC8
:1096A00001230223C3EB0613002A3FF47DAE966C20
:1096B000013B002E3FF478AE013BB66CF9D1002E91
:1096C0003FF472AEA2464FF40078A6E7CDE90066FB
:1096D0003346D9F80C1008222046FFF74DFDD8F884
:1096E0004460002E3FF460AEBA464FF4F07894E741
:1096F000CDE900663346384611224D49FFF73CFD5F
:10970000D8F84460002E86D14EE64FF40072294608
:1097100020464BF005FE80220C2384F8BE2184F8FD
:10972000C231D9F81000434BD9F8086084F8B85119
:1097300083FB0032C117C1EB2232B2F5806F84F88F
:10974000B95184F8BA5184F8BB5184F8BC5184F8FB
:10975000BD51C4F8C601C4F8CA6142DBFF2384F8D6
:10976000BF3184F8C13184F8C031324B711E83FBA4
:109770000132CE17C6EB2232B2F5806F29DA2E4BBA
:1097800084F8C52183FB01030B442C48C6EB63130B
:10979000C3EB831680FB0370891B1844DE179210FD
:1097A00022F03F020131C6EBE0100A43034484F883
:1097B000C42184F8C3315522AA2384F8FE2184F8F9
:1097C000FF31F1E539464FF4007220464BF0A8FD19
:1097D000EAE5FF2384F8C33184F8C53184F8C43145
:1097E000E9E7154B84F8C12183FB00730344134F51
:1097F000C1EB631387FB0317C3EB831C9110A0EB32
:109800000C02F818DF1721F03F010132C7EBE0101E
:109810000A43034484F8C02184F8BF31A5E700BFA0
:10982000F4BF050800C0050810C00508ECBF050816
:10983000F0BF0508975545418320088281808080CC
:1098400000B60020DEADBEEF08B5012026F0B0F86E
:10985000174A936803F00C03042B1ED0082B18D171
:1098600051685368490203F03F0319D45268114804
:10987000B0FBF3F0C2F3881300FB03F00C4B0E4A6D
:109880005B68C3F3014301335B00B0FBF3F010608E
:1098900008BD094B074A1A6008BD074B186008BD90
:1098A000B0FBF3F05368C3F3881300FB03F0E5E764
:1098B000003802400024F4000CC5002010B5044C10
:1098C00004480A46214624F05FFD204610BD00BF33
:1098D000DC1600201CC0050810B5044C04480A46DC
:1098E000214624F051FD204610BD00BFDC160020AB
:1098F0002CC0050810B5044C04480A46214624F043
:1099000043FD204610BD00BFDC16002038C005080E
:109910000A4608B5054920B1054824F035FD03483D
:1099200008BD044824F030FD004808BDDC160020C6
:1099300064C005084CC0050830B5437F83B00446B9
:109940001BB90120637703B030BD052502236A46A9
:1099500001A90068ADF804500DF01EFA9DF8013021
:1099600003F0010383F00100637703B030BD00BF53
:10997000F8B5074C05460F46266803E023689B1B95
:10998000BB4204D82846FFF7D7FF0028F6D0F8BD21
:1099900050AF002010B545F2082182B00446FFF711
:1099A000E7FF02A9062301F8023D206840F010FB02
:1099B00002A9C72301F8013D01232068637740F025
:1099C00007FB02B010BD00BF10B5027F84B00023BA
:1099D0000446D82002938DF80C308DF80800EAB1C7
:1099E0000B0E8DF809300DF10A030A0A080C5A70A3
:1099F0009970187041F288312046FFF7B9FF04A929
:109A0000062301F8093D206840F0E2FA012302A98B
:109A10006377206840F098FA04B010BD0DF1090397
:109A2000E3E700BFF8B584894FF6FF764FF47A7408
:109A300033B319B30F78013101E0B44218D005896E
:109A4000013CAD07A4B2F8D5BCB284814FF47A745E
:109A500002E0BCB2B4420BD00589ED0704F1FF3738
:109A6000F7D58589ADB20AB115700132013BDFE748
:109A70000DF076F9003018BF0120F8BDFF27DEE7B2
:109A80000120F8BDF0B5077F83B004464FF0030C0A
:109A90000020009016461D468DF804008DF800C089
:109AA0004FB30B0E8DF801300DF10203080C0A0ABA
:109AB00099701870062120465A70FFF759FFC0B1FF
:109AC00020680DF03DF9237F2268002B14BF052389
:109AD0000423694650680022FFF7A4FF236832463A
:109AE000586800212B46FFF79DFF20680DF022F9F2
:109AF000284603B0F0BD0DF10103D7E7F0B5077FAD
:109B0000836985B004464FF0020C002002900E4697
:109B100015468DF80C008DF808C0002F33D01A0EB2
:109B20008DF809200DF10A02180C1F0A93701070AD
:109B3000577006212046FFF71BFF04A9062301F8F2
:109B4000093D206840F044FA0123637720680DF056
:109B5000F7F8237F2268002B14BF0523042302A9F2
:109B600050680022FFF75EFF2368314600225868E4
:109B70002B46FFF757FF20680DF0DCF8A2692A4456
:109B8000A26105B0F0BD0DF10902CDE710B4144695
:109B900081611A4621465DF8044BAFE7F0B5076ACC
:109BA00083B0064617B13B68BA885A837069DFF8FC
:109BB000A8E08389C3244FF47A734FF0060C6D46F6
:109BC0004FF6FF710EF1010E03E0013B9BB28B4299
:109BD00020D002899207F8D5A3B283814FF47A731B
:109BE00002E0A3B28B4215D00289D20703F1FF3401
:109BF000F7D5828992B20DB12A700135BCF1000F00
:109C00000BD00CF1FF3CFF24BEF1000FE1D09EF819
:109C10000040D7E70DF0A4F8376A17B13B68BA885F
:109C20001A839DF805009DF801509DF802109DF8DB
:109C300003409DF804209DF8063041EA052143EADF
:109C4000002342EA04220120A6F85810A6F85A2060
:109C5000A6F85C3003B0F0BD3854050810B500F12B
:109C60000C040022212120460DF0C4F9FC22202101
:109C700020460DF0BFF94022242120460DF0BAF90C
:109C80000C22232120460DF0B5F900222221204686
:109C90000DF0B0F9642008F0A9FF012010BD10B547
:109CA00000F10C0401220B2120460DF0A3F920B194
:109CB0001D22092120460DF09DF900F0010010BD84
:109CC00010B500F10C047022002120460DF092F92D
:109CD0002022012120460DF08DF90022022120468C
:109CE0000DF088F9642008F081FF012010BD0122E9
:109CF00048210DF07FB9012258210DF07BB93122A6
:109D0000F4210DF077B913B506230C466A462821D5
:109D10000C300DF097F8F0B19DF801309DF800205F
:109D200042EA032204219DF8033012B292FBF1F2C1
:109D300022809DF8022042EA032212B29DF80430EC
:109D400092FBF1F262809DF8052043EA02231BB2E8
:109D500093FBF1F3A38002B010BD7FB5002500F1A5
:109D60000C060C460D804D808D8001230DF10702FD
:109D7000062130460DF066F810B9002004B070BD21
:109D80009DF807305B07F8D5062302AA294630461E
:109D90000DF058F80028F0D09DF809209DF8083003
:109DA00043EA022323809DF80B209DF80A3043EA02
:109DB000022363809DF80D209DF80C3043EA0223B6
:109DC000A380DBE713B506230C466A4603210C305B
:109DD0000DF038F8A0B19DF800209DF8013043EA5D
:109DE000022323809DF802209DF8033043EA0223DA
:109DF000A3809DF804209DF8053043EA0223638088
:109E000002B010BD07B5032301AA00210DF01AF816
:109E10009DF805309DF804001B0243EA00439DF8BD
:109E20000600184303B05DF804FB08B5FFF7EAFF2E
:109E3000014B586008BD00BFC816002008B5FFF7E9
:109E4000E1FF014B186008BDC816002007B50623C6
:109E50006A46F7210CF0F6FF9DF801309DF80010DE
:109E60000B4A1B0143EA01339DF8021043EA111328
:109E7000D3609DF804309DF803101B0143EA0133C1
:109E80009DF8051043EA1113936003B05DF804FBDD
:109E9000C816002070B582B0044606230C306A460E
:109EA0003B210CF0CFFFA8B19DF804009DF80060A5
:109EB0009DF801109DF802509DF803209DF8053093
:109EC00041EA062143EA002342EA05226184A28492
:109ED000E384012002B070BD2DE9F04F9F4985B0A9
:109EE00091F8133101904068002B00F047810388FE
:109EF0009B4A23F040031B041B0C0380038823F0C0
:109F000038031B0490424FEA134300F0248102F50A
:109F1000806290420CBF3022382213430380019BA1
:109F200002881B6942F04002028013B11A689B88C4
:109F30005383838940F2E93302E0002B00F0528121
:109F40000289013B12F0020F9BB2F6D06B23838192
:109F500040F2E93302E0002B00F044810289013B2A
:109F600012F0010F9BB2F6D08389838940F2E93366
:109F700002E0002B00F033810289013B12F0020F56
:109F80009BB2F6D08023838140F2E93302E0002BBC
:109F900000F025810289013B12F0010F9BB2F6D03F
:109FA0008389019B1B6913B11A689B88138315234E
:109FB0006C4CDFF8BC916C4DDFF8B8A1039396238D
:109FC000DFF8B481694E009308F050FD4FF47A77C2
:109FD0004FF0100C4FF0010ED8F80430C3F3080313
:109FE000002B40F09080EFF31183002B40F08B802A
:109FF0002368A96822689342FAD132689142F7D85F
:10A00000D9F8002007FB02FBABEB0101B1FBF2F139
:10A0100007FB03131B1AB3F57A7FDDD3009B013BCB
:10A020000093D1D1019B1B6913B11A689B8853839C
:10A03000019B586840F2E933828902E0002B00F06E
:10A04000BC800289013B12F0020F9BB2F6D0F523CF
:10A05000838140F2E93302E0002B00F0AE800289F8
:10A06000013B12F0010F9BB2F6D08389838940F245
:10A07000E93301E0002B65D00289013B12F0020FA9
:10A080009BB2F7D0FF23838140F2E93301E0002B3C
:10A0900058D00289013B12F0010F9BB2F7D083899F
:10A0A000DBB20293019B1B6913B11A689B8813836F
:10A0B000029B982B00F0888049D9AC2B45D0AF2B60
:10A0C00040F084800920019B25495B681A8822F0B2
:10A0D00040021204120C1A801A8822F0380212046C
:10A0E0008B424FEA12426DD001F580618B420CBF6A
:10A0F000082110210A431A801A8842F040021A806F
:10A1000005B0BDE8F08FEFF311818CF31288D5F81C
:10A1100008B02B68DB0344BFCAF800E0D5F808B0EC
:10A120002368DAF80020C9B281F31188D9F8001049
:10A13000134407FB01F2A2EB0B02B2FBF1F207FBA7
:10A14000032367E70CF00CFEACE70720BBE7122BFC
:10A150003CD10820B7E73022DFE600BFC816002058
:10A160000038004050AF002010E000E058AF002061
:10A1700054AF00204CAF002000ED00E003881D4AE2
:10A1800023F040031B041B0C0380038823F03803D7
:10A190001B0490424FEA134329D002F5806290429B
:10A1A0000CBF08221022134303800388012243F0CE
:10A1B0004003038081F8132199E60CF0D1FD019B47
:10A1C000586853E7082195E70B207CE7039B013B88
:10A1D00013F0FF0303937FF4F2AE039890E70CF0C3
:10A1E000BFFDDEE60CF0BCFD019B5868BDE6082211
:10A1F000D9E700BF003800402DE9F04F85B090F856
:10A2000069300090002B40F08587009BAC4A58696C
:10A21000038823F040031B041B0C0380038823F0F6
:10A2200038031B0490424FEA134301F0168002F5F5
:10A23000806290420CBF3022382213430380009B7F
:10A2400002881B6A42F04002028013B11A689B88A0
:10A250005383838940F2E93302E0002B01F004804C
:10A260000289013B12F0020F9BB2F6D06B2383816F
:10A2700040F2E93302E0002B00F0F6870289013B4F
:10A2800012F0010F9BB2F6D08389838940F2E93343
:10A2900002E0002B01F012800289013B12F0020F54
:10A2A0009BB2F6D08023838140F2E93302E0002B99
:10A2B00001F004800289013B12F0010F9BB2F6D03D
:10A2C0008389009B1B6A13B11A689B8813836423DC
:10A2D0007C4C7D4EDFF8FCE17C48DFF8FC817C4F54
:10A2E00001934FF01009DEF80430C3F30803002B8C
:10A2F00040F00186EFF31183002B40F0FC852568C8
:10A30000826823689D42FAD13B689A42F7D8D6F812
:10A3100000C04FF47A7101FB0CF39B1AB3FBFCF302
:10A3200001FB05354FF47A7C4FF0010ADEF804306A
:10A33000C3F30803002B40F0BF85EFF31183002B1C
:10A3400040F0BA852368816822689342FAD13A685E
:10A350009142F7D832680CFB02FBABEB0101B1FB79
:10A36000F2F10CFB03135B1BB3F57A7FDED3019B89
:10A37000013B0193B7D1009B1B6A13B11A689B88FC
:10A380005383009B586940F2E933828902E0002B35
:10A3900000F08E870289013B12F0020F9BB2F6D0CB
:10A3A0006823838140F2E93302E0002B00F08087CC
:10A3B0000289013B12F0010F9BB2F6D08389838999
:10A3C00040F2E93302E0002B00F06E870289013B86
:10A3D00012F0020F9BB2F6D00323838140F2E933DF
:10A3E00002E0002B00F060870289013B12F0010FB0
:10A3F0009BB2F6D08389009B1B6A13B11A689B88B5
:10A4000013836423DFF8CCE03048DFF8CC80304F92
:10A4100001934FF01009DEF80430C3F30803002B5A
:10A4200040F0F085EFF31183002B40F0EB852568B9
:10A43000826823689D42FAD13B689A42F7D8D6F8E1
:10A4400000C04FF47A7101FB0CF39B1AB3FBFCF3D1
:10A4500001FB05354FF47A7C4FF0010ADEF8043039
:10A46000C3F30803002B40F00885EFF31183002BA2
:10A4700040F003852368816822689342FAD13A68E4
:10A480009142F7D832680CFB02FBABEB0101B1FB48
:10A49000F2F10CFB03135B1BB3F57A7FDED3019B58
:10A4A000013B0193B7D1009B1B6A13B11A689B88CB
:10A4B0005383009B586940F2E933828911E000BF61
:10A4C0000038004050AF002054AF002010E000E002
:10A4D00058AF002000ED00E04CAF0020002B00F052
:10A4E000DD860289013B12F0020F9BB2F6D06B238E
:10A4F000838140F2E93302E0002B00F0CF8602892D
:10A50000013B12F0010F9BB2F6D08389838940F2A0
:10A51000E93302E0002B00F0BD860289013B12F016
:10A52000020F9BB2F6D00123838140F2E93302E0AF
:10A53000002B00F0AF860289013B12F0010F9BB2A5
:10A54000F6D08389009B1B6A13B11A689B8813831A
:10A550000F23DFF844E28E48DFF840828D4F0193ED
:10A560004FF01009DEF80430C3F30803002B40F06D
:10A570002785EFF31183002B40F022852568826840
:10A5800023689D42FAD13B689A42F7D8D6F800C0BA
:10A590004FF47A7101FB0CF39B1AB3FBFCF301FB44
:10A5A00005354FF47A7C4FF0010ADEF80430C3F32E
:10A5B0000803002B40F04284EFF31183002B40F09E
:10A5C0003D842368816822689342FAD13A689142B7
:10A5D000F7D832680CFB02FBABEB0101B1FBF2F1E7
:10A5E0000CFB03135B1BB3F57A7FDED3019B013BAE
:10A5F0000193B7D1009B1B6A13B11A689B885383E0
:10A60000009B586940F2E933828902E0002B00F098
:10A610003B860289013B12F0020F9BB2F6D01B234E
:10A62000838140F2E93302E0002B00F02D8602899D
:10A63000013B12F0010F9BB2F6D08389838940F26F
:10A64000E93302E0002B00F01B860289013B12F087
:10A65000020F9BB2F6D01823838140F2E93302E067
:10A66000002B00F00D860289013B12F0010F9BB216
:10A67000F6D08389009B1B6A13B11A689B881383E9
:10A680000F23DFF814E14248DFF81081414F0193B6
:10A690004FF01009DEF80430C3F30803002B40F03C
:10A6A0006D84EFF31183002B40F068842568826885
:10A6B00023689D42FAD13B689A42F7D8D6F800C089
:10A6C0004FF47A7101FB0CF39B1AB3FBFCF301FB13
:10A6D00005354FF47A7C4FF0010ADEF80430C3F3FD
:10A6E0000803002B40F08C83EFF31183002B40F024
:10A6F00087832368816822689342FAD13A6891423D
:10A70000F7D832680CFB02FBABEB0101B1FBF2F1B5
:10A710000CFB03135B1BB3F57A7FDED3019B013B7C
:10A720000193B7D1009B1B6A13B11A689B885383AE
:10A73000009B586940F2E933828902E0002B00F067
:10A7400099850289013B12F0020F9BB2F6D01C23BF
:10A75000838140F2E93302E0002B00F08B8502890F
:10A76000013B12F0010F9BB2F6D08389838940F23E
:10A77000E93302E0002B00F073850289013B12F0FF
:10A78000020F9BB2F6D01823838140F2E9330AE02E
:10A7900010E000E058AF002000ED00E04CAF0020DA
:10A7A000002B00F05D850289013B12F0010F9BB286
:10A7B000F6D08389009B1B6A13B11A689B881383A8
:10A7C0000F23DFF870E29948DFF86C82984F01930D
:10A7D0004FF01009DEF80430C3F30803002B40F0FB
:10A7E000AC83EFF31183002B40F0A78325688268C8
:10A7F00023689D42FAD13B689A42F7D8D6F800C048
:10A800004FF47A7101FB0CF39B1AB3FBFCF301FBD1
:10A8100005354FF47A7C4FF0010ADEF80430C3F3BB
:10A820000803002B40F0CE82EFF31183002B40F0A1
:10A83000C9822368816822689342FAD13A689142BA
:10A84000F7D832680CFB02FBABEB0101B1FBF2F174
:10A850000CFB03135B1BB3F57A7FDED3019B013B3B
:10A860000193B7D1009A92F86330032B00F24F8422
:10A8700092F86650012D0AD0022D40F0488492F8DB
:10A880006B3003F0FB03022B0CBF00250725009B58
:10A890001B6A13B11A689B885383009B586940F266
:10A8A000E933828902E0002B00F02C850289013B0C
:10A8B00012F0020F9BB2F6D01A23838140F2E933E3
:10A8C00002E0002B00F01E850289013B12F0010F0F
:10A8D0009BB2F6D08389838940F2E93302E0002BF2
:10A8E00000F00C850289013B12F0020F9BB2F6D0FA
:10A8F000858140F2E93302E0002B00F0FF840289F9
:10A90000013B12F0010F9BB2F6D08389009B1B6ABA
:10A9100013B11A689B8813830F23DFF818E14348AB
:10A92000DFF81481424F01934FF01009DEF8043034
:10A93000C3F30803002B40F0C983EFF31183002B0E
:10A9400040F0C4832568826823689D42FAD13B6841
:10A950009A42F7D8D6F800C04FF47A7101FB0CF395
:10A960009B1AB3FBFCF301FB05354FF47A7C4FF0E7
:10A97000010ADEF80430C3F30803002B40F0048220
:10A98000EFF31183002B40F0FF8123688168226878
:10A990009342FAD13A689142F7D832680CFB02FB35
:10A9A000ABEB0101B1FBF2F10CFB03135B1BB3F545
:10A9B0007A7FDED3019B013B0193B7D1009A136AE2
:10A9C00092F8685013B11A689B885383009B5869AA
:10A9D00040F2E933828902E0002B00F08984028989
:10A9E000013B12F0020F9BB2F6D01923838140F293
:10A9F000E93302E0002B00F07B840289013B12F076
:10AA0000010F9BB2F6D08389838940F2E93302E0DB
:10AA1000002B00F069840289013B12F0020F9BB207
:10AA2000F6D0ADB2858140F2E9330AE010E000E0F3
:10AA300058AF002000ED00E04CAF0020002B00F0EC
:10AA400053840289013B12F0010F9BB2F6D0838937
:10AA5000009B1B6A13B11A689B8813836423DFF879
:10AA6000A8E2A648DFF8A482A54F01934FF0100991
:10AA7000DEF80430C3F30803002B40F00683EFF345
:10AA80001183002B40F001832568826823689D4272
:10AA9000FAD13B689A42F7D8D6F800C04FF47A71E1
:10AAA00001FB0CF39B1AB3FBFCF301FB05354FF4E0
:10AAB0007A7C4FF0010ADEF80430C3F30803002B60
:10AAC00040F04481EFF31183002B40F03F81236875
:10AAD000816822689342FAD13A689142F7D8326885
:10AAE0000CFB02FBABEB0101B1FBF2F10CFB03131E
:10AAF0005B1BB3F57A7FDED3019B013B0193B7D19A
:10AB0000009B1B6A13B11A689B885383009B58698A
:10AB100040F2E933828902E0002B00F0E0830289F1
:10AB2000013B12F0020F9BB2F6D03723838140F233
:10AB3000E93302E0002B00F0D2830289013B12F0DE
:10AB4000010F9BB2F6D08389838940F2E93302E09A
:10AB5000002B00F0C1830289013B12F0020F9BB26F
:10AB6000F6D01023838140F2E93302E0002B00F09D
:10AB7000B3830289013B12F0010F9BB2F6D08389A7
:10AB8000009B1B6A13B11A689B8813830F23DFF89D
:10AB900078E15A48DFF87481594F01934FF010095A
:10ABA000DEF80430C3F30803002B40F04D82EFF3CE
:10ABB0001183002B40F048822568826823689D42FB
:10ABC000FAD13B689A42F7D8D6F800C04FF47A71B0
:10ABD00001FB0CF39B1AB3FBFCF301FB05354FF4AF
:10ABE0007A7C4FF0010ADEF80430C3F30803002B2F
:10ABF00040F08E80EFF31183002B40F089802368B2
:10AC0000816822689342FAD13A689142F7D8326853
:10AC10000CFB02FBABEB0101B1FBF2F10CFB0313EC
:10AC20005B1BB3F57A7FDED3019B013B0193B7D168
:10AC3000009B1B6A13B11A689B885383009B586959
:10AC400040F2E933828902E0002B00F04083028960
:10AC5000013B12F0020F9BB2F6D03823838140F201
:10AC6000E93302E0002B00F032830289013B12F04D
:10AC7000010F9BB2F6D08389838940F2E93302E069
:10AC8000002B00F01F830289013B12F0020F9BB2E0
:10AC9000F6D00123838140F2E93302E0002B00F07B
:10ACA00011830289013B12F0010F9BB2F6D0838918
:10ACB000009B1B6A13B11A689B8813830388114A8F
:10ACC00023F040031B041B0C0380038823F038038C
:10ACD0001B0490424FEA134300F0BD8202F58062EC
:10ACE00090420CBF0822102213430380038843F0D4
:10ACF0004003038005B0BDE8F08F00BF10E000E026
:10AD000058AF00200038004000ED00E04CAF0020BC
:10AD1000EFF3118189F31288D0F808B00368DB03E0
:10AD200044BFC8F800A0D0F808B02368D8F80020C5
:10AD3000C9B281F31188316813440CFB01F2A2EB14
:10AD40000B02B2FBF1F20CFB032369E7EFF3118175
:10AD500089F31288D0F808B00368DB0344BFC8F851
:10AD600000A0D0F808B02368D8F80020C9B281F359
:10AD70001188316813440CFB01F2A2EB0B02B2FB09
:10AD8000F1F20CFB0323B3E6EFF3118189F3128890
:10AD9000D0F808B00368DB0344BFC8F800A0D0F8BF
:10ADA00008B02368D8F80020C9B281F3118831684F
:10ADB00013440CFB01F2A2EB0B02B2FBF1F20CFB11
:10ADC0000323F3E5EFF3118189F31288D0F808B07B
:10ADD0000368DB0344BFC8F800A0D0F808B02368BC
:10ADE000D8F80020C9B281F31188316813440CFBF4
:10ADF00001F2A2EB0B02B2FBF1F20CFB032329E5FB
:10AE0000EFF3118189F31288D0F808B00368DB03EF
:10AE100044BFC8F800A0D0F808B02368D8F80020D4
:10AE2000C9B281F31188316813440CFB01F2A2EB23
:10AE30000B02B2FBF1F20CFB03236BE4EFF3118185
:10AE400089F31288D0F808B00368DB0344BFC8F860
:10AE500000A0D0F808B02368D8F80020C9B281F368
:10AE60001188316813440CFB01F2A2EB0B02B2FB18
:10AE7000F1F20CFB0323FFF7B5BBEFF3118189F36C
:10AE80001288D0F808B00368DB0344BFC8F800A0FC
:10AE9000D0F808B02368D8F80020C9B281F311882F
:10AEA000316813440CFB01F2A2EB0B02B2FBF1F28E
:10AEB0000CFB0323FFF7EFBAEFF3118189F312883C
:10AEC000D0F808B00368DB0344BFC8F800A0D0F88E
:10AED00008B02368D8F80020C9B281F3118831681E
:10AEE00013440CFB01F2A2EB0B02B2FBF1F20CFBE0
:10AEF0000323FFF738BAEFF3118389F31288D0F8F0
:10AF000008C00268D20304D50122C8F80020D0F896
:10AF100008C02568D8F800A0DBB283F31188316837
:10AF20004FF47A72554402FB01F3A3EB0C03B3FB1D
:10AF3000F1F302FB0535FFF7F5B9EFF3118389F360
:10AF40001288D0F808C00268D20304D50122C8F8DC
:10AF50000020D0F808C02568D8F800A0DBB283F341
:10AF6000118831684FF47A72554402FB01F3A3EB68
:10AF70000C03B3FBF1F302FB05354AE4EFF3118355
:10AF800089F31288D0F808C00268D20304D50122E0
:10AF9000C8F80020D0F808C02568D8F800A0DBB2B7
:10AFA00083F3118831684FF47A72554402FB01F340
:10AFB000A3EB0C03B3FBF1F302FB0535FFF789BBF1
:10AFC000EFF3118389F31288D0F808C00268D20326
:10AFD00004D50122C8F80020D0F808C02568D8F8A8
:10AFE00000A0DBB283F3118831684FF47A725544C4
:10AFF00002FB01F3A3EB0C03B3FBF1F302FB0535FA
:10B00000FFF7CFBAEFF3118389F31288D0F808C0A5
:10B010000268D20304D50122C8F80020D0F808C085
:10B020002568D8F800A0DBB283F3118831684FF4AB
:10B030007A72554402FB01F3A3EB0C03B3FBF1F36B
:10B0400002FB0535FFF706BAEFF3118389F3128887
:10B05000D0F808C00268D20304D50122C8F8002045
:10B06000D0F808C02568D8F800A0DBB283F31188B7
:10B0700031684FF47A72554402FB01F3A3EB0C03E1
:10B08000B3FBF1F302FB0535A9E5EFF3118389F377
:10B090001288D0F808C00268D20304D50122C8F88B
:10B0A0000020D0F808C02568D8F800A0DBB283F3F0
:10B0B000118831684FF47A72554402FB01F3A3EB17
:10B0C0000C03B3FBF1F302FB0535F0E4EFF311835E
:10B0D00089F31288D0F808C00268D20304D501228F
:10B0E000C8F80020D0F808C02568D8F800A0DBB266
:10B0F00083F3118831684FF47A72554402FB01F3EF
:10B10000A3EB0C03B3FBF1F302FB05352DE4019D2A
:10B11000FFF7BDBB1C09013C032C03F00F0300F239
:10B12000F7808B4A32F8140040FA03F2D50740F159
:10B13000EF80012606FA03F3013B184048F07EFB3E
:10B14000844BDFF828A213F8049081441AEBC90459
:10B1500000F0DE805AF83920A38815691D407FF47D
:10B1600054A82021B3FA83F3A171C3F11F030099FE
:10B17000794AE571581CCA603FF447A8774F784A6E
:10B1800007EB030C01F10C0042F82300294620468E
:10B190009CF878800AF04CF9A3885AF83910714A63
:10B1A000B3FA83F3C3F11F035FFA83FC0CF0FC00D6
:10B1B00000F1804000F59C300CF0030C4FEA8C0C41
:10B1C0004FF00F0E0EFA0CF9D0F808E001F13F41F4
:10B1D0002EEA090EC0F808E001F57E01D0F808E07B
:10B1E000C1F3872101FA0CF106FA03F341EA0E01DB
:10B1F00081605361D2F800E05B48DFF874C1D94345
:10B200000EEA010EC2F800E0D2F804E001EA0E0EE8
:10B21000C2F804E0D2F800E043EA0E0EC2F800E003
:10B22000D2F808E001EA0E0EC2F808E0D2F80CE00D
:10B2300001EA0E01D16002681A4302601CF808207E
:10B24000F02A6AD8002B3EF4E0AF46490A6813435F
:10B250000B60FEF7DABF082246E53022FEF7EDBFAD
:10B260000BF07EFDFFF7A6BA0BF07AFD009B586944
:10B27000FFF70BB80BF074FD009B5869FFF776BA27
:10B280000BF06EFDFFF7F6B90BF06AFD009B5869F5
:10B29000FFF7D4B90BF064FDFFF754B90BF060FD74
:10B2A000009B5869FFF732B90BF05AFDFFF7A3B8BE
:10B2B0000BF056FD009B5869FFF781B80BF050FD6D
:10B2C000FEF7FFBF0BF04CFD009B5869F1E40BF05B
:10B2D00047FD009B5869CFE40BF042FD50E40BF0B2
:10B2E0003FFD009B58692FE40BF03AFDFFF7B0BB20
:10B2F0000BF036FD009B5869FFF786BB0BF030FD65
:10B30000FFF704BB0BF02CFD009B5869FFF7E3BA75
:10B31000009A114BD360FEF778BF4744F02297F8AC
:10B3200088308DF80C3003A803238DF80D308DF88C
:10B330000E508DF80F600CF8082024F059FBA388FC
:10B34000B3FA83F3C3F11F0306FA03F37AE700BFEE
:10B35000189805082098050851890008C853050861
:10B360003C420020003C0140083C014090AD0020E0
:10B370007C420020037C02681F2B86BF203B516863
:10B380001168202202FA03F30B4214BF01230023A9
:10B3900003B970472DE9F0474569DFF858A12D0240
:10B3A000044607F063FB0AEB050380461A7C002A7B
:10B3B00034D14B495A680978D2F80090C9B9D1689C
:10B3C00058890A6822F001020A60B9F80C3023EAB1
:10B3D0000003A9F80C30434B1B78002B31D1237CA0
:10B3E00021681F2B13D8202202FA03F38B60BDE8DB
:10B3F000F0879269136823F001031360B9F80C30E9
:10B4000023F480731B041B0CA9F80C30E3E7203BEA
:10B41000202202FA03F3CB60BDE8F0875A68324875
:10B420001568D6685F8901225A743168036821F073
:10B4300001013160AA89013322EA0702AA8103606F
:10B44000CDE70AEB05062835776F384624F048FA31
:10B4500001230AEB05014846337424F001FBD6E9C9
:10B460001202736B316D3D6803431343D6E9152017
:10B470000B431343F16DB26E03430B431B48F16E54
:10B48000134328400B430343002232643B60D6E958
:10B4900018317A69756CB06B22F007020B431343C5
:10B4A000F26B7B617D60B860FA603B687268706FB8
:10B4B000D16896F87050126843F010033B60456005
:10B4C0000B6843F001030B60938971890B439381EF
:10B4D00007F0CCFA064BA0EB080018607FE700BF2E
:10B4E0003C32001038320010244400203F801CF011
:10B4F000FC33001068C600208A4B1B78002B00F03C
:10B500009880002800F095802DE9F04F431E85B00B
:10B51000854C0190032B4FF00006A8BF0323A4F134
:10B5200014070393B0464FEA062A07EB0A03256E79
:10B530005B7C002B7ED06A6892B2002A65D114F839
:10B54000050CD4E91B13002800F0AA846033774867
:10B550005B1AA0FB0351890901EB4101A3EB4113E5
:10B56000182B00F17785173BA0FB0323DB0003F0CA
:10B57000F003D4E91D126D486032521AA0FB02514B
:10B58000890901EB4101A2EB4112182A05D4173AAF
:10B59000A0FB0212C2F343021343D4E91F12634813
:10B5A0006032521AA0FB0251890901EB4101A2EB62
:10B5B0004112182A5EBF173AA0FB0212C2F34305DC
:10B5C000D4E92112594802F16002A2EB0102A0FB6A
:10B5D00002C14FEA911101EB4101A2EB411248BFB8
:10B5E0000025182A58BF173A45EA03155ABFA0FB91
:10B5F0000223C3F34303002343EA051383EA132220
:10B6000082EA1212100700F00C85494A13680133D0
:10B61000136026B980224749474848F05DFB07EB95
:10B620000A0383F8118054F8109C256ED9F800B0F5
:10B630000CE0704754F8109C34F80A1CD9F800B09C
:10B64000BBF80C2022EA0102ABF80C202A683B4B25
:10B6500022F0010221219D422A60C5F80080C5F830
:10B660000480C5F80880C5F80C80C5F810806961B1
:10B670001FD0334B9D4200F03783324B9D4200F088
:10B680003D83314B9D4200F0DF84304B9D4200F002
:10B6900002852F4A954200F003852E4A954200F01C
:10B6A0007E852D4A954200F0EC84284624F088F8E7
:10B6B00002E02A4A3D219160BA448AF8108099F844
:10B6C00005100C2916D8DFE811F04401150015000B
:10B6D00015004D011500150015003B011500150062
:10B6E00015000D00BBF81C2022F400621204120C9D
:10B6F000ABF81C202246584605F0A2FE99F805300A
:10B700000C2B37D8DFE813F0060136003600360080
:10B710001101360036003600FB00360036003600D8
:10B720002C0000BF383200107CC60020ABAAAAAAA9
:10B730001C000010E8C60020003400101060024019
:10B740002860024040600240586002407060024041
:10B7500088600240A0600240B86002400060024081
:10B76000BBF81C3023F400631B041B0C43F4006380
:10B77000ABF81C30D4E90D12236AE06B43F04003B0
:10B780000B431343226CB14903431343626C1343CD
:10B790004022E262A26C28681343A26D0292626D9D
:10B7A0001343029A014013430B432B60D4E9133136
:10B7B0006A69206B22F007020B431343D4E9091294
:10B7C0006B616860A960EA602B6843F010032B602E
:10B7D000039B01369E4204F580747FF7A4AE019B63
:10B7E0009E4280F2CC814FEA062A0AF114043C44BE
:10B7F0004FF0000807EB0A03256E5B7C002B00F07E
:10B80000BA806A6892B2002A65D114F8050CD4E9AE
:10B810001B13002800F07C8260338D485B1AA0FB6C
:10B820000351890901EB4101A3EB4113182B00F1EE
:10B830001484173BA0FB0323DB0003F0F003D4E9DF
:10B840001D1283486032521AA0FB0251890901EB94
:10B850004101A2EB4112182A05D4173AA0FB0212AB
:10B86000C2F343021343D4E91F1279486032521ADB
:10B87000A0FB0251890901EB4101A2EB4112182AF8
:10B880005EBF173AA0FB0212C2F34305D4E92112AE
:10B890006F4802F16002A2EB0102A0FB02C14FEA75
:10B8A000911101EB4101A2EB411248BF0025182A7A
:10B8B00058BF173A45EA03155ABFA0FB0223C3F34A
:10B8C0004303002343EA051383EA132282EA121298
:10B8D000120700F0E0825F4A13680133136026B953
:10B8E00080225D495D4848F0F7F907EB0A0383F8C9
:10B8F000118054F8109C256ED9F800B047E0BBF8D1
:10B900001C3023F008031B041B0C43F00803ABF8A6
:10B910001C302FE7BBF8183023F008031B041B0C66
:10B9200043F00803ABF8183024E7BBF8183023F4D1
:10B9300000631B041B0C43F40063ABF8183019E7D9
:10B94000BBF81C2022F008021204120CABF81C20D9
:10B95000D0E6BBF8182022F008021204120CABF853
:10B960001820C7E6BBF8182022F400621204120C5B
:10B97000ABF81820BEE654F8109C34F80A1CD9F82D
:10B9800000B0BBF80C2022EA0102ABF80C202A68B8
:10B99000334B22F0010221219D422A60C5F800802C
:10B9A000C5F80480C5F80880C5F80C80C5F810807B
:10B9B00069611FD02B4B9D4200F091812A4B9D4223
:10B9C00000F09781294B9D4200F03983284B9D421E
:10B9D00000F05D83274A954200F06783264A95422E
:10B9E00000F0E283254A954200F04683284623F082
:10B9F000E7FE02E0224A3D219160BA448AF81080B5
:10BA000099F805100C2910D8DFE801F0A70F0F0FE7
:10BA10009E0F0F0FB00F0F0F0700BBF81C2022F472
:10BA200000621204120CABF81C202246584605F0A6
:10BA300007FD99F805300C2B2ED8DFE803F06F2DA9
:10BA40002D2D7A2D2D2D642D2D2D23003F801CF0C2
:10BA5000ABAAAAAA1C000010E8C6002000340010FF
:10BA6000106002402860024040600240586002407E
:10BA70007060024088600240A0600240B8600240EE
:10BA800000600240BBF81C3023F400631B041B0C55
:10BA900043F40063ABF81C30D4E90D12236AE06B69
:10BAA00043F040030B431343226C97490343134372
:10BAB000626C13434022E262A26C28681343A26DB9
:10BAC0000292626D1343029A014013430B432B60B1
:10BAD000D4E913316A69206B22F007020B43134348
:10BAE000D4E909126B616860A960EA602B6843F0D1
:10BAF00010032B60019B0136B34204F580743ED0E5
:10BB00004FEA062A76E6BBF81C3023F008031B0434
:10BB10001B0C43F00803ABF81C30BDE7BBF8183032
:10BB200023F008031B041B0C43F00803ABF8183088
:10BB3000B2E7BBF8183023F400631B041B0C43F47A
:10BB40000063ABF81830A7E7BBF8182022F40062B6
:10BB50001204120CABF8182067E7BBF8182022F08B
:10BB600008021204120CABF818205EE7BBF81C2088
:10BB700022F008021204120CABF81C2055E77A6878
:10BB8000787B13685179800754BF012204228A40D0
:10BB9000198C92B221EA02011984198C0A431A8481
:10BBA000019B012B00F09880D7F8042197F80D0134
:10BBB00013685179820754BF012204228A40198CEC
:10BBC00092B221EA02011984198C0A431A84019B5A
:10BBD000022B00F08180D7F8042297F80D02136839
:10BBE0005179860754BF012204228A40198C92B2EF
:10BBF00021EA02011984198C0A431A84019B032B40
:10BC00006AD0D7F8042397F80D0313685179850794
:10BC100054BF012204228A40198C92B221EA020107
:10BC20001984198C0A431A84019B042B54D0D7F829
:10BC3000042497F80D14136850798C0754BF01221F
:10BC40000422198C824092B221EA02011984198CD3
:10BC50000A431A84019B052B3ED0D7F8042597F898
:10BC60000D0513685179800754BF012204228A40D0
:10BC7000198C92B221EA02011984198C0A431A84A0
:10BC8000019B062B28D0D7F8042697F80D161368C9
:10BC90005079890754BF01220422198C824092B244
:10BCA00021EA02011984198C0A431A84019B072B8B
:10BCB00012D0D7F8042797F80D0713685179820737
:10BCC0004CBF042201228A40198C92B221EA02015F
:10BCD0001984198C0A431A8405B0BDE8F08F0B4A09
:10BCE0004FF47461916088E6084A4FF47461916082
:10BCF000E2E4064A4FF4741191607EE6034A4FF481
:10BD000074119160D8E400BF3F801CF000600240D5
:10BD10005B1A002B40F3AA810A2BD4BF0023012316
