:020000040800F2
:10000000F0FF012019F40408DD5501085506020827
:100010009DF404089DF404089DF404080000000009
:10002000000000000000000000000000E955010889
:10003000E555010800000000E1550108C5CC0108A4
:100040009DF404089DF404089DF404089DF404083C
:100050009DF404089DF40408BD140208E915020883
:10006000AD1502087115020835150208211801089E
:100070001118010801180108F1170108DD1701081E
:10008000C9170108B51701089DF404080000000015
:10009000000000000000000000000000F914020849
:1000A000ADB301089DF404089DF40408C9B6010825
:1000B00009B6010849B501089DF404080531010895
:1000C0000B310108FB300108013101089DF40408DF
:1000D0009DF40408A1CD010805CD01080000000031
:1000E000811402089DF40408DD9E01080000000050
:1000F000000000000000000000000000A11701083F
:10010000000000009DF404087DB401089DF404087B
:1001100000000000000000000000000000000000DF
:100120008D17010879170108651701085117010893
:100130003D17010800000000000000000000000062
:10014000000000000000000000000000C16601087F
:100150002917010815170108011701089DF4040863
:10016000F1300108F7300108000000000000000035
:10017000000000000000000000000000000000007F
:10018000000000009DF404080000000000000000D2
:080190009DF404089DF404082D
:08019800B0EF040001000000BB
:1001A00002020300E0140020DC1400200000000024
:1001B0000000000010020100E8140020E4140020F8
:1001C00000000000040700081F021000FC140020BB
:1001D000EC14002000000000F7860008051006005F
:1001E000D03000201831002000000000080700086F
:1001F00037102400E43000202031002000000000EF
:100200000E070008F5518800F42F0020443100202B
:1002100000000000C184030826100C00D831002023
:10022000CC310020000000001D4001080B301800F8
:10023000642800201032002000000000320700086F
:100240001F3024009C1F00202832002000000000E6
:100250004C07000805020400382A00204C32002018
:10026000000000007007000803010A00C41F0020FE
:100270005032002000000000740700081302040040
:100280003C1E00205C320020000000007E070008B9
:100290001A023C00843200209C370020000000003D
:1002A000618F00082700040080320020D83700202A
:1002B0000000000082070008031233006C43002096
:1002C000A8430020000000008607000825102C012C
:1002D0004C410020DC430020000000000000000032
:1002E00010100200344100200845002000000000EA
:1002F000BA0700081A000E00E44000200C45002058
:1003000000000000BC07000819000500284000207C
:100310001C45002000000000CA070008F821060064
:10032000643E00202445002000000000D0070008A3
:1003300015007000103900202C450020000000003E
:10034000000000002A006000844000209C4500203E
:1003500000000000D92202082C001000F0740020D8
:10036000E074002000000000830003082B0024003C
:1003700024750020007500200000000055000308CF
:1003800029207800E8730020487500200000000054
:100390000000000028101000D0750020C07500205B
:1003A0000000000045E402081C021000346F002029
:1003B000E0750020000000006D86000820320A0071
:1003C000FC750020F075002000000000CDE302085D
:1003D00014000300F87100200876002000000000DF
:1003E000D607000801200800345D00200C760020AC
:1003F00000000000DA0700080A702800B05C002046
:100400001476002000000000EDE302080EA06E014B
:10041000405B00203C760020000000000123020821
:1004200001010400A85A0020AC7700200000000061
:100430000000000000010400A05A0020B077002056
:1004400000000000E2070008020103009C5A00209F
:10045000B47700200000000001EB0308090201004E
:10046000308D0020F88D002000000000E607000815
:1004700022021401D88A0020FC8D00200000000018
:10048000119000080C109C00C8890020108F0020DB
:100490000000000081EA0308000205003C890020FA
:1004A000AC8F002000000000000000001B020800CC
:1004B00018890020B48F00200000000097860008F3
:1004C0001E00060070860020BC8F00200000000087
:1004D000E80700081B100C0040790020C48F0020A2
:1004E00000000000DD8603082102F000C077002034
:1004F000D08F002000000000BD8503080E0202001E
:10050000648A0020C090002000000000EE07000870
:1005100012201000B8890020C490002000000000C4
:10052000F007000823100E00E48D0020D490002076
:10053000000000005DE402082F102200AC8D0020B6
:10054000E4900020000000000008000816100600DB
:100550007C8D002008910020000000002208000887
:1005600007020200D4A100201CA20020000000000D
:1005700028080008F6210C00A4A1002020A20020D9
:10058000000000002C08000802000C0098A10020C8
:100590002CA20020000000000000000006020C0059
:1005A0008CA1002038A2002000000000F18F00087C
:1005B00008120F0010A1002044A20020000000003B
:1005C000CB860008F701060008A1002054A20020F5
:1005D00000000000380800080A020A0064960020A3
:1005E0005CA200200000000089F203080300010063
:1005F0004497002068A200200000000000000000D6
:100600000D004400E8D50020DCD7002000000000E9
:10061000115704080400800070CC002020D800206E
:100620000000000000000000F9010400F0CB0020F1
:10063000A0D80020000000002DA201081300040033
:10064000ECCB0020A4D800200000000040080008E7
:10065000FD012400C8CB0020A8D800200000000025
:10066000B5A1010818202E0094CB0020CCD8002082
:1006700000000000F58E000806101A00DCB900200A
:10068000FCD800200000000061230208FB010100EB
:1006900018B9002018D9002000000000959100082A
:1006A000FC010900E4B700201CD900200000000074
:1006B000A59100083400100010B7002028D90020B0
:1006C000000000003523020811020800E8B60020EF
:1006D00038D900200000000044080008121204006D
:1006E000E0B6002040D90020000000004C080008BF
:1006F000FE01140028A5002044D9002000000000BD
:04070000A3860008C4
:100704000000000020000301000020003200C800A7
:10071400D0079600140032002800B00440060005FB
:10072400500014000F000800640001000100AE0135
:100734004A015E012C0164000200000001000A016C
:100744009A01001E0A0000000000000000010000E1
:10075400000500000102030000000000000000008A
:1007640000000000000000000080070000000000FE
:10077400040101006C1600000000000001002003C9
:100784000000000000000000000000000000000065
:100794000000000000000000000000000000000055
:1007A4000000000000000000000000000000000045
:1007B40000000000010000057E05EA05B4053200D2
:1007C400E803D00700000000280100000401F40140
:1007D400140003000000E8036400040A000190010F
:1007E40000002800000001000000000000000001DB
:1007F400000005534B463400000C000000000000CC
:1008040000000000000000000000000000000000E4
:100814000000000000000000000000000000C40907
:1008240000001900013C000000000000010000006D
:1008340002020000320100000000000000204030ED
:0C0844000000000001010101FFFFFFFFA8
:10085000FFFFFFFF00000401000000000000000295
:100860001000000007000000000000000000000071
:100870000102030406070809040309041201000227
:10088000EF0201408304563200020102030100001E
:1008900012010002020200408304405700020102DC
:1008A0000301000009026400030100C032090400D2
:1008B00000010300000009211101000122260007A8
:1008C00005830308000A080B010202020100090463
:1008D00001000102020100052400100105240100AD
:1008E000020424020205240601020705820308000F
:1008F000FF09040200020A0000000705010240008F
:10090000000705810240000009024300020100C007
:100910003209040000010202010005240010010553
:1009200024010001042402020524060001070582B7
:10093000030800FF09040100020A00000007050186
:10094000024000000705810240000000FF00000097
:10095000602C0508000000000000000000000000FE
:100960000000000000000000000000000000000087
:10097000000000000000000000FFFF000000000079
:10098000AA55050100000100342C050800000000F4
:100990000000000000000000000000000000000057
:1009A0000000000000000000000000000000000047
:1009B000FF1FFF1F05010905A101A1000501093065
:1009C00009310932093309350934094009381581DB
:1009D000257F750895088102C0C000000902220029
:1009E000010100E0320904000001030102000921B5
:1009F000110100012226000705830308000A0000F8
:100A000000000000010203040102030406070809B4
:100A10002559010829580108695B010805350108B5
:100A2000493801081535010831350108DD34010860
:100A3000CD34010800000000000000002D202D2D05
:100A4000202D2D2D2D202D2D2D2D000000000000FE
:100A50000000000000000000000000AA550B01008B
:100A600000AA5507010000AA550902000000AA5576
:100A700003009F0001000000C0120000E4310020CC
:100A8000000000000832002000000000010100000A
:100A9000FFFF0100A00F0000B80B00000102FFFFE4
:100AA00001000000BCA405080000080205030300C3
:100AB000C4A405080100080205040300CCCA050807
:100AC0000200FE0101100300CCA40508030014027B
:100AD00000030000D4A4050804001F020100080060
:100AE000DCA4050805001F020101080000460020E3
:100AF000FFFFFFFF0000803F00000000000000003B
:100B0000000000000000803F000000000000000026
:100B100000000000000000000000000000000000D5
:100B20000000000000000000000000000000803F06
:100B300000000000000000000000000001000000B4
:100B4000FFFFFFFF0000803F0000000000000000EA
:100B500000000000FF00000081DB02080000000030
:100B60007838050820700020702D7200FFFFFFFF0D
:100B7000D601010000010101002D202D2D202D2D79
:100B80002D2D202D2D2D0000000000000000000064
:100B90000000000000000000000000000000000055
:100BA000704A05080000000000000000FC4A05082B
:100BB00001000000FA000000010000000100000038
:100BC00001010100065D002000C80100055D002054
:100BD00000500100045D0020005A0100025D002069
:100BE00002000000303A050874AF05087CAF050824
:100BF000C6D700200100C40900000000C4D70020AF
:100C00000100C40900000000C2D700200100C4098F
:100C100000000000C0D700200100C409000000004F
:100C2000BCD700200100C40900000000BED700208E
:100C30000100C40900000000BAD700200100C40967
:100C400000000000B8D700200100C4090000000027
:100C5000BA5A00200100C80001000000B85A002064
:100C60003200307532000000B75A0020055A0500E6
:100C7000B45A002000FF0100B65A00200100000015
:100C800098030020B25A002002000000002C050842
:100C9000B35A002000FF0100B55A002001000000F7
:100CA00098030020B15A002002000000002C050823
:100CB000405D0020EE02CA08010000003E5D0020F9
:100CC00000C80100640000003D5D002000C8010074
:100CD000640000003C5D0020020000003C3A050872
:100CE000AE5A002080C1803E05000000AC5A0020B2
:100CF00080C1803E05000000A65A002080C1803ED1
:100D000005000000A45A002080C1803E05000000BC
:100D10009F5A002000FF0100985A00206400F4014F
:100D200001000000975A002004000000483A05081E
:100D3000965A0020020000005C3A05082F5B002054
:100D40000D000000683A05082C5B002000640100DB
:100D50002A5B0020320010270A000000295B0020D7
:100D60000D000000683A0508285B00200D00000017
:100D7000683A0508275B002002000000A03A050839
:100D80000000000000000000AC3A0508F029002037
:100D90009CFF2C0100000000E66F0020E0150C17FE
:100DA00000000000FC8C002002000000E43A05086E
:100DB0004C5D00200100FF7F010000004B5D002022
:100DC00002000000F03A0508315B0020030000003B
:100DD000003B0508305B002003000000003B0508D5
:100DE000E45C00200000E80301000000E25C002059
:100DF0000000E80301000000E05C00200000E803C0
:100E000001000000DE5C00200000E803010000009B
:100E1000DC5C00200000E80301000000DA5C002038
:100E20000000E80301000000D95C0020001401006C
:100E3000D85C002003000000103B0508F05C002097
:100E40000000F40101000000EE5C00200000F4014D
:100E500001000000EC5C00200000F4010100000033
:100E6000EA5C00200000F40101000000E85C0020C2
:100E70000000803E01000000E65C00200000803E93
:100E800001000000195D002019640100185D0020B8
:100E900002000000203B0508165D0020E803D00793
:100EA0000A000000145D0020006401000A00000038
:100EB000095D002000640100085D0020006401005D
:100EC000105D0020006401000A0000000F5D00209A
:100ED000006401000A0000000E5D002000640100B3
:100EE0000A000000135D0020006401000A000000F9
:100EF000125D0020006401000A000000115D002066
:100F0000006401000A0000000D5D002001FF0100E7
:100F10000A0000000C5D002001FF01000A00000033
:100F20000B5D002001FF01000A0000003A5B002079
:100F30000000F40101000000385B00200000F40113
:100F400001000000365B00200000F40101000000F9
:100F5000345B00200000F40101000000325B00203F
:100F60000000F40101000000015D002000640100A8
:100F7000005D002000640100FF5C002000640100AF
:100F8000FE5C0020FF080100FD5C00200164010000
:100F900061E1020825E102082C3B0508FC5C002009
:100FA00000640100FA5C00201400E8030100000066
:100FB000F85C0020E80330750A000000F65C0020B1
:100FC00000C80100F55C002000C80100F45C0020AE
:100FD00000C80100F35C0020006401000A0000006A
:100FE000305D00200000D007010000002B5D0020D4
:100FF00000C801002A5D002000C80100295D002012
:1010000000C801002E5D00200000D0070100000094
:10101000285D002000C80100275D002000C80100F5
:10102000265D002000C801002C5D00200000D007D4
:1010300001000000255D002000C80100245D0020A3
:1010400000C80100235D002000C80100000000006E
:1010500095DE02089C3B0508255B0020310000005E
:10106000383C0508245B002000C80100225B0020FA
:10107000E803D007010000005350454B5452554D32
:101080004634303000000000DDDD0208B5DD020826
:10109000003D050871DD020825DD0208543D050804
:1010A0001DDE020805DE0208D43D0508B05A002006
:1010B00001030100C1E2020895E20208C8400508E8
:1010C000CDDC02088DDC02082C410508ABDE0208ED
:1010D000CD040308C8410508C9BF0308000000008B
:1010E000704205084D02030821E302080C4305087D
:1010F000FDDE0208000000007C430508D5DF020881
:1011000081DF0208E043050865E0020829E00208E3
:101110007C4405089DE10208E5E10208FC4405085D
:10112000075D00200106010045DF020811DF02080B
:10113000F8450508A1E002088D0503086846050882
:1011400019E202081106030848470508F25C00206E
:101150000103010065DE020835DE02081C480508AF
:10116000EDE2020800000000804805080DDD0208DD
:10117000A9040308E448050800000000000000007E
:10118000484905086DE2020889060308C8490508B0
:10119000925A002088136F1701000000945A002013
:1011A00088136F17000000002220002000000000BC
:1011B00000000000202000200000000000000000CF
:1011C0001E20002000000000000000001C20002065
:1011D00000000000000000001A20002000000000B5
:1011E00000000000182000200000000000000000A7
:1011F000280200200000000000000000685A0020C3
:1012000002000000504B0508905A002088136F1709
:1012100001000000302A002088136F170000000032
:1012200021DC0208000000005C4B050892610020F0
:1012300001000000B04B0508322A00200100000028
:10124000BC4B0508282A002002000000C44B0508FA
:101250000000000000000000D04B05080DDC020873
:10126000000000006C4C05080000000000000000B9
:10127000C04C05080000000000000000304D0508CB
:101280002C2A0020E0150C1700000000000001FFD0
:10129000010101FFFF0000000000803F0000803FCF
:1012A000FFFFFFFF000000000CA20020080000006C
:1012B00000000000FCA10020080000002000000049
:1012C0000000803F70C1050868C9050874C9050899
:1012D00080C905088CC9050898C905080CBD050812
:1012E000B8790508E07805081CC90508B0A6050806
:1012F00058C905085CC9050860C9050864C905081E
:101300007CC10508A4C90508A8C9050834770508E3
:10131000ACC905081900C800F4012003293A0108E6
:10132000CD370108455B010800000000C934010801
:1013300015580108953901088D5701080000000073
:101340000000000085340108993901088D37010833
:10135000855A0108000000009D34010891570108DA
:1013600069390108ED560108000000000000000086
:101370009134010809EF030800000000000000009C
:1013800000000000E9330108E5330108E1330108FA
:10139000D5330108D1330108DD330108D933010801
:1013A0005D34010851340108293401083D34010835
:1013B0001534010801340108ED3301080100000073
:1013C00000600240106002400000000000000000C9
:1013D000000B000000000000000000000000000002
:1013E0000060024028600240010000000000000090
:1013F000060C0000000000000000000000000000DB
:101400000060024040600240020000000000000056
:10141000100D0000000000000000000000000000AF
:10142000006002405860024003000000000000001D
:10143000160E000000000000000000000000000088
:1014400000600240706002400400000000000000E4
:10145000200F00000000000000000000000000005D
:1014600000600240886002400500000000000000AB
:101470002610000000000000000000000000000036
:1014800000600240A0600240060000000000000072
:10149000301100000000000000000000000000000B
:1014A00000600240B8600240070000000000000039
:1014B000362F0000000000000000000000000000C7
:1014C00000640240106402400000000000000000C0
:1014D00000380000000000000000000000000000D4
:1014E0000064024028640240010000000000000087
:1014F00006390000000000000000000000000000AD
:10150000006402404064024002000000000000004D
:10151000103A000000000000000000000000000081
:101520000064024058640240030000000000000014
:10153000163B00000000000000000000000000005A
:1015400000640240706402400400000000000000DB
:10155000203C00000000000000000000000000002F
:1015600000640240886402400500000000000000A2
:101570002644000000000000000000000000000001
:1015800000640240A0640240060000000000000069
:1015900030450000000000000000000000000000D6
:1015A00000640240B8640240070000000000000030
:1015B00036460000000000000000000000000000AF
:1015C000049F05083CC405080000000015EB030853
:1015D000A0860100040000000000000000000000E0
:1015E00000000000000000000000000000000000FB
:1015F00000000000000000000000000000000000EB
:10160000049F050844CC05080000000051A0010813
:10161000E8030000040000000000000000000000DB
:1016200000000000000000000000000000000000BA
:1016300000000000000000000000000000000000AA
:1016400000B50508B87705080000000089130408F4
:101650007D00000006000000000000000000000007
:10166000000000000000000000000000000000007A
:10167000000000000000000000000000000000006A
:101680005C9E050800000000000000000DC301087A
:10169000E80300000300000000000000000000005C
:1016A000000000000000000000000000000000003A
:1016B000000000000000000000000000000000002A
:1016C0004CCC05080000000000000000B58E0208A8
:1016D00010270000030000000000000000000000D0
:1016E00000000000000000000000000000000000FA
:1016F00000000000000000000000000000000000EA
:10170000C8A405080000000079FC0208950602083C
:101710005F760000050000000000000000000000EF
:1017200000000000000000000000000000000000B9
:1017300000000000000000000000000000000000A9
:1017400028A505080000000000000000C5190208D7
:101750001027000001000000000000000000000051
:101760000000000000000000000000000000000079
:101770000000000000000000000000000000000069
:1017800058CC0508000000000000000055A001082A
:10179000E803000005000000000000000000000059
:1017A0000000000000000000000000000000000039
:1017B0000000000000000000000000000000000029
:1017C00064CC05080000000000000000210C0408A3
:1017D000204E000003000000000000000000000098
:1017E00000000000000000000000000000000000F9
:1017F00000000000000000000000000000000000E9
:1018000074CC050800000000000000001D0A040858
:10181000204E000003000000000000000000000057
:1018200000000000000000000000000000000000B8
:1018300000000000000000000000000000000000A8
:1018400084CC050800000000000000003DAA01084B
:10185000400D030003000000000000000000000035
:101860000000000000000000000000000000000078
:101870000000000000000000000000000000000068
:10188000C89F05080000000000000000616F040808
:101890001027000001000000000000000000000010
:1018A0000000000000000000000000000000000038
:1018B0000000000000000000000000000000000028
:1018C000749E0508000000000000000069920308F3
:1018D00010270000030000000000000000000000CE
:1018E00000000000000000000000000000000000F8
:1018F00000000000000000000000000000000000E8
:1019000054B105080000000000000000299F0108F4
:10191000A8610000010000000000000000000000BD
:1019200000000000000000000000000000000000B7
:1019300000000000000000000000000000000000A7
:1019400094CC05080000000000000000A9CF0308A7
:10195000A08601000100000000000000000000005F
:101960000000000000000000000000000000000077
:101970000000000000000000000000000000000067
:1019800030A505080000000000000000F1CE0108AD
:10199000A00F000001000000000000000000000097
:1019A0000000000000000000000000000000000037
:1019B0000000000000000000000000000000000027
:1019C000A0CC05080000000000000000A5CA030824
:1019D00010270000010000000000000000000000CF
:1019E00000000000000000000000000000000000F7
:1019F00000000000000000000000000000000000E7
:101A0000D09F050800000000000000006594010858
:101A10001A4100000100000000000000000000006A
:101A200000000000000000000000000000000000B6
:101A300000000000000000000000000000000000A6
:101A400090A505080000000000000000E13C01082E
:101A5000102700000100000000000000000000004E
:101A60000000000000000000000000000000000076
:101A70000000000000000000000000000000000066
:101A800050C4050800000000000000005D160308B7
:101A90001A410000010000000000000000000000EA
:101AA0000000000000000000000000000000000036
:101AB0000000000000000000000000000000000026
:101AC000ACCC05080000000000000000D542010871
:101AD000400D0300000000000000000000000000B6
:101AE00000000000000000000000000000000000F6
:101AF00000000000000000000000000000000000E6
:101B0000B4CC05080000000000000000CF56040817
:101B1000400D030000000000000000000000000075
:101B200000000000000000000000000000000000B5
:101B300000000000000000000000000000000000A5
:101B4000BCCC0508000000000000000039B6030806
:101B500050C300000300000000000000000000006F
:101B60000000000000000000000000000000000075
:101B70000000000000000000000000000000000065
:101B8000C8CC05080000000000000000910904080E
:101B900040420F00000000000000000000000000B4
:101BA0000000000000000000000000000000000035
:101BB0000000000000000000000000000000000025
:101BC000D4CC05080000000000000000AD6A040845
:101BD00050C30000000000000000000000000000F2
:101BE00000000000000000000000000000000000F5
:101BF00000000000000000000000000000000000E5
:041C00000000803F21
:1080000020B10078B0FA80F0400970470120704735
:10801000037903F01803082B05D0102B15D033BBC0
:10802000B0F80B007047134BB0F80B0093F9003019
:10803000591C06BF104B1B78DBB2C3EB031203EBDA
:10804000820300EB430080B270470C4BB0F80B008A
:1080500093F900305A1C06BF074B5B78DBB203EB89
:10806000430203EB820300EB430080B27047002021
:10807000704700BF40020020B88900204102002064
:10808000F0B5067906F06003402B09D144794FF032
:10809000FF350023012006F00706A3420BD1F0BDF7
:1080A000602B08BF45794FF001040CBF04FA05F5B9
:1080B0004FF0FF35EDE7042E0CD8DFE806F0030D96
:1080C00018242E0030B1C85CD75C784028420CBF21
:1080D000012000200133E0E70028FBD0C856D75626
:1080E000A0EB070CDCF1000040EB0C00F2E70028ED
:1080F000F0D031F8130032F81370784028420CBFEA
:1081000001200020E6E70028E4D031F9130032F91D
:108110001370C71B78427841DCE70028DAD051F8A9
:10812000230052F82370784028420CBF0120002021
:10813000D0E703685A1C0260197070472DE9F047B8
:10814000089C2578002B804689460CBF4FF0200AFA
:108150004FF0300A661C25B3002A26DD334601E0C5
:10816000024698B113F8011B501E0029F8D1971E42
:1081700060B13D46013D51464046C8476B1C002B4F
:10818000F8DC257827EAE770013045B1041B294661
:108190004046C847301916F8015B002DF7D1BDE8FD
:1081A000F087002A03DC2846F9E70020EEE7571E97
:1081B000DFE72DE9F04714461D4606464FF47A7274
:1081C00000232046294646F05BFF4E4BDFF84881EE
:1081D0004D4A4E4F034488FB03101844D91782FBC5
:1081E000032CC1EB601088FB002887FB03279C440D
:1081F000474AC1EBEC2CC0EB001E82FB0C29A3EB21
:108200008E0E1F44434A86F806E0C1EB27474FEA2B
:10821000EC7E08EB000ACEEBA90E82FB07824FEA48
:10822000E0780EEB4E0EC8EB6A18ACEBCE0CC8EB48
:108230000818DFF8E8E086F804C0A0EB8800707149
:108240008EFB0303F817C0EBE21240F2B55000FBBF
:108250001272C1EBE353B2F5896F4FEA83073CDA40
:1082600040F2DA239A4242DCB2F5B77FB4BF4FF056
:10827000000E4FF0010E4FEA4E09DFF8A48009EB23
:108280000E0308EBC3031FFA8EFCD88A09EB0E011C
:1082900008EBC10116310B2301E031F8020D9042C9
:1082A00018DD013BF9D1CE44012338F83E00B3700C
:1082B00007F5FA670132121ABC44F270A6F800C042
:1082C000204629464FF47A72002346F0D9FE3281C7
:1082D000BDE8F0870133DBB2E9E74FF0030CE64677
:1082E00040F29650DFF838804FF00609CEE74FF0A5
:1082F000020CDFF82C80E64640F229404FF00409DA
:10830000C4E700BF80BC92C7C5B3A29107452EC287
:10831000ABAAAA2A73B06D1689888888792D0311B3
:10832000900C05080378202B024600F10100F9D0DB
:10833000092BF7D02D2B00F0A4802B2B03BF5378F3
:10834000B7EE000A0246B7EE000AA3F13001C8B248
:1083500009289FED577A10D8F2EE046A07EE901ABA
:10836000F8EEE77A12F8013FE7EE267AA3F1300142
:10837000C8B20928B0EE677AF0D92E2B63D003F08B
:10838000DF03452B02D020EE070A704710B4517866
:108390002D294FD02B2979D0A1F13003092B02F1DF
:1083A00001027AD80024002303EB830301EB43038B
:1083B00012F8011FA1F130000928A3F13003F3D90D
:1083C000B3F59A7F1A4628BF4FF49A72072B6CD9DF
:1083D000DFED386A1346F7EE007A083B072B67EEAD
:1083E000A67AFAD802F00702DAB1F2EE046A012A9C
:1083F00067EEA67A15D0022A67EEA67A11D0032A74
:1084000067EEA67A0DD0042A67EEA67A09D0052A6F
:1084100067EEA67A05D067EEA67A062A18BF67EE41
:10842000A67A002C3BD087EE277A5DF8044B20EE2D
:10843000070A70479178A1F13003092B02F102027B
:1084400030D80124AFE75378A3F13001C8B209282E
:1084500002F1010293D8F2EE046AF0EE665A07EEDA
:10846000901AF8EEE77A12F8013F87EEA66AA3F1B8
:108470003001C8B2092866EEA56A37EE067AEED951
:108480007DE75378BFEE000A02465EE79178A1F1DE
:108490003003092B02F1020284D9F7EE007A27EEAD
:1084A000277AC2E7F7EE007ABDE7F7EE007A9BE79E
:1084B0000000000020BCBE4C0028F0B403DA2D23DD
:1084C0000B7040420131092804464FF0010307DDDB
:1084D00003EB83035B00B0FBF3F2092AF8D883B106
:1084E0000F48A0FB0326B4FBF3F2092A02F1570C54
:1084F00002F1300709DD03FB1244F30801F801CB58
:10850000EFD100230B70F0BC704703FB1244F3085B
:1085100001F8017BE5D100230B70F0BC704700BF70
:10852000CDCCCCCC884270B44FF0010442D301FBD7
:1085300004F4B0FBF4F58D42F9D2ECB142BB092D45
:1085400004FB150005F1570605F130020EDDB4FB02
:10855000F1F403F8016B7CB1B0FBF4F5092D04FBD9
:10856000150005F1570605F13002F0DCB4FBF1F41B
:1085700003F8012B002CEFD100221A7070BC704759
:1085800003F8016BB4FBF1F4002CF5D0B0FBF4F56B
:10859000092D04FB150005F1370605F13002EFDC6B
:1085A000B4FBF1F403F8012B002CEFD100221A7078
:1085B00070BC70470546002AEAD1C0E790ED057A05
:1085C00090ED004AD0ED066AD0ED014AD0ED047A74
:1085D00090ED035AD0ED025AA4EE007AB0EE406A54
:1085E000B0EE470AB0EE667AA4EE867A67EEC07AFD
:1085F000A5EE407AE5EE867A80ED057AC0ED067A42
:108600007047D0ED057A90ED013AD0ED003AD0ED0B
:10861000064A90ED024A90ED077A90ED035A90EDEC
:10862000086AD0ED045AC0ED067AF0EE406A27EEF3
:10863000830AC0ED056AA3EEA60A80ED087AA4EECF
:10864000240AA5EE470AA5EEC60A80ED070A704780
:10865000D0ED007A90ED017A30EE670AE7EE007A0D
:10866000B0EE670AC0ED007A7047704730B42C2333
:1086700000223D2504240121C37002238571C471A9
:1086800001720270C2728273C2734370837043724C
:10869000837230BC704706224FF47A7302704360D5
:1086A000704730B43023012233254FF60174FF2187
:1086B000437000234571048281740272027002715A
:1086C00043818381C38130BC704730B415221623A7
:1086D00017252D242E21027043702F22FF23857031
:1086E00044718171C27143738373C37003710372E8
:1086F000437230BC704770B4034600F11001FF2292
:108700001A705A7002338B42FAD10E4B00224FF08E
:10871000FF3103F10C0600EB42050C469E4200F8C7
:10872000124069700CD093F9044093F9051013F8C6
:10873000032F00EB42059E4200F812406970F2D10F
:1087400070BC7047F00C05084FF400630384704759
:108750004FF4006303847047012380F8583070475A
:108760004FF4006303847047F0B4037C45690268EA
:108770001F2B37D9203B2021546899400C4223D02D
:1087800010249C40D160D4605168D940CE074ED4AB
:10879000EFF31183502282F31288EA6B1168C90744
:1087A00009D45468002C52D1D5E909618E4243D1D5
:1087B000012285F86020DBB283F31188037C026814
:1087C0001F2B194614D9203B0821506899400842B4
:1087D00000D0D1600421506801FA03F3184223D17C
:1087E000F0BC7047202416689C4026420FD11946E1
:1087F000082310688B40184200D09360042310684F
:1088000003FA01F10842EBD09160F0BC70471021EF
:108810009940946091601168D940CC07B8D5012186
:1088200001FA03F39360B3E7D360F0BC7047012112
:1088300001FA03F3D360ABE7AF690F44D7600ED8FA
:108840002E69711A5160AC62002185F860101168C0
:1088500041F00101DBB2116083F31188AEE7711AB8
:108860005160AE62F0E72DE9F041B24DB24C2A788A
:1088700023789A4240F01B81B04B1A78002A7CD0B2
:10888000AF4B1E78AF4B002E79D11968B3F82C711D
:108890004E628889012A40EA07008881A3F82C618A
:1088A00057D0D3F83011B3F85C724E628889022A2F
:1088B00040EA07008881A3F85C624AD0D3F86012CE
:1088C000B3F88C734E628889032A40EA07008881D6
:1088D000A3F88C633DD0D3F89013B3F8BC744E6208
:1088E0008889042A40EA07008881A3F8BC6430D054
:1088F000D3F8C014B3F8EC754E628889052A40EAB3
:1089000007008881A3F8EC6523D0D3F8F015B3F8FD
:108910001C774E628889062A40EA07008881A3F8FE
:108920001C6716D0D3F82017B3F84C784E628889AC
:10893000072A40EA07008881A3F84C6809D0D3F8D9
:108940005028B3F87C095662918901439181A3F8BC
:108950007C692A7823789A420FD07B481F469B0077
:108960003B449B00C218C3583BB9137A2BB9537AC6
:108970001BB97B1C03F003032370BDE8F0815E6824
:10898000198971603768186847F0010740F20D31A6
:108990003760A0F848108689012A46F480768681DF
:1089A000D7D0D3F83461B3F83871D3F83001776099
:1089B000376847F001073760A0F848108689022A17
:1089C00046F480768681C4D0D3F86462B3F86872C6
:1089D000D3F860027760376847F001073760A0F886
:1089E00048108689032A46F480768681B1D0D3F870
:1089F0009463B3F89873D3F890037760376847F0BF
:108A000001073760A0F848108689042A46F480766A
:108A100086819ED0D3F8C464B3F8C874D3F8C00478
:108A20007760376847F001073760A0F848108689FB
:108A3000052A46F4807686818BD0D3F8F465B3F8A6
:108A4000F875D3F8F0057760376847F001073760AD
:108A5000A0F848108689062A46F4807686813FF47D
:108A600078AFD3F82467B3F82877D3F82007776076
:108A7000376847F001073760A0F848108689072A51
:108A800046F4807686813FF464AFD3F85428B3F877
:108A90005808D3F850385060106840F0010010605A
:108AA000A3F848109A8942F480729A8151E780466F
:108AB00013F0B4FF27782B78BB4286461DD0BB004D
:108AC0002148DA1900EB8202167AC6B1B8F1000F1C
:108AD0003ED01E490022B1F808C00132BCF1000F9F
:108AE00018BF0026424501F58071F4D186BB134AB8
:108AF0001278002A3FF434AFC2E61348BB003B446F
:108B00009B00C118C258AEEB0202002AFFF635AF37
:108B10004A7A3AB1013AD2B24A721AB30EF57A726F
:108B2000C25000E0C250054B1A78002A7FF4A8AE6C
:108B30000FE700BF58D5002059D500200CC20020F7
:108B400009BA002010C200205CD500200CBA002019
:108B5000DA1992000EF51C5186181031815000224E
:108B60003272C4E74A687244C250DCE710B5027C36
:108B700001681F2A4FF020030ED94C68203A934019
:108B80001C4208D00B4A406800241470026822F08E
:108B900001020260CB6010BD0C6893401C42FAD009
:108BA000044A406800241470026822F00102026046
:108BB0008B60F0E74D7900202DE9F041C4002318C7
:108BC0009B00B749CA585268958AADB2EFB2FE070A
:108BD0000B4461D4BE0737D5BFF35F8F1D7EEDB266
:108BE000012D00F0BB80AF4E138BBFF35F8F2318B6
:108BF00001EB83031D7E022D00F0CE80231801EBD4
:108C000083031D7E032D05D19B7E1BB17378002B42
:108C100040F01A81938896F900C043F480639380F2
:108C2000231801EB83031B7E013363450AD1B3781C
:108C300000257570002B40F08A80204401EB8000F5
:108C400000234375BDE8F081964E17F0040F96F9A6
:108C500000C04DD117F0400700F0B280178A1D6A9E
:108C6000FFB205F80C705FFA8CF56F1C93F818E0F2
:108C70007BB2DF1CBE4533709C4600F0098127188B
:108C800001EB87073F7EBB42CAD105F1020C4FFAC8
:108C90008CFC86F800C0C3E71588824E25F4006579
:108CA0002D042D0C1580158845F4806515809D7E5A
:108CB00000273770002D3DD07578002D37D0231850
:108CC00001EB830301251B7E7570022B03D11388F2
:108CD00043F400631380231801EB83039B7D43F06F
:108CE00001031382204401EB8000037EBDE8F08184
:108CF0009F7E75784FF0010E86F802E0002F5CD061
:108D0000002D78D1231801EB83035B7E002B00F04C
:108D1000A48013880CF1010C4FFA8CFC43F400730F
:108D200086F800C013801388DF05FCD478E7DB7D6C
:108D3000FF2BC4D0231801EB83039D7D05F0FE05B6
:108D40001582DB7DFF2BCDD0FF233370CAE79388DC
:108D500023F440731B041B0C93806EE79B7E514EE3
:108D6000002B3FF441AF7378002B3FF43DAF1388E5
:108D700023F480631B041B0C1380BFF35F8F138BE2
:108D80001388B57043F400731380938896F900C07C
:108D900043F48063938043E79B7E002B3FF42EAF28
:108DA0007378002B3FF42AAF138896F900C023F4A0
:108DB00080631B041B0C138016E0002DA2D0A8E7D3
:108DC0002D067FF52DAFBCF1FF3F6DD0DD6915F8A5
:108DD0000C5015820CF1010C1D7E4FFA8CF39D4254
:108DE0009C4633707FF41CAF938823F480631B048C
:108DF0001B0C938014E71F7ED3F820805FFA8CF55C
:108E0000AE44022F4FFA8EFE17882DD927F48067C3
:108E10003F043F0C1780178AFFB208F80C701788C0
:108E2000D3F820C047F400731380138ADBB20CF828
:108E30000E30938805F1020C4FFA8CFC43F48063EA
:108E400086F800C093806EE7938896F900C023F4FB
:108E500080631B041B0C9380E2E61388012543F416
:108E60008073138075705EE747F400771780178A68
:108E7000FFB208F80C70178AD3F8208005F1030CB4
:108E80004FFA8CFCFBB286F800C008F80E304AE7B7
:108E9000978827F480673F043F0C9780EFE600BF78
:108EA00020A10020B8130020DD7D15829D7E377043
:108EB0001DB91B7E002B7FF415AF938823F48063CC
:108EC0001B041B0C93800DE718F0E6BC08B52021AD
:108ED00047F0A1FE0346184623B10278202A03F189
:108EE0000103F8D008BD024B186832F037BE00BF4E
:108EF0004036002038B52E22002147F075FE03468B
:108F000040F2DC51642040F21A4240F2022418740C
:108F10005982132019219A8240F2753240F26C7501
:108F20001C8398760E2402201977DA830A21012205
:108F3000DD8283F82C0040F6430583F82D1083F87A
:108F400022409A7383F8252083F82B201D8419462C
:108F50000248BDE838402DF008BC00BFC4750508C4
:108F600038B51D4B1B78044600F1250593B104224A
:108F70001A49203047F076FE28461422184947F057
:108F800071FE012384F83A30164B1B7873B984F8CC
:108F90003B3038BD28461422134947F063FE0123B5
:108FA00084F83A300F4B1B78002BF0D00F4B186829
:108FB00059689A68DD68E56020606160A260DD69DB
:108FC000186959699A69A2610123E56120616161AB
:108FD00084F83B3038BD00BF15A30020E4A2002078
:108FE000CCA2002016A30020D0750508ECA200201A
:108FF000002310B4012228242921047041708270BA
:109000008271C37003714371C3715DF8044B704783
:1090100038B500240546048021462846013432F044
:10902000D1FE082CF8D1002185F8E210A5F8E41053
:10903000A5F8E610A5F8E810A5F8EA10A5F8EC10D8
:10904000A5F8EE10A5F8F010A5F8F2102846BDE836
:10905000384032F079BE2DE9F341134D134F002310
:1090600005F8033F044600EB8106B44203D11048E3
:1090700002B0BDE8F0813946284647F0BDFD2146E3
:10908000684647F0D5FD4FF000082021684647F0BC
:10909000C2FD28B96946284647F0AEFD0434E4E72E
:1090A00080F80080F1E700BFB8130020AFC00508CA
:1090B000BB130020B5EEC00ADFED317AF1EE10FAF5
:1090C000CCBF30EE270A30EE670ADFED2E7A20EEB5
:1090D000270A30B5FDEEC07A87B017EE904A0546F4
:1090E00084EAE470002303A9A0EBE470CDE9003327
:1090F000029344F0BBF9002CACBF20232D2303A81E
:109100008DF8003045F0C6FA012803A924D00228C2
:109110002DD0032805BF3023684668468DF80130FE
:1091200047F06AFD684645F0B5FA0338C4B22246F6
:109130006946284647F096FD00232B55284645F002
:10914000A9FA2E22431C2A540DEB0401E81847F01B
:109150006FFD284607B030BD302368468DF80130DA
:109160008DF802308DF8033047F046FDDAE7302302
:1091700068468DF801308DF8023047F03DFDD1E7AB
:109180006F12033A00007A44014B186813F0ACBE2A
:109190004837002010B500210446012012F0C4FC1D
:1091A000207010BD38B500240472451EE1B20220C3
:1091B00012F0BAFC0134082C05F8010FF6D138BDC5
:1091C000F8B584894FF6FF764FF47A7433B319B348
:1091D0000F78013101E0B44218D00589013CAD0798
:1091E000A4B2F8D5BCB284814FF47A7402E0BCB268
:1091F000B4420BD00589ED0704F1FF37F7D5858917
:10920000ADB20AB115700132013BDFE718F0B2FAD6
:10921000003018BF0120F8BDFF27DEE70120F8BDB0
:1092200008B5838940F2E93300E0A3B10289013B2C
:1092300012F0020F9BB2F8D089B2818140F2E9337B
:1092400000E043B10289013B12F0010F9BB2F8D05C
:109250008089C0B208BD18F08DFAC0B208BD42685E
:10926000AE49138823F040032DE9F04F1B041B0C7B
:109270001380138885B023F038031B048A420190C1
:109280004FEA134300F0788101F580618A420CBFF8
:10929000302138210B431380019B11881B6941F059
:1092A0004001118013B11A689B885383012013F089
:1092B00007FC019B586840F2E933828902E0002BE9
:1092C00000F05C810289013B12F0020F9BB2F6D0E4
:1092D0006B23838140F2E93302E0002B00F04E81E2
:1092E0000289013B12F0010F9BB2F6D0838983897A
:1092F00040F2E93302E0002B00F045810289013B96
:1093000012F0020F9BB2F6D08023838140F2E93342
:1093100002E0002B00F037810289013B12F0010FBF
:109320009BB2F6D08389019B1B6913B11A689B8895
:109330001383012013F0C4FB794CDFF8F081DFF8D0
:10934000F0A1784D784E152303939623DFF8E4C1FE
:1093500000934FF0100EDAF80430C3F30803002B2B
:1093600040F0B480EFF31183002B40F0AF80206811
:10937000AA6823689842FAD133689A42F7D8D8F895
:1093800000704FF47A7101FB07F39B1AB3FBF7F3FC
:1093900001FB00304FF47A774FF00109DAF804301E
:1093A000C3F30803002B72D1EFF31183002B6ED1AE
:1093B0002368A96822689342FAD132689142F7D8AB
:1093C000D8F8002007FB02FBABEB0101B1FBF2F187
:1093D00007FB03131B1AB3F57A7FDFD3009B013B16
:1093E0000093B8D1019B1B6913B11A689B88538302
:1093F000019B586840F2E933828902E0002B00F0BB
:1094000087800289013B12F0020F9BB2F6D0F52350
:10941000838140F2E93301E0002B79D00289013BDE
:1094200012F0010F9BB2F7D08389838940F2E933B0
:1094300001E0002B69D00289013B12F0020F9BB2C0
:10944000F7D0FF23838140F2E93301E0002B5CD0A9
:109450000289013B12F0010F9BB2F7D08389DBB286
:109460000293019B1B6913B11A689B881383029BAB
:1094700003F0FD03712B5FD0039B013B13F0FF034F
:1094800003937FF462AF184605B0BDE8F08FEFF3A9
:1094900011818EF31288D5F808B02B68DB0344BF26
:1094A000CCF80090D5F808B02368DCF80020C9B2E9
:1094B00081F31188D8F80010134407FB01F2A2EBE6
:1094C0000B02B2FBF1F207FB032383E7EFF31183F7
:1094D0008EF31288AF682A68D20303D50122CCF834
:1094E0000020AF682068DCF80090DBB283F31188BD
:1094F000D8F800104FF47A72484402FB01F3DB1BEA
:10950000B3FBF1F302FB003044E718F033F9A8E7AE
:1095100018F030F9019B586887E700BF0038004019
:1095200008A5002010E000E010A500200CA50020F8
:1095300000ED00E004A50020019B14495A6813883F
:1095400023F040031B041B0C1380138823F0380303
:109550001B048A424FEA134305D001F580618A4219
:1095600001D043F0080313801388062043F0400322
:10957000138005B0BDE8F08F30218BE618F0FAF8C3
:10958000019B5868B3E618F0F5F8CCE600380040C7
:109590002DE9F04F036987B0CDE90101009213B1C5
:1095A0001A689B885383012013F08AFA019B58683C
:1095B00040F2E933828902E0002B00F0F482028954
:1095C000013B12F0020F9BB2F6D0BDF80830838148
:1095D00040F2E93302E0002B00F0E5820289013B12
:1095E00012F0010F9BB2F6D08389838940F2E933F0
:1095F00002E0002B00F0D4820289013B12F0020F3E
:109600009BB2F6D0BDF80030838140F2E93302E02E
:10961000002B00F0C5820289013B12F0010F9BB2C2
:10962000F6D08389019B1B6913B11A689B88138349
:10963000012013F045FA642013F042FA029BA24C79
:10964000DFF89882A14FA24DDFF89492A14E43F02B
:109650008003039315230593019B1B6913B11A68BB
:109660009B8853837B68C3F30803002B40F064821C
:10967000EFF31183002B40F05F822068AA68236813
:109680009842FAD133689A42F7D8D8F800C04FF41C
:109690007A7101FB0CF39B1AB3FBFCF301FB003066
:1096A0004FF0100E4FF47A7C4FF0010A7B68C3F341
:1096B0000803002B40F09E81EFF31183002B40F054
:1096C00099812368A96822689342FAD1326891424D
:1096D000F7D8D8F800200CFB02FBABEB0101B1FB83
:1096E000F2F10CFB03139842E0D0019B586840F262
:1096F000E933828902E0002B00F041820289013BBC
:1097000012F0020F9BB2F6D0BDF80C30838140F20C
:10971000E93302E0002B00F032820289013B12F0B3
:10972000010F9BB2F6D08389838940F2E93302E0CE
:10973000002B00F0DB810289013B12F0020F9BB28B
:10974000F6D0FF23838140F2E93302E0002B00F0E2
:10975000CD810289013B12F0010F9BB2F6D08389C3
:10976000DBB20493019B1B6913B11A689B881383B6
:109770007B68C3F30803002B40F0BB81EFF3118338
:10978000002B40F0B6812068AA6823689842FAD17D
:1097900033689A42F7D8D8F800C04FF47A7101FBC9
:1097A0000CF39B1AB3FBFCF301FB00304FF0100EDF
:1097B0004FF47A7C4FF0010A7B68C3F30803002B57
:1097C00040F0F980EFF31183002B40F0F480236820
:1097D000A96822689342FAD132689142F7D8D8F842
:1097E00000200CFB02FBABEB0101B1FBF2F10CFB27
:1097F00003139842E0D0009B049A934200F0CC817E
:109800003549019B1A69CB880133CB8012B11368AB
:1098100092885A8313F002F94FF0010A4FF0100EAC
:109820004FF47A7C7B68C3F30803002B40F001817E
:10983000EFF31183002B40F0FC802368A9682268B5
:109840009342FAD132689142F7D8D8F800200CFB45
:1098500002FBABEB0101B1FBF2F10CFB03139842ED
:10986000E0D0019B586840F2E933828902E0002B86
:1098700000F08A810289013B12F0020F9BB2F6D000
:10988000BDF80830838140F2E93302E0002B00F09C
:109890007B810289013B12F0010F9BB2F6D08389D4
:1098A000838940F2E93302E0002B00F072810289E3
:1098B000013B12F0020F9BB2F6D0BDF8003083815D
:1098C00040F2E93311E000BF08A5002000ED00E000
:1098D00010E000E010A50020F41E00200CA50020E0
:1098E00004A50020002B00F054810289013B12F0F6
:1098F000010F9BB2F6D08389019B1B6913B11A68D3
:109900009B88138313F08AF84FF0010A4FF0100E72
:109910004FF47A7C7B68C3F30803002B40F0C780C8
:10992000EFF31183002B40F0C2802368A9682268FE
:109930009342FAD132689142F7D8D8F800200CFB54
:1099400002FBABEB0101B1FBF2F10CFB03139842FC
:10995000E0D013F063F84FF0010A4FF0100E4FF40F
:109960007A7C7B68C3F30803002B40F08180EFF31F
:109970001183002B7CD12368A96822689342FAD115
:1099800032689142F7D8D8F800200CFB02FBABEB11
:109990000101B1FBF2F10CFB03131B1A632BE0D99D
:1099A000059B013B13F0FF0305937FF455AE18466A
:1099B00007B0BDE8F08FEFF311818EF31288D5F870
:1099C00008B02B68DA0344BFC9F800A0D5F808B086
:1099D0002368D9F80020C9B281F31188D8F80010A3
:1099E00013440CFB01F2A2EB0B02B2FBF1F20CFBF5
:1099F0000323FEE6EFF311818EF31288D5F808B049
:109A00002B68DB0344BFC9F800A0D5F808B0236871
:109A1000D9F80020C9B281F31188D8F80010134496
:109A20000CFB01F2A2EB0B02B2FBF1F20CFB0323E5
:109A300059E6EFF311818EF31288D5F808B02B6840
:109A4000DB0344BFC9F800A0D5F808B02368D9F8F3
:109A50000020C9B281F31188D8F8001013440CFB20
:109A600001F2A2EB0B02B2FBF1F20CFB0323F6E6D0
:109A7000EFF311818EF31288D5F808B02B68DB0361
:109A800044BFC9F800A0D5F808B02368D9F8002071
:109A9000C9B281F31188D8F8001013440CFB01F20D
:109AA000A2EB0B02B2FBF1F20CFB032375E7EFF321
:109AB00011818EF31288D5F808B02B68DA0344BF01
:109AC000C9F800A0D5F808B02368D9F80020C9B2B9
:109AD00081F31188D8F8001013440CFB01F2A2EBBB
:109AE0000B02B2FBF1F20CFB032330E717F042FE4E
:109AF00038E6EFF31183102282F31288D5F808C0FC
:109B00002A68D10304D50122C9F80020D5F808C07D
:109B10002068D9F800E0DBB283F31188D8F8001090
:109B20004FF47A72704402FB01F3A3EB0C03B3FB16
:109B3000F1F302FB003039E6EFF31183102282F3D8
:109B40001288D5F808C02A68D20304D50122C9F8C2
:109B50000020D5F808C02068D9F800E0DBB283F314
:109B60001188D8F800104FF47A72704402FB01F3A8
:109B7000A3EB0C03B3FBF1F302FB003090E517F00D
:109B8000F9FD019B5868CFE517F0F4FD019B58687B
:109B900086E617F0EFFDAFE6012007B0BDE8F08FD5
:109BA00017F0E8FD3EE517F0E5FD019B58681CE560
:109BB00038B5054640683B4A038823F040031B0440
:109BC0001B0C0380038823F038031B0490424FEAE8
:109BD000134305D002F58062904201D043F00803A0
:109BE000038003882A6943F04003038012B113689D
:109BF00092885A83838940F2E93301E0002B43D0F5
:109C00000289013B12F0020F9BB2F7D0F52383814A
:109C100040F2E93301E0002B36D00289013B12F01B
:109C2000010F9BB2F7D08389838940F2E93300E0CA
:109C30000BB30289013B12F0020F9BB2F8D0FF2355
:109C4000838140F2E93300E0ABB10289013B12F0BD
:109C5000010F9BB2F8D08489E4B22B6913B11A6862
:109C60009B881383712C19D008D9AC2C14D0AF2C3D
:109C70000ED1092038BD17F07DFDEEE7122C0FD074
:109C8000702C07D1052038BD17F074FD6868CBE74C
:109C9000732C03D0002038BD072038BD062038BD06
:109CA000082038BD00380040F0B5076A83B006468A
:109CB00017B13B68BA885A837069DFF8A8E08389D6
:109CC000C3244FF47A734FF0060C6D464FF6FF71C4
:109CD0000EF1010E03E0013B9BB28B4220D00289C2
:109CE0009207F8D5A3B283814FF47A7302E0A3B24E
:109CF0008B4215D00289D20703F1FF34F7D5828950
:109D000092B20DB12A700135BCF1000F0BD00CF1ED
:109D1000FF3CFF24BEF1000FE1D09EF80040D7E7E2
:109D200017F028FD376A17B13B68BA881A839DF887
:109D300005009DF801509DF802109DF803409DF824
:109D400004209DF8063041EA052143EA002342EA57
:109D500004220120A6F85810A6F85A20A6F85C3074
:109D600003B0F0BD000D05082DE9F04F87B003905A
:109D700090F86900002840F02986039B93F8603032
:109D8000072B00F01A861823CDE90433039BBE4C41
:109D9000BE4EDFF80483BE4F1033184680226B217D
:109DA000029317F003FD6423DFF8F0E2B948019352
:109DB0004FF01009DEF80430C3F30803002B40F025
:109DC000AB84EFF31183002B40F0A68425688268F2
:109DD00023689D42FAD13B689A42F7D8D6F800C072
:109DE0004FF47A7101FB0CF39B1AB3FBFCF301FBFC
:109DF00005354FF47A7C4FF0010ADEF80430C3F3E6
:109E00000803002B40F06984EFF31183002B40F02E
:109E100064842368816822689342FAD13A68914247
:109E2000F7D832680CFB02FBABEB0101B1FBF2F19E
:109E30000CFB03135B1BB3F57A7FDED3019B013B65
:109E40000193B7D1072268210298DFF84C82904F26
:109E500017F0ACFC6423DFF844E28E4801934FF026
:109E60001009DEF80430C3F30803002B40F0988497
:109E7000EFF31183002B40F09384256882682368F8
:109E80009D42FAD13B689A42F7D8D6F800C04FF409
:109E90007A7101FB0CF39B1AB3FBFCF301FB053554
:109EA0004FF47A7C4FF0010ADEF80430C3F3080364
:109EB000002B40F0F483EFF31183002B40F0EF838D
:109EC0002368816822689342FAD13A689142F7D8B0
:109ED00032680CFB02FBABEB0101B1FBF2F10CFBB6
:109EE00003135B1BB3F57A7FDED3019B013B019328
:109EF000B7D11A466B210298DFF89C81644F17F0A6
:109F000055FC6423DFF894E1624801934FF0100997
:109F1000DEF80430C3F30803002B40F01F84EFF396
:109F20001183002B40F01A842568826823689D42C3
:109F3000FAD13B689A42F7D8D6F800C04FF47A714C
:109F400001FB0CF39B1AB3FBFCF301FB05354FF44B
:109F50007A7C4FF0010ADEF80430C3F30803002BCB
:109F600040F07F83EFF31183002B40F07A83236866
:109F7000816822689342FAD13A689142F7D83268F0
:109F80000CFB02FBABEB0101B1FBF2F10CFB031389
:109F90005B1BB3F57A7FDED3019B013B0193B7D105
:109FA00001226B210298DFF8F080394F17F0FEFB99
:109FB0000F23DFF8E8E0374801934FF01009DEF88F
:109FC0000430C3F30803002B40F0D384EFF3118374
:109FD000002B40F0CE842568826823689D42FAD128
:109FE0003B689A42F7D8D6F800C04FF47A7101FB6B
:109FF0000CF39B1AB3FBFCF301FB05354FF47A7CA1
:10A000004FF0010ADEF80430C3F30803002B40F0E0
:10A010000A83EFF31183002B40F0058323688168E6
:10A0200022689342FAD13A689142F7D832680CFB21
:10A0300002FBABEB0101B1FBF2F10CFB03135B1B69
:10A04000B3F57A7FDED3019B013B0193B7D1059A2B
:10A050000298DFF844800E4F1B2117F0A7FB0F2357
:10A06000DFF838E00B4801934FF01009DEF80430B8
:10A07000C3F30803002B40F05A84EFF31183002B45
:10A0800040F055840CE000BF08A500200CA500207E
:10A0900010A5002010E000E004A5002000ED00E085
:10A0A0002568826823689D42FAD13B689A42F7D8B6
:10A0B000D6F800C04FF47A7101FB0CF39B1AB3FB86
:10A0C000FCF301FB05354FF47A7C4FF0010ADEF812
:10A0D0000430C3F30803002B40F08782EFF31183B1
:10A0E000002B40F082822368816822689342FAD173
:10A0F0003A689142F7D832680CFB02FBABEB0101E6
:10A10000B1FBF2F10CFB03135B1BB3F57A7FDED3DB
:10A11000019B013B0193A9D1049A0298DFF82083A7
:10A12000C54F1C2117F042FB0F23DFF818E3C3488B
:10A1300001934FF01009DEF80430C3F30803002B3D
:10A1400040F0D483EFF31183002B40F0CF832568D8
:10A15000826823689D42FAD13B689A42F7D8D6F8C4
:10A1600000C04FF47A7101FB0CF39B1AB3FBFCF3B4
:10A1700001FB05354FF47A7C4FF0010ADEF804301C
:10A18000C3F30803002B40F01282EFF31183002B7E
:10A1900040F00D822368816822689342FAD13A68C0
:10A1A0009142F7D832680CFB02FBABEB0101B1FB2B
:10A1B000F2F10CFB03135B1BB3F57A7FDED3019B3B
:10A1C000013B0193B7D1039A92F86330032B00F25D
:10A1D000F28392F86620012A0BD0022A40F0EB832A
:10A1E000039B93F86B3003F0FB03022B0CBF0022A0
:10A1F00007221A210298DFF848828F4F17F0D6FA0B
:10A200000F23DFF840E28D4801934FF01009DEF88C
:10A210000430C3F30803002B40F02683EFF31183CF
:10A22000002B40F021832568826823689D42FAD183
:10A230003B689A42F7D8D6F800C04FF47A7101FB18
:10A240000CF39B1AB3FBFCF301FB05354FF47A7C4E
:10A250004FF0010ADEF80430C3F30803002B40F08E
:10A260008881EFF31183002B40F08381236881689C
:10A2700022689342FAD13A689142F7D832680CFBCF
:10A2800002FBABEB0101B1FBF2F10CFB03135B1B17
:10A29000B3F57A7FDED3019B013B0193B7D1039BDA
:10A2A000029893F86820DFF89881634F192117F01E
:10A2B0007DFA6423DFF88CE1604801934FF01009C8
:10A2C000DEF80430C3F30803002B40F0EE82EFF316
:10A2D0001183002B40F0E9822568826823689D4243
:10A2E000FAD13B689A42F7D8D6F800C04FF47A7199
:10A2F00001FB0CF39B1AB3FBFCF301FB05354FF498
:10A300007A7C4FF0010ADEF80430C3F30803002B17
:10A3100040F01181EFF31183002B40F00C81236892
:10A32000816822689342FAD13A689142F7D832683C
:10A330000CFB02FBABEB0101B1FBF2F10CFB0313D5
:10A340005B1BB3F57A7FDED3019B013B0193B7D151
:10A35000102237210298DFF8E880374F17F026FAED
:10A360000F23DFF8E0E0354801934FF01009DEF8E5
:10A370000430C3F30803002B40F05582EFF3118340
:10A38000002B40F050822568826823689D42FAD1F4
:10A390003B689A42F7D8D6F800C04FF47A7101FBB7
:10A3A0000CF39B1AB3FBFCF301FB05354FF47A7CED
:10A3B0004FF0010ADEF80430C3F30803002B40F02D
:10A3C0009C80EFF31183002B40F097802368816815
:10A3D00022689342FAD13A689142F7D832680CFB6E
:10A3E00002FBABEB0101B1FBF2F10CFB03135B1BB6
:10A3F000B3F57A7FDED3019B013B0193B7D102987D
:10A40000DFF83C800C4F0122382117F0CFF90F23E1
:10A41000DFF830E0094801934FF01009DEF804300E
:10A42000C3F30803002B40F0DD81EFF31183002B11
:10A4300040F0D88108E000BF10A5002010E000E047
:10A4400004A5002000ED00E02568826823689D4295
:10A45000FAD13B689A42F7D8D6F800C04FF47A7127
:10A4600001FB0CF39B1AB3FBFCF301FB05354FF426
:10A470007A7C4FF0010ADEF80430C3F30803F3B925
:10A48000EFF31183DBB92368816822689342FAD124
:10A490003A689142F7D832680CFB02FBABEB010142
:10A4A000B1FBF2F10CFB03135B1BB3F57A7FE2D334
:10A4B000019B013B0193B1D107B0BDE8F08FEFF3F1
:10A4C000118189F31288D0F808B00368DB0344BF18
:10A4D000C8F800A0D0F808B02368D8F80020C9B2A6
:10A4E00081F31188316813440CFB01F2A2EB0B02DB
:10A4F000B2FBF1F20CFB0323D6E7EFF3118189F3F2
:10A500001288D0F808B00368DB0344BFC8F800A085
:10A51000D0F808B02368D8F80020C9B281F31188B8
:10A52000316813440CFB01F2A2EB0B02B2FBF1F217
:10A530000CFB03235BE7EFF3118189F31288D0F85A
:10A5400008B00368DB0344BFC8F800A0D0F808B027
:10A550002368D8F80020C9B281F311883168134408
:10A560000CFB01F2A2EB0B02B2FBF1F20CFB03239A
:10A57000E6E6EFF3118189F31288D0F808B003689A
:10A58000DB0344BFC8F800A0D0F808B02368D8F8AF
:10A590000020C9B281F31188316813440CFB01F229
:10A5A000A2EB0B02B2FBF1F20CFB03236FE6EFF31D
:10A5B000118189F31288D0F808B00368DB0344BF27
:10A5C000C8F800A0D0F808B02368D8F80020C9B2B5
:10A5D00081F31188316813440CFB01F2A2EB0B02EA
:10A5E000B2FBF1F20CFB0323E5E5EFF3118189F3F4
:10A5F0001288D0F808B00368DB0344BFC8F800A095
:10A60000D0F808B02368D8F80020C9B281F31188C7
:10A61000316813440CFB01F2A2EB0B02B2FBF1F226
:10A620000CFB032370E5EFF3118189F31288D0F856
:10A6300008B00368DB0344BFC8F800A0D0F808B036
:10A640002368D8F80020C9B281F311883168134417
:10A650000CFB01F2A2EB0B02B2FBF1F20CFB0323A9
:10A66000EDE4EFF3118189F31288D0F808B00368A4
:10A67000DB0344BFC8F800A0D0F808B02368D8F8BE
:10A680000020C9B281F31188316813440CFB01F238
:10A69000A2EB0B02B2FBF1F20CFB032378E4EFF325
:10A6A000118189F31288D0F808B00368DB0344BF36
:10A6B000C8F800A0D0F808B02368D8F80020C9B2C4
:10A6C00081F31188316813440CFB01F2A2EB0B02F9
:10A6D000B2FBF1F20CFB032303E4EFF3118189F3E6
:10A6E0001288D0F808B00368DB0344BFC8F800A0A4
:10A6F000D0F808B02368D8F80020C9B281F31188D7
:10A70000316813440CFB01F2A2EB0B02B2FBF1F235
:10A710000CFB0323FFF78EBBEFF3118389F3128841
:10A72000D0F808C00268D20304D50122C8F800207E
:10A73000D0F808C02568D8F800A0DBB283F31188F0
:10A7400031684FF47A72554402FB01F3A3EB0C031A
:10A75000B3FBF1F302FB0535FFF74BBBEFF31183BE
:10A7600089F31288D0F808C00268D20304D5012208
:10A77000C8F80020D0F808C02568D8F800A0DBB2DF
:10A7800083F3118831684FF47A72554402FB01F368
:10A79000A3EB0C03B3FBF1F302FB0535FFF7D7BBCB
:10A7A000EFF3118389F31288D0F808C00268D2034E
:10A7B00004D50122C8F80020D0F808C02568D8F8D0
:10A7C00000A0DBB283F3118831684FF47A725544EC
:10A7D00002FB01F3A3EB0C03B3FBF1F302FB053522
:10A7E000FFF75EBBEFF3118389F31288D0F808C03E
:10A7F0000268D20304D50122C8F80020D0F808C0AE
:10A800002568D8F800A0DBB283F3118831684FF4D3
:10A810007A72554402FB01F3A3EB0C03B3FBF1F393
:10A8200002FB053523E6EFF3118389F31288D0F894
:10A8300008C00268D20304D50122C8F80020D0F86D
:10A8400008C02568D8F800A0DBB283F3118831680E
:10A850004FF47A72554402FB01F3A3EB0C03B3FBF4
:10A86000F1F302FB0535A1E5EFF3118389F31288BB
:10A87000D0F808C00268D20304D50122C8F800202D
:10A88000D0F808C02568D8F800A0DBB283F311889F
:10A8900031684FF47A72554402FB01F3A3EB0C03C9
:10A8A000B3FBF1F302FB0535D0E4EFF3118389F339
:10A8B0001288D0F808C00268D20304D50122C8F873
:10A8C0000020D0F808C02568D8F800A0DBB283F3D8
:10A8D000118831684FF47A72554402FB01F3A3EBFF
:10A8E0000C03B3FBF1F302FB053508E5EFF311832D
:10A8F00089F31288D0F808C00268D20304D5012277
:10A90000C8F80020D0F808C02568D8F800A0DBB24D
:10A9100083F3118831684FF47A72554402FB01F3D6
:10A92000A3EB0C03B3FBF1F302FB053522E4EFF3D9
:10A93000118389F31288D0F808C00268D20304D5C5
:10A940000122C8F80020D0F808C02568D8F800A077
:10A95000DBB283F3118831684FF47A72554402FBFD
:10A9600001F3A3EB0C03B3FBF1F302FB0535FFF797
:10A97000AABBEFF3118389F31288D0F808C00268EC
:10A98000D20304D50122C8F80020D0F808C02568F9
:10A99000D8F800A0DBB283F3118831684FF47A72E3
:10A9A000554402FB01F3A3EB0C03B3FBF1F302FBF1
:10A9B0000535FFF723BB019A1BE4039B93F8653031
:10A9C0003BBB1023CDE90433FFF7E0B915F0FCFBE6
:10A9D000044620B302688388126913407FF4CDA92E
:10A9E0000399C3712022124B827141F80C3F3EF053
:10A9F000ADFFA388B3FA83F3C3F11F03012212FA58
:10AA000003F33FF4BAA90B490A6813430B60FFF73D
:10AA1000B4B910211823CDE90413FFF7B7B903998E
:10AA2000034B41F80C3F3EF091FFFFF7A6B900BF82
:10AA300059870008003C014042697749138823F098
:10AA400040032DE9F04F1B041B0C1380138883B0C7
:10AA500023F038031B048A4201904FEA134300F0AD
:10AA6000D08001F580618A420CBF282130210B4340
:10AA70001380138843F040031380012012F020F864
:10AA8000019C2046FFF770F9236A13B11A689B886E
:10AA90005383019B586940F2E933828902E0002B1D
:10AAA00000F0B4800289013B12F0020F9BB2F6D095
:10AAB0006A23838140F2E93302E0002B00F0A68094
:10AAC0000289013B12F0010F9BB2F6D08389838982
:10AAD00040F2E93302E0002B00F095800289013B4F
:10AAE00012F0020F9BB2F6D01023838140F2E933BB
:10AAF00002E0002B00F087800289013B12F0010F79
:10AB00009BB2F6D08389019B1B6A13B11A689B889C
:10AB100013836423414CDFF81091DFF81081404D1E
:10AB2000DFF80CA13F4E009311F078FF4FF47A77D5
:10AB30004FF0100C4FF0010ED8F80430C3F30803A7
:10AB4000002B3FD1EFF31183002B3BD12368A96881
:10AB500022689342FAD132689142F7D8D9F800209E
:10AB600007FB02FBABEB0101B1FBF2F107FB0313A7
:10AB70001B1AB3F57A7FDFD3009B013B0093D3D13F
:10AB8000019B25495A69138823F040031B041B0CC1
:10AB90001380138823F038031B048A424FEA1343BF
:10ABA00005D001F580618A4201D043F0080313808B
:10ABB0001388012043F04003138003B0BDE8F04F39
:10ABC00011F07EBFEFF311818CF31288D5F808B035
:10ABD0002B68DB0344BFCAF800E0D5F808B023684F
:10ABE000DAF80020C9B281F31188D9F800101344B3
:10ABF00007FB01F2A2EB0B02B2FBF1F207FB03230E
:10AC0000B6E7282133E716F0B5FD7CE716F0B2FD74
:10AC1000019B58695BE700BF0038004008A5002091
:10AC200010E000E010A500200CA5002000ED00E0E1
:10AC300004A5002008B501200BF0E2FA284A936829
:10AC400003F00C03082B08D00C2B1FD0042B254B32
:10AC50001ABF254A1A60186008BD51685368490236
:10AC600003F03F0333D452681F48B0FBF3F0C2F344
:10AC7000881300FB03F01A4B1A4A5B68C3F30143C5
:10AC800001335B00B0FBF3F0106008BD51685368FE
:10AC9000490203F03F0312D452681348B0FBF3F0AB
:10ACA000C2F3881300FB03F00D4B0E4A5B68C3F33D
:10ACB000027301335B00B0FBF3F0106008BDB0FB22
:10ACC000F3F05368C3F3881300FB03F0ECE7B0FB29
:10ACD000F3F05368C3F3881300FB03F0CBE700BF26
:10ACE0000038024018A300200024F400037C02680E
:10ACF0001F2B86BF203B51681168202202FA03F304
:10AD00000B4214BF0123002303B970472DE9F0471C
:10AD10004569DFF854A12D02044611F07FFE0AEBCD
:10AD2000050380461A7C002A34D14B495A680978B9
:10AD3000D2F80090C9B9D16858890A6822F0010296
:10AD40000A60B9F80C3023EA0003A9F80C30434B31
:10AD50001B78002B31D1237C21681F2B13D8202294
:10AD600002FA03F38B60BDE8F0879269136823F061
:10AD700001031360B9F80C3023F480731B041B0C1F
:10AD8000A9F80C30E3E7203B202202FA03F3CB6062
:10AD9000BDE8F0875A683248D66815685F89012295
:10ADA0005A743168436A21F001013160AA89013384
:10ADB00022EA0702AA814362CDE70AEB050628359D
:10ADC000776F38460BF0B4F901230AEB05014846CA
:10ADD00033740BF06DFAD6E91202736B316D3D6876
:10ADE00003431343D6E915200B431343F16DB26EB1
:10ADF00003430B431B48F16E134328400B430343AB
:10AE0000002232643B60D6E918317A69756CB06B08
:10AE100022F007020B431343F26B7B617D60B86045
:10AE2000FA603B687268706FD16896F8705012686B
:10AE300043F010033B6045600B6843F001030B6077
:10AE4000938971890B43938111F0E8FD044BA0EBCA
:10AE5000080098627FE700BF09BA002008BA002006
:10AE6000B81300203F801CF00CBA00208A4B1B78DE
:10AE7000002B00F09880002800F095802DE9F04F1D
:10AE8000431E85B0854C0190032B4FF00006A8BFF0
:10AE90000323A4F114070393B0464FEA062A07EBF5
:10AEA0000A03256E5B7C002B7ED06A6892B2002A72
:10AEB00065D114F8050CD4E91B13002800F0A68412
:10AEC000603377485B1AA0FB0351890901EB41010C
:10AED000A3EB4113182B00F17385173BA0FB032351
:10AEE000DB0003F0F003D4E91D126D486032521A02
:10AEF000A0FB0251890901EB4101A2EB4112182A82
:10AF000005D4173AA0FB0212C2F343021343D4E95B
:10AF10001F1263486032521AA0FB0251890901EBEB
:10AF20004101A2EB4112182A5EBF173AA0FB0212A0
:10AF3000C2F34305D4E92112594802F16002A2EBA1
:10AF40000102A0FB02C14FEA911101EB4101A2EB0A
:10AF5000411248BF0025182A58BF173A45EA031581
:10AF60005ABFA0FB0223C3F34303002343EA0513A4
:10AF700083EA132282EA1212100700F0088549487A
:10AF8000C36A0133C36226B930308022464944F097
:10AF900007FB07EB0A0383F8118054F8109C256E19
:10AFA000D9F800B00CE0704754F8109C34F80A1C33
:10AFB000D9F800B0BBF80C2022EA0102ABF80C2053
:10AFC0002A683A4B22F0010221219D422A60C5F8ED
:10AFD0000080C5F80480C5F80880C5F80C80C5F865
:10AFE000108069611FD0324B9D4200F03383314B9A
:10AFF0009D4200F03983304B9D4200F0DB842F4BA3
:10B000009D4200F0FE842E4A954200F0FF842D4AB6
:10B01000954200F07A852C4A954200F0E884284653
:10B020000AF0F6FF02E0294A3D219160BA448AF80D
:10B03000108099F805100C2916D8DFE811F04201AC
:10B040001500150015004B011500150015003901FC
:10B050001500150015000D00BBF81C2022F400623D
:10B060001204120CABF81C202246584610F024F8AB
:10B0700099F805300C2B35D8DFE813F004013400C3
:10B08000340034000F01340034003400F90034007F
:10B09000340034002A0000BF08BA002020BA002083
:10B0A000ABAAAAAAB81300208CBA002010600240F4
:10B0B00028600240406002405860024070600240D8
:10B0C00088600240A0600240B86002400060024018
:10B0D000BBF81C3023F400631B041B0C43F4006317
:10B0E000ABF81C30D4E90D12236AE06B43F0400347
:10B0F0000B431343226CB14903431343626C134364
:10B100004022E262A26C28681343A26D0292626D33
:10B110001343029A014013430B432B60D4E91331CC
:10B120006A69206B22F007020B431343D4E909122A
:10B130006B616860A960EA602B6843F010032B60C4
:10B14000039B01369E4204F580747FF7A6AE019BF7
:10B150009E4280F2CA814FEA062A0AF114043C4456
:10B160004FF0000807EB0A03256E5B7C002B00F014
:10B17000BA806A6892B2002A65D114F8050CD4E945
:10B180001B13002800F07A8260338D485B1AA0FB05
:10B190000351890901EB4101A3EB4113182B00F185
:10B1A0001284173BA0FB0323DB0003F0F003D4E978
:10B1B0001D1283486032521AA0FB0251890901EB2B
:10B1C0004101A2EB4112182A05D4173AA0FB021242
:10B1D000C2F343021343D4E91F1279486032521A72
:10B1E000A0FB0251890901EB4101A2EB4112182A8F
:10B1F0005EBF173AA0FB0212C2F34305D4E9211245
:10B200006F4802F16002A2EB0102A0FB02C14FEA0B
:10B21000911101EB4101A2EB411248BF0025182A10
:10B2200058BF173A45EA03155ABFA0FB0223C3F3E0
:10B230004303002343EA051383EA132282EA12122E
:10B24000120700F0DE825F48C36A0133C36226B989
:10B25000303080225C4944F0A3F907EB0A0383F8FD
:10B26000118054F8109C256ED9F800B047E0BBF867
:10B270001C3023F008031B041B0C43F00803ABF83D
:10B280001C302FE7BBF8183023F008031B041B0CFD
:10B2900043F00803ABF8183024E7BBF8183023F468
:10B2A00000631B041B0C43F40063ABF8183019E770
:10B2B000BBF81C2022F008021204120CABF81C2070
:10B2C000D2E6BBF8182022F008021204120CABF8E8
:10B2D0001820C9E6BBF8182022F400621204120CF0
:10B2E000ABF81820C0E654F8109C34F80A1CD9F8C2
:10B2F00000B0BBF80C2022EA0102ABF80C202A684F
:10B30000324B22F0010221219D422A60C5F80080C3
:10B31000C5F80480C5F80880C5F80C80C5F8108011
:10B3200069611FD02A4B9D4200F08F81294B9D42BD
:10B3300000F09581284B9D4200F03783274B9D42BA
:10B3400000F05B83264A954200F06583254A9542CA
:10B3500000F0E083244A954200F0448328460AF036
:10B3600057FE02E0214A3D219160BA448AF81080DC
:10B3700099F805100C2910D8DFE801F0A50F0F0F80
:10B380009C0F0F0FAE0F0F0F0700BBF81C2022F40D
:10B3900000621204120CABF81C20224658460FF033
:10B3A0008BFE99F805300C2B2CD8DFE803F06D2BC1
:10B3B0002B2B782B2B2B622B2B2B21003F801CF06F
:10B3C000ABAAAAAAB81300208CBA002010600240D1
:10B3D00028600240406002405860024070600240B5
:10B3E00088600240A0600240B860024000600240F5
:10B3F000BBF81C3023F400631B041B0C43F40063F4
:10B40000ABF81C30D4E90D12236AE06B43F0400323
:10B410000B431343226C974903431343626C13435A
:10B420004022E262A26C28681343A26D0292626D10
:10B430001343029A014013430B432B60D4E91331A9
:10B440006A69206B22F007020B431343D4E9091207
:10B450006B616860A960EA602B6843F010032B60A1
:10B46000019B0136B34204F580743ED04FEA062AB0
:10B4700078E6BBF81C3023F008031B041B0C43F0D8
:10B480000803ABF81C30BDE7BBF8183023F0080305
:10B490001B041B0C43F00803ABF81830B2E7BBF8F1
:10B4A000183023F400631B041B0C43F40063ABF857
:10B4B0001830A7E7BBF8182022F400621204120C1F
:10B4C000ABF8182069E7BBF8182022F00802120434
:10B4D000120CABF8182060E7BBF81C2022F0080221
:10B4E0001204120CABF81C2057E77A68787B1368BB
:10B4F0005179800754BF012204228A40198C92B2EC
:10B5000021EA02011984198C0A431A84019B012B38
:10B5100000F09880D7F8042197F80D01136851794D
:10B52000820754BF012204228A40198C92B221EA78
:10B5300002011984198C0A431A84019B022B00F022
:10B540008180D7F8042297F80D0213685179860795
:10B5500054BF012204228A40198C92B221EA0201CE
:10B560001984198C0A431A84019B032B6AD0D7F8DB
:10B57000042397F80D0313685179850754BF0122FE
:10B5800004228A40198C92B221EA02011984198C92
:10B590000A431A84019B042B54D0D7F8042497F84B
:10B5A0000D14136850798C0754BF01220422198CA2
:10B5B000824092B221EA02011984198C0A431A844A
:10B5C000019B052B3ED0D7F8042597F80D0513688D
:10B5D0005179800754BF012204228A40198C92B20B
:10B5E00021EA02011984198C0A431A84019B062B53
:10B5F00028D0D7F8042697F80D16136850798907D4
:10B6000054BF01220422198C824092B221EA020125
:10B610001984198C0A431A84019B072B12D0D7F87E
:10B62000042797F80D071368517982074CBF04224D
:10B6300001228A40198C92B221EA02011984198CE4
:10B640000A431A8405B0BDE8F08F0B4A4FF47461C9
:10B6500091608AE6084A4FF474619160E6E4064A14
:10B660004FF47411916080E6034A4FF474119160B5
:10B67000DCE400BF3F801CF0006002405B1A002B3E
:10B6800040F3AA810A2BD4BF00230123D4E91D1261
:10B69000521A002A4FEA430340F3FB810A2A01DDD4
:10B6A00043F00103D4E91F12521A002A4FEA430360
:10B6B00040F3F7810A2A01DD43F00103D4E92112A6
:10B6C000521A002A4FEA430340F3E7810A2A01DDB8
:10B6D00043F00103D4E92312521A002A4FEA43032C
:10B6E00040F3CF810A2A01DD43F00103D4E925129A
:10B6F000521A002A4FEA430340F3BF810A2A01DDB0
:10B7000043F00103D4E92712521A002A4FEA4303F7
:10B7100040F3AF810A2A01DD43F00103D4E9291285
:10B72000521A002A4FEA430340F39F810A2A01DD9F
:10B7300043F00103D4E92B12521A002A4FEA4303C3
:10B7400040F38F810A2A01DD43F00103D4E92D1271
:10B75000521A002A4FEA430340F37F810A2A01DD8F
:10B7600043F00103D4E92F12521A002A4FEA43038F
:10B7700040F36F810A2A01DD43F00103D4E931125D
:10B78000521A002A4FEA430340F35F810A2A01DD7F
:10B7900043F00103D4E93312521A002A4FEA43035B
:10B7A00040F34F810A2A01DD43F00103D4E9351249
:10B7B000521A002A4FEA430340F33F810A2A01DD6F
:10B7C00043F00103D4E93712521A002A4FEA430327
:10B7D00040F32F810A2A01DD43F00103D4E9391235
:10B7E000521A002A4FEA430340F31F810A2A01DD5F
:10B7F00043F0010383EA132282EA121215077FF451
:10B8000022ADC3F30F1324F8023C26E55B1A002B8C
:10B8100040F3DC800A2BD4BF00230123D4E91D129E
:10B82000521A002A4FEA430340F32F810A2A01DD0E
:10B8300043F00103D4E91F12521A002A4FEA4303CE
:10B8400040F35F810A2A01DD43F00103D4E92112AC
:10B85000521A002A4FEA430340F34F810A2A01DDBE
:10B8600043F00103D4E92312521A002A4FEA43039A
:10B8700040F33F810A2A01DD43F00103D4E9251298
:10B88000521A002A4FEA430340F32F810A2A01DDAE
:10B8900043F00103D4E92712521A002A4FEA430366
:10B8A00040F31F810A2A01DD43F00103D4E9291284
:10B8B000521A002A4FEA430340F30F810A2A01DD9E
:10B8C00043F00103D4E92B12521A002A4FEA430332
:10B8D00040F3FF800A2A01DD43F00103D4E92D1271
:10B8E000521A002A4FEA430340F3EF800A2A01DD8F
:10B8F00043F00103D4E92F12521A002A4FEA4303FE
:10B9000040F3DF800A2A01DD43F00103D4E931125C
:10B91000521A002A4FEA430340F3CF800A2A01DD7E
:10B9200043F00103D4E93312521A002A4FEA4303C9
:10B9300040F3BF800A2A01DD43F00103D4E9351248
:10B94000521A002A4FEA430340F3AF800A2A01DD6E
:10B9500043F00103D4E93712521A002A4FEA430395
:10B9600060DD0A2A01DD43F00103D4E93912521ADD
:10B97000002A4FEA430352DD0A2A01DD43F00103A6
:10B9800083EA132282EA121211077FF4F8AA634AAB
:10B990001278C3F30F132F2A24F8023C7FF4F9AA7C
:10B9A0005F4A22F81630FFF7F4BA5E4A4FF074612E
:10B9B0009160DAE45B4A4FF074619160FFF736BB47
:10B9C0001346FFF790BA1346FFF7F1BB13F1090FC7
:10B9D000B4BF0023012321E713F1090FB4BF0023F3
:10B9E000012353E64FF03D5142F8AC1CBDE44FF04B
:10B9F0003D5142F8AC1CFFF719BB4A4A4A49D16095
:10BA0000B3E4484A4849D160FFF710BB474942F8C0
:10BA10007C1CFFF70BBB454942F87C1CA5E40932AE
:10BA2000AEDBABE70932A0DB9DE70932FFF6E2AE01
:10BA3000DEE60932FFF6D2AECEE60932FFF6C2AE3E
:10BA4000BEE60932FFF6B2AEAEE60932FFF6A2AEAE
:10BA50009EE60932FFF692AE8EE60932FFF682AE1E
:10BA60007EE60932FFF672AE6EE60932FFF662AE8E
:10BA70005EE60932FFF652AE4EE60932FFF642AEFE
:10BA80003EE60932FFF632AE2EE60932FFF6D2AEBE
:10BA9000CEE60932FFF606AE02E60932FFF61AAE2E
:10BAA00016E60932FFF60AAE06E60932FFF652AF95
:10BAB0004EE70932FFF642AF3EE70932FFF632AFFA
:10BAC0002EE70932FFF622AF1EE70932FFF612AF6A
:10BAD0000EE70932FFF602AFFEE60932FFF6F2AEDC
:10BAE000EEE60932FFF6E2AEDEE60932FFF6D2AE4E
:10BAF000CEE60932FFF6C2AEBEE60932FFF6B2AEBE
:10BB0000AEE60932FFF6A2AE9EE6094942F8941C61
:10BB1000FFF78CBA064942F8941C26E4F01E002078
:10BB2000F41E0020006002403D000020400F002075
:10BB300000003D20024B0146186815F0ADBE00BF65
:10BB40003C36002038B5064D441E14F8011F286805
:10BB500019B9BDE8384015F091BE15F09DFEF4E727
:10BB60003C3600200048EDE79D72050808B5FFF758
:10BB7000E9FFBDE80840F5E710B504460348FFF7C4
:10BB8000E1FF2046BDE81040F0E700BF2866050849
:10BB900038B5074C074DAC4203D3074B00221A704F
:10BBA00038BD6288D4E9010143F0FAFC1434F2E7AD
:10BBB000A0010008040700089837002038B5074C9A
:10BBC000074DAC4203D3074B01221A7038BD62887F
:10BBD000D4E9011043F0E4FC1434F2E7A0010008BA
:10BBE0000407000898370020024A136823EA00007F
:10BBF00010607047ECCB0020DFED2E7AB4EEE70A40
:10BC0000F1EE10FA4ADDDFED2C6A9FED2C7A01E0AF
:10BC1000B0EE670AB4EEC70AF1EE10FA70EE667A7B
:10BC2000F6DC9FED277AF4EEC77AF1EE10FA3ED5F6
:10BC3000DFED216A9FED237A01E0F0EE407AF4EE29
:10BC4000C77AF1EE10FA37EEA60AF6D4DFED1E7AC7
:10BC5000B4EEE70AF1EE10FA14DDDFED167A37EEF6
:10BC6000C00A60EE006A9FED196A9FED197ADFED58
:10BC7000197AA6EE867A20EE266AE6EE877AA6EE96
:10BC8000270A7047DFED147AB4EEE70AF1EE10FAF6
:10BC900044BFDFED0B7A37EEC00AE2E79FED087A8A
:10BCA000F0EE407AF4EEC77AF1EE10FAC0D4B0EEBE
:10BCB000670ACBE7DB0F4940DB0FC940E4CB1641F5
:10BCC000DB0F49C0E4CB16C1DB0FC93F92E741B996
:10BCD0009730083C15A82ABEDB0FC9BFF0EEC07A2A
:10BCE000B0EEE07AB4EEE77AF1EE10FAB4BFB0EE5F
:10BCF000676AB0EE476AB5EE406AF1EE10FA46D0D8
:10BD0000B4EEE77AF1EE10FA8CBFF0EE675AF0EE7F
:10BD1000475AC5EE866A9FED1F3A9FED1F6A9FED59
:10BD20001F4A9FED1F5ADFED1F3ADFED1F4ADFED7F
:10BD30001F5AA6EEC36AE6EEA34AA6EE864AB7EEFF
:10BD4000006AA6EE845AA6EEA46AE6EE855AC5EE0F
:10BD5000866AB4EEE77AF1EE10FA48BFDFED147AA6
:10BD6000F5EEC00A48BF77EEE66AF1EE10FA48BF7A
:10BD7000DFED107AB5EEC00A48BF77EEE66AF1EE65
:10BD800010FA48BFF1EE666AB0EE660A7047DFED62
:10BD9000076ADEE739094E3DE3B59E3E88FA163E56
:10BDA00045FE7F3F99FB243F69A2163EA7DFA834DA
:10BDB000DB0FC93FDB0F4940DFED317A30EE277AE8
:10BDC000FDEEC76A16EE903A2033402B02D99FED64
:10BDD0002D0A7047B4EEE70AF1EE10FA4DDD9FED43
:10BDE0002A6ADFED2A6A01E0B0EE677AB4EEE67AFD
:10BDF000F1EE10FA77EE467AF6DC9FED257AF4EE56
:10BE0000C77AF1EE10FA35D5DFED1F6A9FED217A82
:10BE100001E0F0EE407AF4EEC77AF1EE10FA37EE78
:10BE2000A60AF6D4DFED167AB4EEE70AF1EE10FAC0
:10BE30001BDCDFED197AB4EEE70AF1EE10FA44BF2D
:10BE4000DFED137A37EEC00A60EE006A9FED136AE9
:10BE50009FED137ADFED137AA6EE867A20EE266A3E
:10BE6000E6EE877AA6EE270A7047DFED0F7A37EE07
:10BE7000C00AE9E7B0EE670AD4E7F0EE477ABCE71C
:10BE8000DB0FC93F00000000DB0FC940E4CB1641C7
:10BE9000DB0F49C0E4CB16C1DB0FC9BF92E741B944
:10BEA0009730083C15A82ABEDB0F494010B44C0956
:10BEB000012250F8243001F01F0102FA01F10B4376
:10BEC00040F824305DF8044B70474B0901F01F0126
