:020000040800F2
:10000000F0FF0010ADDE04087D3D03083D9E0208B0
:100010004DDF04084DDF04084DDF04080000000038
:10002000000000000000000000000000893D0308FF
:10003000853D030800000000813D03080D670208AC
:100040004DDF04084DDF04084DDF04084DDF0408D0
:100050004DDF04084DDF0408CDAC02080DAE0208E8
:10006000CDAD02088DAD02084DAD0208DD72040869
:10007000CD720408BD720408AD72040899720408B8
:1000800085720408717204084DDF04084DDF04080E
:100090004DDF04084DDF04084DDF04080DAD0208F4
:1000A0004DDF04084DDF04084DDF04084DDF040870
:1000B000CD5502080D5502084D5402084DDF0408C5
:1000C0004DDF04084DDF04084DDF04084DDF040850
:1000D0004DDF0408856802084DDF0408E96702085F
:1000E0008DAC02084DDF0408058803084DDF0408C5
:1000F0004DDF04084DDF04084DDF04085D7204087D
:100100004DDF04084DDF04084DDF04084DDF04080F
:100110004DDF04084DDF040835EF030821EF030825
:100120004972040835720408217204080D7204082B
:10013000F97104084DDF04084DDF04084DDF0408A1
:100140004DDF04084DDF04084DDF04087177030814
:10015000E5710408D1710408BD7104084D670208F7
:100160004DDF04084DDF04084DDF04084DDF0408AF
:100170004DDF04084DDF04084DDF04084DDF04089F
:080180004DDF04084DDF040807
:0801880054DA0400010000003C
:100190001C021000CC210020DC2100200000000007
:1001A00039C20208F6210C00B4210020EC21002005
:1001B00000000000E006000820320A00482200206B
:1001C0003C22002000000000A18B00081400030066
:1001D000881E00205422002000000000EC060008C9
:1001E0001010020080210020582200200000000092
:1001F000F006000828101000702100205C2200206A
:1002000000000000C50E010819000500682100204B
:100210006C22002000000000F2060008F821060011
:10022000602100207422002000000000F806000871
:1002300001200800881B00207C2200200000000014
:10024000FE0600080C109C00DC1A0020842200200E
:1002500000000000759003080A702800681A00204A
:1002600020230020000000006D0E01080EA06E018A
:10027000F818002048230020000000007D2C010811
:100280000101040058180020B824002000000000DC
:10029000000000000001040050180020BC240020D1
:1002A0000000000006070008020103004C180020AF
:1002B000C024002000000000F5900308090201009E
:1002C00000210020C4240020000000000A070008CC
:1002D00022021401B01E0020C824002000000000EB
:1002E00009C502080102050064180020DC25002071
:1002F000000000007D81000800020500F01B0020C6
:10030000E42500200000000000000000031233007C
:100310000432002040320020000000000C070008DA
:1003200025102C0124300020743200200000000031
:10033000000000001A000E00C42F0020A03300208F
:100340000000000040070008161006000C2F0020D7
:10035000B0330020000000004E07000815007000B8
:10036000B42C0020B8330020000000000000000082
:100370002A006000642F00202834002000000000C4
:10038000552C01082C0010009834002088340020DF
:1003900000000000E52901082B002400CC340020D7
:1003A000A834002000000000B529010829207800A9
:1003B000A42A0020F034002000000000000000000B
:1003C0001B020800903D0020445000200000000067
:1003D00063C202081E000600703B00204C50002043
:1003E00000000000540700081B100C001C390020FE
:1003F00054500020000000009DEE01082102F00092
:100400003437002060500020000000008DE2010819
:100410000E020200D84200205051002000000000CF
:100420005A0700082F1022002050002054510020AD
:10043000000000005C07000805100600EC3A0020F0
:1004400078510020000000007E070008F551880068
:10045000683600208051002000000000412A020878
:1004600026100C001452002008520020000000004A
:100470009DC701080B301800503600204C52002058
:1004800000000000840700081F30240028360020E8
:1004900064520020000000009C07000805020400D0
:1004A000CC3D00208852002000000000C00700085A
:1004B0001A023C00A8520020E4570020000000006F
:1004C00079C4020827000400A4520020205800200C
:1004D00000000000C40700081F021000F05D0020AB
:1004E000E05D00200000000029C3020803010A00AB
:1004F000747000200871002000000000C807000888
:10050000130204002C66002014710020000000007B
:10051000D207000802000C002888002078880020FC
:100520000000000000000000F7010600188800200D
:100530008488002000000000D60700080A020A0094
:10054000E48700208C880020000000001596030836
:10055000030001009C880020988800200000000013
:1005600000000000100201006C8900206889002052
:1005700000000000DC0700080D00340028BB00204C
:10058000A0BB002000000000C90A0408040080008D
:10059000B0B10020D4BB002000000000000000002B
:1005A000130004009CB1002054BC00200000000097
:1005B000E0070008FD01240078B1002058BC0020AD
:1005C00000000000A93D020818202E0044B10020C0
:1005D0007CBC0020000000000DC4020806101A00B8
:1005E000A49F0020ACBC002000000000DD2C01080E
:1005F000FB010100A09F0020C8BC002000000000FB
:10060000C9C50208FC0109006C9E0020CCBC00207A
:1006100000000000D9C5020834001000949D00209D
:10062000D8BC002000000000B12C01081102080015
:100630006C9D0020E8BC002000000000E4070008DA
:1006400012120400649D0020F0BC00200000000095
:10065000EC07000812201000549D0020F4BC00207C
:1006600000000000F0070008FF110600789200204B
:1006700004BD0020000000000DC3020808120F0096
:10068000849200200CBD0020000000009DC20208E2
:10069000F9010400749200201CBD0020000000003D
:1006A000213E020802020300C889002020BD00206C
:1006B00000000000000000000C02040084890020FB
:1006C00024BD002000000000F5C20208FE01140055
:1006D000E48B002028BD0020000000006FC202084B
:1006E0000000000001000000020200000300000002
:1006F00000050000280100000401F4011400E803D3
:100700006400040A0001BC010000130000000000A6
:1007100000000000000000000000000000000000D9
:1007200000000000000000000000000000000000C9
:1007300000000000000000000000000000000100B8
:100740007E05EA05B4053200E803D0070000C409BD
:10075000000019000000010000000000000000007F
:100760000000000000000000000000000000000089
:100770000000000000000000000000000000200059
:1007800003010000AE014A015E012C016401020078
:10079000000001000A019A01001E0A00000000008A
:1007A000000100000005000001020300000000003D
:1007B00000000000000000000000000000800700B2
:1007C0000000000020030000040101006C1600007E
:1007D00000000000013518000100000000000000CA
:1007E000080044300000000001010101FFFFFFFF8D
:1007F000000000010000054B4957320000080000CE
:10080000E0010100618200080000000090E404089B
:1008100020700020702D7200FFFFFFFF0801012DE6
:10082000202D2D202D2D2D2D202D2D2D00000000D3
:1008300000000000000000000000000000000000B8
:1008400000000000000000005CFB04080000000045
:1008500000000000E8FB040801000000FA000000AE
:100860000100000001000000010100000001010181
:1008700000000000BE1A002000C80100BD1A0020C0
:1008800000500100BC1A0020005A0100BA1A0020D2
:1008900002000000F4EA0408D83F0508E03F05081C
:1008A000B63800200100C40900000000B438002060
:1008B0000100C40900000000B23800200100C40992
:1008C00000000000B03800200100C4090000000052
:1008D000AC3800200100C40900000000AE38002040
:1008E0000100C40900000000AA3800200100C4096A
:1008F00000000000A83800200100C409000000002A
:10090000741800200100C8000100000072180020C7
:10091000320030753200000071180020055A0500C1
:100920006E18002000FF0100701800200100000078
:10093000200200206C180020020000003C05050881
:100940006D18002000FF01006F180020010000005A
:10095000200200206B180020020000003C05050862
:10096000941B0020EE02CA0801000000921B002028
:1009700000C8010064000000911B002000C80100B5
:1009800064000000901B00200200000000EB04083F
:100990005E18002080C1803E050000005C18002029
:1009A00080C1803E050000005618002080C1803EB6
:1009B000050000005418002080C1803E05000000A2
:1009C0004F18002000FF0100481800206400F401C7
:1009D0000100000047180020040000000CEB040890
:1009E000461800200200000020EB0408E91800204F
:1009F0000D0000002CEB0408E61800200064010044
:100A0000E4180020320010270A000000E31800203C
:100A10000D0000002CEB0408E21800200D0000007F
:100A20002CEB0408E11800200200000064EB04082D
:100A3000000000000000000070EB0408B870002007
:100A40009CFF2C0100000000D4200020E0150C17B2
:100A5000000000003E1C002002000000A8EB04087B
:100A6000A01B00200100FF7F010000009F1B002051
:100A700002000000B4EB0408EB18002003000000A3
:100A8000C4EB0408EA18002003000000C4EB0408CB
:100A90009C1A00200000E803010000009A1A0020C0
:100AA0000000E80301000000981A00200000E8039D
:100AB00001000000961A00200000E8030100000079
:100AC000941A00200000E80301000000921A0020A0
:100AD0000000E80301000000911A0020001401004A
:100AE000901A002003000000D4EB0408A81A00208C
:100AF0000000F40101000000A61A00200000F4012B
:100B000001000000A41A00200000F4010100000010
:100B1000A21A00200000F40101000000A01A002029
:100B20000000803E010000009E1A00200000803E70
:100B300001000000D11A002019640100D01A002021
:100B400002000000E4EB0408CE1A0020E803D007FE
:100B50000A000000CC1A0020006401000A00000016
:100B6000C11A002000640100C01A002000640100C6
:100B7000C81A0020006401000A000000C71A002003
:100B8000006401000A000000C61A00200064010091
:100B90000A000000CB1A0020006401000A000000D7
:100BA000CA1A0020006401000A000000C91A0020CF
:100BB000006401000A000000C51A002001FF0100C6
:100BC0000A000000C41A002001FF01000A00000012
:100BD000C31A002001FF01000A000000F4180020E1
:100BE0000000F40101000000F21800200000F401F0
:100BF00001000000F01800200000F40101000000D6
:100C0000EE1800200000F40101000000EC180020A4
:100C10000000F40101000000B91A00200064010086
:100C2000B81A002000640100B71A00200064010017
:100C3000B61A0020FF080100B51A00200164010067
:100C40007588000839880008F0EB0408B41A002001
:100C500000640100B21A00201400E8030100000043
:100C6000B01A0020E80330750A000000AE1A002018
:100C700000C80100AD1A002000C80100AC1A002015
:100C800000C80100AB1A0020006401000A00000047
:100C9000861B00200000D00701000000811B0020FF
:100CA00000C80100801B002000C801007F1B00203D
:100CB00000C80100841B00200000D00701000000D4
:100CC0007E1B002000C801007D1B002000C8010021
:100CD0007C1B002000C80100821B00200000D00700
:100CE000010000007B1B002000C801007A1B0020CF
:100CF00000C80100791B002000C8010000000000AE
:100D0000A985000860EC0408DF180020310000000D
:100D1000FCEC0408DE18002000C80100DC180020EC
:100D2000E803D007010000004B49574946345632CA
:100D3000000000006A18002000030100691800206C
:100D40000003010009850008E1840008C4ED0408DF
:100D50009D8400085184000818EE040831850008BD
:100D60007D96000898EE0408601800200103010039
:100D7000D1890008A58900088CF10408D5830008F2
:100D800089830008F0F10408BF850008C9AE000897
:100D90008CF204087DA300080000000034F304086E
:100DA000F9970008318A0008D0F30408118600087A
:100DB0000000000040F40408E98600089586000859
:100DC000A4F40408798700083D87000840F504086A
:100DD000B1880008F9880008C0F50408BF1A00208F
:100DE000010601005986000825860008BCF60408A3
:100DF000B5870008E19600082CF704082989000847
:100E0000659700080CF80408AA1A002001030100E5
:100E10007985000849850008E0F80408FD89000884
:100E20000000000044F90408218400084D960008E1
:100E3000A8F90408000000000000000034FA0408CB
:100E40007D890008DD970008B4FA040842180020E4
:100E500088136F17010000004418002088136F17D3
:100E600000000000026F00200000000000000000F1
:100E7000006F00200000000000000000FE6E002057
:100E80000000000000000000FC6E002000000000D8
:100E900000000000FA6E00200000000000000000CA
:100EA000F86E00200000000000000000900C002000
:100EB00000000000000000001818002002000000E0
:100EC0003CFC04084018002088136F170100000044
:100ED000F870002088136F170000000019830008C5
:100EE0000000000048FC04083F1C00200100000036
:100EF0009CFC0408FA70002001000000A8FC040813
:100F0000F070002002000000B0FC040800000000A7
:100F100000000000BCFC0408018300080000000081
:100F200058FD04080000000000000000ACFD0408AB
:100F300000000000000000001CFE0408F470002007
:100F4000E0150C1700000000D6010100FFFFFFFFB5
:100F50000000803F000000000000000000000000D2
:100F60000000803F000000000000000000000000C2
:100F70000000000000000000000000000000000071
:100F8000000000000000000001000000FFFFFFFF64
:100F9000FF00000001010000000001FFFF00000051
:100FA000FF1FFF1FFFFFFFFF205200200000000077
:100FB000445200200000000001FF0000FFFF01007C
:100FC000A00F0000B80B00000102FFFF01000000AD
:100FD0000000803F00000000000000000000000052
:100FE000C05A05080000080205030300C85A050896
:100FF00001000802050403001C5105080200FE015F
:10100000011003003443050803001402000300002C
:10101000D05A050804001F0201000800D85A05082C
:1010200005001F02010108001A0300000000000073
:1010300000000000000000000000000000000000B0
:101040000000000004030904120100020000004037
:10105000830420570002010203010000FFFFFFFF8D
:10106000B1C60208A5C50208A1C602084DC3020800
:101070004DC60208F5C5020849C30208500A0020FF
:10108000B15C03088D330308F1670308000000001A
:1010900000000000F564030811640308000000006C
:1010A0000000000000000000C52E0308D5C30208A0
:1010B000C9C3020809C7020825C7020881C302087C
:1010C000EDC60208D3C60208008002021F0000001D
:1010D00053544D202020202050726F6475742020BE
:1010E0002020202020202020302E3031040309042D
:1010F00012010002EF020140830456320002010295
:101100000301000012010002020200408304405764
:10111000000201020301000009022000010104C0D5
:10112000320904000002080650050705810240004C
:10113000000705010240000009026400030100C02D
:10114000320904000001030000000921110100011F
:101150002226000705830308000A080B0102020289
:101160000100090401000102020100052400100130
:1011700005240100020424020205240601020705D9
:1011800082030800FF09040200020A0000000705AC
:1011900001024000000705810240000009024300EF
:1011A000020100C03209040000010202010005240E
:1011B0000010010524010001042402020524060098
:1011C00001070582030800FF09040100020A00006C
:1011D00000070501024000000705810240000000F1
:1011E000FF000000BC2C050800000000000000000B
:1011F00000000000000000000000000000000000EF
:1012000000000000000000000000000000FFFF00E0
:1012100000000000902C0508000000000000000005
:1012200000000000000000000000000000000000BE
:10123000000000000000000000000000AA550501A9
:101240000000000005010905A101A1000501093008
:101250000931093209330935093409400938158142
:10126000257F750895088102C0C000000902220090
:10127000010100E03209040000010301020009211C
:10128000110100012226000705830308000A00005F
:10129000000000000102030401020304060708091C
:1012A0005567030859660308B16A0308892F0308C4
:1012B00001350308992F0308B52F0308612F030890
:1012C000512F030800000000000000002D202D2DEC
:1012D000202D2D2D2D202D2D2D2D00000000000066
:1012E0000000000000000000000000AA550B0100F3
:1012F00000AA5507010000AA550902000000AA55DE
:1013000003009F0001000000C01200000000803FA9
:101310000000000000000000000000000000803F0E
:1013200000000000688800200800000000000000A5
:101330005888002008000000A0390508B89D05085D
:10134000C49D0508D09D0508DC9D0508E89D05089D
:10135000404E050868790508987805086C9D0508D1
:10136000B85C0508A89D0508AC9D0508B09D05085A
:10137000B49D0508F49D0508F89D0508FC9D050829
:1013800000770508009E05081900C800F401200335
:10139000E5340308D13303088D6A03080000000018
:1013A0004D2F03084566030821330308BD65030874
:1013B0000000000000000000092F0308992D030819
:1013C0008D2D0308C15B0308DD5B0308A55B0308E3
:1013D000895B03086D5B03089D340308AD33030884
:1013E000CD69030800000000212F0308C165030830
:1013F000F53203081D65030800000000000000002E
:10140000152F0308FF01FF00000004010000000089
:1014100000000002100000000700000000000000B3
:10142000000000000102030406070809080000008C
:10143000892D0308852D0308812D0308752D0308C8
:10144000712D03087D2D0308792D0308093B03083E
:10145000893903083D3B03083554030849710308E3
:10146000AD540308B12E03089D2E0308952E0308E2
:10147000859203080000000000000000000000004A
:101480000100000000600240106002400000000007
:1014900000000000000B0000000000000000000041
:1014A00000000000006002402860024001000000CF
:1014B00000000000060C000000000000000000001A
:1014C0000000000000600240406002400200000096
:1014D00000000000100D00000000000000000000EF
:1014E000000000000060024058600240030000005D
:1014F00000000000160E00000000000000000000C8
:101500000000000000600240706002400400000023
:1015100000000000200F000000000000000000009C
:1015200000000000006002408860024005000000EA
:101530000000000026100000000000000000000075
:101540000000000000600240A060024006000000B1
:10155000000000003011000000000000000000004A
:101560000000000000600240B86002400700000078
:1015700000000000362F0000000000000000000006
:1015800000000000006402401064024000000000FF
:101590000000000000380000000000000000000013
:1015A00000000000006402402864024001000000C6
:1015B00000000000063900000000000000000000EC
:1015C000000000000064024040640240020000008D
:1015D00000000000103A00000000000000000000C1
:1015E0000000000000640240586402400300000054
:1015F00000000000163B000000000000000000009A
:10160000000000000064024070640240040000001A
:1016100000000000203C000000000000000000006E
:1016200000000000006402408864024005000000E1
:101630000000000026440000000000000000000040
:101640000000000000640240A064024006000000A8
:101650000000000030450000000000000000000015
:101660000000000000640240B8640240070000006F
:1016700000000000364600000000000000000000EE
:1016800000000000589A05080457050800000000F3
:1016900009910308A086010004000000000000007A
:1016A000000000000000000000000000000000003A
:1016B000000000000000000000000000000000002A
:1016C00000000000589A0508209E05080000000050
:1016D000313E0208E80300000400000000000000A2
:1016E00000000000000000000000000000000000FA
:1016F00000000000000000000000000000000000EA
:1017000000000000084605087C770508000000007E
:10171000B5A403087D0000000600000000000000E2
:1017200000000000000000000000000000000000B9
:1017300000000000000000000000000000000000A9
:101740000000000000000000000000000000000099
:101750000000000000000000000000000000000089
:101760000000000000000000000000000000000079
:101770000000000000000000000000000000000069
:101780000000000000000000000000000000000059
:101790000000000000000000000000000000000049
:1017A0000000000000000000000000000000000039
:1017B0000000000000000000000000000000000029
:1017C00000000000CC5A0508000000009D2601081A
:1017D000A19E02085F7600000500000000000000E6
:1017E00000000000000000000000000000000000F9
:1017F00000000000000000000000000000000000E9
:1018000000000000245B050800000000000000004C
:1018100021B20208102700000100000000000000B3
:1018200000000000000000000000000000000000B8
:1018300000000000000000000000000000000000A8
:1018400000000000289E05080000000000000000C5
:10185000493C0208E8030000050000000000000009
:101860000000000000000000000000000000000078
:101870000000000000000000000000000000000068
:1018800000000000349E0508000000000000000079
:101890003DF40308204E000003000000000000009B
:1018A0000000000000000000000000000000000038
:1018B0000000000000000000000000000000000028
:1018C00000000000449E0508000000000000000029
:1018D00029F20308204E0000030000000000000071
:1018E00000000000000000000000000000000000F8
:1018F00000000000000000000000000000000000E8
:1019000000000000549E05080000000000000000D8
:10191000B94A0208400D0300030000000000000067
:1019200000000000000000000000000000000000B7
:1019300000000000000000000000000000000000A7
:1019400000000000189B05080000000000000000D7
:101950000923040810270000010000000000000017
:101960000000000000000000000000000000000077
:101970000000000000000000000000000000000067
:10198000000000002C5705080000000000000000C7
:10199000F1F901081027000003000000000000001A
:1019A0000000000000000000000000000000000037
:1019B0000000000000000000000000000000000027
:1019C00000000000204205080000000000000000A8
:1019D000293B0208A861000001000000000000008F
:1019E00000000000000000000000000000000000F7
:1019F00000000000000000000000000000000000E7
:101A0000000000002C5B0508000000000000000042
:101A1000D5690208A00F00000100000000000000CE
:101A200000000000000000000000000000000000B6
:101A300000000000000000000000000000000000A6
:101A400000000000649E0508000000000000000087
:101A5000352B0208102700000100000000000000E4
:101A60000000000000000000000000000000000076
:101A70000000000000000000000000000000000066
:101A800000000000404D05080000000000000000BC
:101A90002D2002081A410000010000000000000093
:101AA0000000000000000000000000000000000036
:101AB0000000000000000000000000000000000026
:101AC00000000000E04105080000000000000000E8
:101AD00091C4010810270000010000000000000070
:101AE00000000000000000000000000000000000F6
:101AF00000000000000000000000000000000000E6
:101B00000000000018570508000000000000000059
:101B10004DB500081A41000001000000000000005F
:101B200000000000000000000000000000000000B5
:101B300000000000000000000000000000000000A5
:101B400000000000709E050800000000000000007A
:101B5000A1D10108400D03000000000000000000BA
:101B60000000000000000000000000000000000075
:101B70000000000000000000000000000000000065
:101B800000000000789E0508000000000000000032
:101B9000870A0408400D0300000000000000000058
:101BA0000000000000000000000000000000000035
:101BB0000000000000000000000000000000000025
:101BC00000000000809E05080000000000000000EA
:101BD000E935020850C300000300000000000000C7
:101BE00000000000000000000000000000000000F5
:101BF00000000000000000000000000000000000E5
:101C0000000000008C9E050800000000000000009D
:101C10009DF1030840420F0000000000000000009A
:101C200000000000000000000000000000000000B4
:101C300000000000000000000000000000000000A4
:101C400000000000989E0508000000000000000051
:101C5000FD1D040850C3000000000000000000004B
:101C60000000000000000000000000000000000074
:101C70000000000000000000000000000000000064
:081C8000000000000000803F9D
:108000000020704700207047F0B4067ABEB1427A73
:108010000C4C002120276AB10023142B07DC072910
:1080200004EB030003DCC578202D18BFC7700133B3
:108030009342F2D101318E4204F11504EBD10020BC
:10804000F0BC70472839002070B402EB42000C4CA1
:10805000C0EBC000013B04440BE0142907D8072AF9
:1080600004EB010503D8EE78864218BFE8700131B1
:10807000C9B213F8010F0028EFD170BC704700BFE0
:108080002839002014290CD8072A0AD802EB42020A
:108090000548C2EBC20202441144CA789A4218BF92
:1080A000CB700020704700BF28390020027A407A48
:1080B00002FB00F0704700BF027A407A02FB00F03A
:1080C000704700BF00207047002070474FF0FF301E
:1080D000704700BF4FF0FF30704700BF034B93F86D
:1080E0002921027293F82A314372704728410020F7
:1080F0000020704701207047012070470020704722
:10810000027A407A02FB00F0704700BF00207047FF
:108110000123C373184670470123C3731846704781
:108120004FF0FF30704700BF704700BF002070471E
:108130000120704700207047027A407A02FB00F06D
:10814000704700BF00207047002070470020704734
:108150001E2000FB0212024900208B54704700BF12
:1081600010160020014B1888704700BF88010020BE
:10817000014B002018607047E442002000230222D7
:108180000271037043708370C3707047037913F0FA
:10819000020308D00369D0E90920013B101A1840F6
:1081A000C0B2181A7047184670470171704770477F
:1081B00003799B070AD5436A8269D154436A0169EE
:1081C0000133B3FBF1F201FB1233436270470379D1
:1081D00013F0010306D0D0E90732C0689B1A0138BA
:1081E000184070471846704710B5037913F0010323
:1081F00001460ED0FFF7EBFF50B10B6A4A69CC681D
:10820000D05C0133B3FBF4F204FB1233C0B20B6257
:1082100010BD1846FCE790F84B3830B53BB990F8E4
:10822000491890F84A380124DAB2914200D830BD9A
:10823000B0F8525804FA03F22A43A0F85228013346
:10824000F2E7D0E90920131A584258417047034B0E
:108250009A780AB901229A7000207047880100209C
:10826000174B184A93F8081231B31749097801BB24
:108270001649D160164A17491268C3F80C121179D1
:1082800083F81012D168C3F814121349C3F81812F6
:10829000517983F81C121169C3F820120F49C3F8F1
:1082A00024129179D26983F82812C3F82C22002075
:1082B00070470B49D160DDE70A49D160DAE700BFBA
:1082C0001016002088010020FA70002094E30408B2
:1082D00070700020F2700020F3700020F670002013
:1082E00020E4040890E40408034BB3F83022034B65
:1082F0004FF0FF301A80704710160020F8700020F1
:10830000034B1A88034B0020A3F83022704700BFAC
:10831000F870002010160020074B93F90030012B55
:1083200006D0064BB3F83422A3F83222002070475F
:108330004FF0FF30704700BF940B00201016002054
:1083400008B5064B1A782AB1054A1278012A1CBFD3
:1083500000221A70FFF784FF002008BDFA70002089
:10836000F0700020064B93F90020064B12B91A70EA
:10837000002070471A78002AFAD10122F7E700BFDF
:10838000940B0020F6700020104B114A93F836121F
:10839000517293F837129172B3F83812118093F832
:1083A0003F2283F83C22B3F84422A3F84022B3F8DA
:1083B0004622A3F84222B3F84C22A3F84822B3F88D
:1083C0004E22A3F84A220020704700BF101600205A
:1083D00050360020104A114B517A83F83612917AA8
:1083E0001288A3F8382293F83C2283F83F22B3F88E
:1083F0004022A3F84422B3F84222A3F84622B3F85D
:108400004822A3F84C22B3F84A2283F83712A3F883
:108410004E220020704700BF50360020101600206A
:10842000094A0A4B92F8842083F8502293F8562286
:1084300083F8512293F8572283F8592293F858224F
:1084400083F85A220020704768360020101600205A
:10845000104A114892F85B3292F85D1203F00F0354
:1084600043EA012392F85F120901C9B20B43A0F855
:108470006C3092F85E1292F85C3292F8602203F04F
:108480000F03120143EA0123D2B21343A0F86E3066
:108490000020704710160020683600200E490F4B50
:1084A000B1F86C2002F00F0083F85B02C2F30310F6
:1084B000120A83F85D22B1F86E2083F85F0202F0A1
:1084C0000F0183F85C12C2F30311120A83F86012E1
:1084D00083F85E22002070476836002010160020C6
:1084E000074A084B92F8611283F86A10B2F86212D8
:1084F000B2F86422A3F86610A3F868200020704741
:108500001016002068360020074A084B92F86A10BF
:1085100083F86112B2F86610B2F86820A3F862120C
:10852000A3F864220020704768360020101600204F
:1085300008B566220249034845F086FD002008BDC3
:108540006836002076180020084A0949B2F8CC3273
:108550004B8292F8CE3292F8CF2203EB83035B007A
:108560000B82044B00209A70704700BF1016002049
:10857000A49F0020549D0020084A094B518AA3F86B
:10858000CC12128A0A21B2FBF1F283F8CE22054AFC
:10859000927883F8CF220020704700BFA49F00206C
:1085A00010160020549D002030B1007910F1FF30EA
:1085B00018BF4FF0FF3070474FF0FF307047114A3F
:1085C000114B528802F0010283F8D0220F4AD17871
:1085D00083F8D112117983F8D212517983F8D3122A
:1085E000D188A3F8D412117A83F8D612517A83F87D
:1085F000D7121178927A83F8D81283F8D922002002
:10860000704700BF9CB10020101600201C390020CC
:10861000034B002083F8DA0283F8DB02704700BFC7
:10862000101600200A4B0B4A1B68B2F8DC12598066
:10863000B2F8DE12A3F84C10B2F8E0129980B2F84A
:10864000E212B2F8E422D9801A800020704700BFFD
:10865000D43A0020101600200D4B93F8E6227A2120
:1086600001FB02320020B2F8EA12A3F8DC12B2F8E1
:108670003413A3F8DE12B2F8EC12A3F8E012B2F849
:10868000EE12B2F8E822A3F8E212A3F8E42270474F
:1086900010160020124B93F8802483F8782493F866
:1086A000812483F87924B3F88224A3F87A24B3F8D8
:1086B0008424A3F87C240B4AB3F886141268A3F828
:1086C0007414B3F88814A3F87614B3F88A14B3F8C2
:1086D0008C34A2F86210A2F864300020704700BF0A
:1086E00010160020D43A0020134B93F8782483F816
:1086F000802493F8792483F88124B3F87A24B3F89A
:108700007414A3F88224B3F87C24A3F88424A3F877
:10871000861493F8E622B3F87614A3F888147A2125
:1087200001FB02320020B2F84A13B2F84C23A3F83E
:108730008A14A3F88C247047101600200D4BB3F850
:108740008E24A3F85E24B3F89024A3F86024B3F831
:108750009224A3F86224B3F89424A3F86424B3F811
:108760009624A3F86624B3F89824A3F8682400207C
:10877000704700BF101600200D4BB3F85E24A3F81D
:108780008E24B3F86024A3F89024B3F86224A3F8ED
:108790009224B3F86424A3F89424B3F86624A3F8CD
:1087A0009624B3F86824A3F898240020704700BFEB
:1087B000101600201E4B1F4993F89A2430324A7439
:1087C00093F8E6227A2101FB0232002092F82F135F
:1087D00083F89B1492F8021383F89C1492F8031305
:1087E00083F89D1492F8041383F89E14B2F81C13B6
:1087F000A3F8A014B2F81A13A3F8A21492F837132E
:1088000083F8A41492F85B1383F8A51492F85C1310
:1088100083F8A61492F8561383F8A71492F8571306
:1088200092F8582383F8A81483F8A924704700BF4E
:1088300010160020880100200D4A92F8E6327A21B5
:1088400001FB032392F8AA1483F84E1392F8AB1499
:1088500083F8521392F8AC1483F84F1392F8AD14C6
:1088600092F8AE2483F8501383F851230020704708
:10887000101600200D4B93F8E6227A2101FB0232FC
:10888000002092F84E1383F8AA1492F8521383F83A
:10889000AB1492F84F1383F8AC1492F8501392F87B
:1088A000512383F8AD1483F8AE24704710160020CE
:1088B0000F4B104993F89A2430320A7593F8AF247D
:1088C00030328A7593F868251A2101FB023202F2D0
:1088D000CC4103F5966302F2E44251F8040B43F8ED
:1088E000040B9142F9D10A881A800020704700BF1A
:1088F00010160020880100200A4A92F868351A21D3
:1089000001FB032303F2CC4302F5966102F5996261
:1089100051F8040B43F8040B9142F9D10A881A80EC
:10892000002070471016002010B5124A124992F824
:108930009A3492F8E60230334B7402F53A717A2396
:1089400000FB031302F26951002002F272521C7AFA
:108950000C705C7A4C709C7A8C709C8922F8104068
:108960000130032803F1060301F10301EFD10020D8
:1089700010BD00BF10160020880100200749084BD9
:108980000A7883F8E622013283F89A244A7883F839
:108990006825013283F8AF2400207047549D0020E1
:1089A00010160020094B93F8802583F87F2593F853
:1089B000812583F87C2593F8822583F87D25B3F8FB
:1089C0008425A3F878250020704700BF10160020EA
:1089D000094B93F87F2583F8802593F87C2583F84D
:1089E000812593F87D2583F88225B3F87825A3F8AF
:1089F00084250020704700BF101600200A4930B5BA
:108A00000A4C002201F28650135DA3F16105052D89
:108A10009CBF203BDBB283540132072AF4D10020F3
:108A200081F88D0530BD00BF1016002010390508F3
:108A3000084B93F88E25012A074A06D893F88F151C
:108A4000881E012888BF03219170B3F890351380E8
:108A50000020704710160020EC3A002010B50446A4
:108A600023790E2B00D110BD032B04D1D4F809308B
:108A70009868FFF7F3FF0E34F2E70B49D1F894350D
:108A80009A68134618790E280CD19B1A5A10074B76
:108A90005343013B91F89D2593FBF2F3013381F899
:108AA0009C3570470E33EDE710160020B76DDBB62E
:108AB000084BD3F8A00510B558B1074CA169013196
:108AC00091FBF0F200FB121003EB8003A061D3F8DE
:108AD000A40510BD10160020880100200C4BD3F80F
:108AE000B425824210DA0B4A9278022A0AD0032A6D
:108AF0000CD1D3F8B8351B6923B19842B4BF01201B
:108B00000220704701207047002070470220704704
:108B100010160020EC3A0020054B30B11A6918609D
:108B200001321A6105221A75704704221A757047BE
:108B3000F43A0020194BB3F8C425D3F8BC05D3F898
:108B4000C01510B40132B3F9C64592B201300131FB
:108B5000A242C3F8BC05C3F8C015A3F8C4250FDAB8
:108B6000B3F8CA25B3F9CC155DF8044B013292B2C3
:108B70008A42A3F8CA25A4BF0022A3F8CA257047D9
:108B8000B3F8C8255DF8044B00210132A3F8C825CD
:108B9000A3F8C415A3F8CA15704700BF101600202B
:108BA00010B44FF4FA7346F203444FF4C8419622CE
:108BB0000480818002814380C3805DF8044B70474C
:108BC0002DE9F041144D95F82A4184421AD9064600
:108BD00010468846174644F0E1FCA31B834204FB81
:108BE0000864A8BF03462C441A46204639461E4650
:108BF00045F054FB4544002814BF0123002385F8A9
:108C0000203101D1BDE8F081324639462046BDE829
:108C1000F04145F019BA00BF28410020074890F8FC
:108C20002901904207D908B5084611461A46FFF7B0
:108C3000C7FF002008BD0020704700BF284100206A
:108C400030B583B014460D461A4601A8074925F0F1
:108C50009FFB074B93F82931A34204D901AA21466F
:108C60002846FFF7ADFF002003B030BD5839050896
:108C70002841002010B5044B044C1A8804492046B2
:108C800025F086FB204610BDF8700020DE1B00207A
:108C90002B6C050810B5054B0549B3F8342203F2D7
:108CA000D354204625F074FB204610BD101600203A
:108CB0002B6C050838B50C4B0C4C4FF490721846D1
:108CC000202145F013FB0A4A0346126800200125C3
:108CD0002D32C3F82001C3F8240183F8280183F85A
:108CE0002B51C4F8D82538BD28410020101600208B
:108CF000908B00200022C273DCE700BF082A07D84F
:108D000008B5084611461A4618F06CFC002008BD4C
:108D100000207047F8B507460026F5B20024E0B2FF
:108D200020222946013418F05DFC0C2CF7D10136C5
:108D3000092EF2D11B4D422201200021441C18F0C3
:108D400051FC15F8012FE4B22046002AF5D197F91D
:108D50000F302BBB144D14464D22E0B2022118F007
:108D600041FC15F8012F0134002AF6D10F4D2B22BA
:108D700002200321441C18F035FC15F8012FE4B241
:108D80002046002AF5D10A4D2B2202200421441C42
:108D900018F028FC15F8012FE4B22046002AF5D17E
:108DA0000020F8BD843905087439050868390508BC
:108DB0005C39050810B50024C473FFF7ABFF2046EB
:108DC00010BD00BFF8B5084617465E1E16F8015FD5
:108DD000421CD4B239462A462DB1082F01D818F0CA
:108DE00001FC2046F2E72846F8BD00BF70B50B4CE9
:108DF0004FF0FF3504F525762368DC34184643B17F
:108E000093F83430142B04D01DF0D8FD854228BFD0
:108E10000546A642F0D1284670BD00BFB09A00209A
:108E200038B51B4B9B78022B18D0032B194C10D054
:108E30000020D4F8B43594F8DC251344B3F5807FD2
:108E4000A8BF4FF480738342A8BF0346C4F8B4356B
:108E500038BDD4F8B8051DF0B1FDEAE700200E4991
:108E6000034641F2260503F5817201EB021205EB80
:108E70000314D279D20703F1010304D40A5D012A55
:108E800098BF00F50070082BEDD1024CD1E700BF70
:108E9000EC3A0020101600203CBD002010B50B4B12
:108EA0000B4993F8E12593F8E035097882B00D324B
:108EB0001E330424027243728DF8044021B901214B
:108EC0000DEB040041F0F4FA02B010BD10160020C2
:108ED000DB390020F0B518468BB01C460E4617460D
:108EE00044F05CFB1E2828BF1E20032321460246B7
:108EF0000546002402A88DF804308DF805708DF821
:108F000006608DF8074045F09FF8064B1B7813B1BB
:108F100020460BB0F0BD291D01A841F0C9FA0BB0E5
:108F2000F0BD00BFDB39002010B582B000248DF801
:108F3000043001AB8DF80540FFF7CCFF02B010BD47
:108F400000B5094B83B01B7804228DF804201BB1B7
:108F5000002003B05DF804FB01210DEB020041F09D
:108F6000A7FA03B05DF804FBDB39002000B5094B1C
:108F700083B01B7802228DF804201BB1002003B0BF
:108F80005DF804FB012101A841F092FA03B05DF8FD
:108F900004FB00BFDB39002000B5084B83B01B7811
:108FA00001218DF804101BB1002003B05DF804FB13
:108FB00001A841F07DFA03B05DF804FBDB39002025
:108FC00000B5074B83B01B7800208DF804001BB957
:108FD000012101A841F06CFA03B05DF804FB00BF69
:108FE000DB390020ECE700BF70B50F4C94F8E56565
:108FF000054646B9012384F8E5353DF035FB29F0F7
:10900000DBFA84F8E565094B94F855121A7F94F859
:10901000543212F0400F14BF10220D220A441E33A6
:109020002A726B7270BD00BF1016002088010020EC
:109030003DF06EBC08B5084611461A463DF08CFC62
:10904000002008BD08B5064B93F8E52512B993F842
:10905000E6350BB1002008BD29F047F8002008BD17
:109060001016002010B5094C94F856023DF0F8FC9B
:1090700094F8581294F857023DF08CFC20464FF4B7
:10908000F072202145F032F9002010BD10160020AA
:1090900010B50C4658B120F08BFC18B10323837136
:1090A0000023C3712146BDE8104020F0FDBD10BD76
:1090B00010B5044601210079FFF7EAFF62792068C4
:1090C0009108838902228A4023EA0203838110BD2A
:1090D00010B5044622210079FFF7DAFF6379226890
:1090E000990802238B409BB2D94389B2118291899E
:1090F0000B43938110BD38B5A0F664040022206CA8
:10910000344D03685A62A1F12903302B31D895F808
:10911000E7350133DBB2012B85F8E7350BD995F83C
:10912000E83585F8E725B4F8522801335208A4F849
:10913000522885F8E83595F8E8250023082AA4F890
:10914000543815D185F8E835B5F8EA3501339BB2C6
:10915000032BA5F8EA3508D92379DB0705D5E36A9F
:1091600094F8520853B3216B98470023A4F852385F
:1091700038BD5B396C290ED8B4F8523885F8E7252C
:109180005B0843F08003A4F8523895F8E8350133C2
:1091900085F8E835CFE794F84D38002BCBD1012185
:1091A00085F8E735A5F8EA35802384F84D18A4F84A
:1091B000523885F8E81540F0E1FFBCE7E3696269E1
:1091C000D054E369E1680133B3FBF1F201FB1233E0
:1091D000E361CAE71016002038B5A0F664042379CD
:1091E0006579DB0722D594F8483803B3D4F84434C2
:1091F0001A68D36A5B08536294F84C3823B1B4F808
:1092000056380133A4F85638E94301F00101206CC7
:1092100040F0B4FF012384F84B38002384F8493828
:1092200084F84A38A4F8523884F8483838BD94F89D
:109230004B38012B04BF94F8493884F84A3820464B
:10924000FEF7E9FF94F84B384BB90123E94384F862
:109250004B381940206CBDE8384040F08FBF0023E8
:1092600084F84B3805F00101206CBDE8384040F02F
:1092700085BF73B590F85B38032B05460C462FD19C
:109280000023204E8DF807309DF8073095F85C28B4
:109290009A4201D802B070BD9DF8073006EBC303B7
:1092A00093F8F0358BB184F0010383B19DF807305A
:1092B00006EBC303D3F8EC0520F098FD9DF80730CA
:1092C0000133DBB28DF80730DEE72346EDE79DF88A
:1092D000073006EBC303D3F8EC0520F081FDEDE782
:1092E000036CC06BDB79DB0748BF81F0010424B15C
:1092F00002B0BDE8704020F079BD02B0BDE870401A
:1093000020F06EBD1016002070B5A0F5066494F82C
:109310004D3893B1B4F8543801339BB2082BA4F8FC
:1093200054381CD9002184F84D18A4F85418206C26
:1093300040F024FF94F84D388BB93E4E96F82C3609
:109340001BB901212046FFF794FF94F84C3853BB1A
:10935000D4E909239A4203D1002386F82C3670BD44
:1093600096F82C26022A12D802F1010214BFFF231C
:109370007F2386F82C26A4F85038082384F84E382A
:10938000012384F84C38206CBDE8704090E65A1CEC
:10939000A169A262CB5C21698A4228BF0022DBB2AC
:1093A00028BFA262E7E794F94E38C3B394F8501887
:1093B00096F82D5611F0010123D0012D03D801217B
:1093C0002046FFF756FFAB1E012B03D80021204695
:1093D000FFF74FFF0135EDB2032D86F82D56BED9AC
:1093E000B4F850385B08A4F8503894F84E38013B74
:1093F0005BB2002284F84E3886F82D26002BA7D0C9
:10940000ADE715F0FD0304D101212046FFF731FF40
:10941000E0E7012BDED12046FFF72BFFDAE7D4E9A6
:10942000091291429BD184F84C38206CBDE8704001
:109430004EE600BF1016002010B5A0F5066494F8A3
:109440004D381BBB94F84C288ABBD4E909139942C8
:109450001CD0591CA069A162C35C2069DBB25B000F
:1094600043F40073A4F850380A2384F84E380123DB
:1094700084F84C3894F85B38814228BFA262012BF3
:1094800001D0042B02D1206CFFF712FE94F848386B
:10949000002B6FD194F849380133DBB2092B84F8E3
:1094A000493827D12046BDE81040FEF7B4BE94F9F4
:1094B0004E387BB1B4F850184B08A4F8503801F07E
:1094C00001012046FFF7D5FE94F84E38013B84F8A1
:1094D0004E38DBE784F84C38D4E909239A42D5D1D9
:1094E00094F85B38012B01D0042BCFD1206CFFF70F
:1094F000EFFDCBE70A2B3DD194F84B382BB9B4F8EC
:10950000523843F00103A4F852382379D9070AD519
:10951000B4F85208820501D4C30718D4B4F85838F7
:109520000133A4F85838012284F8482894F84B28CD
:109530000023012A84F849381CD1617984F84B381A
:10954000206C01F00101BDE8104040F017BEE36A55
:10955000C0F3470013B1216B9847E4E7E369626900
:10956000D054E369E1680133B3FBF1F201FB12333C
:10957000E361D8E710BD08B5074B93F82E1621B963
:10958000012283F82E26002008BD4B1E5942594166
:1095900049202EF0CFFCF6E71016002008B5044B4A
:1095A000B3F8320240F400402EF004FF002008BD62
:1095B0001016002008B50C4B93F90030012B0B4B13
:1095C00004D1002283F82F26002008BD93F82F062F
:1095D00018B9012283F82F26F6E7012818BF0220C8
:1095E0002EF094FEF0E700BF940B00201016002030
:1095F00070B5124C124B94F900401A78012C0546B4
:109600000E4605D1012A01D001221A70002070BD3A
:10961000012A03D100202EF079FEF7E7022AF3D1C8
:10962000084B002483F82F46FFF7C4FF064B314652
:1096300028461C70FEF784FEE8E700BF940B00206C
:10964000F070002010160020FA70002010B50A4CAF
:1096500094F85002032801D819F0D2F994F8513245
:1096600084F8563294F8593284F8573294F85A32C2
:1096700084F85832002010BD1016002008B566226C
:109680000349044844F0E0FC18F07EFC002008BDCB
:10969000761800206836002008B5064B93F8DB02E8
:1096A00028B1054B01385978C0B235F04DFC002087
:1096B00008BD00BF10160020549D002008B5064BC1
:1096C00093F8DA0228B1054B01381978C0B20CF0D2
:1096D000B3FB002008BD00BF10160020549D0020E1
:1096E00038B51E4D95F8E6427A2303FB045495F8ED
:1096F0009B3484F82F331A4B18680CF0B9FB95F89B
:109700009C3484F8023395F89D3484F8033395F83B
:109710009E3484F80433B5F8A034A4F81C33B5F8AB
:10972000A234A4F81A3395F8A43484F8373395F8A2
:10973000A53484F85B3395F8A63484F85C3395F847
:10974000A73484F8563395F8A83484F8573395F83D
:10975000A93484F85833002038BD00BF101600200B
:10976000D43A002038B50D4B0D4A18680021034645
:1097700002F1090514781C7254785C7294789C721A
:1097800035F811409C810131032902F1030203F1F4
:109790000603EFD10CF06CFB002038BDD43A00205A
:1097A000791B002008B5054B93F8AF040138C0B20F
:1097B00083F8680535F0F0FB002008BD1016002086
:1097C00008B5054B93F89A040138C0B283F8E60255
:1097D0001BF054F9002008BD1016002010B5054CF0
:1097E00094F8E6021BF04AF994F8680535F0D4FBCA
:1097F000002010BD10160020F8B52E4DAB78022BBE
:109800004FD12BF0DFFD0446D8B92B492B482C4E05
:1098100024F0BEFD22462B4F2B49334607F5C76087
:1098200024F0B6FD33462246274907F5C86024F0E8
:10983000AFFDAB7887F88F352B88A7F890350020DF
:10984000F8BD2BF0AFFD044630B920491B481C4E33
:1098500024F09EFD2246DEE71D4C6378022B16D0D5
:10986000032B1CD11B491548154E24F091FD41F2E4
:109870007813E4584FF47A23B4FBF3F42BF08CFD07
:109880004FF4FA630268B2FBF3F2121BC3E712490A
:109890000A480B4E002424F07BFD2246BBE70B490F
:1098A000F6E70E4905480E4E002424F071FD2246CD
:1098B000B1E700BFEC3A00201D390508401C00202C
:1098C0001A3905081016002036390508253905080B
:1098D0003CBD00202B39050831390508FA5205082E
:1098E0003E5205082DE9F0411E4600238B550746E0
:1098F00008460C46904643F051FE751E301A21185A
:10990000254440426A1A002AA5EB040312DA2344D4
:1099100020211A1B002A11DA0023A355094B93F8C2
:109920004816891B234642463846C9B2BDE8F04175
:1099300021F0EABA2B5C05F80139E3E703F80119D5
:10994000E7E700BF1016002070B41B4A92F99C454F
:1099500092F89D55214491FBF4F304FB1311D2F8C6
:10996000944582F89815CBB2A1686B430E2404FB92
:109970000313C2F84C3602F24F6419460E790E2ECC
:1099800012D1002182F860161E790E2ECCB201F1A0
:1099900001010ED1AC42234628BF2B46013B82F881
:1099A000603670BC21F0D4BA4E7B04F8016F0E31E2
:1099B000E4E70E33E8E700BF1016002038B5164B79
:1099C000D3F89425526805461C46BAB994F8610646
:1099D00098B10138C0B284F8610604EBC00000F20F
:1099E000646003C80D4B83E80300FFF746F8284680
:1099F00094F99815FFF7A8FF002038BD93F9990551
:109A0000D3F84C36C0EBC00003EB40009047002871
:109A1000DCDA4FF0FF30F0E710160020A41B002026
:109A200038B505460C4641B31D4BD3F894258A4200
:109A300025D093F86126082A1FD8511C83F8611697
:109A400003F2945103C903EBC20202F2646282E89A
:109A500003000022C3F8944583F89925236833B1A5
:109A60009847013003D12846BDE83840A6E7FFF704
:109A700004F800212846FFF767FF002038BD93F95E
:109A8000991593F89D2591FBF2F402FB141283F8CB
:109A90009925FEF7F2FF21462846FFF755FFECE730
:109AA0001016002010B9074A1075704710B5054C04
:109AB000606042F0A3FE4FF6FF720223A28123757D
:109AC00010BD00BFF43A00200B4B9B78022B08D04E
:109AD000032B04D1094BD3F8B8051CF067BF002055
:109AE0007047074A41F29C03D358002B01DD2AF04E
:109AF00079B90120704700BFEC3A00201016002011
:109B00003CBD00200FB400B583B004AB054953F849
:109B1000042B0193002023F0ADF803B05DF804EBB3
:109B200004B07047EDBF00082DE9F84F414FDFF852
:109B30002881D7F8B466344606F1440B44F8040B88
:109B400006F11009454608F1400A95ED006AD5ED89
:109B5000016A95ED027AD5ED037ABAEC010ABDEE01
:109B6000C66AFDEEE66ABDEEC77AFDEEE77AA4ECC2
:109B7000016AC4ED026A84ED057AC4ED087A44F006
:109B8000E1FA4C4505F114052BF8020BDDD12A4D05
:109B900006F1340406F13C09B5EC010A44F0D2FAAE
:109BA00024F8020B4C45F7D1244D06F14209B5ECDF
:109BB000010A44F0C7FA24F8020B4C45F7D1DFED57
:109BC000207A98ED160A20EE270A44F0BBFA1D4BC6
:109BD0001D4AA6F8420011781A885888A6F8502025
:109BE0009A88DB88A6F85200A6F85420A6F85630CA
:109BF00071B106F15803154A03EB4101F2EC017A09
:109C0000FDEEE77A17EE900A23F8020B9942F5D1A0
:109C10000F4A104B52885B68F367A6F878200AF069
:109C200019F8B7F8CA36A6F88000A6F87230BDE871
:109C3000F88F00BF10160020D038002068000010F8
:109C400000007A44BC8900200C2600101826001061
:109C5000E8390020F03900201C0000102DE9F04FF9
:109C6000954CA3789A1E012A87B040F29E8003216A
:109C7000A170802038F0BCFA0746002800F09C80D4
:109C8000802138F0ABFA7E798C4B97F902C053F8FB
:109C900026208B4DB2F5613F14BF00270227022119
:109CA000002385F8D0060092CDE9011760461A46D8
:109CB000802138F0F9F80C3E032EC5F8B80500F203
:109CC000DF80402385F8DC35002876D07D4A95F882
:109CD00076987D4BE678116893F80AC07B4ADFF8E6
:109CE00008A293F80980BAF802A092F800E095F86B
:109CF0007828774BA5F874A819F1000918BF4FF020
:109D00000109003618BF012611F0020F08BF002616
:109D100000211CF0FD0F14BF4FF0010A8A46B8EB7A
:109D2000010827886B4C6C48C5F8D416A2F1190CB1
:109D300018BF4FF00108BEEB010E03F1140B18BF62
:109D40004FF0010EBCFA8CFC012AC3E90111C3E9F2
:109D5000031103F198022468C5F8B4B64FEA5C1CFD
:109D600003F58E7B08BF4FF0010C17F1FF37C5F8E4
:109D7000B826C5F8BCB6049490F800B0059518BF95
:109D800001270A460C460120D3B2591E15291CD8BA
:109D9000DFE801F03434343434343434301E1E28D7
:109DA000241E4B3E3E3E4F192C1E032B3FF461AF49
:109DB0004A4B5A78012A73D8414D002385F88E35D5
:109DC00007B0BDE8F08F314631B100FA02F10C4323
:109DD0000133DBB2162B30D80132D5E751460029CA
:109DE000F3D1F9E741460029EFD1F5E771460029A3
:109DF000EBD1F1E761460029E7D1EDE79B4534BFA0
:109E0000002101210029E3D000FA02F10C43DFE731
:109E1000049D02EB420105EB410111F8561C003193
:109E200018BF01210029EFD1D2E749460029CCD142
:109E3000D2E739460029C8D1CEE7059D1320C5F8E1
:109E40007C480FF0BFF9D5F88848D5F8901885F808
:109E5000800800230222C5F8C035A5F8C435A5F84E
:109E6000C835A5F8CA35C5F8BC3585F89838C5F8A1
:109E70008448C5F88C1885F88E2507B0BDE8F08FAA
:109E8000174B184A1B6803EB4303A2FB03235B0930
:109E900010D0402BA8BF4023DBB285F8DC3513E798
:109EA00041F2B5129B5C002B86D1054D402385F80D
:109EB000DC350BE70123F0E7EC3A0020C00205088F
:109EC00010160020E838002050360020B989002004
:109ED000E41C0020D43A00200C2600103CBD0020D9
:109EE000BC2E0010D34D6210E839002008B5084B95
:109EF0009B78032B06D0FFF7B1FE064B012283F8B7
:109F0000992808BD42F016FD0028F4D008BD00BF16
:109F1000EC3A002010160020072937DCF0B500EBE2
:109F200081001B4F83B00D4600F1F70420262A461E
:109F3000394601A824F02CFA9DF80430E21EABB19A
:109F40009DF8052004F8033C2346CAB19DF806108D
:109F500004F8022CB9B104F8011C01350022082DC7
:109F600004F104041A70E2D103B0F0BD0220531EC4
:109F7000111803F8016F9942FBD1431C1344ECE71D
:109F8000A21E0120F3E704F8016CE6E7704700BF6A
:109F9000903905082DE9F04100EB01130024DFF8AA
:109FA00080805C8082B007460E469C80DC801C81ED
:109FB0005C819C81DC811C8200F1D2050134284641
:109FC0002246414624F0E4F9082C05F10205F5D1BA
:109FD000721C1249684624F0DBF906EBC602823295
:109FE00069463A4411F8013B013C63B102F8013B78
:109FF000002CF7D1374400233136137087F8CA603C
:10A0000002B0BDE8F081531E1019202103F8011F92
:10A010008342FBD101342244ECE700BF98390508A4
:10A02000183F050810B411F8013B541E4BB100F85D
:10A03000013B2246002CF6D1002303705DF8044B4F
:10A040007047002AF8D0431E0119202203F8012F7F
:10A050009942FBD101342044002303705DF8044B86
:10A06000704700BF2DE9F0473A4E96F8A02896F8C1
:10A07000A138C6F89C28C6F8B43906F6221506F6AB
:10A08000BC1806F66A1E06F6DD1C06F50A6706F61B
:10A09000E81A06F6F81900243A190AEB040309EB4A
:10A0A000040032F8021F23F8021B8342F9D1103456
:10A0B0001EF8013B48F8045B802C0CF8013B05F1CD
:10A0C0000905E9D1244B254A96F882C9C6F8B82972
:10A0D000991CC6F8701A191DC6F8741A991DC6F88D
:10A0E000781A03F10801C6F87C1A03F10A01C6F8D0
:10A0F000801A03F10C01C6F8841A03F10E01C6F8A8
:10A10000881A174AC6F86C3A2D2186F8DC19C6F869
:10A11000682ABCF1000F15D007F1E40203F1120028
:10A1200003F58C7403F1220102EB4C0203F59773E3
:10A1300030F8025B43F8041B824224F8025F01F10D
:10A140000401F5D1074BC6F8C0CAC6F89C3ABDE871
:10A15000F08700BF10160020821F0020A0390508DC
:10A16000404E0508FA52050888B100290EDD037932
:10A170008B420BDB002A09DD4379934206DB02EBBD
:10A18000C102093A836833F8120070470020704713
:10A1900008B5064B597F41B19A7F32B1044B18681C
:10A1A000FFF7E2FF034BA3F8C40A08BD88010020B3
:10A1B000707000201016002008B5054B9A7F1AB960
:10A1C00001229A77002008BDFFF7E2FFFAE700BFFF
:10A1D0008801002008B5054B5A7F1AB901225A7729
:10A1E000002008BDFFF7D4FFFAE700BF8801002078
:10A1F00008B5054B1A78054B1978054B1868FFF719
:10A20000B3FF044B188008BDF3700020F2700020EB
:10A2100070700020F470002008B5074B93F90020FF
:10A22000064B12B91A70002008BD1A780AB901222B
:10A23000F8E7FFF7DDFFF6E7940B0020F27000204F
:10A2400008B5074B93F90020064B12B91A7000208D
:10A2500008BD1A780AB90122F8E7FFF7C9FFF6E747
:10A26000940B0020F370002070B5384B86B01A783C
:10A270008DF80C205A788DF80D2000269A78CDF8AC
:10A280000E608DF80E209A88ADF810201A7ACDF85D
:10A29000126003AD8DF8142095E807006C4603C4E6
:10A2A00022802B4A1278022A1C4632D1294B197877
:10A2B000294B8DF800101A78284B8DF8012018686A
:10A2C000FFF752FF264BADF8040093F82F36E3B9A1
:10A2D00005202EF01BF8234B0A221E788DF8026011
:10A2E0006946284643F0DAFF58B19DF800302370E4
:10A2F0009DF801306370BDF80430A670A3801BF098
:10A300005FFF4FF0FF3006B070BD06202DF0FEFF5E
:10A31000E1E7154B1B7873B90E4B19780E4B8DF88E
:10A3200000101A780D4B8DF801201868FFF71CFFFC
:10A33000ADF80400CFE730462DF0E8FF0B4B8DF869
:10A3400000601B88ADF80430C5E700BF74700020C2
:10A35000F0700020F2700020F37000207070002078
:10A3600010160020F6700020FA700020F87000200F
:10A3700003685B6A184703681B6A1847F8B5204FE3
:10A380003E68002E39D01F4B1B780BB11E4A537705
:10A390001E4B1B780BB11C4A9377FFF7F9FE1C4B41
:10A3A0001C4C1B78013384F82E361B4B1B883BB1A9
:10A3B000154D3868A91CFFF7DEFF08B90123AB7003
:10A3C0003279164B84F8CC2AF268C4F8D02A5A1C89
:10A3D000C4F8D42A727984F8D82A3269C4F8C83A01
:10A3E000C4F8DC2A1B3BC4F8E03AB37984F8E43AB9
:10A3F000F369C4F8E83A0020F8BD4FF0FF30FBE7FE
:10A4000070700020D166002088010020D2660020F4
:10A41000CC66002010160020CE660020A50100208A
:10A420000368DB69184703685B69184730B405792E
:10A430008D4206D34579954203D3036830BCDB686F
:10A44000184730BC704770B5104E114C3568617FAD
:10A45000A27F2846FFF7EAFFA178AB798B4203D3AE
:10A460002B6828461B6998470A4D2DF0FBFC617F3D
:10A47000A27FA378306829706A70AB70FFF774FE12
:10A48000A8801BF09DFE4FF0FF3070BD7070002063
:10A49000880100207470002010B103685B681847C1
:10A4A000FF2070472DE9F04F0C46002185B007468C
:10A4B000084616461FF0A8FC002101201FF0A4FC4E
:10A4C00034F070FA022E00F09381042E44F6C01886
:10A4D00018BF4FF49648C14800232425024602E0E5
:10A4E0000133052B06D005FB0301897911F0040126
:10A4F000F6D0D9B22144C9B2042913D8032E00F0F2
:10A500007D8101EBC103B64802EB8303036424237E
:10A5100003FB0121CB79990740F17081B14B0022F7
:10A52000C3F8EC2A05B0BDE8F08F012E08D1D4F8AD
:10A530004404414641F0FAFF206C41F0D3FFCBE1E7
:10A54000022E08D1206CFEF7B3FD4146D4F8440436
:10A5500041F0ECFFC0E1032E40F082804FF0000993
:10A5600084F85C98402249469F48DFF880B243F067
:10A57000BDFE9A4B8DF80E909DF80E20072A09D942
:10A5800001219748FEF775FE4146D4F8440441F096
:10A59000CDFFA1E19DF80E2002EB42020BEBC202BF
:10A5A000527C002A4ED09DF80E2002EB42020BEBAB
:10A5B000C2025269002A45D000228DF80F204FF0C8
:10A5C000240A9DF80F20042A2CD89DF80E909DF89F
:10A5D0000F2001930AFB02325FFA89F909EB49095E
:10A5E00010790BEBC9091FF0E3F9D9F81420019B8E
:10A5F00082422ED19DF80F0000EBC00003EB8000DB
:10A60000FEF756FD9DF80F20019B0AFB023A9AF8CF
:10A610000720D20706D594F85C2805EBC202012179
:10A6200082F8F0159DF80E2094F85C1802EB4202B7
:10A630000BEBC20205EBC1005269C0F8EC250131F9
:10A6400084F85C189DF80E200132D2B28DF80E20ED
:10A6500092E79DF80F200132D2B28DF80F20B0E7BB
:10A66000042E40F03981206CFEF722FD5FE7D5F81B
:10A67000EC0A1CF09FF9014638461CF0A7F93AE1B4
:10A6800038461CF097F995F8FF2A03469AB9242812
:10A6900003D14FF0010285F8FF2A012E05D119469A
:10A6A000384601931CF092F9019BD5F8EC0A194643
:10A6B0001CF08CF935E1012A06D14D2814BF002287
:10A6C000022285F8FF2AE8E7022A06D13C2814BFB7
:10A6D0000022032285F8FF2ADFE7032A10D10A2887
:10A6E00002D985F8FF8AD8E7042285F8F20A85F8AE
:10A6F000F18A85F8F48A85F8F30A85F8FF2ACCE711
:10A70000042A09D195F8F32A85F8000B424085F810
:10A71000F32A85F8FFBAC0E7052ABED195F8F11AE9
:10A7200095F8F29A95F8F30A494509D24A1C29444A
:10A73000584085F8F30A85F8F12A81F8F53AACE734
:10A740009842CED195F8001B85F8FFAAF429A4D130
:10A75000B9F1000FA1D12421384685F8FF9A1CF0E9
:10A7600035F94D2138461CF031F93E2138461CF0B0
:10A770002DF9494638461CF029F9F42138461CF0D9
:10A7800025F9F42138461CF021F9032E18D0206C4D
:10A79000437901689D080223AB40DB439BB20B82E7
:10A7A0008D892B408B8100792021FEF771FC206C74
:10A7B0004A4649461AF06AFF236C18682CF0DCFE02
:10A7C0000022D4F8440411461AF060FFD4F844344F
:10A7D000186805B0BDE8F04F2CF0CEBEB0310508CA
:10A7E00030B2002010160020FC1B0020782D001035
:10A7F000FF2C4FF416487FF46EAE0326514C524D99
:10A8000084F85B6895F8F00A1BF048F94F4B236019
:10A8100004F1440103234FF480622371616100233A
:10A8200004F589614FF00109032EC4F84404C4F80B
:10A8300008806371E362E260C4E90733A1612261C9
:10A84000C4E9093384F84C38A4F84898C4F854385B
:10A85000A4F8583884F85A380DD0D4F840A09AF8A3
:10A8600004001FF0A5F8E0635046FEF731FC4946AE
:10A870002046FEF7FEFC32201BF0A4FE002E7FF4E3
:10A8800054AED4F84484D8F800002CF075FE40464D
:10A890002F4A22211AF072FF2E4BC4F8603832463C
:10A8A0002D4940461AF0F2FED4F84080D8F8000056
:10A8B0002CF062FE264A4FF6FF7140461AF05EFF0A
:10A8C000314640463FF05AFC244BC4F864383246C7
:10A8D000234940461AF0DAFEC5F8EC4A4FF0060A62
:10A8E000022E12D0D5F8EC0A1CF06CF868B10121E8
:10A8F00000201FF089FAD5F8EC0A1CF063F8014635
:10A9000000287FF4B4AE1FF07FFA38461CF05AF8E6
:10A9100088B1012108461FF077FA4FF0050B4FF080
:10A92000000838461CF04EF8014600287FF4A8AE17
:10A9300001201FF069FA042ED4D005201BF042FE3E
:10A94000CEE700BF30B2002010160020D8E4040883
:10A9500040420F000993000890BA0020F7900008C9
:10A9600094BA00202DE9F04F6F4B85B01B7803900F
:10A97000002B7CD06D4A1378924603F0FF0E002B1B
:10A9800075D16B4EDFF8B081B6F8083B02934FF0FB
:10A990003C09B6F80A3B96F8041B96F8057B96F836
:10A9A000062B01934C4698F8023098F80350C3F1F7
:10A9B000FF039BB2002B00F0B380C3F1FF036B4396
:10A9C000B8F800C0BCFBF9FB1B12BBF1050F0DD89A
:10A9D000DFE80BF0035062728494DAB2EB1A0CFBDE
:10A9E00003F3B3FBF4F71744FFB22946039B012B93
:10A9F0000BBF3B020B0243EA014343EA0743134305
:10AA00000025C5F1170C012000FA0CFC01981CEA86
:10AA1000030F8446029814BFE346834605EB0E0CF1
:10AA200044480135182D40F82CB0EAD10EF1180E2B
:10AA3000BEF5407F08F10408B5D101238AF8003043
:10AA4000D6F80C3B86F8062B40F22A325A60D6F82C
:10AA5000102B86F8041B00215162118886F8057BB3
:10AA600041F0010111801A6842F001021A6005B03C
:10AA7000BDE8F08FBCFBF4F104FB11CC1FFA8CFC99
:10AA8000DAB2CCF13C0CEB1A03FB0CF1B1FBF4F1A4
:10AA90001144C9B22F46A9E7BCFBF4F204FB12CC67
:10AAA000D9B21FFA8CFCEB1A0CFB03F2B2FBF4F2E6
:10AAB0000A44D2B22F4699E7BCFBF4F204FB12CC55
:10AAC0001FFA8CFCD9B2CCF13C0CEB1A03FB0CF353
:10AAD000B3FBF4F70F44FFB22A4687E7BCFBF4F25E
:10AAE00004FB12CCDFB21FFA8CFCEB1A0CFB03F355
:10AAF000B3FBF4F13944C9B22A4677E7BCFBF4F260
:10AB000004FB12CC1FFA8CFCDFB2CCF13C0CEB1A2C
:10AB100003FB0CF2B2FBF4F23A44D2B2294665E7E9
:10AB20002A462F46294661E7F6420020F7420020D8
:10AB3000101600202443002024380020044A00235B
:10AB4000016842F823100133202BF9D1704700BF70
:10AB5000243800202DE9F0417E4E96F8008094B014
:10AB6000B8F1000F40F08C817B4B1F78002F00F074
:10AB7000878138461AF092FF784C0368C4F8103B7E
:10AB8000C3680546002B00F07B8138461EF010FF9D
:10AB9000C4F8140B18B12923837180F807802A7A2E
:10ABA0006F4F2A211EF0CCFFD4F8100B1AF0F2FEE2
:10ABB0003DF07EFED4F8100B6A4903886A4A23F000
:10ABC00001031B041B0C8842038011D0DFF89CC1D9
:10ABD000136860450CD00CF5804C604508D00CF52E
:10ABE000806C604504D00CF5806C604540F09A8024
:10ABF0001368BB4240F29C8088420FD05B4FB84242
:10AC00000CD007F58047B84208D007F58067B842F6
:10AC100004D007F58067B84240F0878003F1B7732E
:10AC200003F55853524FB3FBF7F3013B9BB28842F5
:10AC30000ED04E4FB8420BD007F58047B84207D030
:10AC400007F58067B84203D007F58067B84272D134
:10AC500017685A1C4FF0030CB7FBF2F7454AB7FBD5
:10AC6000F2F7BAB2B2FBFCF24FEA420CA4F80ACBFC
:10AC7000DFF8F8C0A4F8082B0288604592B210D023
:10AC800088420ED0B0F1804F0BD0ACF57C4C6045C3
:10AC900007D00CF5806C604503D00CF5806C6045E6
:10ACA00002D122F0700292B2DFF8CCC0604506D02B
:10ACB0000CF5806C60451CBF22F4407292B2028099
:10ACC000C7620385294B984201D0884201D10023F5
:10ACD00003860023CDE90233012282820493ADF87A
:10ACE0000430EB7960210091990727D5DB0004221D
:10ACF00003F00803ADF80420ADF80E3000230293F2
:10AD000069796A461AF00EFA6979D4F8103B0C2971
:10AD10003CD8DFE801F0333B3B3BB83B3B3BC13B1E
:10AD20003B3BCA00B7EB530F04D213685B0875E7CF
:10AD300000237CE7002317687F088AE75B00ADF8F3
:10AD4000022003F002034FF48072ADF81020ADF83A
:10AD50000C30D3E7F6420020CC4F00201016002024
:10AD6000FF6BDC0200040140649E002000000140F3
:10AD7000006CDC0200350C00001000401A8B22F041
:10AD800008021204120C42F008021A83B3F844209D
:10AD900042F40042A3F844201A8842F080021A804C
:10ADA000EA7997074CBF0422012202FA01F11A8CBA
:10ADB00089B222EA01021A841A8C114319841A8872
:10ADC00042F001021A8029210022287D3CF02AF954
:10ADD00060223A49287D00233CF08CF8E868C4F8EA
:10ADE0000C0B2CF049F9D4F80C0B036823F0010389
:10ADF00003602CF041F905A82CF000F9D4F8103BC1
:10AE00006A79343313440693002740F22A33CDE99C
:10AE100009374FF480630B932B690593284B0793F5
:10AE2000402308934FF480514FF48043CDE90C1335
:10AE30004FF440304FF4807305A9CDE90E30D4F8BB
:10AE40000C0B2CF0EDF86B79D4F8102B0C2B9CBF6D
:10AE50001C4931F81330918988BF3B460B439381DD
:10AE6000D4F80C2B136843F01003136005A80023DB
:10AE70000593FFF763FE0120FFF774FD0123337094
:10AE800014B0BDE8F0811A8B22F400621204120C97
:10AE900042F400621A8379E79A8B22F008021204C6
:10AEA000120C42F008029A8370E79A8B22F4006237
:10AEB0001204120C42F400629A8367E7B54D04084D
:10AEC000244300208832050810B5194C94F8D0327C
:10AED00033B3184A136843F480331360FFF73AFE24
:10AEE000154B01221A7094F8D122144B022A98BFF4
:10AEF000DA7094F8D2221A7194F8D3225A71B4F805
:10AF0000D422DA8094F8D6221A7294F8D7225A7290
:10AF100094F8D8221A7094F8D9229A72002010BDA1
:10AF200017F0F0FD4FF4803021F02CFDDBE700BF7F
:10AF3000101600209CB10020F54200201C39002092
:10AF4000F8B5594C94F90020002A62D0574B93F879
:10AF5000081209B983F80822B3F8341219B9E18844
:10AF600009B1A3F834125249088810B9A08800B179
:10AF70000880022AE17805D111F0080218BF0122E9
:10AF800083F82F264B4B4C4A1B784C4DD35CEB7708
:10AF90004B4B4C4E1B783068002B3FD194F901305D
:10AFA000082293FBF2F20132002833D04769BA5CE1
:10AFB00085F8212080B35A4202F0070203F007030C
:10AFC00058BF53420133026952F823301B7885F889
:10AFD000223001F00A030A2B3B4F26D1E2883B497D
:10AFE000384623F0D5F9202385F82830E3789A07EE
:10AFF0003AD513F0040F0CBF4F23492385F82A30AC
:10B000005223502285F82B30002385F8292085F81B
:10B010002C30F8BD3F22CBE72D4BD7E7552385F8E1
:10B020002130462385F82230D3E7C90705D5A28809
:10B030002649384623F0ACF9D5E794F90110306879
:10B040004B4203F0070301F0070258BF5A42013296
:10B05000082391FBF3F10131FFF786F81B49024603
:10B06000384623F095F9BEE794F9002094F90230B0
:10B07000022A07D0272B11DC182B11DC0F2BD4BF91
:10B080000023012332686AB10133D26952F82320C8
:10B0900010491148BDE8F84023F07AB90323F1E7DD
:10B0A0000223EFE70A4AF3E7940B00201016002072
:10B0B000F8700020F07000203E390508880100205B
:10B0C000F170002070700020AC0100202B6C05088E
:10B0D0003C39050820520508B10100203C4A11788E
:10B0E00070B53C4C002949D1D4F8A03513B9C4F847
:10B0F0001C3B70BD384B98690028B8BF99619B69AB
:10B1000004EB8303D3F8A435C4F81C3B002BF0D028
:10B1100001231370314BC4F894354FF400500023D1
:10B12000A4F8983584F8613637F022FAD4F81C0B6D
:10B130001FF000FFD4F81C0B437A027A112B4FF05A
:10B14000010136D884F8201B022184F8211B00213C
:10B1500084F8221B510884F8483684F89D15017B39
:10B1600031B1002184F8221B84F8483684F89D25EB
:10B17000D4F89415BDE87040FEF752BCFDF798FC7A
:10B18000D4F81C5B85420646B3D094F8992594F810
:10B19000981594F89D3501FB032384F899352B68A5
:10B1A00028465B689847EB7BC4F81C6B013BEB734C
:10B1B000BCE784F8211B022184F8221B991E00257C
:10B1C00084F84816911E84F8205B84F89D15C6E724
:10B1D0001F5000201016002088010020C801002008
:10B1E000F8B5BE4BD3F8942506460D461C460AB961
:10B1F000FA2005E0062904D1FFF770FF4FF4FA703A
:10B20000F8BD05290ED193F8232B2AB1002283F82B
:10B21000232B4FF4FA70F3E73046FEF7CFFB4FF4E1
:10B22000FA70EDE7072908D10022AD4983F8232BF6
:10B23000FEF7F6FB4FF4FA70E2E7022945D193F8E6
:10B24000237B5FB993F9993594F86026934233DAFA
:10B25000013384F899356B1E012B03D894F8233BF6
:10B26000002BC5D094F99935D4F84C16C3EBC30222
:10B2700001EB42010A79013A0C2AB9D801A050F831
:10B2800022F000BF7FB3000865B300082BB30008AD
:10B2900041B3000891B300086BB40008F9B300088B
:10B2A000AFB40008E9B40008F1B10008F9B3000830
:10B2B000B5B3000827B4000894F89815013149B2D5
:10B2C000FEF742FB84F89975C5E70129C3D193F8CD
:10B2D000233B002BC2D194F89915D4F84C264B1E71
:10B2E0005BB2C3EBC30002EB400084F899350079F0
:10B2F00020B9002BC4BF023984F8991594F9993507
:10B30000581C06D0C3EBC30302EB43031B79002B8D
:10B31000A4D194F89815013949B23046FEF714FBD0
:10B3200094F8603684F8993595E7042D7FF460AF82
:10B33000D1F809103046FEF773FB4FF4FA705FE75F
:10B34000D1F80530002B3FF453AF042D7FF450AFFC
:10B35000D1F809103046984701303FF45DAF4FF403
:10B36000FA704DE7D1F80530002B3FF441AF042DC2
:10B370007FF43EAFD1F8091030469847EFE73046EA
:10B38000FEF71CFB002384F8233B4FF4FA7037E7E9
:10B39000D1F80920002A3FF42BAF291F4D424D411F
:10B3A00015701C44FA2094F8502642F0010284F8EB
:10B3B000502625E7D1F8091000293FF419AF042DD4
:10B3C00094F8232B40F0B280464922B9012284F838
:10B3D000232B8A65E5E78A6D022AE2D801328A6565
:10B3E000DFE7012D40F094803E4A926D0A3295408D
:10B3F0000A8815430D80D4E7D1F8090000283FF4EE
:10B40000F7AE0768042D3A7806D1457995423AD9C6
:10B41000807902443A7036E00579954233D28079DA
:10B42000121A3A702FE0D1F809000268042D13783F
:10B4300016D10079984201D901331370D1F8053043
:10B440001BB1D1F809103046984794F999351C443E
:10B45000FA2094F8503643F0010384F85036CFE6D2
:10B46000002BEBD0013B1370E8E7D1F8090000286E
:10B470003FF4BEAE07683A78042D55B212D190F968
:10B4800005C0AC45C4DC1C4494F8502642F00102CF
:10B4900084F85026D1F80530002B3FF4A9AE304691
:10B4A0009847A5E690F904C0AC45ECDAB7E7D1F8C7
:10B4B000090000283FF49CAE0768042D3A8806D1A5
:10B4C000C5889542DFD9008902443A80DBE7858848
:10B4D0009542D8D20089121A3A80D4E7101600207B
:10B4E000D401002088010020D1F8090000283FF491
:10B4F0007FAE0768042DB7F9002004D1B0F90650DB
:10B500009542C0DDDFE7B0F904509542BBDAE1E7D0
:10B51000022D7FF446AF0C4A906D01220A3002FAE8
:10B5200000F00A8822EA00020A803AE7002A3FF483
:10B5300038AF032D7FF455AF03498A6D012A7FF69A
:10B5400030AF013A8A652CE7880100202DE9F04FE1
:10B550007D4CD4F8A035002B8BB0804638DBD4F876
:10B56000243B03F543435033984231D3774BC4F81F
:10B57000240B1E7866BB764B1B781BB9754B1B786A
:10B58000012B25D0744B1F782FBB744BDA88A2F2A5
:10B59000E342B2F5F97F16D8B3F9041040F2E14264
:10B5A000914210DCB3F9022040F2D6639A420ADDE0
:10B5B0006B4B1B78DF0706D4FFF790FD694B4FF408
:10B5C000FA72A3F85C20684B1A685F4BC3F82C2B07
:10B5D0000BB0BDE8F08F94F8185BD4F81CBBDFF813
:10B5E00084914FF47A73B8FBF3F30193EDB12946DC
:10B5F0005846FFF7F5FD0023A9F85C0084F8183BD6
:10B60000D4F84C36002B40F0B1804F4C019AD4F85E
:10B61000303B03F5FA739A42D5D9D4F81C0B1FF0CE
:10B6200065FC019BC4F8303BCDE74C4BD988B3F99E
:10B630000220A1F2E341B1F5F97F194614D8B3F91C
:10B64000040040F2E14398420EDC40F2D6639A4295
:10B650000EDD434B1B7813F0010F0CBF06250125AF
:10B66000D9F8643001331BE040F2D6639A4225DCFE
:10B6700040F2E1439A4223DDB1F90000984221DD16
:10B6800040F2D66290421FDCB1F9041099421DDDF0
:10B6900091421DDC01230022C9F86030C4F8282B38
:10B6A000B9F95C20C9F86430002A13DDD4F82C3BCA
:10B6B0001344019A9B1AA9F85C30A1E70125CFE752
:10B6C0000225CDE70325CBE70425C9E70525C7E714
:10B6D0000725C5E7002D93D04FF0000AD9F8603058
:10B6E0005046534526DC033D00B2012DA9F85C000D
:10B6F00086D8D9F86430142B82DDA3F1140290FBB4
:10B70000F2F03228A9F85C003FF77AAFD4F8282B82
:10B710000AB9C4F8283BD4F8282B9B1AD9F8602022
:10B72000052193FBF1F313448B42C8BF0B46C9F8C4
:10B73000603065E72946584600930AF1010AFFF791
:10B740004FFD009BCDE700BF101600209A3D002062
:10B75000EE3900202C6600201F500020A838002061
:10B760006C70002088010020908B002094F8203B12
:10B77000D4F81C5B002B40F0BF8094F860262B7A35
:10B780009B1A022293FBF2F3DBB20093D4F8343B12
:10B7900003F5C333A03398452B6888BFC4F8348BB6
:10B7A000DB6A284688BF3E4698476A7B87B2002AF4
:10B7B00000F0B080D4F84C26002311790E2903F153
:10B7C000010040F09C8000236B73D4F84C0694F881
:10B7D000993559B2C1EBC10200EB42020133127933
:10B7E000DBB2002AF5D095F90E2084F89915002ACD
:10B7F0000EDB8A4225D094F8213B009903FB02120C
:10B80000D2B2B44B94F8221B28461FF07DFB3F1A9E
:10B810001D2F7FF6FAAE94F9992595F90E309342D3
:10B8200012D094F8213B009903FB0212D2B2AA4B2A
:10B8300094F8221B28461FF067FB94F89935AB73E8
:10B840003F1A1D2F7FF6E1AEDFF8A892D4F84C66C0
:10B8500000230393CA469DF80C8099F89D35434513
:10B860007FF6D3AE33790E2B3FF4CFAE09EB08044D
:10B8700094F85026900719D5009899F8221B99F84A
:10B88000212B002B18BF013102FB08023368D2B212
:10B89000C9B228461FF038FB94F850363F1A23F0FF
:10B8A00002031D2F84F850367FF6AFAE0AEB080373
:10B8B00093F85026D10740F18180009B9AF8214BE4
:10B8C00004FB08349AF8203BE4B20BB10134E4B233
:10B8D00033790D2B00F25F81DFE813F04A015D013F
:10B8E0005D01480048007500EF00E4000E010E0104
:10B8F0003800190194008B000123009346E754FAA5
:10B9000083F30E3293F8501641F0030183F850167A
:10B91000034652E7002E3FF458AF94F86036D4F84F
:10B920004C16C3EBC30301EB430399423FF64DAF03
:10B93000487B460707D554FA82F696F8500640F041
:10B94000010086F850060E310132EEE7D6F80910F4
:10B95000002900F020810C2206A842F005FD0C23EE
:10B96000224606A92846FDF7BDFF23E00DF1280871
:10B970000021032B08F8101D0AD1D6F805303BB181
:10B98000120705D598470C220146404642F0ECFCD0
:10B990005149404642F0B2FC9AF8203B0BB1013CC1
:10B9A000E4B2404641F0FAFD2246C3B24146284681
:10B9B000FDF798FF3F1A1D2F7FF627AE039B01333B
:10B9C0000E36039347E7D6F809000028F2D0037833
:10B9D00053B1424906A842F0ADFC0323224606A912
:10B9E0002846FDF77FFFE5E73D4906A842F0A2FCA7
:10B9F000F3E7D6F809301A689B6811780C2253F8DF
:10BA00002110A9E7D6F809300293002B00F0C3807B
:10BA10009AF999350493334B1A684FF47A73B2FB51
:10BA2000F3F103FB11230593002306AAD018029A11
:10BA300099F8231BB2F800C04FF4006203F1010B28
:10BA400002FA03F31CEA030F1CD071B1059BB3F596
:10BA5000FA7F0AD2049B984507D1234B9B6D5B4527
:10BA600003D11C4942F066FC02E0204942F062FC2E
:10BA7000BBF1030F5B46D8D1224606A92846FDF745
:10BA800031FF97E751B1059BB3F5FA7F06D2049BCE
:10BA9000984503D1144B9B6D5B45E2D0144942F0AD
:10BAA00049FCE5E7D6F80900002883D0036806A919
:10BAB000187840F061FB0523DEE7D6F8090000287E
:10BAC0003FF478AF036806A993F9000040F054FBF7
:10BAD000F1E700BF6572050867520508423905089D
:10BAE00046390508908B002088010020DF65050895
:10BAF000404E050810160020D6F8090000283FF433
:10BB000059AF036806A9188840F036FBD3E7D6F88A
:10BB1000090000283FF44EAF036800891B785843A2
:10BB200000F5C33006A9A03040F026FB9DF81A307E
:10BB30009DF819208DF819302E238DF81A309DF8B4
:10BB40001D308DF81820302B01D02E2B0AD19DF8F6
:10BB50001C10002330298DF81D3001D02E2901D171
:10BB60008DF81C30302A04BF20238DF81830A2E74E
:10BB7000D6F80980B8F1000F0FD0306841F00EFD03
:10BB80009AF8221B0131014443462246C9B2284695
:10BB90001FF0BAF90EE700200CE740460AE70A4B0F
:10BBA00070B5D3F8A05506464DB9002070BDFCF71E
:10BBB0007FFF864205D00134A542F8DCF5E700247A
:10BBC000FAE70120F2E700BF1016002008B5094B84
:10BBD0001B7803B108BD0848FFF7E1FF0028F9D042
:10BBE000FFF77CFA054B064A1B6803F5C873C2F8D9
:10BBF000D83508BD1F50002054420020908B0020F3
:10BC000010160020074BD3F8A025042A08D0511C99
:10BC1000C3F8A01503EB8203C3F8A4050120704705
:10BC2000002070471016002008B50F4B9B78022BA0
:10BC300008D0032B09D10D4BD3F8B805003018BF3D
:10BC4000012008BD29F0BEFB08B9002008BD29F07D
:10BC5000A9FB0028F9D0064B5878A0F10300B0FAF0
:10BC600080F0400908BD00BFEC3A0020101600200B
:10BC70003CBD002070B5144B9B78022B05460ED0BE
:10BC800001780446E9B1114ED6F8B8051AF09EFEC7
:10BC900015F8011F0029F7D12C1B204670BD41F07B
:10BCA0007DFC0B4B04461868037E13F0060FF4D09E
:10BCB00090F82830002BF0D12946224628F046FF84
:10BCC000EBE70C46204670BDEC3A00201016002031
:10BCD000F43A002010B51A4B9B78022B82B007D0A3
:10BCE000184B0146D3F8B8051AF070FE02B010BD2B
:10BCF000154B8DF807001B6893F91A104A1C0FD0DA
:10BD00005A6840F2FF14C2F30802A24208D002EBC4
:10BD100041220E4950545A6801325A6002B010BD97
:10BD20001A7E12F0060FE1D093F82820002ADDD108
:10BD3000184601220DF1070128F008FFD6E700BFE1
:10BD4000EC3A002010160020F43A002054BD0020E8
:10BD50002DE9F04100F110020746002452F8043D9D
:10BD6000A40003F10801E4B22BB10F2903F1800311
:10BD70003BD844F001049742F0D12046FFF7AAFFD8
:10BD800000252E46A84604F00303022B24D0032BE3
:10BD900014D0012B09D00135042D4FEA9404F2D1BF
:10BDA000B8F1000F4AD1BDE8F08157F82500B8F18D
:10BDB000000F3BD10001C6B29846ECE757F82500CA
:10BDC000B8F1000F18D1C0F30720FFF783FF17F871
:10BDD0002500FFF77FFFDEE757F82500B8F1000FD9
:10BDE0001AD1C0B2FFF776FFD5E7FF2B94BF44F01E
:10BDF000020444F00304BEE7C0F303303043FFF70E
:10BE000069FF57F82500C0F30710FFF763FF57F8E5
:10BE100025603601F6B2BEE7C0F303103043FFF7EA
:10BE200059FF57F825603601F6B2B4E700F00F006D
:10BE30003043FFF74FFF4FF00008ACE73046BDE856
:10BE4000F04147E7F8B5061F0446324600F10807FF
