:020000040800F2
:10000000F0FF0010FDDE0408693D0308359E02087C
:100010009DDF04089DDF04089DDF04080000000048
:10002000000000000000000000000000753D030813
:10003000713D0308000000006D3D030805670208DC
:100040009DDF04089DDF04089DDF04089DDF040890
:100050009DDF04089DDF0408C5AC020805AE020858
:10006000C5AD020885AD020845AD02082D73040830
:100070001D7304080D730408FD720408E972040876
:10008000D5720408C17204089DDF04089DDF0408CE
:100090009DDF04089DDF04089DDF040805AD02080C
:1000A0009DDF04089DDF04089DDF04089DDF040830
:1000B000C555020805550208455402089DDF04088D
:1000C0009DDF04089DDF04089DDF04089DDF040810
:1000D0009DDF04087D6802089DDF0408E1670208CF
:1000E00085AC02089DDF0408F18703089DDF040842
:1000F0009DDF04089DDF04089DDF0408AD7204083D
:100100009DDF04089DDF04089DDF04089DDF0408CF
:100110009DDF04089DDF040885EF030871EF0308E5
:100120009972040885720408717204085D720408EB
:10013000497204089DDF04089DDF04089DDF040860
:100140009DDF04089DDF04089DDF04085D77030838
:1001500035720408217204080D720408456702080C
:100160009DDF04089DDF04089DDF04089DDF04086F
:100170009DDF04089DDF04089DDF04089DDF04085F
:080180009DDF04089DDF040867
:08018800A4DA040001000000EC
:100190001C021000D0210020E021002000000000FF
:1001A0002DC20208F6210C00B8210020F021002009
:1001B00000000000E006000820320A004C22002067
:1001C0004022002000000000A18B00081400030062
:1001D0008C1E00205822002000000000EC060008C1
:1001E00010100200842100205C220020000000008A
:1001F000F006000828101000742100206022002062
:1002000000000000C50E0108190005006C21002047
:100210007022002000000000F2060008F82106000D
:10022000642100207822002000000000F806000869
:10023000012008008C1B002080220020000000000C
:10024000FE0600080C109C00E01A00208822002006
:1002500000000000619003080A7028006C1A00205A
:1002600024230020000000006D0E01080EA0740180
:10027000F81800204C230020000000007D2C01080D
:100280000101040058180020C024002000000000D4
:10029000000000000001040050180020C4240020C9
:1002A0000000000006070008020103004C180020AF
:1002B000C824002000000000E190030809020100AA
:1002C00004210020CC240020000000000A070008C0
:1002D00022021401B41E0020D024002000000000DF
:1002E000FDC402080102050064180020E425002076
:1002F000000000007D81000800020500F41B0020C2
:10030000EC25002000000000000000000312330074
:100310000C32002048320020000000000C070008CA
:1003200025102C012C3000207C3200200000000021
:10033000000000001A000E00CC2F0020A83300207F
:10034000000000004007000816100600142F0020CF
:10035000B8330020000000004E07000815007000B0
:10036000BC2C0020C0330020000000000000000072
:100370002A0060006C2F00203034002000000000B4
:10038000552C01082C001000A034002090340020CF
:1003900000000000E52901082B002400D4340020CF
:1003A000B034002000000000B529010829207800A1
:1003B000AC2A0020F83400200000000000000000FB
:1003C0001B020800983D00204C5000200000000057
:1003D00057C202081E000600783B0020545000203F
:1003E00000000000540700081B100C0024390020F6
:1003F0005C500020000000009DEE01082102F0008A
:100400003C37002068500020000000008DE2010809
:100410000E020200E04200205851002000000000BF
:100420005A0700082F102200285000205C5100209D
:10043000000000005C07000805100600F43A0020E8
:1004400080510020000000007E070008F551880060
:10045000703600208851002000000000412A020868
:1004600026100C001C52002010520020000000003A
:100470009DC701080B301800583600205452002048
:1004800000000000840700081F30240030360020E0
:100490006C520020000000009C07000805020400C8
:1004A000D43D00209052002000000000C00700084A
:1004B0001A023C00B0520020EC570020000000005F
:1004C0006DC4020827000400AC5200202858002008
:1004D00000000000C40700081F021000F85D0020A3
:1004E000E85D0020000000001DC3020803010A00AF
:1004F0007C7000201071002000000000C807000878
:1005000013020400346600201C710020000000006B
:10051000D207000802000C003C8800208C880020D4
:100520000000000000000000F70106002C880020F9
:100530009888002000000000D60700080A020A0080
:10054000F8870020A0880020000000000196030822
:1005500003000100B0880020AC88002000000000EB
:100560000000000010020100808900207C8900202A
:1005700000000000DC0700080D0034003CBB002038
:10058000B4BB002000000000190B04080400800028
:10059000C4B10020E8BB0020000000000000000003
:1005A00013000400B0B1002068BC0020000000006F
:1005B000E0070008FD0124008CB100206CBC002085
:1005C00000000000A93D020818202E0058B10020AC
:1005D00090BC00200000000001C4020806101A00B0
:1005E000B89F0020C0BC002000000000DD2C0108E6
:1005F000FB010100B49F0020DCBC002000000000D3
:10060000BDC50208FC010900809E0020E0BC00205E
:1006100000000000CDC5020834001000A89D002095
:10062000ECBC002000000000B12C01081102080001
:10063000809D0020FCBC002000000000E4070008B2
:1006400012120400789D002004BD0020000000006C
:10065000EC07000812201000689D002008BD002053
:1006600000000000F0070008FF1106008C92002037
:1006700018BD00200000000001C3020808120F008E
:100680009892002020BD00200000000091C20208C6
:10069000F90104008892002030BD00200000000015
:1006A000213E020802020300DC89002034BD002044
:1006B00000000000000000000C02040098890020E7
:1006C00038BD002000000000E9C20208FE0114004D
:1006D000F88B00203CBD00200000000063C202082F
:1006E0000000000001000000020200000300000002
:1006F00000050000280100000401F4011400E803D3
:100700006400040A0001BC010000130000000000A6
:1007100000000000000000000000000000000000D9
:1007200000000000000000000000000000000000C9
:1007300000000000000000000000000000000100B8
:100740007E05EA05B4053200E803D0070000C409BD
:10075000000019000000010000000000000000007F
:100760000000000000000000000000000000000089
:100770000000000000000000000000000000200059
:1007800003010000AE014A015E012C016401020078
:10079000000001000A019A01001E0A00000000008A
:1007A000000100000005000001020300000000003D
:1007B00000000000000000000000000000800700B2
:1007C0000000000020030000040101006C1600007E
:1007D00000000000013518000100000000000000CA
:1007E000080044300000000001010101FFFFFFFF8D
:1007F000000000010000054B4957320000080000CE
:10080000E00101006182000800000000E0E404084B
:1008100020700020702D7200FFFFFFFF0801012DE6
:10082000202D2D202D2D2D2D202D2D2D00000000D3
:1008300000000000000000000000000000000000B8
:100840000000000000000000ACFB040800000000F5
:100850000000000038FC040801000000FA0000005D
:100860000100000001000000010100000001010181
:1008700000000000C21A002000C80100C11A0020B8
:1008800000500100C01A0020005A0100BE1A0020CA
:100890000200000044EB0408344005083C40050811
:1008A000BE3800200100C40900000000BC38002050
:1008B0000100C40900000000BA3800200100C4098A
:1008C00000000000B83800200100C409000000004A
:1008D000B43800200100C40900000000B638002030
:1008E0000100C40900000000B23800200100C40962
:1008F00000000000B03800200100C4090000000022
:10090000741800200100C8000100000072180020C7
:10091000320030753200000071180020055A0500C1
:100920006E18002000FF0100701800200100000078
:10093000200200206C180020020000008C05050831
:100940006D18002000FF01006F180020010000005A
:10095000200200206B180020020000008C05050812
:10096000981B0020EE02CA0801000000961B002020
:1009700000C8010064000000951B002000C80100B1
:1009800064000000941B00200200000050EB0408EB
:100990005E18002080C1803E050000005C18002029
:1009A00080C1803E050000005618002080C1803EB6
:1009B000050000005418002080C1803E05000000A2
:1009C0004F18002000FF0100481800206400F401C7
:1009D0000100000047180020040000005CEB040840
:1009E000461800200200000070EB0408E9180020FF
:1009F0000D0000007CEB0408E618002000640100F4
:100A0000E4180020320010270A000000E31800203C
:100A10000D0000007CEB0408E21800200D0000002F
:100A20007CEB0408E118002002000000B4EB04088D
:100A30000000000000000000C0EB0408C0700020AF
:100A40009CFF2C0100000000D8200020E0150C17AE
:100A500000000000421C002002000000F8EB040827
:100A6000A41B00200100FF7F01000000A31B002049
:100A70000200000004EC0408EB1800200300000052
:100A800014EC0408EA1800200300000014EC040829
:100A9000A01A00200000E803010000009E1A0020B8
:100AA0000000E803010000009C1A00200000E80399
:100AB000010000009A1A00200000E8030100000075
:100AC000981A00200000E80301000000961A002098
:100AD0000000E80301000000951A00200014010046
:100AE000941A00200300000024EC0408AC1A002033
:100AF0000000F40101000000AA1A00200000F40127
:100B000001000000A81A00200000F401010000000C
:100B1000A61A00200000F40101000000A41A002021
:100B20000000803E01000000A21A00200000803E6C
:100B300001000000D51A002019640100D41A002019
:100B40000200000034EC0408D21A0020E803D007A9
:100B50000A000000D01A0020006401000A00000012
:100B6000C51A002000640100C41A002000640100BE
:100B7000CC1A0020006401000A000000CB1A0020FB
:100B8000006401000A000000CA1A0020006401008D
:100B90000A000000CF1A0020006401000A000000D3
:100BA000CE1A0020006401000A000000CD1A0020C7
:100BB000006401000A000000C91A002001FF0100C2
:100BC0000A000000C81A002001FF01000A0000000E
:100BD000C71A002001FF01000A000000F4180020DD
:100BE0000000F40101000000F21800200000F401F0
:100BF00001000000F01800200000F40101000000D6
:100C0000EE1800200000F40101000000EC180020A4
:100C10000000F40101000000BD1A00200064010082
:100C2000BC1A002000640100BB1A0020006401000F
:100C3000BA1A0020FF080100B91A0020016401005F
:100C4000758800083988000840EC0408B81A0020AC
:100C500000640100B61A00201400E803010000003F
:100C6000B41A0020E80330750A000000B21A002010
:100C700000C80100B11A002000C80100B01A00200D
:100C800000C80100AF1A0020006401000A00000043
:100C90008A1B00200000D00701000000851B0020F7
:100CA00000C80100841B002000C80100831B002035
:100CB00000C80100881B00200000D00701000000D0
:100CC000821B002000C80100811B002000C8010019
:100CD000801B002000C80100861B00200000D007F8
:100CE000010000007F1B002000C801007E1B0020C7
:100CF00000C801007D1B002000C8010000000000AA
:100D0000A9850008B0EC0408DF18002031000000BD
:100D10004CED0408DE18002000C80100DC1800209B
:100D2000E803D007010000004B49574946345632CA
:100D3000000000006A18002000030100691800206C
:100D40000003010009850008E184000814EE04088E
:100D50009D8400085184000868EE0408318500086D
:100D60007D960008E8EE04086018002001030100E9
:100D7000D1890008A5890008DCF10408D5830008A2
:100D80008983000840F20408BF850008C9AE000846
:100D9000DCF204087DA300080000000084F30408CE
:100DA000F9970008318A000820F404081186000829
:100DB0000000000090F40408E98600089586000809
:100DC000F4F40408798700083D87000890F50408CA
:100DD000B1880008F988000810F60408C31A00203A
:100DE0000106010059860008258600080CF7040852
:100DF000B5870008E19600087CF7040829890008F7
:100E0000659700085CF80408AE1A00200103010091
:100E1000798500084985000830F90408FD89000833
:100E20000000000094F90408218400084D96000891
:100E3000F8F90408000000000000000084FA04082B
:100E40007D890008DD97000804FB04084218002093
:100E500088136F17010000004418002088136F17D3
:100E6000000000000A6F00200000000000000000E9
:100E7000086F00200000000000000000066F002046
:100E80000000000000000000046F002000000000CF
:100E900000000000026F00200000000000000000C1
:100EA000006F00200000000000000000900C0020F7
:100EB00000000000000000001818002002000000E0
:100EC0008CFC04084018002088136F1701000000F4
:100ED0000071002088136F170000000019830008BC
:100EE0000000000098FC0408431C002001000000E2
:100EF000ECFC04080271002001000000F8FC04086A
:100F0000F87000200200000000FD0408000000004E
:100F1000000000000CFD0408018300080000000030
:100F2000A8FD04080000000000000000FCFD04080B
:100F300000000000000000006CFE0408FC700020AF
:100F4000E0150C1700000000D6010100FFFFFFFFB5
:100F50000000803F000000000000000000000000D2
:100F60000000803F000000000000000000000000C2
:100F70000000000000000000000000000000000071
:100F8000000000000000000001000000FFFFFFFF64
:100F9000FF00000001010000000001FFFF00000051
:100FA000FF1FFF1FFFFFFFFF28520020000000006F
:100FB0004C5200200000000001FF0000FFFF010074
:100FC000A00F0000B80B00000102FFFF01000000AD
:100FD0000000803F00000000000000000000000052
:100FE0001C5B05080000080205030300245B0508DC
:100FF0000100080205040300785105080200FE0103
:1010000001100300904305080300140200030000D0
:101010002C5B050804001F0201000800345B050872
:1010200005001F02010108001A0300000000000073
:1010300000000000000000000000000000000000B0
:101040000000000004030904120100020000004037
:10105000830420570002010203010000FFFFFFFF8D
:10106000A5C6020899C5020895C6020841C3020830
:1010700041C60208E9C502083DC30208500A002023
:101080009D5C030879330308DD6703080000000056
:1010900000000000E1640308FD6303080000000095
:1010A0000000000000000000B12E0308C9C30208C0
:1010B000BDC30208FDC6020819C7020875C30208AD
:1010C000E1C60208C7C60208008002021F00000035
:1010D00053544D202020202050726F6475742020BE
:1010E0002020202020202020302E3031040309042D
:1010F00012010002EF020140830456320002010295
:101100000301000012010002020200408304405764
:10111000000201020301000009022000010104C0D5
:10112000320904000002080650050705810240004C
:10113000000705010240000009026400030100C02D
:10114000320904000001030000000921110100011F
:101150002226000705830308000A080B0102020289
:101160000100090401000102020100052400100130
:1011700005240100020424020205240601020705D9
:1011800082030800FF09040200020A0000000705AC
:1011900001024000000705810240000009024300EF
:1011A000020100C03209040000010202010005240E
:1011B0000010010524010001042402020524060098
:1011C00001070582030800FF09040100020A00006C
:1011D00000070501024000000705810240000000F1
:1011E000FF000000182D05080000000000000000AE
:1011F00000000000000000000000000000000000EF
:1012000000000000000000000000000000FFFF00E0
:1012100000000000EC2C05080000000000000000A9
:1012200000000000000000000000000000000000BE
:10123000000000000000000000000000AA550501A9
:101240000000000005010905A101A1000501093008
:101250000931093209330935093409400938158142
:10126000257F750895088102C0C000000902220090
:10127000010100E03209040000010301020009211C
:10128000110100012226000705830308000A00005F
:10129000000000000102030401020304060708091C
:1012A00041670308456603089D6A0308752F030814
:1012B000ED340308852F0308A12F03084D2F0308E1
:1012C0003D2F030800000000000000002D202D2D00
:1012D000202D2D2D2D202D2D2D2D00000000000066
:1012E0000000000000000000000000AA550B0100F3
:1012F00000AA5507010000AA550902000000AA55DE
:1013000003009F0001000000C01200000000803FA9
:101310000000000000000000000000000000803F0E
:10132000000000007C880020080000000000000091
:101330006C88002008000000FC390508249E050880
:10134000309E05083C9E0508489E0508549E0508E9
:101350009C4E0508C4790508F4780508D89D050851
:10136000145D0508149E0508189E05081C9E0508B6
:10137000209E0508609E0508649E0508689E050875
:101380005C7705086C9E05081900C800F40120036D
:10139000D1340308BD330308796A03080000000054
:1013A000392F0308316603080D330308A9650308C4
:1013B0000000000000000000F52E0308852D030842
:1013C000792D0308AD5B0308C95B0308915B030833
:1013D000755B0308595B03088934030899330308D4
:1013E000B9690308000000000D2F0308AD6503086C
:1013F000E132030809650308000000000000000056
:10140000012F0308FF01FF0000000401000000009D
:1014100000000002100000000700000000000000B3
:10142000000000000102030406070809080000008C
:10143000752D0308712D03086D2D0308612D030818
:101440005D2D0308692D0308652D0308F53A03088F
:1014500075390308293B0308215403083571030833
:10146000995403089D2E0308892E0308812E030832
:10147000719203080000000000000000000000005E
:101480000100000000600240106002400000000007
:1014900000000000000B0000000000000000000041
:1014A00000000000006002402860024001000000CF
:1014B00000000000060C000000000000000000001A
:1014C0000000000000600240406002400200000096
:1014D00000000000100D00000000000000000000EF
:1014E000000000000060024058600240030000005D
:1014F00000000000160E00000000000000000000C8
:101500000000000000600240706002400400000023
:1015100000000000200F000000000000000000009C
:1015200000000000006002408860024005000000EA
:101530000000000026100000000000000000000075
:101540000000000000600240A060024006000000B1
:10155000000000003011000000000000000000004A
:101560000000000000600240B86002400700000078
:1015700000000000362F0000000000000000000006
:1015800000000000006402401064024000000000FF
:101590000000000000380000000000000000000013
:1015A00000000000006402402864024001000000C6
:1015B00000000000063900000000000000000000EC
:1015C000000000000064024040640240020000008D
:1015D00000000000103A00000000000000000000C1
:1015E0000000000000640240586402400300000054
:1015F00000000000163B000000000000000000009A
:10160000000000000064024070640240040000001A
:1016100000000000203C000000000000000000006E
:1016200000000000006402408864024005000000E1
:101630000000000026440000000000000000000040
:101640000000000000640240A064024006000000A8
:101650000000000030450000000000000000000015
:101660000000000000640240B8640240070000006F
:1016700000000000364600000000000000000000EE
:1016800000000000C49A050860570508000000002B
:10169000F5900308A086010004000000000000008F
:1016A000000000000000000000000000000000003A
:1016B000000000000000000000000000000000002A
:1016C00000000000C49A05088C9E05080000000078
:1016D000313E0208E80300000400000000000000A2
:1016E00000000000000000000000000000000000FA
:1016F00000000000000000000000000000000000EA
:101700000000000064460508D877050800000000C6
:10171000A1A403087D0000000600000000000000F6
:1017200000000000000000000000000000000000B9
:1017300000000000000000000000000000000000A9
:101740000000000000000000000000000000000099
:101750000000000000000000000000000000000089
:101760000000000000000000000000000000000079
:101770000000000000000000000000000000000069
:101780000000000000000000000000000000000059
:101790000000000000000000000000000000000049
:1017A0000000000000000000000000000000000039
:1017B0000000000000000000000000000000000029
:1017C00000000000285B0508000000009D260108BD
:1017D000999E02085F7600000500000000000000EE
:1017E00000000000000000000000000000000000F9
:1017F00000000000000000000000000000000000E9
:1018000000000000805B05080000000000000000F0
:1018100019B20208102700000100000000000000BB
:1018200000000000000000000000000000000000B8
:1018300000000000000000000000000000000000A8
:1018400000000000949E0508000000000000000059
:10185000493C0208E8030000050000000000000009
:101860000000000000000000000000000000000078
:101870000000000000000000000000000000000068
:1018800000000000A09E050800000000000000000D
:101890008DF40308204E000003000000000000004B
:1018A0000000000000000000000000000000000038
:1018B0000000000000000000000000000000000028
:1018C00000000000B09E05080000000000000000BD
:1018D00079F20308204E0000030000000000000021
:1018E00000000000000000000000000000000000F8
:1018F00000000000000000000000000000000000E8
:1019000000000000C09E050800000000000000006C
:10191000B54A0208400D030003000000000000006B
:1019200000000000000000000000000000000000B7
:1019300000000000000000000000000000000000A7
:1019400000000000849B050800000000000000006B
:1019500059230408102700000100000000000000C7
:101960000000000000000000000000000000000077
:101970000000000000000000000000000000000067
:10198000000000008857050800000000000000006B
:10199000F1F901081027000003000000000000001A
:1019A0000000000000000000000000000000000037
:1019B0000000000000000000000000000000000027
:1019C000000000007C42050800000000000000004C
:1019D000293B0208A861000001000000000000008F
:1019E00000000000000000000000000000000000F7
:1019F00000000000000000000000000000000000E7
:101A000000000000885B05080000000000000000E6
:101A1000CD690208A00F00000100000000000000D6
:101A200000000000000000000000000000000000B6
:101A300000000000000000000000000000000000A6
:101A400000000000D09E050800000000000000001B
:101A5000352B0208102700000100000000000000E4
:101A60000000000000000000000000000000000076
:101A70000000000000000000000000000000000066
:101A8000000000009C4D0508000000000000000060
:101A90002D2002081A410000010000000000000093
:101AA0000000000000000000000000000000000036
:101AB0000000000000000000000000000000000026
:101AC000000000003C42050800000000000000008B
:101AD00091C4010810270000010000000000000070
:101AE00000000000000000000000000000000000F6
:101AF00000000000000000000000000000000000E6
:101B000000000000745705080000000000000000FD
:101B10004DB500081A41000001000000000000005F
:101B200000000000000000000000000000000000B5
:101B300000000000000000000000000000000000A5
:101B400000000000DC9E050800000000000000000E
:101B5000A1D10108400D03000000000000000000BA
:101B60000000000000000000000000000000000075
:101B70000000000000000000000000000000000065
:101B800000000000E49E05080000000000000000C6
:101B9000D70A0408400D0300000000000000000008
:101BA0000000000000000000000000000000000035
:101BB0000000000000000000000000000000000025
:101BC00000000000EC9E050800000000000000007E
:101BD000E935020850C300000300000000000000C7
:101BE00000000000000000000000000000000000F5
:101BF00000000000000000000000000000000000E5
:101C000000000000F89E0508000000000000000031
:101C1000EDF1030840420F0000000000000000004A
:101C200000000000000000000000000000000000B4
:101C300000000000000000000000000000000000A4
:101C400000000000049F05080000000000000000E4
:101C50004D1E040850C300000000000000000000FA
:101C60000000000000000000000000000000000074
:101C70000000000000000000000000000000000064
:081C8000000000000000803F9D
:108000000020704700207047F0B4067ABEB1427A73
:108010000C4C002120276AB10023142B07DC072910
:1080200004EB030003DCC578202D18BFC7700133B3
:108030009342F2D101318E4204F11504EBD10020BC
:10804000F0BC70473039002070B402EB42000C4C99
:10805000C0EBC000013B04440BE0142907D8072AF9
:1080600004EB010503D8EE78864218BFE8700131B1
:10807000C9B213F8010F0028EFD170BC704700BFE0
:108080003039002014290CD8072A0AD802EB420202
:108090000548C2EBC20202441144CA789A4218BF92
:1080A000CB700020704700BF30390020027A407A40
:1080B00002FB00F0704700BF027A407A02FB00F03A
:1080C000704700BF00207047002070474FF0FF301E
:1080D000704700BF4FF0FF30704700BF034B93F86D
:1080E0002921027293F82A314372704730410020EF
:1080F0000020704701207047012070470020704722
:10810000027A407A02FB00F0704700BF00207047FF
:108110000123C373184670470123C3731846704781
:108120004FF0FF30704700BF704700BF002070471E
:108130000120704700207047027A407A02FB00F06D
:10814000704700BF00207047002070470020704734
:108150001E2000FB0212024900208B54704700BF12
:1081600010160020014B1888704700BF88010020BE
:10817000014B002018607047EC42002000230222CF
:108180000271037043708370C3707047037913F0FA
:10819000020308D00369D0E90920013B101A1840F6
:1081A000C0B2181A7047184670470171704770477F
:1081B00003799B070AD5436A8269D154436A0169EE
:1081C0000133B3FBF1F201FB1233436270470379D1
:1081D00013F0010306D0D0E90732C0689B1A0138BA
:1081E000184070471846704710B5037913F0010323
:1081F00001460ED0FFF7EBFF50B10B6A4A69CC681D
:10820000D05C0133B3FBF4F204FB1233C0B20B6257
:1082100010BD1846FCE790F84B3830B53BB990F8E4
:10822000491890F84A380124DAB2914200D830BD9A
:10823000B0F8525804FA03F22A43A0F85228013346
:10824000F2E7D0E90920131A584258417047034B0E
:108250009A780AB901229A7000207047880100209C
:10826000174B184A93F8081231B31749097801BB24
:108270001649D160164A17491268C3F80C121179D1
:1082800083F81012D168C3F814121349C3F81812F6
:10829000517983F81C121169C3F820120F49C3F8F1
:1082A00024129179D26983F82812C3F82C22002075
:1082B00070470B49D160DDE70A49D160DAE700BFBA
:1082C000101600208801002002710020E4E3040859
:1082D00078700020FA700020FB700020FE700020F3
:1082E00070E40408E0E40408034BB3F83022034BC5
:1082F0004FF0FF301A8070471016002000710020E8
:10830000034B1A88034B0020A3F83022704700BFAC
:108310000071002010160020074B93F90030012B4C
:1083200006D0064BB3F83422A3F83222002070475F
:108330004FF0FF30704700BF940B00201016002054
:1083400008B5064B1A782AB1054A1278012A1CBFD3
:1083500000221A70FFF784FF002008BD0271002080
:10836000F8700020064B93F90020064B12B91A70E2
:10837000002070471A78002AFAD10122F7E700BFDF
:10838000940B0020FE700020104B114A93F8361217
:10839000517293F837129172B3F83812118093F832
:1083A0003F2283F83C22B3F84422A3F84022B3F8DA
:1083B0004622A3F84222B3F84C22A3F84822B3F88D
:1083C0004E22A3F84A220020704700BF101600205A
:1083D00058360020104A114B517A83F83612917AA0
:1083E0001288A3F8382293F83C2283F83F22B3F88E
:1083F0004022A3F84422B3F84222A3F84622B3F85D
:108400004822A3F84C22B3F84A2283F83712A3F883
:108410004E220020704700BF583600201016002062
:10842000094A0A4B92F8842083F8502293F8562286
:1084300083F8512293F8572283F8592293F858224F
:1084400083F85A2200207047703600201016002052
:10845000104A114892F85B3292F85D1203F00F0354
:1084600043EA012392F85F120901C9B20B43A0F855
:108470006C3092F85E1292F85C3292F8602203F04F
:108480000F03120143EA0123D2B21343A0F86E3066
:108490000020704710160020703600200E490F4B48
:1084A000B1F86C2002F00F0083F85B02C2F30310F6
:1084B000120A83F85D22B1F86E2083F85F0202F0A1
:1084C0000F0183F85C12C2F30311120A83F86012E1
:1084D00083F85E22002070477036002010160020BE
:1084E000074A084B92F8611283F86A10B2F86212D8
:1084F000B2F86422A3F86610A3F868200020704741
:108500001016002070360020074A084B92F86A10B7
:1085100083F86112B2F86610B2F86820A3F862120C
:10852000A3F8642200207047703600201016002047
:1085300008B566220249034845F0AEFD002008BD9B
:108540007036002076180020084A0949B2F8CC326B
:108550004B8292F8CE3292F8CF2203EB83035B007A
:108560000B82044B00209A70704700BF1016002049
:10857000B89F0020689D0020084A094B518AA3F843
:10858000CC12128A0A21B2FBF1F283F8CE22054AFC
:10859000927883F8CF220020704700BFB89F002058
:1085A00010160020689D002030B1007910F1FF30D6
:1085B00018BF4FF0FF3070474FF0FF307047114A3F
:1085C000114B528802F0010283F8D0220F4AD17871
:1085D00083F8D112117983F8D212517983F8D3122A
:1085E000D188A3F8D412117A83F8D612517A83F87D
:1085F000D7121178927A83F8D81283F8D922002002
:10860000704700BFB0B100201016002024390020B0
:10861000034B002083F8DA0283F8DB02704700BFC7
:10862000101600200A4B0B4A1B68B2F8DC12598066
:10863000B2F8DE12A3F84C10B2F8E0129980B2F84A
:10864000E212B2F8E422D9801A800020704700BFFD
:10865000DC3A0020101600200D4B93F8E6227C2116
:1086600001FB02320020B2F8EA12A3F8DC12B2F8E1
:108670003413A3F8DE12B2F8EC12A3F8E012B2F849
:10868000EE12B2F8E822A3F8E212A3F8E42270474F
:1086900010160020124B93F8842483F87C2493F85E
:1086A000852483F87D24B3F88624A3F87E24B3F8C8
:1086B0008824A3F880240B4AB3F88A141268A3F81C
:1086C0007814B3F88C14A3F87A14B3F88E14B3F8B2
:1086D0009034A2F86210A2F864300020704700BF06
:1086E00010160020DC3A0020134B93F87C2483F80A
:1086F000842493F87D2483F88524B3F87E24B3F88A
:108700007814A3F88624B3F88024A3F88824A3F867
:108710008A1493F8E622B3F87A14A3F88C147C2117
:1087200001FB02320020B2F84A13B2F84C23A3F83E
:108730008E14A3F890247047101600200D4BB3F848
:108740009224A3F86224B3F89424A3F86424B3F821
:108750009624A3F86624B3F89824A3F86824B3F801
:108760009A24A3F86A24B3F89C24A3F86C2400206C
:10877000704700BF101600200D4BB3F86224A3F819
:108780009224B3F86424A3F89424B3F86624A3F8DD
:108790009624B3F86824A3F89824B3F86A24A3F8BD
:1087A0009A24B3F86C24A3F89C240020704700BFDF
:1087B000101600201E4B1F4993F89E2430324A7435
:1087C00093F8E6227C2101FB0232002092F82F135D
:1087D00083F89F1492F8021383F8A01492F80313FD
:1087E00083F8A11492F8041383F8A214B2F81C13AE
:1087F000A3F8A414B2F81A13A3F8A61492F8371326
:1088000083F8A81492F85B1383F8A91492F85C1308
:1088100083F8AA1492F8561383F8AB1492F85713FE
:1088200092F8582383F8AC1483F8AD24704700BF46
:1088300010160020880100200D4A92F8E6327C21B3
:1088400001FB032392F8AE1483F84E1392F8AF1491
:1088500083F8521392F8B01483F84F1392F8B114BE
:1088600092F8B22483F8501383F851230020704704
:10887000101600200D4B93F8E6227C2101FB0232FA
:10888000002092F84E1383F8AE1492F8521383F836
:10889000AF1492F84F1383F8B01492F8501392F873
:1088A000512383F8B11483F8B224704710160020C6
:1088B0000F4B104993F89E2430320A7593F8B32475
:1088C00030328A7593F86C251A2101FB023202F5C9
:1088D0009A6103F2B44302F59D6251F8040B43F828
:1088E000040B9142F9D10A881A800020704700BF1A
:1088F00010160020880100200A4A92F86C351A21CF
:1089000001FB032303F59A6302F2B44102F2CC4265
:1089100051F8040B43F8040B9142F9D10A881A80EC
:10892000002070471016002010B5124A124992F824
:108930009E3430334B7492F8E61202F53A73C1EB71
:10894000411103EB8103002002F26D5102F27652D5
:108950001C7A0C705C7A4C709C7A8C709C8922F822
:1089600010400130032803F1060301F10301EFD1A8
:10897000002010BD10160020880100200749084B78
:108980000A7883F8E622013283F89E244A7883F835
:108990006C25013283F8B32400207047689D0020C5
:1089A00010160020094B93F8842583F8832593F84B
:1089B000852583F8802593F8862583F88125B3F8EB
:1089C0008825A3F87C250020704700BF10160020E2
:1089D000094B93F8832583F8842593F8802583F841
:1089E000852593F8812583F88625B3F87C25A3F89F
:1089F00088250020704700BF101600200A4930B5B6
:108A00000A4C002201F28A50135DA3F16105052D85
:108A10009CBF203BDBB283540132072AF4D10020F3
:108A200081F8910530BD00BF101600206C39050893
:108A3000084B93F89225012A074A06D893F8931514
:108A4000881E012888BF03219170B3F894351380E4
:108A50000020704710160020F43A002010B504469C
:108A600023790E2B00D110BD032B04D1D4F809308B
:108A70009868FFF7F3FF0E34F2E70B49D1F8983509
:108A80009A68134618790E280CD19B1A5A10074B76
:108A90005343013B91F8A12593FBF2F3013381F895
:108AA000A03570470E33EDE710160020B76DDBB62A
:108AB000084BD3F8A40510B558B1074CA169013192
:108AC00091FBF0F200FB121003EB8003A061D3F8DE
:108AD000A80510BD10160020880100200C4BD3F80B
:108AE000B825824210DA0B4A9278022A0AD0032A69
:108AF0000CD1D3F8BC351B6923B19842B4BF012017
:108B00000220704701207047002070470220704704
:108B100010160020F43A0020054B30B11A69186095
:108B200001321A6105221A75704704221A757047BE
:108B3000FC3A0020194BB3F8C825D3F8C005D3F888
:108B4000C41510B40132B3F9CA4592B201300131F3
:108B5000A242C3F8C005C3F8C415A3F8C8250FDAAC
:108B6000B3F8CE25B3F9D0155DF8044B013292B2BB
:108B70008A42A3F8CE25A4BF0022A3F8CE257047D1
:108B8000B3F8CC255DF8044B00210132A3F8CC25C5
:108B9000A3F8C815A3F8CE15704700BF1016002023
:108BA00010B44FF4FA7346F203444FF4C8419622CE
:108BB0000480818002814380C3805DF8044B70474C
:108BC0002DE9F041144D95F82A4184421AD9064600
:108BD00010468846174644F009FDA31B834204FB58
:108BE0000864A8BF03462C441A46204639461E4650
:108BF00045F07CFB4544002814BF0123002385F881
:108C0000203101D1BDE8F081324639462046BDE829
:108C1000F04145F041BA00BF30410020074890F8CC
:108C20002901904207D908B5084611461A46FFF7B0
:108C3000C7FF002008BD0020704700BF3041002062
:108C400030B583B014460D461A4601A8074925F0F1
:108C500099FB074B93F82931A34204D901AA214675
:108C60002846FFF7ADFF002003B030BDB43905083A
:108C70003041002010B5044B044C1A8804492046AA
:108C800025F080FB204610BD00710020E21B002073
:108C9000876C050810B5054B0549B3F8342203F27B
:108CA000D754204625F06EFB204610BD101600203C
:108CB000876C050838B50C4B0C4C4FF49072184675
:108CC000202145F03BFB0A4A03461268002001259B
:108CD0002D32C3F82001C3F8240183F8280183F85A
:108CE0002B51C4F8DC2538BD30410020101600207F
:108CF000A48B00200022C273DCE700BF082A07D83B
:108D000008B5084611461A4618F06CFC002008BD4C
:108D100000207047F8B507460026F5B20024E0B2FF
:108D200020222946013418F05DFC0C2CF7D10136C5
:108D3000092EF2D11B4D422201200021441C18F0C3
:108D400051FC15F8012FE4B22046002AF5D197F91D
:108D50000F302BBB144D14464D22E0B2022118F007
:108D600041FC15F8012F0134002AF6D10F4D2B22BA
:108D700002200321441C18F035FC15F8012FE4B241
:108D80002046002AF5D10A4D2B2202200421441C42
:108D900018F028FC15F8012FE4B22046002AF5D17E
:108DA0000020F8BDE0390508D0390508C4390508A8
:108DB000B839050810B50024C473FFF7ABFF20468F
:108DC00010BD00BFF8B5084617465E1E16F8015FD5
:108DD000421CD4B239462A462DB1082F01D818F0CA
:108DE00001FC2046F2E72846F8BD00BF70B50B4CE9
:108DF0004FF0FF3504F525762368DC34184643B17F
:108E000093F83430142B04D01DF0D4FD854228BFD4
:108E10000546A642F0D1284670BD00BFC49A002086
:108E200038B51B4B9B78022B18D0032B194C10D054
:108E30000020D4F8B83594F8E0251344B3F5807FCA
:108E4000A8BF4FF480738342A8BF0346C4F8B83567
:108E500038BDD4F8BC051DF0ADFDEAE700200E4991
:108E6000034641F2260503F5817201EB021205EB80
:108E70000314D279D20703F1010304D40A5D012A55
:108E800098BF00F50070082BEDD1024CD1E700BF70
:108E9000F43A00201016002050BD002010B50B4BF6
:108EA0000B4993F8E52593F8E435097882B00D3243
:108EB0001E330424027243728DF8044021B901214B
:108EC0000DEB040041F01CFB02B010BD1016002099
:108ED000E3390020F0B518468BB01C460E46174605
:108EE00044F084FB1E2828BF1E200323214602468F
:108EF0000546002402A88DF804308DF805708DF821
:108F000006608DF8074045F0C7F8064B1B7813B193
:108F100020460BB0F0BD291D01A841F0F1FA0BB0BD
:108F2000F0BD00BFE339002010B582B000248DF8F9
:108F3000043001AB8DF80540FFF7CCFF02B010BD47
:108F400000B5094B83B01B7804228DF804201BB1B7
:108F5000002003B05DF804FB01210DEB020041F09D
:108F6000CFFA03B05DF804FBE339002000B5094BEC
:108F700083B01B7802228DF804201BB1002003B0BF
:108F80005DF804FB012101A841F0BAFA03B05DF8D5
:108F900004FB00BFE339002000B5084B83B01B7809
:108FA00001218DF804101BB1002003B05DF804FB13
:108FB00001A841F0A5FA03B05DF804FBE3390020F5
:108FC00000B5074B83B01B7800208DF804001BB957
:108FD000012101A841F094FA03B05DF804FB00BF41
:108FE000E3390020ECE700BF70B50F4C94F8E96559
:108FF000054646B9012384F8E9353DF05DFB29F0CB
:10900000D1FA84F8E965094B94F855121A7F94F85F
:10901000543212F0400F14BF10220D220A441E33A6
:109020002A726B7270BD00BF1016002088010020EC
:109030003DF096BC08B5084611461A463DF0B4FC12
:10904000002008BD08B5064B93F8E92512B993F83E
:10905000EA350BB1002008BD29F03DF8002008BD1D
:109060001016002010B5094C94F856023DF020FD72
:1090700094F8581294F857023DF0B4FC20464FF48F
:10908000F072202145F05AF9002010BD1016002082
:1090900010B50C4658B120F087FC18B1032383713A
:1090A0000023C3712146BDE8104020F0F9BD10BD7A
:1090B00010B5044601210079FFF7EAFF62792068C4
:1090C0009108838902228A4023EA0203838110BD2A
:1090D00010B5044622210079FFF7DAFF6379226890
:1090E000990802238B409BB2D94389B2118291899E
:1090F0000B43938110BD38B5A0F664040022206CA8
:10910000344D03685A62A1F12903302B31D895F808
:10911000EB350133DBB2012B85F8EB350BD995F834
:10912000EC3585F8EB25B4F8522801335208A4F841
:10913000522885F8EC3595F8EC250023082AA4F888
:10914000543815D185F8EC35B5F8EE3501339BB2BE
:10915000032BA5F8EE3508D92379DB0705D5E36A9B
:1091600094F8520853B3216B98470023A4F852385F
:1091700038BD5B396C290ED8B4F8523885F8EB2528
:109180005B0843F08003A4F8523895F8EC350133BE
:1091900085F8EC35CFE794F84D38002BCBD1012181
:1091A00085F8EB35A5F8EE35802384F84D18A4F842
:1091B000523885F8EC1541F009F8BCE7E3696269BB
:1091C000D054E369E1680133B3FBF1F201FB1233E0
:1091D000E361CAE71016002038B5A0F664042379CD
:1091E0006579DB0722D594F8483803B3D4F84434C2
:1091F0001A68D36A5B08536294F84C3823B1B4F808
:1092000056380133A4F85638E94301F00101206CC7
:1092100040F0DCFF012384F84B38002384F8493800
:1092200084F84A38A4F8523884F8483838BD94F89D
:109230004B38012B04BF94F8493884F84A3820464B
:10924000FEF7E9FF94F84B384BB90123E94384F862
:109250004B381940206CBDE8384040F0B7BF0023C0
:1092600084F84B3805F00101206CBDE8384040F02F
:10927000ADBF73B590F85B38032B05460C462FD174
:109280000023204E8DF807309DF8073095F85C28B4
:109290009A4201D802B070BD9DF8073006EBC303B7
:1092A00093F8F4358BB184F0010383B19DF8073056
:1092B00006EBC303D3F8F00520F094FD9DF80730CA
:1092C0000133DBB28DF80730DEE72346EDE79DF88A
:1092D000073006EBC303D3F8F00520F07DFDEDE782
:1092E000036CC06BDB79DB0748BF81F0010424B15C
:1092F00002B0BDE8704020F075BD02B0BDE870401E
:1093000020F06ABD1016002070B5A0F5066494F830
:109310004D3893B1B4F8543801339BB2082BA4F8FC
:1093200054381CD9002184F84D18A4F85418206C26
:1093300040F04CFF94F84D388BB93E4E96F83036DD
:109340001BB901212046FFF794FF94F84C3853BB1A
:10935000D4E909239A4203D1002386F8303670BD40
:1093600096F83026022A12D802F1010214BFFF2318
:109370007F2386F83026A4F85038082384F84E3826
:10938000012384F84C38206CBDE8704090E65A1CEC
:10939000A169A262CB5C21698A4228BF0022DBB2AC
:1093A00028BFA262E7E794F94E38C3B394F8501887
:1093B00096F8315611F0010123D0012D03D8012177
:1093C0002046FFF756FFAB1E012B03D80021204695
:1093D000FFF74FFF0135EDB2032D86F83156BED9A8
:1093E000B4F850385B08A4F8503894F84E38013B74
:1093F0005BB2002284F84E3886F83126002BA7D0C5
:10940000ADE715F0FD0304D101212046FFF731FF40
:10941000E0E7012BDED12046FFF72BFFDAE7D4E9A6
:10942000091291429BD184F84C38206CBDE8704001
:109430004EE600BF1016002010B5A0F5066494F8A3
:109440004D381BBB94F84C288ABBD4E909139942C8
:109450001CD0591CA069A162C35C2069DBB25B000F
:1094600043F40073A4F850380A2384F84E380123DB
:1094700084F84C3894F85B38814228BFA262012BF3
:1094800001D0042B02D1206CFFF712FE94F848386B
:10949000002B6FD194F849380133DBB2092B84F8E3
:1094A000493827D12046BDE81040FEF7B4BE94F9F4
:1094B0004E387BB1B4F850184B08A4F8503801F07E
:1094C00001012046FFF7D5FE94F84E38013B84F8A1
:1094D0004E38DBE784F84C38D4E909239A42D5D1D9
:1094E00094F85B38012B01D0042BCFD1206CFFF70F
:1094F000EFFDCBE70A2B3DD194F84B382BB9B4F8EC
:10950000523843F00103A4F852382379D9070AD519
:10951000B4F85208820501D4C30718D4B4F85838F7
:109520000133A4F85838012284F8482894F84B28CD
:109530000023012A84F849381CD1617984F84B381A
:10954000206C01F00101BDE8104040F03FBEE36A2D
:10955000C0F3470013B1216B9847E4E7E369626900
:10956000D054E369E1680133B3FBF1F201FB12333C
:10957000E361D8E710BD08B5074B93F8321621B95F
:10958000012283F83226002008BD4B1E5942594162
:1095900049202EF0C5FCF6E71016002008B5044B54
:1095A000B3F8320240F400402EF0FAFE002008BD6D
:1095B0001016002008B50C4B93F90030012B0B4B13
:1095C00004D1002283F83326002008BD93F8330627
:1095D00018B9012283F83326F6E7012818BF0220C4
:1095E0002EF08AFEF0E700BF940B0020101600203A
:1095F00070B5124C124B94F900401A78012C0546B4
:109600000E4605D1012A01D001221A70002070BD3A
:10961000012A03D100202EF06FFEF7E7022AF3D1D2
:10962000084B002483F83346FFF7C4FF064B31464E
:1096300028461C70FEF784FEE8E700BF940B00206C
:10964000F8700020101600200271002010B50A4C9E
:1096500094F85002032801D819F0D2F994F8513245
:1096600084F8563294F8593284F8573294F85A32C2
:1096700084F85832002010BD1016002008B566226C
:109680000349044844F008FD18F07EFC002008BDA2
:10969000761800207036002008B5064B93F8DB02E0
:1096A00028B1054B01385978C0B235F075FC00205F
:1096B00008BD00BF10160020689D002008B5064BAD
:1096C00093F8DA0228B1054B01381978C0B20CF0D2
:1096D000B3FB002008BD00BF10160020689D0020CD
:1096E00038B51E4D95F8E6427C2303FB045495F8EB
:1096F0009F3484F82F331A4B18680CF0B3FB95F89D
:10970000A03484F8023395F8A13484F8033395F833
:10971000A23484F80433B5F8A434A4F81C33B5F8A3
:10972000A634A4F81A3395F8A83484F8373395F89A
:10973000A93484F85B3395F8AA3484F85C3395F83F
:10974000AB3484F8563395F8AC3484F8573395F835
:10975000AD3484F85833002038BD00BF1016002007
:10976000DC3A002038B50D4B0D4A1868002103463D
:1097700002F1090514781C7254785C7294789C721A
:1097800035F811409C810131032902F1030203F1F4
:109790000603EFD10CF066FB002038BDDC3A002058
:1097A0007D1B002008B5054B93F8B3040138C0B207
:1097B00083F86C0535F018FC002008BD1016002059
:1097C00008B5054B93F89E040138C0B283F8E60251
:1097D0001BF054F9002008BD1016002010B5054CF0
:1097E00094F8E6021BF04AF994F86C0535F0FCFB9E
:1097F000002010BD10160020F8B52E4DAB78022BBE
:109800004FD12BF0D5FD0446D8B92B492B482C4E0F
:1098100024F0B8FD22462B4F2B49334607F23C601B
:1098200024F0B0FD33462246274907F2446024F075
:10983000A9FDAB7887F893352B88A7F894350020DD
:10984000F8BD2BF0A5FD044630B920491B481C4E3D
:1098500024F098FD2246DEE71D4C6378022B16D0DB
:10986000032B1CD11B491548154E24F08BFD41F2EA
:109870007813E4584FF47A23B4FBF3F42BF082FD11
:109880004FF4FA630268B2FBF3F2121BC3E712490A
:109890000A480B4E002424F075FD2246BBE70B4915
:1098A000F6E70E4905480E4E002424F06BFD2246D3
:1098B000B1E700BFF43A002079390508441C0020C4
:1098C00076390508101600209239050881390508F7
:1098D00050BD0020873905088D3905085653050805
:1098E0009A5205082DE9F0411E4600238B55074684
:1098F00008460C46904643F079FE751E301A211832
:10990000254440426A1A002AA5EB040312DA2344D4
:1099100020211A1B002A11DA0023A355094B93F8C2
:109920004C16891B234642463846C9B2BDE8F04171
:1099300021F0E6BA2B5C05F80139E3E703F80119D9
:10994000E7E700BF1016002070B41B4A92F9A0454B
:1099500092F8A155214491FBF4F304FB1311D2F8C2
:10996000984582F89C15CBB2A1686B430E2404FB8A
:109970000313C2F8503602F2536419460E790E2EC4
:1099800012D1002182F864161E790E2ECCB201F19C
:1099900001010ED1AC42234628BF2B46013B82F881
:1099A000643670BC21F0D0BA4E7B04F8016F0E31E2
:1099B000E4E70E33E8E700BF1016002038B5164B79
:1099C000D3F89825526805461C46BAB994F865063E
:1099D00098B10138C0B284F8650604EBC00000F508
:1099E000CD6003C80D4B83E80300FFF746F8284617
:1099F00094F99C15FFF7A8FF002038BD93F99D0549
:109A0000D3F85036C0EBC00003EB4000904700286D
:109A1000DCDA4FF0FF30F0E710160020A81B002022
:109A200038B505460C4641B31D4BD3F898258A42FC
:109A300025D093F86526082A1FD8511C83F865168F
:109A400003F5B36103C903EBC20202F5CD6282E8FC
:109A500003000022C3F8984583F89D25236833B19D
:109A60009847013003D12846BDE83840A6E7FFF704
:109A700004F800212846FFF767FF002038BD93F95E
:109A80009D1593F8A12591FBF2F402FB141283F8C3
:109A90009D25FEF7F2FF21462846FFF755FFECE72C
:109AA0001016002010B9074A1075704710B5054C04
:109AB000606042F0CBFE4FF6FF720223A281237555
:109AC00010BD00BFFC3A00200B4B9B78022B08D046
:109AD000032B04D1094BD3F8BC051CF063BF002055
:109AE0007047074A41F29C03D358002B01DD2AF04E
:109AF0006FB90120704700BFF43A00201016002013
:109B000050BD00200FB400B583B004AB054953F835
:109B1000042B0193002023F0A7F803B05DF804EBB9
:109B200004B07047EDBF00082DE9F84F414FDFF852
:109B30002881D7F8B866344606F1440B44F8040B84
:109B400006F11009454608F1400A95ED006AD5ED89
:109B5000016A95ED027AD5ED037ABAEC010ABDEE01
:109B6000C66AFDEEE66ABDEEC77AFDEEE77AA4ECC2
:109B7000016AC4ED026A84ED057AC4ED087A44F006
:109B800009FB4C4505F114052BF8020BDDD12A4DDC
:109B900006F1340406F13C09B5EC010A44F0FAFA86
:109BA00024F8020B4C45F7D1244D06F14209B5ECDF
:109BB000010A44F0EFFA24F8020B4C45F7D1DFED2F
:109BC000207A98ED160A20EE270A44F0E3FA1D4B9E
:109BD0001D4AA6F8420011781A885888A6F8502025
:109BE0009A88DB88A6F85200A6F85420A6F85630CA
:109BF00071B106F15803154A03EB4101F2EC017A09
:109C0000FDEEE77A17EE900A23F8020B9942F5D1A0
:109C10000F4A104B52885B68F367A6F878200AF069
:109C200019F8B7F8CE36A6F88000A6F87230BDE86D
:109C3000F88F00BF10160020D838002068000010F0
:109C400000007A44D0890020102600101C26001045
:109C5000F0390020F83900201C0000102DE9F04FE9
:109C6000954CA3789A1E012A87B040F29E8003216A
:109C7000A170802038F0E4FA0746002800F09C80AC
:109C8000802138F0D3FA7E798C4B97F902C053F8D3
:109C900026208B4DB2F5613F14BF00270227022119
:109CA000002385F8D4060092CDE9011760461A46D4
:109CB000802138F021F90C3E032EC5F8BC0500F2D6
:109CC000DF80402385F8E035002876D07D4A95F87E
:109CD0007A987D4BE678116893F80AC07B4ADFF8E2
:109CE00008A293F80980BAF802A092F800E095F86B
:109CF0007C28774BA5F878A819F1000918BF4FF018
:109D00000109003618BF012611F0020F08BF002616
:109D100000211CF0FD0F14BF4FF0010A8A46B8EB7A
:109D2000010827886B4C6C48C5F8D816A2F1190CAD
:109D300018BF4FF00108BEEB010E03F1140B18BF62
:109D40004FF0010EBCFA8CFC012AC3E90111C3E9F2
:109D5000031103F198022468C5F8B8B64FEA5C1CF9
:109D600003F58E7B08BF4FF0010C17F1FF37C5F8E4
:109D7000BC26C5F8C0B6049490F800B0059518BF8D
:109D800001270A460C460120D3B2591E15291CD8BA
:109D9000DFE801F03434343434343434301E1E28D7
:109DA000241E4B3E3E3E4F192C1E032B3FF461AF49
:109DB0004A4B5A78012A73D8414D002385F89235D1
:109DC00007B0BDE8F08F314631B100FA02F10C4323
:109DD0000133DBB2162B30D80132D5E751460029CA
:109DE000F3D1F9E741460029EFD1F5E771460029A3
:109DF000EBD1F1E761460029E7D1EDE79B4534BFA0
:109E0000002101210029E3D000FA02F10C43DFE731
:109E1000049D02EB420105EB410111F8561C003193
:109E200018BF01210029EFD1D2E749460029CCD142
:109E3000D2E739460029C8D1CEE7059D1320C5F8E1
:109E400080480FF0C1F9D5F88C48D5F8941885F8FA
:109E5000840800230222C5F8C435A5F8C835A5F842
:109E6000CC35A5F8CE35C5F8C03585F89C38C5F891
:109E70008848C5F8901885F8922507B0BDE8F08F9E
:109E8000174B184A1B6803EB4303A2FB03235B0930
:109E900010D0402BA8BF4023DBB285F8E03513E794
:109EA00041F2B5129B5C002B86D1054D402385F80D
:109EB000E0350BE70123F0E7F43A00201003050832
:109EC00010160020F038002058360020CD890020E0
:109ED000E81C0020DC3A00201026001050BD0020B5
:109EE000C02E0010D34D6210F039002008B5084B89
:109EF0009B78032B06D0FFF7B1FE064B012283F8B7
:109F00009D2808BD42F03EFD0028F4D008BD00BFEA
:109F1000F43A002010160020072937DCF0B500EBDA
:109F200081001B4F83B00D4600F1F70420262A461E
:109F3000394601A824F026FA9DF80430E21EABB1A0
:109F40009DF8052004F8033C2346CAB19DF806108D
:109F500004F8022CB9B104F8011C01350022082DC7
:109F600004F104041A70E2D103B0F0BD0220531EC4
:109F7000111803F8016F9942FBD1431C1344ECE71D
:109F8000A21E0120F3E704F8016CE6E7704700BF6A
:109F9000EC3905082DE9F04100EB01130024DFF84E
:109FA00080805C8082B007460E469C80DC801C81ED
:109FB0005C819C81DC811C8200F1D2050134284641
:109FC0002246414624F0DEF9082C05F10205F5D1C0
:109FD000721C1249684624F0D5F906EBC60282329B
:109FE00069463A4411F8013B013C63B102F8013B78
:109FF000002CF7D1374400233136137087F8CA603C
:10A0000002B0BDE8F081531E1019202103F8011F92
:10A010008342FBD101342244ECE700BFF439050848
:10A02000743F050810B411F8013B541E4BB100F801
:10A03000013B2246002CF6D1002303705DF8044B4F
:10A040007047002AF8D0431E0119202203F8012F7F
:10A050009942FBD101342044002303705DF8044B86
:10A06000704700BF2DE9F0473A4E96F8A42896F8BD
:10A07000A538C6F8A028C6F8B83906F6261506F59C
:10A080001C6806F66E1E06F6E11C06F6A40706F628
:10A09000EC1A06F6FC1900243A190AEB040309EB42
:10A0A000040032F8021F23F8021B8342F9D1103456
:10A0B0001EF8013B48F8045B802C0CF8013B05F1CD
:10A0C0000905E9D1244B254A96F886C9C6F8BC296A
:10A0D000991CC6F8741A191DC6F8781A991DC6F885
:10A0E0007C1A03F10801C6F8801A03F10A01C6F8C8
:10A0F000841A03F10C01C6F8881A03F10E01C6F8A0
:10A100008C1A174AC6F8703A2D2186F8E019C6F85D
:10A110006C2ABCF1000F15D007F1E40203F1120024
:10A1200003F58C7403F1220102EB4C0203F59773E3
:10A1300030F8025B43F8041B824224F8025F01F10D
:10A140000401F5D1074BC6F8C4CAC6F8A03ABDE869
:10A15000F08700BF10160020861F0020FC3905087C
:10A160009C4E05085653050888B100290EDD037979
:10A170008B420BDB002A09DD4379934206DB02EBBD
:10A18000C102093A836833F8120070470020704713
:10A1900008B5064B597F41B19A7F32B1044B18681C
:10A1A000FFF7E2FF034BA3F8C80A08BD88010020AF
:10A1B000787000201016002008B5054B9A7F1AB958
:10A1C00001229A77002008BDFFF7E2FFFAE700BFFF
:10A1D0008801002008B5054B5A7F1AB901225A7729
:10A1E000002008BDFFF7D4FFFAE700BF8801002078
:10A1F00008B5054B1A78054B1978054B1868FFF719
:10A20000B3FF044B188008BDFB700020FA700020DB
:10A2100078700020FC70002008B5074B93F90020EF
:10A22000064B12B91A70002008BD1A780AB901222B
:10A23000F8E7FFF7DDFFF6E7940B0020FA70002047
:10A2400008B5074B93F90020064B12B91A7000208D
:10A2500008BD1A780AB90122F8E7FFF7C9FFF6E747
:10A26000940B0020FB70002070B5384B86B01A7834
:10A270008DF80C205A788DF80D2000269A78CDF8AC
:10A280000E608DF80E209A88ADF810201A7ACDF85D
:10A29000126003AD8DF8142095E807006C4603C4E6
:10A2A00022802B4A1278022A1C4632D1294B197877
:10A2B000294B8DF800101A78284B8DF8012018686A
:10A2C000FFF752FF264BADF8040093F83336E3B99D
:10A2D00005202EF011F8234B0A221E788DF802601B
:10A2E0006946284644F002F858B19DF800302370C2
:10A2F0009DF801306370BDF80430A670A3801BF098
:10A300005BFF4FF0FF3006B070BD06202DF0F4FF6C
:10A31000E1E7154B1B7873B90E4B19780E4B8DF88E
:10A3200000101A780D4B8DF801201868FFF71CFFFC
:10A33000ADF80400CFE730462DF0DEFF0B4B8DF873
:10A3400000601B88ADF80430C5E700BF7C700020BA
:10A35000F8700020FA700020FB7000207870002058
:10A3600010160020FE7000200271002000710020F5
:10A3700003685B6A184703681B6A1847F8B5204FE3
:10A380003E68002E39D01F4B1B780BB11E4A537705
:10A390001E4B1B780BB11C4A9377FFF7F9FE1C4B41
:10A3A0001C4C1B78013384F832361B4B1B883BB1A5
:10A3B000154D3868A91CFFF7DEFF08B90123AB7003
:10A3C0003279164B84F8D02AF268C4F8D42A5A1C81
:10A3D000C4F8D82A727984F8DC2A3269C4F8CC3AF5
:10A3E000C4F8E02A1B3BC4F8E43AB37984F8E83AAD
:10A3F000F369C4F8EC3A0020F8BD4FF0FF30FBE7FA
:10A4000078700020D966002088010020DA660020DC
:10A41000D466002010160020D6660020A50100207A
:10A420000368DB69184703685B69184730B405792E
:10A430008D4206D34579954203D3036830BCDB686F
:10A44000184730BC704770B5104E114C3568617FAD
:10A45000A27F2846FFF7EAFFA178AB798B4203D3AE
:10A460002B6828461B6998470A4D2DF0F1FC617F47
:10A47000A27FA378306829706A70AB70FFF774FE12
:10A48000A8801BF099FE4FF0FF3070BD787000205F
:10A49000880100207C70002010B103685B681847B9
:10A4A000FF2070472DE9F04F0C46002185B007468C
:10A4B000084616461FF0A4FC002101201FF0A0FC56
:10A4C00034F098FA022E00F09381042E44F6C0185E
:10A4D00018BF4FF49648C14800232425024602E0E5
:10A4E0000133052B06D005FB0301897911F0040126
:10A4F000F6D0D9B22144C9B2042913D8032E00F0F2
:10A500007D8101EBC103B64802EB8303036424237E
:10A5100003FB0121CB79990740F17081B14B0022F7
:10A52000C3F8F02A05B0BDE8F08F012E08D1D4F8A9
:10A530004404414642F022F8206C41F0FBFFCBE19D
:10A54000022E08D1206CFEF7B3FD4146D4F8440436
:10A5500042F014F8C0E1032E40F082804FF0000971
:10A5600084F85C98402249469F48DFF880B243F067
:10A57000E5FE9A4B8DF80E909DF80E20072A09D91A
:10A5800001219748FEF775FE4146D4F8440441F096
:10A59000F5FFA1E19DF80E2002EB42020BEBC20297
:10A5A000527C002A4ED09DF80E2002EB42020BEBAB
:10A5B000C2025269002A45D000228DF80F204FF0C8
:10A5C000240A9DF80F20042A2CD89DF80E909DF89F
:10A5D0000F2001930AFB02325FFA89F909EB49095E
:10A5E00010790BEBC9091FF0DFF9D9F81420019B92
:10A5F00082422ED19DF80F0000EBC00003EB8000DB
:10A60000FEF756FD9DF80F20019B0AFB023A9AF8CF
:10A610000720D20706D594F85C2805EBC202012179
:10A6200082F8F4159DF80E2094F85C1802EB4202B3
:10A630000BEBC20205EBC1005269C0F8F0250131F5
:10A6400084F85C189DF80E200132D2B28DF80E20ED
:10A6500092E79DF80F200132D2B28DF80F20B0E7BB
:10A66000042E40F03981206CFEF722FD5FE7D5F81B
:10A67000F00A1CF09BF9014638461CF0A3F93AE1B8
:10A6800038461CF093F995F8032B03469AB9242811
:10A6900003D14FF0010285F8032B012E05D1194695
:10A6A000384601931CF08EF9019BD5F8F00A194643
:10A6B0001CF088F935E1012A06D14D2814BF00228B
:10A6C000022285F8032BE8E7022A06D13C2814BFB2
:10A6D0000022032285F8032BDFE7032A10D10A2882
:10A6E00002D985F8038BD8E7042285F8F60A85F8A5
:10A6F000F58A85F8F88A85F8F70A85F8032BCCE700
:10A70000042A09D195F8F72A85F8040B424085F808
:10A71000F72A85F803BBC0E7052ABED195F8F51ADC
:10A7200095F8F69A95F8F70A494509D24A1C294442
:10A73000584085F8F70A85F8F52A81F8F93AACE728
:10A740009842CED195F8041B85F803ABF429A4D127
:10A75000B9F1000FA1D12421384685F8039B1CF0E4
:10A7600031F94D2138461CF02DF93E2138461CF0B8
:10A7700029F9494638461CF025F9F42138461CF0E1
:10A7800021F9F42138461CF01DF9032E18D0206C55
:10A79000437901689D080223AB40DB439BB20B82E7
:10A7A0008D892B408B8100792021FEF771FC206C74
:10A7B0004A4649461AF066FF236C18682CF0D2FE10
:10A7C0000022D4F8440411461AF05CFFD4F8443453
:10A7D000186805B0BDE8F04F2CF0C4BE0C32050877
:10A7E00044B2002010160020001C00207C2D001018
:10A7F000FF2C4FF416487FF46EAE0326514C524D99
:10A8000084F85B6895F8F40A1BF044F94F4B236019
:10A8100004F1440103234FF480622371616100233A
:10A8200004F589614FF00109032EC4F84404C4F80B
:10A8300008806371E362E260C4E90733A1612261C9
:10A84000C4E9093384F84C38A4F84898C4F854385B
:10A85000A4F8583884F85A380DD0D4F840A09AF8A3
:10A8600004001FF0A1F8E0635046FEF731FC4946B2
:10A870002046FEF7FEFC32201BF0A0FE002E7FF4E7
:10A8800054AED4F84484D8F800002CF06BFE404657
:10A890002F4A22211AF06EFF2E4BC4F86038324640
:10A8A0002D4940461AF0EEFED4F84080D8F800005A
:10A8B0002CF058FE264A4FF6FF7140461AF05AFF18
:10A8C000314640463FF082FC244BC4F8643832469F
:10A8D000234940461AF0D6FEC5F8F04A4FF0060A62
:10A8E000022E12D0D5F8F00A1CF068F868B10121E8
:10A8F00000201FF085FAD5F8F00A1CF05FF8014639
:10A9000000287FF4B4AE1FF07BFA38461CF056F8EE
:10A9100088B1012108461FF073FA4FF0050B4FF084
:10A92000000838461CF04AF8014600287FF4A8AE1B
:10A9300001201FF065FA042ED4D005201BF03EFE46
:10A94000CEE700BF44B200201016002028E504081E
:10A9500040420F0009930008A4BA0020F7900008B5
:10A96000A8BA00202DE9F04F6F4B85B01B780390FB
:10A97000002B7CD06D4A1378924603F0FF0E002B1B
:10A9800075D16B4EDFF8B081B6F80C3B02934FF0F7
:10A990003C09B6F80E3B96F8081B96F8097B96F82A
:10A9A0000A2B01934C4698F8023098F80350C3F1F3
:10A9B000FF039BB2002B00F0B380C3F1FF036B4396
:10A9C000B8F800C0BCFBF9FB1B12BBF1050F0DD89A
:10A9D000DFE80BF0035062728494DAB2EB1A0CFBDE
:10A9E00003F3B3FBF4F71744FFB22946039B012B93
:10A9F0000BBF3B020B0243EA014343EA0743134305
:10AA00000025C5F1170C012000FA0CFC01981CEA86
:10AA1000030F8446029814BFE346834605EB0E0CF1
:10AA200044480135182D40F82CB0EAD10EF1180E2B
:10AA3000BEF5407F08F10408B5D101238AF8003043
:10AA4000D6F8103B86F80A2B40F22A325A60D6F824
:10AA5000142B86F8081B00215162118886F8097BA7
:10AA600041F0010111801A6842F001021A6005B03C
:10AA7000BDE8F08FBCFBF4F104FB11CC1FFA8CFC99
:10AA8000DAB2CCF13C0CEB1A03FB0CF1B1FBF4F1A4
:10AA90001144C9B22F46A9E7BCFBF4F204FB12CC67
:10AAA000D9B21FFA8CFCEB1A0CFB03F2B2FBF4F2E6
:10AAB0000A44D2B22F4699E7BCFBF4F204FB12CC55
:10AAC0001FFA8CFCD9B2CCF13C0CEB1A03FB0CF353
:10AAD000B3FBF4F70F44FFB22A4687E7BCFBF4F25E
:10AAE00004FB12CCDFB21FFA8CFCEB1A0CFB03F355
:10AAF000B3FBF4F13944C9B22A4677E7BCFBF4F260
:10AB000004FB12CC1FFA8CFCDFB2CCF13C0CEB1A2C
:10AB100003FB0CF2B2FBF4F23A44D2B2294665E7E9
:10AB20002A462F46294661E7FE420020FF420020C8
:10AB3000101600202C4300202C380020044A00234B
:10AB4000016842F823100133202BF9D1704700BF70
:10AB50002C3800202DE9F0417E4E96F8008094B00C
:10AB6000B8F1000F40F08C817B4B1F78002F00F074
:10AB7000878138461AF08EFF784C0368C4F8143B7E
:10AB8000C3680546002B00F07B8138461EF00CFFA1
:10AB9000C4F8180B18B12923837180F807802A7A2A
:10ABA0006F4F2A211EF0C8FFD4F8140B1AF0EEFEE6
:10ABB0003DF0A6FED4F8140B6A4903886A4A23F0D4
:10ABC00001031B041B0C8842038011D0DFF89CC1D9
:10ABD000136860450CD00CF5804C604508D00CF52E
:10ABE000806C604504D00CF5806C604540F09A8024
:10ABF0001368BB4240F29C8088420FD05B4FB84242
:10AC00000CD007F58047B84208D007F58067B842F6
:10AC100004D007F58067B84240F0878003F1B7732E
:10AC200003F55853524FB3FBF7F3013B9BB28842F5
:10AC30000ED04E4FB8420BD007F58047B84207D030
:10AC400007F58067B84203D007F58067B84272D134
:10AC500017685A1C4FF0030CB7FBF2F7454AB7FBD5
:10AC6000F2F7BAB2B2FBFCF24FEA420CA4F80ECBF8
:10AC7000DFF8F8C0A4F80C2B0288604592B210D01F
:10AC800088420ED0B0F1804F0BD0ACF57C4C6045C3
:10AC900007D00CF5806C604503D00CF5806C6045E6
:10ACA00002D122F0700292B2DFF8CCC0604506D02B
:10ACB0000CF5806C60451CBF22F4407292B2028099
:10ACC000C7620385294B984201D0884201D10023F5
:10ACD00003860023CDE90233012282820493ADF87A
:10ACE0000430EB7960210091990727D5DB0004221D
:10ACF00003F00803ADF80420ADF80E3000230293F2
:10AD000069796A461AF00AFA6979D4F8143B0C2971
:10AD10003CD8DFE801F0333B3B3BB83B3B3BC13B1E
:10AD20003B3BCA00B7EB530F04D213685B0875E7CF
:10AD300000237CE7002317687F088AE75B00ADF8F3
:10AD4000022003F002034FF48072ADF81020ADF83A
:10AD50000C30D3E7FE420020D44F00201016002014
:10AD6000FF6BDC0200040140789E002000000140DF
:10AD7000006CDC0200350C00001000401A8B22F041
:10AD800008021204120C42F008021A83B3F844209D
:10AD900042F40042A3F844201A8842F080021A804C
:10ADA000EA7997074CBF0422012202FA01F11A8CBA
:10ADB00089B222EA01021A841A8C114319841A8872
:10ADC00042F001021A8029210022287D3CF052F92C
:10ADD00060223A49287D00233CF0B4F8E868C4F8C2
:10ADE000100B2CF03FF9D4F8100B036823F001038B
:10ADF00003602CF037F905A82CF0F6F8D4F8143BD2
:10AE00006A79343313440693002740F22A33CDE99C
:10AE100009374FF480630B932B690593284B0793F5
:10AE2000402308934FF480514FF48043CDE90C1335
:10AE30004FF440304FF4807305A9CDE90E30D4F8BB
:10AE4000100B2CF0E3F86B79D4F8142B0C2B9CBF6F
:10AE50001C4931F81330918988BF3B460B439381DD
:10AE6000D4F8102B136843F01003136005A80023D7
:10AE70000593FFF763FE0120FFF774FD0123337094
:10AE800014B0BDE8F0811A8B22F400621204120C97
:10AE900042F400621A8379E79A8B22F008021204C6
:10AEA000120C42F008029A8370E79A8B22F4006237
:10AEB0001204120C42F400629A8367E7054E0408FC
:10AEC0002C430020E432050810B5194C94F8D03218
:10AED00033B3184A136843F480331360FFF73AFE24
:10AEE000154B01221A7094F8D122144B022A98BFF4
:10AEF000DA7094F8D2221A7194F8D3225A71B4F805
:10AF0000D422DA8094F8D6221A7294F8D7225A7290
:10AF100094F8D8221A7094F8D9229A72002010BDA1
:10AF200017F0F0FD4FF4803021F026FDDBE700BF85
:10AF300010160020B0B10020FD420020243900206E
:10AF4000F8B5594C94F90020002A62D0574B93F879
:10AF5000081209B983F80822B3F8341219B9E18844
:10AF600009B1A3F834125249088810B9A08800B179
:10AF70000880022AE17805D111F0080218BF0122E9
:10AF800083F833264B4B4C4A1B784C4DD35CEB7704
:10AF90004B4B4C4E1B783068002B3FD194F901305D
:10AFA000082293FBF2F20132002833D04769BA5CE1
:10AFB00085F8212080B35A4202F0070203F007030C
:10AFC00058BF53420133026952F823301B7885F889
:10AFD000223001F00A030A2B3B4F26D1E2883B497D
:10AFE000384623F0CFF9202385F82830E3789A07F4
:10AFF0003AD513F0040F0CBF4F23492385F82A30AC
:10B000005223502285F82B30002385F8292085F81B
:10B010002C30F8BD3F22CBE72D4BD7E7552385F8E1
:10B020002130462385F82230D3E7C90705D5A28809
:10B030002649384623F0A6F9D5E794F9011030687F
:10B040004B4203F0070301F0070258BF5A42013296
:10B05000082391FBF3F10131FFF786F81B49024603
:10B06000384623F08FF9BEE794F9002094F90230B6
:10B07000022A07D0272B11DC182B11DC0F2BD4BF91
:10B080000023012332686AB10133D26952F82320C8
:10B0900010491148BDE8F84023F074B90323F1E7E3
:10B0A0000223EFE70A4AF3E7940B00201016002072
:10B0B00000710020F87000209A39050888010020EE
:10B0C000F970002078700020AC010020876C050822
:10B0D000983905087C520508B10100203C4A1178D6
:10B0E00070B53C4C002949D1D4F8A43513B9C4F843
:10B0F000203B70BD384B98690028B8BF99619B69A7
:10B1000004EB8303D3F8A835C4F8203B002BF0D020
:10B1100001231370314BC4F898354FF400500023CD
:10B12000A4F89C3584F8653637F04AFAD4F8200B39
:10B130001FF0FCFED4F8200B437A027A112B4FF05B
:10B14000010136D884F8241B022184F8251B002134
:10B1500084F8261B510884F84C3684F8A115017B2D
:10B1600031B1002184F8261B84F84C3684F8A125DF
:10B17000D4F89815BDE87040FEF752BCFDF798FC76
:10B18000D4F8205B85420646B3D094F89D2594F808
:10B190009C1594F8A13501FB032384F89D352B6899
:10B1A00028465B689847EB7BC4F8206B013BEB7348
:10B1B000BCE784F8251B022184F8261B991E002574
:10B1C00084F84C16911E84F8245B84F8A115C6E718
:10B1D000275000201016002088010020C801002000
:10B1E000F8B5BE4BD3F8982506460D461C460AB95D
:10B1F000FA2005E0062904D1FFF770FF4FF4FA703A
:10B20000F8BD05290ED193F8272B2AB1002283F827
:10B21000272B4FF4FA70F3E73046FEF7CFFB4FF4DD
:10B22000FA70EDE7072908D10022AD4983F8272BF2
:10B23000FEF7F6FB4FF4FA70E2E7022945D193F8E6
:10B24000277B5FB993F99D3594F86426934233DAEE
:10B25000013384F89D356B1E012B03D894F8273BEE
:10B26000002BC5D094F99D35D4F85016C3EBC3021A
:10B2700001EB42010A79013A0C2AB9D801A050F831
:10B2800022F000BF7FB3000865B300082BB30008AD
:10B2900041B3000891B300086BB40008F9B300088B
:10B2A000AFB40008E9B40008F1B10008F9B3000830
:10B2B000B5B3000827B4000894F89C15013149B2D1
:10B2C000FEF742FB84F89D75C5E70129C3D193F8C9
:10B2D000273B002BC2D194F89D15D4F850264B1E65
:10B2E0005BB2C3EBC30002EB400084F89D350079EC
:10B2F00020B9002BC4BF023984F89D1594F99D35FF
:10B30000581C06D0C3EBC30302EB43031B79002B8D
:10B31000A4D194F89C15013949B23046FEF714FBCC
:10B3200094F8643684F89D3595E7042D7FF460AF7A
:10B33000D1F809103046FEF773FB4FF4FA705FE75F
:10B34000D1F80530002B3FF453AF042D7FF450AFFC
:10B35000D1F809103046984701303FF45DAF4FF403
:10B36000FA704DE7D1F80530002B3FF441AF042DC2
:10B370007FF43EAFD1F8091030469847EFE73046EA
:10B38000FEF71CFB002384F8273B4FF4FA7037E7E5
:10B39000D1F80920002A3FF42BAF291F4D424D411F
:10B3A00015701C44FA2094F8542642F0010284F8E7
:10B3B000542625E7D1F8091000293FF419AF042DD0
:10B3C00094F8272B40F0B280464922B9012284F834
:10B3D000272B8A65E5E78A6D022AE2D801328A6561
:10B3E000DFE7012D40F094803E4A926D0A3295408D
:10B3F0000A8815430D80D4E7D1F8090000283FF4EE
:10B40000F7AE0768042D3A7806D1457995423AD9C6
:10B41000807902443A7036E00579954233D28079DA
:10B42000121A3A702FE0D1F809000268042D13783F
:10B4300016D10079984201D901331370D1F8053043
:10B440001BB1D1F809103046984794F99D351C443A
:10B45000FA2094F8543643F0010384F85436CFE6CA
:10B46000002BEBD0013B1370E8E7D1F8090000286E
:10B470003FF4BEAE07683A78042D55B212D190F968
:10B4800005C0AC45C4DC1C4494F8542642F00102CB
:10B4900084F85426D1F80530002B3FF4A9AE30468D
:10B4A0009847A5E690F904C0AC45ECDAB7E7D1F8C7
:10B4B000090000283FF49CAE0768042D3A8806D1A5
:10B4C000C5889542DFD9008902443A80DBE7858848
:10B4D0009542D8D20089121A3A80D4E7101600207B
:10B4E000D401002088010020D1F8090000283FF491
:10B4F0007FAE0768042DB7F9002004D1B0F90650DB
:10B500009542C0DDDFE7B0F904509542BBDAE1E7D0
:10B51000022D7FF446AF0C4A906D01220A3002FAE8
:10B5200000F00A8822EA00020A803AE7002A3FF483
:10B5300038AF032D7FF455AF03498A6D012A7FF69A
:10B5400030AF013A8A652CE7880100202DE9F04FE1
:10B550007D4CD4F8A435002B8BB0804638DBD4F872
:10B56000283B03F543435033984231D3774BC4F81B
:10B57000280B1E7866BB764B1B781BB9754B1B7866
:10B58000012B25D0744B1F782FBB744BDA88A2F2A5
:10B59000E342B2F5F97F16D8B3F9041040F2E14264
:10B5A000914210DCB3F9022040F2D6639A420ADDE0
:10B5B0006B4B1B78DF0706D4FFF790FD694B4FF408
:10B5C000FA72A3F85C20684B1A685F4BC3F8302B03
:10B5D0000BB0BDE8F08F94F81C5BD4F820BBDFF80B
:10B5E00084914FF47A73B8FBF3F30193EDB12946DC
:10B5F0005846FFF7F5FD0023A9F85C0084F81C3BD2
:10B60000D4F85036002B40F0B1804F4C019AD4F85A
:10B61000343B03F5FA739A42D5D9D4F8200B1FF0C6
:10B6200061FC019BC4F8343BCDE74C4BD988B3F99E
:10B630000220A1F2E341B1F5F97F194614D8B3F91C
:10B64000040040F2E14398420EDC40F2D6639A4295
:10B650000EDD434B1B7813F0010F0CBF06250125AF
:10B66000D9F8643001331BE040F2D6639A4225DCFE
:10B6700040F2E1439A4223DDB1F90000984221DD16
:10B6800040F2D66290421FDCB1F9041099421DDDF0
:10B6900091421DDC01230022C9F86030C4F82C2B34
:10B6A000B9F95C20C9F86430002A13DDD4F8303BC6
:10B6B0001344019A9B1AA9F85C30A1E70125CFE752
:10B6C0000225CDE70325CBE70425C9E70525C7E714
:10B6D0000725C5E7002D93D04FF0000AD9F8603058
:10B6E0005046534526DC033D00B2012DA9F85C000D
:10B6F00086D8D9F86430142B82DDA3F1140290FBB4
:10B70000F2F03228A9F85C003FF77AAFD4F82C2B7E
:10B710000AB9C4F82C3BD4F82C2B9B1AD9F860201A
:10B72000052193FBF1F313448B42C8BF0B46C9F8C4
:10B73000603065E72946584600930AF1010AFFF791
:10B740004FFD009BCDE700BF10160020A23D00205A
:10B75000F63900203466002027500020B038002041
:10B760007470002088010020A48B002094F8243BF2
:10B77000D4F8205B002B40F0BF8094F864262B7A2D
:10B780009B1A022293FBF2F3DBB20093D4F8383B0E
:10B7900003F5C333A03398452B6888BFC4F8388BB2
:10B7A000DB6A284688BF3E4698476A7B87B2002AF4
:10B7B00000F0B080D4F85026002311790E2903F14F
:10B7C000010040F09C8000236B73D4F8500694F87D
:10B7D0009D3559B2C1EBC10200EB4202013312792F
:10B7E000DBB2002AF5D095F90E2084F89D15002AC9
:10B7F0000EDB8A4225D094F8253B009903FB021208
:10B80000D2B2B44B94F8261B28461FF079FB3F1A9E
:10B810001D2F7FF6FAAE94F99D2595F90E309342CF
:10B8200012D094F8253B009903FB0212D2B2AA4B26
:10B8300094F8261B28461FF063FB94F89D35AB73E4
:10B840003F1A1D2F7FF6E1AEDFF8A892D4F85066BC
:10B8500000230393CA469DF80C8099F8A13543450F
:10B860007FF6D3AE33790E2B3FF4CFAE09EB08044D
:10B8700094F85426900719D5009899F8261B99F842
:10B88000252B002B18BF013102FB08023368D2B20E
:10B89000C9B228461FF034FB94F854363F1A23F0FF
:10B8A00002031D2F84F854367FF6AFAE0AEB08036F
:10B8B00093F85426D10740F18180009B9AF8254BDC
:10B8C00004FB08349AF8243BE4B20BB10134E4B22F
:10B8D00033790D2B00F25F81DFE813F04A015D013F
:10B8E0005D01480048007500EF00E4000E010E0104
:10B8F0003800190194008B000123009346E754FAA5
:10B9000083F30E3293F8541641F0030183F8541672
:10B91000034652E7002E3FF458AF94F86436D4F84B
:10B920005016C3EBC30301EB430399423FF64DAFFF
:10B93000487B460707D554FA82F696F8540640F03D
:10B94000010086F854060E310132EEE7D6F80910F0
:10B95000002900F020810C2206A842F02DFD0C23C6
:10B96000224606A92846FDF7BDFF23E00DF1280871
:10B970000021032B08F8101D0AD1D6F805303BB181
:10B98000120705D598470C220146404642F014FDA7
:10B990005149404642F0DAFC9AF8243B0BB1013C95
:10B9A000E4B2404641F022FE2246C3B24146284658
:10B9B000FDF798FF3F1A1D2F7FF627AE039B01333B
:10B9C0000E36039347E7D6F809000028F2D0037833
:10B9D00053B1424906A842F0D5FC0323224606A9EA
:10B9E0002846FDF77FFFE5E73D4906A842F0CAFC7F
:10B9F000F3E7D6F809301A689B6811780C2253F8DF
:10BA00002110A9E7D6F809300293002B00F0C3807B
:10BA10009AF99D350493334B1A684FF47A73B2FB4D
:10BA2000F3F103FB11230593002306AAD018029A11
:10BA300099F8271BB2F800C04FF4006203F1010B24
:10BA400002FA03F31CEA030F1CD071B1059BB3F596
:10BA5000FA7F0AD2049B984507D1234B9B6D5B4527
:10BA600003D11C4942F08EFC02E0204942F08AFCDE
:10BA7000BBF1030F5B46D8D1224606A92846FDF745
:10BA800031FF97E751B1059BB3F5FA7F06D2049BCE
:10BA9000984503D1144B9B6D5B45E2D0144942F0AD
:10BAA00071FCE5E7D6F80900002883D0036806A9F1
:10BAB000187840F089FB0523DEE7D6F80900002856
:10BAC0003FF478AF036806A993F9000040F07CFBCF
:10BAD000F1E700BFC1720508C35205089E39050889
:10BAE000A2390508A48B0020880100203B660508C8
:10BAF0009C4E050810160020D6F8090000283FF4D7
:10BB000059AF036806A9188840F05EFBD3E7D6F862
:10BB1000090000283FF44EAF036800891B785843A2
:10BB200000F5C33006A9A03040F04EFB9DF81A3056
:10BB30009DF819208DF819302E238DF81A309DF8B4
:10BB40001D308DF81820302B01D02E2B0AD19DF8F6
:10BB50001C10002330298DF81D3001D02E2901D171
:10BB60008DF81C30302A04BF20238DF81830A2E74E
:10BB7000D6F80980B8F1000F0FD0306841F036FDDB
:10BB80009AF8261B0131014443462246C9B2284691
:10BB90001FF0B6F90EE700200CE740460AE70A4B13
:10BBA00070B5D3F8A45506464DB9002070BDFCF71A
:10BBB0007FFF864205D00134A542F8DCF5E700247A
:10BBC000FAE70120F2E700BF1016002008B5094B84
:10BBD0001B7803B108BD0848FFF7E1FF0028F9D042
:10BBE000FFF77CFA054B064A1B6803F5C873C2F8D9
:10BBF000DC3508BD275000205C420020A48B0020CB
:10BC000010160020074BD3F8A425042A08D0511C95
:10BC1000C3F8A41503EB8203C3F8A80501207047FD
:10BC2000002070471016002008B50F4B9B78022BA0
:10BC300008D0032B09D10D4BD3F8BC05003018BF39
:10BC4000012008BD29F0B4FB08B9002008BD29F087
:10BC50009FFB0028F9D0064B5878A0F10300B0FAFA
:10BC600080F0400908BD00BFF43A00201016002003
:10BC700050BD002070B5144B9B78022B05460ED0AA
:10BC800001780446E9B1114ED6F8BC051AF09AFEC7
:10BC900015F8011F0029F7D12C1B204670BD41F07B
:10BCA000A5FC0B4B04461868037E13F0060FF4D076
:10BCB00090F82830002BF0D12946224628F03CFF8E
:10BCC000EBE70C46204670BDF43A00201016002029
:10BCD000FC3A002010B51A4B9B78022B82B007D09B
:10BCE000184B0146D3F8BC051AF06CFE02B010BD2B
:10BCF000154B8DF807001B6893F91A104A1C0FD0DA
:10BD00005A6840F2FF14C2F30802A24208D002EBC4
:10BD100041220E4950545A6801325A6002B010BD97
:10BD20001A7E12F0060FE1D093F82820002ADDD108
:10BD3000184601220DF1070128F0FEFED6E700BFEC
:10BD4000F43A002010160020FC3A002068BD0020C4
:10BD50002DE9F04100F110020746002452F8043D9D
:10BD6000A40003F10801E4B22BB10F2903F1800311
:10BD70003BD844F001049742F0D12046FFF7AAFFD8
:10BD800000252E46A84604F00303022B24D0032BE3
:10BD900014D0012B09D00135042D4FEA9404F2D1BF
:10BDA000B8F1000F4AD1BDE8F08157F82500B8F18D
:10BDB000000F3BD10001C6B29846ECE757F82500CA
:10BDC000B8F1000F18D1C0F30720FFF783FF17F871
:10BDD0002500FFF77FFFDEE757F82500B8F1000FD9
:10BDE0001AD1C0B2FFF776FFD5E7FF2B94BF44F01E
:10BDF000020444F00304BEE7C0F303303043FFF70E
:10BE000069FF57F82500C0F30710FFF763FF57F8E5
:10BE100025603601F6B2BEE7C0F303103043FFF7EA
:10BE200059FF57F825603601F6B2B4E700F00F006D
:10BE30003043FFF74FFF4FF00008ACE73046BDE856
:10BE4000F04147E7F8B5061F0446324600F10807FF
