:020000040800F2
:10000000F0FF0120F5130508E1F70308D504020805
:100010007914050879140508791405080000000012
:10002000000000000000000000000000F1F70308DD
:10003000EDF7030800000000E9F7030845FB01089D
:100040007914050879140508791405087914050848
:1000500079140508791405081113020851140208CF
:1000600011140208D113020891130208FDF70008C9
:10007000EDF70008DDF70008CDF70008B9F7000834
:10008000A5F7000891F700087914050800000000A2
:1000900000000000000000000000000051130208F2
:1000A00079140508791405087914050899ED0108F3
:1000B000D9EC010819EC0108791405082120010880
:1000C00029200108112001081920010879140508C8
:1000D0007914050821FC010885FB010800000000D7
:1000E000D1120208791405087D3C040800000000C4
:1000F0000000000000000000000000007DF7000884
:100100000000000079140508791405087914050821
:1001100000000000000000000000000000000000DF
:1001200069F7000855F7000841F700082DF70008A7
:1001300019F70008000000000000000000000000A7
:10014000000000000000000000000000C9080408D2
:1001500005F70008F1F60008DDF600087914050837
:100160000120010809200108000000000000000033
:10017000000000000000000000000000000000007F
:1001800000000000791405080000000000000000D5
:08019000791405087914050833
:080198008C0F050001000000BE
:1001A00002020300301500202C1500200000000082
:1001B0000000000010020100381500203415002056
:1001C00000000000F00600081F0210004C1500207F
:1001D0003C15002000000000E58500082C00100000
:1001E000283000201830002000000000833501086E
:1001F0002B0024005C30002038300020000000007C
:100200005535010819021000E42F0020803000202D
:1002100000000000AD85000829207800F82E00209D
:1002200090300020000000000000000020320A0092
:100230001431002008310020000000003D29010891
:100240001C02100050290020203100200000000076
:100250004585000828101000282D0020303100208E
:1002600000000000B5290108012008002C1800201A
:100270004031002000000000F20600080A7028004B
:10028000A817002048310020000000005D29010867
:100290000EA0740134160020703100200000000010
:1002A000B1980208010104009C150020E4320020EE
:1002B0000000000000000000000104009415002070
:1002C000E832002000000000FA06000802010300E6
:1002D00090150020EC320020000000005942040874
:1002E0001A023C00F83300207436002000000000A1
:1002F0003594000827000400F4320020B0360020B6
:1003000000000000FE06000803123300F84500203C
:100310002C460020000000000207000825102C01D8
:10032000184400206046002000000000000000008B
:1003300010100200FC4300208C4700200000000049
:10034000360700081A000E00AC430020904700203A
:10035000000000003807000819000500E8420020EE
:10036000A04700200000000046070008F821060012
:1003700094400020A8470020000000004C0700081F
:10038000150070008C3A0020B047002000000000EB
:10039000000000002A0060004C430020204800209C
:1003A0000000000089980208090201003081002045
:1003B000C88100200000000052070008220214013A
:1003C000007F0020CC810020000000005D95000827
:1003D0000C109C006C6F0020E082002000000000E8
:1003E000D941040800020500406F00207C830020F2
:1003F00000000000000000001B020800206F002029
:1004000084830020000000006D8500081E000600A7
:100410008C6C00208C830020000000005407000832
:100420001B100C00BC710020948300200000000011
:10043000ED7D03082102F000D8670020A083002092
:1004400000000000116C030837102400BC6E00206F
:1004500090840020000000005A0700080E020200ED
:100460008C710020B4840020000000007E0700088A
:1004700016100600CC670020B884002000000000A1
:10048000800700082F102200A4810020C0840020D3
:10049000000000008607000805100600446B0020DD
:1004A000E484002000000000A807000812201000CB
:1004B000346B0020EC84002000000000AE07000830
:1004C00023100E00E06B0020FC84002000000000E0
:1004D000CD290108F5518800086700200C8500200F
:1004E0000000000071B5030826100C00A085002054
:1004F00094850020000000006960030814000300D8
:1005000004A0002070A0002000000000C007000828
:100510000B301800C090002074A0002000000000E4
:10052000C40700081F302400D89000208CA00020B1
:1005300000000000DC07000805020400989B002072
:10054000B0A00020000000000008000803010A001D
:1005500018910020B4A0002000000000040800084A
:1005600013020400E48E0020C0A000200000000060
:100570000E08000807020200ACAD0020F4AD002018
:10058000000000001208000802000C007CAD0020F2
:10059000F8AD0020000000000000000006020C0082
:1005A00070AD002004AE0020000000000D92000895
:1005B00008120F00F4AC002010AE00200000000074
:1005C000C18500080A020A0028A6002020AE0020EB
:1005D00000000000054A04080300010008A70020ED
:1005E0002CAE002000000000000000000400C0004D
:1005F000C4DB00202CE70020000000000000000009
:10060000F901040034DB0020ECE7002000000000CA
:1006100015C301081300040030DB0020F0E70020C0
:100620000000000014080008FD0124000CDB00207D
:10063000F4E70020000000009DC2010818202E00F1
:10064000D8DA002018E8002000000000C594000857
:1006500006101E001CC5002048E800200000000015
:10066000D5990208FB010100F8C3002068E80020CA
:100670000000000031950008FC010900C4C2002000
:100680006CE80020000000004195000834001000D4
:10069000F0C1002078E8002000000000A9990208BD
:1006A00011020800C8C1002088E8002000000000F6
:1006B0001808000812120400C0C1002090E80020B1
:1006C00000000000200800080D00340048B00020A1
:1006D00094E8002000000000493A0208FE011400DE
:1006E000F4AF0020C8E80020000000007985000871
:1006F0000000E8036400040A0001900100002003E8
:1007000000000000000000000000000000000000E9
:1007100000000000000000000000000000000000D9
:1007200000000000000000000000000000000000C9
:1007300000000000010000057E05EA05B405320056
:10074000E803D00700000000280100000401F401C4
:100750001400280000000100000020003200C80042
:10076000D0079600140032002800B00440060005AF
:10077000500014000F000800640001000100000098
:10078000C409000019000000000000000000000083
:100790000000000000000000000000000000000059
:1007A0000000000000000000200003010000000025
:1007B00000010000054E343436000008000000003F
:1007C00003000000AE014A015E012C01640002003A
:1007D000000001000A019A01001E0A00000000004A
:1007E00000010000000500000102030000000000FD
:1007F0000000000000000000000000000080070072
:1008000000000000040101006C1600000000000060
:100810000100023C00204030000000000101010105
:04082000FFFFFFFFD8
:100824004B5C6D7E8F0400004B30402000000000C4
:100834000000000000000000ABACADAEAF00000053
:10084400E803000041BD42D4C2000000550F710C02
:10085400000000000000000000000000010203048A
:100864000607080901000000092101080000000032
:10087400982E050820700020702D7200FFFFFFFFE6
:10088400010101000001010100D6012D202D2D20C0
:100894002D2D2D2D202D2D2D0000000000000000F9
:1008A4000000000000000000000000000000000044
:1008B4000000000054430508000000000000000090
:1008C400E043050801000000FA00000001000000F8
:1008D4000100000001010100FE17002000C8010012
:1008E400FD17002000500100FC170020005A0100F1
:1008F400FA17002002000000143305088C8A05084A
:10090400948A050816E700200100C40900000000CD
:1009140014E700200100C4090000000012E70020D1
:100924000100C4090000000010E700200100C40910
:10093400000000000CE700200100C40900000000D2
:100944000EE700200100C409000000000AE70020AF
:100954000100C4090000000008E700200100C409E8
:1009640000000000AE1500200100C80001000000D6
:10097400AC1500203200307532000000AB150020A9
:10098400055A0500A815002000FF0100AA15002043
:1009940001000000DC000020A61500200200000079
:1009A4001C740508A715002000FF0100A9150020EC
:1009B40001000000DC000020A5150020020000005A
:1009C4001C74050838180020EE02CA080100000053
:1009D4003618002000C8010064000000351800200B
:1009E40000C8010064000000341800200200000068
:1009F40020330508A215002080C1803E05000000B8
:100A0400A015002080C1803E050000009A1500203A
:100A140080C1803E050000009815002080C1803E02
:100A2400050000009315002000FF01008C15002034
:100A34006400F401010000008B1500200400000094
:100A44002C3305088A1500200200000040330508F5
:100A5400231600200D0000004C330508201600204A
:100A6400006401001E160020320010270A00000056
:100A74001D1600200D0000004C3305081C16002034
:100A84000D0000004C3305081B1600200200000076
:100A940084330508000000000000000090330508BE
:100AA400509B00209CFF2C0100000000601B0020D4
:100AB400E0150C1700000000621B0020020000007B
:100AC400C8330508441800200100FF7F010000001E
:100AD4004318002002000000D43305082516002026
:100AE40003000000E433050824160020030000007E
:100AF400E4330508DC1700200000E80301000000CF
:100B0400DA1700200000E80301000000D8170020D5
:100B14000000E80301000000D61700200000E803ED
:100B240001000000D41700200000E80301000000C9
:100B3400D21700200000E80301000000D1170020B4
:100B440000140100D017002003000000F43305084E
:100B5400E81700200000F40101000000E61700205F
:100B64000000F40101000000E41700200000F4017B
:100B740001000000E21700200000F4010100000061
:100B8400E01700200000803E01000000DE17002076
:100B94000000803E010000001118002019640100CB
:100BA4001018002002000000043405080E1800206C
:100BB400E803D0070A0000000C18002000640100BC
:100BC4000A00000001180020006401000018002041
:100BD4000064010008180020006401000A000000FD
:100BE40007180020006401000A0000000618002015
:100BF400006401000A0000000B18002000640100DA
:100C04000A0000000A180020006401000A00000025
:100C140009180020006401000A00000005180020E3
:100C240001FF01000A0000000418002001FF010078
:100C34000A0000000318002001FF01000A00000060
:100C44002E1600200000F401010000002C160020E4
:100C54000000F401010000002A1600200000F40145
:100C640001000000281600200000F401010000002B
:100C7400261600200000F40101000000F9170020EE
:100C840000640100F817002000640100F717002039
:100C940000640100F6170020FF080100F51700208A
:100CA40001640100D12601089526010810340508C5
:100CB400F417002000640100F21700201400E80378
:100CC40001000000F0170020E80330750A0000005E
:100CD400EE17002000C80100ED17002000C8010035
:100CE400EC17002000C80100EB170020006401008D
:100CF4000A000000281800200000D00701000000AE
:100D04002318002000C801002218002000C8010098
:100D14002118002000C80100261800200000D00778
:100D2400010000002018002000C801001F18002046
:100D340000C801001E18002000C80100241800206B
:100D44000000D007010000001D18002000C80100A9
:100D54001C18002000C801001B18002000C8010056
:100D6400000000000524010880340508191600203D
:100D7400310000001C3505081816002000C80100C9
:100D840016160020E803D007010000004E55434C1E
:100D9400454F4634343652450000000065230108AF
:100DA4003D230108E4350508F9220108AD220108B4
:100DB400383605088D230108D13A0108B8360508EC
:100DC400A4150020010301003128010805280108A9
:100DD400AC3905085522010815220108103A050806
:100DE4001B24010805560108AC3A0508A136010880
:100DF40000000000543B05085D38010891280108F3
:100E0400F03B05086D24010800000000603C050863
:100E140045250108F1240108C43C0508D52501082D
:100E240099250108603D05080D270108552701088B
:100E3400E03D0508FF17002001060100B524010864
:100E440081240108DC3E050811260108353B010810
:100E54004C3F050889270108B93B01082C400508C7
:100E6400EA17002001030100D5230108A523010886
:100E7400004105085D2801080000000064410508E0
:100E840095220108B93A0108C8410508000000008C
:100E9400000000002C420508DD270108313C010850
:100EA400AC4205088615002088136F170100000066
:100EB4008815002088136F17000000007691002029
:100EC40000000000000000007491002000000000F9
:100ED40000000000729100200000000000000000EB
:100EE4007091002000000000000000006E910020BE
:100EF40000000000000000006C91002000000000D1
:100F040000000000C40A00200000000000000000EF
:100F14005C150020020000003444050884150020FC
:100F240088136F1701000000909B002088136F172F
:100F340000000000A9210108000000004044050849
:100F4400AA1B00200100000094440508929B002085
:100F540001000000A0440508889B00200200000056
:100F6400A84405080000000000000000B44405087F
:100F7400952101080000000050450508000000000C
:100F840000000000A4450508000000000000000067
:100F9400144605088C9B0020E0150C170000000087
:100FA400FFFFFFFFFFFF000034D305080000080225
:100FB400050303003CD305080100080205040300EF
:100FC40004EC05080200FE0101100300FC8D050875
:100FD400030014020003000044D3050804001F02A8
:100FE400010008004CD3050805001F020101080098
:100FF40001000000A00F0000B80B00000102FFFF79
:1010040001000000685E0C0091DC030835DA030877
:101014004DFD03080000000031D703081DFA030842
:10102400FDDB030895F90308000000000000000040
:10103400EDD6030801DC0308F5D903088DFC030889
:101044000000000005D7030899F90308D1DB030861
:10105400F5F803080000000000000000F9D60308BA
:1010640080480020FFFFFFFF0000803F00000000D9
:1010740000000000000000000000803F00000000AD
:10108400000000000000000000000000000000005C
:10109400000000000000000000000000000000004C
:1010A4000000803F0000000000000000000000007D
:1010B40001000000FFFFFFFF0000803F0000000070
:1010C4000000000000000000FF000000010000001C
:1010D40000000100FFFFFFFF0000803F0000803F91
:1010E40001FFFFFF0403090412010002EF020140A3
:1010F40083045632000201020301000012010002BF
:101104000202004083044057000201020301000070
:1011140009026400030100C0320904000001030055
:10112400000009211101000122260007058303089C
:10113400000A080B01020202010009040100010275
:101144000201000524001001052401000204240208
:10115400020524060102070582030800FF090402B0
:1011640000020A0000000705010240000007058193
:101174000240000009024300020100C032090400D9
:1011840000010202010005240010010524010001F0
:10119400042402020524060001070582030800FF57
:1011A40009040100020A00000007050102400000D2
:1011B4000705810240000000FF000000A476050836
:1011C400000000000000000000000000000000001B
:1011D400000000000000000000000000000000000B
:1011E4000000000000FFFF0000000000AA550501F8
:1011F40000000100787605080000000000000000EF
:1012040000000000000000000000000000000000DA
:10121400000000000000000000000000FF1FFF1F8E
:1012240005010905A101A1000501093009310932AF
:10123400093309350934094009381581257F7508B2
:1012440095088102C0C0000009022200010100E0EB
:101254003209040000010301020009211101000107
:101264002226000705830308000A0000000000008E
:101274000102030401020304060708092DFB030805
:1012840031FA030871FD03086DD70308B1DA0308C6
:101294007DD7030899D7030845D7030835D7030832
:1012A40000000000000000002D202D2D202D2D2DEC
:1012B4002D202D2D2D2D0000000000000000000029
:1012C40000000000000000AA550B010000AA550709
:1012D400010000AA550902000000AA5503009F005E
:1012E40001000000C012000044A000200000000023
:1012F40068A000200000000000000000E4AD002011
:101304000800000000000000D4AD00200800000028
:10131400200000000000803F60E2050890EA050814
:101324009CEA0508A8EA0508B4EA0508C0EA050825
:10133400F0980508ACAB050800AA050844EA0508BE
:1013440004D5050880EA050884EA050888EA050842
:101354008CEA05086CE20508CCEA0508D0EA050821
:101364008CA80508D4EA05081900C800F401200374
:101374000000040100000000000000021000000052
:10138400070000004926877D2F00000000000100AF
:10139400010001008D460408000000000000000068
:1013A4000000000051D60308E5F703084DD60308F2
:1013B40041D603083DD6030849D6030845D6030899
:1013C400C5D60308B9D6030891D60308A5D60308E1
:1013D4007DD6030869D6030855D60308010000002A
:1013E40000600240106002400000000000000000A5
:1013F400000B0000000000000000000000000000DE
:10140400006002402860024001000000000000006B
:10141400060C0000000000000000000000000000B6
:101424000060024040600240020000000000000032
:10143400100D00000000000000000000000000008B
:1014440000600240586002400300000000000000F9
:10145400160E000000000000000000000000000064
:1014640000600240706002400400000000000000C0
:10147400200F000000000000000000000000000039
:101484000060024088600240050000000000000087
:101494002610000000000000000000000000000012
:1014A40000600240A060024006000000000000004E
:1014B40030110000000000000000000000000000E7
:1014C40000600240B8600240070000000000000015
:1014D400362F0000000000000000000000000000A3
:1014E400006402401064024000000000000000009C
:1014F40000380000000000000000000000000000B0
:101504000064024028640240010000000000000062
:101514000639000000000000000000000000000088
:101524000064024040640240020000000000000029
:10153400103A00000000000000000000000000005D
:1015440000640240586402400300000000000000F0
:10155400163B000000000000000000000000000036
:1015640000640240706402400400000000000000B7
:10157400203C00000000000000000000000000000B
:10158400006402408864024005000000000000007E
:1015940026440000000000000000000000000000DD
:1015A40000640240A0640240060000000000000045
:1015B40030450000000000000000000000000000B2
:1015C40000640240B864024007000000000000000C
:1015D400364600000000000000000000000000008B
:1015E400BCD1050848E50508000000006D42040868
:1015F400A0860100040000000000000000000000BC
:1016040000000000000000000000000000000000D6
:1016140000000000000000000000000000000000C6
:10162400BCD105082CEC05080000000039C10108F4
:10163400E8030000040000000000000000000000B7
:101644000000000000000000000000000000000096
:101654000000000000000000000000000000000086
:10166400D090050808A90508000000006D6D040865
:101674007D000000060000000000000000000000E3
:101684000000000000000000000000000000000056
:101694000000000000000000000000000000000046
:1016A40028D1050800000000000000005DE20108E8
:1016B400E803000003000000000000000000000038
:1016C4000000000000000000000000000000000016
:1016D4000000000000000000000000000000000006
:1016E40034EC05080000000000000000E9160308BF
:1016F40010270000030000000000000000000000AC
:1017040000000000000000000000000000000000D5
:1017140000000000000000000000000000000000C5
:1017240040D30508000000004533010839050208CC
:101734005F760000050000000000000000000000CB
:101744000000000000000000000000000000000095
:101754000000000000000000000000000000000085
:1017640098D3050800000000000000006932020858
:10177400102700000100000000000000000000002D
:101784000000000000000000000000000000000055
:101794000000000000000000000000000000000045
:1017A40040EC050800000000000000003DC10108F5
:1017B400E803000005000000000000000000000035
:1017C4000000000000000000000000000000000015
:1017D4000000000000000000000000000000000005
:1017E4004CEC050800000000000000000566040839
:1017F400204E000003000000000000000000000074
:1018040000000000000000000000000000000000D4
:1018140000000000000000000000000000000000C4
:101824005CEC0508000000000000000001640408EE
:10183400204E000003000000000000000000000033
:101844000000000000000000000000000000000094
:101854000000000000000000000000000000000084
:101864006CEC05080000000000000000ADD5010884
:10187400400D030003000000000000000000000011
:101884000000000000000000000000000000000054
:101894000000000000000000000000000000000044
:1018A40034D1050800000000000000005989030835
:1018B40010270000030000000000000000000000EA
:1018C4000000000000000000000000000000000014
:1018D4000000000000000000000000000000000004
:1018E4007CEC0508000000000000000079A5010858
:1018F400A0860100010000000000000000000000BC
:1019040000000000000000000000000000000000D3
:1019140000000000000000000000000000000000C3
:101924002CD105080000000000000000416F0208EF
:1019340050C300000100000000000000000000008F
:101944000000000000000000000000000000000093
:101954000000000000000000000000000000000083
:10196400E88C050800000000000000006D6C02080F
:10197400A861000001000000000000000000000059
:101984000000000000000000000000000000000053
:101994000000000000000000000000000000000043
:1019A40084EC0508000000000000000055C6030890
:1019B400A0860100010000000000000000000000FB
:1019C4000000000000000000000000000000000013
:1019D4000000000000000000000000000000000003
:1019E400A0D3050800000000000000003D4E0208DE
:1019F400A00F000001000000000000000000000033
:101A040000000000000000000000000000000000D2
:101A140000000000000000000000000000000000C2
:101A240090EC0508000000000000000061B6030807
:101A3400102700000100000000000000000000006A
:101A44000000000000000000000000000000000092
:101A54000000000000000000000000000000000082
:101A6400F09705080000000000000000CDAA03085C
:101A74001A41000001000000000000000000000006
:101A84000000000000000000000000000000000052
:101A94000000000000000000000000000000000042
:101AA400A88C0508000000000000000049DF0308BE
:101AB40010270000010000000000000000000000EA
:101AC4000000000000000000000000000000000012
:101AD4000000000000000000000000000000000002
:101AE4005CE5050800000000000000008D5D0108B1
:101AF4001A41000001000000000000000000000086
:101B040000000000000000000000000000000000D1
:101B140000000000000000000000000000000000C1
:101B24009CEC0508000000000000000099E5030893
:101B3400400D030000000000000000000000000051
:101B44000000000000000000000000000000000091
:101B54000000000000000000000000000000000081
:101B6400A4EC05080000000000000000073A020889
:101B7400400D030000000000000000000000000011
:101B84000000000000000000000000000000000051
:101B94000000000000000000000000000000000041
:101BA400ACEC05080000000000000000C9C00308F8
:101BB40050C300000300000000000000000000000B
:101BC4000000000000000000000000000000000011
:101BD4000000000000000000000000000000000001
:101BE400B8EC05080000000000000000756304085C
:101BF40040420F0000000000000000000000000050
:101C040000000000000000000000000000000000D0
:101C140000000000000000000000000000000000C0
:101C2400C4EC05080000000000000000154E020886
:101C340050C300000000000000000000000000008D
:101C44000000000000000000000000000000000090
:101C54000000000000000000000000000000000080
:041C64000000803FBD
:1080000003685A1C02601970704700BF2DE9F047E1
:10801000089C2578002B804689460CBF4FF0200A2B
:108020004FF0300A661C25B3002A26DD334601E0F6
:10803000024698B113F8011B501E0029F8D1971E73
:1080400060B13D46013D51464046C8476B1C002B80
:10805000F8DC257827EAE770013045B1041B294692
:108060004046C847301916F8015B002DF7D1BDE82E
:10807000F087002A03DC2846F9E70020EEE7571EC8
:10808000DFE700BF2DE9F04714461D4606464FF4D2
:108090007A7200232046294648F0E0FF4D4BDFF876
:1080A00048814D4A4D4F034488FB03101844D917AB
:1080B00082FB032CC1EB601088FB002887FB0327A1
:1080C0009C44474AC1EBEC2CC0EB001E82FB0C2900
:1080D000A3EB8E0E1F44434A86F806E0C1EB274708
:1080E0004FEAEC7E08EB000ACEEBA90E82FB07827A
:1080F0004FEAE0780EEB4E0EC8EB6A18ACEBCE0CF4
:10810000C8EB0818DFF8E4E086F804C0A0EB8800AC
:1081100070718EFB0303F817C0EBE21240F2B5500A
:1081200000FB1272C1EBE353B2F5896F4FEA83078C
:108130003CDA40F2DA239A4242DCB2F5B77FB4BFB0
:108140004FF0000E4FF0010E4FEA4E09DFF8A0800D
:1081500009EB0E0308EBC3031FFA8EFCD88A09EB68
:108160000E0108EBC10116310B2301E031F8020DBD
:10817000904218DD013BF9D1CE44012338F83E008E
:10818000B37007F5FA670132121ABC44F270A6F810
:1081900000C0204629464FF47A72002348F05EFF63
:1081A0003281BDE8F0870133DBB2E9E74FF0030C21
:1081B000E64640F29650DFF838804FF00609CEE7E9
:1081C0004FF0020CDFF82880E64640F229404FF0DD
:1081D0000409C4E780BC92C7C5B3A29107452EC26B
:1081E000ABAAAA2A73B06D1689888888792D0311E5
:1081F000702C05080378202B024600F10100F9D00D
:10820000092BF7D02D2B00F0A4802B2B03BF537824
:10821000B7EE000A0246B7EE000AA3F13001C8B279
:1082200009289FED577A10D8F2EE046A07EE901AEB
:10823000F8EEE77A12F8013FE7EE267AA3F1300173
:10824000C8B20928B0EE677AF0D92E2B63D003F0BC
:10825000DF03452B02D020EE070A704710B4517897
:108260002D294FD02B2979D0A1F13003092B02F110
:1082700001027AD80024002303EB830301EB4303BC
:1082800012F8011FA1F130000928A3F13003F3D93E
:10829000B3F59A7F1A4628BF4FF49A72072B6CD910
:1082A000DFED386A1346F7EE007A083B072B67EEDE
:1082B000A67AFAD802F00702DAB1F2EE046A012ACD
:1082C00067EEA67A15D0022A67EEA67A11D0032AA5
:1082D00067EEA67A0DD0042A67EEA67A09D0052AA1
:1082E00067EEA67A05D067EEA67A062A18BF67EE73
:1082F000A67A002C3BD087EE277A5DF8044B20EE5F
:10830000070A70479178A1F13003092B02F10202AC
:1083100030D80124AFE75378A3F13001C8B209285F
:1083200002F1010293D8F2EE046AF0EE665A07EE0B
:10833000901AF8EEE77A12F8013F87EEA66AA3F1E9
:108340003001C8B2092866EEA56A37EE067AEED982
:108350007DE75378BFEE000A02465EE79178A1F10F
:108360003003092B02F1020284D9F7EE007A27EEDE
:10837000277AC2E7F7EE007ABDE7F7EE007A9BE7CF
:108380000000000020BCBE4C0028F0B403DA2D230E
:108390000B7040420131092804464FF0010307DD0C
:1083A00003EB83035B00B0FBF3F2092AF8D883B137
:1083B0000F48A0FB0326B4FBF3F2092A02F1570C85
:1083C00002F1300709DD03FB1244F30801F801CB89
:1083D000EFD100230B70F0BC704703FB1244F3088D
:1083E00001F8017BE5D100230B70F0BC704700BFA2
:1083F000CDCCCCCC884270B44FF0010442D301FB09
:1084000004F4B0FBF4F58D42F9D2ECB142BB092D76
:1084100004FB150005F1570605F130020EDDB4FB33
:10842000F1F403F8016B7CB1B0FBF4F5092D04FB0A
:10843000150005F1570605F13002F0DCB4FBF1F44C
:1084400003F8012B002CEFD100221A7070BC70478A
:1084500003F8016BB4FBF1F4002CF5D0B0FBF4F59C
:10846000092D04FB150005F1370605F13002EFDC9C
:10847000B4FBF1F403F8012B002CEFD100221A70A9
:1084800070BC70470546002AEAD1C0E790ED057A36
:1084900090ED004AD0ED066AD0ED014AD0ED047AA5
:1084A00090ED035AD0ED025AA4EE007AB0EE406A85
:1084B000B0EE470AB0EE667AA4EE867A67EEC07A2E
:1084C000A5EE407AE5EE867A80ED057AC0ED067A73
:1084D000704700BFD0ED057A90ED013AD0ED003A3B
:1084E000D0ED064A90ED024A90ED077A90ED035ADE
:1084F00090ED086AD0ED045AC0ED067AF0EE406ABD
:1085000027EE830AC0ED056AA3EEA60A80ED087A7D
:10851000A4EE240AA5EE470AA5EEC60A80ED070AD6
:10852000704700BFD0ED007A90ED017A30EE670A17
:10853000E7EE007AB0EE670AC0ED007A704700BF40
:10854000704700BF0023022210B401212C24C47004
:10855000017203708371C371C3728373C3734270FA
:108560008270427282725DF8044B704706224FF4AB
:108570007A7302704360704730B430213323312264
:1085800032254FF601744170C371FF2101234271FE
:108590000022C570048281740372037083710371B9
:1085A000837042818281C28130BC704700230621E2
:1085B0002622017042728372C37203734373704741
:1085C000FF2310B42E212D242F2244718171C271FA
:1085D000C370037103724372437383735DF8044B7A
:1085E000704700BF034600F11001FF221A705A7055
:1085F00002339942FAD1027042708270C2700271E5
:1086000042717047704700BF30B40A785F4D604CCC
:108610004FF47A7303FB02F2A5FB0252D2091A440B
:108620008280CA7802F07F0503FB05F35B0815061C
:10863000584AA4FB03434FEA9313127848BF5B42A6
:1086400003F2DC53022A038047D08A78504C02F0B0
:108650007F054FF47A7303FB05F35B08A4FB034328
:1086600015064FEA931348BF5B4203F2DC53438085
:108670004A78474C02F07F054FF47A7303FB05F309
:108680005B08A4FB03439B09140648BF5B4203F24B
:10869000DC53C3808B7B13F0040F14BF4FF4FA64D8
:1086A0004FF47A7413F0010F14BF4FF4FA614FF4D2
:1086B0007A7113F0080F14BF4FF4FA624FF47A7214
:1086C00013F0100F14BF4FF4FA634FF47A73048160
:1086D00041818281C38130BC70474A782C4C02F0C2
:1086E0007F054FF47A7303FB05F35B08A4FB034398
:1086F0009B09140648BF5B4203F2DC5343808A782F
:10870000234C02F07F054FF47A7303FB05F35B08FB
:10871000A4FB03439B09120648BF5B4203F2DC53F0
:10872000C3804B799B092CD0012B0CBF40F2DC534A
:108730004FF4FA6303818B7913F0400F14BF4FF4A9
:10874000FA634FF47A7343810B7913F0400F14BF2F
:108750004FF4FA634FF47A73838191F90430002B5C
:10876000B4BF4FF4FA634FF47A73C38191F90E30BA
:10877000002BB4BF4FF4FA634FF47A73038230BC1A
:1087800070474FF47A730381D5E700BF8180808002
:1087900009040281481400200B7B4FF47A7270B4F4
:1087A000BB3B534C534D02FB03F384FB03C61E44F7
:1087B000DB17A3EBA61313440380CB7A433B02FBE6
:1087C00003F384FB03C61E44DB17C3EBA613134459
:1087D00043804B7A02FB03F3A5FB0335ED091544F7
:1087E00085808B7A13F0800F75D13C3302FB03F246
:1087F000A4FB0234A40904F57A74C4804B7C8A7CFF
:108800005C075CD54FF4FA64048113F0010F14BFC8
:108810004FF4FA664FF47A7612F0400F14BF4FF41B
:10882000FA644FF47A7412F0800F14BF4FF4FA65B3
:108830004FF47A7513F0100F848114BF4FF4FA646B
:108840004FF47A7413F0200F14BF4FF4FA634FF40F
:108850007A73048254074681C581438237D4130753
:108860004CBF4FF47A7340F2DC5383828A7B4FF41F
:108870007A73103A03FB02F3002BB8BF1F335B116E
:1088800003F57A73C382CA7B4FF47A73303A03FBE1
:1088900002F3002BB8BF1F335B11C3F57A73038358
:1088A0000A7C4FF47A73103A03FB02F3002BB8BF33
:1088B0001F335B1103F57A73438370BC70479C07C9
:1088C0004CBF40F2DC544FF47A7404819DE74FF4BE
:1088D000FA638382CAE7BC3B02FB03F384FB0324F5
:1088E0001C44DB17A3EBA41404F57A74A4B284E748
:1088F00089888888818080800378AE2B01D0002011
:1089000070474378C92BFAD10A4A537883B90A4B86
:1089100081781970C1785970017999704179D9704D
:108920005268817919711AB1116809B91B6813600D
:1089300001207047481400200000002030B43A4B5A
:108940001B7A042B14BF0923052301EB0302CB5C24
:10895000527802F07F0214BF0B25072543EA022359
:1089600040F6B832A2EB030301EB05040380647800
:108970004B5D04F07F0443EA042314BF0D24092453
:10898000A2EB030201EB040342805A780B5D02F074
:108990007F0214BF0F240B2443EA022301EB0402DD
:1089A000838052780B5D02F07F0243EA022314BFFA
:1089B00011220D22C3808B5C19BF102412220E22BB
:1089C0000C2413F0030526D14FF47A7505810C5D54
:1089D00014F0100F0CBF4FF47A744FF4FA64448112
:1089E0008A5C12F0040F0CBF4FF47A714FF4FA61F5
:1089F00012F0020F0CBF4FF47A724FF4FA6213F0C8
:108A0000040F0CBF4FF47A734FF4FA638181C28173
:108A1000038230BC7047012D0CBF40F2DC554FF48F
:108A2000FA650581D3E700BF48140020034690F89B
:108A30002B0028B1002283F82B20C3F82220DA84EF
:108A4000704700BF704700BF01207047034690F891
:108A5000640028B1002283F864209A65A3F85C20A2
:108A6000704700BF704700BF4FF400630384704736
:108A70004FF400630384704738B504460D46084838
:108A8000172118F043FEC30701D5002038BD2B463F
:108A900022466121024818F0DBFE012038BD00BFEC
:108AA000F42F00204FF4006303847047F0B4037C7C
:108AB000456902681F2B37D9203B20215468994013
:108AC0000C4223D010249C40D160D4605168D9401E
:108AD000CE074ED4EFF31183502282F31288EA6B53
:108AE0001168C90709D45468002C52D1D5E909612D
:108AF0008E4243D1012285F86020DBB283F31188D6
:108B0000037C02681F2B194614D9203B08215068AA
:108B10009940084200D0D1600421506801FA03F363
:108B2000184223D1F0BC7047202416689C4026428E
:108B30000FD11946082310688B40184200D093606B
:108B40000423106803FA01F10842EBD09160F0BCF5
:108B5000704710219940946091601168D940CC070A
:108B6000B8D5012101FA03F39360B3E7D360F0BCF9
:108B70007047012101FA03F3D360ABE7AF690F44FB
:108B8000D7600ED82E69711A5160AC62002185F849
:108B90006010116841F00101DBB2116083F31188AC
:108BA000AEE7711A5160AE62F0E700BF2DE9F04107
:108BB000B14DB24C2A7823789A4240F01B81B04BD9
:108BC0001A78002A7CD0AF4B1E78AF4B002E79D19B
:108BD0001968B3F82C714E628889012A40EA0700AF
:108BE0008881A3F82C6157D0D3F83011B3F85C72A8
:108BF0004E628889022A40EA07008881A3F85C62F5
:108C00004AD0D3F86012B3F88C734E628889032A75
:108C100040EA07008881A3F88C633DD0D3F8901315
:108C2000B3F8BC744E628889042A40EA0700888140
:108C3000A3F8BC6430D0D3F8C014B3F8EC754E621E
:108C40008889052A40EA07008881A3F8EC6523D0CB
:108C5000D3F8F015B3F81C774E628889062A40EAEB
:108C600007008881A3F81C6716D0D3F82017B3F843
:108C70004C784E628889072A40EA07008881A3F869
:108C80004C6809D0D3F85028B3F87C095662918912
:108C900001439181A3F87C692A7823789A420FD006
:108CA0007A481F465B003B44DB00C218C3583BB9FF
:108CB000137A2BB9537A1BB97B1C03F0030323707F
:108CC000BDE8F0815E68198971603768186847F0FF
:108CD000010740F20D313760A0F848108689012A5B
:108CE00046F480768681D7D0D3F83461B3F83871F2
:108CF000D3F830017760376847F001073760A0F894
:108D000048108689022A46F480768681C4D0D3F83A
:108D10006462B3F86872D3F860027760376847F02E
:108D200001073760A0F848108689032A46F4807648
:108D30008681B1D0D3F89463B3F89873D3F89003D5
:108D40007760376847F001073760A0F848108689D8
:108D5000042A46F4807686819ED0D3F8C464B3F8A2
:108D6000C874D3F8C0047760376847F001073760EC
:108D7000A0F848108689052A46F4807686818BD033
:108D8000D3F8F465B3F8F875D3F8F0057760376871
:108D900047F001073760A0F848108689062A46F494
:108DA000807686813FF478AFD3F82467B3F82877CC
:108DB000D3F820077760376847F001073760A0F8DD
:108DC00048108689072A46F4807686813FF464AF8E
:108DD000D3F85428B3F85808D3F8503850601068C6
:108DE00040F001001060A3F848109A8942F48072A4
:108DF0009A8151E7804616F079FB27782B78BB42A1
:108E000086461DD07B002148DA1900EBC202167A93
:108E1000C6B1B8F1000F3DD01D490022B1F808C01D
:108E20000132BCF1000F18BF0026424501F58071E8
:108E3000F4D17EBB124A1278002A3FF434AFC2E666
:108E400012487B003B44DB00C118C258AEEB020263
:108E5000002AFFF635AF4A7A3AB1013AD2B24A72E5
:108E600012B30EF57A72C25000E0C250044B1A7869
:108E7000002A7FF4A8AE0FE7ECE40020EDE4002028
:108E800050D100204DC5002054D10020F0E4002036
:108E900050C50020DA19D2000EF51C518618103189
:108EA000815000223272C5E74A687244C250DDE741
:108EB00010B5027C01681F2A4FF020030ED94C68C0
:108EC000203A93401C4208D00B4A4068002414709A
:108ED000026822F001020260CB6010BD0C68934072
:108EE0001C42FAD0044A406800241470026822F040
:108EF000010202608B60F0E7C97100202DE9F041AA
:108F0000C40023189B00B749CA585268958AADB26D
:108F1000EFB2FE070B4461D4BE0737D5BFF35F8FB6
:108F20001D7EEDB2012D00F0BB80AF4E138BBFF361
:108F30005F8F231801EB83031D7E022D00F0CE808E
:108F4000231801EB83031D7E032D05D19B7E1BB1EE
:108F5000B37A002B40F01A81938896F909C043F444
:108F600080639380231801EB83031B7E01336345E9
:108F70000AD1F37A0025B572002B40F08A80204494
:108F800001EB800000234375BDE8F081964E17F099
:108F9000040F96F909C04DD117F0400700F0B280D8
:108FA000178A1D6AFFB205F80C705FFA8CF56F1C0A
:108FB00093F818E07BB2DF1CBE4573729C4600F04C
:108FC0000981271801EB87073F7EBB42CAD105F113
:108FD000020C4FFA8CFC86F809C0C3E71588824E54
:108FE00025F400652D042D0C1580158845F4806549
:108FF00015809D7E00277772002D3DD0B57A002D1B
:1090000037D0231801EB830301251B7EB572022B99
:1090100003D1138843F400631380231801EB830307
:109020009B7D43F001031382204401EB8000037E0B
:10903000BDE8F0819F7EB57A4FF0010E86F80BE017
:10904000002F5CD0002D78D1231801EB83035B7EC9
:10905000002B00F0A48013880CF1010C4FFA8CFC5B
:1090600043F4007386F809C013801388DF05FCD42D
:1090700078E7DB7DFF2BC4D0231801EB83039D7DB4
:1090800005F0FE051582DB7DFF2BCDD0FF2373722B
:10909000CAE7938823F440731B041B0C93806EE78C
:1090A0009B7E514E002B3FF441AFB37A002B3FF42F
:1090B0003DAF138823F480631B041B0C1380BFF3A4
:1090C0005F8F138B1388F57243F4007313809388BA
:1090D00096F909C043F48063938043E79B7E002B9D
:1090E0003FF42EAFB37A002B3FF42AAF138896F9E2
:1090F00009C023F480631B041B0C138016E0002DB1
:10910000A2D0A8E72D067FF52DAFBCF1FF3F6DD0B3
:10911000DD6915F80C5015820CF1010C1D7E4FFA1B
:109120008CF39D429C4673727FF41CAF938823F4AA
:1091300080631B041B0C938014E71F7ED3F82080F0
:109140005FFA8CF5AE44022F4FFA8EFE17882DD9A8
:1091500027F480673F043F0C1780178AFFB208F896
:109160000C701788D3F820C047F400731380138A5B
:10917000DBB20CF80E30938805F1020C4FFA8CFC30
:1091800043F4806386F809C093806EE7938896F96C
:1091900009C023F480631B041B0C9380E2E6138850
:1091A000012543F480731380B5725EE747F40077BE
:1091B0001780178AFFB208F80C70178AD3F820803E
:1091C00005F1030C4FFA8CFCFBB286F809C008F8D5
:1091D0000E304AE7978827F480673F043F0C97805A
:1091E000EFE600BF04AD002048140020DD7D1582AD
:1091F0009D7E77721DB91B7E002B7FF415AF93887F
:1092000023F480631B041B0C93800DE700230122D1
:10921000036003714371C37103724372C37282713D
:109220008272704738B524220C46002149F0CCFCEC
:10923000A2790346A07802F0030141EA800101F51A
:109240007A711980E078C2F3810141EA800101F569
:109250007A7159802079C2F3011141EA800101F548
:109260007A7199806179920942EA810202F57A72F3
:10927000DA80E279022A5AD0012A0CBF40F2DC528D
:109280004FF47A721A81227A12F0010F14BF4FF450
:10929000FA614FF47A7112F0020F14BF4FF4FA65BD
:1092A0004FF47A7512F0040F14BF4FF4FA604FF4C4
:1092B0007A7012F0100F598114BF4FF4FA614FF415
:1092C0007A7112F0080F14BF4FF4FA624FF47A72F9
:1092D00019829D81D8815A82627B607A02F00301F3
:1092E00041EA800101F57A719982A07AC2F3810185
:1092F00041EA800101F57A71D982E07AC2F3011165
:1093000041EA800101F57A711983217B920942EAD1
:10931000810202F57A725A83A27B920002F57A7278
:109320009A83E27B920002F57A72DA8338BD4FF4B9
:10933000FA621A81A7E708B5202149F05CFC0346D0
:10934000184623B10278202A03F10103F8D008BDA2
:1093500018F058BB014B186816F006BD24360020E3
:10936000B5EEC00ADFED317AF1EE10FACCBF30EE87
:10937000270A30EE670ADFED2E7A20EE270A30B595
:10938000FDEEC07A87B017EE904A054684EAE47095
:10939000002303A9A0EBE470CDE90033029346F06B
:1093A0000BF8002CACBF20232D2303A88DF8003030
:1093B00047F05EF9012803A924D002282DD0032804
:1093C00005BF3023684668468DF8013049F004FC3B
:1093D000684647F04DF90338C4B22246694628462C
:1093E00049F030FC00232B55284647F041F92E2246
:1093F000431C2A540DEB0401E81849F009FC2846E7
:1094000007B030BD302368468DF801308DF802304A
:109410008DF8033049F0E0FBDAE7302368468DF839
:1094200001308DF8023049F0D7FBD1E76F12033AD3
:1094300000007A4438B51D4B1B78044600F1250521
:1094400093B104221A49203049F0FCFB284614222B
:10945000184949F0F7FB012384F83A30164B1B7882
:1094600073B984F83B3038BD28461422134949F0BB
:10947000E9FB012384F83A300F4B1B78002BF0D026
:109480000F4B186859689A68DD68E5602060616074
:10949000A260DD69186959699A69A2610123E561D1
:1094A0002061616184F83B3038BD00BFAD380020D9
:1094B0007C38002064380020AE38002098890508E8
:1094C0008438002038B52E22002149F07DFB034668
:1094D00040F2DC51642040F21A4240F20224187437
:1094E0005982132019219A8240F2753240F26C752C
:1094F0001C8398760E2402201977DA830A21012230
:10950000DD8283F82C0040F6430583F82D1083F8A4
:1095100022409A7383F8252083F82B201D84194656
:109520000248BDE8384011F051BE00BFA8890508C7
:1095300010B500210446012015F050FE207010BD2A
:1095400038B500240472451EE1B2022015F046FE33
:109550000134082C05F8010FF6D138BD38B50024C8
:109560000546048021462846013433F073FA082C5E
:10957000F8D1002185F8E210A5F8E410A5F8E6106E
:10958000A5F8E810A5F8EA10A5F8EC10A5F8EE107B
:10959000A5F8F010A5F8F2102846BDE8384033F0E1
:1095A0001BBA00BFE221014818F0F4B9F42F0020E3
:1095B00010B5074C237F23442520197B3CF090F9FC
:1095C000237F0133DBB20F2B88BF0023237710BD2D
:1095D000481400202DE9F043072183B00546774861
:1095E00018F094F810F040040CD1754D15F07EFF82
:1095F000D5E90832C01A904233D82346184603B042
:10960000BDE8F08315F072FF6D4C402120622720E9
:109610003CF066F910232A466121684818F018F9D1
:10962000FFF7C0FFFFF7C4FF94F82830012B09D0E3
:10963000AB7B03F0C003C02B1DD00123184603B041
:10964000BDE8F083AA7B02F0C002C02AD6D0EA7936
:1096500094F82C309A4239D00023184603B0BDE864
:10966000F083FFF7A5FF15F041FF23462862184657
:1096700003B0BDE8F083EB792E7A6A7A514984F819
:109680002C3098191044C0B200F0030301EB031111
:1096900084F82E2084F82D60C0F38200013904F193
:1096A0000B0204F11B0511F8013F0344DBB21E0756
:1096B00004BF033BDBB202F8013F9542F3D1012323
:1096C0004FF47A7284F82830626297E72A7A94F825
:1096D0002D309A42C0D16A7A94F82E309A42BBD18A
:1096E0002B78394E3949DFF8F0E04FF47A7707FBF1
:1096F00003F3A6FB0323DB093B4442F210728B8089
:109700006262284605F103084FF0030C10F8012FA0
:10971000C2F17F039BB207FB03F3A6FB0393DB09B4
:1097200012F0800F03F57A7307D19BB2404521F800
:109730001C300AD01EF801CBE8E707FB02F3A6FBBA
:109740000323DB0903F57A73F0E7214B214F0193E3
:109750000DF1080C0DF1050304261020AA7B104220
:109760000CBF4FF47A724FF4FA629C4521F8162030
:1097700004D013F8010B17F8016BEFE7AB7A13F085
:10978000020F0CBF4FF47A734FF4FA630B82AB7A7B
:1097900013F0080F0CBF4FF47A734FF4FA634B8247
:1097A000AB7A13F0200F0CBF4FF47A734FF4FA63C7
:1097B0008B8215F09BFE022320621FE7F42F00200E
:1097C00048140020D02C050881808080541A002085
:1097D00010040102152D0508122D0508014625204B
:1097E0003CF07EB80F490B6B91F8342001330B63CA
:1097F00013F0010311D110B40B4801324479D2B2F5
:10980000944288BF134681F8342098BF81F83430E1
:1098100003445DF8044B187AE0E703481346034419
:10982000187ADBE7481400200000002070B5454D91
:1098300095F83540D4B1012C15D195F83610FFF7C5
:109840001BF9002845D1044615F050FEAB6B03F51B
:109850001C531033984207D9FFF7C4FF15F046FE9A
:10986000A863204670BD0024204670BD95F83610D0
:109870000646FFF701F910B90446204670BD2B7863
:10988000022B2DD030780028EED17478002CF3D143
:10989000B37BC02BE8D1F37B172BE5D12A4C237E79
:1098A00003F01F030122062B85F8352032D0162B3A
:1098B0002BD1264BA360052225492A203CF008F82D
:1098C0000023207A2B6385F834300124FFF786FFCC
:1098D000CAE7FFF787FF15F009FE0224A863B3E784
:1098E0007379AA2BC0D1B379AA2BBDD1F379AA2B56
:1098F000BAD1154C337823777378E376B378A376AF
:10990000F378637633792376CAE71E2B05D1114BA2
:10991000A360D0E7104BA360CDE71A0442EA0362CC
:109920001A430F2B42EA032208D9172B02D90B4BFB
:109930001344F0E70A4B1344A360BCE7094B1344FC
:10994000E9E700BF4814002000000020311148283A
:109950001800002021411838112131410222FA1942
:109960001AFA31120A1A2A3A70B5164D164E012308
:10997000013885F83C3005F14004062110F8012F2C
:1099800002F00F0303EB1213A6FB03C2D208C2EBD3
:1099900002129B1A01F10F020B44D1B2422904F8C2
:1099A000013BEBD1094B41F288321A6215F09EFD62
:1099B0000023686485F8483095F84000BDE87040A1
:1099C0000CE700BF48140020898888880000002028
:1099D0002DE9F8434B4C6778804637B3012F2CD1E3
:1099E00015F084FD102106464046FFF745F840BBC0
:1099F0000746E36C03F59C5308339E421ED994F846
:109A0000503094F851200133DBB29A4284F8503040
:109A10009CBF002384F85030234493F85400FFF790
:109A2000DDFEE6643846BDE8F8831021FFF724F830
:109A300018B14046FEF760FF70B900273846BDE810
:109A4000F8830921304817F061FE4046FEF754FFC5
:109A5000002840D10227D2E7A523102683224FF009
:109A6000040988F80130294D88F800203146272064
:109A700088F8079088F808603BF032FF324641468C
:109A8000A8203BF025FF0123294605222A206370E8
:109A90003BF01EFF0522294630203BF019FF15F050
:109AA00025FD2A78E06402F00702931902F17000A4
:109AB00084F8519084F8507004F1530203F10C01C2
:109AC00002F8013FCBB28342F8D194F85400FFF77B
:109AD00085FE0127B2E71025A5220423832188F8FB
:109AE000001088F80120294688F8073088F80850C7
:109AF00027203BF0F5FE2A464146A8203BF0E8FE31
:109B000077E700BF48140020F42F00200000002059
:109B1000064A92F85C300133DBB2032B88BF002386
:109B200082F85C30134493F8600057E64814002034
:109B300010B50F4C0F4BD4F82021B4F824115183E9
:109B4000202093F864103BF0CBFE702127203BF0DF
:109B5000C7FED4F82031B4F824211A830A2015F066
:109B600017FDD4F82031B4F824215A8310BD00BF6A
:109B700034AE00204814002010B50C4A0C4C92F86A
:109B80006410D4F82031B4F824215A8341F0010143
:109B900020203BF0A5FE702127203BF0A1FED4F849
:109BA0002031B4F824211A8310BD00BF48140020CE
:109BB00034AE002008B5002121203BF091FE0121A8
:109BC00022203BF08DFE032123203BF089FE002163
:109BD0003C20BDE808403BF083BE00BF70B53A4C66
:109BE00094F86550A91CC9B20646FEF745FF28BB8C
:109BF00015F07CFC00260546344A636C126A134457
:109C0000AB4213D294F8480094F83C300130C0B213
:109C100084F8480063B1032884BF002084F848001A
:109C2000204490F84000FFF7D9FD6564304670BDD0
:109C30002628F8D9062084F84800F4E72946244A63
:109C400030463BF009FE94F86530F15CC0F30F221A
:109C50009142CDD13344C0B25A7894F83C3082421C
:109C6000C6D14BBB7379002BC2D1B379002BBFD1C6
:109C7000F379012BBCD17578B078F1783279367AE6
:109C80002B180B441344DBB2B342B1D1E36E84F81A
:109C9000685084F8690084F86A1084F86B201BB15E
:109CA0001A680AB9A26E1A600A48FFF75DFE15F03D
:109CB0001DFC012605469FE7012B99D115F016FCE6
:109CC000022605469EE700BF481400200000002041
:109CD00024000020B014002070B50F4C94F8705090
:109CE000A91CC9B20646FEF7C7FE08B9002070BD20
:109CF00029460A4A30463BF0AFFD94F87030F15CDB
:109D0000C0F30F229142F1D11E44C3B27078C01A41
:109D1000B0FA80F0400970BD48140020640B0020A8
:109D20002DE9F043534E96F87140012C83B08046E4
:109D300041D019D3022C03D0002003B0BDE8F0833A
:109D400015F0D4FB05464046FFF7C6FF002840F05B
:109D50008B80736FB26F1344AB42EED20190FFF76A
:109D6000D7FE75670198E8E7FFF7B6FF0028E3D054
:109D700098F80030AA2BDFD198F8012098F802302B
:109D800002F00F0003F00F01033012091B09002439
:109D900016322D31403386F86000012086F86120AC
:109DA00086F8621086F8633086F85C4086F8724068
:109DB00086F87100C1E796F87230447201330220D0
:109DC00086F87230FFF70AFD2B48E121054617F0AF
:109DD000E1FD96F87010404642F07AFB0024FFF750
:109DE000A7FE02E015F0D4FB64341721284617F0D3
:109DF0008DFC10F0100F4FF06400F3D01F4F1E4D7C
:109E000007F1040917F8010BFFF7E8FC96F870104A
:109E1000404642F05DFBFFF78BFE02E015F0B8FB19
:109E200064341721284617F071FC10F0100F4FF022
:109E30006400F3D04F45E5D1B4F57A7F0FDBFFF72F
:109E40009BFE96F87230082B7FF676AF96F860008E
:109E5000FFF7C4FC022386F8713000206DE7C4F5DB
:109E60007A7015F095FBEAE7FFF752FE204675671A
:109E70002B466FE748140020F42F0020A814002080
:109E80002DE9F843404C4149D4F82031404E03F1CC
:109E90003F4202F57E02920A40F002008A5C86F898
:109EA00064001E2102F01F005209002584F82611CB
:109EB000032A4FF0010184F8275101FA00F15DD027
:109EC000042A56D0022A4FD0B4F82471002201256A
:109ED0004FF0030E4FF0020C05FA02F434EA0701CA
:109EE00029D15000D3F800800EFA00F1C94308EAE6
:109EF0000108C3F80080D3F8009005FA00F848EA9A
:109F00000908C3F80080D3F8088001EA0808C3F8FC
:109F10000880D3F808800CFA00F040EA0800986046
:109F2000586820EA04045C6058685860D8680140AA
:109F3000D960D968D9600132102ACDD15F8315F07C
:109F4000D5FA144B984204D8C0F5C330A03015F0B0
:109F50001FFB96F8641020203BF0C2FC41F29410E5
:109F6000BDE8F84315F014BB0B4A506C0143516433
:109F7000AAE7094A106B01431163A5E7064A106C72
:109F800001431164A0E700BF34AE0020847E0508C1
:109F9000481400209F8601000038024030B50B2392
:109FA0000B7083B004780C20FFF76AFF002121209A
:109FB0003BF096FC012122203BF092FC0321232060
:109FC0003BF08EFCFF2124203BF08AFC002C45D086
:109FD000022126203BF084FC702127203BF080FCEE
:109FE000214C224D102131203BF07AFC00213720FA
:109FF0003BF076FC94E80300052200908DF80410F5
:10A000002A2069463BF064FC0522694630203BF07B
:10A010005FFCE121164817F0BDFCFFF7C3FA0023EF
:10A020002B7785F8283015F061FAA4F14B022862ED
:10A0300005F10B0305F11B00272101E012F8011BBC
:10A0400003F8011F8342F9D14FF47A736B62FFF773
:10A05000AFFAFFF791FD012003B030BD2221262089
:10A060003BF03EFCB8E700BF1C2D0508481400205B
:10A07000F42F002070B509230B700478204D0C20BC
:10A080002C70FFF7FDFEFFF795FD022C26D0102364
:10A090000221262085F836303BF022FC05221949A2
:10A0A000194E2A203BF014FC184B0FCB06F1080484
:10A0B00007C424F8023B0F211B0C0122237071718D
:10A0C00085F83520307AFFF789FB95F83610312076
:10A0D0003BF006FCFFF750FD012070BD0A23222152
:10A0E000262085F836303BF0FBFB0023052208498B
:10A0F00085F835302A203BF0EBFB034EE2E700BF4A
:10A1000048140020242D0508000000202C2D0508EF
:10A11000180000200E2370B50B70164C0023064665
:10A12000184684F83C30FFF7ABFEFFF743FD0221F1
:10A1300026203BF0D5FB351D05220F492A203BF098
:10A14000C7FBE5660DB1736883B90623184684F82A
:10A150004830FFF743FB14231621312084F8653083
:10A160003BF0BEFBFFF708FD012070BD2846FFF75E
:10A17000FBFBF0E7481400202400002038B5122330
:10A180000B703C20FFF77CFE012121203BF0A8FB57
:10A19000012122203BF0A4FB032123203BF0A0FB64
:10A1A000002124203BF09CFB732150203BF098FBC6
:10A1B0001A4D1B4C06213D203BF092FB01213C2017
:10A1C0003BF08EFB2946052230203BF081FB22210B
:10A1D00026203BF085FB052229462A203BF078FB10
:10A1E000102131203BF07CFB012500234C206360D3
:10A1F000637084F8503084F85150FFF7EFFAFFF79E
:10A20000BBFC102127203BF06BFB04F17C011022EA
:10A21000A8203BF05DFB284638BD00BF00000020B1
:10A220004814002038B509230B7001781A4C042912
:10A230004FF0000240F2DC5041F6641312BF1325C8
:10A2400003460F251046A36784F87120217284F815
:10A250007050FFF715FEFFF7ADFC0220FFF7BEFAC6
:10A26000022126203BF03CFBFFF79CF905220B491D
:10A2700030203BF02DFB052209492A203BF028FB2A
:10A2800094F870100231C9B231203BF029FBFFF77E
:10A2900073FC012038BD00BF481400202C000020B2
:10A2A000640B00204268AE49138823F040032DE977
:10A2B000F04F1B041B0C1380138885B023F0380368
:10A2C0001B048A4201904FEA134300F0778101F5A5
:10A2D00080618A420CBF302138210B431380019BDF
:10A2E00011881B6941F04001118013B11A689B88E5
:10A2F0005383012015F04CF9019B586840F2E93373
:10A30000828902E0002B00F05B810289013B12F0A0
:10A31000020F9BB2F6D06B23838140F2E93302E057
:10A32000002B00F04D810289013B12F0010F9BB21E
:10A33000F6D08389838940F2E93302E0002B00F0F4
:10A3400044810289013B12F0020F9BB2F6D08023B8
:10A35000838140F2E93302E0002B00F0368102896C
:10A36000013B12F0010F9BB2F6D08389019B1B6960
:10A3700013B11A689B881383012015F009F9794CF1
:10A38000DFF8EC81DFF8ECA1774D784E15230393CD
:10A390009623DFF8E4C100934FF0100EDAF8043092
:10A3A000C3F30803002B40F0B480EFF31183002BBC
:10A3B00040F0AF802068AA6823689842FAD13368D9
:10A3C0009A42F7D8D8F800704FF47A7101FB07F37E
:10A3D0009B1AB3FBF7F301FB00304FF47A774FF091
:10A3E0000109DAF80430C3F30803002B72D1EFF34C
:10A3F0001183002B6ED12368A96822689342FAD199
:10A4000032689142F7D8D8F8002007FB02FBABEB8B
:10A410000101B1FBF2F107FB03131B1AB3F57A7FBD
:10A42000DFD3009B013B0093B8D1019B1B6913B1A3
:10A430001A689B885383019B586840F2E9338289EC
:10A4400002E0002B00F087800289013B12F0020F2E
:10A450009BB2F6D0F523838140F2E93301E0002B73
:10A4600079D00289013B12F0010F9BB2F7D08389AA
:10A47000838940F2E93301E0002B69D00289013B76
:10A4800012F0020F9BB2F7D0FF23838140F2E93331
:10A4900001E0002B5CD00289013B12F0010F9BB25E
:10A4A000F7D08389DBB20293019B1B6913B11A6851
:10A4B0009B881383029B03F0FD03712B5ED0039BEB
:10A4C000013B13F0FF0303937FF462AF184605B01E
:10A4D000BDE8F08FEFF311818EF31288D5F808B044
:10A4E0002B68DB0344BFCCF80090D5F808B0236894
:10A4F000DCF80020C9B281F31188D8F800101344A9
:10A5000007FB01F2A2EB0B02B2FBF1F207FB032304
:10A5100083E7EFF311838EF31288AF682A68D203C2
:10A5200003D50122CCF80020AF682068DCF8009049
:10A53000DBB283F31188D8F800104FF47A724844E4
:10A5400002FB01F3DB1BB3FBF1F302FB003044E73A
:10A5500017F0CAF8A8E717F0C7F8019B586887E713
:10A5600000380040A0AF002010E000E0A8AF0020BD
:10A57000A4AF002000ED00E09CAF0020019B144937
:10A580005A68138823F040031B041B0C13801388A4
:10A5900023F038031B048A424FEA134305D001F528
:10A5A00080618A4201D043F008031380138806209B
:10A5B00043F04003138005B0BDE8F08F30218CE6F6
:10A5C00017F092F8019B5868B4E617F08DF8CDE6C5
:10A5D000003800402DE9F04F036987B0CDE9010153
:10A5E000009213B11A689B885383012014F0D0FFA6
:10A5F000019B586840F2E933828902E0002B00F0A9
:10A60000F4820289013B12F0020F9BB2F6D0BDF832
:10A610000830838140F2E93302E0002B00F0E5824C
:10A620000289013B12F0010F9BB2F6D08389838926
:10A6300040F2E93302E0002B00F0D4820289013BB2
:10A6400012F0020F9BB2F6D0BDF80030838140F2C9
:10A65000E93302E0002B00F0C5820289013B12F0D1
:10A66000010F9BB2F6D08389019B1B6913B11A6855
:10A670009B881383012014F08BFF642014F088FF63
:10A68000029BA24CDFF89882A14FA24DDFF8949272
:10A69000A14E43F08003039315230593019B1B698F
:10A6A00013B11A689B8853837B68C3F30803002B9C
:10A6B00040F06482EFF31183002B40F05F8220684A
:10A6C000AA6823689842FAD133689A42F7D8D8F832
:10A6D00000C04FF47A7101FB0CF39B1AB3FBFCF33F
:10A6E00001FB00304FF0100E4FF47A7C4FF0010A5E
:10A6F0007B68C3F30803002B40F09E81EFF31183C6
:10A70000002B40F099812368A96822689342FAD10E
:10A7100032689142F7D8D8F800200CFB02FBABEB73
:10A720000101B1FBF2F10CFB03139842E0D0019B55
:10A73000586840F2E933828902E0002B00F0418240
:10A740000289013B12F0020F9BB2F6D0BDF80C302B
:10A75000838140F2E93302E0002B00F0328202896B
:10A76000013B12F0010F9BB2F6D08389838940F23E
:10A77000E93302E0002B00F0DB810289013B12F09B
:10A78000020F9BB2F6D0FF23838140F2E93302E04F
:10A79000002B00F0CD810289013B12F0010F9BB22A
:10A7A000F6D08389DBB20493019B1B6913B11A684D
:10A7B0009B8813837B68C3F30803002B40F0BB81A5
:10A7C000EFF31183002B40F0B6812068AA6823685C
:10A7D0009842FAD133689A42F7D8D8F800C04FF4BB
:10A7E0007A7101FB0CF39B1AB3FBFCF301FB003005
:10A7F0004FF0100E4FF47A7C4FF0010A7B68C3F3E0
:10A800000803002B40F0F980EFF31183002B40F098
:10A81000F4802368A96822689342FAD13268914291
:10A82000F7D8D8F800200CFB02FBABEB0101B1FB21
:10A83000F2F10CFB03139842E0D0009B049A934280
:10A8400000F0CC813549019B1A69CB880133CB805C
:10A8500012B1136892885A8314F048FE4FF0010A2F
:10A860004FF0100E4FF47A7C7B68C3F30803002B83
:10A8700040F00181EFF31183002B40F0FC8023684E
:10A88000A96822689342FAD132689142F7D8D8F881
:10A8900000200CFB02FBABEB0101B1FBF2F10CFB66
:10A8A00003139842E0D0019B586840F2E933828953
:10A8B00002E0002B00F08A810289013B12F0020FB6
:10A8C0009BB2F6D0BDF80830838140F2E93302E054
:10A8D000002B00F07B810289013B12F0010F9BB23B
:10A8E000F6D08389838940F2E93302E0002B00F03F
:10A8F00072810289013B12F0020F9BB2F6D0BDF8C3
:10A900000030838140F2E93311E000BFA0AF0020A6
:10A9100000ED00E010E000E0A8AF00209C8F0020D8
:10A92000A4AF00209CAF0020002B00F054810289CE
:10A93000013B12F0010F9BB2F6D08389019B1B698A
:10A9400013B11A689B88138314F0D0FD4FF0010AED
:10A950004FF0100E4FF47A7C7B68C3F30803002B92
:10A9600040F0C780EFF31183002B40F0C2802368D2
:10A97000A96822689342FAD132689142F7D8D8F890
:10A9800000200CFB02FBABEB0101B1FBF2F10CFB75
:10A9900003139842E0D014F0A9FD4FF0010A4FF0E4
:10A9A000100E4FF47A7C7B68C3F30803002B40F051
:10A9B0008180EFF31183002B7CD12368A968226882
:10A9C0009342FAD132689142F7D8D8F800200CFBB4
:10A9D00002FBABEB0101B1FBF2F10CFB03131B1A01
:10A9E000632BE0D9059B013B13F0FF0305937FF434
:10A9F00055AE184607B0BDE8F08FEFF311818EF326
:10AA00001288D5F808B02B68DA0344BFC9F800A053
:10AA1000D5F808B02368D9F80020C9B281F31188AD
:10AA2000D8F8001013440CFB01F2A2EB0B02B2FBAE
:10AA3000F1F20CFB0323FEE6EFF311818EF3128893
:10AA4000D5F808B02B68DB0344BFC9F800A0D5F8DF
:10AA500008B02368D9F80020C9B281F31188D8F86A
:10AA6000001013440CFB01F2A2EB0B02B2FBF1F25B
:10AA70000CFB032359E6EFF311818EF31288D5F80E
:10AA800008B02B68DB0344BFC9F800A0D5F808B0B4
:10AA90002368D9F80020C9B281F31188D8F80010D2
:10AAA00013440CFB01F2A2EB0B02B2FBF1F20CFB24
:10AAB0000323F6E6EFF311818EF31288D5F808B080
:10AAC0002B68DB0344BFC9F800A0D5F808B02368A1
:10AAD000D9F80020C9B281F31188D8F800101344C6
:10AAE0000CFB01F2A2EB0B02B2FBF1F20CFB032315
:10AAF00075E7EFF311818EF31288D5F808B02B6853
:10AB0000DA0344BFC9F800A0D5F808B02368D9F823
:10AB10000020C9B281F31188D8F8001013440CFB4F
:10AB200001F2A2EB0B02B2FBF1F20CFB032330E7C4
:10AB300016F0DAFD38E6EFF31183102282F3128863
:10AB4000D5F808C02A68D10304D50122C9F800202D
:10AB5000D5F808C02068D9F800E0DBB283F311888B
:10AB6000D8F800104FF47A72704402FB01F3A3EBA3
:10AB70000C03B3FBF1F302FB003039E6EFF3118372
:10AB8000102282F31288D5F808C02A68D20304D5AF
:10AB90000122C9F80020D5F808C02068D9F800E0E3
:10ABA000DBB283F31188D8F800104FF47A72704446
:10ABB00002FB01F3A3EB0C03B3FBF1F302FB003048
:10ABC00090E516F091FD019B5868CFE516F08CFDDD
:10ABD000019B586886E616F087FDAFE6012007B0B6
:10ABE000BDE8F08F16F080FD3EE516F07DFD019B7F
:10ABF00058681CE538B5054640683B4A038823F091
:10AC000040031B041B0C0380038823F038031B0440
:10AC100090424FEA134305D002F58062904201D082
:10AC200043F00803038003882A6943F0400303804C
:10AC300012B1136892885A83838940F2E93301E0A4
:10AC4000002B43D00289013B12F0020F9BB2F7D0D8
:10AC5000F523838140F2E93301E0002B36D00289ED
:10AC6000013B12F0010F9BB2F7D08389838940F238
:10AC7000E93300E00BB30289013B12F0020F9BB2F3
:10AC8000F8D0FF23838140F2E93300E0ABB10289C1
:10AC9000013B12F0010F9BB2F8D08489E4B22B691A
:10ACA00013B11A689B881383712C19D008D9AC2C66
:10ACB00014D0AF2C0ED1092038BD16F015FDEEE7EB
:10ACC000122C0FD0702C07D1052038BD16F00CFDCA
:10ACD0006868CBE7732C03D0002038BD072038BD4F
:10ACE000062038BD082038BD00380040F0B5076A9E
:10ACF00083B0064617B13B68BA885A837069DFF89B
:10AD0000A8E08389C3244FF47A734FF0060C6D4694
:10AD10004FF6FF710EF1010E03E0013B9BB28B4237
:10AD200020D002899207F8D5A3B283814FF47A73B9
:10AD300002E0A3B28B4215D00289D20703F1FF349F
:10AD4000F7D5828992B20DB12A700135BCF1000F9E
:10AD50000BD00CF1FF3CFF24BEF1000FE1D09EF8B8
:10AD60000040D7E716F0C0FC376A17B13B68BA88D5
:10AD70001A839DF805009DF801509DF802109DF87A
:10AD800003409DF804209DF8063041EA052143EA7E
:10AD9000002342EA04220120A6F85810A6F85A20FF
:10ADA000A6F85C3003B0F0BD3C2D050808B50120C5
:10ADB00035F02AFB284A936803F00C03082B08D0CF
:10ADC0000C2B1FD0042B254B1ABF254A1A60186084
:10ADD00008BD51685368490203F03F0333D45268F9
:10ADE0001F48B0FBF3F0C2F3881300FB03F01A4BCB
:10ADF0001A4A5B68C3F3014301335B00B0FBF3F015
:10AE0000106008BD51685368490203F03F0312D433
:10AE100052681348B0FBF3F0C2F3881300FB03F051
:10AE20000D4B0E4A5B68C3F3027301335B00B0FB4A
:10AE3000F3F0106008BDB0FBF3F05368C3F3881360
:10AE400000FB03F0ECE7B0FBF3F05368C3F38813A7
:10AE500000FB03F0CBE700BF0038024030AE00201B
:10AE60000024F400037C02681F2B86BF203B51683E
:10AE70001168202202FA03F30B4214BF01230023BE
:10AE800003B970472DE9F0474569DFF858A12D0255
:10AE9000044614F02BFB0AEB050380461A7C002ABB
:10AEA00034D14B495A680978D2F80090C9B9D168B1
:10AEB00058890A6822F001020A60B9F80C3023EAC6
:10AEC0000003A9F80C30434B1B78002B31D1237CB5
:10AED00021681F2B13D8202202FA03F38B60BDE8F0
:10AEE000F0879269136823F001031360B9F80C30FE
:10AEF00023F480731B041B0CA9F80C30E3E7203B00
:10AF0000202202FA03F3CB60BDE8F0875A6832488A
:10AF10001568D6685F8901225A743168036821F088
:10AF200001013160AA89013322EA0702AA81036084
:10AF3000CDE70AEB05062835776F384635F0FCF982
:10AF400001230AEB05014846337435F0B5FAD6E91A
:10AF50001202736B316D3D6803431343D6E915202C
:10AF60000B431343F16DB26E03430B431B48F16E69
:10AF7000134328400B430343002232643B60D6E96D
:10AF800018317A69756CB06B22F007020B431343DA
:10AF9000F26B7B617D60B860FA603B687268706FCD
:10AFA000D16896F87050126843F010033B6045601A
:10AFB0000B6843F001030B60938971890B43938104
:10AFC00014F094FA064BA0EB080018607FE700BF6E
:10AFD0004DC500204CC50020D8A000203F801CF0AB
:10AFE000FC32002050C500208A4B1B78002B00F05B
:10AFF0009880002800F095802DE9F04F431E85B021
:10B00000854C0190032B4FF00006A8BF0323A4F149
:10B0100014070393B0464FEA062A07EB0A03256E8E
:10B020005B7C002B7ED06A6892B2002A65D114F84E
:10B03000050CD4E91B13002800F004856033774821
:10B040005B1AA0FB0351890901EB4101A3EB4113FA
:10B05000182B00F1D185173BA0FB0323DB0003F085
:10B06000F003D4E91D126D486032521AA0FB025160
:10B07000890901EB4101A2EB4112182A05D4173AC4
:10B08000A0FB0212C2F343021343D4E91F12634828
:10B090006032521AA0FB0251890901EB4101A2EB77
:10B0A0004112182A5EBF173AA0FB0212C2F34305F1
:10B0B000D4E92112594802F16002A2EB0102A0FB7F
:10B0C00002C14FEA911101EB4101A2EB411248BFCD
:10B0D0000025182A58BF173A45EA03155ABFA0FBA6
:10B0E0000223C3F34303002343EA051383EA132235
:10B0F00082EA1212100700F06685494A136801338C
:10B10000136026B980224749474846F037FA07EBD3
:10B110000A0383F8118054F8109C256ED9F800B00A
:10B120000CE0704754F8109C34F80A1CD9F800B0B1
:10B13000BBF80C2022EA0102ABF80C202A683B4B3A
:10B1400022F0010221219D422A60C5F80080C5F845
:10B150000480C5F80880C5F80C80C5F810806961C6
:10B160001FD0334B9D4200F09683324B9D4200F03E
:10B170009C83314B9D4200F03985304B9D4200F05D
:10B1800062852F4A954200F063852E4A954200F071
:10B19000DE852D4A954200F04C85284635F03CF876
:10B1A00002E02A4A3D219160BA448AF8108099F859
:10B1B00005100C2916D8DFE811F044011500150020
:10B1C00015004D011500150015003B011500150077
:10B1D00015000D00BBF81C2022F400621204120CB2
:10B1E000ABF81C202246584613F084FB99F8053032
:10B1F0000C2B37D8DFE813F0060136003600360096
:10B200001101360036003600FB00360036003600ED
:10B210002C0000BF4CC5002064C50020ABAAAAAA20
:10B22000D4A00020D0C500200033002010600240D0
:10B230002860024040600240586002407060024056
:10B2400088600240A0600240B86002400060024096
:10B25000BBF81C3023F400631B041B0C43F4006395
:10B26000ABF81C30D4E90D12236AE06B43F04003C5
:10B270000B431343226CB14903431343626C1343E2
:10B280004022E262A26C28681343A26D0292626DB2
:10B290001343029A014013430B432B60D4E913314B
:10B2A0006A69206B22F007020B431343D4E90912A9
:10B2B0006B616860A960EA602B6843F010032B6043
:10B2C000039B01369E4204F580747FF7A4AE019B78
:10B2D0009E4280F2CF814FEA062A0AF114043C44D0
:10B2E0004FF0000807EB0A03256E5B7C002B00F093
:10B2F000BA806A6892B2002A65D114F8050CD4E9C4
:10B300001B13002800F0D68260338D485B1AA0FB27
:10B310000351890901EB4101A3EB4113182B00F103
:10B320006E84173BA0FB0323DB0003F0F003D4E99A
:10B330001D1283486032521AA0FB0251890901EBA9
:10B340004101A2EB4112182A05D4173AA0FB0212C0
:10B35000C2F343021343D4E91F1279486032521AF0
:10B36000A0FB0251890901EB4101A2EB4112182A0D
:10B370005EBF173AA0FB0212C2F34305D4E92112C3
:10B380006F4802F16002A2EB0102A0FB02C14FEA8A
:10B39000911101EB4101A2EB411248BF0025182A8F
:10B3A00058BF173A45EA03155ABFA0FB0223C3F35F
:10B3B0004303002343EA051383EA132282EA1212AD
:10B3C000120700F03A835F4A13680133136026B90D
:10B3D00080225D495D4846F0D1F807EB0A0383F807
:10B3E000118054F8109C256ED9F800B047E0BBF8E6
:10B3F0001C3023F008031B041B0C43F00803ABF8BC
:10B400001C302FE7BBF8183023F008031B041B0C7B
:10B4100043F00803ABF8183024E7BBF8183023F4E6
:10B4200000631B041B0C43F40063ABF8183019E7EE
:10B43000BBF81C2022F008021204120CABF81C20EE
:10B44000D0E6BBF8182022F008021204120CABF868
:10B450001820C7E6BBF8182022F400621204120C70
:10B46000ABF81820BEE654F8109C34F80A1CD9F842
:10B4700000B0BBF80C2022EA0102ABF80C202A68CD
:10B48000334B22F0010221219D422A60C5F8008041
:10B49000C5F80480C5F80880C5F80C80C5F8108090
:10B4A00069611FD02B4B9D4200F0F0812A4B9D42D9
:10B4B00000F0F681294B9D4200F09383284B9D427A
:10B4C00000F0BD83274A954200F0C783264A954283
:10B4D00000F04284254A954200F0A683284634F0C5
:10B4E0009BFE02E0224A3D219160BA448AF8108016
:10B4F00099F805100C2910D8DFE801F0A70F0F0FFD
:10B500009E0F0F0FB00F0F0F0700BBF81C2022F487
:10B5100000621204120CABF81C202246584613F0AD
:10B52000E9F999F805300C2B2ED8DFE803F06F2DE0
:10B530002D2D7A2D2D2D642D2D2D23003F801CF0D7
:10B54000ABAAAAAAD4A00020D0C5002000330020B6
:10B550001060024028600240406002405860024093
:10B560007060024088600240A0600240B860024003
:10B5700000600240BBF81C3023F400631B041B0C6A
:10B5800043F40063ABF81C30D4E90D12236AE06B7E
:10B5900043F040030B431343226C354903431343E9
:10B5A000626C13434022E262A26C28681343A26DCE
:10B5B0000292626D1343029A014013430B432B60C6
:10B5C000D4E913316A69206B22F007020B4313435D
:10B5D000D4E909126B616860A960EA602B6843F0E6
:10B5E00010032B60019B0136B34204F5807441D0F7
:10B5F0004FEA062A76E6BBF81C3023F008031B044A
:10B600001B0C43F00803ABF81C30BDE7BBF8183047
:10B6100023F008031B041B0C43F00803ABF818309D
:10B62000B2E7BBF8183023F400631B041B0C43F48F
:10B630000063ABF81830A7E7BBF8182022F40062CB
:10B640001204120CABF8182067E7BBF8182022F0A0
:10B6500008021204120CABF818205EE7BBF81C209D
:10B6600022F008021204120CABF81C2055E700BFB0
:10B670003F801CF07A68787B13685179800754BF4B
:10B68000012204228A40198C92B221EA0201198413
:10B69000198C0A431A84019B012B00F0F480D7F81F
:10B6A000042197F80D0113685179820754BF0122D4
:10B6B00004228A40198C92B221EA02011984198C61
:10B6C0000A431A84019B022B00F0DD80D7F8042284
:10B6D00097F80D0213685179860754BF012204229E
:10B6E0008A40198C92B221EA02011984198C0A430A
:10B6F0001A84019B032B00F0C680D7F8042397F827
:10B700000D0313685179850754BF012204228A4032
:10B71000198C92B221EA02011984198C0A431A8405
:10B72000019B042B00F0AF80D7F8042497F80D1488
:10B73000136850798C0754BF01220422198C82406F
:10B7400092B221EA02011984198C0A431A84019BDE
:10B75000052B00F09880D7F8042597F80D0513689D
:10B760005179800754BF012204228A40198C92B279
:10B7700021EA02011984198C0A431A84019B062BC1
:10B7800000F08180D7F8042697F80D1613685079D9
:10B790008A0754BF01220422198C824092B221EA06
:10B7A00002011984198C0A431A84019B072B6AD061
:10B7B000D7F8042797F80D0713685179860754BF07
:10B7C000012204228A40198C92B221EA02011984D2
:10B7D000198C0A431A84019B082B54D0D7F80428EB
:10B7E00097F80D18136850798D0754BF0122042271
:10B7F000198C824092B221EA02011984198C0A4301
:10B800001A84019B092B3ED0D7F8042997F80D091B
:10B8100013685179840754BF012204228A40198C8D
:10B8200092B221EA02011984198C0A431A84019BFD
:10B830000A2B28D0D7F8042A97F80D0A13685179F3
:10B84000800754BF012204228A40198C92B221EA57
:10B8500002011984198C0A431A84019B0B2B12D004
:10B86000D7F8042B97F80D0B1368517982074CBF5A
:10B87000042201228A40198C92B221EA0201198421
:10B88000198C0A431A8405B0BDE8F08FDD4A4FF4E5
:10B890007461916029E6DB4A4FF47461916083E43E
:10B8A000D84A4FF4741191601FE6D64A4FF47411D0
:10B8B000916079E45B1A002B40F3B0810A2BD4BF6E
:10B8C00000230123D4E91D12521A002A4FEA430330
:10B8D00040F301820A2A01DD43F00103D4E91F127B
:10B8E000521A002A4FEA430340F3FD810A2A01DD80
:10B8F00043F00103D4E92112521A002A4FEA43030C
:10B9000040F3ED810A2A01DD43F00103D4E923125B
:10B91000521A002A4FEA430340F3D5810A2A01DD77
:10B9200043F00103D4E92512521A002A4FEA4303D7
:10B9300040F3C5810A2A01DD43F00103D4E927124F
:10B94000521A002A4FEA430340F3B5810A2A01DD67
:10B9500043F00103D4E92912521A002A4FEA4303A3
:10B9600040F3A5810A2A01DD43F00103D4E92B123B
:10B97000521A002A4FEA430340F395810A2A01DD57
:10B9800043F00103D4E92D12521A002A4FEA43036F
:10B9900040F385810A2A01DD43F00103D4E92F1227
:10B9A000521A002A4FEA430340F375810A2A01DD47
:10B9B00043F00103D4E93112521A002A4FEA43033B
:10B9C00040F365810A2A01DD43F00103D4E9331213
:10B9D000521A002A4FEA430340F355810A2A01DD37
:10B9E00043F00103D4E93512521A002A4FEA430307
:10B9F00040F345810A2A01DD43F00103D4E93712FF
:10BA0000521A002A4FEA430340F335810A2A01DD26
:10BA100043F00103D4E93912521A002A4FEA4303D2
:10BA200040F325810A2A01DD43F0010383EA132252
:10BA300082EA121215077FF4C6ACC3F30F1324F881
:10BA4000023CCAE45B1A002B40F3E2800A2BD4BF0D
:10BA500000230123D4E91D12521A002A4FEA43039E
:10BA600040F335810A2A01DD43F00103D4E91F12B6
:10BA7000521A002A4FEA430340F365810A2A01DD86
:10BA800043F00103D4E92112521A002A4FEA43037A
:10BA900040F355810A2A01DD43F00103D4E9231262
:10BAA000521A002A4FEA430340F345810A2A01DD76
:10BAB00043F00103D4E92512521A002A4FEA430346
:10BAC00040F335810A2A01DD43F00103D4E927124E
:10BAD000521A002A4FEA430340F325810A2A01DD66
:10BAE00043F00103D4E92912521A002A4FEA430312
:10BAF00040F315810A2A01DD43F00103D4E92B123A
:10BB0000521A002A4FEA430340F305810A2A01DD55
:10BB100043F00103D4E92D12521A002A4FEA4303DD
:10BB200040F3F5800A2A01DD43F00103D4E92F1226
:10BB3000521A002A4FEA430340F3E5800A2A01DD46
:10BB400043F00103D4E93112521A002A4FEA4303A9
:10BB500040F3D5800A2A01DD43F00103D4E9331212
:10BB6000521A002A4FEA430340F3C5800A2A01DD36
:10BB700043F00103D4E93512521A002A4FEA430375
:10BB800040F3B5800A2A01DD43F00103D4E93712FE
:10BB9000521A002A4FEA430366DD0A2A01DD43F008
:10BBA0000103D4E93912521A002A4FEA430358DD3F
:10BBB0000A2A01DD43F0010383EA132282EA12120A
:10BBC00011077FF49AAA104A1278C3F30F132F2A91
:10BBD00024F8023C7FF49BAA0C4A22F81630FFF7A7
:10BBE00096BA084A4FF0746191607EE4054A4FF0BE
:10BBF00074619160FFF7D8BA1346FFF732BA134663
:10BC0000FFF795BB00600240988F00209C8F0020BA
:10BC100013F1090FB4BF002301231BE713F1090F30
:10BC2000B4BF002301234DE64FF03D5142F8AC1C58
:10BC30005BE44FF03D5142F8AC1CFFF7B5BA494AFE
:10BC40004949D16051E4474A4749D160FFF7ACBA4E
:10BC5000464942F87C1CFFF7A7BA444942F87C1CCD
:10BC600043E40932A8DBA5E709329ADB97E70932FA
:10BC7000FFF6DCAED8E60932FFF6CCAEC8E60932F4
:10BC8000FFF6BCAEB8E60932FFF6ACAEA8E6093264
:10BC9000FFF69CAE98E60932FFF68CAE88E60932D4
:10BCA000FFF67CAE78E60932FFF66CAE68E6093244
:10BCB000FFF65CAE58E60932FFF64CAE48E60932B4
:10BCC000FFF63CAE38E60932FFF62CAE28E6093224
:10BCD000FFF6CCAEC8E60932FFF600AEFCE509324D
:10BCE000FFF614AE10E60932FFF604AE00E60932A4
:10BCF000FFF64CAF48E70932FFF63CAF38E70932B0
:10BD0000FFF62CAF28E70932FFF61CAF18E709321F
:10BD1000FFF60CAF08E70932FFF6FCAEF8E6093291
:10BD2000FFF6ECAEE8E60932FFF6DCAED8E6093203
:10BD3000FFF6CCAEC8E60932FFF6BCAEB8E6093273
:10BD4000FFF6ACAEA8E60932FFF69CAE98E60849CD
:10BD500042F8941CFFF728BA054942F8941CFFF7F3
:10BD6000C4BB00BF006002403D000020400F002027
:10BD700000003D2020B10078B0FA80F04009704703
:10BD800001207047037903F01803082B05D0102B0E
:10BD900013D023BBB0F80B007047124BB0F80B0068
:10BDA00093F90030591C06BF0F4B1B78DBB2C3EB75
:10BDB000431300EB830080B270470C4BB0F80B00CC
:10BDC00093F900305A1C06BF074B5B78DBB203EBDC
:10BDD000430203EB820300EB430080B27047002074
:10BDE000704700BF85070020346B002084070020C7
:10BDF000F0B5067906F06003402B09D144794FF085
:10BE0000FF350023012006F00706A3420BD1F0BD49
:10BE1000602B08BF45794FF001040CBF04FA05F50B
:10BE20004FF0FF35EDE7042E0CD8DFE806F0030DE8
:10BE300018242E0030B1C85CD75C784028420CBF73
:10BE4000012000200133E0E70028FBD0C856D75678
:10BE5000A0EB070CDCF1000040EB0C00F2E700283F
:10BE6000F0D031F8130032F81370784028420CBF3C
