:020000040800F2
:1000000000000120490D0508C90D0508D1D90208D5
:1000100011DA0208C90D0508C90D05080000000025
:10002000000000000000000000000000C90D0508ED
:10003000C90D050800000000C90D05087DD20208A1
:10004000C90D0508C90D0508C90D0508C90D050824
:10005000C90D0508C90D0508210403084D0503084D
:1000600011050308D504030899040308A5ED040845
:1000700095ED040885ED040875ED040861ED0408AC
:100080004DED040839ED0408C90D0508C90D050832
:10009000C90D0508C90D0508C90D05085D0403084B
:1000A000C90D050825DA0408C90D050815DA040884
:1000B00005DA0408C90D0508F5D9040839EF040864
:1000C0005DEF040879EE04089DEE0408C90D0508EB
:1000D000C90D05085DD6040851D6040845D60408A4
:1000E000E5030308C90D0508C90D0508C90D050874
:1000F000F1D90408C90D0508E1D9040825ED040863
:10010000C90D0508C90D0508C90D0508C90D050863
:1001100039D604082DD60408C90D0508E3C803081C
:1001200011ED0408FDEC0408E9EC0408D5EC040822
:10013000C1EC040800000000000000000000000006
:1001400000000000000000000000000023D30308AE
:10015000ADEC040899EC040885EC0408C90D050809
:10016000B5ED0408DDED0408C90D0508C90D050845
:10017000C90D0508C90D05080000000000000000B9
:10018000C90D0508C90D0508C90D0508C90D0508E3
:10019000C90D0508C90D050800000000C90D0508B6
:1001A000000000000000000000000000C90D05086C
:1001B000C90D0508C90D0508000000000000000079
:1001C000000000000000000000000000000000002F
:1001D000000000000000000000000000C90D05083C
:0801E000980805000100000071
:1001E800F6210C003C2501207025012000000000AC
:1001F8008807000820320A00CC250120C0250120EC
:100208000000000091EB00081C0210002C1E0120C9
:10021800D825012000000000592F030828101000DD
:1002280084240120E82501200000000001ED0008D9
:1002380001200800001D0120F82501200000000011
:10024800940700080A702800E01B012000260120FE
:1002580000000000A9EC00080EA06E01701A012031
:10026800282601200000000085050208010104007D
:10027800D01901209827012000000000000000008C
:1002880000010400C81901209C270120000000007B
:100298009C07000802010300C4190120A0270120BF
:1002A800000000005505040822021401C01E0120A8
:1002B800A427012000000000CD3503080C109C0085
:1002C800541C0120B828012000000000190504086A
:1002D80001020500DC19012054290120000000005A
:1002E800D5E2000800020500601D01205C290120FC
:1002F80000000000000000001B0208005830012028
:10030800F036012000000000892F03081E000600B7
:10031800842D0120F836012000000000A007000805
:100328001B100C00842B0120003701200000000066
:10033800298101082102F000002A01200C37012040
:10034800000000002D7C01080E020200DC350120AF
:10035800FC37012000000000A60700082F1022002B
:10036800803601200038012000000000A80700089E
:1003780016100600783601202438012000000000FD
:10038800CA07000805100600DC3601202C380120B9
:1003980000000000D007000837102400F42F0120C7
:1003A8003438012000000000D6070008F551880005
:1003B800702901205838012000000000A9BB01085D
:1003C80026100C00EC380120E03801200000000065
:1003D800916A010814000300D43201202439012055
:1003E80000000000FA070008101002006045012014
:1003F8006845012000000000FE07000825102C01B8
:10040800644301206C45012000000000000000004A
:100418001900050000430120984601200000000053
:10042800000800081A000E00C8410120A04601205B
:100438000000000006080008F8210600BC40012062
:10044800B0460120000000001408000815007000E4
:10045800C83F0120B846012000000000000000004D
:100468002A0060003C4201202847012000000000CB
:100478005D0502082C0010009847012088470120DC
:1004880000000000ED0202082B002400CC470120E8
:10049800A847012000000000BD02020829207800BA
:1004A800B83D0120F04701200000000000000000D6
:1004B8001A023C0064490120D44B012000000000CE
:1004C8002D3403082700040060490120104C012046
:1004D800000000001A0800081F021000345501200F
:1004E8002455012000000000393003080B301800A3
:1004F800347E01202889012000000000200800081F
:100508001F302400FC7D01204089012000000000EC
:1005180038080008050204002487012064890120A6
:10052800000000005C08000803010A00B07D0120FB
:100538006889012000000000600800080702020026
:10054800708C0120E88C0120000000006A08000877
:1005580003123300948C0120EC8C01200000000071
:100568006C08000802000C003C8C0120208D012042
:100578000000000000000000060210002C8C012082
:100588002C8D012000000000BD340308081214005F
:10059800148C01203C8D012000000000C52F0308A9
:1005A800F70106000C8C0120508D0120000000008E
:1005B800A00800081D020200088C0120588D0120A7
:1005C80000000000A60800080A020A00188B012093
:1005D8005C8D012000000000611604080300010082
:1005E800BC8B0120688D0120000000000000000085
:1005F80023100E0048AD0120CCAE01200000000001
:1006080019ED00080D003400D8AC0120DCAE012043
:10061800000000004580000804008000C8AB0120ED
:1006280010AF0120000000000000000013000400CB
:10063800A8AB012090AF012000000000A808000826
:10064800FD011E0088AB012094AF012000000000CE
:1006580039A5020818202E0054AB0120B4AF0120A0
:1006680000000000A933030806101A0038AB012067
:10067800E4AF012000000000E9050208FB010100C9
:1006880034AB012000B001200000000085360308CB
:10069800FC01090000AA012004B0012000000000AC
:1006A80095360308340010002CA9012010B0012051
:1006B80000000000B90502081102080004A9012081
:1006C80020B0012000000000AC080008121204004D
:1006D800FCA8012028B0012000000000B408000890
:1006E80012201000ECA801202CB00120000000000E
:1006F800B8080008F9010400D49D01203CB001208D
:1007080000000000B5A5020813020400D09D0120D6
:1007180040B0012000000000C8080008FA010200EB
:10072800789B012044B0012000000000DD30030860
:1007380002020300FC94012048B0012000000000E0
:10074800000000000C020400E89401204CB00120D5
:100758000000000021300308FE0114006098012009
:1007680050B0012000000000952F0308100201007E
:100778006CB0012068B0012000000000CC0800081F
:10078800000000000100000002020000E80364000D
:10079800040A0001900100000000010000000000B0
:1007A8000000000000000000000000000000000041
:1007B8000000000000000000000000000000000031
:1007C8000000C409000019002000010100002000F9
:1007D8003200C800D0079600140032002800B00488
:1007E80040060005500014000F00080064000100D6
:1007F80001000300000000050000280100007E053C
:10080800EA05B4053200E803D00700000401F4014A
:100818001400200300000000AE014A015E012C0113
:1008280064010100000001000A019A01001E0A008B
:1008380000000000000100000005000001020300A4
:1008480000000000000000000000000000000000A0
:100858000080070000000000040101006C16000081
:100868000000013C00000000000000000000000043
:100878000000000000000000000000000000000070
:100888000000000000000000000000000000000060
:10089800000000000000010014010000000000003A
:1008A800080044300000000001010101FFFFFFFFC4
:1008B8000000000100000546584637000008000007
:0508C80000000100002A
:1008CD0001000000A00F0000B80B00000102FFFFA7
:1008DD0001000000F1AF0308F5A003088FAF030876
:1008ED00CDAF0308ADA00308B9AF0308A5AF03084A
:1008FD00E1A10308C1A103087DA1030800000000C8
:10090D0071A103085DA1030849A1030800000000BF
:10091D000000000000000000000000003DA10308E1
:10092D000000000031A10308A5C40308859F03083A
:10093D00059F0308ED9E0308E0010100F9E20008A0
:10094D00000000005C32050820700020702D720040
:10095D00FFFFFFFF08000000000101010001012D54
:10096D00202D2D202D2D2D2D202D2D2D0000000085
:10097D00000000000000000000000000000000006A
:10098D000000000000000000C44905080000000040
:10099D0000000000504A050801000000FA000000A8
:1009AD00010000000100000001010000361C0120C3
:1009BD0000C80100351C012000500100341C01202D
:1009CD00005A0100321C0120020000004C390508BC
:1009DD00DC9D0508E49D050876AD01200100C409E4
:1009ED000000000074AD01200100C40900000000EA
:1009FD0072AD01200100C4090000000070AD01209E
:100A0D000100C409000000006CAD01200100C40903
:100A1D00000000006EAD01200100C40900000000BF
:100A2D006AAD01200100C4090000000068AD01207D
:100A3D000100C40900000000EC1901200100C800EC
:100A4D0001000000EA19012032003075320000006B
:100A5D00E9190120055A0500E619012000FF0100E2
:100A6D00E81901200100000010010120E419012006
:100A7D000200000088500508E519012000FF010063
:100A8D00E71901200100000010010120E3190120E8
:100A9D0002000000885005080C1D0120EE02CA0856
:100AAD00010000000A1D012000C8010064000000C3
:100ABD00091D012000C8010064000000081D01206F
:100ACD000200000058390508D619012080C1803E6A
:100ADD0005000000D419012080C1803E05000000F2
:100AED00CE19012080C1803E05000000CC190120E7
:100AFD0080C1803E05000000C719012000FF0100E4
:100B0D00C01901206400F40101000000BF1901208B
:100B1D000400000064390508BE1901200200000020
:100B2D0078390508611A01200D0000008439050887
:100B3D005E1A0120006401005C1A012032001027AA
:100B4D000A0000005B1A01200D0000008439050821
:100B5D005A1A01200D00000084390508591A012088
:100B6D0002000000BC390508000000000000000074
:100B7D00C8390508DC8601209CFF2C01000000000F
:100B8D00E4200120E0150C1700000000851D012058
:100B9D0002000000003A0508181D01200100FF7F2A
:100BAD0001000000171D0120020000000C3A05088D
:100BBD00631A0120030000001C3A0508621A012087
:100BCD00030000001C3A0508141C01200000E80376
:100BDD0001000000121C01200000E80301000000CC
:100BED00101C01200000E803010000000E1C012074
:100BFD000000E803010000000C1C01200000E803C8
:100C0D00010000000A1C01200000E80301000000A3
:100C1D00091C012000140100081C01200300000024
:100C2D002C3A0508201C01200000F40101000000F1
:100C3D001E1C01200000F401010000001C1C0120FD
:100C4D000000F401010000001A1C01200000F40155
:100C5D0001000000181C01200000803E0100000072
:100C6D00161C01200000803E01000000491C0120DF
:100C7D0019640100481C0120020000003C3A0508DF
:100C8D00461C0120E803D0070A000000441C012087
:100C9D00006401000A000000391C012000640100FD
:100CAD00381C012000640100401C0120006401007B
:100CBD000A0000003F1C0120006401000A00000032
:100CCD003E1C0120006401000A000000431C0120AD
:100CDD00006401000A000000421C012000640100B4
:100CED000A000000411C0120006401000A00000000
:100CFD003D1C012001FF01000A0000003C1C0120E9
:100D0D0001FF01000A0000003B1C012001FF010052
:100D1D000A0000006C1A01200000F401010000001F
:100D2D006A1A01200000F40101000000681A012078
:100D3D000000F40101000000661A01200000F4011A
:100D4D0001000000641A01200000F4010100000000
:100D5D00311C012000640100301C012000640100E1
:100D6D002F1C0120006401002E1C0120FF08010032
:100D7D002D1C01200164010025E90008E9E80008A7
:100D8D00483A05082C1C0120006401002A1C012092
:100D9D001400E80301000000281C0120E803307551
:100DAD000A000000261C012000C80100251C01209E
:100DBD0000C80100241C012000C80100231C0120D3
:100DCD00006401000A000000FE1C01200000D00795
:100DDD0001000000F91C012000C80100F81C0120D1
:100DED0000C80100F71C012000C80100FC1C0120F7
:100DFD000000D00701000000F61C012000C8010012
:100E0D00F51C012000C80100F41C012000C80100E0
:100E1D00FA1C01200000D00701000000F31C012086
:100E2D0000C80100F21C012000C80100F11C0120C6
:100E3D0000C801000000000059E60008B83A050896
:100E4D00571A012031000000543B0508561A0120A5
:100E5D0000C80100541A0120E803D007010000006A
:100E6D00464F58454552463732324455414C0000A5
:100E7D00E219012000030100E11901200003010026
:100E8D00A1E5000879E500081C3C050835E50008DA
:100E9D00E9E40008703C0508E1E50008C9E5000833
:100EAD00F03C0508D81901200103010081EA000872
:100EBD0055EA0008E43F05086DE4000821E4000848
:100ECD00484005086FE6000875200108E440050854
:100EDD00451A0108000000008C4105085D0001085D
:100EED00E1EA000828420508C1E6000800000000FC
:100EFD00A842050899E7000845E700080C430508D6
:100F0D0029E80008EDE70008A843050861E9000895
:100F1D00A9E9000828440508371C01200106010035
:100F2D0009E70008D5E600082445050865E800082E
:100F3D00FDFC000894450508D9E9000881FD00086D
:100F4D0074460508221C01200103010029E6000852
:100F5D00F9E5000848470508ADEA00080000000063
:100F6D00AC470508B9E4000879FC000810480508ED
:100F7D0000000000000000009C4805082DEA000854
:100F8D00F9FD00081C490508BA19012088136F17CF
:100F9D0001000000BC19012088136F17000000002C
:100FAD00BAAD01200000000000000000B8AD012026
:100FBD000000000000000000B6AD012000000000A0
:100FCD0000000000B4AD0120000000000000000092
:100FDD00B2AD01200000000000000000B0AD012006
:100FED000000000000000000880C0120000000003F
:100FFD00000000009019012002000000A44A05081D
:10100D00B819012088136F17010000001C870120FB
:10101D0088136F1700000000B1E300080000000006
:10102D00B04A0508861D012001000000044B05088B
:10103D001E87012001000000104B050814870120B8
:10104D0002000000184B0508000000000000000021
:10105D00244B050899E3000800000000C04B05086B
:10106D000000000000000000144C05080000000006
:10107D0000000000844C050818870120E0150C17AE
:10108D000000000001000000000001FFFF00000053
:10109D00F8380120000000001C390120000000007C
:1010AD00FF010000FFFFFFFFD6010100FFFFFFFF63
:1010BD000000803F00000000000000000000000064
:1010CD000000803F00000000000000000000000054
:1010DD000000000000000000000000000000000003
:1010ED0000000000000000000000803F0000000034
:1010FD00000000000000000001000000FFFFFFFFE6
:10110D000000803F00000000000000000000000013
:10111D00685E0C00FF000000FFFFFFFFFFFF0000F7
:10112D0014EB050800000802050304001CEB05087C
:10113D000100080205040400B80306080200FE01C0
:10114D000110030038A1050803001402000300007C
:10115D0024EB050804001F02010008002CEB050814
:10116D0005001F020101080021BB03082DB0030873
:10117D00B1E003080000000000000000B1D2030838
:10118D00ADD10308000000000000000000000000C9
:10119D0025A1030819A103080DA1030801A1030846
:1011AD00B1890308C1300308BD300308B930030805
:1011BD00B5360308B5300308B1300308947C050833
:1011CD000068214C1F0000001C0000001F000000E3
:1011DD001E0000001F0000001E0000001F00000088
:1011ED001F0000001E0000001F0000001E00000078
:1011FD001F000000FF01FF0000C2010000000800F9
:10120D001A030000000000000000000000000000B4
:10121D0000000000000000000000000004030904AD
:10122D000A0600020000004001000000090720002E
:10123D00010104C03209040000020806500507052B
:10124D008102400000070501024000000902200054
:10125D00010104C03209040000020806500507050B
:10126D008102400000070501024000000902200034
:10127D00010104C0320904000002080650050705EB
:10128D008102000200070501020002000A060002A9
:10129D00000000400100000009026400030100C0CD
:1012AD0032090400000103000000092111010001B1
:1012BD002226000705830308000A080B010202021B
:1012CD0001000904010001020201000524001001C2
:1012DD00052401000204240202052406010207056B
:1012ED0082030800FF09040200020A00000007053E
:1012FD00010240000007058102400000B7BB030852
:10130D0077B00308B5E203080000000055A20308FA
:10131D00B3A2030881A20308000000000000000032
:10132D00000000003DA2030849A2030831A20308F2
:10133D0025A203080A06000200000040010000007B
:10134D0009022200010100E032090400000103013D
:10135D00020009211101000122260007058303085F
:10136D00000A00000A060002000000400100000013
:10137D0009074300020104C0320904000001020202
:10138D0001000524001001052401000104240202BE
:10139D000524060001070582030800FF090401006A
:1013AD00020A000000070501024000000705810246
:1013BD004000000009024300020100C03209040090
:1013CD0000010202010005240010010524010001A5
:1013DD0004240202052406000107058203080010FB
:1013ED0009040100020A00000007050102000200C5
:1013FD00070581020002000009024300020100C03E
:10140D00320904000001020201000524001001054B
:10141D0024010001042402020524060001070582AF
:10142D000308001009040100020A0000000705016D
:10143D00024000000705810240000000E486050817
:10144D00000000000000000000000000000000008F
:10145D00000000000000000000000000000000007F
:10146D000000000000FFFF0000000000AA5505016C
:10147D0000000100120100020000004083042A5701
:10148D0000020102030100001201000202000040EF
:10149D008304405700020102030100001201000203
:1014AD00EF020140830456320002010203010000E5
:1014BD00B8860508000000000000000000000000D4
:1014CD00000000000000000000000000000000000F
:1014DD000000000000000000FF1FFF1F05010905AF
:1014ED00A101A1000501093009310932093309357E
:1014FD000934094009381581257F75089508810241
:10150D00C0C000000921110100012226002D202D4F
:10151D002D202D2D2D2D202D2D2D2D0000000000E9
:10152D00000000000000000000000000AA550B01A3
:10153D000000AA5507010000AA550902000000AAE3
:10154D005503009F01000000C01200000000803F05
:10155D0000000000D88C01200800000000000000F1
:10156D00C88C0120080000009C9D0508400206085B
:10157D004C020608580206086402060870020608A6
:10158D0044AC05085CC2050840C10508F401060815
:10159D00E4EC050830020608340206083802060895
:1015AD003C0206087C020608800206088402060832
:1015BD00B8BF0508880206081900C800F401200309
:1015CD000000000004010000000700000000000002
:1015DD0000000000000200001000000000000000EC
:1015ED000000000007000000100000000060024035
:1015FD00106002400000000000000000000B000021
:10160D00000000000000000000000000006002402B
:10161D00286002400100000000000000060C0000E0
:10162D00000000000000000000000000006002400B
:10163D00406002400200000000000000100D00009C
:10164D0000000000000000000000000000600240EB
:10165D00586002400300000000000000160E00005C
:10166D0000000000000000000000000000600240CB
:10167D00706002400400000000000000200F000018
:10168D0000000000000000000000000000600240AB
:10169D0088600240050000000000000026100000D8
:1016AD00000000000000000000000000006002408B
:1016BD00A060024006000000000000003011000094
:1016CD00000000000000000000000000006002406B
:1016DD00B86002400700000000000000362F000037
:1016ED000000000000000000000000000064024047
:1016FD0010640240000000000000000000380000EF
:10170D000000000000000000000000000064024026
:10171D0028640240010000000000000006390000AE
:10172D000000000000000000000000000064024006
:10173D00406402400200000000000000103A00006A
:10174D0000000000000000000000000000640240E6
:10175D00586402400300000000000000163B00002A
:10176D0000000000000000000000000000640240C6
:10177D00706402400400000000000000203C0000E6
:10178D0000000000000000000000000000640240A6
:10179D00886402400500000000000000264400009F
:1017AD000000000000000000000000000064024086
:1017BD00A06402400600000000000000304500005B
:1017CD000000000000000000000000000064024066
:1017DD00B86402400700000000000000364600001B
:1017ED00000000000000000000000000F9150408D2
:1017FD0000000000000000000000000001000000DB
:10180D009CE90508FCB30508000000006905040803
:10181D00A086010004000000000000000000000090
:10182D0000000000000000000000000000000000AB
:10183D00000000000000000000000000000000009B
:10184D009CE905082804060800000000FDA4020814
:10185D00E80300000400000000000000000000008C
:10186D00000000000000000000000000000000006B
:10187D00000000000000000000000000000000005B
:10188D0008A4050834C0050800000000391900003F
:10189D007D000000060000000000000000000000B8
:1018AD00000000000000000000000000000000002B
:1018BD00000000000000000000000000000000001B
:1018CD000CE905080000000000000000B5C4020886
:1018DD00E80300000300000000000000000000000D
:1018ED0000000000000000000000000000000000EB
:1018FD0000000000000000000000000000000000DB
:10190D00300406080000000000000000DD70020831
:10191D001027000003000000000000000000000080
:10192D0000000000000000000000000000000000AA
:10193D00000000000000000000000000000000009A
:10194D0020EB05080000000091FF01085DDA020898
:10195D005F760000050000000000000000000000A0
:10196D00000000000000000000000000000000006A
:10197D00000000000000000000000000000000005A
:10198D0078EB050800000000000000008D1B030827
:10199D001027000001000000000000000000000002
:1019AD00000000000000000000000000000000002A
:1019BD00000000000000000000000000000000001A
:1019CD003C040608000000000000000001A502080C
:1019DD00E80300000500000000000000000000000A
:1019ED0000000000000000000000000000000000EA
:1019FD0000000000000000000000000000000000DA
:101A0D004804060800000000000000001132040820
:101A1D00204E000003000000000000000000000048
:101A2D0000000000000000000000000000000000A9
:101A3D000000000000000000000000000000000099
:101A4D00580406080000000000000000FD2F0408E7
:101A5D00204E000003000000000000000000000008
:101A6D000000000000000000000000000000000069
:101A7D000000000000000000000000000000000059
:101A8D0068040608000000000000000025B40208EC
:101A9D00400D0300030000000000000000000000E6
:101AAD000000000000000000000000000000000029
:101ABD000000000000000000000000000000000019
:101ACD005CEA050800000000000000005DB600089B
:101ADD0010270000010000000000000000000000C1
:101AED0000000000000000000000000000000000E9
:101AFD0000000000000000000000000000000000D9
:101B0D0040AE05080000000000000000A18C010897
:101B1D00102700000300000000000000000000007E
:101B2D0000000000000000000000000000000000A8
:101B3D000000000000000000000000000000000098
:101B4D007804060800000000000000007D64010814
:101B5D00A086010001000000000000000000000050
:101B6D000000000000000000000000000000000068
:101B7D000000000000000000000000000000000058
:101B8D0010E90508000000000000000085A802080B
:101B9D0050C3000001000000000000000000000024
:101BAD000000000000000000000000000000000028
:101BBD000000000000000000000000000000000018
:101BCD0024A005080000000000000000C5A50208C3
:101BDD00A8610000010000000000000000000000EE
:101BED0000000000000000000000000000000000E8
:101BFD0000000000000000000000000000000000D8
:101C0D00800406080000000000000000A12101086A
:101C1D00A08601000100000000000000000000008F
:101C2D0000000000000000000000000000000000A7
:101C3D000000000000000000000000000000000097
:101C4D0080EB05080000000000000000059500086D
:101C5D00A00F0000010000000000000000000000C7
:101C6D000000000000000000000000000000000067
:101C7D000000000000000000000000000000000057
:101C8D008C0406080000000000000000C9BC01081B
:101C9D0010270000010000000000000000000000FF
:101CAD000000000000000000000000000000000027
:101CBD000000000000000000000000000000000017
:101CCD0044AB0508000000000000000069DC0108BD
:101CDD001A4100000100000000000000000000009B
:101CED0000000000000000000000000000000000E7
:101CFD0000000000000000000000000000000000D7
:101D0D00E49F05080000000000000000DDAB0308A3
:101D1D00102700000100000000000000000000007E
:101D2D0000000000000000000000000000000000A6
:101D3D000000000000000000000000000000000096
:101D4D0010B4050800000000000000005129010832
:101D5D001A4100000100000000000000000000001A
:101D6D000000000000000000000000000000000066
:101D7D000000000000000000000000000000000056
:101D8D0098040608000000000000000065B203087A
:101D9D00400D0300000000000000000000000000E6
:101DAD000000000000000000000000000000000026
:101DBD000000000000000000000000000000000016
:101DCD00A0040608000000000000000003800008C9
:101DDD00400D0300000000000000000000000000A6
:101DED0000000000000000000000000000000000E6
:101DFD0000000000000000000000000000000000D6
:101E0D00A80406080000000000000000B5C7010886
:101E1D0050C300000300000000000000000000009F
:101E2D0000000000000000000000000000000000A5
:101E3D000000000000000000000000000000000095
:101E4D00B40406080000000000000000752F04080F
:101E5D0040420F00000000000000000000000000E4
:101E6D000000000000000000000000000000000065
:101E7D000000000000000000000000000000000055
:101E8D00C00406080000000000000000DD940008FA
:101E9D0050C3000000000000000000000000000022
:101EAD000000000000000000000000000000000025
:101EBD000000000000000000000000000000000015
:101ECD000000803FB001000002000000090000008A
:101EDD0014160120000000000000000000000000AA
:101EED0000000000000000000000000000000000E5
:101EFD0000000000000000000000000000000000D5
:101F0D0000000000000000000000000000000000C4
:101F1D0000000000000000000000000000000000B4
:101F2D0000000000000000000000000000000000A4
:041F3D0000000000A0
:101F410001000000780E0020000000000000803F2A
:0C1F51000000803F0000000020000000A5
:1080000070470C4B1B78DB0700D570470A4A136892
:10801000002BFAD04FF47A7101FB03F39842F4D3AA
:10802000064B1B781BB9064B99681B690B60002334
:1080300013607047BA7D0120248B0120188B01202A
:10804000008B0120F8B532220446002102304AF0AC
:108050007FFC00222346144F052104251046D65DDF
:108060000132D9700833062A03F8066C03F8045C61
:1080700003F8020C03F8031CF1D101230B4A2380FF
:10808000002302EBC30191F9021041B10133062B29
:10809000F7D1522384F8323064232386F8BD40217F
:1080A00022F83310F5E700BF488D0508D8AC012051
:1080B000A0F10A032DE9F04F0C462DED028B85B09F
:1080C000ED2B01F20481DFE813F08C0802090209AC
:1080D0000209020902090209020902090209020948
:1080E0000209020902090209020902090209020938
:1080F00002090209020902090209690802090209C2
:1081000002092C060209020902094E020209DE01D7
:108110000209C5010209AE0102093D03020911036A
:108120000209FE02020902090209F80258030209C3
:10813000450302090209A70102090209020902090D
:1081400002098F01020902090209020970010209EC
:10815000510102093A011F0102090209020902093B
:10816000020902090209C70402097704020921046D
:10817000020985030209E40202090209020902094F
:10818000C7027C02750231051E0583050A05BE057E
:10819000B1050209D605FF00020902090209020918
:1081A000EE0002090209370802090209020959080A
:1081B0001F08F3078A070209020902097A07620702
:1081C00052072E070307EB060209020902090209FA
:1081D0000209020902090209020902090209020947
:1081E0000209C70202090209020902090209020979
:1081F0000209020902090209020902090209B0067C
:108200000209020902090209020902090209020916
:108210000209020902090209020902090209020906
:10822000020902090209020902090209A00602095B
:1082300002090209020902090209020902090209E6
:1082400002090209020902090209020902090209D6
:1082500002090209020902090209020902090209C6
:1082600002090209020902090209020902090209B6
:1082700002090209020902090209020902090209A6
:108280000209020902090209020902090209020996
:108290000209790602096D06CF08020902090209DE
:1082A000020902099F08B64952232268501C206027
:1082B000137011F8013F002BF7D10125284605B0B6
:1082C000BDEC028BBDE8F08F0022AE4802EB42030A
:1082D0000168256801325B006E1C052A1944097A81
:1082E0002660297001682568194405F10106497A5C
:1082F00026602970016825680B4405F101019B7A0D
:1083000021602B70E2D1D8E7096801239E4A2046FC
:10831000CD189E4E25600B7021689578CF18276088
:108320000D701D462168CF1827600B7023683178C7
:108330005E192660197011882FF09EFFBEE70B684A
:108340000125002608465A19314622601E7023680E
:108350005A1922601E7023685A1922601E702FF06D
:1083600075FF314620462FF071FFA7E7884F3B7815
:10837000002BA2D0DFF8388200254646236820462D
:1083800018F815200135591C023621601A7016F8AC
:10839000011C01EB810101EB810101F2EE212FF0C3
:1083A0006BFF3B78AB42E9DC87E70B680846794E08
:1083B0000125591C327921601A7023687279591984
:1083C00021601A7031882FF057FF2368B279204658
:1083D000591921601A7071882FF04EFF2368F279C5
:1083E000591921601A7069E730F07EFD05460028B2
:1083F00041F021802368014620465A1C22601D70EE
:108400002FF024FF294620462FF020FF2946204642
:1084100001252FF01BFF51E7084608225E49012580
:108420002FF0E6FE4AE75D4D05F1800655F8041F82
:1084300020462FF00BFFAE42F8D1236801225849A5
:108440009818154620601A702368CA785919216057
:108450001A7033E7534D05F14006B5F880102046F9
:108460002FF00AFF236895F882200435591C2160FB
:108470001A7095F87F20AE42236803F10101216054
:108480001A70EAD119E7444E08460B680125327A82
:108490000027591C21601A70F18A2FF0EDFE718AB5
:1084A00020462FF0E9FEB18A20462FF0E5FE236832
:1084B000727B2046591C21601A70F18B2FF0DCFE74
:1084C000318C20462FF0D8FE2368327E2046591C7E
:1084D00021601A702368B27E591C21601A70337FA4
:1084E00003EB830303FA05F101F57A712FF0C4FE63
:1084F0002368394620465A1922601F702FF0A6FEC5
:108500002368294A591921601F702368F17E581980
:10851000206019702368717E5819206019702368D3
:1085200096F82510581920601970236896F82610BF
:10853000581920601970236896F82810581920607F
:108540001970236896F82B10581920601970236849
:1085500096F82C1058192060197012782368591950
:1085600021601A70AAE60B680125104A5819117883
:108570002060197023685278591921601A709DE69D
:10858000B82B0508E4320120DC360120BC22012092
:10859000BC320120001D012054AB0120FC29012028
:1085A000842B0120002A0120D09D0120D4320120FB
:1085B000CC47012008461022734901252FF018FEF0
:1085C0007CE6724B9B8CB3F5006F00F22C87B3F501
:1085D000806F00F27087B7EE008AB3F5007FF6EE89
:1085E000007A28BFB0EE678A694D05F10C06B5EC3C
:1085F000010A28EE000A48F0B7FF81B220462FF0AA
:108600003BFEAE42F3D1634DDFF8C09105F10C089B
:10861000614F624E99F80030B5EC010A012B14BF8E
:108620003B463346D3ED0A7A80EE270A48F09CFF9A
:1086300081B220462FF020FEA845EBD1584D05F120
:108640000C06B5EC010A48F08FFF81B220462FF0EE
:1086500013FEAE42F5D130E600230646DFF8708106
:108660001D469946CDE9013302E0282D00F06886C9
:1086700029464046EFB201352CF0C6FA0028F4D066
:1086800038463BF0E1FF002840F0248609F101095B
:10869000EBE70B680125434A581991782060424A5C
:1086A0001970236851795819404A2060197023685D
:1086B000D278591921601A7000E6084600212FF07F
:1086C000C5FD0125FAE53A4D3A4E05F1300795F919
:1086D0000210394B93F9062008338A4200F00086D5
:1086E0009E42F7D10835AF42F1D1E6E5334B03F5B1
:1086F000967522680A3313F8051C501C206011700F
:10870000226813F80A1C501C20601170226813F8AC
:10871000091C501C20601170226813F8081C501CA2
:1087200020601170226813F8071C501C2060117023
:1087300013F8061C9D42226802F1010020601170AE
:10874000D7D1BAE50B6801251D4A5919D27B2160A2
:108750001A70B3E5236801251A4A00215E19507882
:10876000266018702368184A581920601970236809
:108770001279591921601A70A0E50B680122991825
:10878000154621601A7099E5181E0120CC3300208F
:108790000434002000590020C80600202C000020CE
:1087A000701D012048AD0120EC38012084240120F7
:1087B000D8AC01203CAD01200CAD01206443012068
:1087C00054AB01206045012078360120281E01208D
:1087D000DC8A0120002120462FF04EFD002120469A
:1087E000994E0F462FF048FD2046012539462FF0BF
:1087F00043FD236820465A1C22601F70236832689C
:10880000591992F8462021601A7023683268591964
:1088100092F8472021601A7023685A1922601F704D
:1088200023685A1922601F7023685A1922601F702A
:1088300023685A1922601F703368198F2FF01CFDAE
:1088400033682046D98E2FF017FD23683268204602
:10885000591992F82D2021601A7023685A19226044
:108860001F703368598E2FF007FD33682046998EAC
:108870002FF002FD394620462FF0FEFC23683268B7
:108880002046591992F8512021601A7023683268E5
:10889000591992F8522021601A70236832685919C8
:1088A00092F8552021601A7023683268591992F89D
:1088B000532021601A7023683268591992F85C209D
:1088C00021601A7023683268591992F84F2021608C
:1088D0001A70336893F856202368591921601A706A
:1088E000336899892FF0C8FC33682046598A2FF0E5
:1088F000C3FC33682046198B2FF0BEFC3268236816
:1089000092F83020591921601A70D7E44F4E012592
:108910000B680846B27959194B4F21601A703B68B1
:1089200059882FF0A9FC3B68204619882FF0A4FC39
:10893000718920462FF0A0FCB18920462FF09CFCC5
:108940003B68204699882FF097FC3B682046D988E1
:108950002FF092FCF18920462FF08EFC318A2046C0
:108960002FF08AFC3A68236892F8261000225819E2
:10897000206019702368B17858192060204619705A
:108980002368591921601A70F1882FF075FC31891C
:1089900020462FF071FC2368727D20465919216012
:1089A0001A702368B27D591921601A703B68B3F8B8
:1089B0004C102FF061FC81E40B680846234E5D1CCF
:1089C000234A717825600125197023681278591C93
:1089D000204F21601A7023683A79591C21601A705F
:1089E0002368BA78591921601A7039882FF044FC2D
:1089F000398A20462FF040FC23680022204659196E
:108A000021601A702368FA78591921601A70236856
:108A10003279591921601A702368F2785919216046
:108A20001A7023683278591921601A70718B2FF0EF
:108A300023FC718A20462FF01FFC2368327D5919D0
:108A400021601A703AE400BFE4320120E01B0120EB
:108A5000BC40012038AB0120BA4A002317688DF8CA
:108A60000430002F00F0E38401A9384608F0E4FF49
:108A7000384609F07BF83B6880469B68002B00F085
:108A80001E8538469847074623680125AE4E204686
:108A90005A1C226083F800802368327859192160BB
:108AA0001A7023687278591921601A702368B27895
:108AB000591921601A7023689DF804205919216002
:108AC0001A70B1882FF0D8FB23685A1922601F70E2
:108AD0002368327A591921601A70FFF7EFBB9B4B5C
:108AE0000846012519882FF0C7FB994B20461988A5
:108AF0002FF0C2FB974B22681B7851192B40216045
:108B00001370FFF7DBBB944F3B78002B3FF4D5ABE2
:108B1000924E002536F9021B2046013589B22FF00E
:108B2000ABFB3B78AB42F5DCFFF7C7BBDFF864A2D9
:108B3000DFF864B20AF1C005894E8A4F9FED8A8A38
:108B4000DFF85892DFED898ADFF854820EE0FCEE00
:108B5000E77A17EE903A99B20AF1180A20462FF0F8
:108B60008BFB0BF1040BAA453FF4A7AB9AF811104D
:108B70000029F1D03378DBED007A012BE7D13B6897
:108B8000DB0440F13884F5EE407AF1EE10FA00F0A3
:108B90008E84F4EEC87AF1EE10FA00F18884F4EED7
:108BA000E87ABDEEE77AF1EE10FA17EE103A00F22D
:108BB0006D846FF4F972303B02FB03F388FB031200
:108BC000D9171344C1EB632101F2DB5189B2C3E72A
:108BD000674B08460A6801251B78511C654E03F057
:108BE0000203216013702368B27C591C21601A7043
:108BF00031682FF02BFB716820462FF027FBB368FC
:108C00005D4A2046D91782FB0323C1EB631181F330
:108C1000100189B22FF030FBB18920462FF02CFBD8
:108C2000F18920462FF028FBFFF748BB534B08463D
:108C3000012519682FF00AFB514B204619882FF0A7
:108C40001BFBFFF73BBB4F4E0846012531882FF039
:108C500013FB718820462FF00FFBB6F904304A4A07
:108C60002046D91782FB0323C1EBA30189B22FF061
:108C700003FBFFF723BB454E00230A683168501CF5
:108C8000C97820601170316822688979501C206091
:108C90001170326821681A440133481C527A032B40
:108CA00020600A70F5D12368012532682046591CDE
:108CB000127B21601A70236832685919127821607A
:108CC0001A70236832685919527821601A70336813
:108CD000D9892FF0D1FA236832685919127A2160A4
:108CE0001A70236832685919527921601A70236802
:108CF00032685919127921601A702368326859193B
:108D0000D27921601A70236832685919127C216067
:108D10001A7032682368527C591921601A70FFF763
:108D2000CDBA1B4E0846012531882FF0A5FAB1882F
:108D300020462FF0A1FA318920462FF09DFAFFF747
:108D4000BDBA00BFE87D0120B07D012072890120FD
:108D5000682D01209B2F0120BC32012068AD01202D
:108D600052AB0120A8AB01200000404200E0824449
:108D700074890120C4AC01201F85EB51E02F012034
:108D8000587E012040AD012067666666E83201200A
:108D90003C8C012034440020902F0020DB9B91412B
:108DA00021053483B04E08460125B1892FF064FABD
:108DB000718920462FF060FAFFF780BA0B68142201
:108DC000AA4D591C05F1780621601A7028780635DD
:108DD0003BF0C4FC074615F8010C3BF0BFFC2368D0
:108DE0003A7A591C21601A70236815F8022CAE4299
:108DF00003F1010121601A702368027A03F1010175
:108E000021601A70E2D1FFF758BA0B680125984A21
:108E100001A85919127821601A702CF083FF236879
:108E20005A1922601870FFF749BA0B68DFF874C24C
:108E3000591C9CF8002021601A709CF80030002B0F
:108E40003FF43BAADFF860E28A4D73468A488B49BB
:108E5000226813F8017B02F10108A3EB0E06C4F8A7
:108E600000801770226815F8017B02F10108C4F830
:108E700000801770226810F8017B02F10108C4F825
:108E800000801770226811F8017B02F10108C4F814
:108E9000008017709CF80020B242D9DCFFF70DBAB1
:108EA000774E0846012531892FF0E6F97189204671
:108EB0002FF0E2F9B18920462FF0DEF9F18A204641
:108EC0002FF0DAF9318B20462FF0D6F9718BA4E61A
:108ED0006B4E0846012531882FF0CEF97188204667
:108EE0002FF0CAF9B18820462FF0C6F9F188204644
:108EF0002FF0C2F9318A20462FF0BEF9718A204640
:108F00002FF0BAF9B18A20462FF0B6F9236896F807
:108F10002020591921601A702368327F5919216065
:108F20001A70FFF7CBB9574B1D6815F000653FF479
:108F3000C5A90B68544F591C3A7821601A703B78C8
:108F4000002B3FF4BAA90025E8B2013536F0FCFC4D
:108F5000226803462046561C59782660117099896C
:108F60002FF08AF93B78AB42EEDCFFF7A6B9474B0E
:108F7000084647490125B3F9003081FB0321DB177F
:108F8000C3EBA10189B22FF077F9FFF797B90A680F
:108F90000125404B501919782060117022685978CA
:108FA0005019206011702268997850192060117052
:108FB0002268DB78511921601370FFF77FB9364EB4
:108FC00008460125718A2FF057F9B18A20462FF003
:108FD00053F9F18A20462FF04FF9FFF76FB9DFF808
:108FE000CCC00027FEB2614600232268501C2060DE
:108FF00016702268501C206013700133226811F82B
:10900000010F062B02F1010525601070EDD101372B
:109010000CF1060C062FE5D1204900232268501CD4
:10902000206017702268501C206013700133226882
:1090300011F8010F0B2B02F1010525601070EDD125
:1090400023680720012500215E1C154A2660187040
:109050002368581920601970236892F8EF20591975
:1090600021601A70FFF72AB948AD0120B83D0120F0
:109070007E240120C42D0120E42D0120D42D0120C7
:10908000F42F0120A8AB0120A45700208424012044
:1090900067666666842D012038AB0120E32A012033
:1090A000002A0120B12D0120B42D0120BF2A01206A
:1090B0009A49012022680B791718994E012B994B78
:1090C0000CBFDD7BDD7927601570226817182760DB
:1090D000157005462268B678171827601670226842
:1090E0001618266010702268097910182060117017
:1090F0002268D9795019206011702268DB7B5119E0
:1091000021601370FFF7DAB80A680846864B561CD0
:1091100086491D782660157022685D78561C266089
:109120001570012522689B78561C26601370C9882B
:109130002FF0A2F8FFF7C2B87D4D05F16006A988AF
:1091400020462FF099F8E98820462FF095F82989D4
:1091500020462FF091F82368AA7A2046591C2160F6
:109160001A702368EA7A591C21601A7055F80C1B92
:109170002FF06CF8AE42E2D1FFF79FB86B4E084675
:10918000012531882FF078F8718820462FF074F887
:10919000B18820462FF070F8FFF790B8654D05F1C3
:1091A0007806287806353BF0D9FA2368027A591CEC
:1091B00021601A70236815F8052C591C21601A705B
:1091C000236815F8042C591C21601A7015F8032C1B
:1091D000AE42236803F1010121601A70E1D1FFF76B
:1091E0006CB8554D284646F0EDFE00283FF465A8C2
:1091F0002B460544226813F8011B501C9D42206039
:109200001170F7D1FFF759B801A82CF08BFD002899
:109210003FF453A8BDF8041020462FF02DF8236822
:109220009DF806202046591C21601A7023689DF87D
:109230000720591C21601A7023689DF80820591CCA
:1092400021601A7023689DF80920591C21601A704A
:1092500023689DF80A20591C21601A70BDF80C1073
:109260002FF00AF8FFF729B8344B03F17005226894
:10927000073313F8071C501C20601170226813F884
:10928000061C501C20601170226813F8051C501C2D
:1092900020601170226813F8041C501C20601170AB
:1092A000226813F8031C501C20601170226813F808
:1092B000021C501C2060117013F8011CAB42226884
:1092C00002F1010020601170D1D1FEF7F6BF002538
:1092D000FEF7F4BF494601A82BF086FCFFF7D6B98C
:1092E000236820465A1C2260197029882EF0C4FF7A
:1092F0002368EA78591C21601A7023682A79591C5E
:1093000021601A702368AA79591C21601A70236899
:109310006A79591C21601A70FFF7E4B9E01B01203B
:10932000842401202C1E012000430120C84101207B
:109330003C420120B83D012080360120C83F012079
:10934000604B2046604DB3F89C102EF095FF5F4BAC
:10935000204619882EF090FF5D4B204619684A017F
:10936000C1F34003C1F3800CC1F3C00702F0200237
:109370001343C1F3401201F0100143EA4C0343EAE6
:10938000870343EAC20319432EF076FF01A90422A2
:1093900020462EF02DFF2368297820465F1C4D4A79
:1093A0002760197011886429A8BF64212EF064FF1A
:1093B000962E60D0002120462EF05EFFB9F11903F1
:1093C000256802A9204648BFA9F112036E1CA3F329
:1093D000C40326601A462B702EF00AFF012523686D
:1093E00014213D4A20465E192660197011682EF03E
:1093F0002DFFFEF763BFF4EEC87AF1EE10FA36DB0C
:10940000FDEEE77A40F2E73217EE903A303B02FB8E
:1094100003F389FB0321DB17C3EB612101F2E9317F
:1094200089B2FFF799BBB4EE008AFFF7DDB84FF0C1
:10943000FF08FFF729BB2FF05FFD06462FF06CF900
:109440002368074646F002065A1C204622601E701A
:1094500039882EF0FBFEB96820462EF0F7FE2FF07B
:1094600017F9014620462EF0F1FEFEF727BF4FF414
:109470007A71FFF771BB23680322591C21601A70AF
:1094800023686A78591C21601A7097E740F2F3123A
:10949000A3F5836302FB03F388FB0312D91713447C
:1094A000C1EB632101F2DD5189B2FFF755BB40F2F8
:1094B000DC51FFF751BBB5EE008AFFF795B81846AF
:1094C000FFF7E1BA400F0120ECA80120681D012040
:1094D00070750120383300207C2B012038B5084DF1
:1094E000002415F8010BFF2805D03BF0ADF801462C
:1094F000204626F05BFF0134042CF2D138BD00BFBA
:1095000000A90120084B1B7803B170472DE9F04FEB
:10951000064D2B6859052DED028BABB008D42BB04E
:10952000BDEC028BBDE8F08FE47D0120A8AB0120EB
:1095300083460BF0A5FABE4B1B78012B00F04C8242
:10954000BC4B1B78002B37D0BB4CBC4AE368ABEB61
:109550000303934200F28C82B94E96F80080B8F172
:10956000000F00F0A683B74A116829B3236AB64FEB
:10957000ABEB0303B86883421ED3237F002B00F0BC
:109580004587013B94F82560B048DBB2013600689E
:109590002377F6B294F82470002B00F0BE860B46B9
:1095A00084F8256013F8011B0F44136084F82470BD
:1095B00023F0E0FEC4F820B023F03EFBA44B00F5FE
:1095C0007A701F782090012F00F0C581A14B1B7885
:1095D000002B00F0C780A04F3B68002B00F0C2803A
:1095E0009E4B954CD3F800A0636BAAEB0303632B4F
:1095F00040F2B8809A4E412011F082F8DFF89C9238
:10960000B6F90230DFF8988289FB0320DB17C3EB41
:10961000A00080B211F058F8B6F9003089FB0320A1
:10962000DB17C3EBA00080B211F04EF8B6F904309E
:1096300089FB0320DB17C3EBA00080B211F044F8D4
:1096400098F80010386823F095FE94F8386016F00A
:10965000010300F08386DFF84C92D9F800309B06B6
:1096600072D5804B1B78980741F103817E4EB37C05
:10967000042B8CBF032302230493472011F040F8EE
:10968000306810F0EDFF706810F0EAFF774AB38998
:109690003868A2FB0323C3F347131946039323F04F
:1096A00069FE98F80010D9F80020039B12F0140FFF
:1096B00083EA010388F8003001F06A816C4B186876
:1096C00010F0CEFF049BB67C386843EA8606F6B2FB
:1096D000314623F04FFE98F8003038685E4031463E
:1096E00088F8006023F046FE94F8386066BBDFF827
:1096F000B8914F2011F004F8D9F8000010F0B0FF35
:10970000D9F8040010F0ACFF304610F0A9FF012199
:10971000386823F02FFE534A98F80030167883F00B
:109720000103386806F0010688F80030314623F05E
:1097300021FE98F8003038685E40314688F80060B5
:1097400023F018FE94F83860731C4A4AC4F834A019
:10975000DBB2A2FB0312D20802EB8202A3EB4203AC
:1097600084F83830444E3378022B00F06D83364C49
:10977000637B032B00F07C83404B1B787BB1404B19
:109780001B6863B12C4C23F057FA44F61F6206465F
:10979000636CC31A934202D910F066F86664394BC1
:1097A0001B78002B40F0E182374D2B78002B00F026
:1097B0008D80364B1B78002B3FF4B1AE1E4F344CDE
:1097C00007F16806334D206823F0D0FD00283FF4F0
:1097D000A6AE206823F0C2FD2B78804673B1013B12
:1097E00020682B7023F0C2FD00283FF498AE20685B
:1097F00023F0B4FD2B788046002BF0D126490322BC
:10980000304649F08CF897F8681087F86B80023979
:1098100011F0FF0100F01483314432464FF6FF731C
:1098200012F8010B1B1A8A429BB2F9D11A0A3DE0C9
:109830008933012096330120781601203F0D030063
:10984000043301200033012000000120F832012000
:1098500097330120A4330120D83201200C98012035
:1098600040AD012074890120C4AC01201F85EB515B
:10987000E02F0120CDCCCCCCE33C0120AC33012047
:10988000B8320120283401202D3A0120AF330120C5
:10989000B4330120B8330120E11601206766666603
:1098A000DC32012070750120602D01201FFA88F83C
:1098B000904588D1DBB297F86A209A4283D15D48FF
:1098C00036F0C0F82B78184428707CE75A4C94F88E
:1098D0004D30012B40F2218294F84E00574A411C32
:1098E000574E1844A2FB017206EB8000554E9208B9
:1098F000367802EB8202D0F838718A1A84F84E204A
:109900002EB15149514A0968914200F00C82BFB111
:10991000DFF850812AAE48F2A5021523A8F11209FA
:109920005946CDF8848046F8289D3046A4F850204A
:1099300084F85230B847002840F0568494F84D30EF
:109940000133434AA2FB0312520802EB42029B1A64
:1099500084F84D302DE73F4E306800283FF436AE96
:10996000354C4FF0000ADFF8008104F12C098DF826
:1099700078A023F0FBFCBAF1000F27D130B3306898
:1099800023F0ECFC024683B27E2B00F01C8498F896
:109990000C103068002940F04D8294F827C0BCF1CB
:1099A000000F00F0C2811B2B84F8271040F05F836A
:1099B00023F0DCFC002800F03385306888F80C7058
:1099C00023F0D4FC0028DAD14FF0000A504620AA38
:1099D0001EA910F0AFFEF9E51F4B1B68002B3FF4EA
:1099E000AFAD154C1D4A2368ABEB030393427FF7E1
:1099F000A7ADDFF878902379D9F800700133C4F867
:109A000000B0BA07237100F1E78517F0340F40F07A
:109A1000D08526793F0700F1B18516F0070700F0E1
:109A20002B85282E00F0F2860D4B5E201B68984790
:109A300086E500BFE016012078160120CDCCCCCC05
:109A4000B82B05086F360120CC210120848C012021
:109A5000ABAAAAAAEC3201203C2C012047E8010065
:109A60006C290120DD160120000001207075012005
:109A7000CB4B0027CB484FF47A711B88CA4A407AF7
:109A80000533DFF884C3C94E01FB00F1ACFB03C30F
:109A900097703068DB08177127695FFA83FE1B0A2D
:109AA000C01B82F81EE0D377884282F814E0537519
:109AB00080F01F84BE4B47F23056BE481B68BE493B
:109AC00080FB03C7DB17DFF844C3D1F80080C3EB8A
:109AD00067138F68B9494FEAE879BCF900E003F5EC
:109AE000FA7381FB08C881FB07C14FEAE77CC9EB29
:109AF000A8077644CCEBA10C80FB0E199BB217771C
:109B00004FEAEE710EF1300E3F129376C1EB691100
:109B100082F820C01B0A5777A94F4FEA26287831D0
:109B2000A84ED3764FEA2C233F7882F8213082F872
:109B30002410BF07B17CA44B82F8238082F822E076
:109B4000997640F13D83D6F800900529D6F8048037
:109B50009E4F4FEAE9714FEAE87C9D4A87FB093E38
:109B600087FB0837C1EBAE51DFF8A4E2CCEBA75C72
:109B700002FB019701EB810102FB0C824FEAD979CC
:109B800007EB470702EB42024FEA47074FEA420260
:109B900001EB810113468EFB07A204914FEAE77A9D
:109BA000B1894FEAA242B6680CEB8C0C03934FEAE2
:109BB000D878069601EBC1068EFB033EA2EB0A01A4
:109BC000039B4FEA86060A464FEAAE4E4FEAE37A17
:109BD000804B49B2059603FB1272049F1E46039BFD
:109BE00001EB8701AEEB0A070CEB8C0CBE4606FBC3
:109BF0001737069B89B24FFA8EFE4FEAE37680FB59
:109C0000033A714B0EEB8C0EC6EB6A1A83F809907F
:109C10001FFA8EFE80FB0263DFF8F89180FB07607D
:109C2000059E4FEAE2720AF5FA7CA9FB06694FEA43
:109C3000E777C2EB63128CF3100C4FEA9913664E70
:109C4000C7EB601760480393CCF3072A634B368851
:109C5000B3F800904FEA112381724FEA1E21C372BC
:109C60004FEA272380F80E804FEA22280493039BB3
:109C700080F80FE04FEA132E049B027338BF3222A4
:109C8000017428BF33224774310A074680F80D80DB
:109C9000837480F815C080F816A00398F87187F8CF
:109CA00008E0FE743975FA7687F81C90C4F80CB099
:109CB00052E4DFF86491D9F8000023F057FBC0B2FA
:109CC00001280ED9022840F0A583454F3B78002B90
:109CD00040F0AC8463697A68ABEB0303934280F095
:109CE000CF85404A116800293FF466AC3378002BD9
:109CF0007FF43CAC3C4BD9F800001B689B781E3BC2
:109D0000012B40F28E843430022111F087F90122B8
:109D10000023327084F824304CE4344A02EB83028E
:109D2000D2F83871F3E5324FF2E57D2B00F09B83DA
:109D300094F82A1021B182F0200384F82AC0DBB203
:109D4000228D94F826101A44062992B268D801F19F
:109D5000010C2144228584F826C081F82C3023F0A0
:109D600005FB00287FF40BAE2EE6224C227832B1A0
:109D7000214B2249186823F0C9FA00232370204E92
:109D80003478002C00F08080DFF89090D9F8605093
:109D9000002D40F07F821B4B3570C3F848B003E5BF
:109DA000F47D0120FC7D0120CC3301200C980120A2
:109DB000E02F01201F85EB514C7E0120676666660F
:109DC00074890120C4AC0120F83301206BCA5F6B99
:109DD000806967FF40420F0072890120682D0120D1
:109DE0000000012000330120FC320120B82B0508BF
:109DF000F174010888330120243401204833012004
:109E00002A34012078160120CDCCCCCC587E0120FC
:109E100083DE1B43D34D6210F832012070350120E0
:109E2000130A88F80C70CA4653FA82F2FF2A228578
:109E30003FF49FAD23F09AFA00287FF4A0ADC3E56C
:109E4000FF224FF6FF7331E522F0F6FE914B40F60C
:109E5000B8321B68C01A904200F21381DFF870829A
:109E600098F804303A2B00F00D840023337083E41B
:109E7000894B186823F06EFA00283FF47DAC02226B
:109E800000236273337077E4844E3378002B40F004
:109E90002381834C94F82B21002A40F0CD82814B02
:109EA00081491B68096899422CD894F82031002B0D
:109EB00040F0FF8694F82131002B40F0818694F821
:109EC0002231002B40F0F98694F82331002B40F02A
:109ED000F28694F82431002B40F0F38694F8253173
:109EE000002B40F0EC8694F82631002B40F0F786EA
:109EF00094F82731002B40F0F08694F82831002B9D
:109F000040F06487694F6A4B3A786A4C93FBF2F3EE
:109F1000A26C13449B45FFF447AC674A94F84C305D
:109F2000C4F848B012F8038018F0010F44D0DFF8ED
:109F3000A49140F6C8029FED618A1E21B9F9023052
:109F40002AAE07EE903A5E4BF8EEE77A23F8402C03
:109F500003F83E1CA3F13D02219367EE887A46F890
:109F6000282D3046FDEEE77A17EE903A99B22EF0A2
:109F70005FF9B9F90030304607EE903AF8EEE77A2B
:109F800067EE887AFDEEE77A17EE903A99B22EF0F6
:109F90004FF9B9F90430304607EE903AF8EEE77A17
:109FA00067EE887AFDEEE77A17EE903A99B22EF0D6
:109FB0003FF9304611F0FEF818F0020F40F0B98575
:109FC00018F0040F40F0778518F0080F43D03C4B91
:109FD0002AAD02223B4EA3F13D0041F2C81103F825
:109FE0003E2C4FF0640845F8280D284623F8401C05
:109FF000316821932EF006F9284671682EF002F997
:10A00000B3892421284601FB03F1323191FBF8F199
:10A0100089B22EF00DF9F389284603EB830359002A
:10A0200089B22EF005F9284B284A28461B6893422E
:10A03000A8BF134623EAE37393FBF8F303F57A71A1
:10A0400089B22EF0F5F8209BB27C2846591C20914D
:10A050001A7011F0AFF894F84C303978013393FB53
:10A06000F1F201FB123384F84C30FFF79DBB0D2B4E
:10A070007FF4A3AC218523F079F900287FF47FAC2D
:10A08000A2E40C4A0021538F317001335387FFF74C
:10A0900073BB00BFE83C0120783E01202934012039
:10A0A0002C3401200C9801205C1D01206C3501200E
:10A0B000A0860100781601206835012058A08B4148
:10A0C00048330120C4AC0120E02F012020A107006B
:10A0D000A83C012040AD0120954DC827954B20A8F4
:10A0E000A5F13F01944A009305F8407C934BCDE9DC
:10A0F0001E1593492BF008FD1E9D2921EA226B1C99
:10A1000020A81E932C701E9B03F1010CCDF878C083
:10A1100019701E9B591C1E911A701E9B5A1C1E9270
:10A120001F7045F04FFF471C20A91E983A4647F084
:10A1300083F91E9901222AA8CB1913441E93CC55EA
:10A140001E9B99181E911C701E9B99181E911C70C5
:10A150001E9B99181E911C701E9B99181E911C70B5
:10A160001E9B99181E911C701E9B99181E911C70A5
:10A170001E9B99181E911C701E9B99181E911C7095
:10A180001E9B99181E911C701E9B99181E911C7085
:10A190001E9B99181E911C701E9B99181E911C7075
:10A1A0001E9B99181E911A7050F8303D5B1B2B7046
:10A1B00011F000F8634B3470C3F848B0FFF7F4BAFD
:10A1C0002D22DA7672E50023306884F827708DF846
:10A1D000783084F8263088F80C3023F0C7F800284F
:10A1E0007FF4CDABFFF7F0BB209B4B4540F28B8358
:10A1F000A8F1130003F1FF3C002141F2210710F800
:10A20000012F81EA022212B293B2002AACBF5B0096
:10A2100087EA43039BB21A0454BF5B0087EA4303F7
:10A220009BB2190454BF5B0087EA43039BB21A0434
:10A2300054BF5B0087EA43039BB2190454BF5B0021
:10A2400087EA43039BB21A0454BF5B0087EA4303C7
:10A250009BB2190454BF5B0087EA43039BB21A0404
:10A2600054BF5B0087EA4303844599B2C7D13046A7
:10A270002EF002F8344B209E19463448F61A152E5B
:10A28000A8BF1526324647F0D7F894F84D302E7007
:10A29000FFF756BB00245027DFF8BC8025460BE0B3
:10A2A0001C44EFF3118387F31288D9F8602094429D
:10A2B00018DADBB283F3118819F804A0601C0022BD
:10A2C0005146484435F006FD0AF101030028E7D065
:10A2D00041463A2035F060FC0AF1010A0543544436
:10A2E000EDB2DEE70022DBB2C9F8602083F311880B
:10A2F00051E5174B31681B782161013B012B40F27E
:10A300007D82144B1B78013B012B3FF6D3AB16210A
:10A31000012391701371FFF7CDBB7B1C394684F884
:10A32000256084F8243023F025F8FFF743B900BFF7
:10A3300048330120F3A801204C9A0508449A0508E7
:10A34000589A050878160120C8160120183A0120ED
:10A35000948A0120B48A0120EDB10108B74A12881D
:10A36000D10500F16981500600F18882D10700F122
:10A37000128312F0020F0CBF04260C26B04BB14A18
:10A380001B78D27803F001030AB143F00203532093
:10A390001E4310F0B5F9AC4B1B8803EB8303580048
:10A3A00080B210F091F9002010F08EF916F0AEFF97
:10A3B000A64AC0EB0021386882FB0132CB170A4461
:10A3C000C3EB6223FF2BA8BFFF235FFA83F9494643
:10A3D00022F0D0FF98F800300021386889EA0303A2
:10A3E00088F8003022F0C6FF3146386822F0C2FFFC
:10A3F00098F8003038687340DBB2194688F80030AE
:10A4000022F0B8FF94F83860FFF770B910F050FEF2
:10A41000FFF7D0B810F03CFE8D4F01233B7060E495
:10A4200030688DF8787088F80C7022F09FFF002853
:10A430007FF4A5AAFFF7C8BA864A2AA84FF432715A
:10A4400084F82B31844DA2F13A0322F83C1C40F8E9
:10A45000283D42F8405C219210F0ACFE7F4BC3F8DF
:10A4600048B0FFF7A1B984F82A7022F07FFF0028D6
:10A470007FF485AAFFF7A8BAFF2035F065FA002817
:10A4800000F084820378FF2B00F0CB8290F901105A
:10A49000022010F029FEFF2035F056FA002800F0C7
:10A4A000B3810378FF2B00F0AF81B0F90C306C4919
:10A4B00003EB83036B4A097E03EB830349089B008C
:10A4C00093FBF1F382FB0312D917C1EBA20109B28E
:10A4D000654F032010F008FE7B7A002B40F033829A
:10A4E000D9F800309E0640F1B7814FF4005010F0CB
:10A4F0009DFE002840F097825C4E4FF4806010F083
:10A5000095FE002840F0CD83318A2279B1F5967FFF
:10A51000B37C08D902F00F02072A04D842F20F7365
:10A520008B4228BF0B46524FFA79CAB1203B9FEDB0
:10A53000516ABEEE007A07EE903AF6EE006AF8EE47
:10A54000E77A67EE867AF5EEC07AF1EE10FA58BF38
:10A55000B0EE667A77EE877AFDEEE77A17EE903AFC
:10A56000052019B210F0C0FD4FF4805010F05EFECF
:10A57000002840F076822679FFF753BA4FF4007036
:10A5800010F054FE00283FF448AA16F003077FF4A9
:10A5900044AA394A0A231420B2F9041091FBF3F1BA
:10A5A00010F0A2FD39461C2010F09EFD2679FFF721
:10A5B00034BA4FF4006010F039FE28B12F4B302030
:10A5C000B3F9001010F090FD2679B30700F09D81DB
:10A5D000D9F80070FFF71EBA702010F027FE00288F
:10A5E0003FF413AA264F2426A7F13808B7EC017AC6
:10A5F0003046D8ED007A013667EE277AF6B2FDEEE6
:10A60000E77A17EE903AC3EB431103EB8103D900CD
:10A6100009B210F069FD272EE8D1D9F80070FFF7D4
:10A62000F4B9022122F092FEFFF771BBC4F814B016
:10A6300087F80080FFF755BB1E469FE63CAD012022
:10A64000BA7D0120BC7D0120F47D0120030820801B
:10A650000000012048330120C8057DEA781601205A
:10A6600038AB012067666666347E0120C4AC0120E9
:10A67000FC7D0120E4380E3F40AD0120587E0120D2
:10A680000434002098F80210404617F0EFFB002831
:10A690007FF4EBABC14B186822F068FE00287FF412
:10A6A00066A8BF4F0423BF4CBA7B98F803107B7396
:10A6B00094F83C30079204910393002A00F09683AB
:10A6C00097F80F80B84B08F10108DFF81CA35FFA78
:10A6D00088F808EB480903EB89095FFA88F34146DB
:10A6E000504608F10108152BFB7300F285852AF00E
:10A6F0008BFA28B999F8083009F10C09FF2BECD135
:10A70000FA7B4FF00C08A94B069208FB0238DFF8E1
:10A71000A892D8F824A0504645F054FCD8F8283028
:10A720005FFA80F81846059345F04CFC5146069AAE
:10A730005FFA80FA22F00F0008EB0A0C02F00F0219
:10A740000CF1080C89F80A000AEBC80089F80D2002
:10A7500089F807C0424689F80E0009F10F0046F05B
:10A760006BFE059B08F109005246194609F10603E4
:10A77000184446F061FE99F8072002F1010AEAB197
:10A7800002F1FF3C09F1070109F1060E002251FA1E
:10A790008CFC874B1EF8011F5140F4454FEA8102A3
:10A7A0004FEAD10082EA410200F0180082EA010279
:10A7B00043FA00F182EA0102D2B2EBD17D4B049858
:10A7C0000AF803203FF084FEBB7B013B5FFA83F86D
:10A7D00087F80E80B8F1000F00F05084DDF80CA06F
:10A7E0006E4B99F802201868734922F08FFD0323FD
:10A7F00084F83CA07B733370FEF7BEBF10210223A8
:10A8000091701371FFF756B9002161E66B49002280
:10A810006B4B17200F686B4EA3FB071322719B0B2A
:10A82000A6FB03214909C1EB0111A3EB8103190226
:10A8300009B210F059FC644B1820A3FB07239B09B5
:10A84000A6FB03125209C2EB0212A3EB820319B258
:10A8500010F04AFCFFF7E8B81B077FF58CAE5B4AA7
:10A8600020AB92E8030083E80300184610F052FC86
:10A8700081E60123564E0493FEF7FFBE10267DE5C8
:10A880004FF0010AD9F8000087F800A022F066FD19
:10A890000390D9F8000022F061FD039B8046590621
:10A8A00000F0A680802800F0A3807F2B7FF419AAF7
:10A8B00048490B78002B00F0DF8408F0F003E02B10
:10A8C0007FF40FAA627F08F00F08434F002A00F0C0
:10A8D000F88300227B706277DFF810A19AF80030CD
:10A8E000002B00F0D983A8F10708B8F1070F00F298
:10A8F000B184DFE818F0B304AF04A704AF04A104E7
:10A90000AF04950488040021B1E44FF4806010F096
:10A910008DFC00283FF45CAE304B4FF06408304AA9
:10A9200010201F682368934298BF002797FBF8F612
:10A9300031B210F0D9FB08FB1671212009B210F0DA
:10A94000D3FB267944E6012010F070FC002840F08B
:10A950006681BB7A002B3FF4C3AD022010F066FC89
:10A96000002840F05683042010F060FC00283FF4DB
:10A97000B7ADBB89002B40F035821A4B996881F343
:10A98000100109B2042010F0AFFBA9E501467FE5F4
:10A99000B068FEF795BE0826F0E400BF783E0120BF
:10A9A0000000012078160120DC2B0508B82B0508D3
:10A9B0000007090EA2AC01209CAC01200C980120DC
:10A9C00073B2E74589888888D34D6210D42B050877
:10A9D000C4AC012063300120902B0120E02F012026
:10A9E0003F4B4C004C7E0120F03201206F3601209D
:10A9F000C34A1378002B40F0A781B8F18A0F00F00A
:10AA00007081B8F18E0F7FF46CA93378002B7EF43F
:10AA1000AAADBC4A2D21BC4B217713601168FFF70A
:10AA200065B9394634E5B94B1B78980700F1B18117
:10AA30004FF48060B64E10F0F9FB00283FF464AD8F
:10AA40004FF000084FF06409012098FBF9F739B284
:10AA500010F04AFB09FB1781092009B210F044FBF2
:10AA600052E5AA4A002312789207CDE91E3300F17D
:10AA70002A81237A012B00F02681B7F9003020A823
:10AA8000DFEDA46A07EE103AB7F9023007EE903A0C
:10AA9000B8EEC77AF8EEE77A27EE267A67EEA67A5E
:10AAA000BDEEC77AFDEEE77A8DED207ACDED217A05
:10AAB00010F030FB5FE5984BC820DFF884A221221C
:10AAC000A3F13D01A3F14009219323F8400C9AF82A
:10AAD00000302091DE0789F8022040F177828F4B09
:10AAE0001B88590500F153811A0500F17B83DE05AF
:10AAF00000F17683DD0700F1BD83980740F1B28352
:10AB0000874920AE30462DF063FB9AF80030D90714
:10AB100040F15682209B0021824A30465D1C2095E0
:10AB20001970209B9B1A89F8013010F043FBFFF746
:10AB30004BBA794B40F6C8267B4A0820A3F13D0169
:10AB4000219323F8406C03F83E0CD27A774B209186
:10AB50001B88002A40F00D8105330A2120AE93FBAB
:10AB6000F1F1304689B22DF063FBDFF8D8910A236A
:10AB70003046D9F8001091FBF3F189B22DF058FB63
:10AB8000D9F8089038F0BAF8209B4FEA194103F140
:10AB9000010C4FEA1922CDF880C01970209B591C76
:10ABA00020911A70209B5A1C209283F80090209BC1
:10ABB0005A1C20921870304610F0FCFAFFF700BAC9
:10ABC0000125554BC82194F82A212AAFA3F140064C
:10ABD0004EF67D2C101D03F8401C2193A3F1390182
:10ABE00003F83A5C4FF4E47347F8281D7070384658
:10ABF00002FB05412C44A6F802C0B3802DF0F8FA00
:10AC0000721C209B38469B1A737010F0D3FA0022F6
:10AC1000474B84F82021C3F848B0FEF7C5BD454E28
:10AC20003378002B40F0E381DFF800811A461901E8
:10AC3000E380C2F30323062089B241EA02211943CB
:10AC400009B210F051FAB8F800304FF00A0C36484B
:10AC50000533E1883278067A013193FBFCF3012E4B
:10AC6000E18099B200F0B48001EB8101C37A8EB229
:10AC700013B10AB196FBF2F64FF0640A3A20B6FB24
:10AC8000FAF80FFA88F110F02FFA0AFB18610A237C
:10AC90003B2089B2053191FBF3F109B210F024FA9F
:10ACA00057E61A4B1B7899077FF5CAAED6F808808D
:10ACB000C8E6154685E7032583E7022581E70525D4
:10ACC0007FE704257DE701211EA8D6E90023217234
:10ACD000CDE91E2310F01EFA4DE4072571E7062585
:10ACE0006FE7154B1B689A067EF5FBAF3378002B98
:10ACF0007EF439AC034A2D21104B217713608DE689
:10AD00006330012000330120CC33012074890120FD
:10AD1000C4AC01200050C347483301203CAD0120A2
:10AD2000349A050809330120FC7D0120F47D0120BF
:10AD300078160120207E012070750120F833012053
:10AD4000BA7D01204C7E0120A369002B08DD0A2B6F
:10AD5000B5484FF00001B8BF0A23A161C0F85034D4
:10AD60004FF47A6040F6B8310023C7E9010113704F
:10AD700043E6AE490A2220AE0978304693FBF1F152
:10AD8000053191FBF2F189B22DF052FAEDE6A849B6
:10AD9000B7E6A84E4FF4F367A74B1120B18907FB24
:10ADA00001F191FBF3F109B210F09EF9B38964212E
:10ADB000192007FB03F393FBF1F393FBF1F201FB83
:10ADC000123109B210F090F9FFF797BB0825F8E6A9
:10ADD000C07A10B1002A40F00B8209B2392010F07D
:10ADE00083F9B6E537F08AFF01B2CBE5934B4FF418
:10ADF0007A7E904A998C93ED107A06EE101A039998
:10AE0000106801F0F001B8EEC66AD3ED0F7A069132
:10AE100001F110085168C7EE066A93ED0E5A80EAF8
:10AE2000E07381EAE17CDFED865AA3EBE073DFF8A3
:10AE30003C92ACEBE17CDDF80CA049140993401482
:10AE400087EE867A01F48041CDF814C000F480408A
:10AE5000DFF81CC241F400510A900D91C5EE067A4C
:10AE600078490B4608685FFA88F109F10D089B687C
:10AE700066EEA56A08911B93069BFDEEE66ABCF898
:10AE8000001089F80A30936827EE257A1C901593F4
:10AE9000D38901FB00F00531BDEEC77A149367EE4C
:10AEA000A57A93891D91119316EE903A6649FDEEAD
:10AEB000E77A1BB2927C1990189364480C92B1F90E
:10AEC0000020099B1392028861491292614A084648
:10AED000DFF8A0C1B2F900200B925F4A12681A9203
:10AEE00017EE102A12B21792B3FBF1F20692059AEE
:10AEF000B2FBF1F11A46069B00FB1322059B00FBF7
:10AF000011300A9B099006981843062305901846AD
:10AF100003FB02F20D9B19430346099889B203FB18
:10AF200000F3BDF814000E91BCF9041010900A91C2
:10AF300017EE901AB2FBFEF2B3FBFEF309B29BB21E
:10AF4000169192B2BCF90210BCF900C009910D93A0
:10AF5000CDF818C00F9219981D9990FBFEF3059338
:10AF60000A23504691FBF3F31993089B834240F266
:10AF7000F9803A4B0C2208F1010102FB0032431E1A
:10AF800092F82CC04CEA001288F80020142B00F232
:10AF9000AD80DFE813F0B601B401B201B001AE013B
:10AFA000AC01AA01A801A601A4019C01940192018F
:10AFB00090014F01AB004D014B0149012B012901CB
:10AFC000209B2A22591C20911A70A3E5244B1B6850
:10AFD000002B51D12B6818067FF581AD214B1B78D2
:10AFE00003F00303032B3FF47AAD1F4989E5E288A0
:10AFF0004FF0640CDFF87880580092FBF3F103FB0C
:10B000001121B8F800200CFB02328BB2B2FBF0F237
:10B010000DE60C4A0A232820116891FBF3F109B2CE
:10B0200010F062F89FE400BF400F0120207E012055
:10B03000189A0508C4AC0120A0860100CC3300207A
:10B0400000007A444C7E0120682D01207289012085
:10B0500080969800587E0120E02F0120B82B05082B
:10B060007C2B012074890120109A05089CAC0120DA
:10B07000F47D012040AD0120A54942E5A54A2B6899
:10B0800092F800A01A067FF5ABAB40460FF0B8FF70
:10B0900087F81080FFF7A4BBA8F107089E4807F0C7
:10B0A0007EFF07F01DFAB8F1070F00F2D380DFE84A
:10B0B00018F0F700D100C900D100C300D100B700DB
:10B0C000AA007B78012B7FF407ACA8F1070863770F
:10B0D000B8F1070F00F2BE80DFE818F01501BC00E0
:10B0E000B200BC00AE00BC00A20095004FF0FF33E0
:10B0F0008A4A624492F82C21012A0DD9023A8E46DE
:10B10000D2B202F1020AD0440EF8013BC6454FEA22
:10B110001323F9D101321144BCF1090FDBB201F163
:10B12000010809D04FF00C0C7C4A23F060030CFBA3
:10B13000002292F82D2013430B700FF047FF784B3D
:10B14000A8EB0302039B83420CD274490C2303FB3C
:10B15000001393F82C300B4493F82C311344102B2C
:10B160007FF703AF6E4B8246DFF8E4E10020A8EBE7
:10B1700003010631C9B241F0400301F1010889F829
:10B180000730079B11E09CF807C083EA0C0C4FEADC
:10B190008C034FEADC0283EA4C0302F0180283EAD4
:10B1A0000C034EFA02F25340DBB2C2B209EB000CC0
:10B1B00001309142E7D85B4A049808F802303FF02A
:10B1C00087F93B7C002B7FF40BAB574B1B689B062E
:10B1D0007FF506AB0FF0EEFE01233B74FFF700BBDB
:10B1E00052498EE452498CE4189B81E7179B7FE714
:10B1F00093FBF2F399B2F0E5162B7FF481AA0023BA
:10B20000FB73FFF77DBA042045F0E0FD3378002B97
:10B210007EF4A9A9474AAD2317602377FFF7FEBB49
:10B22000022045F0D3FDF1E7169B61E7159B5FE730
:10B23000149B5DE7139B5BE7012045F0C7FDE5E745
:10B24000DFF810A19AF8003023B13B4B01211868B8
:10B250000BF030FB002045F0B9FDD7E7032045F0A7
:10B26000B5FDD3E7354B36491A78364B002A08BF6F
:10B27000194646E4344944E420A8039146F09EF878
:10B2800003994FF47A72239B304881F800A041F271
:10B290008831A361C0F85024C7E90112FFF70DBB44
:10B2A00097F80180032045F091FDB8F1010FADD171
:10B2B00007F016F9AAE7129B1AE7119B18E70F9BF4
:10B2C000A4F84030109BA4F84230236C10E70D9B8B
:10B2D000A4F840300E9BA4F84230236C08E70C9B86
:10B2E00006E70B9B04E70A9B02E7099B00E7069B26
:10B2F000FEE6059BFCE61B9BFAE61A9BF8E61C9B08
:10B30000F6E6199BF4E6032045F060FDD0E700BFA8
:10B31000089A0508F4320120BC330120B82B050837
:10B32000A9AC0120A2AC012070750120249A050867
:10B33000209A050800330120CC2101207F3601200E
:10B34000409A0508389A05082C9A0508400F0120F4
:10B350000007090E6F36012008B5064B9B78012BBC
:10B3600001D0002008BD2DF0D7F98068003018BF4B
:10B37000012008BDDC36012008B50D4B19780129E4
:10B3800011D00BD3022902D1002022F007F821F0BE
:10B3900053FC084B084A0344136008BD00210846CB
:10B3A00022F0FCFAF3E7002022F0F8FAEFE700BF02
:10B3B0006245012020A107006445012010B5044624
:10B3C000204621F0C7FF00B110BD0A2021F0DCFCAF
:10B3D000F6E70023084A10B552F8331002EBC30415
:10B3E000884203D00133062BF6D110BD0021C16283
:10B3F000A18042F83310F8E70CAD01202DE9F74F9A
:10B40000CDE900233D4A04468B469DF834909DF8D3
:10B4100038A000269046F700BB1893F90610A14209
:10B4200025D00136062EF6D10023184603B0BDE81C
:10B43000F08F53464A460C99E0B243F077FB002860
:10B44000F2D0012280F8049080F805A080F89021C5
:10B45000009A0090C262019A02630C9AC0E90755F3
:10B46000C0E90955826042F0FFF8009B3EE09D88EC
:10B47000002DD9D1002CD7DB042CDADD142CD3D14C
:10B480001B2022F051F810B12323C57183713AF0CB
:10B4900063FC18B1232383710023C371184D30F06E
:10B4A000F7FAD5F8143213B10023C5F8143201238A
:10B4B000DFF8649085F8FC310023C5F810922B70FA
:10B4C0003CF054FD0F4BD5F830021B78012B0CBF1C
:10B4D00009F11C030C4BC5F814320C4BC5F81C3297
:10B4E00032F02CFF0A4B0B4A43F86C2F474483F889
:10B4F000344048F83630A7F804B096E70CAD012088
:10B500009C9B0120D09D01203C0A01206800012065
:10B51000781601200C2D05081400012038B103888D
:10B5200013EA020003D00B4214BF01200020704731
:10B5300038B1038813EA010003D08B420CBF01200D
:10B540000220704770B500230A4C0B4D062BDAB26F
:10B5500002D1237000200AE05E1C05EBC30135F820
:10B56000333001321842D2B202D00846227070BD88
:10B570003346EBE7548B0120D8AC012018280AD8B9
:10B5800000EB4000054B13F8200028B101230138DF
:10B5900003FA00F070470020704700BF8C370508A1
:10B5A000002010B5044624F0D3FE064A064B147062
:10B5B0001C70FFF7E1FE0549054A064B0C6014803C
:10B5C0001C6010BD812B0120624501205025012007
:10B5D0004C25012048250120002830D0194B1B683C
:10B5E00013F4003324D101229042174908D00133CB
:10B5F000192B03EB430223D011F822209042F6D1FD
:10B600005900114A30B4114C206830B14578C8183F
:10B6100002EB80004078A84208D20B440C4D002178
:10B620000C4802EB830229802260016030BC704725
:10B63000094B1B78032B02D001220023D4E7AFE78C
:10B64000704700BF3C2501208C37050848250120A4
:10B650004C25012050250120F82901202DE9F8432F
:10B6600006460B201AF056FE10B30A20FFF7B4FF6F
:10B670005F4D2C68D4B15F4F3B68B34216D8DFF8FA
:10B68000A89199F80030002B59D0DFF8A0816268AA
:10B69000B8F80030D25C002A3BD1002242F210718F
:10B6A000013301FB0266A8F800303E60BDE8F88374
:10B6B000514B1B681D06DBD51D201AF02BFE002800
:10B6C000D6D04E4B1B68DC05D2D44D4B1B78980767
:10B6D000CED54C4B987C0428CAD94B4A40F605215C
:10B6E00002230525174611800A2405E002339570D0
:10B6F000D4700232402B79D0C3F346018842F5D88A
:10B70000591E3224FF220E207C54FA54FFF764FFA6
:10B71000AEE7002024F01CFE00233C4A89F80030EC
:10B720001370FFF729FE2A68B8F800305268D25C1F
:10B73000FE2A55D10023A8F80030BDE8F8831BF09D
:10B7400037FBC8B923780A2B3FD0022B14D12B4BDF
:10B750009A68920710D42E4A2E491268B21A8A4269
:10B760000AD92D4A12683AB92C482D4A197900781D
:10B7700016603EF0C3FD2C68DFF8B0806268B8F850
:10B780000030D25C002A88D0237801241B4A013B78
:10B79000126804FA03F313421CD01C4B01221A70E6
:10B7A000FFF7EAFDB8F800302A68002BBED1117807
:10B7B000481F012801D91829B8D121F03DFA194BA9
:10B7C0002A681860B8F80030B0E70C4B9A68910509
:10B7D000C1D5D1E7204624F0BBFD89F80040DCE765
:10B7E000FF2A7FF45BAFBDE8F843D9E63F2188E745
:10B7F0004825012050250120A8AB01203C2501202F
:10B8000074890120C4AC01207C25012062450120FF
:10B81000FC8A0120804F1200B0360120A45700207E
:10B82000B436012068240120812B01204C25012001
:10B8300040000023094A402830B4A8BF4020022518
:10B840001424D5540233D118834201F8014CF8D3A3
:10B85000FF210E20D15430BCBEE600BF7C25012064
:10B86000024A136818431060704700BF70750120CA
:10B8700010B5094C238823EA00009842208009D0A3
:10B88000064B41F20241FF220E2019809A70FFF709
:10B89000A3FE2388184610BD3CAD01207C25012065
:10B8A00010B5094C238818439842208009D0074BD3
:10B8B00041F20241FF220E2019809A70FFF78CFEA0
:10B8C0002388184610BD00BF3CAD01207C25012017
:10B8D000024A136818431060704700BF7C2B012098
:10B8E0002DE9F04F9FB00C46B0F9083000AF5FFA79
:10B8F00083FA0B81BAF1380F00F0C883054616466B
:10B900004CD9BAF1810F00F08D8100F29E80BAF11E
:10B91000540F00F0F88040F29B82BAF16E0F00F0F5
:10B920001783BAF1800F40F0F281C64B93F8008084
:10B9300008F1020818F0FF0800F0A080C24E0A25A6
:10B94000DFF81493B044DFF82CB30136DFF828A3F6
:10B9500017E0322D00F0D383A5F13C00C0B21328CC
:10B9600040F2148400232268B04502F101012160F5
:10B970001570226802F10101216013707ED016F863
:10B98000015B0A2DE5D1BAF800300533A9FB03238A
:10B99000DB08FF2BA8BFFF23DBB2E4E7BAF1040FFB
:10B9A00000F0308340F23982BAF1200F6ED040F2BD
:10B9B0009482BAF1240F00F0A682BAF1280F40F069
:10B9C000A6810B68022101254FF00608581C0A22A7
:10B9D000DFF8A89220602046197023689B4E591901
:10B9E000216083F800802368591921601A70236848
:10B9F0005A1922601D70B9F800102CF03DFCB9F8FE
:10BA0000021020462CF038FC2368502100225819DF
:10BA10002060204683F80080236803EB050CC4F8FF
:10BA200000C019702368591921601A7031882CF0F0
:10BA300023FC718820462CF01FFC2B462A46184612
:10BA40007C37A281BD46BDE8F08FBAF1A00F00F0AF
:10BA5000D78040F20982BAF1B80F00F0A382BAF1A0
:10BA6000FE0F40F054817A4D05F1080635F9021BAE
:10BA7000204689B22CF000FCAE42F7D101237C377E
:10BA80001A461846A281BD46BDE8F08F714D0846A2
:10BA900071496A88236805325E1CA1FB02C22660D8
:10BAA000C2F3C7021A702A88236805325E1CA1FB04
:10BAB00002C22660C2F3C7021A70AB88226805333F
:10BAC000561CA1FB03132660C3F3C7031370A98997
:10BAD0002CF0D2FB23686A7A2046591C21601A7028
:10BAE0002368AA7A591C21601A7069882CF0C4FB5B
:10BAF000298820462CF0C0FBA98820462CF0BCFBEE
:10BB000001231A469BE70B681121544A20465D1C0D
:10BB1000534E256006F164081970B51E236812782B
:10BB2000591C21601A70236896F86B20591C2160FB
:10BB30001A70236896F86A20591C21601A70B6F8AA
:10BB400066102CF099FB236800213322581C2060DA
:10BB5000204619702368591C21601A70B6F86810C5
:10BB60002CF08AFB35F8021F20462CF085FBA845F7
