:020000040800F2
:1000000000000120F1CC040871CD0408A1580108BA
:100010000559010871CD040871CD040800000000E5
:1000200000000000000000000000000071CD040886
:1000300071CD04080000000071CD04086951010869
:1000400071CD040871CD040871CD040871CD040888
:1000500071CD040871CD0408358801086189010853
:1000600025890108E9880108AD880108B92201083D
:10007000A922010899220108892201087522010894
:10008000612201084D22010871CD040871CD0408D8
:1000900071CD040871CD040871CD04087188010880
:1000A00071CD040871CD040871CD040871CD040828
:1000B00071CD04080109010871CD040871CD04084F
:1000C00071CD040871CD040871CD040871CD040808
:1000D00071CD0408610501085505010849050108AD
:1000E000F987010871CD040871CD040871CD0408A9
:1000F000ED08010871CD0408DD0801083922010866
:1001000071CD040871CD0408F108010871CD04080F
:100110003D0501083105010871CD0408D3CD020861
:100120002522010811220108FD210108E921010809
:10013000D5210108000000000000000000000000C0
:1001400000000000000000000000000027D80208A6
:10015000C1210108AD2101089921010871CD0408D0
:1001600071CD040871CD040871CD040871CD040867
:1001700071CD040871CD04080000000000000000EB
:1001800071CD040871CD040871CD040871CD040847
:1001900071CD040871CD04080000000071CD040881
:1001A00000000000000000000000000071CD040805
:1001B00071CD040871CD04080000000000000000AB
:1001C000000000000000000000000000000000002F
:1001D00000000000000000000000000071CD0408D5
:0801E00040C80400010000000A
:1001E80010020100AC1E0120A81E01200000000022
:1001F8004C0700081F021000C81E0120B81E01206D
:1002080000000000558500081A023C00143E012039
:100218008040012000000000018900082700040038
:10022800083E0120BC400120000000004E070008E5
:10023800F6210C007C520120C85201200000000069
:100248005407000820320A002453012018530120C3
:1002580000000000111702081C021000AC4A01201F
:100268003053012000000000AD8400082810100061
:100278008451012040530120000000008118020829
:1002880001200800584701205053012000000000B9
:10029800600700080C109C00AC4601205853012050
:1002A80000000000793004080A7028003846012050
:1002B800F453012000000000291802080EA0740160
:1002C800C44401201C54012000000000D51203087A
:1002D8000101040024440120905501200000000081
:1002E80000000000000104001C4401209455012076
:1002F80000000000680700080201030018440120FC
:100308009855012000000000B530040822021401AD
:10031800C84B01209C55012000000000898A000874
:100328000102050030440120B05601200000000001
:10033800690E0208000205002C4B0120B856012066
:10034800000000000000000014000300D46D01202C
:10035800E06D0120000000006C0700080B30180059
:10036800D0570120E46D012000000000700700084C
:100378001F302400E8570120FC6D01200000000018
:10038800880700080502040040690120206E01204A
:1003980000000000AC07000803010A0018580120FB
:1003A800246E012000000000B007000810100200B1
:1003B8004C770120A477012000000000BA0700084C
:1003C80025102C0154750120A87701200000000099
:1003D8000000000019000500F8740120D4780120FD
:1003E80000000000BC0700081A000E00C0730120BE
:1003F800DC78012000000000C2070008F821060090
:10040800B4720120EC78012000000000D007000839
:1004180015007000C0710120F47801200000000070
:10042800000000002A006000347401206479012073
:1004380000000000AD1203082C001000D479012040
:10044800C479012000000000451003082B00240097
:10045800087A0120E4790120000000001510030843
:1004680029207800B06F01202C7A012000000000BC
:10047800000000001B02080000820120E085012026
:1004880000000000D58400081E0006006C7F0120D3
:10049800E885012000000000D60700081B100C00AA
:1004A800047D0120F085012000000000CDE2030852
:1004B8002102F000807B0120FC8501200000000063
:1004C8008DCF03080510060024850120EC86012045
:1004D80000000000DC070008371024009C81012080
:1004E800F486012000000000E20700080E02020066
:1004F8000885012018870120000000000608000870
:1005080016100600747B01201C87012000000000E3
:10051800080800082F102200BC850120248701202C
:10052800000000000E080008F5518800B07A01208C
:100538004887012000000000E919040826100C0073
:10054800DC870120D0870120000000005DBC030883
:1005580003123300808A0120B48A012000000000C1
:100568003008000802000C00548A0120E88A0120A3
:100578000000000000000000081214003C8A01205E
:10058800F48A012000000000E1840008F701060059
:10059800348A0120088B012000000000640800084C
:1005A8001D020200308A0120108B0120000000008B
:1005B8006A0800080A020A0050890120148B0120E9
:1005C800000000007934040803000100E4890120D8
:1005D800208B0120000000000000000023100E0006
:1005E800A8A8012008AA0120000000009918020804
:1005F8000D00340038A8012018AA012000000000CE
:100608006DAC01080400800028A701204CAA012035
:1006180000000000000000001300040014A70120DF
:10062800CCAA0120000000006C080008FD011E0093
:10063800F4A60120D0AA0120000000006D270108BF
:1006480018202E00C0A60120F0AA012000000000FA
:10065800598B000806101A00A4A6012020AB01201F
:100668000000000039130308FB010100A0A60120C7
:100678003CAB012000000000C98B0008FC01090008
:100688006CA5012040AB012000000000D98B0008B8
:100698003400100098A401204CAB01200000000099
:1006A800091303081102080070A401205CAB0120A3
:1006B80000000000700800081212040068A401205D
:1006C80064AB012000000000780800081220100028
:1006D80058A4012068AB0120000000007C08000835
:1006E800F90104003899012078AB012000000000CE
:1006F800E927010813020400349901207CAB01208A
:10070800000000008C080008FA010200109901207E
:1007180080AB012000000000F985000802020300F8
:10072800BC92012084AB0120000000000000000002
:100738000C020400A892012088AB012000000000F0
:040748003D850008E3
:10074C000000200300000000000000000100000079
:10075C0002020000E8036400040A0001900100009A
:10076C0003000000AE014A015E012C01640002008E
:10077C00000001000A019A01001E0A00000000009E
:10078C000001000000050000010203000000000051
:10079C0000000000000000000000000000800700C6
:1007AC0000000000040101006C16000000000005B0
:1007BC000000280100007E05EA05B4053200E803BC
:1007CC00D00700000401F401140000000100000037
:1007DC0020000101000020003200C800D007960064
:1007EC00140032002800B00440060005500014002C
:1007FC000F0008006400010001000000C4090000A3
:10080C0019000000000000000000000000000000C3
:10081C0000000000000000000000000000000000CC
:10082C0000000000000000000000000000000000BC
:10083C0000000000000000000000000000000000AC
:10084C00000000000000000000000000000000009C
:10085C000000000000000100120100000000000078
:10086C00182040300000000001010101FFFFFFFFD4
:10087C000000000100000541574637000008000049
:04088C000000010067
:1008900011C00208C1B40208B5E50208000000005A
:1008A00000000000B5D70208B1D602080000000021
:1008B000000000000000000049A802083DA802084E
:1008C00031A8020825A80208E90D0108DD85000805
:1008D000D9850008D5850008F98B0008D185000866
:1008E000CD850008D8ED0408FF01FF000068214C09
:1008F0001F0000001C0000001F0000001E00000080
:100900001F0000001E0000001F0000001F0000006C
:100910001E0000001F0000001E0000001F0000005D
:10092000B00100000200000009000000FF0000000C
:10093000FFFFFFFF149105080000080205030400F3
:100940001C91050801000802050404002CB90508E3
:100950000200FE01011003002491050803001402A7
:10096000000300002C91050804001F02010008008C
:100970003491050805001F0201010800FFFF000077
:1009800001000000A00F0000B80B00000102FFFFF3
:100990000100000085B4020819A802084DB402083D
:1009A00061B40208D1A7020839B4020823B40208CE
:1009B00005A90208E5A80208A1A802080000000095
:1009C00095A8020881A802086DA80208000000008E
:1009D00000000000000000000000000061A8020804
:1009E0000000000055A8020895C90208A9A602083F
:1009F00029A6020811A60208E00101008D0E0208D6
:100A0000000000004C23050820700020702D7200AB
:100A1000FFFFFFFFD60101000001010100080101F5
:100A20002D202D2D202D2D2D2D202D2D2D000000A4
:100A300000000000000000000000000000000000B6
:100A400000000000000000005C3705080000000006
:100A500000000000E837050801000000FA0000006F
:100A60000100000001000000010100008E4601208D
:100A700000C801008D460120005001008C46012075
:100A8000005A01008A46012002000000F0260508F5
:100A9000DC9C0508E49C0508B26D01200100C40936
:100AA00000000000B06D01200100C409000000003A
:100AB000AE6D01200100C40900000000AC6D0120F2
:100AC0000100C40900000000A86D01200100C40954
:100AD00000000000AA6D01200100C4090000000010
:100AE000A66D01200100C40900000000A46D0120D2
:100AF0000100C40900000000404401200100C800BA
:100B0000010000003E440120320030753200000038
:100B10003D440120055A05003A44012000FF010030
:100B20003C44012001000000000201203844012063
:100B300002000000C44105083944012000FF010003
:100B40003B44012001000000000201203744012045
:100B500002000000C441050864470120EE02CA08F3
:100B6000010000006247012000C80100640000008D
:100B70006147012000C801006400000060470120B7
:100B800002000000FC2605082A44012080C1803EA6
:100B9000050000002844012080C1803E05000000BF
:100BA0002244012080C1803E050000002044012035
:100BB00080C1803E050000001B44012000FF0100B1
:100BC000144401206400F4010100000013440120DA
:100BD000040000000827050812440120020000005C
:100BE0001C270508B54401200D0000002827050832
:100BF000B244012000640100B044012032001027FB
:100C00000A000000AF4401200D000000282705085D
:100C1000AE4401200D00000028270508AD44012046
:100C2000020000006027050800000000000000002E
:100C30006C270508F86801209CFF2C0100000000CB
:100C4000EC4D0120E0150C1700000000334B012093
:100C500002000000A4270508704701200100FF7F63
:100C6000010000006F47012002000000B0270508C6
:100C7000B744012003000000C0270508B644012046
:100C800003000000C02705086C4601200000E803AF
:100C9000010000006A4601200000E8030100000096
:100CA000684601200000E8030100000066460120BC
:100CB0000000E80301000000644601200000E80392
:100CC00001000000624601200000E803010000006E
:100CD000614601200014010060460120030000006D
:100CE000D0270508784601200000F401010000002B
:100CF000764601200000F401010000007446012046
:100D00000000F40101000000724601200000F4011F
:100D100001000000704601200000803E010000003C
:100D20006E4601200000803E01000000A146012027
:100D300019640100A046012002000000E027050818
:100D40009E460120E803D0070A0000009C460120CF
:100D5000006401000A0000009146012000640100C7
:100D600090460120006401009846012000640100C3
:100D70000A00000097460120006401000A000000FC
:100D800096460120006401000A0000009B460120F5
:100D9000006401000A0000009A460120006401007E
:100DA0000A00000099460120006401000A000000CA
:100DB0009546012001FF01000A0000009446012031
:100DC00001FF01000A0000009346012001FF01001D
:100DD0000A000000C04401200000F40101000000EE
:100DE000BE4401200000F40101000000BC440120C9
:100DF0000000F40101000000BA4401200000F401E9
:100E000001000000B84401200000F40101000000CE
:100E10008946012000640100884601200064010029
:100E2000874601200064010086460120FF0801007A
:100E30008546012001640100A1140208651402081E
:100E4000EC27050884460120006401008246012049
:100E50001400E8030100000080460120E80330751B
:100E60000A0000007E46012000C801007D460120E6
:100E700000C801007C46012000C801007B4601201B
:100E8000006401000A000000564701200000D0075E
:100E9000010000005147012000C801005047012017
:100EA00000C801004F47012000C80100544701203D
:100EB0000000D007010000004E47012000C80100DB
:100EC0004D47012000C801004C47012000C8010027
:100ED000524701200000D007010000004B470120CD
:100EE00000C801004A47012000C80100494701200D
:100EF00000C8010000000000D51102085C280508A8
:100F0000AB44012031000000F8280508AA44012064
:100F100000C80100A8440120E803D0070100000038
:100F2000414C49454E57484F4F504637000000004E
:100F30003644012000030100354401200003010074
:100F4000351102080D110208C0290508C910020850
:100F50007D100208142A05085D1102082D3A0208C6
:100F6000942A05082C4401200103010001160208FF
:100F7000D51502087C2D050801100208B50F0208DE
:100F8000E02D0508EB110208CD5902087C2E05085A
:100F90009D53020800000000242F0508F13D0208BF
:100FA00061160208C02F05083D120208000000006B
:100FB0004030050815130208C1120208A4300508C4
:100FC000A51302086913020840310508DD14020860
:100FD00025150208C03105088F46012001060100D1
:100FE0008512020851120208BC320508E1130208FA
:100FF000913A02082C33050855150208153B0208E2
:101000000C3405087A46012001030100A5110208ED
:1010100075110208E03405082D16020800000000D2
:10102000443505084D100208FD390208A8350508A9
:10103000000000000000000034360508AD1502086D
:101040008D3B0208B43605080E44012088136F1743
:10105000010000001044012088136F1700000000F9
:10106000F6A801200000000000000000F4A8012004
:101070000000000000000000F2A8012000000000B5
:1010800000000000F0A801200000000000000000A7
:10109000EEA801200000000000000000ECA80120E4
:1010A0000000000000000000040C0120000000000F
:1010B00000000000E4430120020000003C38050865
:1010C0000C44012088136F170100000038690120CB
:1010D00088136F1700000000450F02080000000091
:1010E00048380508344B0120010000009C380508F1
:1010F0003A69012001000000A83805083069012084
:1011000002000000B03805080000000000000000E8
:10111000BC3805082D0F02080000000058390508EA
:101120000000000000000000AC39050800000000CD
:10113000000000001C3A050834690120E0150C1776
:101140000000000000C20100000008001A030000B7
:10115000000000000000000000000000000000008F
:101160000000000000000000040309040A06000259
:10117000000000400100000009072000010104C038
:1011800032090400000208065005070581024000EC
:10119000000705010240000009022000010104C00F
:1011A00032090400000208065005070581024000CC
:1011B000000705010240000009022000010104C0EF
:1011C00032090400000208065005070581020002EA
:1011D00000070501020002000A06000200000040AC
:1011E0000100000009026400030100C0320904008C
:1011F000000103000000092111010001222600075F
:1012000005830308000A080B010202020100090419
:101210000100010202010005240010010524010063
:1012200002042402020524060102070582030800C5
:10123000FF09040200020A00000007050102400045
:101240000007058102400000A7C002080BB5020894
:10125000B9E702080000000079A90208D7A902082E
:10126000A5A9020800000000000000000000000026
:1012700061A902086DA9020855A9020849A9020836
:101280000A060002000000400100000009022200DE
:10129000010100E0320904000001030102000921FC
:1012A000110100012226000705830308000A00003F
:1012B0000A06000200000040010000000907430088
:1012C000020104C0320904000001020201000524E9
:1012D0000010010524010001042402020524060077
:1012E00001070582030800FF09040100020A00004B
:1012F00000070501024000000705810240000000D0
:1013000009024300020100C0320904000001020288
:10131000010005240010010524010001042402023B
:1013200005240600010705820308001009040100D6
:10133000020A000000070501020002000705810201
:101340000002000009024300020100C0320904004B
:101350000001020201000524001001052401000122
:101360000424020205240600010705820308001078
:1013700009040100020A0000000705010240000004
:1013800007058102400000001C3B0508000000002A
:10139000000000000000000000000000000000004D
:1013A000000000000000000000000000000000003D
:1013B00000FFFF0000000000AA5505010000010029
:1013C000120100020000004083042A5700020102BB
:1013D0000301000012010002020000408304405794
:1013E000000201020301000012010002EF020140AD
:1013F000830456320002010203010000F03A05089E
:1014000000000000000000000000000000000000DC
:1014100000000000000000000000000000000000CC
:1014200000000000FF1FFF1F05010905A101A10029
:1014300005010930093109320933093509340940F8
:1014400009381581257F750895088102C0C0000004
:101450000921110100012226002D202D2D202D2DE6
:101460002D2D202D2D2D2D0000000000000000004E
:101470000000000000000000AA550B010000AA5562
:1014800007010000AA550902000000AA5503009FA9
:1014900001000000C0120000FFFFFFFF0000803FBE
:1014A0000000000000000000000000000000803F7D
:1014B000000000000000000000000000000000002C
:1014C000000000000000000000000000000000001C
:1014D000000000000000803F00000000000000004D
:1014E0000000000001000000FFFFFFFF0000803F40
:1014F0000000000000000000000000000000803F2D
:101500000100000000000100FFFFFFFFFFFF0000DF
:10151000E8870120000000000C8801200000000086
:1015200001FF0000B89C0508BCB70508C8B705084E
:10153000D4B70508E0B70508ECB7050874AA050894
:10154000606905086068050870B705080893050814
:10155000ACB70508B0B70508B4B70508B8B70508B3
:10156000F8B70508FCB7050800B805089066050837
:1015700004B805081900C800F401200300000000A9
:10158000040100000007000000000000000000004F
:101590000002000010000000000000000000000039
:1015A00007000000100000001134040800000000D3
:1015B0000000000000000000010000000060024088
:1015C000106002400000000000000000000B00005E
:1015D0000000000000000000000000000060024069
:1015E000286002400100000000000000060C00001E
:1015F0000000000000000000000000000060024049
:10160000406002400200000000000000100D0000D9
:101610000000000000000000000000000060024028
:10162000586002400300000000000000160E000099
:101630000000000000000000000000000060024008
:10164000706002400400000000000000200F000055
:1016500000000000000000000000000000600240E8
:101660008860024005000000000000002610000015
:1016700000000000000000000000000000600240C8
:10168000A0600240060000000000000030110000D1
:1016900000000000000000000000000000600240A8
:1016A000B86002400700000000000000362F000074
:1016B0000000000000000000000000000064024084
:1016C000106402400000000000000000003800002C
:1016D0000000000000000000000000000064024064
:1016E00028640240010000000000000006390000EC
:1016F0000000000000000000000000000064024044
:10170000406402400200000000000000103A0000A7
:101710000000000000000000000000000064024023
:10172000586402400300000000000000163B000067
:101730000000000000000000000000000064024003
:10174000706402400400000000000000203C000023
:1017500000000000000000000000000000640240E3
:1017600088640240050000000000000026440000DC
:1017700000000000000000000000000000640240C3
:10178000A064024006000000000000003045000098
:1017900000000000000000000000000000640240A3
:1017A000B864024007000000000000003646000058
:1017B000000000000000000000000000948F0508F9
:1017C000C4B2050800000000C9300408A08601006A
:1017D0000400000000000000000000000000000005
:1017E00000000000000000000000000000000000F9
:1017F000000000000000000000000000948F0508B9
:101800009CB905080000000031270108E80300002A
:1018100004000000000000000000000000000000C4
:1018200000000000000000000000000000000000B8
:1018300000000000000000000000000044A20508B5
:101840001467050800000000F91C00007D0000007E
:101850000600000000000000000000000000000082
:101860000000000000000000000000000000000078
:10187000000000000000000000000000EC8E0508E1
:10188000000000000000000021460108E8030000FD
:101890000300000000000000000000000000000045
:1018A0000000000000000000000000000000000038
:1018B000000000000000000000000000A4B90508BE
:1018C0000000000000000000857A030810270000D7
:1018D0000300000000000000000000000000000005
:1018E00000000000000000000000000000000000F8
:1018F000000000000000000000000000209105082A
:101900000000000041310208515901085F760000D3
:1019100005000000000000000000000000000000C2
:1019200000000000000000000000000000000000B7
:101930000000000000000000000000008091050889
:1019400000000000000000002DA301081027000087
:101950000100000000000000000000000000000086
:101960000000000000000000000000000000000077
:10197000000000000000000000000000B0B90508F1
:10198000000000000000000035270108E803000007
:101990000500000000000000000000000000000042
:1019A0000000000000000000000000000000000037
:1019B000000000000000000000000000BCB90508A5
:1019C00000000000000000004D360408204E00001A
:1019D0000300000000000000000000000000000004
:1019E00000000000000000000000000000000000F7
:1019F000000000000000000000000000CCB9050855
:101A00000000000000000000A1340408204E000087
:101A100003000000000000000000000000000000C3
:101A200000000000000000000000000000000000B6
:101A3000000000000000000000000000DCB9050804
:101A40000000000000000000D9360108400D03002E
:101A50000300000000000000000000000000000083
:101A60000000000000000000000000000000000076
:101A70000000000000000000000000005890050871
:101A8000000000000000000085E2010810270000AF
:101A90000100000000000000000000000000000045
:101AA0000000000000000000000000000000000036
:101AB000000000000000000000000000048F050886
:101AC00000000000000000003DEE030810270000A9
:101AD0000300000000000000000000000000000003
:101AE00000000000000000000000000000000000F6
:101AF000000000000000000000000000ECB9050834
:101B0000000000000000000015960208A0860100F9
:101B100001000000000000000000000000000000C4
:101B200000000000000000000000000000000000B5
:101B3000000000000000000000000000AC9E05084E
:101B4000000000000000000059AB0108A86100007F
:101B50000100000000000000000000000000000084
:101B60000000000000000000000000000000000075
:101B7000000000000000000000000000889105083F
:101B8000000000000000000021C10108A00F0000BB
:101B90000100000000000000000000000000000044
:101BA0000000000000000000000000000000000035
:101BB000000000000000000000000000F4B905086B
:101BC0000000000000000000D91A040810270000DF
:101BD0000100000000000000000000000000000004
:101BE00000000000000000000000000000000000F5
:101BF00000000000000000000000000060900508E8
:101C00000000000000000000D10E04081A4100008E
:101C100001000000000000000000000000000000C3
:101C200000000000000000000000000000000000B4
:101C3000000000000000000000000000E89105081E
:101C4000000000000000000071B102081027000031
:101C50000100000000000000000000000000000083
:101C60000000000000000000000000000000000074
:101C7000000000000000000000000000D8B20508CD
:101C80000000000000000000556002081A4100003A
:101C90000100000000000000000000000000000043
:101CA0000000000000000000000000000000000034
:101CB00000000000000000000000000000BA05085D
:101CC0000000000000000000F5B60208400D03000F
:101CD0000000000000000000000000000000000004
:101CE00000000000000000000000000000000000F4
:101CF00000000000000000000000000008BA050815
:101D0000000000000000000017AB0108400D0300B8
:101D100000000000000000000000000000000000C3
:101D200000000000000000000000000000000000B3
:101D300000000000000000000000000010BA0508CC
:101D40000000000000000000A925040850C30000A6
:101D50000300000000000000000000000000000080
:101D60000000000000000000000000000000000073
:101D70000000000000000000000000001CBA050880
:101D80000000000000000000F9C0010850C300007E
:101D90000000000000000000000000000000000043
:101DA0000000000000000000000000000000000033
:101DB0000000000000000000000000000000803F64
:101DC00034150120000000000000000000000000A9
:101DD0000000000000000000000000000000000003
:101DE00000000000000000000000000000000000F3
:101DF00000000000000000000000000000000000E3
:101E000000000000000000000000000000000000D2
:101E100000000000000000000000000000000000C2
:041E200000000000BE
:101E240001000000FC0E0020000000000000000083
:0C1E34000000803F0000803F2000000004
:1080000003685A1C02601970704700BF2DE9F047E1
:10801000089C002B8846074621780CBF4FF02009AA
:108020004FF03009651C29B3002A27DD2B4601E0FB
:108030000246A8B113F8016B501E002EF8D1961E0F
:1080400070B1B2460AF1FF3A49463846C0470AF1D4
:108050000103002BF6DC26EAE6702178013039B105
:10806000041B3846C047281915F8011B0029F8D110
:10807000BDE8F087002A03DC0846F9E70020EFE7B7
:10808000561EDEE72DE9F84F14461D4606464FF40E
:108090007A720023204629464E4F44F05DFC4E4B39
:1080A0004E4A40F2B55C0344DFF83CA182FB030179
:1080B000D81787FB03784A4F1944984487FB037EFF
:1080C000C0EB6111C0EBE8279E4482FB01824FEABE
:1080D000E179C0EB2E4E8AFB078A0A44C1EB011BF3
:1080E000C9EB62193F4AA3EB8B0BC9EB091982FB61
:1080F0000E824FEAE77886F806B0A1EB8901DFF837
:10810000EC90C8EBAA08717189FB03134FEAEE717A
:1081100008EB4808C1EBE212A7EBC8080CFB12E21F
:10812000C0EBE35386F80480B2F5896F4FEA830011
:108130003CDA40F2DA239A4242DCB2F5B77FDFF84C
:10814000B080B4BF4FF0000E4FF0010E4FEA4E0961
:108150001FFA8EFC09EB0E0308EBC303DF8A09EB61
:108160000E010B2308EBC101163101E031F8027D4D
:10817000974218DD013BF9D1CE44012338F83E7017
:1081800000F5FA6E0132B3702046F444D71B29463D
:108190004FF47A720023A6F800C0F77044F0DCFBBD
:1081A0003281BDE8F88F0133DBB2E9E74FF0030C11
:1081B00040F29657DFF838804FF00609E646CEE7E2
:1081C0004FF0020C40F22947DFF824804FF00409F9
:1081D000E646C4E7C5B3A29180BC92C78988888867
:1081E00007452EC273B06D16ABAAAA2A792D0311CA
:1081F00060EB04080378092B01D0202B05D110F87F
:10820000013F202BFBD0092BF9D02D2B00F0A980AA
:108210002B2B75D0B7EE000AA3F13002D1B2092999
:1082200077D8F2EE046ADFED5F7A07EE102A10F8D5
:10823000013FB8EEC77AA3F13002D1B2A7EEA67A19
:108240000929F0EE477AF0D92E2B66D003F0DF0330
:10825000452B40F0838010B442782D2A00F09680A0
:108260002B2A00F08380A2F130030130092B00F2A9
:1082700084800024002303EB830302EB430310F804
:10828000012FA2F13001303B0929F4D9B3F59A7FCF
:108290001A46B7EE007A28BF4FF49A72072B09D915
:1082A0001346DFED416A083B27EE267A072BFAD802
:1082B00002F00702DAB1F2EE046A012A27EE267A0A
:1082C00015D0022A27EE267A11D0032A27EE267A25
:1082D0000DD0042A27EE267A09D0052A27EE267A21
:1082E00005D027EE267A062A18BF27EE267A002C1C
:1082F00045D0C7EE877A5DF8044B20EE270A704719
:108300004378B7EE000A0130A3F13002D1B2092957
:1083100087D92E2BDFED237A98D143780130A3F152
:108320003002D1B2092991D8B2EE047AF0EE475A60
:1083300006EE902A10F8013FB8EEE66AA3F130028B
:10834000D1B2C6EE076A092927EE257A77EEA67A1A
:10835000EED903F0DF03452B3FF47DAF20EE270A73
:1083600070474378BFEE000A013055E7827802304B
:10837000A2F13003092B7FF67CAFB7EE007A67EEEF
:10838000877A5DF8044B20EE270A70478278023026
:10839000A2F13003092B01D801246BE7B7EE007A74
:1083A000A7E700BF0000000020BCBE4C0028F0B5CD
:1083B00004DA2D234042013101F8013C092804462A
:1083C0004FF0010307DD03EB83035B00B0FBF3F227
:1083D000092AF8D883B10E48A0FB0356B4FBF3F288
:1083E000092A02F1570C02F1300708DD03FB1244A1
:1083F000F30801F801CBEFD100230B70F0BD03FBB4
:108400001244F30801F8017BE6D100230B70F0BDA4
:10841000CDCCCCCC884270B44FF0010442D301FBE8
:1084200004F4B0FBF4F58D42F9D2ECB142BB092D56
:1084300004FB150005F1570605F130020EDD03F8C7
:10844000016BB4FBF1F47CB1B0FBF4F5092D04FB36
:10845000150005F1570605F13002F0DC03F8012B99
:10846000B4FBF1F4002CEFD1002270BC1A707047FD
:10847000B4FBF1F403F8016B002CF5D0B0FBF4F57C
:10848000092D04FB150005F1370605F13002EFDC7C
:1084900003F8012BB4FBF1F4002CEFD1002270BCE7
:1084A0001A7070470546002AEAD1C0E7002201236E
:1084B00002210270C2728273C27341704172837072
:1084C000C3710372837230B414253E24C570847165
:1084D00030BC704706224FF47A73027043607047D5
:1084E000F0B5154B4FF0FF34FF21172703F10C0EA9
:1084F000A446162615250022C17001710172417231
:10850000417381738174C17402EB8202734500EB85
:10851000020185544E708F7081F803C00C710AD02F
:1085200093F9062006335D789E78DF7893F904C0CE
:1085300093F90540E8E7F0BDC0EB040810B42C2126
:10854000012402220023047041708270C3705DF820
:10855000044B7047FF22034600F1100170B41A70FB
:10856000023303F8012C8B42F9D10E4B4FF0FF314F
:10857000002203F10C060C4600EB42059E4200F877
:10858000124069700CD093F9044093F9051013F868
:10859000032F00EB42059E4200F812406970F2D1B1
:1085A00070BC7047D4EB040830B41D6995420AD3FF
:1085B00014460A4621448D42996938BF2A1B21443A
:1085C00030BC44F00DBF30BC704700BF0020704786
:1085D000012070470120704700207047054B0020A4
:1085E00010B49B684FF4007414800B605DF8044B6A
:1085F000704700BF409901201F220323027043707F
:10860000704700BF08307047704700BF81617047F6
:108610004378007840EA032010FB01F04FF48071AA
:1086200090FBF1F000F30F0000B2704710B5064C5C
:1086300023780BB9002010BD0CF066FA6368C01AED
:10864000D0F5FA50F7D5F5E7981501204FF40063FF
:10865000838470474FF400638384704710B500F142
:108660000C0400222121204610F0CEFCFC22202107
:10867000204610F0C9FC40222421204610F0C4FC02
:108680000C222321204610F0BFFC0022222120468C
:1086900010F0BAFC64200CF0EDFA012010BD00BF10
:1086A000012380F85C307047034610B4D0F8F840DE
:1086B000D968406964B1D3F810218C1A013A005D81
:1086C00008BF0A465DF8044BC0B2C3F810217047DA
:1086D0001A6A805C01328A4228BF2246C0B25DF825
:1086E000044B1A62704700BFD0F8FC3013B190F809
:1086F00090017047D0E90903181AB0FA80F04009D8
:10870000704700BFD0E909120369914238BFC91808
:10871000013B8A1AD0F8FC1031B1D0F87C110968FD
:1087200049680A449A4201D2981A7047002070475B
:10873000D0F8F8306BB1D0F88031D0F810211B6838
:108740005B689A4201D8981A7047C068801A18442A
:108750007047D0E907239A4203D2C0681044C01A78
:108760007047D01A704700BF436A70B4064683B0A2
:108770001BB19A88196812048A61726903206D46D8
:108780003B4C536823F48053536040F2E93301E0DB
:10879000013B33D091688907FAD564B334F8023BC2
:1087A000938140F2E93301E0013B27D09168C9078A
:1087B000FAD5D3680DB125F8023B0138E5D15168EF
:1087C00040F2E93341F48051516001E0013B15D0A2
:1087D00091688807FAD5002C47D02378137340F2AC
:1087E000E93301E0013B09D09168C907FAD5D368A4
:1087F000C5B12B7016E04FF6FF73D1E71D498A42D1
:1088000007D01D4B9A422ED003F580639A4209D1BE
:1088100002231A4AD82101FB03239A89013292B21A
:108820009A819B89736A13B11A689B8893619DF83A
:10883000014001209DF803309DF802109DF80420AE
:1088400041EA04219DF8054042EA03229DF80630E2
:10885000A6F85C1043EA0423A6F85E20A6F8603070
:1088600003B070BC70470123D3E7FF23B6E700BF16
:10887000E4EB04080030014000380040308F012054
:1088800013B506230C466A4628210C3010F048FB2D
:10889000F0B19DF8013004219DF8002042EA032246
:1088A0009DF8033012B292FBF1F222809DF8022073
:1088B00042EA03229DF8043012B292FBF1F2628088
:1088C0009DF8052043EA02231BB293FBF1F3A3803A
:1088D00002B010BD38B504460D46FFF7A7FE246868
:1088E00008B10CF05BF9054B0022C92120461A7033
:1088F0002A465B7810F088F9012038BD98150120D0
:108900001D4B1B7870B5044600F1250593B1042278
:108910001A49203046F0E6F828461422184946F055
:10892000E1F8012384F83A30164B1B7873B984F8C8
:108930003B3070BD28461422134946F0D3F801237A
:1089400084F83A300F4B1B78002BF0D00F4A0123EC
:10895000166855689068D16826606560A060E1601F
:10896000D16916695569906984F83B302661656163
:10897000A061E16170BD00BFD8410120A04101208C
:1089800088410120D94101202C590508A841012026
:108990002DE9F84F0A9E8946174600212022984665
:1089A00005460B9C45F0A8FF5EB17189D6E900230E
:1089B0006982C2F30F40EA81C3F30F42EB8228823F
:1089C0002A83484643F0D2FA17F0100A0FD1431E0B
:1089D00068B119F803202E2A4DD009EB030103E0FA
:1089E00011F8016D2E2E3ED013F1FF33F8D2082876
:1089F0000246CB464FF0000AA8BF08224FF02033B2
:108A000005F10806494628466B602B60C5F807301B
:108A100044F0E6FC52465946304644F0E1FC6A1EFA
:108A2000E81D12F8013FA3F16101203B192998BF0D
:108A300013708242F5D105F10B0116F8013BA3F149
:108A40006102203B192A98BF06F8013CB142F4D1DB
:108A5000C8F30F421823EF72A5F81A80AA82EC61BE
:108A60002B73BDE8F88FC01A00F1FF3ABAF1030F7B
:108A7000A8BF4FF0030A082B03F1010BA8BF08237E
:108A8000CB441A46BAE700BF38B5002305461C465A
:108A900003802146013428461CF088FA082CF8D1BE
:108AA0000023284685F8E2301946A5F8E430A5F8F9
:108AB000E630A5F8E830A5F8EA30A5F8EC30A5F8DE
:108AC000EE30A5F8F030A5F8F230BDE838401CF0E3
:108AD00031BA08B5202145F0DEFF034618461BB128
:108AE00002780133202AF9D008BD2DE9F341002393
:108AF000124D044600EB8106114F05F8083FB442C1
:108B000003D1104802B0BDE8F081394628464FF045
:108B1000000845F0B1FF2146684645F0C9FF202115
:108B2000684645F0B8FF28B96946284645F0A4FFD5
:108B30000434E4E780F80080F1E700BF98150120D5
:108B400077570508A015012010F0B0BA014B18683E
:108B50000CF086BB3040012038B52E22002145F0B4
:108B6000CBFE642403463D2140F2DC5040F21A4221
:108B700040F26C7519731C7440F202211324588260
:108B80009A82192040F27532DD82198340F643053E
:108B90000E219C76187702240A20DA83012283F8BA
:108BA000221083F82D0019461D8483F82C401A7278
:108BB0009A7383F8252083F82B200248BDE83840BB
:108BC00021F03CBB3C59050810B5044600210120AA
:108BD0000BF04EF9207010BD38B50023451E1C4621
:108BE0000372E1B2013402200BF042F9082C05F8BF
:108BF000010FF6D138BD00BF2DE9F04F1E4685B0FC
:108C00000C460020012115460CF030FE002E61D0EC
:108C10007319DFF870B3D54E02931CE0002D00F0FD
:108C2000DD81DBF81430AB4265D0DBF81030AB42AD
:108C300000F09B80DBE90631AB4253D88D42C0F097
:108C40007881691A204640F08DF90135029B04F5C0
:108C500000749D423ED0DBF82070AF42DED8EF1B9F
:108C6000DBF830804FEAD70AD8F8303007F0070732
:108C70000AF1020A9A4503D3D8F838309A4509D93F
:108C80004146504640F03CF98046002800F05681AD
:108C9000CBF8300098F80430002B40F0E980D8F889
:108CA0002890B9F1000F00F0F781D8F83010434652
:108CB000D8F80C202046AAEB010A4FF400710135C8
:108CC00004F5007407EBCA0A02EB4A22C847029B6C
:108CD0009D42C0D1002108460CF0C8FD002005B01F
:108CE000BDE8F08F8D42ACD24FF4007200212046D7
:108CF00045F002FEA9E7722300274FF0FF3C4FF03A
:108D0000520E6122412084F8E431394684F8E5317D
:108D1000DBF82830A27084F8E7214FF4F072E0709D
:108D200084F8E601201D84F800E084F801E084F86E
:108D3000ECC1C4F8E83184F8EDC184F8EEC184F8E0
:108D4000EFC145F0D9FD55216FF05502C4F8F0711F
:108D5000C4F8F471C4F8F87184F8FC7184F8FD71FA
:108D600084F8FE1184F8FF216FE74FF400720021B0
:108D700020467F4F45F0C0FD5821EB200222617054
:108D8000F82120704FF0080C61753F21902384F882
:108D90000DC021764FF0FF3EA370002322744FF0E8
:108DA00080082273A273E372E3736374A374E374A1
:108DB0002375A375E3756376E3766377A377E3772B
:108DC00084F81AE04FF0010E03CF3E27C4F80300E9
:108DD000C4F80710DBF80810DBF810002777081A32
:108DE000DBF81C10634F2062DBF8180084F82C209D
:108DF0000E22091A84F8283084F82930292061626B
:108E0000942184F82A3084F82B3084F82D3084F8AB
:108E10002E3084F82F3084F8313084F8323084F8E2
:108E200033300D2384F846C004F1470C84F8420027
:108E300084F8431084F8442084F845304E4B84F87D
:108E400030E04FF0AA0E84F840804FF0550807CF6D
:108E5000C4F84700CCF80410CCF8082084F8FE8150
:108E600084F8FFE103CBC4F85200C4F85610ECE6D6
:108E70004FF400720021204645F03EFDD8F8403006
:108E8000002F63D104F120020392002B00F08980AF
:108E9000D8F83030112201972046009704F140099C
:108EA0003649FFF775FDD8F840301A6C002A00F0FB
:108EB0008A801B6B112201974FF4E07A0398009788
:108EC0002F49FFF765FDD8F8448018F1000318BF5B
:108ED0000123002B3FF4B9AE474603940CE0002475
:108EE000AAF1200AC146CDE900C4FFF751FDBF6CCD
:108EF000EFB1BAF11F0F1AD997F804E011224846D2
:108F000009F12008396807F11C0C3B6BBEF1000F1A
:108F1000E5D17A79AAF1200A3C69C14642F02102E2
:108F2000CDE900C4FFF734FDBF6C002FE1D1039CF5
:108F30008BE6E91A204640F015F886E6231F04F573
:108F4000FE7243F8046F9A42FBD17EE6002BD8F8FC
:108F5000448014BF02230123B8F1000FC3EB0717AD
:108F600014BF012300232AD042460EE0DEADBEEF3F
:108F7000505905085C5905086C59050848590508F9
:108F80004C5905084099012033B1926C013F131CE4
:108F900018BF0123002FF7DC9046A1464FF4007A5A
:108FA00097E7DBF80C103B46019708220097204614
:108FB000DDF80C904FF4F07AFFF7EAFC83E7A14666
:108FC0004FF4007A85E701973B46009711220398FA
:108FD0004FF4E07A4749FFF7DBFC74E74FF4007287
:108FE0002946204645F088FC80220C2384F8B8519D
:108FF00084F8BE2184F8C2313F4BDBF81020DBF847
:10900000080083FB02314FEAE27C84F8B951CCEBD3
:10901000213184F8BA5184F8BB51B1F5806F84F8DE
:10902000BC5184F8BD51C4F8C621C4F8CA0142DB62
:10903000FF2384F8BF3184F8C13184F8C031421E67
:109040002D4BD71783FB0231C7EB2131B1F5806F70
:1090500029DA2A4B84F8C511891083FB02032848BA
:1090600021F03F011344C7EB6313C3EB831780FB6D
:1090700003C0D21B1844DF170132C7EBE0100A43CC
:10908000034484F8C42184F8C3315522AA2384F808
:10909000FE2184F8FF31D8E549464FF4007220469E
:1090A00045F02AFCD1E5FF2384F8C33184F8C531AB
:1090B00084F8C431E9E7114B84F8C111891083FBAE
:1090C00002730F4F21F03F011344CCEB6313C3EB4A
:1090D000831C87FB03E7A2EB0C021F444FEAE37CEF
:1090E0000132CCEBE7170A433B4484F8C02184F8F3
:1090F000BF31A4E74C5905089755454183200882A4
:1091000081808080437F30B5044683B01BB9012045
:10911000637703B030BD052502236A4601A90068C4
:10912000ADF804500FF0C2FC9DF8013003F00103CC
:1091300083F00100637703B030BD00BFF8B5074C82
:1091400005460F46266803E023689B1BBB4204D8F4
:109150002846FFF7D7FF0028F6D0F8BDF894012085
:1091600030B583B045F2082104460625FFF7E6FF37
:1091700002A92068012301F8025D00220FF096FC8D
:1091800002A9C7220123206801F8012D002263777C
:109190000FF08CFC03B030BD70B5002284B00446E3
:1091A000D825007F0B4602928DF80C208DF80850D0
:1091B00008B3090E0DF10A028DF809101E0C937008
:1091C0001D0A41F28831167020465570FFF7B6FF30
:1091D00004A906222068012301F8092D00220FF0BE
:1091E00065FC012302A900226377052320680FF0A4
:1091F0005DFC04B070BD0DF10902DFE70269C368D0
:109200002DE9F04712EA030927D00E4605464FF034
:1092100000474FF00008B9FA89F327FA03F21B3B25
:10922000D2432A6109EA0209042B13D8DFE803F0CC
:10923000322920170300736A002B34D1EB6A1FFA1E
:1092400083FA346A34B123682046514698476468EB
:10925000002CF8D1B9F1000FDDD1BDE8F0873068FE
:10926000696B036889B29847B9F1000FD3D1F4E76D
:109270007068A96B036889B29847B9F1000FCAD129
:10928000EBE7B068E96B036889B29847B9F1000F62
:10929000C1D1E2E7F068296C036889B29847B9F157
:1092A000000FB8D1D9E703F1FF3AC6F824801FFABE
:1092B0008AFAC6E72DE9F04F8DB090F86D30029034
:1092C000002B40F05A86029B93F86430072B00F085
:1092D0004A861823CDE90433029A137C1032022BFC
:1092E000039204D110466B2180220FF083FD64238A
:1092F000C44CDFF81CB34FF01008DFF818C3C248A5
:10930000DFF814E3C14E0193DCF80430C3F3080323
:10931000002B40F0EB84EFF31183002B40F0E68448
:109320002568826823689D42FAD133689A42F7D84B
:10933000DBF800704FF47A7101FB07F39B1AB3FB63
:10934000F7F301FB05354FF47A774FF00109DCF8AC
:109350000430C3F30803002B40F0A184EFF3118322
:10936000002B40F09C842368816822689342FAD1E4
:1093700032689142F7D8DBF8002007FB02FAAAEB2B
:109380000101B1FBF2F107FB03135B1BB3F57A7F1D
:10939000DDD3019B013B0193B6D1029B1B7C022BC9
:1093A00004D10722682103980FF024FD6423DFF81D
:1093B00064C24FF010089448DFF85CE2934E0193CA
:1093C000DCF80430C3F30803002B40F0CF84EFF344
:1093D0001183002B40F0CA842568826823689D426F
:1093E000FAD133689A42F7D8DBF800704FF47A71FB
:1093F00001FB07F39B1AB3FBF7F301FB05354FF4B1
:109400007A774FF00109DCF80430C3F30803002B2E
:1094100040F02584EFF31183002B40F02084236873
:10942000816822689342FAD132689142F7D8DBF81A
:10943000002007FB02FAAAEB0101B1FBF2F107FBE6
:1094400003135B1BB3F57A7FDDD3019B013B0193D3
:10945000B6D1029B1B7C022B04D1019A6B2103988D
:109460000FF0C8FC6423DFF8ACC14FF01008664869
:10947000DFF8A4E1654E0193DCF80430C3F3080380
:10948000002B40F05384EFF31183002B40F04E8407
:109490002568826823689D42FAD133689A42F7D8DA
:1094A000DBF800704FF47A7101FB07F39B1AB3FBF2
:1094B000F7F301FB05354FF47A774FF00109DCF83B
:1094C0000430C3F30803002B40F0AA83EFF31183A9
:1094D000002B40F0A5832368816822689342FAD16B
:1094E00032689142F7D8DBF8002007FB02FAAAEBBA
:1094F0000101B1FBF2F107FB03135B1BB3F57A7FAC
:10950000DDD3019B013B0193B6D1029B1B7C022B57
:1095100004D101226B2103980FF06CFC0F23DFF8BC
:10952000F4C04FF010083848DFF8ECE0374E0193F4
:10953000DCF80430C3F30803002B40F0F284EFF3AF
:109540001183002B40F0ED842568826823689D42DA
:10955000FAD133689A42F7D8DBF800704FF47A7189
:1095600001FB07F39B1AB3FBF7F301FB05354FF43F
:109570007A774FF00109DCF80430C3F30803002BBD
:1095800040F02F83EFF31183002B40F02A832368F0
:10959000816822689342FAD132689142F7D8DBF8A9
:1095A000002007FB02FAAAEB0101B1FBF2F107FB75
:1095B00003135B1BB3F57A7FDDD3019B013B019362
:1095C000B6D1029B1B7C022B04D1049A1B21039869
:1095D0000FF010FC0F23DFF83CC04FF010080A48D2
:1095E000DFF834E0094E0193DCF80430C3F30803DC
:1095F000002B40F07684EFF31183002B40F0718450
:109600000CE000BFF894012010E000E0BC980120BD
:10961000B898012000ED00E0B49801202568826828
:1096200023689D42FAD133689A42F7D8DBF800707C
:109630004FF47A7101FB07F39B1AB3FBF7F301FBBD
:1096400005354FF47A774FF00109DCF80430C3F3A5
:109650000803002B40F0A682EFF31183002B40F0AB
:10966000A1822368816822689342FAD132689142CC
:10967000F7D8DBF8002007FB02FAAAEB0101B1FBE7
:10968000F2F107FB03135B1BB3F57A7FDDD3019B7C
:10969000013B0193A8D1029B1B7C022B04D1059AAC
:1096A0001C2103980FF0A6FB0F23DFF820C34FF017
:1096B0001008C448DFF818E3C34E0193DCF8043007
:1096C000C3F30803002B40F0ED83EFF31183002B6D
:1096D00040F0E8832568826823689D42FAD13368A8
:1096E0009A42F7D8DBF800704FF47A7101FB07F368
:1096F0009B1AB3FBF7F301FB05354FF47A774FF074
:109700000109DCF80430C3F30803002B40F02B827E
:10971000EFF31183002B40F02682236881682268D2
:109720009342FAD132689142F7D8DBF8002007FB68
:1097300002FAAAEB0101B1FBF2F107FB03135B1B79
:10974000B3F57A7FDDD3019B013B0193B6D1029A39
:1097500092F86730032B00F2048492F86A20012A01
:109760000BD0022A40F0FD83029B93F86F3003F088
:10977000FB03022B0CBF00220722029B1B7C022B47
:1097800003D11A2103980FF035FB0F23DFF83CC2F9
:109790004FF010088B48DFF838E28B4E0193DCF86D
:1097A0000430C3F30803002B40F03E83EFF3118332
:1097B000002B40F039832568826823689D42FAD1E6
:1097C00033689A42F7D8DBF800704FF47A7101FBE6
:1097D00007F39B1AB3FBF7F301FB05354FF47A77D8
:1097E0004FF00109DCF80430C3F30803002B40F00C
:1097F0009B81EFF31183002B40F0968123688168F1
:1098000022689342FAD132689142F7D8DBF80020FF
:1098100007FB02FAAAEB0101B1FBF2F107FB03130C
:109820005B1BB3F57A7FDDD3019B013B0193B6D17E
:10983000029B1B7C022B06D1029B1921039893F8F3
:109840006C200FF0D7FA6423DFF880C14FF01008C6
:109850005C48DFF87CE15C4E0193DCF80430C3F334
:109860000803002B40F0FF82EFF31183002B40F040
:10987000FA822568826823689D42FAD133689A4249
:10988000F7D8DBF800704FF47A7101FB07F39B1AED
:10989000B3FBF7F301FB05354FF47A774FF001097D
:1098A000DCF80430C3F30803002B40F01E81EFF313
:1098B0001183002B40F0198123688168226893424C
:1098C000FAD132689142F7D8DBF8002007FB02FAA0
:1098D000AAEB0101B1FBF2F107FB03135B1BB3F52C
:1098E0007A7FDDD3019B013B0193B6D1029B1B7CA8
:1098F000022B04D11022372103980FF07BFA0F239B
:10990000DFF8C8C04FF010082E48DFF8C4E02E4E34
:109910000193DCF80430C3F30803002B40F06582A8
:10992000EFF31183002B40F0608225688268236882
:109930009D42FAD133689A42F7D8DBF800704FF4B1
:109940007A7101FB07F39B1AB3FBF7F301FB0535B3
:109950004FF47A774FF00109DCF80430C3F30803C1
:10996000002B40F0A380EFF31183002B40F09E808A
:109970002368816822689342FAD132689142F7D80D
:10998000DBF8002007FB02FAAAEB0101B1FBF2F1C0
:1099900007FB03135B1BB3F57A7FDDD3019B013B10
:1099A0000193B6D1029B1B7C022B04D103980122A8
:1099B00038210FF01FFA0F23DFF810C04FF0100806
:1099C00008E000BF10E000E0BC98012000ED00E0DE
:1099D000B4980120C248DFF810E3C24E0193DCF8CE
:1099E0000430C3F30803002B40F0E081EFF3118350
:1099F000002B40F0DB812568826823689D42FAD104
:109A000033689A42F7D8DBF800704FF47A7101FBA3
:109A100007F39B1AB3FBF7F301FB05354FF47A7795
:109A20004FF00109DCF80430C3F30803FBB9EFF38E
:109A30001183E3B92368816822689342FAD13268BE
:109A40009142F7D8DBF8002007FB02FAAAEB0101EC
:109A5000B1FBF2F107FB03135B1BB3F57A7FE1D394
:109A6000019B013B0193BAD10DB0BDE8F08FEFF33C
:109A7000118188F31288D0F808A00368DB0303D5AE
:109A8000CEF80090D0F808A02368C9B2DEF8002014
:109A900081F31188DBF80010134407FB01F2A2EBFD
:109AA0000A02B2FBF1F207FB0323D5E7EFF31181C2
:109AB00088F31288D0F808A00368DB0303D5CEF83A
:109AC0000090D0F808A02368C9B2DEF8002081F326
:109AD0001188DBF80010134407FB01F2A2EB0A0225
:109AE000B2FBF1F207FB032354E7EFF3118188F394
:109AF0001288D0F808A00368DB0303D5CEF80090E5
:109B0000D0F808A02368C9B2DEF8002081F31188DC
:109B1000DBF80010134407FB01F2A2EB0A02B2FBD0
:109B2000F1F207FB0323D9E6EFF3118188F31288E2
:109B3000D0F808A00368DB0303D5CEF80090D0F876
:109B400008A02368C9B2DEF8002081F31188DBF891
:109B50000010134407FB01F2A2EB0A02B2FBF1F280
:109B600007FB03235CE6EFF3118188F31288D0F83A
:109B700008A00368DB0303D5CEF80090D0F808A056
:109B80002368C9B2DEF8002081F31188DBF80010E9
:109B9000134407FB01F2A2EB0A02B2FBF1F207FB4E
:109BA0000323CCE5EFF3118188F31288D0F808A0E5
:109BB0000368DB0303D5CEF80090D0F808A0236833
:109BC000C9B2DEF8002081F31188DBF800101344DD
:109BD00007FB01F2A2EB0A02B2FBF1F207FB03233F
:109BE00051E5EFF3118188F31288D0F808A00368DB
:109BF000DB0303D5CEF80090D0F808A02368C9B2E3
:109C0000DEF8002081F31188DBF80010134407FB15
:109C100001F2A2EB0A02B2FBF1F207FB0323C8E454
:109C2000EFF3118188F31288D0F808A00368DB03F2
:109C300003D5CEF80090D0F808A02368C9B2DEF8AA
:109C4000002081F31188DBF80010134407FB01F2B8
:109C5000A2EB0A02B2FBF1F207FB03234DE4EFF3A0
:109C6000118188F31288D0F808A00368DB0303D5BC
:109C7000CEF80090D0F808A02368C9B2DEF8002022
:109C800081F31188DBF80010134407FB01F2A2EB0B
:109C90000A02B2FBF1F207FB0323FFF7D2BBEFF39B
:109CA000118188F31288D0F808A00368DB0303D57C
:109CB000CEF80090D0F808A02368C9B2DEF80020E2
:109CC00081F31188DBF80010134407FB01F2A2EBCB
:109CD0000A02B2FBF1F207FB0323FFF756BB00BFFA
:109CE00010E000E0BC980120B4980120EFF311834C
:109CF00088F3128881680268D20303D50122CEF866
:109D0000002081682568DBB2DEF8009083F31188BB
:109D10004FF47A72DBF800704D4402FB07F35B1AD4
:109D2000B3FBF7F302FB0535FFF70DBBEFF3118330
:109D300088F3128881680268D20303D50122CEF825
:109D4000002081682568DBB2DEF8009083F311887B
:109D50004FF47A72DBF800704D4402FB07F35B1A94
:109D6000B3FBF7F302FB0535FFF7A5BBEFF3118358
:109D700088F3128881680268D20303D50122CEF8E5
:109D8000002081682568DBB2DEF8009083F311883B
:109D90004FF47A72DBF800704D4402FB07F35B1A54
:109DA000B3FBF7F302FB0535FFF729BBEFF3118394
:109DB00088F3128881680268D20303D50122CEF8A5
:109DC000002081682568DBB2DEF8009083F31188FB
:109DD0004FF47A72DBF800704D4402FB07F35B1A14
:109DE000B3FBF7F302FB053518E6EFF3118388F3B5
:109DF000128881680268D20303D50122CEF80020C0
:109E000081682568DBB2DEF8009083F311884FF497
:109E10007A72DBF800704D4402FB07F35B1AB3FB68
:109E2000F7F302FB053593E5EFF3118388F312880E
:109E300081680268D20303D50122CEF80020816830
:109E40002568DBB2DEF8009083F311884FF47A7254
:109E5000DBF800704D4402FB07F35B1AB3FBF7F32A
:109E600002FB0535BAE4EFF3118388F312888168A9
:109E70000268D20303D50122CEF80020816825684C
:109E8000DBB2DEF8009083F311884FF47A72DBF8CE
:109E900000704D4402FB07F35B1AB3FBF7F302FBC0
:109EA0000535F9E4EFF3118388F3128881680268BD
:109EB000D20303D50122CEF8002081682568DBB2E9
:109EC000DEF8009083F311884FF47A72DBF80070AB
:109ED0004D4402FB07F35B1AB3FBF7F302FB0535B6
:109EE0000BE4EFF3118388F3128881680268D203D0
:109EF00003D50122CEF8002081682568DBB2DEF8A8
:109F0000009083F311884FF47A72DBF800704D44AF
:109F100002FB07F35B1AB3FBF7F302FB0535FFF710
:109F200090BBEFF3118388F3128881680268D20333
:109F300003D50122CEF8002081682568DBB2DEF867
:109F4000009083F311884FF47A72DBF800704D446F
:109F500002FB07F35B1AB3FBF7F302FB0535FFF7D0
:109F600006BB019A09E4029B93F86930002B41D1AA
:109F70001023CDE90433FFF7AFB91C0903F00F0339
:109F8000013C042C3CD8474A32F8140040FA03F252
:109F9000D70735D5012202FA03F3013B184042F0FE
:109FA0002BFD414B414A1B5D184412EBC00427D0E6
:109FB00052F83000A38805691D407FF484A9B3FAE4
:109FC00083F220263A49C2F11F02A671029F561C55
:109FD000E571F96019D1B3FA83F30122C3F11F03CC
:109FE00012FA03F33FF46FA932490A6813430B6076
:109FF000FFF769B918231021CDE90431FFF76CB9D7
:10A000002B4B029AD360FFF75EB92B4E07F10C0180
:10A01000DFF8BCC0B7180793284B4CF8221007A9EB
:10A0200097F88C7008930995CDE90A5522F03CFA0F
:10A03000234BDA5DF02A01D8A388CCE7F021214A2E
:10A040003E44D955D36896F89C20C3F3022351B2FD
:10A05000C3F107001E1D042828BF0420062E88BF58
:10A06000DD1E4FF0FF33002903FA00F36FEA03030C
:10A0700003F0030303FA05F34FEA0313DBB20CDB2F
:10A0800002F01F06104801224D090144B24081F838
:10A09000003340F82520A3889DE702F00F020B490A
:10A0A0008B54C9E7E84B0508F44B050800960120DE
:10A0B000A1860008003C014060EB0408000011107C
:10A0C000288A012000ED00E000E100E014ED00E04E
:10A0D000E8890120436996491A688B4222F04002C0
:10A0E0002DE9F04F83B01A60019000F0D780914ABB
:10A0F000934200F0D38038211A6822F038020A43D4
:10A100001A601A6842F040021A600AF0FDFC044628
:10A110000AF0FAFC8442FBD0019C2046FFF7CAF803
:10A12000626A1AB1938812681B049361019B5A6991
:10A1300040F2E93302E0002B00F0CA809168013B55
:10A1400011F0020F9BB2F6D06A2140F2E93311738D
:10A1500002E0002B00F0D2809168013B11F0010F6A
:10A160009BB2F6D0D368019B5A6940F2E93302E012
:10A17000002B00F095809168013B11F0020F9BB21B
:10A18000F6D0102140F2E933117302E0002B00F009
:10A1900087809168013B11F0010F9BB2F6D0D36824
:10A1A000019B5B6A13B11A689B8893616423624CBC
:10A1B000DFF89891DFF89881604DDFF898A1604E44
:10A1C00000930AF0A1FC4FF47A774FF0100C4FF097
:10A1D000010ED8F80430C3F30803002B3DD1EFF390
:10A1E0001183002B39D12368A96822689342FAD1E0
:10A1F00032689142F7D8D9F8002007FB02FBABEB9D
:10A200000101B1FBF2F107FB03131B1AB3F57A7FCF
:10A21000DFD3009B013B0093D3D1019B44495B6991
:10A220001A688B4222F040021A6035D0414A9342AC
:10A2300032D010211A6822F038020A431A601A68D4
:10A2400042F040021A600AF05FFC04460AF05CFC2F
:10A250008442FBD003B0BDE8F08FEFF311818CF3A3
:10A260001288D5F808B02B68DB0303D5CAF800E0E4
:10A27000D5F808B02368C9B2DAF8002081F3118854
:10A28000D9F80010134407FB01F2A2EB0B02B2FB5A
:10A29000F1F207FB0323B8E70821CBE730212BE7D6
:10A2A00028498A4208D0224B9A420FD003F5806396
:10A2B0009A427FF475AF0223234AD82101FB03237E
:10A2C0009A89013292B29A819B8969E70123F3E767
:10A2D0001C498A4208D0164B9A4224D003F5806369
:10A2E0009A427FF442AF02231749D82000FB0313A0
:10A2F0009989013189B299819B8936E71148019981
:10A300008242496907D00A4B9A420ED003F5806316
:10A310009A4206D102230C48D8240A4604FB0303C0
:10A32000E6E70A4621E70123DEE70123F3E700BF62
:10A3300000380040003C0040F894012010E000E0AC
:10A34000BC98012000300140308F0120B8980120D6
:10A3500000ED00E0B4980120F8B5EFF3118450232C
:10A3600083F31288D0F8FC301B6813F0010303D08C
:10A37000E4B284F31188F8BD90F8852190F8861135
:10A380000A4302F02102212AF2D0D0E909129142B7
:10A3900045D095B247D94B1B9BB28162002590F8FE
:10A3A000851180F890512029E2D18569D54205EBCD
:10A3B0000201DDD0B3FA83F56D09002DD8D190F8F4
:10A3C0008421012AD4D0064621220120DFF864C06E
:10A3D000A6F86E31D6F87C71C6F8885186F88521CA
:10A3E000134AA6F86C3186F884013846C6F868111D
:10A3F0003D65C7E90FC2D6F81C21DFF83CC0283202
:10A40000C7F84CC024F0E0FCD6F81C3140221A6298
:10A4100086F884519A6842F080029A60A8E7012386
:10A4200080F89031A4E706691946731B9BB2B4E724
:10A4300071AA0208A7AA02080BAA0208426A10B46D
:10A440008469A154426A04690132D0F8FC10A24226
:10A4500028BF0022426241B9D0F81C215DF8044BAC
:10A46000136843F08003136070475DF8044B73E793
:10A470004069983024F0CEBB426910B50832184CC0
:10A4800054F8220024F0C6FB164B1A8823460C2AE7
:10A490000DD8DFE802F0070C0C0C130C0C0C190C97
:10A4A0000C0C1F002168CA6822F40072CA600122E5
:10A4B00083F83D2000220C4B1A7010BD2168CA6839
:10A4C00022F48062CA60F2E72168CA6822F400625E
:10A4D000CA60ECE72168CA6822F48052CA60E6E7E5
:10A4E000204E01201C4E01203B850120F8B5D0F8FC
:10A4F0001C310446DA69910615D5586AE36AC0B280
:10A50000002B00F0CB80216B9847D4F81C311A68DF
:10A5100022F480721A609A6822F001029A609A69A5
:10A5200042F008029A61DA69D20701D501221A6263
:10A53000DA69970701D502221A62DA69560701D54E
:10A5400004221A62DA69150701D508221A62D4F8C2
:10A55000FC20FAB1D969490600D4F8BDD96904F5DF
:10A560008E701E680F079D682CD18F0602D5B50628
:10A5700000F1DA800F0602D5350600F1B9804806F1
:10A5800002D5710600F18280002AE6D02046BDE89F
:10A59000F840E1E6D9690806DCD594F8851121294F
:10A5A000D8D0D4E90901814200F09B80A069405CC9
:10A5B0000131C0B298622569B1FBF5F005FB1011BD
:10A5C000A162C7E715F0010502D116F4907FD1D042
:10A5D000CF0701D5F7057BD48F074AD5002D6CD165
:10A5E0000F0709D5B70665D508251D62D4F888512F
:10A5F00045F00805C4F88851D4F88851002DC3D01F
:10A600008F0605D5B50603D522F00AF9D4F81C311A
:10A61000D4F88821110708D49A6812F0400204D1B6
:10A62000C4F88821D4F8FC20AEE71A68202122F46F
:10A6300090721A609A6822F001029A6084F886117A
:10A640009A685206EED59968D4F8802121F040012D
:10A650009960002AE6D092F835304649022B116500
:10A6600067D080231046536520F0C8F9D4F8FC2049
:10A670008AE74F07B4D5002DB2D004271F62D4F863
:10A68000887147F00207C4F88871A9E7196820208B
:10A6900021F04001196084F8850175E7E36962697A
:10A6A000D054E369E1680133B3FBF1F201FB1233EB
:10A6B000E3612AE7002D9FD096E702271F62D4F8B6
:10A6C000887147F00407C4F888714F0788D5D4E72C
:10A6D00001271F62D4F8887147F00107C4F8887118
:10A6E0007AE7A4F86E21196821F08001196031E73A
:10A6F00094F8851121297FF447AFB4F86E1189B21F
:10A7000011B3D4F82401D4F86811B0F5805F24D0D7
:10A71000481CC4F8680109789962B4F86E31013BAD
:10A720009BB2A4F86E312FE722F07AF8D4F8FC201F
:10A730002AE71168052382F835300B68D4F8FC202D
:10A7400023F001030B601FE7196821F080011960F5
:10A75000196841F04001196016E7D4F82C0100286F
:10A76000D6D131F8020BC0F308009862C4F8681122
:10A77000D3E700BFFDA90208037C01681F2B0AD99B
:10A78000203B2022496802FA03F30B4214BF012345
:10A79000002353B970472022096802FA03F30B42E1
:10A7A00014BF01230023002BF4D02DE9F04F83B018
:10A7B000476904468F4E0AF0A7F94FF48A73804622
:10A7C00003FB07631A7C002A2FD18B495A6809784A
:10A7D0001568C1B9D16858890A6822F001020A6077
:10A7E000EB6823EA0003EB60844B1B78002B33D12A
:10A7F000237C21681F2B10D8202202FA03F38B60E0
:10A8000003B0BDE8F08F9269136823F00103136071
:10A81000EB6823F48073EB60E6E72022203B02FA2A
:10A8200003F3CB6003B0BDE8F08F734A01211278C7
:10A830005974002A7FD15A685D89D068116802680E
:10A8400022F001020260CB6823EA0503CB606C4A68
:10A85000136801331360CBE74FF48A72694902FB36
:10A8600007F2B3184432D3F888A0324401935FFA58
:10A870008AF92AF0FF0B0092A9F110095846A1FBB2
:10A8800009394FEA1919494624F0DAF8019B0120E9
:10A89000009AD3F880101874102900F0908056D9CF
:10A8A000B1F5807F70D0B1F5805F19D1296A986BBE
:10A8B00021F48051D3E90FCE296240EA0E00E96904
:10A8C0005B6B40EA0C0021F47F411B0341EA10213D
:10A8D00043F48053E961296A21F420410B432B6240
:10A8E0004FF48A700023494600FB07665846F3641C
:10A8F00024F060F8DAF80030D6F8885043F01003FE
:10A9000096F884204049CAF800306B68776819408F
:10A910007389F8680A4339686A60026842F0010284
:10A920000260CA681343CB600AF0EEF8374BA0EB25
:10A93000080018605CE75B6899691A680B6823F087
:10A9400001030B60D36823F48073D3607FE78142F7
:10A95000C6D1296A986B21F00101D3E90FCE296293
:10A9600040EA0E00A96940EA0C00D3F834C021F097
:10A97000FF034CF0010143EA1043AB612B6A23F063
:10A980000A030B432B62ABE7296A986B21F48071B1
:10A99000D3E90FCE296240EA0E00E9695B6B40EA19
:10A9A0000C0021F0FF011B0241EA104143F48073C7
:10A9B000E961296A21F420610B432B6290E7296A3F
:10A9C000986B21F01001D3E90FCE296240EA0E0006
:10A9D000A9695B6B40EA0C0021F47F411B0141EA4D
:10A9E000102143F01003A961296A21F0A0010B4353
:10A9F0002B6275E70C450020084500200445002027
:10AA0000B8880120ABAAAAAA0000FFFF1C00002002
:10AA10008E4B1B78002B00F0B280002800F0AF8036
:10AA2000431E2DE9F04F032B894C83B04FF00006F5
:10AA3000A8BF0323A4F1140801900093676F4FF49B
:10AA40008A7384485FFA87FB03FB068327F0FF05C0
:10AA5000ABF1100B5B7CA0FB0B2B4FEA1B1B002BFD
:10AA600000F08E807C4B13F80B301D446A6892B264
:10AA7000002A63D114F8050CD4E92013002800F053
:10AA80006D83603373485B1AA0FB0351890901EBA6
:10AA90004101A3EB4113182B00F12885173BA0FBC4
:10AAA0000323DB0003F0F0036A48D4E9221260328A
:10AAB000521AA0FB0251890901EB4101A2EB41129C
:10AAC000182A05D4173AA0FB0212C2F3430213431B
:10AAD0006048D4E924126032521AA0FB025189095D
:10AAE00001EB4101A2EB4112182A00F12985A2F1E4
:10AAF0001701A0FB0121C1F34301D4F89C2041EAD6
:10AB00000311D4F8983060325248D21AA0FB025395
:10AB10009B0903EB4303A2EB4312182A00F10D85B6
:10AB2000173AA0FB0223C3F3430343EA011383EA6A
:10AB3000132282EA1212150700F0E283474A1368D3
:10AB40000133136026B980224549464842F048FC4B
:10AB50004FF48A73002203FB06835A74676F54F81C
:10AB6000103C5FFA87FB27F0FF05D3F80090ABF1AC
:10AB7000100B384BA3FB0B3B4FEA1B1B0CE0704741
:10AB800054F8103C34F80A1CD3F80090D9F80C2083
:10AB900022EA0102C9F80C205946284623F050FF4A
:10ABA0004FF48A734FF0000C03FB068282F810C04A
:10ABB000E26E012A1CD0042A1AD0102A00F0BC82AE
:10ABC000402A15D0B2F5807F00F08584B2F5806F01
:10ABD00000F08184B2F5805F00F09984B2F5803F87
:10ABE0004FF03C0C14BF6FF4006E6FF0080E01E0E4
:10ABF0006FF0080E09F1180A224648465AF80C1060
:10AC000001EA0E014AF80C10E16E21F0FAFAE26E48
:10AC1000012A29D0042A27D0102A00F09082402A45
:10AC200022D0B2F5807F00F05C84B2F5806F00F036
:10AC30005884B2F5805F00F07A84B2F5803F09F164
:10AC4000540A14BF4FF4006108210EE004450020AF
:10AC500020450020ABAAAAAA483B05085C34002086
:10AC6000A0450020200000200821DAF80030402212
:10AC7000B3480B43DFF8E4E210F80BC0CAF8003029
:10AC8000A16CA2630CEB0502D4E90F300343606CA6
:10AC900043F040031843E36C0143A06D19435CF893
:10ACA0000530014303EA0E0EE36D41EA0E014CF854
:10ACB0000510C3B15169206E21F00701D4F864E09A
:10ACC0000343A06E0B4353615CF8051021F0C07183
:10ACD00041EA0E014CF805105CF8053023F4C0037E
:10ACE00003434CF80530616B0136236B04F58A741D
:10ACF000D16093609349506854F8C43C014054F8C3
:10AD0000C00C19435160136823F0F05303431360E0
:10AD10003B6843F010033B60009B9E427FF78EAE82
:10AD2000019B9E4280F278814FF48A7B0BFB068464
:10AD3000CDF800B01434676F009B5FFA87FB824840
:10AD400003FB068327F0FF05ABF1100B5B7CA0FB38
:10AD50000B2B4FEA1B1B002B00F08C807B4B13F856
:10AD60000B301D446A6892B2002A63D114F8050CB6
:10AD7000D4E92013002800F0D082603372485B1AB7
:10AD8000A0FB0351890901EB4101A3EB4113182BEF
:10AD900000F1AF83173BA0FB0323DB0003F0F003BC
:10ADA0006948D4E922126032521AA0FB0251890983
:10ADB00001EB4101A2EB4112182A05D4173AA0FB7E
:10ADC0000212C2F3430213435F48D4E924126032F3
:10ADD000521AA0FB0251890901EB4101A2EB411279
:10ADE000182A00F1C883A2F11701A0FB0121C1F3C9
:10ADF0004301D4F89C2041EA0311D4F89830603222
:10AE00005148D21AA0FB02539B0903EB4303A2EB68
:10AE10004312182A00F1AD83173AA0FB0223C3F3B3
:10AE2000430343EA011383EA132282EA1212110751
:10AE300000F04383464A13680133136026B9802229
:10AE40004449454842F0CCFA009B002203FB0683AC
:10AE50005A74676F54F8103C5FFA87FB27F0FF05C0
:10AE6000D3F80090ABF1100B374BA3FB0B3B4FEA31
:10AE70001B1B0BE054F8103C34F80A1CD3F800906C
:10AE8000D9F80C2022EA0102C9F80C2059462846BC
:10AE900023F0D6FD009B4FF0000C03FB068282F8E6
:10AEA00010C0E26E012A1CD0042A1AD0102A00F029
:10AEB0004981402A15D0B2F5807F00F00383B2F5B6
:10AEC000806F00F0FF82B2F5805F00F02B83B2F557
:10AED000803F4FF03C0C14BF6FF4006E6FF0080E13
:10AEE00001E06FF0080E09F1180A224648465CF8A6
:10AEF0000A1001EA0E014CF80A10E16E21F081F906
:10AF0000E26E012A2CD0042A2AD0102A00F01D81DA
:10AF1000402A25D0B2F5807F00F0D982B2F5806F4B
:10AF200000F0D582B2F5805F00F0F782B2F5803F85
:10AF300009F1540A14BF4FF40061082111E000BF69
:10AF4000483B05080000FFFFABAAAAAA483B05083A
:10AF50005C340020A0450020200000201F80FCFF62
:10AF60000821DAF80030402279480B43DFF8E8E1A5
:10AF700010F80BC0CAF80030A16CA2630CEB0502FC
:10AF8000D4E90F300343606C43F040031843E36C93
:10AF90000143A06D19435CF80530014303EA0E0E2E
:10AFA000E36D41EA0E014CF80510C3B15169206E02
:10AFB00021F00701D4F864E00343A06E0B43536112
:10AFC0005CF8051021F0C07141EA0E014CF8051043
:10AFD0005CF8053023F4C00303434CF80530616B83
:10AFE0000136236B04F58A74D16093605949506827
:10AFF00054F8C43C014054F8C00C19435160136824
:10B0000023F0F053034313603B6843F010033B60AD
:10B01000019BB3427FF48FAE98F80D30D8F88010C2
:10B0200013F0020FD8F804301A68136A0CBF0B43F0
:10B0300043EA81031362019B012B7AD098F82131F6
:10B04000D8F8941113F0020FD8F818311A68136A5F
:10B050000CBF0B4343EA81031362019B022B68D0B0
:10B0600098F83532D8F8A81213F0020FD8F82C321D
:10B070001A68136A0CBF0B4343EA81031362019BF6
:10B08000032B56D098F84933D8F8BC1313F0020FAD
:10B09000D8F840331A68136A0CBF0B4343EA8103A4
:10B0A0001362019B042B44D098F85D34D8F8D01477
:10B0B00013F0020FD8F854341A68136A0CBF0B430C
:10B0C00043EA81031362019B052B32D098F8713556
:10B0D000D8F8E41513F0020FD8F868351A68136A27
:10B0E0000CBF0B4343EA81031362019B062B20D064
:10B0F00098F88536D8F8F81613F0020FD8F87C3691
:10B100001A68136A0CBF0B4343EA81031362019B65
:10B11000072B0ED098F89937D8F80C1813F0020FB7
:10B12000D8F890371A68136A14BF43EA81030B43B7
:10B13000136203B0BDE8F08F6FF4006E5AE54FF470
:10B14000006192E56FF4006ECDE64FF4006108E710
:10B15000483B05080000FFFF1F80FCFF5B1A002B27
:10B1600040F3CF810A2BD4BF00230123D4F88C20D5
:10B170005B00D4F88810521A002A40F322820A2A6F
:10B1800001DD43F00103D4F894205B00D4F8901063
:10B19000521A002A40F31D820A2A01DD43F00103FE
:10B1A000D4F89C205B00D4F89810521A002A40F37F
:10B1B0000C820A2A01DD43F00103D4F8A4205B00CD
:10B1C000D4F8A010521A002A40F3F3810A2A01DDB4
:10B1D00043F00103D4F8AC205B00D4F8A810521A55
:10B1E000002A40F3E2810A2A01DD43F00103D4F88A
:10B1F000B4205B00D4F8B010521A002A40F3D18179
:10B200000A2A01DD43F00103D4F8BC205B00D4F826
:10B21000B810521A002A40F3C0810A2A01DD43F017
:10B220000103D4F8C4205B00D4F8C010521A002ADD
:10B2300040F3AF810A2A01DD43F00103D4F8CC20AA
:10B240005B00D4F8C810521A002A40F39E810A2AE3
:10B2500001DD43F00103D4F8D4205B00D4F8D01012
:10B26000521A002A40F38D810A2A01DD43F00103BE
:10B27000D4F8DC205B00D4F8D810521A002A40F32E
:10B280007C810A2A01DD43F00103D4F8E4205B004D
:10B29000D4F8E010521A002A40F361810A2A01DD35
:10B2A00043F00103D4F8EC205B00D4F8E810521A04
:10B2B000002A40F350810A2A01DD43F00103D4F84B
:10B2C000F4205B00D4F8F010521A002A40F33F81BA
:10B2D0000A2A01DD43F00103D4F8FC205B00D4F816
:10B2E000F810521A002A40F32E810A2A01DD43F099
:10B2F000010383EA132282EA121210077FF41EACC4
:10B30000CA4AC3F30F13127824F8023C2F2A7FF4A1
:10B310001FACC74A22F816301AE45B1A002B40F320
:10B32000EA800A2BD4BF00230123D4F88C205B00D1
:10B33000D4F88810521A002A40F33F810A2A01DD0E
:10B3400043F00103D4F894205B00D4F89010521A13
:10B35000002A40F373810A2A01DD43F00103D4F887
:10B360009C205B00D4F89810521A002A40F36281A6
:10B370000A2A01DD43F00103D4F8A4205B00D4F8CD
:10B38000A010521A002A40F34C810A2A01DD43F032
:10B390000103D4F8AC205B00D4F8A810521A002A9C
:10B3A00040F33B810A2A01DD43F00103D4F8B420C5
:10B3B0005B00D4F8B010521A002A40F32A810A2AFE
:10B3C00001DD43F00103D4F8BC205B00D4F8B810D1
:10B3D000521A002A40F319810A2A01DD43F00103C1
:10B3E000D4F8C4205B00D4F8C010521A002A40F3ED
:10B3F00008810A2A01DD43F00103D4F8CC205B0068
:10B40000D4F8C810521A002A40F3F7800A2A01DD46
:10B4100043F00103D4F8D4205B00D4F8D010521AC2
:10B42000002A40F3E6800A2A01DD43F00103D4F844
:10B43000DC205B00D4F8D810521A002A40F3D580E3
:10B440000A2A01DD43F00103D4F8E4205B00D4F8BC
:10B45000E010521A002A40F3C4800A2A01DD43F0AA
:10B460000103D4F8EC205B00D4F8E810521A002A4B
:10B4700040F3B3800A2A01DD43F00103D4F8F4203D
:10B480005B00D4F8F010521A002A6FDD0A2A01DDA1
:10B4900043F00103D4F8FC205B00D4F8F810521AF2
:10B4A000002A60DD0A2A01DD43F0010383EA13224A
:10B4B00082EA121212077FF4BDACC3F30F1324F813
:10B4C000023CC1E46FF0080E4FF0040C0BE509F1EB
:10B4D0001C0A082145E56FF0080E4FF0040CFFF739
:10B4E00089BB09F11C0A0821FFF7BFBB1346FFF710
:10B4F000DBBA134654E413F1090FB4BF0023012350
:10B5000013E713F1090FB4BF002301232EE66FF4F4
:10B51000006E4FF0040CFFF76DBB09F11C0A4FF4ED
:10B5200000611EE56FF4006E4FF0040CDBE409F1DE
:10B530001C0A4FF40061FFF798BB0023FFF7F5BA30
:10B540000021FFF7DABA0932FFF6D3AECFE60932AF
:10B55000FFF6C2AEBEE60932FFF6B1AEADE6093285
:10B56000FFF6A0AE9CE60932A0DB9DE7093291DB35
:10B570008EE7002355E400213BE40932FFF685AE57
:10B5800081E60932FFF674AE70E60932FFF663AE6B
:10B590005FE60932FFF652AE4EE60932FFF641AEE3
:10B5A0003DE60932FFF630AE2CE60932FFF61FAE5B
:10B5B0001BE60932FFF60EAE0AE60932FFF6C2AE0E
:10B5C000BEE60932FFF6DFADDBE50932FFF6F5AD89
:10B5D000F1E50932FFF6E4ADE0E50932FFF64EAFE2
:10B5E0004AE70932FFF63DAF39E70932FFF62CAFE3
:10B5F00028E70932FFF61BAF17E70932FFF60AAF5B
:10B6000006E70932FFF6F9AEF5E60932FFF6E8AED5
:10B61000E4E60932FFF6D7AED3E60932FFF6C6AE4E
:10B62000C2E60932FFF6B5AEB1E600BFAD92012029
:10B63000B09201200932FFF69FAE9BE60932FFF679
:10B640008EAE8AE620B10078B0FA80F040097047EB
:10B6500001207047037903F01803082B05D0102B45
:10B6600014D033BBB0F80B007047134BB0F80B008D
:10B6700093F90030591C07D1104B1B78C3EB4313CF
:10B6800000EB830080B27047DBB2F7E70C4BB0F8F9
:10B690000B0093F900305A1C09D1084B5B7803EB7F
:10B6A000430203EB820300EB430080B27047DBB23E
:10B6B000F5E70020704700BFEC00012058A40120EE
:10B6C0009C000120F0B5067906F06003402B09D1FB
:10B6D00044794FF0FF350023012006F00706A3420E
:10B6E0000BD1F0BD602B4FF0010403D1457904FA72
:10B6F00005F5F0E74FF0FF35EDE7042E0CD8DFE855
:10B7000006F0030D18242E0030B1C85CD75C7840D9
:10B7100028420CBF012000200133E0E70028FBD0C5
:10B72000C856D756A0EB070CDCF1000040EB0C002C
:10B73000F2E70028F0D031F8130032F813707840A7
:10B7400028420CBF01200020E6E70028E4D031F9B0
:10B75000130032F91370C71B78427841DCE70028E8
:10B76000DAD051F8230052F82370784028420CBFF9
:10B7700001200020D0E7024B014618680DF096BC6E
:10B780001C3F012038B5441E054D14F8011F2868E0
:10B7900019B9BDE838400DF03DBC0DF087FCF4E769
:10B7A0001C3F01200048EDE7E457050808B5FFF706
:10B7B000E9FFBDE80840F5E710B504460348FFF788
:10B7C000E1FF2046BDE81040F0E700BF3E5205080B
:10B7D00038B5074C074DAC4203D3074B00221A7013
:10B7E00038BD6288D4E9010141F0FAFD1434F2E772
:10B7F000E80100084C0700080C3E012038B5074C52
:10B80000074DAC4203D3074B01221A7038BD628842
:10B81000D4E9011041F0E4FD1434F2E7E801000836
:10B820004C0700080C3E0120024A136823EA00007E
:10B830001060704714A70120DFED2A7AB4EEE70A02
:10B84000F1EE10FA4BDDDFED286A9FED287AB4EEB9
:10B85000C70A70EE667AF1EE10FAB0EE670AF6DC0F
:10B860009FED237AF4EEC77AF1EE10FA34D5DFEDCE
:10B870001E6A9FED207AF4EEC77A37EEA60AF1EE43
:10B8800010FAF0EE407AF6D4DFED1B7AB4EEE70A58
:10B89000F1EE10FA14DDDFED137A37EEC00A60EE38
:10B8A000006A9FED166A9FED167ADFED167AA6EE16
:10B8B000867A20EE266AE6EE877AA6EE270A704799
:10B8C000DFED117AB4EEE70AF1EE10FAE7D5DFED1D
:10B8D000087A37EEC00AE2E7B0EE670AD4E7F0EE86
:10B8E000407ABDE7DB0F4940DB0FC940E4CB16418E
:10B8F000DB0F49C0E4CB16C1DB0FC93F92E741B96A
:10B900009730083C15A82ABEDB0FC9BFB0EEC07A3D
:10B91000F0EEE06A86FE876AB5EE406AF1EE10FA54
:10B920003DD0C6FEC75AC5EE867ADFED1E2ADFED92
:10B930001E3ADFED1E4A9FED1E5A9FED1E3AB7EEEE
:10B94000006A9FED1D4ADFED1D5AE7EEE23AA7EED1
:10B95000834AE7EEA34AA7EE846AA7EEA45AE7EE6D
:10B96000855AC5EE867AF4EEC76AF1EE10FA03D571
:10B970009FED137A77EE677AF5EEC00AF1EE10FAD2
:10B9800003D59FED107A77EE677AB5EEC00AF1EE37
:10B9900010FA48BFF1EE677AB0EE670A7047DFED44
:10B9A000077AE0E739094E3DE3B59E3E88FA163E38
:10B9B00045FE7F3F99FB243F69A2163EA7DFA834CE
:10B9C000DB0FC93FDB0F4940DFED307A30EE277ADD
:10B9D000FDEEC76A16EE903A2033402B02D99FED58
:10B9E0002C0A7047B4EEE70AF1EE10FA4BDD9FED3A
:10B9F000296ADFED296AB4EEE67A77EE467AF1EE4F
:10BA000010FAB0EE677AF6DC9FED247AF4EEC77A8E
:10BA1000F1EE10FA34D5DFED1F6A9FED217AF4EED6
:10BA2000C77A37EEA60AF1EE10FAF0EE407AF6D4B5
:10BA3000DFED167AB4EEE70AF1EE10FA1BDCDFED6B
:10BA4000197AB4EEE70AF1EE10FA03D5DFED137AB6
:10BA500037EEC00A60EE006A9FED136A9FED137A1D
:10BA6000DFED137AA6EE867A20EE266AE6EE877A76
:10BA7000A6EE270A7047DFED0F7A37EEC00AE9E736
:10BA8000B0EE670AD4E7F0EE477ABDE7DB0FC93FB7
:10BA900000000000DB0FC940E4CB1641DB0F49C0BA
:10BAA000E4CB16C1DB0FC9BF92E741B99730083C20
:10BAB00015A82ABEDB0F494010B401224C0901F041
:10BAC0001F0150F8243002FA01F10B4340F82430F2
:10BAD0005DF8044B704700BF01234A0901F01F01C4
:10BAE00050F8222003FA01F1114214BF1846002039
:10BAF000704700BF2DE9F043002489B006460D468B
:10BB00001F46A04605E025290CD030460134A84741
:10BB1000039A531C039311780029F4D1204609B0ED
:10BB2000BDE8F083931CCDE903385378302B43D024
:10BB3000A3F130024FF00009D2B2092A46D96C2B8A
:10BB40002BD0642B7AD019D9732B5DD06AD9752B81
:10BB500040F08B8007F1040C386805AB00220A2105
:10BB60006746FCF757FC05A9049A4B4630460091FE
:10BB70002946FCF74BFA039A0444CAE7252B41D027
:10BB800058D9582B74D0632BC2D13B1D397830461D
:10BB900001341F46A847039ABBE7039B5A1C039234
:10BBA0001B78642B5AD018D8252B2BD06DD9582B45
:10BBB0001AD0632BE9D0ACE7D31C4FF001090393F3
:10BBC0009378A3F13002D2B2092AB8D8184604AA51
:10BBD00003A93DF019FA0346B1E7732B14D058D9E5
:10BBE000752B32D0782B94D1A3F1580207F1040CB5
:10BBF000386805ABB2FA82F2102167465209FCF7A9
:10BC000009FCB0E7252180E7386807F1040C049AA5
:10BC100000230090294630466746FCF7F7F9039A5F
:10BC2000044476E76E2B7FF473AF039A3B680437C6
:10BC30001C606EE7002B3FF471AF69E73B1D38686D
:10BC400005A91F46FCF7B2FB8DE7391D386805AB27
:10BC500000220F460A21FCF7DDFB84E73B1D386814
:10BC600005A91F46FCF7A2FB7DE7782B7FF450AFB8
:10BC7000A3F15802391D386805ABB2FA82F20F46BB
:10BC800010215209FCF7C6FB6DE7002B3FF446AFCD
