:020000040800F2
:10000000F0FF001015F70408F5B7030811FE01080A
:10001000B5F70408B5F70408B5F7040800000000B8
:10002000000000000000000000000000FBB7030813
:10003000F9B7030800000000F7B7030871C501080D
:10004000B5F70408B5F70408B5F70408B5F70408D0
:10005000B5F70408B5F70408790C0208A50D0208E5
:10006000690D02082D0D0208F10C0208997C0308A5
:10007000897C0308797C0308697C0308557C0308A4
:10008000417C03082D7C0308B5F70408B5F7040884
:10009000B5F70408B5F70408B5F70408B50C02086D
:1000A000B5F7040869AE0108B5F7040829AF0108DF
:1000B000A9AD0108E9AC01081DAC0108519603087F
:1000C000599603084196030849960308B5F70408B2
:1000D000B5F70408EDC50108E1C50108D5C501085B
:1000E0003D0C0208B5F7040821EE0308B5F7040833
:1000F000B5F70408B5F70408B5F70408197C030838
:10010000B5F70408B5F70408B5F70408B5F704080F
:10011000C9C50108BDC50108B94C0408A54C0408AF
:10012000057C0308F17B0308DD7B0308C97B03081A
:10013000B57B0308B5F70408B5F70408B5F704085C
:10014000B5F70408B5F70408B5F7040805C90308AE
:10015000A17B03088D7B0308797B0308B1C50108E7
:100160003196030839960308B5F70408B5F7040873
:10017000B5F70408B5F70408B5F70408B5F704089F
:08018000B5F70408B5F7040807
:08018800BCF2040001000000BC
:100190002C0010009C2100208C2100200000000079
:1001A000839400082B002400D0210020AC210020E3
:1001B00000000000559400082920780098200020B5
:1001C000F4210020000000000000000028101000B2
:1001D0007C2200206C22002000000000FD88000826
:1001E0001C021000001C00208C22002000000000D7
:1001F000152D010820320A00A82200209C22002090
:100200000000000085880008140003000020002082
:10021000B4220020000000001C0700080120080094
:1002200028180020B8220020000000002007000845
:100230000A702800A4170020C0220020000000003F
:10024000A58800080EA06E0134160020E8220020C8
:1002500000000000459002080101040098150020EC
:1002600058240020000000000000000000010400ED
:10027000901500205C2400200000000028070008E2
:10028000020103008C150020602400200000000003
:10029000913604081F0210003C2900202C29002060
:1002A00000000000B72D01081A023C006829002058
:1002B000802E002000000000952E01082700040079
:1002C0005C290020BC2E0020000000002C07000844
:1002D00009020100184A0020F44A00200000000032
:1002E0003007000822021401E8470020F84A0020E5
:1002F000000000003F2F01080C109C006C3800200B
:100300000C4C0020000000006536040801020500C6
:1003100060380020A84C0020000000003D250208A5
:100320000002050058380020B04C002000000000FA
:10033000000000001B02080034380020B84C0020E8
:10034000000000003F2D01081E000600643500205B
:10035000C04C002000000000320700081B100C00F9
:10036000D0300020C84C002000000000D129020835
:100370002102F000502F0020D44C0020000000008B
:10038000152602080E020200943A0020C44D0020F7
:10039000000000003807000823100E00B04A0020BB
:1003A000C84D002000000000158900082F10220011
:1003B000744A0020D84D0020000000003A070008D1
:1003C000161006006C4A0020FC4D002000000000C2
:1003D0005C07000805100600C84A0020044E0020F3
:1003E000000000006207000837102400D03700200A
:1003F0000C4E00200000000068070008F55188003E
:10040000C02E0020304E002000000000F9560208E7
:1004100026100C00C44E0020B84E00200000000042
:10042000291C02080312330098560020D4560020DD
:10043000000000008C07000825102C0178540020D3
:10044000085700200000000000000000101002000B
:10045000605400203458002000000000C00700084D
:100460001A000E0010540020385800200000000030
:10047000C207000819000500545300204858002006
:1004800000000000D0070008F8210600C451002039
:100490005058002000000000D6070008150070002A
:1004A0000850002058580020000000000000000004
:1004B0002A006000B0530020C8580020000000004F
:1004C0001D90020810020100505900204C590020D4
:1004D00000000000DC0700080B3018005463002007
:1004E0008467002000000000E00700081F3024009F
:1004F000C85A00209C67002000000000F807000890
:100500000502040024650020C067002000000000F0
:100510001C08000803010A00F4620020C4670020E0
:100520000000000020080008130204007459002095
:10053000D0670020000000002A080008070202001F
:10054000FC6A0020446B0020000000003008000816
:10055000F6210C00CC6A0020486B0020000000004F
:100560003408000802000C00C06A0020546B002010
:10057000000000000000000006020C00B46A002029
:10058000606B002000000000252F010808120F00FA
:10059000386A00206C6B002000000000732D0108F9
:1005A000F70106002C6A00207C6B00200000000090
:1005B000400800080A020A00A0690020846B00209D
:1005C00000000000493B040803000100206A0020ED
:1005D000906B002000000000000000000D003C00B7
:1005E0007C8B00206895002000000000B1EE03081D
:1005F0000400800004820020A49500200000000078
:1006000000000000F9010400F08100202496002081
:1006100000000000B199010813000400EC810020E3
:10062000289600200000000048080008FD011E0078
:10063000CC8100202C960020000000003999010890
:1006400018202E00988100204C9600200000000009
:10065000292E010806101A007C8100207C960020BB
:1006600000000000A5900208FB0101007881002035
:100670009896002000000000BD300108FC01090030
:10068000448000209C96002000000000CD3001082E
:10069000340010006C7F0020A896002000000000AD
:1006A0007990020811020800447F0020B8960020CB
:1006B000000000004C080008121204003C7F0020DB
:1006C000C09600200000000054080008122010000E
:1006D0002C7F0020C496002000000000580800086D
:1006E00002020300F46B0020D496002000000000FA
:1006F000000000000C020400B06B0020D89600201F
:10070000000000009F2D0108FE011400546E00201F
:0C071000DC960020000000004B2D0108CA
:10071C0003000000E8036400040A000190010000DB
:10072C002003000020000000010000000000000079
:10073C0000000000000000000000000000000000AD
:10074C00000000000000000000000000000000009D
:10075C00C409000019002000030100002000320031
:10076C00C800D0079600140032002800B0044006E0
:10077C000005500014000F00080064000100010087
:10078C00000000000000000000000000000000005D
:10079C00000000000000000000000000000000004D
:1007AC00000000000000000000000000000000003D
:1007BC000000010000057E05EA05B4053200E803DF
:1007CC00D00700000000280100000401F40114000F
:1007DC0000000000AE014A015E012C016401010021
:1007EC00000001000A019A01001E0A00000000002E
:1007FC0000010000000500000102030000000000E1
:10080C000000000000000000000000000080070055
:10081C0000000000040101006C1600000000000044
:10082C0001000000033C000000000000010000007B
:10083C00020200002301000000000000080040300C
:10084C000000000001010101FFFFFFFF000000019B
:0C085C00000005464F5233000008000069
:100868000100000021800008000000009C1005081D
:1008780020700020702D7200FFFFFFFF01010100B2
:100888000001010100D6012D202D2D202D2D2D2D0B
:10089800202D2D2D000000000000000000000000A9
:1008A8000000000000000000000000000000000040
:1008B8008425050800000000000000001026050837
:1008C80001000000FA000000010000000100000023
:1008D80001010000FA17002000C80100F9170020E4
:1008E80000500100F8170020005A0100F6170020F8
:1008F800020000001C150508486A0508506A05082A
:10090800128C00200100C40900000000108C002097
:100918000100C409000000000E8C00200100C40979
:10092800000000000C8C00200100C4090000000039
:10093800088C00200100C409000000000A8C002077
:100948000100C40900000000068C00200100C40951
:1009580000000000048C00200100C4090000000011
:10096800AE1500200100C80001000000AC150020F1
:100978003200307532000000AA150020055A050023
:10098800A715002000FF0100A915002001000000A4
:1009980020020020A51500200200000028540508A8
:1009A800A615002000FF0100A81500200100000086
:1009B80020020020A4150020020000002854050889
:1009C80034180020EE02CA08010000003218002086
:1009D80000C80100640000003118002000C80100B0
:1009E80064000000301800200200000028150508E7
:1009F8009E15002080C1803E050000009C15002047
:100A080080C1803E050000009615002080C1803E10
:100A1800050000009415002080C1803E05000000FC
:100A28008F15002000FF0100881500206400F401E4
:100A38000100000087150020040000003415050897
:100A4800861500200200000048150508231600201E
:100A58000D00000054150508201600200064010050
:100A68001E160020320010270A0000001D16002064
:100A78000D000000541505081C1600200D0000008C
:100A8800541505081B160020020000008C150508E7
:100A9800000000000000000098150508DC64002034
:100AA8009CFF2C0100000000401B0020E0150C17E3
:100AB80000000000421B002002000000D0150508BD
:100AC800401800200100FF7F010000003F180020AF
:100AD80002000000DC1505082516002003000000B0
:100AE800EC1505082416002003000000EC15050885
:100AF800D81700200000E80301000000D6170020E6
:100B08000000E80301000000D41700200000E803FB
:100B180001000000D21700200000E80301000000D7
:100B2800D01700200000E80301000000CE170020C5
:100B38000000E80301000000CD17002000140100A8
:100B4800CC17002003000000FC150508E41700205E
:100B58000000F40101000000E21700200000F40189
:100B680001000000E01700200000F401010000006F
:100B7800DE1700200000F40101000000DC1700204F
:100B88000000803E01000000DA1700200000803ECF
:100B9800010000000D180020196401000C18002045
:100BA800020000000C1605080A180020E803D00708
:100BB8000A00000008180020006401000A00000074
:100BC800FD17002000640100FC17002000640100EC
:100BD80004180020006401000A0000000318002027
:100BE800006401000A0000000218002000640100EF
:100BF8000A00000007180020006401000A00000035
:100C080006180020006401000A00000005180020F2
:100C1800006401000A0000000118002001FF010023
:100C28000A0000000018002001FF01000A0000006F
:100C3800FF17002001FF01000A0000002E16002007
:100C48000000F401010000002C1600200000F4014F
:100C5800010000002A1600200000F4010100000035
:100C6800281600200000F4010100000026160020CC
:100C78000000F40101000000F517002000640100E5
:100C8800F417002000640100F3170020006401003D
:100C9800F2170020FF080100F1170020016401008D
:100CA80019860008DD85000818160508F0170020C9
:100CB80000640100EE1700201400E80301000000A2
:100CC800EC170020E80330750A000000EA1700203E
:100CD80000C80100E917002000C80100E81700203B
:100CE80000C80100E7170020006401000A000000A6
:100CF800241800200000D007010000001F18002061
:100D080000C801001E18002000C801001D1800209E
:100D180000C80100221800200000D00701000000D0
:100D28001C18002000C801001B18002000C8010082
:100D38001A18002000C80100201800200000D00761
:100D4800010000001918002000C801001818002030
:100D580000C801001718002000C8010000000000AA
:100D68004D83000888160508191600203100000078
:100D7800241705081816002000C8010016160020C0
:100D8800E803D0070100000046465F464F52544929
:100D98004E4946345F52455630330000A3150020B3
:100DA80000030100A215002000030100958200083D
:100DB8006D820008EC17050829820008DD8100080B
:100DC80040180508D5820008BD820008C01805082B
:100DD800A015002001030100798700084D8700084D
:100DE800B41B05086D8100082D810008181C050832
:100DF80063830008FDB90008B41C0508A195000824
:100E0800000000005C1D05085D970008D9870008F0
:100E1800F81D0508B583000800000000681E0508D5
:100E28008D84000839840008CC1E05081D8500083B
:100E3800E1840008681F0508558600089D8600089B
:100E4800E81F0508FB17002001060100FD830008C4
:100E5800C9830008E4200508598500083D9A000860
:100E680054210508D1860008C19A000834220508D3
:100E7800E6170020010301001D830008ED82000829
:100E880008230508A5870008000000006C23050852
:100E9800AD810008B9990008D023050800000000BA
:100EA800000000005C24050825870008399B00081D
:100EB800DC2405088215002088136F170100000044
:100EC8008415002088136F1700000000568C00203E
:100ED8000000000000000000548C0020000000000A
:100EE80000000000528C00200000000000000000FC
:100EF800508C002000000000000000004E8C0020F4
:100F080000000000000000004C8C002000000000E1
:100F180000000000CC0B00200000000000000000D2
:100F280058150020020000006426050880150020DE
:100F380088136F17010000001C65002088136F17C5
:100F480000000000C18000080000000070260508AD
:100F58008A1B002001000000C42605081E65002029
:100F680001000000D02605081465002002000000DA
:100F7800D82605080000000000000000E426050847
:100F8800AD80000800000000802705080000000070
:100F980000000000D4270508000000000000000041
:100FA8004428050818650020E0150C17000000000B
:100FB800FFFFFFFFFFFF0000FFFF0100A00F000081
:100FC800B80B00000102FFFF01000000E4B60508AD
:100FD8000000080205030300ECB60508010008023A
:100FE800050403001CD105080200FE0101100300DE
:100FF800A46D05080300140200030000F4B60508F8
:1010080004001F0201000800FCB6050805001F02C5
:10101800010108000100000000000100E00108FFD4
:10102800FFFF0100FFFFFFFFFFFFFFFF0000803F02
:101038000000000000000000000000000000803FE9
:101048000000000000000000000000000000000098
:101058000000000000000000000000000000000088
:10106800000000000000803F0000000000000000B9
:101078000000000001000000FFFFFFFF0000803FAC
:10108800000000000000000000000000FF00000059
:10109800010000000000000000000000010203043D
:1010A800060708090403090412010002EF020140BF
:1010B80083045632000201020301000012010002FB
:1010C80002020040830440570002010203010000AD
:1010D80009026400030100C0320904000001030092
:1010E80000000921110100012226000705830308D9
:1010F800000A080B010202020100090401000102B2
:101108000201000524001001052401000204240244
:10111800020524060102070582030800FF090402EC
:1011280000020A00000007050102400000070581CF
:101138000240000009024300020100C03209040015
:10114800000102020100052400100105240100012C
:10115800042402020524060001070582030800FF93
:1011680009040100020A000000070501024000000E
:101178000705810240000000FF000000F85705083D
:101188000000000000000000000000000000000057
:101198000000000000000000000000000000000047
:1011A8000000000000FFFF0000000000AA55050134
:1011B80000000100CC5705080000000000000000F6
:1011C8000000000000000000000000000000000017
:1011D800000000000000000000000000FF1FFF1FCB
:1011E80005010905A101A1000501093009310932EC
:1011F800093309350934094009381581257F7508EF
:1012080095088102C0C0000009022200010100E027
:101218003209040000010301020009211101000143
:101228002226000705830308000A000000000000CA
:10123800010203040102030406070809AFBB0308FF
:10124800B3BA0308E3BD0308F39803080B9C03082B
:10125800039903081F990308CD980308BF9803084A
:1012680000000000000000002D202D2D202D2D2D28
:101278002D202D2D2D2D0000000000000000000065
:1012880000000000000000AA550B010000AA550745
:10129800010000AA550902000000AA5503009F009A
:1012A80001000000C0120000586700200000000084
:1012B8007C67002000000000619D0308939B0308E1
:1012C800C1BD030800000000BD980308A1BA0308C7
:1012D800D19C030821BA03080000000000000000A8
:1012E8007D980308D39C0308559B030809BD030890
:1012F800000000009598030823BA0308A59C03087A
:1013080083B9030800000000000000008998030862
:1013180000000000346B00200800000000000000FE
:10132800246B0020080000000000803FFCC5050871
:10133800B8CF0508C4CF0508D0CF0508DCCF05080D
:10134800E8CF0508B87805087C8C0508AC8B05083B
:101358006CCF0508B4B80508A8CF0508ACCF0508B8
:10136800B0CF0508B4CF050808C60508F4CF0508AE
:10137800F8CF0508048A0508FCCF05081900C8003D
:10138800F401200308000000000004010000000030
:10139800000000021000000007000000B13A040835
:1013A8000000000000000000000000004998030849
:1013B80047980308459803083F9803083D98030891
:1013C8004398030841980308599803084B98030861
:1013D80055A4030869A4030841A403082DA403081D
:1013E80019A40308010000000060024010600240D8
:1013F8000000000000000000000B000000000000DA
:101408000000000000000000006002402860024068
:101418000100000000000000060C000000000000B1
:101428000000000000000000006002404060024030
:101438000200000000000000100D00000000000085
:1014480000000000000000000060024058600240F8
:101458000300000000000000160E0000000000005D
:1014680000000000000000000060024070600240C0
:101478000400000000000000200F00000000000031
:101488000000000000000000006002408860024088
:101498000500000000000000261000000000000009
:1014A800000000000000000000600240A060024050
:1014B80006000000000000003011000000000000DD
:1014C800000000000000000000600240B860024018
:1014D8000700000000000000362F00000000000098
:1014E8000000000000000000006402401064024098
:1014F80000000000000000000038000000000000AC
:10150800000000000000000000640240286402405F
:101518000100000000000000063900000000000083
:101528000000000000000000006402404064024027
:101538000200000000000000103A00000000000057
:1015480000000000000000000064024058640240EF
:101558000300000000000000163B0000000000002F
:1015680000000000000000000064024070640240B7
:101578000400000000000000203C00000000000003
:10158800000000000000000000640240886402407F
:1015980005000000000000002644000000000000D4
:1015A800000000000000000000640240A064024047
:1015B80006000000000000003045000000000000A8
:1015C800000000000000000000640240B86402400F
:1015D8000700000000000000364600000000000080
:1015E800000000000000000098B20508C0C8050807
:1015F80000000000A5360408A086010004000000D1
:1016080000000000000000000000000000000000D2
:1016180000000000000000000000000000000000C2
:10162800000000000000000098B2050844D1050839
:1016380000000000D5970108E8030000040000003E
:101648000000000000000000000000000000000092
:101658000000000000000000000000000000000082
:10166800000000000000000078700508808A050866
:1016780000000000215904087D0000000600000059
:101688000000000000000000000000000000000052
:101698000000000000000000000000000000000042
:1016A800000000000000000004B20508000000006F
:1016B80000000000B9BB0108E803000003000000B7
:1016C8000000000000000000000000000000000012
:1016D8000000000000000000000000000000000002
:1016E80000000000000000004CD1050800000000C8
:1016F8000000000035000308102700000300000068
:1017080000000000000000000000000000000000D1
:1017180000000000000000000000000000000000C1
:101728000000000000000000F0B6050800000000FE
:101738003592000851FE01085F76000005000000A0
:101748000000000000000000000000000000000091
:101758000000000000000000000000000000000081
:10176800000000000000000048B705080000000065
:1017780000000000111302081027000001000000FB
:101788000000000000000000000000000000000051
:101798000000000000000000000000000000000041
:1017A800000000000000000058D1050800000000FB
:1017B80000000000D9970108E803000005000000B8
:1017C8000000000000000000000000000000000011
:1017D8000000000000000000000000000000000001
:1017E800000000000000000064D1050800000000AF
:1017F80000000000B9510408204E0000030000005A
:1018080000000000000000000000000000000000D0
:1018180000000000000000000000000000000000C0
:10182800000000000000000074D10508000000005E
:1018380000000000A54F0408204E0000030000002F
:101848000000000000000000000000000000000090
:101858000000000000000000000000000000000080
:10186800000000000000000084D10508000000000E
:101878000000000039A30108400D03000300000028
:101888000000000000000000000000000000000050
:101898000000000000000000000000000000000040
:1018A800000000000000000058B305080000000018
:1018B800000000006907040810270000010000006C
:1018C8000000000000000000000000000000000010
:1018D8000000000000000000000000000000000000
:1018E800000000000000000010B205080000000021
:1018F8000000000041350208102700000300000026
:1019080000000000000000000000000000000000CF
:1019180000000000000000000000000000000000BF
:101928000000000000000000906C050800000000A6
:1019380000000000AD960108A86100000100000049
:10194800000000000000000000000000000000008F
:10195800000000000000000000000000000000007F
:10196800000000000000000094D1050800000000FD
:101978000000000025680208A086010001000000A0
:10198800000000000000000000000000000000004F
:10199800000000000000000000000000000000003F
:1019A800000000000000000050B70508000000001B
:1019B80000000000ADC60108A00F000001000000F3
:1019C800000000000000000000000000000000000F
:1019D80000000000000000000000000000000000FF
:1019E8000000000000000000A0D105080000000071
:1019F800000000001958020810270000010000002C
:101A080000000000000000000000000000000000CE
:101A180000000000000000000000000000000000BE
:101A28000000000000000000B87705080000000072
:101A380000000000518502081A4100000100000062
:101A4800000000000000000000000000000000008E
:101A5800000000000000000000000000000000007E
:101A68000000000000000000506C050800000000A5
:101A78000000000011A0030810270000010000006A
:101A8800000000000000000000000000000000004E
:101A9800000000000000000000000000000000003E
:101AA8000000000000000000D4C805080000000085
:101AB8000000000085C100081A4100000100000074
:101AC800000000000000000000000000000000000E
:101AD80000000000000000000000000000000000FE
:101AE8000000000000000000ACD105080000000064
:101AF800000000009DA50308400D03000000000041
:101B080000000000000000000000000000000000CD
:101B180000000000000000000000000000000000BD
:101B28000000000000000000B4D10508000000001B
:101B3800000000006FEE0308400D030000000000E5
:101B4800000000000000000000000000000000008D
:101B5800000000000000000000000000000000007D
:101B68000000000000000000BCD1050800000000D3
:101B7800000000009962020850C300000300000042
:101B8800000000000000000000000000000000004D
:101B9800000000000000000000000000000000003D
:101BA8000000000000000000C8D105080000000087
:101BB80000000000194F040840420F000000000018
:101BC800000000000000000000000000000000000D
:101BD80000000000000000000000000000000000FD
:101BE8000000000000000000D4D10508000000003B
:101BF800000000006D02040850C30000000000004F
:101C080000000000000000000000000000000000CC
:101C180000000000000000000000000000000000BC
:0C1C280000000000000000000000803FF1
:10800000D0E90920131A584258417047034B1A7897
:108010000AB901221A700020704700BF88010020B1
:10802000124B134A1978F1B112490978C1B91249B2
:10803000D160124A12491268596011791972D168D7
:10804000D9601049196151791975116999610E4901
:10805000D9619179D26983F820105A620020704763
:108060000A49D160E5E70A49D160E2E758150020E6
:10807000880100201E650020A00F05082C63002049
:1080800016650020176500201A6500202C100508D1
:108090009C100508034B1A8D034B4FF0FF301A80DC
:1080A000704700BF581500201C650020024B1A883D
:1080B000024B00201A8570471C65002058150020CF
:1080C000064B93F90030012B04D0054B9A8D5A854D
:1080D000002070474FF0FF30704700BFCC0A0020EF
:1080E0005815002008B5064B1A782AB1054A1278AF
:1080F000012A1CBF00221A70FFF792FF002008BD62
:108100001E65002014650020064B93F90020064BE5
:1081100012B91A70002070471A78002AFAD1012289
:10812000F7E700BFCC0A00201A6500200D4B0E4A6D
:1081300093F82E10517293F82F109172198E1180AE
:1081400093F8372083F834209A8F1A87DA8F5A876A
:10815000B3F84420A3F84020B3F84620A3F8422007
:108160000020704758150020546300200D4A0E4B24
:10817000517A83F82E10917A12881A8693F8342057
:1081800083F837201A8F9A875A8FDA87B3F84020FE
:10819000A3F84420B3F8422083F82F10A3F8462018
:1081A000002070475463002058150020084A094BEE
:1081B00092F8842083F84820074A917883F8491080
:1081C000D178127983F84A1083F84B200020704749
:1081D000C02E00205815002060380020104A114899
:1081E00092F84C3092F84E1003F00F0343EA01234B
:1081F00092F850100901C9B20B43A0F86C3092F804
:108200004F1092F84D3092F8512003F00F031201F5
:1082100043EA0123D2B21343A0F86E300020704726
:1082200058150020C02E00200E490F4BB1F86C20CD
:1082300002F00F0083F84C00C2F30310120A83F817
:108240004E20B1F86E2083F8500002F00F0183F841
:108250004D10C2F30311120A83F8511083F84F2016
:1082600000207047C02E002058150020074A084BF8
:1082700092F8521083F86A10B2F85410B2F85620EF
:10828000A3F86610A3F86820002070475815002056
:10829000C02E0020074A084B92F86A1083F852104B
:1082A000B2F86610B2F86820A3F85410A3F856206C
:1082B00000207047C02E00205815002008B5662207
:1082C0000249034847F0F4FA002008BDB015002029
:1082D000C02E002008B566220249034847F0E8FA9C
:1082E000002008BDC02E0020B0150020084A094912
:1082F000B2F8BE304B8292F8C03092F8C12003EB46
:1083000083035B000B82044B00209A70704700BF10
:10831000581500207C8100202C7F0020084A094B42
:10832000518AA3F8BE10128A0A21B2FBF1F283F837
:10833000C020054A927883F8C1200020704700BF12
:108340007C810020581500202C7F002030B100795E
:1083500010F1FF3018BF4FF0FF3070474FF0FF3083
:108360007047114A114B528802F0010283F8C22073
:108370000F4AD17883F8C310117983F8C41051796A
:1083800083F8C510D188A3F8C610117A83F8C810F5
:10839000517A83F8C9101178927A83F8CA1083F859
:1083A000CB200020704700BFEC8100205815002032
:1083B000D0300020034B002083F8CC0083F8CD00A0
:1083C000704700BF581500200A4B0B4A1B68B2F8D3
:1083D000CE105980B2F8D010A3F84C10B2F8D210D9
:1083E0009980B2F8D410B2F8D620D9801A80002033
:1083F000704700BF30670020581500200D4B93F8E0
:10840000D8207A2101FB02320020B2F8DE10A3F856
:10841000CE10B2F82811A3F8D010B2F8E010A3F8EB
:10842000D210B2F8E210B2F8DC20A3F8D410A3F80E
:10843000D620704758150020124B93F8742283F809
:108440006C2293F8752283F86D22B3F87622A3F894
:108450006E22B3F87822A3F870220B4AB3F87A128E
:108460001268A3F86812B3F87C12A3F86A12B3F882
:108470007E12B3F88032A2F86210A2F864300020B5
:10848000704700BF5815002030670020134B93F849
:108490006C2283F8742293F86D2283F87522B3F866
:1084A0006E22B3F86812A3F87622B3F87022A3F80C
:1084B0007822A3F87A1293F8D820B3F86A12A3F8B6
:1084C0007C127A2101FB02320020B2F83E11B2F890
:1084D0004021A3F87E12A3F880227047581500208F
:1084E0000D4BB3F88222A3F85222B3F88422A3F8EA
:1084F0005422B3F88622A3F85622B3F88822A3F8B0
:108500005822B3F88A22A3F85A22B3F88C22A3F88F
:108510005C220020704700BF581500200D4BB3F8B7
:108520005222A3F88222B3F85422A3F88422B3F88B
:108530005622A3F88622B3F85822A3F88822B3F86B
:108540005A22A3F88A22B3F85C22A3F88C220020D6
:10855000704700BF581500201E4B1F4993F88E220C
:1085600030324A7493F8D8207A2101FB023200207D
:1085700092F8231183F88F1292F8F61083F8901274
:1085800092F8F71083F8911292F8F81083F892128B
:10859000B2F81011A3F89412B2F80E11A3F89612C3
:1085A00092F82B1183F8981292F84F1183F89912D0
:1085B00092F8501183F89A1292F84A1183F89B129C
:1085C00092F84B1192F84C2183F89C1283F89D226B
:1085D000704700BF58150020880100200D4A92F80E
:1085E000D8307A2101FB032392F89E1283F84211BE
:1085F00092F89F1283F8461192F8A01283F8431163
:1086000092F8A11292F8A22283F8441183F845212E
:1086100000207047581500200D4B93F8D8207A2180
:1086200001FB0232002092F8421183F89E1292F868
:10863000461183F89F1292F8431183F8A01292F822
:10864000441192F8452183F8A11283F8A2227047C1
:10865000581500200E4B0F4993F88E2230320A75C0
:1086600093F8A32230328A7593F8BE220A491A2061
:1086700000FB021203F5297302F1180152F8040BF2
:1086800043F8040B8A42F9D112881A8000207047FF
:1086900058150020880100206C38002010B50A4AC7
:1086A0000A4892F8BE321A2402F5297104FB03032A
:1086B00002F52F7251F8040B43F8040B9142F9D1E3
:1086C0000A881A80002010BD581500206C38002040
:1086D00010B5124A124992F88E3292F8D80030330F
:1086E0004B7402F1DC017A2300FB031302F2BF2179
:1086F000002002F532721C7A0C705C7A4C709C7A05
:108700008C709C8922F810400130032803F1060385
:1087100001F10301EFD1002010BD00BF581500206A
:10872000880100200749084B0A7883F8D8200132D5
:1087300083F88E224A7883F8BE22013283F8A3227E
:10874000002070472C7F002058150020094B93F81B
:10875000D82283F8D72293F8D92283F8D42293F829
:10876000DA2283F8D522B3F8DC22A3F8D022002045
:10877000704700BF58150020094B93F8D72283F8A3
:10878000D82293F8D42283F8D92293F8D52283F8FB
:10879000DA22B3F8D022A3F8DC220020704700BF11
:1087A000581500200A4930B50A4C002201F2DE209B
:1087B000135DA3F16105052D9CBF203BDBB2835403
:1087C0000132072AF4D1002081F8E50230BD00BF54
:1087D00058150020E4690508084B93F8E622012AA1
:1087E000074A05D893F8E712032918BF03219170AF
:1087F000B3F8E83213800020704700BF58150020FE
:10880000C84A002010B5044623790E2B00D110BDB4
:10881000032B04D1D4F809309868FFF7F3FF0E3426
:10882000F2E70B49D1F8EC329A68134618790E2812
:108830000CD19B1A5A10074B5343013B91F8F52278
:1088400093FBF2F3013381F8F43270470E33EDE716
:1088500058150020B76DDBB6084BD3F8F80210B5F9
:1088600058B1074CA169013191FBF0F200FB1210E5
:1088700003EB8003A061D3F8FC0210BD5815002063
:108880008801002010B44FF4FA7346F203444FF409
:10889000C84196220480818002814380C3805DF8B4
:1088A000044B704730B44FF4987240F29E73104DF1
:1088B000026003834FF4E17203230E4C0E49C0F8AB
:1088C0001A50C2830825962280F82030002380F8B1
:1088D0002150C0F822404161C0F806200371438254
:1088E000C0F80A30C0F80E3080F8263030BC70472F
:1088F0007D0096007800960002010001002301220D
:10890000C27083700380037143718371C3710372FA
:108910004372704700230A220360436083608381AF
:108920000280704703788B4283BF034B03EB410106
:10893000B1F80C030020704758150020044B93F841
:10894000240318B1002283F824230120704700BFBC
:1089500058150020F0B4C24D95F84B6305F54A72E6
:108960000244B41E1444A24200F07881013A013C52
:10897000002341F2210112F8017F83EA07231FB28D
:10898000BBB2002FACBF5B0081EA43039BB21F0464
:1089900054BF5B0081EA43039BB21F0454BF5B00DA
:1089A00081EA43039BB21F0454BF5B0081EA430387
:1089B0009BB21F0454BF5B0081EA43039BB21F04B8
:1089C00054BF5B0081EA43039BB21F0454BF5B00AA
:1089D00081EA43039BB21F0454BF5B0081EA430357
:1089E000A2429BB2C7D10644B21E013E2A442E4485
:1089F00092F8281396F8282302EB012292B29A42A9
:108A000001D0F0BC704795F84C23002A00F021817A
:108A1000431CDBB25C1C2C442B444FF4AF6193F835
:108A2000286394F8283303EB06239BB201FB03F37E
:108A30001B1303F54873012AA5F80C3300F00981D4
:108A4000C31CDBB25C1C2C442B44022A93F8286321
:108A500094F8283303EB06239BB201FB03F34FEAA0
:108A6000233303F54873A5F80E3300F0F280431D5D
:108A7000DBB25C1C2C442B44032A93F8286394F843
:108A8000283303EB06239BB201FB03F34FEA2333A6
:108A900003F54873A5F8103300F0DB80C31DDBB28B
:108AA0005C1C2C442B44042A93F8286394F8283344
:108AB00003EB06239BB201FB03F34FEA233303F5D9
:108AC0004873A5F8123300F0C48000F10903DBB24B
:108AD0005C1C2C442B44052A93F8286394F8283313
:108AE00003EB06239BB201FB03F34FEA233303F5A9
:108AF0004873A5F8143300F0AC8000F10B03DBB22F
:108B00005C1C2C442B44062A93F8286394F82833E1
:108B100003EB06239BB201FB03F34FEA233303F578
:108B20004873A5F8163300F0948000F10D03DBB212
:108B30005C1C2C442B44072A93F8286394F82833B0
:108B400003EB06239BB201FB03F34FEA233303F548
:108B50004873A5F818337CD000F10F03DBB25C1C1E
:108B60002C442B44082A93F8286394F8283303EB09
:108B700006239BB201FB03F34FEA233303F548734B
:108B8000A5F81A3365D000F11103DBB25C1C2C444C
:108B90002B44092A93F8286394F8283303EB06231F
:108BA0009BB201FB03F34FEA233303F54873A5F8A7
:108BB0001C334ED000F11303DBB25C1C2C442B445D
:108BC0000A2A93F8286394F8283303EB06239BB210
:108BD00001FB03F34FEA233303F54873A5F81E3373
:108BE00037D000F11503DBB25C1C2C442B440B2A5C
:108BF00093F8286394F8283303EB06239BB201FB18
:108C000003F34FEA233303F54873A5F8203320D04C
:108C100000F11703DBB25C1C2C442B440C2A93F8A4
:108C2000286394F8283303EB06239BB201FB03F37C
:108C30004FEA233303F54873A5F8223309D000F136
:108C40001903DBB25A1C2A442B4493F8283392F8B8
:108C50002833012385F82433F0BC70470023C2E693
:108C60005815002007299DBF034B03EB8101B1F884
:108C700050030020704700BF581500201A4B93F88E
:108C8000702332B193F874230021A82A83F870135B
:108C900001D00020704793F88723002AF9D110B43F
:108CA000DFED126A03F55D7103F5537003F5617230
:108CB000B4EE047ACC780B7903EB042307EE903AF8
:108CC000F8EEE77AB0EE666AA7EE876A02318A426A
:108CD000FCEEC67A17EE903A40F8043FEAD1012044
:108CE0005DF8044B704700BF581500200080BBC3DF
:108CF000034B03EB4101B1F88C03C008704700BF80
:108D0000581500201F4B93F8B023A2B370B493F80A
:108D1000B143B3F8B25303EB4401002091F8B763B9
:108D200091F8B82383F8B00342EA0622954202D0B4
:108D3000002070BC704793F8B523032A03D0812A22
:108D40001BD0012AF5D10120122C18D9122483F846
:108D5000B1430D4B0021A3F12805DE781A790131CA
:108D600042EA0622CEB2A64225F8022B03F1020304
:108D7000F3D370BC7047002070470320E4E7002C59
:108D8000E7D1D6E7581500200C190020F8B5134D8F
:108D900095F811240AB90120F8BD114B1C6823680D
:108DA0005E6A46B1204605F57F71B047002385F81D
:108DB00011340120F8BD05F57F77BE1800E0236867
:108DC0009B68204698470028F9D0236817F8011BB4
:108DD0001B6820469847B742F1D1E7E758150020B5
:108DE000903A002003788B4210D9094B03EB8101A4
:108DF00093F84434D1F814041BB900F5777080B2AD
:108E00007047400800F5777080B2704700207047C7
:108E100058150020036933F8110000EB8000C010E2
:108E200000F55C7080B27047436993F82320002AF4
:108E300000F0CF802DE9F0477B4ADE7D12780021DB
:108E40001B2A06F0040506F0080483F8231000F03E
:108E5000C280002D40F0CC80002C40F0D980254607
:108E600093F802A093F8068093F801E00269DF7896
:108E700093F8049093F807C00AF0070008F00F0178
:108E80004FEAC1184EEA002107F03F07187A118017
:108E9000997893F805A093F80AE07F0147EAD10793
:108EA000D97857804FEA890949EA9119997B0AF0E4
:108EB000010A01F03F014F0149EA8A219180597965
:108EC00048EA5101D1800CF07F0C997993F8078022
:108ED0004FEA0C1C4CEA111C597AA2F808C0400059
:108EE00040EAD81001F0030140EA412093F80DC098
:108EF000D97A50810EF01F0E587A4FEA8E1E4EEA34
:108F000090009081187B93F80AE00CF0070C40EA7F
:108F10000C20C90093F80DC0108241EA5E11D18186
:108F200047EADC01518293F80FE093F80E80597CF8
:108F3000DF7C93F812C0587D4FEA8E0E4EEA981EE1
:108F400093F8108008F001084EEA882E01F00F0116
:108F500093F81280A2F814E093F810E07F00C901A2
:108F600041EA5E0147EAD81793F814E093F81180BC
:108F7000D1820CF07F0C4FEA0C1C997D0EF0030E91
:108F80004CEA181C47EA4E2716F0010F93F814E03C
:108F9000A2F818C000F01F0093F815C0578340F2E4
:108FA000147314BF1F46AD278001C90016F0020FCD
:108FB00040EA9E0041EA5C1108BFAD239083D18353
:108FC000178453840CBB002D0CBF01200920BDE881
:108FD000F0871046704715491F8C0E8075B147F019
:108FE00002021A8412B274B147F003021A8409E033
:108FF0001A8C94B942F002021A8431E78CB147F01E
:1090000001021A8412B24A802AE70320BDE8F087E1
:109010001A8C42F001021A8422E742F003021A84F9
:109020001EE73AB22546EEE7E56B0020E86B00202C
:109030000A4BDFED0B6ADFED0B7A03EB8101D1F810
:10904000483407EE103AB8EE477AE7EE267AFCEE9F
:10905000E77A17EE903A98B2704700BF5815002093
:1090600001F11F3F00405C44714A92F8883433B1EB
:1090700092F88E340021162B82F8881401D000203B
:10908000704792F88D34022BF0B440F2CE8002F299
:109090008C40184402F28E41D32311F8014F6340F3
:1090A00013F0800F4FEA430318BF83F0D503DBB200
:1090B00013F0800F4FEA430318BF83F0D503DBB2F0
:1090C00013F0800F4FEA430318BF83F0D503DBB2E0
:1090D00013F0800F4FEA430318BF83F0D503DBB2D0
:1090E00013F0800F4FEA430318BF83F0D503DBB2C0
:1090F00013F0800F4FEA430318BF83F0D503DBB2B0
:1091000013F0800F4FEA430318BF83F0D503DBB29F
:1091100013F0800F4FEA430318BF83F0D503884252
:10912000DBB2BAD192F8A514994202D00020F0BC6B
:10913000704792F8940492F8936492F8981492F815
:109140009C3492F8A04492F89054B2F890C4D2F8AB
:10915000907400F00F00C00140EA560001F01F01BA
:1091600092F89764C2F85404890141EA960103F029
:109170003F0392F89B6492F89F04C2F860145B016D
:1091800043EAD60392F88F14C2F86C3404F07F04DB
:10919000B2F89434D2F89464240105F0070544EA47
:1091A000101041EA0521C3F30A13C2F87804B2F89B
:1091B0009854C2F84814B2F89A44D2F89C04B2F811
:1091C0009E14C2F85834D2F8A034C0F38A10C1F308
:1091D0004A01C3F3CA13CCF3CA0CC7F38A37C6F3E8
:1091E000CA366D09C4F30A04C2F87004C2F87414D4
:1091F000C2F84CC4C2F85074C2F85C64C2F864543B
:10920000C2F86844C2F87C3492F8A43492F8A304FB
:10921000B2F8A214DB0043EA5013C1F38A01C2F88A
:109220008434C2F88014012081E7D3237AE700BF99
:10923000581500206A4B2DE9F0411C68E7070546E8
:1092400017D5684B93F8CC2493F8CD1491425CD198
:10925000D3F8D024AA4202D8634A00211170D3F86F
:109260003405281A00283DDD012083F83805BDE8C3
:10927000F08114F400547FD15C4883689847C60796
:1092800038D55B4BC0F3400210F00A0F1A774AD072
:10929000544B2246A6462746A44693F8F014D3F82A
:1092A00004655C18013194F8F48484F8F4E4A2EBCA
:1092B000080293F8084532444E4EC3F8042501F0E5
:1092C0000F011209052C83F8F014327036D04107D3
:1092D00044BF012283F83225002FB9D0424A012130
:1092E0001170C1E793F838050028C0D193F8320512
:1092F000BDE8F08142073B4B44BF012283F8322591
:10930000D3F8D024AA42AAD8A6E7D3F8D404384C7C
:10931000354983F8CD24284401220025C3F8D00420
:1093200025770A70A0E72F4BD3F8D414FF222944E5
:109330000127C3F8D0149646BC46AEE7BCF1000F37
:1093400001D040F2FF3C93F80925D3F82C1503EB2C
:109350004206541CB6F80C25A6F80CC5ACEB02026C
:109360000A4404F00F011409E64683F80915C3F80E
:109370002C25A3F83045AAE71A4BB3F8D82412BB22
:10938000B3F8DA24FAB9B3F8DC24E2B9B3F8DE248E
:10939000CAB9B3F8E024B2B9B3F8E2249AB9B3F881
:1093A000E42482B9B3F8E6246AB9B3F8E82452B9E0
:1093B000B3F8EA243AB9B3F8EC2422B9B3F8EE24AE
:1093C000002A3FF445AFD3F8D424094806492A447B
:1093D0000024C3F8D024012204770A703FE700BFBD
:1093E000EC81002058150020C2300020CC4700201E
:1093F00088010020724A002000207047002070473A
:1094000001207047024B03EB4101B1F83C05704766
:1094100058150020044B93F8600518B1002283F81A
:1094200060250120704700BF58150020024B03EB58
:109430008101B1F8640570475815002003788B420C
:1094400083BF034B03EB4101B1F89C05002070473B
:109450005815002030B40246002305251E2400E0E4
:109460000232032BD4BF0021012100F81310013375
:10947000042B04D0122B5470F2D130BC70475570BD
:10948000EEE7034B036043608360C360704700BF37
:10949000E803D007024B03EB4101B1F8D804704751
:1094A00058150020024B03EB4101B1F8D804704776
:1094B0005815002030B4264C94F8BC35022B02D04D
:1094C000002030BC704794F8C255EDB1013D04F264
:1094D000C15353FA85F504F5B860002210F8013B3A
:1094E000534083EA0313DBB2120AD90042EA032293
:1094F000854281EA131382EA0302EFD122B10020F0
:1095000084F8BC0530BC7047B4F8C0355BBA9BB278
:1095100043F60162934209D043F60362934205D0B9
:10952000002384F8BC35012030BC7047094AA2F101
:10953000260102F12005D0799379023203EB002352
:10954000C3F3CC03AA4221F8023FF4D1E8E700BFFD
:1095500058150020181B002070B505460C468E18C3
:1095600014F8013B697995F9040080222EF0B6FFCA
:1095700008B1A642F4D170BD08B5064B597F41B180
:109580009A7F32B1044B18681DF038FC034BA3F8E6
:10959000E80508BD880100202C6300205815002034
:1095A000F8B51F4F3D68002D36D01E4B1E4E1B7860
:1095B00003B173771D4B1B7803B1B377FFF7DCFF63
:1095C0001B4B1C4C1B78013384F8EA351A4B1B8863
:1095D00033B1154938681DF028FC08B901233370F0
:1095E0002A79164B84F8F025EA68C4F8F425C4F803
:1095F000EC350133C4F8F8356B7984F8FC352B6908
:10960000C4F80036AB7984F80836EB69C4F8046610
:10961000C4F80C360020F8BD4FF0FF30FBE700BF68
:109620002C630020D159002088010020D25900204D
:10963000CC59002058150020CE590020A50100204B
:1096400008B5054B9A7F1AB901229A77002008BD08
:10965000FFF792FFFAE700BF8801002008B5054B2D
:109660005A7F1AB901225A77002008BDFFF784FFFC
:10967000FAE700BF8801002008B5054B1A78054BB2
:109680001978054B18681DF0B9FB044B188008BD0C
:1096900017650020166500202C6300201865002047
:1096A00070B5114E114C3568617FA27F28461DF0C0
:1096B000BAFC2178AB798B4203D32B6828461B690F
:1096C00098470B4D33F098FC617FA27F2378306878
:1096D00029706A70AB701DF091FBA88012F062FADD
:1096E0004FF0FF3070BD00BF2C63002088010020C8
:1096F000F462002008B5084B93F8EA1521B901225D
:1097000083F8EA25002008BD4B1E594259414920E3
:1097100033F0D0FCF6E700BF5815002010B5044B1D
:10972000044C1A88044920460BF06EFB204610BDFD
:109730001C650020681B00205C7F050810B5054BE8
:1097400005499A8D03F2156420460BF05DFB204617
:1097500010BD00BF581500205C7F050870B50F4C88
:109760000F4E104D104904F21A600BF04DFB3346BA
:109770002946002204F222600BF046FB3346002209
:10978000294604F22A600BF03FFB084B9A781B88AD
:1097900084F8E722A4F8E832002070BD58150020B4
:1097A0001DC30508EE6905088CC40508C84A0020D9
:1097B00008B5044B588D40F4004033F0B1FE002052
:1097C00008BD00BF5815002070B5384B86B01A7818
:1097D0008DF80C205A788DF80D2000269A78CDF857
:1097E0000E608DF80E209A88ADF810201A7ACDF808
:1097F000126003AD8DF8142095E807006C4603C491
:1098000022802B4A1278022A1C4632D1294B197821
:10981000294B8DF800101A78284B8DF80120186814
:109820001DF0ECFA264BADF8040093F83236E3B99C
:10983000052033F021FE234B0A221E788DF80260AA
:109840006946284647F030FB58B19DF80030237038
:109850009DF801306370BDF80430A670A38012F04B
:10986000A1F94FF0FF3006B070BD062033F004FEC2
:10987000E1E7154B1B7873B90E4B19780E4B8DF839
:1098800000101A780D4B8DF8012018681DF0B6FAFB
:10989000ADF80400CFE7304633F0EEFD0B4B8DF80A
:1098A00000601B88ADF80430C5E700BFF4620020FB
:1098B0001465002016650020176500202C63002029
:1098C000581500201A6500201E6500201C65002028
:1098D00008B50C4B93F90030012B0B4B04D100223F
:1098E00083F83226002008BD93F8320618B9012209
:1098F00083F83226F6E7012818BF022033F0BCFDBA
:10990000F0E700BFCC0A00205815002070B5124CBB
:10991000124B94F900401A78012C05460E4605D1E9
:10992000012A01D001221A70002070BD012A03D142
:10993000002033F0A1FDF7E7022AF3D1084B002401
:1099400083F83246FFF7C4FF064B314628461C70A9
:10995000FEF7C8FBE8E700BFCC0A00201465002032
:10996000581500201E65002008B5074B93F900200C
:10997000064B12B91A70002008BD1A780AB90122E4
:10998000F8E7FFF779FEF6E7CC0A0020166500201D
:1099900008B5074B93F90020064B12B91A70002046
:1099A00008BD1A780AB90122F8E7FFF765FEF6E765
:1099B000CC0A00201765002010B50B4C0B4B94F817
:1099C000480083F88400032801D81BF07DFE084B73
:1099D00094F849209A7094F84A20DA7094F84B2051
:1099E0001A71002010BD00BF58150020C02E0020A5
:1099F0006038002008B5064B93F8CD0028B1054B20
:109A000001385978C0B23BF061F9002008BD00BFB1
:109A1000581500202C7F002008B5064B93F8CC0089
:109A200028B1054B01381978C0B222F0E3FF0020BD
:109A300008BD00BF581500202C7F002038B51E4DF2
:109A400095F8D8407A2303FB045495F88F3284F8B4
:109A500023311A4B186822F0E9FF95F8903284F808
:109A6000F63095F8913284F8F73095F8923284F810
:109A7000F830B5F89432A4F81031B5F89632A4F85D
:109A80000E3195F8983284F82B3195F8993284F894
:109A90004F3195F89A3284F8503195F89B3284F81A
:109AA0004A3195F89C3284F84B3195F89D3284F810
:109AB0004C31002038BD00BF581500203067002011
:109AC00038B50D4B0D4A18680021034602F109050F
:109AD00014781C7254785C7294789C7235F811403A
:109AE0009C810131032902F1030203F10603EFD146
:109AF00022F09CFF002038BD30670020171800209E
:109B000008B5054B93F8A3020138C0B283F8BE0232
:109B10003BF004F9002008BD5815002008B5054B9E
:109B200093F88E020138C0B283F8D80010F0E6FB3B
:109B3000002008BD5815002010B5054C94F8D80039
:109B400010F0DCFB94F8BE023BF0E8F8002010BDFA
:109B5000581500202DE9F0411E4600238B5507467D
:109B600008460C46904644F013FF751E301A211823
:109B7000254440426A1A002AA5EB040312DA234462
:109B800020211A1B002A11DA0023A355094B93F850
:109B90003316891B234642463846C9B2BDE8F04118
:109BA00017F07CB92B5C05F80139E3E703F80119DC
:109BB000E7E700BF5815002070B41B4A92F9F44241
:109BC00092F8F552214491FBF4F304FB1311D2F8FF
:109BD000EC4282F8F012CBB2A1686B430E2404FB76
:109BE0000313C2F8343602F2376419460E790E2E8A
:109BF00012D1002182F848161E790E2ECCB201F146
:109C000001010ED1AC42234628BF2B46013B82F80E
:109C1000483670BC17F066B94E7B04F8016F0E3100
:109C2000E4E70E33E8E700BF5815002038B5164BBF
:109C3000D3F8EC22526805461C46BAB994F8490696
:109C400098B10138C0B284F8490604EBC00000F2B4
:109C50004C6003C80D4B83E80300FEF7E2FD284685
:109C600094F9F012FFF7A8FF002038BD93F9F10234
:109C7000D3F83436C0EBC00003EB40009047002817
:109C8000DCDA4FF0FF30F0E75815002044180020D0
:109C900038B505460C4641B31D4BD3F8EC228A4239
:109CA00025D093F84926082A1FD8511C83F8491655
:109CB00003F53B7103C903EBC20202F24C6282E876
:109CC00003000022C3F8EC4283F8F122236833B189
:109CD0009847013003D12846BDE83840A6E7FEF793
:109CE000A0FD00212846FFF767FF002038BD93F94B
:109CF000F11293F8F52291FBF2F402FB141283F8AF
:109D0000F122FEF78EFD21462846FFF755FFECE7CE
:109D100058150020F0B5184E002383B004460821E2
:109D2000D6F8A00686F89C3602AD12F0BBFCD6F839
:109D3000A006812112F0B6FC8923D6F8A06625F88A
:109D4000023DE71D14F8010B3246294634F03CFF72
:109D5000BC42F7D1BDF806301A0A52FA83F3C3F1B8
:109D6000FF039BB23246D8B20021ADF8063034F082
:109D70002BFF03B0F0BD00BF581500200FB400B595
:109D800083B004AB054953F8042B0193002009F07C
:109D9000B5FC03B05DF804EB04B070473BCB0008A2
:109DA00055482DE9F0414422544F0021044647F024
:109DB000A3F8534B97F8A426DFF868E197F8AF862D
:109DC0009EF8031084F82C1003F5D36C012A08BF09
:109DD0009C460CF110060FCE04F10C050FC597F848
:109DE00050329EF80200BCF86010326884F82A8075
:109DF000012B04BF97F8B73684F82A300E28218546
:109E00002A6016D80123834013F4E85F4DD094F8FC
:109E10002830042B66D05A1F042A4BD839493A4AB5
:109E2000063BC4E90112032B64D8DFE803F059575D
:109E30005561002094F82830032BE8D1334A324B87
:109E4000C4E901230720324A3249136881F821000E
:109E500043F002034FF48071136021846368264845
:109E60009847238C07EE903AF8EEE77AF7EE006A0F
:109E700086EEA77AB7F8B8364FF47A72226384ED8B
:109E8000007A7BB1244D05F16C06B7F8B836216B2A
:109E900000EE103A2846B8EE400A24350DF02AFDAF
:109EA000AE42F2D10120BDE8F08113F0810FC1D1A3
:109EB0005B0405D594F82830082B07D00B2B05D070
:109EC0000028F0D00128B4D10020ECE7134A0E4B53
:109ED0000E20C4E90123B6E70B20B4E70A20B2E75D
:109EE0000920B0E70E4A084B0820C4E90123AAE77D
:109EF0000C20A8E70820A6E78C27001058150020A2
:109F00001C000010A1430308758303089143030854
:109F10002867002088010020141C002099430308B2
:109F2000A9430308B04A00202DE9F843784C94F87F
:109F30002F2794F830379A4200F0888094F82F2722
:109F400094F82F37C2EBC20204EB8202C3EBC303C7
:109F500004EB830392F8531793F838678B1E9E42E5
:109F60002FD06C4AB4F88C371278D4F834170133F8
:109F70009BB21C2AA4F88C376CD0002594F82F379C
:109F8000654A0133A2FB0302520802EB42029B1A0C
:109F9000DBB284F82F3700293DD012F095F9D4F8C0
:109FA0009837C01AB0F5FA7F04DB002345F00405AA
:109FB00084F89637D4F89037002B34D12846BDE882
:109FC000F88394F82F3704F5E767C3EBC30307EB77
:109FD000830361B11944002213F8015B2A449942BA
:109FE00092B2F9D1D3B203EB1222FF2A3AD0494AF6
:109FF000B4F88C371278D4F8341701339BB21C2A8A
:10A00000A4F88C37B9D1454BB4F88C275A80042278
:10A010009A800025B2E794F89637002BBDD1D4F88A
:10A020009037002BCAD03E4A1268D31AB3F5FA7F94
:10A03000C4D994F80835032B04BF0023A4F83035A5
:10A040000023C4F890372846BDE8F883D4F83417C5
:10A050000025A0E7314BB4F88C275A8003229A8060
:10A0600000258BE794F82F3701221C2101FB0323E5
:10A07000FA18FD5C6DB3012D16D1082E3FD0254A8C
:10A08000B4F88C371278D4F8341701339BB21C2AF9
:10A09000A4F88C377FF471AF204BB4F88C275A802A
:10A0A00006229A80002569E71A4AB4F88C3712789C
:10A0B000D4F8341701339BB21C2AA4F88C377FF4F0
:10A0C0005CAF164BB4F88C275A8005229A80002585
:10A0D00054E7192ED4F8341724D00E4AB4F88C372C
:10A0E000127801339BB21C2AA4F88C377FF446AF58
:10A0F0000A4BB4F88C275A8006229A803EE794F8DF
:10A100009437002B40F0EB801D46D4F8341735E728
:10A1100058150020E56B0020ABAAAAAAE86B002026
:10A12000006E002092F802C05578036992F803800F
:10A1300092F804909679D77992F808E00CF0070C21
:10A1400045EA0C2508F03F0892F80AC01D80957872
:10A150004FEA481848EAD508957BA3F8028092F8A0
:10A1600003804FEA890040EA981092F8058008F0D1
:10A17000010840EA8820988006F00F06507992F88E
:10A180000780F60146EA5000567AD8804FEA4E0E14
:10A190004EEAD81E06F0030692F80680D07A07F041
:10A1A0007F074EEA462E3F01567BA3F80AE047EAB6
:10A1B00018171F8106F00707967A92F809E0C00089
:10A1C00040EA5610167B0CF01F0C46EA072605F0F5
:10A1D0003F05577BD8816D014FEA8C1C45EAD700BB
:10A1E0004CEA9E0CA3F80CC01E825882D07B92F8D9
:10A1F0000EE0D77C92F8128092F811C0967C557DC3
:10A20000800040EA9E1092F810E07F000EF0010EF0
:10A2100047EAD8170CF00F0C92F8108040EA8E2015
:10A220004FEACC1C92F814E098824CEA580C907DCE
:10A23000A3F816C006F07F0692F811C00EF0030EC8
:10A2400047EA4E27360146EA1C165F8392F814C08F
:10A25000577D1E8305F01F05AD01C00045EA9C0532
:10A2600040EA5710D8839D83D57D40F2147015F0D5
:10A27000010F14BF0646AD2615F0020F08BFAD2032
:10A280001E8458842B075FD415F0040F0CBF0125E2
:10A29000092594F80835032B1CD1137E94F8090581
:10A2A0002E4ED4F82C25C3EB8323A6FB036304EBCB
:10A2B00040065B09B6F80C75A6F80C35DB1B134499
:10A2C000013000F00F02180984F80925C4F82C3574
:10A2D000A4F83005224B1B68C4F890374EE653783B
:10A2E000102B15D020D8DBB994F89537D4F8341753
:10A2F000002B7FF442AE94F89737012B26D919B181
:10A300000A78303A012A21D9002584F8975735E692
:10A3100094F895370BB984F89557012384F896374C
:10A32000D4F83417002529E6303B012BF8D852F831
:10A33000010F0C49C4F828079379908888808B71A5
:10A34000C4F83417002519E60325A2E701330122DA
:10A3500084F8973784F8962700250FE61F85EB5180
:10A36000006E0020801C002010B5044611F0ACFFE8
:10A37000544B002283F89C2793F89C26012A19D974
:10A38000D3F8A02740F6AC51821A8A4212DD4E491A
:10A39000B3F88C270978013292B21C29A3F88C27D4
:10A3A00005D14A4AB3F88C175180012191800022CF
:10A3B00083F89C26E2B27E2A29D093F89C1629B312
:10A3C00093F89C161B295CD893F8AC17002972D01F
:10A3D000002182F0200283F8AC1793F89C16022922
:10A3E00003D1012A08BF83F8A42793F8301793F804
:10A3F0009C4693F89C06C1EBC10103EB810121440B
:10A400000130C0B281F8372783F89C0610BD93F85D
:10A410009C26012A2FD993F830272D4993F82F47EE
:10A420000132A1FB02C1490801EB4101521AD2B22B
:10A4300094420CD093F89C4693F8301783F8302759
:10A44000C1EBC10103EB8101621E81F8532793F830
:10A45000A4273AB10121002283F89C1783F8A4278E
:10A46000C3F89807184A12781C2A1ED00022C3F895
:10A47000A80783F8AC27012283F89C26C3F8A0071D
:10A4800010BD002283F89C260F49B3F88C27097869
:10A49000013292B21C29A3F88C27B7D10B4AB3F82A
:10A4A0008C3753800223938010BDD3F8A827074927
:10A4B000821A0A80DAE77D2A8FD1012283F8AC273D
:10A4C00010BD00BF58150020E56B0020E86B002090
:10A4D000ABAAAAAA70B55C4C064611F0F5FED4F8FA
:10A4E000B037C4F8B007C01AB0F5FA5F1AD9002324
:10A4F00084F8B43784F8B537A12E2FD0A22E00F0FF
:10A500009C8094F8B52794F84B330025A2B16A1CBF
:10A510006119D5B2F6B29D4281F8286384F8B45728
:10A520000CD070BD94F8B457002DE5D094F8B52741
:10A5300094F84B33002AEAD19D42F2D194F8B63711
:10A54000052B72D0062B03D194F829331E2B0DD086
:10A55000002384F8B53784F8B43770BD01221B237B
:10A5600084F8B52784F84B330025D0E76A1E002A0B
:10A570004FF0000150DD08460B462344013093F8AC
:10A580002833DBB283EA0105ED074FEA530348BFE6
:10A5900083F08C0383EA5105EE074FEA530348BF6B
:10A5A00083F08C0383EA9105ED074FEA530344BF20
:10A5B00083F08C03DBB283EAD105EE074FEA530345
:10A5C00044BF83F08C03DBB283EA1115ED074FEA39
:10A5D000530344BF83F08C03DBB283EA5115EE07CB
:10A5E0004FEA530344BF83F08C03DBB283EA911537
:10A5F000ED074FEA530344BF83F08C03DBB283EAD9
:10A60000D1155908EB0748BF81F08C01C0B248BF93
:10A61000C9B282420346B0DC224492F828338B420E
:10A6200096D10320FEF796F992E70020FEF792F903
:10A6300094F829331E2B8BD198E70122232384F829
:10A64000B52784F84B338FE75815002010B5044622
:10A6500011F03AFE0F4BD3F8B827C3F8B807801AA9
:10A6600041F288329042E4B205D983F87443012262
:10A6700083F8BC2710BD93F8BC279918142A81F8D9
:10A68000744303D1012283F8702310BD0132D2B28A
:10A69000EEE700BF5815002038B5044611F014FE4F
:10A6A000444AD2F8C037C31AB3F57A6F16D892F875
:10A6B000C437C2F8C007B3B1022B1FD0442B92F8A5
:10A6C000B11375D901330231DBB249008B4282F8F4
:10A6D000C4371BDB01318B4263D038BD0023C2F885
:10A6E000C00782F8C437A82CF7D1002382F8B03312
:10A6F000A2F8B23392F8B113204603E0E0B282F838
:10A70000B1030146D51885F8B403DBE7B2F8B233DC
:10A71000E4B283EA042424B2002CB8BF41F2210140
:10A72000A3B2B4BF81EA43035B009BB21C0446BFE3
:10A7300041F2210181EA43035B009BB2180446BF4A
:10A7400041F2210181EA43035B009BB2190446BF39
:10A7500041F2210181EA43035B009BB21D0446BF25
:10A7600041F2210181EA43035B009BB21C0446BF16
:10A7700041F2210181EA43035B009BB2180446BF0A
:10A7800041F2210181EA43035B009BB2190446BFF9
:10A7900041F2210181EA43035B009BB2A2F8B2338C
:10A7A00038BD0021012382F8C41782F8B03338BDC8
:10A7B000E0B2A7E7581500202DE9F04111F084FD23
:10A7C000BF4C054694F8C50780B9042294F81134AB
:10A7D00053B1D4F8E8373BB1ED1AB5F57A7F03DB16
:10A7E00000231046C4F8E837BDE8F08194F8C61796
:10A7F000002284F8C527002900F06C8194F8C8373E
:10A800005BB213F1630FC0F21E81AE4F84F8D827FC
:10A8100094F8D927002A41D013F1310F80F2C98171
:10A8200013F1380F80F2CA8113F13D0F80F2CB8112
:10A8300013F1420F80F2CC8113F1450F80F2CD81EC
:10A8400013F1470F80F2CE8113F1490F80F2CF81CF
:10A8500013F14A0F00F0D08113F14B0F00F0D081BB
:10A8600013F14C0F00F0D18113F14D0F00F0D181A5
:10A8700013F15C0FB8BF642680F2F580D4F8DC07D2
:10A88000DFF84CC200FB06F08CFB00C6C017C0EB23
:10A89000661004EB820680B2C6F8140487F82530EF
:10A8A00094F8D47794F8D53794F8D60794F8D76706
:10A8B0001B0443EA0763334343EA002303F0F02019
:10A8C000B0F1E02F00F0F380102794F8EC0794F833
:10A8D000CA37D4F8F06794F8F4C73678034103F028
:10A8E0000F039E4210D90B2B0ED8002A40F0338163
:10A8F00094F8CA8794F8CBE704EB83030CEA0808C2
:10A900000EEB082EC3F814E494F8CC37034103F09F
:10A910000F039E4210D90B2B0ED8002A40F01F8146
:10A9200094F8CC8794F8CDE704EB83030CEA08088D
:10A930000EEB082EC3F814E494F8CE37034103F06D
:10A940000F039E4210D90B2B0ED8002A40F00B812A
:10A9500094F8CE8794F8CFE704EB83030CEA080859
:10A960000EEB082EC3F814E494F8D037034103F03B
:10A970000F039E4210D90B2B0ED8002A40F0F7800F
:10A9800094F8D08794F8D1E704EB83030CEA080825
:10A990000EEB082EC3F814E494F8D237034103F009
:10A9A0000F039E4210D90B2B0ED80AB19A420BD03E
:10A9B00094F8D28794F8D3E704EB83030CEA0808F1
:10A9C0000EEB082EC3F814E40D2F32DD94F8D437C3
:10A9D000034103F00F039E4210D90B2B0ED80AB18E
:10A9E0009A420BD094F8D48794F8D5E704EB83030C
:10A9F0000CEA08080EEB082EC3F814E4102F18D147
:10AA000094F8D63743FA00F000F00F00864210D9D0
:10AA10000B280ED80AB190420BD094F8D62794F8A0
:10AA2000D73704EB800002EA0C0C03EB0C23C0F8D0
:10AA30001434C9B394F8CA371B0635D4C4F8E857A0
:10AA400005220120C2E694F8D8370133DBB2042B8B
:10AA500084F8D8376CD994F8D9271A4F6FF05B0374
:10AA6000002A3FF41BAF6FF05B0C4FF00C0E164842
:10AA70000EF1FF3600EB460600EB4E0096F94481DE
:10AA800096F845E190F84501A0EB0E06A3EB08000F
:10AA9000ACEB080C00FB06F090FBFCF0704440B2FD
:10AAA00000286BDA0026E9E6052201208EE694F8FC
:10AAB000CA0700063FF508AF04480C27036004E707
:10AAC0005815002088010020A00F0508040B002065
:10AAD0001F85EB5111F0F8FB5049514B91F826209E
:10AAE000A3FB00035B0C3AB394F8C80794F8C9279A
:10AAF000D2B2122A18BF012A09D002F0EF02A2F145
:10AB0000A202B2FA82F252090AB981F82620D4F8D8
:10AB1000E01794F8D927B9B18B422CD0591A0129E2
:10AB200031D094F8C617A4F8E407C4F8E037B7E6C4
:10AB30003A4F97F925306BE694F8C82794F8C9077F
:10AB400000EB022080B2E2E7A4F8E407C4F8E037A3
:10AB500094F8C617A4E693427FF4CAAED4E69342B3
:10AB60007FF4DEAEE8E693427FF4F2AEFCE6934279
:10AB70007FF406AF10E794F8C61791E66428A8BFE3
:10AB8000642006467AE6002ACBD0B4F8E467D4F80D
:10AB9000DC17244F861B143E01FB06F187FB017670
:10ABA000C917A1EBE60104EB820689B2C6F81414BA
:10ABB000B7E76FF0300C4FF0010E58E76FF0370C2D
:10ABC0004FF0020E53E76FF03C0C4FF0030E4EE7D0
:10ABD0006FF0410C4FF0040E49E76FF0440C4FF05A
:10ABE000050E44E76FF0460C4FF0060E3FE76FF09E
:10ABF000480C4FF0070E3AE79C464FF0080E36E738
:10AC00006FF04A0C4FF0090E31E79C464FF00A0EE8
:10AC10002DE79C464FF00B0E29E700BF880100206E
:10AC200083DE1B436766666610B5044611F04CFB75
:10AC3000124BD3F8F827C3F8F807801A41F288328C
:10AC4000904209D9E4B2012283F8C84783F8FC276F
:10AC5000002283F8C52710BD93F8FC270F2AFAD8E5
:10AC600099180132D2B2E4B2102A81F8C84783F8A9
:10AC7000FC27EDD1012283F8C52710BD581500200F
:10AC800038B50C46054611F01FFBE36940F6AC529F
:10AC9000C31A934205DD002384F822300F2D19D00A
:10ACA00038BD94F82220002AF8D0182AF8D8511C70
:10ACB000C9B2192984F82210A55410D10A4A127871
:10ACC0001B2A08BF094A4FF0010184F8231008BF6E
:10ACD000938038BD0123E061257084F82230002381
:10ACE00084F8233038BD00BFE56B0020E86B0020FE
:10ACF00038B5044611F0E8FA2E4BD3F80028821A32
:10AD0000B2F5FA7F14D90022C3F8000883F80428AA
:10AD100083F80528E1B2042924D0202922D093F811
:10AD200008280AB9552C35D0A24216D1002209E0D4
:10AD300093F8052892B993F80428C3F80008E1B203
:10AD4000002AE8D093F806089C180138824284F85B
:10AD500010181BD0013283F8042838BD013A83F85B
:10AD6000052838BD002202244FF6FF7083F80C48F6
:10AD7000A3F80A089C18481E824283F8081883F832
:10AD8000061883F8072884F81018E3D1012283F805
:10AD9000302838BD01201F2583F80848A3F80A2869
:10ADA00083F8101883F8070883F80C0883F806580E
:10ADB000D0E700BF5815002038B5394C054611F0D2
:10ADC00083FAD4F84038C4F84008C01AB0F57A7F46
:10ADD0001CDD0023282284F8443884F8BC3584F82C
:10ADE000463884F845283D2D42D03E2D0DD12D4AC0
:10ADF000C4F84828012384F8BC350123157084F871
:10AE0000443894F845289A4220D038BD94F8442814
:10AE1000002AE8D0531CDBB2D4F8481884F8443830
:10AE2000062B8D54EDD194F8BC35012B27D094F826
:10AE30004638012B27D00023282284F8443884F890
:10AE4000BC3584F8463884F8452838BD94F8BC35BC
:10AE5000012B04BF022384F8BC3594F84638012B3B
:10AE600015D00022282384F8442884F8453838BDBA
:10AE70000D4AC4F84828012384F84638BDE78B788A
:10AE8000282BD4D8F1E78B78092BD4D8EDE702230F
:10AE900084F8463811F018FAC4F84C08E1E700BF0E
:10AEA00058150020181B00208C1D002038B51A4CA6
:10AEB00011F00AFAD4F89837C31AB3F5FA6FC4BF81
:10AEC000002384F89C3794F89C37054623B9002367
:10AED000C4F83437012038BD00221049D4F83407B3
:10AEE00033F028F994F89C377BB90D4B1B781C2B59
:10AEF00004D1D4F850380B4AEB1AD3800023C4F89D
:10AF00005058C4F83437012038BD0748FEF702FF17
:10AF1000002384F89C37E8E758150020F41C002033
:10AF2000E56B0020E86B0020001105082DE9F04FCB
:10AF3000DE4C94F830388BB023B9002318460BB0A0
:10AF4000BDE8F08F94F8073894F806080022012B2A
:10AF500084F8302845D094F81058023D15F0FF05CC
:10AF600000F09F8104F501610D444FF6FF7311F865
:10AF7000012B9B1AA9429BB2F9D11A0A204490F8DE
:10AF80000F189142D9D190F80E28DBB29A42D4D151
:10AF900094F80838202B40F07D8194F80C188B1C15
:10AFA00009938B1D019301F10803029301F10A0338
:10AFB000039301F10C03049301F10E03059301F1D6
:10AFC0001003069301F11603079301F1180301F131
:10AFD000040A01F1120801F11407089301F11A0B98
:10AFE000AFE094F80C18B4F80AE88B1C671854FA10
:10AFF00083F6099301F1040A97F8103897F811C8FD
:10B0000096F8105896F8117854FA8AF673448A1D07
:10B0100096F811E801921D4496F8103854FA82F619
:10B0200005EB0C2501F1080296F811C802922B4499
:10B0300096F8105854FA82F603EB072301F10A023E
:10B0400054FA82F72B4496F81058039203EB0E2320
:10B0500001F10C0297F811E896F8116804921D446A
:10B0600097F8103854FA82F705EB0C2501F10E021F
:10B0700054FA82FC1D4497F81038059205EB06251A
:10B0800001F110029CF8106897F811789CF811C82B
:10B0900006922B4454FA82F503EB0E2301F11208B9
:10B0A00095F811E8334495F8106854FA88F503EBE5
:10B0B000072301F1140795F81198334495F81068A7
:10B0C00054FA87F501F1160203EB0C23334495F88B
:10B0D00010C8079254FA82F603EB0E2301F118020E
:10B0E00095F811580892634496F810E896F811C83C
:10B0F00003EB092354FA82F6734401F11A0B96F814
:10B1000010E896F8116803EB052354FA8BF52044F8
:10B11000734495F810E890F80F9895F8115890F846
:10B120000E0803EB0C239E440EEB062E0EEB052EB1
:10B1300000EB09291FFA8EFE1FFA89F9F1457FF409
:10B14000FCAE099B54FA83F2019B54FA83FC029BE8
:10B150009CF811989CF810C854FA83F30193039B50
:10B1600054FA83F6049B54FA83F5059B54FA83F052
:10B17000069B54FA83F3029354FA88F30393079BD4
:10B1800092F8118892F8102854FA83F32144059319
:10B19000089B54FA8AFE54FA87F791F811A891F89F
:10B1A0001018049754FA83F39EF8117806939EF8CA
:10B1B00010E8019B01EB0A2102EB08220EEB072E9F
:10B1C00093F8118893F81078C4F8641596F811383C
:10B1D00001930CEB0921C4F8701595F811C896F885
:10B1E000106895F81058019BC4F8682506EB0326F3
:10B1F000049B029AC4F86CE593F811E893F81038B0
:10B2000092F8119892F81018039A019603EB0E2306
:10B21000C4F88C35059B90F811A8019E90F8100891
:10B22000C4F8786507EB082701EB092192F811882B
:10B2300092F8102893F81168C4F8841554FA8BFB1F
:10B2400093F81018069BC4F8747505EB0C2500EBF9
:10B250000A2002EB0822C4F87C55C4F8800593F854
:10B2600011589BF81108C4F8882593F810289BF80A
:10B27000103801EB062103EB0023C4F89015C4F845
:10B280009835012302EB05221846C4F894250BB02B
:10B29000BDE8F08F064832F075FC002384F80508FD
:10B2A0004CE6FF224FF6FF7368E600BF58150020FA
:10B2B000681D0020F8B511F007F8274E054600F18B
:10B2C000FA07344696F8743806EB8303D3F854082B
:10B2D00015F0AAFC38BB94F8743804EB8303D3F858
:10B2E000540815F0A1FC28B310F0EEFFD4F87C3818
:10B2F000401B9842C4F878082BD805F5FA7594F8E5
:10B30000743804EB8303D3F8540815F08DFCB0B9FE
:10B3100094F8743804EB8303D3F8540815F084FCD4
:10B3200090B1002005E010F0CFFFB842CAD94FF02D
:10B33000FF30F8BD10F0C8FFB842CCD9F7E710F0E5
:10B34000C3FFA842DBD9F2E710F0BEFFA842DFD965
:10B35000EDE70120EDE700BF5815002038B50024C7
:10B3600005460470FFF7A6FF431C11D0012803D146
:10B370002B78A040184328700134082CF2D1054ADC
:10B380002B7892F880184B4082F88038012038BD25
:10B390000020FCE75815002090F84B3830B53BB939
:10B3A00090F8491890F84A380124DAB2914200D84E
:10B3B00030BDB0F8525804FA03F22A43A0F85228DC
:10B3C0000133F2E710B50446012100791BF03EFE7F
:10B3D000627920689108838902228A4023EA020365
:10B3E000838110BD10B50446222100791BF02EFE8A
:10B3F00063792268990802238B409BB2D94389B2B2
:10B40000118291890B43938110BD73B590F85B381D
:10B41000032B05460C462AD100231E4E8DF807301B
:10B420009DF8073095F85C289A4201D802B070BDAB
:10B430009DF8073006EBC3031B797BB184F0010351
:10B4400073B19DF8073056F8330014F0B9FC9DF83D
:10B4500007300133DBB28DF80730E1E72346EFE731
:10B460009DF8073056F8330014F0A4FCEFE7036CA6
:10B47000C06BDB79DB0748BF81F0010424B102B067
:10B48000BDE8704014F09CBC02B0BDE8704014F000
:10B4900091BC00BF1C4A00202DE9F04F6F4B85B0D6
:10B4A0001B780390002B7CD06D4A1378924603F0F2
:10B4B000FF0E002B75D16B4EDFF8B081B6F88838DF
:10B4C00002934FF03C09B6F88A3896F8841896F83B
:10B4D000857896F8862801934C4698F8023098F8BB
:10B4E0000350C3F1FF039BB2002B00F0B380C3F104
:10B4F000FF036B43B8F800C0BCFBF9FB1B12BBF1A8
:10B50000050F0DD8DFE80BF0035062728494DAB2B5
:10B51000EB1A0CFB03F3B3FBF4F71744FFB2294615
:10B52000039B012B0BBF3B020B0243EA014343EA9F
:10B53000074313430025C5F1170C012000FA0CFC4A
:10B5400001981CEA030F8446029814BFE346834621
:10B5500005EB0E0C44480135182D40F82CB0EAD10B
:10B560000EF1180EBEF5407F08F10408B5D1012395
:10B570008AF80030D6F88C3886F8862840F22A32CD
:10B580005A60D6F8902886F88418002151621188F4
:10B5900086F8857841F0010111801A6842F00102B5
:10B5A0001A6005B0BDE8F08FBCFBF4F104FB11CCD0
:10B5B0001FFA8CFCDAB2CCF13C0CEB1A03FB0CF159
:10B5C000B1FBF4F11144C9B22F46A9E7BCFBF4F278
:10B5D00004FB12CCD9B21FFA8CFCEB1A0CFB03F261
:10B5E000B2FBF4F20A44D2B22F4699E7BCFBF4F264
:10B5F00004FB12CC1FFA8CFCD9B2CCF13C0CEB1A38
:10B6000003FB0CF3B3FBF4F70F44FFB22A4687E7C2
:10B61000BCFBF4F204FB12CCDFB21FFA8CFCEB1A79
:10B620000CFB03F3B3FBF4F13944C9B22A4677E7C4
:10B63000BCFBF4F204FB12CC1FFA8CFCDFB2CCF1A1
:10B640003C0CEB1A03FB0CF2B2FBF4F23A44D2B21C
:10B65000294665E72A462F46294661E7973A0020A2
:10B66000983A002058150020C43A002040300020AD
:10B67000044A0023016842F823100133202BF9D13A
:10B68000704700BF403000202DE9F0417E4E96F813
:10B69000008094B0B8F1000F40F08C817B4B1F7894
:10B6A000002F00F0878138460FF0B4FE784C036815
:10B6B000C4F89038C3680546002B00F07B813846FB
:10B6C00014F060F9C4F8940818B12923837180F844
:10B6D00007802A7A6F4F2A2114F01CFAD4F89008B8
:10B6E0000FF016FE3EF092FAD4F890086A490388EB
:10B6F0006A4A23F001031B041B0C8842038011D00B
:10B70000DFF89CC1136860450CD00CF5804C604597
:10B7100008D00CF5806C604504D00CF5806C604559
:10B7200040F09A801368BB4240F29C8088420FD060
:10B730005B4FB8420CD007F58047B84208D007F5F8
:10B740008067B84204D007F58067B84240F0878030
:10B7500003F1B77303F55853524FB3FBF7F3013BB3
:10B760009BB288420ED04E4FB8420BD007F58047AF
:10B77000B84207D007F58067B84203D007F5806765
:10B78000B84272D117685A1C4FF0030CB7FBF2F79E
:10B79000454AB7FBF2F7BAB2B2FBFCF24FEA420CF1
:10B7A000A4F88AC8DFF8F8C0A4F8882802886045A1
:10B7B00092B210D088420ED0B0F1804F0BD0ACF5D1
:10B7C0007C4C604507D00CF5806C604503D00CF5CF
:10B7D000806C604502D122F0700292B2DFF8CCC0DA
:10B7E000604506D00CF5806C60451CBF22F44072A9
:10B7F00092B20280C7620385294B984201D08842E9
:10B8000001D1002303860023CDE902330122828285
:10B810000493ADF80430EB7960210091990727D5A6
:10B82000DB00042203F00803ADF80420ADF80E306D
:10B830000023029369796A460FF05CF86979D4F8BD
:10B8400090380C293CD8DFE801F0333B3B3BB83B58
:10B850003B3BC13B3B3BCA00B7EB530F04D21368E1
:10B860005B0875E700237CE7002317687F088AE7F9
:10B870005B00ADF8022003F002034FF48072ADF8D4
:10B880001020ADF80C30D3E7973A00206C47002029
:10B8900058150020FF6BDC02000401403C800020B2
:10B8A00000000140006CDC0200350C00001000407C
:10B8B0001A8B22F008021204120C42F008021A83BA
:10B8C000B3F8442042F40042A3F844201A8842F01E
:10B8D00080021A80EA7997074CBF0422012202FAFB
:10B8E00001F11A8C89B222EA01021A841A8C1143DE
:10B8F00019841A8842F001021A8029210022287D29
:10B900002CF06EF860223A49287D00232BF0D0FFFE
:10B91000E868C4F88C0830F045FDD4F88C0803685A
:10B9200023F00103036030F03DFD05A830F0FEFC7C
:10B93000D4F890386A79343313440693002740F2E0
:10B940002A33CDE909374FF480630B932B690593B4
:10B95000284B0793402308934FF480514FF48043C2
:10B96000CDE90C134FF440304FF4807305A9CDE9B5
:10B970000E30D4F88C0830F0EAFC6B79D4F89028BB
:10B980000C2B9CBF1C4931F81330918988BF3B4672
:10B990000B439381D4F88C28136843F01003136091
:10B9A00005A800230593FFF763FE0120FFF774FD50
:10B9B0000123337014B0BDE8F0811A8B22F40062C9
:10B9C0001204120C42F400621A8379E79A8B22F077
:10B9D00008021204120C42F008029A8370E79A8B54
:10B9E00022F400621204120C42F400629A8367E7A8
:10B9F000B5470308C43A00204863050810B5194C40
:10BA000094F8C23033B3184A136843F48033136098
:10BA1000FFF73AFE154B01221A7094F8C320144B1D
:10BA2000022A98BFDA7094F8C4201A7194F8C520DD
:10BA30005A71B4F8C620DA8094F8C8201A7294F8C3
:10BA4000C9205A7294F8CA201A7094F8CB209A72BE
:10BA5000002010BD19F0C8FE4FF4803007F058FCEC
:10BA6000DBE700BF58150020EC810020963A00204B
:10BA7000D030002001EB81010D4B70B5A1F1A10583
:10BA80001D449C3B06465C1815F8013F717996F9F8
:10BA9000040040222CF022FDA542F5D1717996F9DF
:10BAA000040000234022BDE870402CF017BD00BF09
:10BAB0000711050838B505464C1E14F8011F01B9D9
:10BAC00038BD2846FFF7D6FFF7E707B501EB41037E
:10BAD00001EB4101C1F3C301503A10315B008DF815
:10BAE000042003F00E038DF80610032201A98DF83F
:10BAF0000530FDF731FD03B05DF804FB0A46002177
:10BB0000E3E738B5042209490546FDF725FD4FF462
:10BB10008064013C00234022697995F90400A4B2B5
:10BB20002CF0DCFC002CF4D138BD00BFAA130508B2
:10BB300038B541790446AE23802290F904002CF0F8
:10BB4000CDFC054688B1162209492046FDF704FDC3
:10BB5000042208492046FDF7FFFC2046FFF7D1FFED
:10BB6000032205492046FDF7F7FC284638BD00BFF3
:10BB7000AE130508C4130508C8130508F8B5584CDA
:10BB800094F90020002A5FD0564B197801B91A7039
:10BB9000998D11B9E18801B199855349088810B987
:10BBA000A08800B10880022AE17805D111F00802CE
:10BBB00018BF012283F832264C4B4D4A1B784D4D5D
:10BBC000D35C85F827304C4B4C4E1B783068002BEB
:10BBD0003FD194F90130082293FBF2F201320028A0
:10BBE00033D04769BA5C85F8292080B35A4202F005
:10BBF000070203F0070358BF53420133026952F8AA
:10BC000023301B7885F82A3001F00A030A2B3C4FB9
:10BC100026D1E2883B49384609F0F6F8202385F81A
:10BC20003030E3789A073AD513F0040F0CBF4F2356
:10BC3000492385F832305223502285F833300023CF
:10BC400085F8312085F83430F8BD3F22CBE72E4B04
:10BC5000D7E7552385F82930462385F82A30D3E7DE
:10BC6000C90705D5A2882749384609F0CDF8D5E798
:10BC700094F9011030684B4203F0070301F007020A
:10BC800058BF5A420132082391FBF3F101311BF0F6
:10BC9000B5F81C490246384609F0B6F8BEE794F9F3
:10BCA000002094F90230022A07D0272B11DC182B30
:10BCB00011DC0F2BD4BF0023012332686AB101339A
:10BCC000D26952F8232011491148BDE8F84009F023
:10BCD0009BB80323F1E70223EFE70B4AF3E700BF2A
:10BCE000CC0A0020581500201C6500201465002097
:10BCF000F669050888010020156500202C630020E6
:10BD0000B40100205C7F0508F469050875C40508C6
:10BD1000B90100203C4A117870B53C4C002949D14A
:10BD2000D4F8F83213B9C4F89C3870BD384B986910
:10BD30000028B8BF99619B6904EB8303D3F8FC32F8
:10BD4000C4F89C38002BF0D001231370314BC4F899
:10BD5000EC324FF400500023A4F8F03284F8493656
:10BD600034F02EFED4F89C0815F0AEF8D4F89C08F8
:10BD7000437A027A112B4FF0010136D884F8A018CB
:10BD8000022184F8A118002184F8A218510884F82F
:10BD9000333684F8F512017B31B1002184F8A21802
:10BDA00084F8333684F8F522D4F8EC12BDE87040FC
:10BDB000FDF76EBFFCF750FDD4F89C58854206464F
:10BDC000B3D094F8F12294F8F01294F8F53201FB14
:10BDD000032384F8F1322B6828465B689847EB7B95
:10BDE000C4F89C68013BEB73BCE784F8A1180221FE
:10BDF00084F8A218991E002584F83316911E84F841
:10BE0000A05884F8F512C6E7BF4700205815002057
:10BE100088010020D0010020F8B5BE4BD3F8EC22F9
:10BE200006460D461C460AB9FA2005E0062904D14B
:10BE3000FFF770FF4FF4FA70F8BD05290ED193F8A3
:10BE4000A3282AB1002283F8A3284FF4FA70F3E75D
:10BE50003046FDF7EBFE4FF4FA70EDE7072908D105
:10BE60000022AD4983F8A328FDF712FF4FF4FA70C2
:10BE7000E2E7022945D193F8A3785FB993F9F1324B
:10BE800094F84826934233DA013384F8F1326B1E7A
:10BE9000012B03D894F8A338002BC5D094F9F132C4
