:020000040800F2
:10000000F0FF0010B5330508B9990208B54F010893
:10001000553405085534050855340508000000001E
:10002000000000000000000000000000C599020868
:10003000C199020800000000BD99020829270108A3
:100040005534050855340508553405085534050858
:10005000553405085534050891690108BD6A010841
:10006000816A0108456A0108096A0108B1FC0008B3
:10007000A1FC000891FC000881FC00086DFC000850
:1000800059FC000845FC000855340508553405089E
:10009000553405085534050855340508CD6901085F
:1000A00055340508F114010855340508B115010847
:1000B0003114010871130108A51201087502010825
:1000C0007D02010869020108710201085534050822
:1000D00055340508D92901083D290108A12801083E
:1000E000556901085534050869E70208351001080B
:1000F0000511010855340508D511010831FC000827
:100100005534050855340508553405085534050897
:10011000052801086927010801B9030891B70308F8
:100120001DFC000809FC0008F5FB0008E1FB0008C5
:10013000CDFB00085534050855340508553405082D
:1001400055340508553405085534050881B40208AE
:10015000B9FB0008A5FB000891FB00085534050811
:100160005D0201086502010855340508553405088B
:100170005534050855340508553405085534050827
:0801800055340508553405084B
:080188005C2F050001000000DE
:100190001002010038200020342000200000000060
:1001A000300700081F0210004C2000203C200020D7
:1001B00000000000858400081A023C009C3F0020DB
:1001C00068420020000000006D8D00082700040038
:1001D000983F0020A44200200000000032070008E1
:1001E0000702020098440020E044002000000000C4
:1001F00038070008F6210C007C430020E44400206E
:10020000000000003C07000802000C00284300200A
:10021000F0440020000000000000000006020C0076
:1002200068440020FC44002000000000FD8D000810
:1002300008120F00E84300200845002000000000DD
:1002400015840008F7010600E0430020184500204F
:1002500000000000480700082C001000305100206A
:100260002051002000000000DFF901082B002400CD
:10027000645100204051002000000000B1F9010845
:10028000292078002850002088510020000000001C
:100290000000000020320A000C5200200052002012
:1002A0000000000035DF01081C021000F44B0020A4
:1002B0001852002000000000B18300082810100030
:1002C000484F00202852002000000000ADDF010848
:1002D00001200800F04700203852002000000000F4
:1002E0004E0700080A7028006C470020405200208A
:1002F0000000000055DF01080EA06E01FC45002043
:100300006852002000000000B5E703080101040066
:1003100060450020D85300200000000000000000CD
:100320000001040058450020DC53002000000000BC
:10033000560700080201030054450020E053002046
:1003400000000000A1780108140003009C6D00204B
:10035000106E0020000000005C0700080B30180041
:10036000AC5D0020146E0020000000006007000853
:100370001F302400C45D00202C6E0020000000000F
:10038000780700080502040030690020506E002044
:10039000000000009C07000803010A00045E002022
:1003A000546E002000000000A007000813020400A3
:1003B000145C0020606E002000000000AA07000806
:1003C00009020100849A0020FC9A0020000000002D
:1003D000AE0700082202140154980020009B002060
:1003E00000000000A58F00080C109C008C880020E5
:1003F000149C00200000000075780108010205002F
:1004000070880020B09C00200000000059F2020813
:100410000002050068880020B89C00200000000051
:10042000000000001B02080044880020C09C00203F
:1004300000000000D98300081E000600B0850020DF
:10044000C89C002000000000B00700081B100C0032
:10045000B4800020D09C002000000000F5050308B7
:100460002102F000347F0020DC9C0020000000000E
:10047000F9F3020805100600048B0020CC9D002033
:1004800000000000B607000837102400E0870020B5
:10049000D49D002000000000BC0700080E020200EE
:1004A000EC8A0020F89D002000000000E007000812
:1004B00016100600287F0020FC9D00200000000090
:1004C000E20700082F102200D89A0020049E002086
:1004D00000000000E807000823100E00048500203B
:1004E000289E002000000000C5DF0108F5518800AB
:1004F000647E0020389E002000000000453F030875
:1005000026100C00CC9E0020C09E002000000000A1
:10051000B9E702080A020A008CA40020D4A6002031
:1005200000000000E16C030803000100B49F0020FC
:10053000E0A60020000000000000000003123300CD
:10054000A0A60020E4A60020000000000A08000881
:1005500025102C01C0A4002018A7002000000000D6
:100560000000000010100200FC9E002044A80020A3
:10057000000000003E0800081A000E00E8AE00204F
:1005800014AF00200000000040080008190005001A
:100590002CAE002024AF0020000000004E08000810
:1005A000F82106009CAC00202CAF002000000000C9
:1005B0005408000815007000A0AA002034AF0020E5
:1005C00000000000000000002A00600088AE00204B
:1005D000A4AF0020000000008DE703080D004400D8
:1005E000D4E2002090E3002000000000F17901082F
:1005F000040080005CD90020D4E30020000000004B
:10060000000000001300040048D9002054E400203A
:10061000000000005C080008FD01240024D900202F
:1006200058E40020000000000906010818202E00F0
:10063000F0D800207CE40020000000000D8F0008AE
:1006400006101A004CC70020ACE400200000000097
:1006500015E80308FB01010048C70020C8E400209A
:1006600000000000798F0008FC01090014C600207A
:10067000CCE4002000000000898F00083400100046
:1006800040C50020D8E4002000000000E9E703088E
:100690001102080018C50020E8E400200000000056
:1006A000600800081212040010C50020F0E40020C9
:1006B00000000000680800081220100000C500209B
:1006C000F4E40020000000006C080008F9010400B8
:1006D00014B9002004E50020000000008106010894
:1006E000FA010200FCB2002008E500200000000032
:1006F000B18500080202030060B000200CE5002074
:1007000000000000000000000C0204004CB00020BB
:1007100010E50020000000006D840008FE011400B8
:10072000C0B2002014E5002000000000E5830008AE
:100730000000200300000000013C00000000000059
:1007400001000000020200003D0100000000E8037B
:100750006400040A00019001000000000300000092
:10076000AE014A015E012C0164010100000001009C
:100770000A019A01001E0A000000000000010000AA
:10078000000500000102030000000000000000005E
:1007900000000000000000000080070000000000D2
:1007A000040101006C1600000000000001001300AD
:1007B00000000100000020000101000020003200C4
:1007C000C800D0079600140032002800B00440068C
:1007D0000005500014000F00080064000100010033
:1007E0000000C40900001900000000000000000023
:1007F00000000000000000000000000000000000F9
:1008000000000000000000000000000000000000E8
:1008100000000000000000000000000000000000D8
:1008200000000000000000000000000000000000C8
:1008300000000000000000000000000001000005B2
:100840007E05EA05B4053200E803D0070000000089
:10085000280100000401F4011400000008004030E9
:100860000000000001010101FFFFFFFF0000000187
:0C087000000005444C4634000008000065
:10087C001A0300000000000000000000000000004F
:10088C000000000000000000000000000403090448
:10089C0012010002000000408304205700020102F4
:1008AC000301000089D400080D85000809850008A3
:1008BC0005850008ED8F000801850008FD840008FF
:1008CC00904E0508599B0208857D020899A60208DE
:1008DC0000000000000000009DA30208B9A202085D
:1008EC00000000000000000000000000BD780208BD
:1008FC00A58500089985000891950008AD9500081C
:10090C005185000875950008599500080068214C20
:10091C001F0000001C0000001F0000001E00000053
:10092C001F0000001E0000001F0000001F00000040
:10093C001E0000001F0000001E0000001F00000031
:10094C00FF01FF0000000000000000000102030492
:10095C000607080901000000A00F0000B80B0000FA
:10096C000102FFFF0100000000000000D044002045
:10097C000800000000000000C04400200800000037
:10098C00DD7E0208C97D020835A9020800000000BE
:10099C0045790208EDA40208197D020865A4020835
:1009AC0000000000000000000179020895780208A0
:1009BC0089780208699A0208859A02084D9A0208F9
:1009CC00319A0208159A0208957E0208A57D020844
:1009DC0075A80208000000001979020869A4020831
:1009EC00ED7C0208C5A30208000000000000000016
:1009FC000D7902082CC8050838C8050844C8050834
:100A0C0050C805085CC8050868C805082CD7050837
:100A1C00F0FC0508F8FB0508BCC705080C24060803
:100A2C00A0B8050820C8050824C8050828C805086A
:100A3C0074C8050878C805087CC8050868FA050854
:100A4C0080C805081900C800F4012003010000004B
:100A5C00E5D6010800000000B86A050820700020E7
:100A6C00702D7200FFFFFFFFD60101010100000095
:100A7C0000010101002D202D2D202D2D2D2D202D9F
:100A8C002D2D000000000000000000000000000000
:100A9C00000000000000000000000000AC7F050812
:100AAC000000000000000000388005080100000074
:100ABC00FA0000000100000001000000010100002C
:100ACC00C247002000C80100C147002000500100AF
:100ADC00C0470020005A0100BE4700200200000061
:100AEC00346F050804C905080CC905087AE3002011
:100AFC000100C4090000000078E300200100C409D3
:100B0C000000000076E300200100C4090000000092
:100B1C0074E300200100C4090000000070E3002011
:100B2C000100C4090000000072E300200100C409A8
:100B3C00000000006EE300200100C409000000006A
:100B4C006CE300200100C409000000007645002081
:100B5C000100C8000100000074450020320030750F
:100B6C003200000072450020055A05006F45002038
:100B7C0000FF01007145002001000000FC03002073
:100B8C006D450020020000000C8705086E45002012
:100B9C0000FF01007045002001000000FC03002054
:100BAC006C450020020000000C870508FC47002063
:100BBC00EE02CA0801000000FA47002000C801003C
:100BCC0064000000F947002000C801006400000028
:100BDC00F847002002000000406F05086645002021
:100BEC0080C1803E050000006445002080C1803E2D
:100BFC00050000005E45002080C1803E050000001D
:100C0C005C45002080C1803E050000005745002057
:100C1C0000FF0100504500206400F40101000000B9
:100C2C004F450020040000004C6F05084E45002085
:100C3C0002000000606F0508EB4500200D0000006D
:100C4C006C6F0508E845002000640100E6450020B3
:100C5C00320010270A000000E54500200D000000BE
:100C6C006C6F0508E44500200D0000006C6F050852
:100C7C00E345002002000000A46F050800000000FE
:100C8C0000000000B06F0508E86800209CFF2C01F4
:100C9C0000000000324B0020E0150C170000000093
:100CAC00344B002002000000E86F050808480020C3
:100CBC000100FF7F01000000074800200200000037
:100CCC00F46F0508ED4500200300000004700508D2
:100CDC00EC4500200300000004700508A04700202C
:100CEC000000E803010000009E4700200000E8031C
:100CFC00010000009C4700200000E80301000000F8
:100D0C009A4700200000E8030100000098470020EB
:100D1C000000E80301000000964700200000E803F3
:100D2C0001000000954700200014010094470020AA
:100D3C000300000014700508AC4700200000F4010B
:100D4C0001000000AA4700200000F401010000008F
:100D5C00A84700200000F40101000000A647002075
:100D6C000000F40101000000A44700200000803EB8
:100D7C0001000000A24700200000803E010000009E
:100D8C00D547002019640100D44700200200000060
:100D9C0024700508D2470020E803D0070A000000A1
:100DAC00D0470020006401000A000000C547002065
:100DBC0000640100C447002000640100CC470020FF
:100DCC00006401000A000000CB4700200064010011
:100DDC000A000000CA470020006401000A0000005D
:100DEC00CF470020006401000A000000CE4700201D
:100DFC00006401000A000000CD47002000640100DF
:100E0C000A000000C947002001FF01000A00000091
:100E1C00C847002001FF01000A000000C74700205E
:100E2C0001FF01000A000000F64500200000F4015B
:100E3C0001000000F44500200000F4010100000056
:100E4C00F24500200000F40101000000F0450020F4
:100E5C000000F40101000000EE4500200000F40148
:100E6C0001000000BD47002000640100BC470020C9
:100E7C0000640100BB47002000640100BA47002059
:100E8C00FF080100B947002001640100C5DC01081E
:100E9C0089DC010830700508B847002000640100A7
:100EAC00B64700201400E80301000000B4470020FE
:100EBC00E80330750A000000B247002000C80100AA
:100ECC00B147002000C80100B047002000C8010055
:100EDC00AF470020006401000A000000EC4700202E
:100EEC000000D00701000000E747002000C8010007
:100EFC00E647002000C80100E547002000C80100BB
:100F0C00EA4700200000D00701000000E447002061
:100F1C0000C80100E347002000C80100E2470020A0
:100F2C0000C80100E84700200000D00701000000C5
:100F3C00E147002000C80100E047002000C8010084
:100F4C00DF47002000C8010000000000F9D90108AB
:100F5C00A0700508E1450020310000003C71050837
:100F6C00E045002000C80100DE450020E803D00762
:100F7C000100000044414C5243463430350000001F
:100F8C006B450020000301006A45002000030100AE
:100F9C0059D9010831D9010804720508EDD80108A6
:100FAC00A1D801085872050881D9010839FE010839
:100FBC00D8720508684500200103010025DE0108F0
:100FCC00F9DD0108CC75050831D80108F1D7010805
:100FDC00307605080FDA0108C10B0208CC7605083B
:100FEC003DFA01080000000074770508A101020811
:100FFC0085DE01081078050861DA010800000000A0
:10100C009078050839DB0108E5DA0108F478050861
:10101C00C9DB01088DDB01089079050801DD0108A9
:10102C0049DD0108107A0508C347002001060100BC
:10103C00A9DA010875DA01080C7B050805DC010842
:10104C009DFE01087C7B05087DDD010821FF010860
:10105C005C7C0508AE47002001030100C9D90108DA
:10106C0099D90108307D050851DE01080000000007
:10107C00947D050871D8010809FE0108F87D050862
:10108C000000000000000000847E0508D1DD01088E
:10109C0099FF0108047F05084A45002088136F1743
:1010AC00010000004C45002088136F170000000061
:1010BC00625E00200000000000000000605E002066
:1010CC0000000000000000005E5E00200000000038
:1010DC00000000005C5E002000000000000000002A
:1010EC005A5E00200000000000000000585E002046
:1010FC000000000000000000CC0C002000000000EC
:10110C000000000020450020020000008C80050833
:10111C004845002088136F17010000002869002043
:10112C0088136F170000000085D70108000000002D
:10113C0098800508664B002001000000EC80050833
:10114C002A69002001000000F880050820690020B1
:10115C0002000000008105080000000000000000F3
:10116C000C81050871D7010800000000A881050852
:10117C000000000000000000FC81050800000000D9
:10118C00000000006C82050824690020E0150C1793
:10119C00000000000403090412010002EF020140E8
:1011AC008304563200020102030100001201000206
:1011BC0002020040830440570002010203010000B8
:1011CC0009022000010104C03209040000020806D3
:1011DC005005070581024000000705010240000090
:1011EC0009026400030100C032090400000103007D
:1011FC0000000921110100012226000705830308C4
:10120C00000A080B0102020201000904010001029C
:10121C00020100052400100105240100020424022F
:10122C00020524060102070582030800FF090402D7
:10123C0000020A00000007050102400000070581BA
:10124C000240000009024300020100C03209040000
:10125C000001020201000524001001052401000117
:10126C00042402020524060001070582030800FF7E
:10127C0009040100020A00000007050102400000F9
:10128C000705810240000000FF00000048830508AC
:10129C000000000000000000000000000000000042
:1012AC000000000000000000000000000000000032
:1012BC000000000000FFFF0000000000AA5505011F
:1012CC00000001001C830508000000000000000065
:1012DC000000000000000000000000000000000002
:1012EC00000000000000000000000000FF1FFF1FB6
:1012FC0005010905A101A1000501093009310932D7
:10130C00093309350934094009381581257F7508D9
:10131C0095088102C0C0000009022200010100E012
:10132C00320904000001030102000921110100012E
:10133C002226000705830308000A000000000000B5
:10134C00010203040102030406070809FDA50208B3
:10135C0001A5020859A9020881790208F97E020840
:10136C0091790208AD790208597902084979020885
:10137C0000000000000000002D202D2D202D2D2D13
:10138C002D202D2D2D2D0000000000000000000050
:10139C0000000000000000AA550B010000AA550730
:1013AC00010000AA550902000000AA5503009F0085
:1013BC0001000000C0120000E46D002000000000DD
:1013CC00086E002000000000010000000000010079
:1013DC00E0010000FFFFFFFF0801FFFFFF0000001E
:1013EC000000803F00000000000000000000000032
:1013FC000000803FFFFFFFFFFF000000FFFFFFFF2B
:10140C000000803F00000000000000000000000011
:10141C000000803F00000000000000000000000001
:10142C0000000000000000000000000000000000B0
:10143C0000000000000000000000803F00000000E1
:10144C00000000000000000001000000000004018A
:10145C00000000000000000210000000070008005F
:10146C0085780208817802087D7802087178020874
:10147C006D7802087978020875780208397A0108C3
:10148C00000000000000000000000000010000004F
:10149C0000600240106002400000000000000000EC
:1014AC00000B000000000000000000000000000025
:1014BC0000600240286002400100000000000000B3
:1014CC00060C0000000000000000000000000000FE
:1014DC00006002404060024002000000000000007A
:1014EC00100D0000000000000000000000000000D3
:1014FC000060024058600240030000000000000041
:10150C00160E0000000000000000000000000000AB
:10151C000060024070600240040000000000000007
:10152C00200F000000000000000000000000000080
:10153C0000600240886002400500000000000000CE
:10154C002610000000000000000000000000000059
:10155C0000600240A0600240060000000000000095
:10156C00301100000000000000000000000000002E
:10157C0000600240B860024007000000000000005C
:10158C00362F0000000000000000000000000000EA
:10159C0000640240106402400000000000000000E3
:1015AC0000380000000000000000000000000000F7
:1015BC0000640240286402400100000000000000AA
:1015CC0006390000000000000000000000000000D0
:1015DC000064024040640240020000000000000071
:1015EC00103A0000000000000000000000000000A5
:1015FC000064024058640240030000000000000038
:10160C00163B00000000000000000000000000007D
:10161C0000640240706402400400000000000000FE
:10162C00203C000000000000000000000000000052
:10163C0000640240886402400500000000000000C5
:10164C002644000000000000000000000000000024
:10165C0000640240A064024006000000000000008C
:10166C0030450000000000000000000000000000F9
:10167C0000640240B8640240070000000000000053
:10168C0036460000000000000000000000000000D2
:10169C00D8E6050894DF050800000000B5780108BD
:1016AC00A086010004000000000000000000000003
:1016BC00000000000000000000000000000000001E
:1016CC00000000000000000000000000000000000E
:1016DC00D8E60508E0E6050800000000A5040108AE
:1016EC00E8030000040000000000000000000000FF
:1016FC0000000000000000000000000000000000DE
:10170C0000000000000000000000000000000000CD
:10171C0018CF0508E8E6050800000000D179030899
:10172C007D0000000600000000000000000000002A
:10173C00000000000000000000000000000000009D
:10174C00000000000000000000000000000000008D
:10175C00F0E60508000000000000000031610108FF
:10176C00E80300000300000000000000000000007F
:10177C00000000000000000000000000000000005D
:10178C00000000000000000000000000000000004D
:10179C00F4E605080000000000000000DD5D040810
:1017AC0010270000030000000000000000000000F3
:1017BC00000000000000000000000000000000001D
:1017CC00000000000000000000000000000000000D
:1017DC005422060800000000E1F701081950010826
:1017EC005F76000005000000000000000000000013
:1017FC0000000000000000000000000000000000DD
:10180C0000000000000000000000000000000000CC
:10181C00AC2206080000000000000000ED7001087A
:10182C001027000001000000000000000000000074
:10183C00000000000000000000000000000000009C
:10184C00000000000000000000000000000000008C
:10185C0000E705080000000000000000A9040108D2
:10186C00E80300000500000000000000000000007C
:10187C00000000000000000000000000000000005C
:10188C00000000000000000000000000000000004C
:10189C000CE70508000000000000000009810108A9
:1018AC00204E0000030000000000000000000000BB
:1018BC00000000000000000000000000000000001C
:1018CC00000000000000000000000000000000000C
:1018DC001CE7050800000000000000000D7F010857
:1018EC00204E00000300000000000000000000007B
:1018FC0000000000000000000000000000000000DC
:10190C0000000000000000000000000000000000CB
:10191C002CE705080000000000000000C16501086C
:10192C00400D030003000000000000000000000058
:10193C00000000000000000000000000000000009B
:10194C00000000000000000000000000000000008B
:10195C0074C605080000000000000000855E010848
:10196C001027000001000000000000000000000033
:10197C00000000000000000000000000000000005B
:10198C00000000000000000000000000000000004B
:10199C00DCDC0508000000000000000061110308F9
:1019AC0010270000030000000000000000000000F1
:1019BC00000000000000000000000000000000001B
:1019CC00000000000000000000000000000000000B
:1019DC003CE705080000000000000000C15D0208A3
:1019EC00A0860100010000000000000000000000C3
:1019FC0000000000000000000000000000000000DB
:101A0C0000000000000000000000000000000000CA
:101A1C004CCB050800000000000000007D0301080D
:101A2C00A8610000010000000000000000000000A0
:101A3C00000000000000000000000000000000009A
:101A4C00000000000000000000000000000000008A
:101A5C0044E70508000000000000000041500308A6
:101A6C00A086010001000000000000000000000042
:101A7C00000000000000000000000000000000005A
:101A8C00000000000000000000000000000000004A
:101A9C009CC605080000000000000000292B01086E
:101AAC00A00F00000100000000000000000000007A
:101ABC00000000000000000000000000000000001A
:101ACC00000000000000000000000000000000000A
:101ADC0050E7050800000000000000003540030836
:101AEC0010270000010000000000000000000000B2
:101AFC0000000000000000000000000000000000DA
:101B0C0000000000000000000000000000000000C9
:101B1C002CD6050800000000000000004D3403081E
:101B2C001A4100000100000000000000000000004D
:101B3C000000000000000000000000000000000099
:101B4C000000000000000000000000000000000089
:101B5C000CCB05080000000000000000B181020859
:101B6C001027000001000000000000000000000031
:101B7C000000000000000000000000000000000059
:101B8C000000000000000000000000000000000049
:101B9C00A0DF050800000000000000004913020847
:101BAC001A410000010000000000000000000000CD
:101BBC000000000000000000000000000000000019
:101BCC000000000000000000000000000000000009
:101BDC005CE705080000000000000000CD8702084B
:101BEC00400D030000000000000000000000000099
:101BFC0000000000000000000000000000000000D9
:101C0C0000000000000000000000000000000000C8
:101C1C0064E705080000000000000000390301081B
:101C2C00400D030000000000000000000000000058
:101C3C000000000000000000000000000000000098
:101C4C000000000000000000000000000000000088
:101C5C006CE705080000000000000000B54A03080E
:101C6C0050C3000003000000000000000000000052
:101C7C000000000000000000000000000000000058
:101C8C000000000000000000000000000000000048
:101C9C0078E705080000000000000000817E0108C4
:101CAC0040420F0000000000000000000000000097
:101CBC000000000000000000000000000000000018
:101CCC000000000000000000000000000000000008
:101CDC0084E70508000000000000000019690108F5
:101CEC0050C30000000000000000000000000000D5
:101CFC0000000000000000000000000000000000D8
:101D0C0000000000000000000000000000000000C7
:101D1C000000803FFFFF0000482206080000080278
:101D2C000503030050220608010008020504030005
:101D3C00A8E605080200FE010110030060CC0508AE
:101D4C0003001402000300005822060804001F02BE
:101D5C00010008006022060805001F0201010800AE
:041D6C00FFFFFFFF77
:1080000003685A1C02601970704700BF2DE9F047E1
:10801000089C2578002B804689460CBF4FF0200A2B
:108020004FF0300A661C25B3002A26DD334601E0F6
:10803000024698B113F8011B501E0029F8D1971E73
:1080400060B13D46013D51464046C8476B1C002B80
:10805000F8DC257827EAE770013045B1041B294692
:108060004046C847301916F8015B002DF7D1BDE82E
:10807000F087002A03DC2846F9E70020EEE7571EC8
:10808000DFE700BF2DE9F04714461D4606464FF4D2
:108090007A720023204629464AF0C0FF4D4BDFF894
:1080A00048814D4A4D4F034488FB03101844D917AB
:1080B00082FB032CC1EB601088FB002887FB0327A1
:1080C0009C44474AC1EBEC2CC0EB001E82FB0C2900
:1080D000A3EB8E0E1F44434A86F806E0C1EB274708
:1080E0004FEAEC7E08EB000ACEEBA90E82FB07827A
:1080F0004FEAE0780EEB4E0EC8EB6A18ACEBCE0CF4
:10810000C8EB0818DFF8E4E086F804C0A0EB8800AC
:1081100070718EFB0303F817C0EBE21240F2B5500A
:1081200000FB1272C1EBE353B2F5896F4FEA83078C
:108130003CDA40F2DA239A4242DCB2F5B77FB4BFB0
:108140004FF0000E4FF0010E4FEA4E09DFF8A0800D
:1081500009EB0E0308EBC3031FFA8EFCD88A09EB68
:108160000E0108EBC10116310B2301E031F8020DBD
:10817000904218DD013BF9D1CE44012338F83E008E
:10818000B37007F5FA670132121ABC44F270A6F810
:1081900000C0204629464FF47A7200234AF03EFF81
:1081A0003281BDE8F0870133DBB2E9E74FF0030C21
:1081B000E64640F29650DFF838804FF00609CEE7E9
:1081C0004FF0020CDFF82880E64640F229404FF0DD
:1081D0000409C4E780BC92C7C5B3A29107452EC26B
:1081E000ABAAAA2A73B06D1689888888792D0311E5
:1081F000484C05080028F0B403DA2D230B704042E8
:108200000131092804464FF0010307DD03EB830326
:108210005B00B0FBF3F2092AF8D883B10F48A0FB4A
:108220000326B4FBF3F2092A02F1570C02F13007DE
:1082300009DD03FB1244F30801F801CBEFD1002361
:108240000B70F0BC704703FB1244F30801F8017B8C
:10825000E5D100230B70F0BC704700BFCDCCCCCC77
:10826000884270B44FF0010442D301FB04F4B0FB28
:10827000F4F58D42F9D2ECB142BB092D04FB150097
:1082800005F1570605F130020EDDB4FBF1F403F8F9
:10829000016B7CB1B0FBF4F5092D04FB150005F171
:1082A000570605F13002F0DCB4FBF1F403F8012BC2
:1082B000002CEFD100221A7070BC704703F8016BDC
:1082C000B4FBF1F4002CF5D0B0FBF4F5092D04FB60
:1082D000150005F1370605F13002EFDCB4FBF1F4CF
:1082E00003F8012B002CEFD100221A7070BC7047EC
:1082F0000546002AEAD1C0E790ED057A90ED004AE4
:10830000D0ED066AD0ED014AD0ED047A90ED035A23
:10831000D0ED025AA4EE007AB0EE406AB0EE470A01
:10832000B0EE667AA4EE867A67EEC07AA5EE407A61
:10833000E5EE867A80ED057AC0ED067A704700BFDB
:10834000D0ED057A90ED013AD0ED003AD0ED064A35
:1083500090ED024A90ED077A90ED035A90ED086A8D
:10836000D0ED045AC0ED067AF0EE406A27EE830A9B
:10837000C0ED056AA3EEA60A80ED087AA4EE240AF1
:10838000A5EE470AA5EEC60A80ED070A704700BFB2
:10839000D0ED007A90ED017A30EE670AE7EE007AD0
:1083A000B0EE670AC0ED007A704700BF704700BFAB
:1083B00030B400230221012214253424C5708471B5
:1083C0000370C3728373C3734170C1714172827051
:1083D0000272827230BC704706224FF47A730270C8
:1083E0004360704730B43223312210254FF47F446C
:1083F000FF214370427101230022C5700482817401
:10840000037203700371837042818281C28130BC28
:10841000704700BF144BFF22F0B54FF0FF34C2701D
:108420000271027242724273827303F10C0EA4460F
:10843000172716262325002202EB820281189E456B
:1084400085544E708F7081F803C00C710AD093F977
:108450000620DD791E7A5F7A93F90AC093F90B4002
:108460000633E9E7F0BD00BFA84C050810B41F2192
:10847000012403220023047041708270C3705DF8F0
:10848000044B704770B4034600F11001FF221A70CC
:108490005A7002338B42FAD10E4B00224FF0FF315B
:1084A00003F10C0600EB42050C469E4200F8124018
:1084B00069700CD093F9044093F9051013F8032F59
:1084C00000EB42059E4200F812406970F2D170BC88
:1084D000704700BFBC4C050830B41D6995420AD3F3
:1084E00014460A4621448D42996938BF2A1B21440B
:1084F00030BC4BF031B830BC704700BF0020704733
:108500000120704701207047002070474FF4007031
:10851000024B10609B680B600020704718B9002068
:10852000013A30B4D2B28C1C04EB42040025020F95
:10853000092AD3B203F130028ABF37330A700B70B5
:108540004D7002318C424FEA0010F0D130BC7047C0
:108550000B4A0C4B10681B681A22C0180A8001D104
:108560000948704710B5094B09491C680822FFF7F4
:10857000D7FF204604220749FFF7D2FF024810BD6B
:10858000E8F7FF1FECF7FF1F88010020EAF7FF1F45
:108590008A0100209A01002004230B8000487047C4
:1085A000A401002012230B8000487047A80100207E
:1085B0002C22022302704370704700BF08307047BE
:1085C000704700BF816170474378007840EA03201C
:1085D00010FB01F04FF4807190FBF1F000F30F00FD
:1085E00000B270474FF40063038470474FF4006398
:1085F00003847047012380F858307047F0B4037C3F
:10860000456902681F2B37D9203B202154689940C7
:108610000C4223D010249C40D160D4605168D940D2
:10862000CE074ED4EFF31183502282F31288EA6B07
:108630001168C90709D45468002C52D1D5E90961E1
:108640008E4243D1012285F86020DBB283F311888A
:10865000037C02681F2B194614D9203B082150685F
:108660009940084200D0D1600421506801FA03F318
:10867000184223D1F0BC7047202416689C40264243
:108680000FD11946082310688B40184200D0936020
:108690000423106803FA01F10842EBD09160F0BCAA
:1086A000704710219940946091601168D940CC07BF
:1086B000B8D5012101FA03F39360B3E7D360F0BCAE
:1086C0007047012101FA03F3D360ABE7AF690F44B0
:1086D000D7600ED82E69711A5160AC62002185F8FE
:1086E0006010116841F00101DBB2116083F3118861
:1086F000AEE7711A5160AE62F0E700BF2DE9F041BC
:10870000B14DB24C2A7823789A4240F01B81B04B8D
:108710001A78002A7CD0AF4B1E78AF4B002E79D14F
:108720001968B3F82C714E628889012A40EA070063
:108730008881A3F82C6157D0D3F83011B3F85C725C
:108740004E628889022A40EA07008881A3F85C62A9
:108750004AD0D3F86012B3F88C734E628889032A2A
:1087600040EA07008881A3F88C633DD0D3F89013CA
:10877000B3F8BC744E628889042A40EA07008881F5
:10878000A3F8BC6430D0D3F8C014B3F8EC754E62D3
:108790008889052A40EA07008881A3F8EC6523D080
:1087A000D3F8F015B3F81C774E628889062A40EAA0
:1087B00007008881A3F81C6716D0D3F82017B3F8F8
:1087C0004C784E628889072A40EA07008881A3F81E
:1087D0004C6809D0D3F85028B3F87C0956629189C7
:1087E00001439181A3F87C692A7823789A420FD0BB
:1087F0007A481F469B003B449B00C218C3583BB9B4
:10880000137A2BB9537A1BB97B1C03F00303237033
:10881000BDE8F0815E68198971603768186847F0B3
:10882000010740F20D313760A0F848108689012A0F
:1088300046F480768681D7D0D3F83461B3F83871A6
:10884000D3F830017760376847F001073760A0F848
:1088500048108689022A46F480768681C4D0D3F8EF
:108860006462B3F86872D3F860027760376847F0E3
:1088700001073760A0F848108689032A46F48076FD
:108880008681B1D0D3F89463B3F89873D3F890038A
:108890007760376847F001073760A0F8481086898D
:1088A000042A46F4807686819ED0D3F8C464B3F857
:1088B000C874D3F8C0047760376847F001073760A1
:1088C000A0F848108689052A46F4807686818BD0E8
:1088D000D3F8F465B3F8F875D3F8F0057760376826
:1088E00047F001073760A0F848108689062A46F449
:1088F000807686813FF478AFD3F82467B3F8287781
:10890000D3F820077760376847F001073760A0F891
:1089100048108689072A46F4807686813FF464AF42
:10892000D3F85428B3F85808D3F85038506010687A
:1089300040F001001060A3F848109A8942F4807258
:108940009A8151E7804609F09BFD27782B78BB423E
:1089500086461DD0BB002148DA1900EB8202167A48
:10896000C6B1B8F1000F3DD01D490022B1F808C0D2
:108970000132BCF1000F18BF0026424501F580719D
:10898000F4D17EBB124A1278002A3FF434AFC2E61B
:108990001248BB003B449B00C118C258AEEB020218
:1089A000002AFFF635AF4A7A3AB1013AD2B24A729A
:1089B00012B30EF57A72C25000E0C250044B1A781E
:1089C000002A7FF4A8AE0FE744E2002045E2002031
:1089D000403200103C32001068CF002048E20020F6
:1089E00068C70020DA1992000EF51C518618103164
:1089F000815000223272C5E74A687244C250DDE7F6
:108A000010B5027C01681F2A4FF020030ED94C6874
:108A1000203A93401C4208D00B4A4068002414704E
:108A2000026822F001020260CB6010BD0C68934026
:108A30001C42FAD0044A406800241470026822F0F4
:108A4000010202608B60F0E71B8B00202DE9F041F2
:108A5000C40023189B00B749CA585268958AADB222
:108A6000EFB2FE070B4461D4BE0737D5BFF35F8F6B
:108A70001D7EEDB2012D00F0BB80AF4E138BBFF316
:108A80005F8F231801EB83031D7E022D00F0CE8043
:108A9000231801EB83031D7E032D05D19B7E1BB1A3
:108AA0007378002B40F01A81938896F900C043F444
:108AB00080639380231801EB83031B7E013363459E
:108AC0000AD1B37800257570002B40F08A802044CD
:108AD00001EB800000234375BDE8F081964E17F04E
:108AE000040F96F900C04DD117F0400700F0B28096
:108AF000178A1D6AFFB205F80C705FFA8CF56F1CBF
:108B000093F818E07BB2DF1CBE4533709C4600F042
:108B10000981271801EB87073F7EBB42CAD105F1C7
:108B2000020C4FFA8CFC86F800C0C3E71588824E11
:108B300025F400652D042D0C1580158845F48065FD
:108B400015809D7E00273770002D3DD07578002D53
:108B500037D0231801EB830301251B7E7570022B90
:108B600003D1138843F400631380231801EB8303BC
:108B70009B7D43F001031382204401EB8000037EC0
:108B8000BDE8F0819F7E75784FF0010E86F802E017
:108B9000002F5CD0002D78D1231801EB83035B7E7E
:108BA000002B00F0A48013880CF1010C4FFA8CFC10
:108BB00043F4007386F800C013801388DF05FCD4EB
:108BC00078E7DB7DFF2BC4D0231801EB83039D7D69
:108BD00005F0FE051582DB7DFF2BCDD0FF23337022
:108BE000CAE7938823F440731B041B0C93806EE741
:108BF0009B7E514E002B3FF441AF7378002B3FF426
:108C00003DAF138823F480631B041B0C1380BFF358
:108C10005F8F138B1388B57043F4007313809388B0
:108C200096F900C043F48063938043E79B7E002B5A
:108C30003FF42EAF7378002B3FF42AAF138896F9D8
:108C400000C023F480631B041B0C138016E0002D6E
:108C5000A2D0A8E72D067FF52DAFBCF1FF3F6DD068
:108C6000DD6915F80C5015820CF1010C1D7E4FFAD0
:108C70008CF39D429C4633707FF41CAF938823F4A1
:108C800080631B041B0C938014E71F7ED3F82080A5
:108C90005FFA8CF5AE44022F4FFA8EFE17882DD95D
:108CA00027F480673F043F0C1780178AFFB208F84B
:108CB0000C701788D3F820C047F400731380138A10
:108CC000DBB20CF80E30938805F1020C4FFA8CFCE5
:108CD00043F4806386F800C093806EE7938896F92A
:108CE00000C023F480631B041B0C9380E2E613880E
:108CF000012543F48073138075705EE747F40077B5
:108D00001780178AFFB208F80C70178AD3F82080F2
:108D100005F1030C4FFA8CFCFBB286F800C008F892
:108D20000E304AE7978827F480673F043F0C97800E
:108D3000EFE600BFFC43002080160020DD7D158299
:108D40009D7E37701DB91B7E002B7FF415AF938875
:108D500023F480631B041B0C93800DE70EF0B0B965
:108D6000014B186809F0DCBE1842002038B51D4BD5
:108D70001B78044600F1250593B104221A492030DE
:108D80004BF04CFF2846142218494BF047FF0123B3
:108D900084F83A30164B1B7873B984F83B3038BDF1
:108DA0002846142213494BF039FF012384F83A3046
:108DB0000F4B1B78002BF0D00F4B186859689A683E
:108DC000DD68E56020606160A260DD69186959694D
:108DD0009A69A2610123E5612061616184F83B30F9
:108DE00038BD00BF894300204C430020344300209D
:108DF0008A43002098B805085443002010B4292164
:108E0000282401220023047041708270C3705DF831
:108E1000044B70472DE9F84FDDE90A64894617468F
:108E200000212022984605464BF0BAFE5EB1D6E9F5
:108E300000327189EB81C3F30F432B82C2F30F43DE
:108E4000EA822B836982484649F0F2FB17F0100B47
:108E500010D1431E70B119F803202E2A18BF09EB58
:108E6000030104D14AE011F8016D2E2E3ED013F11A
:108E7000FF33F8D208280246CA46A8BF08224FF09E
:108E8000000B4FF020336B602B60C5F8073049466C
:108E9000284605F108064AF05FFB5A46514630461F
:108EA0004AF05AFB6B1EE81D13F8012FA2F1610175
:108EB00019299CBF203A1A708342F5D105F10B01A4
:108EC00016F8013BA3F16102192A9CBF203B06F86A
:108ED000013CB142F4D11823C8F30F42EF722B7357
:108EE000A5F81A80AA82EC61BDE8F88FC01A00F1DB
:108EF000FF3BBBF1030FA8BF4FF0030B082B03F19F
:108F0000010AA8BF0823CA441A46BAE738B52E2278
:108F100000214BF045FE034640F2DC51642040F254
:108F20001A4240F2022418745982132019219A829D
:108F300040F2753240F26C751C8398760E240A203C
:108F40001977DA8302210122DD8283F82D0040F6B1
:108F50004305197283F82C1083F822409A7383F822
:108F6000252083F82B201D8419460248BDE838408F
:108F70001DF032BDA4B8050810B50021044601203B
:108F800008F074FD207010BD38B500240472451E31
:108F9000E1B2022008F06AFD0134082C05F8010F47
:108FA000F6D138BD38B50024054604802146284650
:108FB00001342CF045FA082CF8D1002185F8E21094
:108FC000A5F8E410A5F8E610A5F8E810A5F8EA1051
:108FD000A5F8EC10A5F8EE10A5F8F010A5F8F21021
:108FE0002846BDE838402CF0EDB900BF2DE9F04F20
:108FF000002087B00C461D46012192460BF0C0FFB1
:10900000002D63D005EB0A03DFF8D094DFF8D0B46D
:10901000039355461CE0002D00F0C581D9F81430AB
:10902000AB4264D0D9F81030AB4200F09780D9E958
:109030000631AB4252D8A94200F26F81691A20462C
:1090400041F0E0F9039B01359D4204F500743DD0E9
:10905000D9F82060AE42DED8D9F83080AE1B4FEA96
:10906000D60AD8F830300AF1020A9A4506F0070607
:1090700003D3D8F838309A4509D94146504641F0D3
:109080008FF98046002800F04D81C9F8300098F82B
:109090000430002B40F0E280D8F82870002F00F058
:1090A000DF81D8F83030D8F80C20AAEB030A06EBA1
:1090B000CA0A4346204602EB4A224FF40071B847E1
:1090C000039B01359D4204F50074C1D1002108467F
:1090D0000BF056FF002007B0BDE8F08FA942ADD9D4
:1090E0004FF40072002120464BF05AFDAAE75222AD
:1090F00061204123002622706270A070722284F8E1
:10910000E70184F8E631D9F82800E3704FF0FF3327
:10911000314684F8E42184F8E521C4F8E8014FF4ED
:10912000F07284F8EC3184F8ED3184F8EE3184F893
:10913000EF31201D4BF034FD55216FF05502C4F87E
:10914000F061C4F8F461C4F8F86184F8FC6184F853
:10915000FD6184F8FE1184F8FF2173E74FF400727B
:10916000002120464BF01CFDD44BD54F03CBEB2305
:10917000022223704FF0080C9026F8234FF0580E6F
:10918000C4F80300227484F80DC0C4F8071084F8F2
:1091900001E0A6706375D9F81010D9F80830D9F835
:1091A0001C602273591A21624FF0FF3100233F20C7
:1091B000A1763E21A273E372E3736374A374E37434
:1091C0002375A375E3756376E3766377A377E37717
:1091D0002076217784F82C2007CFD9F8187084F8EE
:1091E0002830F61B84F8293084F82A3084F82B3094
:1091F00084F82D3084F82E3084F82F3084F8313004
:1092000084F8323084F8333080236662C4F8470033
:1092100004F1470684F8403029209423A94F84F8AC
:1092200046C084F8420084F843300E200D234FF0EE
:10923000010C84F8440084F8453084F830C0716033
:1092400003CF33465527AA269A60C4F85200C4F8C3
:10925000561084F8FE7184F8FF61F3E64FF4007253
:10926000002120464BF09CFCD8F84030002E61D104
:1092700004F12007002B77D0D8F830309249112222
:10928000CDE900662046FFF7C5FDD8F840301A6CDE
:1092900004F1400A002A79D01B6B8C49CDE90066A5
:1092A00038461122FFF7B6FDD8F84460002E3FF48F
:1092B000C9AE4FF4E078CDE904450CE00024CDE9D7
:1092C00000C4FFF7A7FDB66CBA46A8F120080EB39C
:1092D000B8F11F0F1ED93468356B96F804E01122DF
:1092E0002B46214650460AF1200706F11C0CBEF120
:1092F000000FE3D172793369019342F021022B46CA
:10930000CDF800C0FFF786FDB66CBA46A8F120087C
:10931000002EDDD1DDE9044594E6E91A204641F04E
:1093200071F88FE6231F04F5FE7243F804BF9A42DA
:10933000FBD187E6002BD8F844200CBF0123022381
:10934000C3EB0613002A3FF47DAE966C013B002E62
:109350003FF478AE013BB66CF9D1002E3FF472AE0B
:10936000A2464FF40078A6E7CDE900663346D9F867
:109370000C1008222046FFF74DFDD8F84460002E5F
:109380003FF460AEBA464FF4F07894E7CDE900665A
:109390003346384611224D49FFF73CFDD8F844606A
:1093A000002E86D14EE64FF40072294620464BF03F
:1093B000F7FB80220C2384F8BE2184F8C231D9F84F
:1093C0001000434BD9F8086084F8B85183FB003291
:1093D000C117C1EB2232B2F5806F84F8B95184F81D
:1093E000BA5184F8BB5184F8BC5184F8BD51C4F81B
:1093F000C601C4F8CA6142DBFF2384F8BF3184F898
:10940000C13184F8C031324B711E83FB0132CE175B
:10941000C6EB2232B2F5806F29DA2E4B84F8C521D3
:1094200083FB01030B442C48C6EB6313C3EB831689
:1094300080FB0370891B1844DE17921022F03F0254
:109440000131C6EBE0100A43034484F8C42184F8D8
:10945000C3315522AA2384F8FE2184F8FF31F1E5B7
:1094600039464FF4007220464BF09AFBEAE5FF23A1
:1094700084F8C33184F8C53184F8C431E9E7154B69
:1094800084F8C12183FB00730344134FC1EB6313C2
:1094900087FB0317C3EB831C9110A0EB0C02F81899
:1094A000DF1721F03F010132C7EBE0100A4303440C
:1094B00084F8C02184F8BF31A5E700BFB8B805081B
:1094C000C4B80508D4B80508B0B80508B4B805088C
:1094D00097554541832008828180808018B90020FB
:1094E000DEADBEEF08B5012021F082FD174A93687A
:1094F00003F00C03042B1ED0082B18D151685368BD
:10950000490203F03F0319D452681148B0FBF3F04D
:10951000C2F3881300FB03F00C4B0E4A5B68C3F3E5
:10952000014301335B00B0FBF3F0106008BD094B51
:10953000074A1A6008BD074B186008BDB0FBF3F07E
:109540005368C3F3881300FB03F0E5E700380240DB
:109550000024F400E8D8002010B5044C04480A4662
:10956000214620F031FA204610BD00BF84160020AD
:10957000E0B8050810B5044C04480A46214620F01E
:1095800023FA204610BD00BF84160020F0B805085D
:1095900010B5044C04480A46214620F015FA20462E
:1095A00010BD00BF84160020FCB805080A4608B5A7
:1095B000054920B1054820F007FA034808BD0448D2
:1095C00020F002FA004808BD8416002028B90508DA
:1095D00010B9050830B5437F83B004461BB901209C
:1095E000637703B030BD052502236A4601A90068F0
:1095F000ADF804500DF084FB9DF8013003F0010339
:1096000083F00100637703B030BD00BFF8B5074CAD
:1096100005460F46266803E023689B1BBB4204D81F
:109620002846FFF7D7FF0028F6D0F8BD6CB200201F
:1096300010B545F2082182B00446FFF7E7FF02A902
:10964000062301F8023D206840F00EFB02A9C72363
:1096500001F8013D01232068637740F005FB02B06B
:1096600010BD00BF10B5027F84B000230446D8208F
:1096700002938DF80C308DF80800EAB10B0E8DF8CE
:1096800009300DF10A030A0A080C5A709970187013
:1096900041F288312046FFF7B9FF04A9062301F8FB
:1096A000093D206840F0E0FA012302A963772068B1
:1096B00040F096FA04B010BD0DF10903E3E700BFD6
:1096C000F8B584894FF6FF764FF47A7433B319B343
:1096D0000F78013101E0B44218D00589013CAD0793
:1096E000A4B2F8D5BCB284814FF47A7402E0BCB263
:1096F000B4420BD00589ED0704F1FF37F7D5858912
:10970000ADB20AB115700132013BDFE70DF0D6FAB8
:10971000003018BF0120F8BDFF27DEE70120F8BDAB
:10972000F0B5077F83B004464FF0030C0020009093
:1097300016461D468DF804008DF800C04FB30B0E81
:109740008DF801300DF10203080C0A0A99701870A7
:10975000062120465A70FFF759FFC0B120680DF06E
:109760009DFA237F2268002B14BF0523042369463A
:1097700050680022FFF7A4FF236832465868002192
:109780002B46FFF79DFF20680DF082FA284603B0B4
:10979000F0BD0DF10103D7E7F0B5077F836985B010
:1097A00004464FF0020C002002900E4615468DF83C
:1097B0000C008DF808C0002F33D01A0E8DF8092048
:1097C0000DF10A02180C1F0A9370107057700621D1
:1097D0002046FFF71BFF04A9062301F8093D206876
:1097E00040F042FA0123637720680DF057FA237F97
:1097F0002268002B14BF0523042302A9506800220D
:10980000FFF75EFF23683146002258682B46FFF7BA
:1098100057FF20680DF03CFAA2692A44A26105B006
:10982000F0BD0DF10902CDE710B4144681611A466E
:1098300021465DF8044BAFE7F0B5076A83B00646F2
:1098400017B13B68BA885A837069DFF8A8E083894A
:10985000C3244FF47A734FF0060C6D464FF6FF7138
:109860000EF1010E03E0013B9BB28B4220D0028936
:109870009207F8D5A3B283814FF47A7302E0A3B2C2
:109880008B4215D00289D20703F1FF34F7D58289C4
:1098900092B20DB12A700135BCF1000F0BD00CF162
:1098A000FF3CFF24BEF1000FE1D09EF80040D7E757
:1098B0000DF004FA376A17B13B68BA881A839DF82D
:1098C00005009DF801509DF802109DF803409DF899
:1098D00004209DF8063041EA052143EA002342EACC
:1098E00004220120A6F85810A6F85A20A6F85C30E9
:1098F00003B0F0BDCC4C050810B500F10C040022FB
:10990000212120460DF066FBFC22202120460DF08F
:1099100061FB4022242120460DF05CFB0C22232118
:1099200020460DF057FB0022222120460DF052FB6D
:10993000642008F055FE012010BD10B500F10C04A4
:1099400001220B2120460DF045FB20B11D220921EB
:1099500020460DF03FFB00F0010010BD10B500F1F6
:109960000C047022002120460DF034FB202201213E
:1099700020460DF02FFB0022022120460DF02AFB8D
:10998000642008F02DFE012010BD13B506230C46FF
:109990006A4628210C300DF045FAF0B19DF80130EF
:1099A0009DF8002042EA032204219DF8033012B200
:1099B00092FBF1F222809DF8022042EA032212B2C9
:1099C0009DF8043092FBF1F262809DF8052043EA95
:1099D00002231BB293FBF1F3A38002B010BD7FB54D
:1099E000002500F10C060C460D804D808D80012372
:1099F0000DF10702062130460DF014FA10B90020CF
:109A000004B070BD9DF807305B07F8D5062302AAA5
:109A1000294630460DF006FA0028F0D09DF80920BE
:109A20009DF8083043EA022323809DF80B209DF81F
:109A30000A3043EA022363809DF80D209DF80C3024
:109A400043EA0223A380DBE713B506230C466A46EC
:109A500003210C300DF0E6F9A0B19DF800209DF82F
:109A6000013043EA022323809DF802209DF8033051
:109A700043EA0223A3809DF804209DF8053043EAC1
:109A80000223638002B010BDF0B500F10C0585B073
:109A900004460F4601230DF10702022128460DF06E
:109AA000C1F918B90026304605B0F0BD9DF8073061
:109AB000DB07F7D5062302AA032128460DF0B2F9E9
:109AC00001230DF10702092128460DF0ABF90646E6
:109AD0000028E7D011220A2128460DF07BFA9DF8D4
:109AE000073013F00C0FDDD1B4F9221002A8FEF7F5
:109AF0006BFD40423880B4F924100DF10A00FEF7E6
:109B000063FD40427880B4F9261003A8FEF75CFD9F
:109B10004042B880C7E737B500F10C040546002283
:109B20000A2120460DF056FA142008F059FD0F22A4
:109B30000A2120460DF04EFA0A2008F051FD01AA34
:109B40000323102120460DF06DF90A2008F048FD8E
:109B50009DF8043080336B849DF805308033AB84EE
:109B60009DF806308033EB8400220A2120460DF058
:109B700031FA0A2008F034FD0DF10302012302211D
:109B800020460DF04FF901230DF103020921204673
:109B90000DF048F911220A2120460DF01BFA012090
:109BA00003B030BD70B582B0044606230C306A465F
:109BB0003B210DF037F9A8B19DF804009DF8006035
:109BC0009DF801109DF802509DF803209DF8053086
:109BD00041EA062143EA002342EA05226184A28485
:109BE000E384012002B070BD4268AC49138823F0C1
:109BF00040032DE9F04F1B041B0C1380138887B022
:109C000023F038031B048A4202904FEA134300F00A
:109C1000FF8001F580618A420CBF302138210B435F
:109C20001380138802989E4C9E4FDFF884A29E4DAD
:109C30009E4E43F0400313806B2180220DF0AAF862
:109C4000062304939623DFF86CE201934FF010088B
:109C5000DAF80430C3F30803002B40F0B080EFF3D0
:109C60001183002B40F0AB802068AA6823689842DB
:109C7000FAD133689A42F7D8D7F800C04FF47A7116
:109C800001FB0CF39B1AB3FBFCF301FB00304FF418
:109C90007A7C4FF00109DAF80430C3F30803002B93
:109CA0006FD1EFF31183002B6BD12368A968226871
:109CB0009342FAD132689142F7D83A680CFB02FB22
:109CC000ABEB0101B1FBF2F10CFB03131B1AB3F573
:109CD0007A7FE0D3019B013B0193B9D1029B1B69C1
:109CE00013B11A689B885383029B586840F2E9338A
:109CF000828902E0002B00F086800289013B12F08D
:109D0000020F9BB2F6D0F523838140F2E93301E0E4
:109D1000002B78D00289013B12F0010F9BB2F7D0E3
:109D20008389838940F2E93301E0002B68D00289FE
:109D3000013B12F0020F9BB2F7D0FF23838140F268
:109D4000E93301E0002B5BD00289013B12F0010FE7
:109D50009BB2F7D08389DBB20393029B1B6913B1DB
:109D60001A6899881183039A682A53D0049B013B8F
:109D700013F0FF0304937FF465AF184607B0BDE806
:109D8000F08FEFF3118188F31288D5F808B02B68B3
:109D9000DB0344BFCEF80090D5F808B02368DEF8A6
:109DA0000020C9B281F31188396813440CFB01F219
:109DB000A2EB0B02B2FBF1F20CFB032386E7EFF3FD
:109DC000118388F31288D5F808C02A68D20304D515
:109DD0000122CEF80020D5F808C02068DEF80090F7
:109DE000DBB283F3118839684FF47A72484402FB7E
:109DF00001F3A3EB0C03B3FBF1F302FB003046E7E6
:109E00000CF05CFFA9E70CF059FF029B586888E74B
:109E1000302104E713B11A689B885383029B58686A
:109E200040F2E933828901E0002B53D00289013BE3
:109E300012F0020F9BB2F7D08C23838140F2E933FA
:109E400001E0002B46D00289013B12F0010F9BB2CA
:109E5000F7D08389838940F2E9330289013B12F00C
:109E6000020F9BB215D1002BF7D10CF027FF029BFC
:109E70001B6913B11A689B881383059B142B04D3A9
:109E8000182B25D9543B062B22D9002007B0BDE85A
:109E9000F08FFF23838140F2E9330FE00038004068
:109EA0006CB2002070B2002010E000E074B200201C
:109EB00000ED00E068B20020002BD6D00289013B03
:109EC00012F0010F9BB2F7D08389DBB20593CEE786
:109ED000032053E70CF0F2FE029B5868BAE700BF7C
:109EE0002DE9F04FB04C436894F8032185B0019000
:109EF000002A00F03A811A88AC4922F0400212048C
:109F0000120C1A801A8822F0380212048B424FEA8F
:109F1000124200F0288101F580618B420CBF302194
:109F200038210A431A801A880198A14CA14FDFF802
:109F300090A2A14DA14E42F040021A806B218022D6
:109F40000CF028FF152303939623DFF878E20093A3
:109F50004FF01008DAF80430C3F30803002B40F088
:109F6000D180EFF31183002B40F0CC802068AA68E9
:109F700023689842FAD133689A42F7D8D7F800C0DC
:109F80004FF47A7101FB0CF39B1AB3FBFCF301FB5A
:109F900000304FF47A7C4FF00109DAF80430C3F353
:109FA0000803002B40F09080EFF31183002B40F06A
:109FB0008B802368A96822689342FAD13268914263
:109FC000F7D83A680CFB02FBABEB0101B1FBF2F1F5
:109FD0000CFB03131B1AB3F57A7FDED3009B013B06
:109FE0000093B7D1019B1B6913B11A689B885383F7
:109FF000019B586840F2E933828902E0002B00F0AF
:10A00000AD800289013B12F0020F9BB2F6D0F5231E
:10A01000838140F2E93302E0002B00F09F80028947
:10A02000013B12F0010F9BB2F6D08389838940F285
:10A03000E93302E0002B00F086800289013B12F038
:10A04000020F9BB2F6D0FF23838140F2E93301E097
:10A05000002B78D00289013B12F0010F9BB2F7D0A0
:10A060008389DBB20293019B1B6913B11A689B8839
:10A070001383029B982B00F0B08069D9AC2B65D07C
:10A08000AF2B40F0A1800920019B48495B681A88EA
:10A0900022F040021204120C1A801A8822F03802B0
:10A0A00012048B424FEA124256D001F580618B4276
:10A0B0000CBF082110210A431A801A8842F040027E
:10A0C0001A8005B0BDE8F08FEFF3118188F3128894
:10A0D000D5F808B02B68DB0344BFCEF80090D5F864
:10A0E00008B02368DEF80020C9B281F3118839680E
:10A0F00013440CFB01F2A2EB0B02B2FBF1F20CFBDE
:10A10000032367E7EFF3118388F31288D5F808C0BB
:10A110002A68D20304D50122CEF80020D5F808C061
:10A120002068DEF80090DBB283F3118839684FF4C1
:10A130007A72484402FB01F3A3EB0C03B3FBF1F387
:10A1400002FB003025E70CF0B9FD8CE707209BE708
:10A15000122B39D1082097E70821ACE70CF0AEFDAF
:10A16000019B586862E73021DBE61A880F4922F02C
:10A1700040021204120C1A801A8822F038021204CB
:10A180008B424FEA12422AD001F580618B420CBF0C
:10A19000082110210A431A801A88012142F0400246
:10A1A0001A8084F80311A6E68016002000380040CB
:10A1B0006CB2002070B2002010E000E074B2002009
:10A1C00000ED00E068B20020039B013B13F0FF03A9
:10A1D00003937FF4B9AE039873E70B2054E708218B
:10A1E000D8E700BF2DE9F04F85B090F869300290B4
:10A1F000002B40F02B85029BC3495A69138823F03A
:10A2000040031B041B0C1380138823F038031B042A
:10A210008A424FEA134300F0508501F580618A427B
:10A220000CBF302138210B43138013880299B74C9F
:10A23000B74EDFF8E882B74F43F040031031138088
:10A240000391084680226B210CF0A4FD6423DFF803
:10A25000D0E2B14801934FF01009DEF80430C3F3A7
:10A260000803002B40F0E783EFF31183002B40F04D
:10A27000E2832568826823689D42FAD13B689A424E
:10A28000F7D8D6F800C04FF47A7101FB0CF39B1A93
:10A29000B3FBFCF301FB05354FF47A7C4FF0010A68
:10A2A000DEF80430C3F30803002B40F0A683EFF37D
:10A2B0001183002B40F0A1832368816822689342B8
:10A2C000FAD13A689142F7D832680CFB02FBABEB4B
:10A2D0000101B1FBF2F10CFB03135B1BB3F57A7FB9
:10A2E000DED3019B013B0193B7D103226821039880
:10A2F000DFF82882874F0CF04DFD6423DFF820E261
:10A30000854801934FF01009DEF80430C3F30803C9
:10A31000002B40F01484EFF31183002B40F00F84E6
:10A320002568826823689D42FAD13B689A42F7D833
:10A33000D6F800C04FF47A7101FB0CF39B1AB3FB03
:10A34000FCF301FB05354FF47A7C4FF0010ADEF88F
:10A350000430C3F30803002B40F03183EFF3118383
:10A36000002B40F02C832368816822689342FAD145
:10A370003A689142F7D832680CFB02FBABEB010163
:10A38000B1FBF2F10CFB03135B1BB3F57A7FDED359
:10A39000019B013B0193B7D101226B210398DFF8A8
:10A3A0007C815C4F0CF0F6FC0F23DFF874E15A4817
:10A3B00001934FF01009DEF80430C3F30803002BBB
:10A3C00040F09C83EFF31183002B40F097832568C6
:10A3D000826823689D42FAD13B689A42F7D8D6F842
:10A3E00000C04FF47A7101FB0CF39B1AB3FBFCF332
:10A3F00001FB05354FF47A7C4FF0010ADEF804309A
:10A40000C3F30803002B40F0BC82EFF31183002B51
:10A4100040F0B7822368816822689342FAD13A6893
:10A420009142F7D832680CFB02FBABEB0101B1FBA8
:10A43000F2F10CFB03135B1BB3F57A7FDED3019BB8
:10A44000013B0193B7D118221B210398DFF8CC8080
:10A45000304F0CF09FFC0F23DFF8C4E02E4801932F
:10A460004FF01009DEF80430C3F30803002B40F06E
:10A470002483EFF31183002B40F01F83256882684B
:10A4800023689D42FAD13B689A42F7D8D6F800C0BB
:10A490004FF47A7101FB0CF39B1AB3FBFCF301FB45
:10A4A00005354FF47A7C4FF0010ADEF80430C3F32F
:10A4B0000803002B40F04782EFF31183002B40F09C
:10A4C00042822368816822689342FAD13A689142B5
:10A4D000F7D832680CFB02FBABEB0101B1FBF2F1E8
:10A4E0000CFB03135B1BB3F57A7FDED3019B013BAF
:10A4F0000193B7D118221C210398DFF82080054F63
:10A500000CF048FC0F230DE0003800406CB2002036
:10A5100070B2002074B2002010E000E068B20020A9
:10A5200000ED00E0DFF814E3C14801934FF010099B
:10A53000DEF80430C3F30803002B40F09D82EFF3F4
:10A540001183002B40F098822568826823689D4221
:10A55000FAD13B689A42F7D8D6F800C04FF47A7126
:10A5600001FB0CF39B1AB3FBFCF301FB05354FF425
:10A570007A7C4FF0010ADEF80430C3F30803002BA5
:10A5800040F0C381EFF31183002B40F0BE812368BC
:10A59000816822689342FAD13A689142F7D83268CA
:10A5A0000CFB02FBABEB0101B1FBF2F10CFB031363
:10A5B0005B1BB3F57A7FDED3019B013B0193B7D1DF
:10A5C000029A92F86330032B00F23E8392F86620E1
:10A5D000012A0BD0022A40F03783029B93F86B309C
:10A5E00003F0FB03022B0CBF002207221A21039861
:10A5F000DFF84C828F4F0CF0CDFB0F23DFF83CE2ED
:10A600008B4801934FF01009DEF80430C3F30803C0
:10A61000002B40F0F882EFF31183002B40F0F3821F
:10A620002568826823689D42FAD13B689A42F7D830
:10A63000D6F800C04FF47A7101FB0CF39B1AB3FB00
:10A64000FCF301FB05354FF47A7C4FF0010ADEF88C
:10A650000430C3F30803002B40F03981EFF311837A
:10A66000002B40F034812368816822689342FAD13C
:10A670003A689142F7D832680CFB02FBABEB010160
:10A68000B1FBF2F10CFB03135B1BB3F57A7FDED356
:10A69000019B013B0193B7D1029B039893F868207B
:10A6A000DFF89C81634F19210CF074FB6423DFF801
:10A6B0008CE15F4801934FF01009DEF80430C3F3DA
:10A6C0000803002B40F07E82EFF31183002B40F053
:10A6D00079822568826823689D42FAD13B689A4254
:10A6E000F7D8D6F800C04FF47A7101FB0CF39B1A2F
:10A6F000B3FBFCF301FB05354FF47A7C4FF0010A04
:10A70000DEF80430C3F30803002B40F0C280EFF3FF
:10A710001183002B40F0BD8023688168226893423A
:10A72000FAD13A689142F7D832680CFB02FBABEBE6
:10A730000101B1FBF2F10CFB03135B1BB3F57A7F54
:10A74000DED3019B013B0193B7D11022372103983F
:10A75000DFF8EC80374F0CF01DFB0F23DFF8DCE057
:10A76000334801934FF01009DEF80430C3F30803B7
:10A77000002B40F00682EFF31183002B40F00182A2
:10A780002568826823689D42FAD13B689A42F7D8CF
:10A79000D6F800C04FF47A7101FB0CF39B1AB3FB9F
:10A7A000FCF301FB05354FF47A7C4FF0010ADEF82B
:10A7B0000430C3F30803002B4DD1EFF31183002BBA
:10A7C00049D12368816822689342FAD13A6891425C
:10A7D000F7D832680CFB02FBABEB0101B1FBF2F1E5
:10A7E0000CFB03135B1BB3F57A7FE0D3019B013BAA
:10A7F0000193B9D10122382103980CF0CBFA029BC6
:10A800000D495A69138823F040031B041B0C138065
:10A81000138823F038031B048A424FEA134300F0E5
:10A820004F8201F580618A420CBF0821102109E0A6
:10A8300010E000E074B200200038004000ED00E0BD
:10A8400068B200200B431380138843F04003138049
:10A8500005B0BDE8F08FEFF3118189F31288D0F8CD
:10A8600008B00368DB0344BFC8F800A0D0F808B004
:10A870002368D8F80020C9B281F3118831681344E5
:10A880000CFB01F2A2EB0B02B2FBF1F20CFB032377
:10A89000A8E7EFF3118189F31288D0F808B00368B4
:10A8A000DB0344BFC8F800A0D0F808B02368D8F88C
:10A8B0000020C9B281F31188316813440CFB01F206
:10A8C000A2EB0B02B2FBF1F20CFB032335E7EFF333
:10A8D000118189F31288D0F808B00368DB0344BF04
:10A8E000C8F800A0D0F808B02368D8F80020C9B292
:10A8F00081F31188316813440CFB01F2A2EB0B02C7
:10A90000B2FBF1F20CFB0323BEE6EFF3118189F3F6
:10A910001288D0F808B00368DB0344BFC8F800A071
:10A92000D0F808B02368D8F80020C9B281F31188A4
:10A93000316813440CFB01F2A2EB0B02B2FBF1F203
:10A940000CFB032334E6EFF3118189F31288D0F86E
:10A9500008B00368DB0344BFC8F800A0D0F808B013
:10A960002368D8F80020C9B281F3118831681344F4
:10A970000CFB01F2A2EB0B02B2FBF1F20CFB032386
:10A98000B0E5EFF3118189F31288D0F808B00368BD
:10A99000DB0344BFC8F800A0D0F808B02368D8F89B
:10A9A0000020C9B281F31188316813440CFB01F215
:10A9B000A2EB0B02B2FBF1F20CFB03233BE5EFF33E
:10A9C000118189F31288D0F808B00368DB0344BF13
:10A9D000C8F800A0D0F808B02368D8F80020C9B2A1
:10A9E00081F31188316813440CFB01F2A2EB0B02D6
:10A9F000B2FBF1F20CFB0323C6E4EFF3118189F300
:10AA00001288D0F808B00368DB0344BFC8F800A080
:10AA1000D0F808B02368D8F80020C9B281F31188B3
:10AA2000316813440CFB01F2A2EB0B02B2FBF1F212
:10AA30000CFB032351E4EFF3118389F31288D0F860
:10AA400008C00268D20304D50122C8F80020D0F85B
:10AA500008C02568D8F800A0DBB283F311883168FC
:10AA60004FF47A72554402FB01F3A3EB0C03B3FBE2
:10AA7000F1F302FB05350FE4EFF3118389F312883C
:10AA8000D0F808C00268D20304D50122C8F800201B
:10AA9000D0F808C02568D8F800A0DBB283F311888D
:10AAA00031684FF47A72554402FB01F3A3EB0C03B7
:10AAB000B3FBF1F302FB053559E5EFF3118389F39D
:10AAC0001288D0F808C00268D20304D50122C8F861
:10AAD0000020D0F808C02568D8F800A0DBB283F3C6
:10AAE000118831684FF47A72554402FB01F3A3EBED
:10AAF0000C03B3FBF1F302FB0535D2E4EFF3118352
:10AB000089F31288D0F808C00268D20304D5012264
:10AB1000C8F80020D0F808C02568D8F800A0DBB23B
:10AB200083F3118831684FF47A72554402FB01F3C4
:10AB3000A3EB0C03B3FBF1F302FB05355AE4EFF38F
:10AB4000118389F31288D0F808C00268D20304D5B3
:10AB50000122C8F80020D0F808C02568D8F800A065
:10AB6000DBB283F3118831684FF47A72554402FBEB
:10AB700001F3A3EB0C03B3FBF1F302FB0535FFF785
:10AB8000E2BBEFF3118389F31288D0F808C00268A2
:10AB9000D20304D50122C8F80020D0F808C02568E7
:10ABA000D8F800A0DBB283F3118831684FF47A72D1
:10ABB000554402FB01F3A3EB0C03B3FBF1F302FBDF
:10ABC0000535F0E5EFF3118389F31288D0F808C05A
:10ABD0000268D20304D50122C8F80020D0F808C0CA
:10ABE0002568D8F800A0DBB283F3118831684FF4F0
:10ABF0007A72554402FB01F3A3EB0C03B3FBF1F3B0
:10AC000002FB053578E5EFF3118389F31288D0F85C
:10AC100008C00268D20304D50122C8F80020D0F889
:10AC200008C02568D8F800A0DBB283F3118831682A
:10AC30004FF47A72554402FB01F3A3EB0C03B3FB10
:10AC4000F1F302FB0535FEE4019ACFE41E09013E53
:10AC5000032E03F00F0300F10C0733D81E4A32F81D
:10AC6000160040FA03F2D1072CD5012505FA03F3AB
:10AC7000013B184048F022FA184B194C9B5D1844D0
:10AC800014EBC0041ED00022E2712023029AA371AB
:10AC9000144BD360394620463DF0CEFCA388B3FA6E
:10ACA00083F3C3F11F0315FA03F33FF4A4AA0E497B
:10ACB0000A6813430B60FFF79EBA3021FFF7B3BA5F
:10ACC0000821BFE5029A074BD360394600203DF0CA
:10ACD000B3FCFFF790BA00BF6891050870910508B2
:10ACE00068B00020F5850008003C0140037C026844
:10ACF0001F2B86BF203B51681168202202FA03F304
:10AD00000B4214BF0123002303B970472DE9F0471C
:10AD10004569DFF858A12D02044607F0B1FB0AEBA4
:10AD2000050380461A7C002A34D14B495A680978B9
:10AD3000D2F80090C9B9D16858890A6822F0010296
:10AD40000A60B9F80C3023EA0003A9F80C30434B31
:10AD50001B78002B31D1237C21681F2B13D8202294
:10AD600002FA03F38B60BDE8F0879269136823F061
:10AD700001031360B9F80C3023F480731B041B0C1F
:10AD8000A9F80C30E3E7203B202202FA03F3CB6062
:10AD9000BDE8F0875A6832481568D6685F89012295
:10ADA0005A743168036821F001013160AA890133C6
:10ADB00022EA0702AA810360CDE70AEB05062835DF
:10ADC000776F384620F0ACF801230AEB05014846BE
:10ADD000337420F065F9D6E91202736B316D3D686A
:10ADE00003431343D6E915200B431343F16DB26EB1
:10ADF00003430B431B48F16E134328400B430343AB
:10AE0000002232643B60D6E918317A69756CB06B08
:10AE100022F007020B431343F26B7B617D60B86045
:10AE2000FA603B687268706FD16896F8705012686B
:10AE300043F010033B6045600B6843F001030B6077
:10AE4000938971890B43938107F01AFB064BA0EBA2
:10AE5000080018607FE700BF3C3200103832001055
:10AE6000DC9E00203F801CF0F833001068C70020F3
:10AE70008A4B1B78002B00F09880002800F095800A
:10AE80002DE9F04F431E85B0854C0190032B4FF008
:10AE90000006A8BF0323A4F114070393B0464FEAAA
:10AEA000062A07EB0A03256E5B7C002B7ED06A68BE
:10AEB00092B2002A65D114F8050CD4E91B130028BE
:10AEC00000F0AA84603377485B1AA0FB035189091C
:10AED00001EB4101A3EB4113182B00F17785173BE0
:10AEE000A0FB0323DB0003F0F003D4E91D126D483F
:10AEF0006032521AA0FB0251890901EB4101A2EB19
:10AF00004112182A05D4173AA0FB0212C2F34302D9
:10AF10001343D4E91F1263486032521AA0FB025156
:10AF2000890901EB4101A2EB4112182A5EBF173AD1
:10AF3000A0FB0212C2F34305D4E92112594802F1E1
:10AF40006002A2EB0102A0FB02C14FEA911101EBEA
:10AF50004101A2EB411248BF0025182A58BF173AF9
:10AF600045EA03155ABFA0FB0223C3F343030023A2
:10AF700043EA051383EA132282EA1212100700F053
:10AF80000C85494A13680133136026B9802247496A
:10AF9000474848F0E1FA07EB0A0383F8118054F8B8
:10AFA000109C256ED9F800B00CE0704754F8109C46
:10AFB00034F80A1CD9F800B0BBF80C2022EA0102D0
:10AFC000ABF80C202A683B4B22F0010221219D4264
:10AFD0002A60C5F80080C5F80480C5F80880C5F867
:10AFE0000C80C5F8108069611FD0334B9D4200F082
:10AFF0003783324B9D4200F03D83314B9D4200F040
:10B00000DF84304B9D4200F002852F4A954200F0CC
:10B0100003852E4A954200F07E852D4A954200F028
:10B02000EC8428461FF0ECFE02E02A4A3D219160A4
:10B03000BA448AF8108099F805100C2916D8DFE870
:10B0400011F044011500150015004D011500150003
:10B0500015003B011500150015000D00BBF81C2064
:10B0600022F400621204120CABF81C20224658464F
:10B0700005F060FE99F805300C2B37D8DFE813F0A7
:10B080000601360036003600110136003600360063
:10B09000FB003600360036002C0000BF38320010AE
:10B0A0007CC70020ABAAAAAAA0180010E8C70020FD
:10B0B000FC330010106002402860024040600240F3
:10B0C000586002407060024088600240A060024008
:10B0D000B860024000600240BBF81C3023F40063FB
:10B0E0001B041B0C43F40063ABF81C30D4E90D12B5
:10B0F000236AE06B43F040030B431343226CB149D6
:10B1000003431343626C13434022E262A26C28683B
:10B110001343A26D0292626D1343029A01401343DE
:10B120000B432B60D4E913316A69206B22F00702CC
:10B130000B431343D4E909126B616860A960EA60AC
:10B140002B6843F010032B60039B01369E4204F5ED
:10B1500080747FF7A4AE019B9E4280F2CC814FEABF
:10B16000062A0AF114043C444FF0000807EB0A03D6
:10B17000256E5B7C002B00F0BA806A6892B2002AD0
:10B1800065D114F8050CD4E91B13002800F07C826B
:10B1900060338D485B1AA0FB0351890901EB410123
:10B1A000A3EB4113182B00F11484173BA0FB0323DE
:10B1B000DB0003F0F003D4E91D1283486032521A19
:10B1C000A0FB0251890901EB4101A2EB4112182AAF
:10B1D00005D4173AA0FB0212C2F343021343D4E989
:10B1E0001F1279486032521AA0FB0251890901EB03
:10B1F0004101A2EB4112182A5EBF173AA0FB0212CE
:10B20000C2F34305D4E921126F4802F16002A2EBB8
:10B210000102A0FB02C14FEA911101EB4101A2EB37
:10B22000411248BF0025182A58BF173A45EA0315AE
:10B230005ABFA0FB0223C3F34303002343EA0513D1
:10B2400083EA132282EA1212120700F0E0825F4AB8
:10B2500013680133136026B980225D495D4848F0C8
:10B260007BF907EB0A0383F8118054F8109C256ED4
:10B27000D9F800B047E0BBF81C3023F008031B04EA
:10B280001B0C43F00803ABF81C302FE7BBF8183059
:10B2900023F008031B041B0C43F00803ABF8183021
:10B2A00024E7BBF8183023F400631B041B0C43F4A1
:10B2B0000063ABF8183019E7BBF81C2022F0080235
:10B2C0001204120CABF81C20D0E6BBF8182022F0B8
:10B2D00008021204120CABF81820C7E6BBF81820BD
:10B2E00022F400621204120CABF81820BEE654F8E7
:10B2F000109C34F80A1CD9F800B0BBF80C2022EAE4
:10B300000102ABF80C202A68334B22F00102212104
:10B310009D422A60C5F80080C5F80480C5F8088001
:10B32000C5F80C80C5F8108069611FD02B4B9D4279
:10B3300000F091812A4B9D4200F09781294B9D425C
:10B3400000F03983284B9D4200F05D83274A9542E7
:10B3500000F06783264A954200F0E283254A954231
:10B3600000F0468328461FF04BFD02E0224A3D21B3
:10B370009160BA448AF8108099F805100C2910D809
:10B38000DFE801F0A70F0F0F9E0F0F0FB00F0F0F89
:10B390000700BBF81C2022F400621204120CABF868
:10B3A0001C202246584605F0C5FC99F805300C2BA8
:10B3B0002ED8DFE803F06F2D2D2D7A2D2D2D642D45
:10B3C0002D2D23003F801CF0ABAAAAAAA0180010C4
:10B3D000E8C70020FC3300101060024028600240E3
:10B3E0004060024058600240706002408860024045
:10B3F000A0600240B860024000600240BBF81C3010
:10B4000023F400631B041B0C43F40063ABF81C30F3
:10B41000D4E90D12236AE06B43F040030B4313435E
:10B42000226C974903431343626C13434022E26248
:10B43000A26C28681343A26D0292626D1343029AB4
:10B44000014013430B432B60D4E913316A69206B2D
:10B4500022F007020B431343D4E909126B616860C1
:10B46000A960EA602B6843F010032B60019B013652
:10B47000B34204F580743ED04FEA062A76E6BBF864
:10B480001C3023F008031B041B0C43F00803ABF82B
:10B490001C30BDE7BBF8183023F008031B041B0C5D
:10B4A00043F00803ABF81830B2E7BBF8183023F4C8
:10B4B00000631B041B0C43F40063ABF81830A7E7D0
:10B4C000BBF8182022F400621204120CABF818200A
:10B4D00067E7BBF8182022F008021204120CABF840
:10B4E00018205EE7BBF81C2022F008021204120CA0
:10B4F000ABF81C2055E77A68787B13685179800790
:10B5000054BF012204228A40198C92B221EA02011E
:10B510001984198C0A431A84019B012B00F098802E
:10B52000D7F8042197F80D0113685179820754BFA9
:10B53000012204228A40198C92B221EA0201198464
:10B54000198C0A431A84019B022B00F08180D7F8E2
:10B55000042297F80D0213685179860754BF01221F
:10B5600004228A40198C92B221EA02011984198CB2
:10B570000A431A84019B032B6AD0D7F8042397F857
:10B580000D0313685179850754BF012204228A40B4
:10B59000198C92B221EA02011984198C0A431A8487
:10B5A000019B042B54D0D7F8042497F80D1413688A
:10B5B00050798C0754BF01220422198C824092B228
:10B5C00021EA02011984198C0A431A84019B052B74
:10B5D0003ED0D7F8042597F80D05136851798007F8
:10B5E00054BF012204228A40198C92B221EA02013E
:10B5F0001984198C0A431A84019B062B28D0D7F88A
:10B60000042697F80D1613685079890754BF012254
:10B610000422198C824092B221EA02011984198C09
:10B620000A431A84019B072B12D0D7F8042797F8F6
:10B630000D071368517982074CBF042201228A400A
:10B64000198C92B221EA02011984198C0A431A84D6
:10B6500005B0BDE8F08F0B4A4FF47461916088E645
:10B66000084A4FF474619160E2E4064A4FF47411A1
:10B6700091607EE6034A4FF474119160D8E400BFF4
:10B680003F801CF0006002405B1A002B40F3AA814F
:10B690000A2BD4BF00230123D4E91D12521A002A19
:10B6A0004FEA430340F3FB810A2A01DD43F0010323
:10B6B000D4E91F12521A002A4FEA430340F3F781DC
:10B6C0000A2A01DD43F00103D4E92112521A002AAB
:10B6D0004FEA430340F3E7810A2A01DD43F0010307
:10B6E000D4E92312521A002A4FEA430340F3CF81D0
:10B6F0000A2A01DD43F00103D4E92512521A002A77
:10B700004FEA430340F3BF810A2A01DD43F00103FE
:10B71000D4E92712521A002A4FEA430340F3AF81BB
:10B720000A2A01DD43F00103D4E92912521A002A42
:10B730004FEA430340F39F810A2A01DD43F00103EE
:10B74000D4E92B12521A002A4FEA430340F38F81A7
:10B750000A2A01DD43F00103D4E92D12521A002A0E
:10B760004FEA430340F37F810A2A01DD43F00103DE
:10B77000D4E92F12521A002A4FEA430340F36F8193
:10B780000A2A01DD43F00103D4E93112521A002ADA
:10B790004FEA430340F35F810A2A01DD43F00103CE
:10B7A000D4E93312521A002A4FEA430340F34F817F
:10B7B0000A2A01DD43F00103D4E93512521A002AA6
:10B7C0004FEA430340F33F810A2A01DD43F00103BE
:10B7D000D4E93712521A002A4FEA430340F32F816B
:10B7E0000A2A01DD43F00103D4E93912521A002A72
:10B7F0004FEA430340F31F810A2A01DD43F00103AE
:10B8000083EA132282EA121215077FF420ADC3F3F4
:10B810000F1324F8023C24E55B1A002B40F3DC8074
:10B820000A2BD4BF00230123D4E91D12521A002A87
:10B830004FEA430340F32F810A2A01DD43F001035D
:10B84000D4E91F12521A002A4FEA430340F35F81E2
:10B850000A2A01DD43F00103D4E92112521A002A19
:10B860004FEA430340F34F810A2A01DD43F001030D
:10B87000D4E92312521A002A4FEA430340F33F81CE
:10B880000A2A01DD43F00103D4E92512521A002AE5
:10B890004FEA430340F32F810A2A01DD43F00103FD
:10B8A000D4E92712521A002A4FEA430340F31F81BA
:10B8B0000A2A01DD43F00103D4E92912521A002AB1
:10B8C0004FEA430340F30F810A2A01DD43F00103ED
:10B8D000D4E92B12521A002A4FEA430340F3FF80A7
:10B8E0000A2A01DD43F00103D4E92D12521A002A7D
:10B8F0004FEA430340F3EF800A2A01DD43F00103DE
:10B90000D4E92F12521A002A4FEA430340F3DF8092
:10B910000A2A01DD43F00103D4E93112521A002A48
:10B920004FEA430340F3CF800A2A01DD43F00103CD
:10B93000D4E93312521A002A4FEA430340F3BF807E
:10B940000A2A01DD43F00103D4E93512521A002A14
:10B950004FEA430340F3AF800A2A01DD43F00103BD
:10B96000D4E93712521A002A4FEA430360DD0A2A4B
:10B9700001DD43F00103D4E93912521A002A4FEADB
:10B98000430352DD0A2A01DD43F0010383EA132257
:10B9900082EA121211077FF4F4AA634A1278C3F301
:10B9A0000F132F2A24F8023C7FF4F5AA5F4A22F8ED
:10B9B0001630FFF7F0BA5E4A4FF074619160D8E438
:10B9C0005B4A4FF074619160FFF732BB1346FFF79B
:10B9D0008CBA1346FFF7EFBB13F1090FB4BF002376
:10B9E000012321E713F1090FB4BF0023012353E61C
:10B9F0004FF03D5142F8AC1CBBE44FF03D5142F8D2
:10BA0000AC1CFFF715BB4A4A4A49D160B1E4484A29
:10BA10004849D160FFF70CBB474942F87C1CFFF74F
:10BA200007BB454942F87C1CA3E40932AEDBABE717
:10BA30000932A0DB9DE70932FFF6E2AEDEE609320D
:10BA4000FFF6D2AECEE60932FFF6C2AEBEE609324E
:10BA5000FFF6B2AEAEE60932FFF6A2AE9EE60932BE
:10BA6000FFF692AE8EE60932FFF682AE7EE609322E
:10BA7000FFF672AE6EE60932FFF662AE5EE609329E
:10BA8000FFF652AE4EE60932FFF642AE3EE609320E
:10BA9000FFF632AE2EE60932FFF6D2AECEE609321E
:10BAA000FFF606AE02E60932FFF61AAE16E60932D6
:10BAB000FFF60AAE06E60932FFF652AF4EE709324C
:10BAC000FFF642AF3EE70932FFF632AF2EE709320A
:10BAD000FFF622AF1EE70932FFF612AF0EE709327A
:10BAE000FFF602AFFEE60932FFF6F2AEEEE60932ED
:10BAF000FFF6E2AEDEE60932FFF6D2AECEE609325E
:10BB0000FFF6C2AEBEE60932FFF6B2AEAEE60932CD
:10BB1000FFF6A2AE9EE6094942F8941CFFF788BAE8
:10BB2000064942F8941C24E451B0002054B000208F
:10BB3000006002403D000020400F002000003D203A
:10BB4000024B014618680BF0BBBA00BF0C41002045
:10BB500038B5064D441E14F8011F286819B9BDE810
:10BB600038400BF09FBA0BF0ABFAF4E70C41002021
:10BB70000048EDE789F5050808B5FFF7E9FFBDE8DE
:10BB80000840F5E710B504460348FFF7E1FF2046FB
:10BB9000BDE81040F0E700BF84B8050838B5074C91
:10BBA000074DAC4203D3074B00221A7038BD6288A0
:10BBB000D4E9010147F0D0FC1434F2E79001000809
:10BBC0003007000828E5002038B5074C074DAC4287
:10BBD00003D3074B01221A7038BD6288D4E90110E3
:10BBE00047F0BAFC1434F2E790010008300700086F
:10BBF00028E50020024A136823EA0000106070471D
:10BC000048D90020DFED2E7AB4EEE70AF1EE10FA03
:10BC10004ADDDFED2C6A9FED2C7A01E0B0EE670A79
:10BC2000B4EEC70AF1EE10FA70EE667AF6DC9FED1C
:10BC3000277AF4EEC77AF1EE10FA3ED5DFED216AED
:10BC40009FED237A01E0F0EE407AF4EEC77AF1EE50
:10BC500010FA37EEA60AF6D4DFED1E7AB4EEE70A44
:10BC6000F1EE10FA14DDDFED167A37EEC00A60EE61
:10BC7000006A9FED196A9FED197ADFED197AA6EE39
:10BC8000867A20EE266AE6EE877AA6EE270A7047C5
:10BC9000DFED147AB4EEE70AF1EE10FA44BFDFEDFF
:10BCA0000B7A37EEC00AE2E79FED087AF0EE407AB1
:10BCB000F4EEC77AF1EE10FAC0D4B0EE670ACBE723
:10BCC000DB0F4940DB0FC940E4CB1641DB0F49C015
:10BCD000E4CB16C1DB0FC93F92E741B99730083C6E
:10BCE00015A82ABEDB0FC9BFF0EEC07AB0EEE07A2D
:10BCF000B4EEE77AF1EE10FAB4BFB0EE676AB0EED8
:10BD0000476AB5EE406AF1EE10FA46D0B4EEE77A33
:10BD1000F1EE10FA8CBFF0EE675AF0EE475AC5EE1E
:10BD2000866A9FED1F3A9FED1F6A9FED1F4A9FEDA8
:10BD30001F5ADFED1F3ADFED1F4ADFED1F5AA6EE57
:10BD4000C36AE6EEA34AA6EE864AB7EE006AA6EEFE
:10BD5000845AA6EEA46AE6EE855AC5EE866AB4EE6B
